{
	"contracts/RentalAgreement.sol": {
		"RentalAgreement": {
			"abi": [
				{
					"inputs": [
						{
							"internalType": "address",
							"name": "_tenant",
							"type": "address"
						},
						{
							"internalType": "uint256",
							"name": "_rentAmount",
							"type": "uint256"
						},
						{
							"internalType": "uint256",
							"name": "_depositAmount",
							"type": "uint256"
						},
						{
							"internalType": "string",
							"name": "_contractIPFSHash",
							"type": "string"
						},
						{
							"internalType": "bool",
							"name": "_isStablecoinPayment",
							"type": "bool"
						},
						{
							"internalType": "address",
							"name": "_stablecoinAddress",
							"type": "address"
						},
						{
							"internalType": "address",
							"name": "_priceFeed",
							"type": "address"
						},
						{
							"internalType": "uint256",
							"name": "_paymentDueDate",
							"type": "uint256"
						}
					],
					"stateMutability": "nonpayable",
					"type": "constructor"
				},
				{
					"anonymous": false,
					"inputs": [
						{
							"indexed": true,
							"internalType": "address",
							"name": "landlord",
							"type": "address"
						}
					],
					"name": "ContracRenewalRequested",
					"type": "event"
				},
				{
					"anonymous": false,
					"inputs": [
						{
							"indexed": false,
							"internalType": "uint256",
							"name": "monthsLeft",
							"type": "uint256"
						}
					],
					"name": "ContractExpirationWarning",
					"type": "event"
				},
				{
					"anonymous": false,
					"inputs": [
						{
							"indexed": false,
							"internalType": "uint256",
							"name": "contractEndDate",
							"type": "uint256"
						}
					],
					"name": "ContractRenewed",
					"type": "event"
				},
				{
					"anonymous": false,
					"inputs": [
						{
							"indexed": true,
							"internalType": "address",
							"name": "landlord",
							"type": "address"
						},
						{
							"indexed": true,
							"internalType": "address",
							"name": "tenant",
							"type": "address"
						},
						{
							"indexed": false,
							"internalType": "string",
							"name": "ipfsHash",
							"type": "string"
						}
					],
					"name": "ContractSigned",
					"type": "event"
				},
				{
					"anonymous": false,
					"inputs": [
						{
							"indexed": true,
							"internalType": "address",
							"name": "landlord",
							"type": "address"
						},
						{
							"indexed": false,
							"internalType": "string",
							"name": "reason",
							"type": "string"
						}
					],
					"name": "ContractTerminated",
					"type": "event"
				},
				{
					"anonymous": false,
					"inputs": [
						{
							"indexed": true,
							"internalType": "address",
							"name": "landlord",
							"type": "address"
						},
						{
							"indexed": false,
							"internalType": "uint256",
							"name": "amount",
							"type": "uint256"
						},
						{
							"indexed": false,
							"internalType": "string",
							"name": "reason",
							"type": "string"
						}
					],
					"name": "DepositDeducted",
					"type": "event"
				},
				{
					"anonymous": false,
					"inputs": [
						{
							"indexed": true,
							"internalType": "address",
							"name": "tenant",
							"type": "address"
						},
						{
							"indexed": false,
							"internalType": "uint256",
							"name": "amount",
							"type": "uint256"
						},
						{
							"indexed": false,
							"internalType": "bool",
							"name": "stablecoin",
							"type": "bool"
						}
					],
					"name": "DepositPaid",
					"type": "event"
				},
				{
					"anonymous": false,
					"inputs": [
						{
							"indexed": true,
							"internalType": "address",
							"name": "tenant",
							"type": "address"
						},
						{
							"indexed": false,
							"internalType": "uint256",
							"name": "amount",
							"type": "uint256"
						}
					],
					"name": "DepositReturned",
					"type": "event"
				},
				{
					"anonymous": false,
					"inputs": [
						{
							"indexed": true,
							"internalType": "address",
							"name": "tennat",
							"type": "address"
						},
						{
							"indexed": false,
							"internalType": "uint256",
							"name": "amount",
							"type": "uint256"
						},
						{
							"indexed": false,
							"internalType": "bool",
							"name": "stablecoin",
							"type": "bool"
						}
					],
					"name": "RentPaid",
					"type": "event"
				},
				{
					"anonymous": false,
					"inputs": [
						{
							"indexed": true,
							"internalType": "address",
							"name": "tenant",
							"type": "address"
						},
						{
							"indexed": false,
							"internalType": "uint256",
							"name": "warningCount",
							"type": "uint256"
						}
					],
					"name": "SevereBreachWarningIssued",
					"type": "event"
				},
				{
					"anonymous": false,
					"inputs": [
						{
							"indexed": true,
							"internalType": "address",
							"name": "tenant",
							"type": "address"
						}
					],
					"name": "SevereBreachWarningRequested",
					"type": "event"
				},
				{
					"anonymous": false,
					"inputs": [
						{
							"indexed": false,
							"internalType": "uint256",
							"name": "terminationDate",
							"type": "uint256"
						}
					],
					"name": "TerminationScheduled",
					"type": "event"
				},
				{
					"inputs": [],
					"name": "amountOwed",
					"outputs": [
						{
							"internalType": "uint256",
							"name": "",
							"type": "uint256"
						}
					],
					"stateMutability": "view",
					"type": "function"
				},
				{
					"inputs": [],
					"name": "approveContractRenewal",
					"outputs": [],
					"stateMutability": "nonpayable",
					"type": "function"
				},
				{
					"inputs": [],
					"name": "authorizeAutoPayment",
					"outputs": [],
					"stateMutability": "nonpayable",
					"type": "function"
				},
				{
					"inputs": [
						{
							"internalType": "address",
							"name": "",
							"type": "address"
						}
					],
					"name": "autoPaymentApproved",
					"outputs": [
						{
							"internalType": "bool",
							"name": "",
							"type": "bool"
						}
					],
					"stateMutability": "view",
					"type": "function"
				},
				{
					"inputs": [],
					"name": "calculateUpdatedDeposit",
					"outputs": [
						{
							"internalType": "uint256",
							"name": "",
							"type": "uint256"
						}
					],
					"stateMutability": "view",
					"type": "function"
				},
				{
					"inputs": [],
					"name": "checkContractExpiration",
					"outputs": [],
					"stateMutability": "nonpayable",
					"type": "function"
				},
				{
					"inputs": [],
					"name": "checkTermination",
					"outputs": [],
					"stateMutability": "nonpayable",
					"type": "function"
				},
				{
					"inputs": [],
					"name": "confirmWarning",
					"outputs": [],
					"stateMutability": "nonpayable",
					"type": "function"
				},
				{
					"inputs": [],
					"name": "contractEndDate",
					"outputs": [
						{
							"internalType": "uint256",
							"name": "",
							"type": "uint256"
						}
					],
					"stateMutability": "view",
					"type": "function"
				},
				{
					"inputs": [],
					"name": "contractIPFSHash",
					"outputs": [
						{
							"internalType": "string",
							"name": "",
							"type": "string"
						}
					],
					"stateMutability": "view",
					"type": "function"
				},
				{
					"inputs": [
						{
							"internalType": "uint256",
							"name": "amount",
							"type": "uint256"
						},
						{
							"internalType": "string",
							"name": "reason",
							"type": "string"
						}
					],
					"name": "deductFromDeposit",
					"outputs": [],
					"stateMutability": "nonpayable",
					"type": "function"
				},
				{
					"inputs": [],
					"name": "deductedAmount",
					"outputs": [
						{
							"internalType": "uint256",
							"name": "",
							"type": "uint256"
						}
					],
					"stateMutability": "view",
					"type": "function"
				},
				{
					"inputs": [],
					"name": "depositAmount",
					"outputs": [
						{
							"internalType": "uint256",
							"name": "",
							"type": "uint256"
						}
					],
					"stateMutability": "view",
					"type": "function"
				},
				{
					"inputs": [],
					"name": "depositBalance",
					"outputs": [
						{
							"internalType": "uint256",
							"name": "",
							"type": "uint256"
						}
					],
					"stateMutability": "view",
					"type": "function"
				},
				{
					"inputs": [],
					"name": "depositStartTime",
					"outputs": [
						{
							"internalType": "uint256",
							"name": "",
							"type": "uint256"
						}
					],
					"stateMutability": "view",
					"type": "function"
				},
				{
					"inputs": [],
					"name": "executeTenantTermination",
					"outputs": [],
					"stateMutability": "nonpayable",
					"type": "function"
				},
				{
					"inputs": [],
					"name": "executeTermination",
					"outputs": [],
					"stateMutability": "nonpayable",
					"type": "function"
				},
				{
					"inputs": [],
					"name": "getLatestInterestRate",
					"outputs": [
						{
							"internalType": "uint256",
							"name": "",
							"type": "uint256"
						}
					],
					"stateMutability": "view",
					"type": "function"
				},
				{
					"inputs": [],
					"name": "getLatestPrice",
					"outputs": [
						{
							"internalType": "uint256",
							"name": "",
							"type": "uint256"
						}
					],
					"stateMutability": "view",
					"type": "function"
				},
				{
					"inputs": [],
					"name": "getNextPaymentTimeStamp",
					"outputs": [
						{
							"internalType": "uint256",
							"name": "",
							"type": "uint256"
						}
					],
					"stateMutability": "view",
					"type": "function"
				},
				{
					"inputs": [],
					"name": "getPaymentHistory",
					"outputs": [
						{
							"components": [
								{
									"internalType": "uint256",
									"name": "timestamp",
									"type": "uint256"
								},
								{
									"internalType": "uint256",
									"name": "amount",
									"type": "uint256"
								},
								{
									"internalType": "bool",
									"name": "stablecoin",
									"type": "bool"
								}
							],
							"internalType": "struct RentalAgreement.PaymentRecord[]",
							"name": "",
							"type": "tuple[]"
						}
					],
					"stateMutability": "view",
					"type": "function"
				},
				{
					"inputs": [],
					"name": "isStabelcoinPayment",
					"outputs": [
						{
							"internalType": "bool",
							"name": "",
							"type": "bool"
						}
					],
					"stateMutability": "view",
					"type": "function"
				},
				{
					"inputs": [],
					"name": "landlord",
					"outputs": [
						{
							"internalType": "address",
							"name": "",
							"type": "address"
						}
					],
					"stateMutability": "view",
					"type": "function"
				},
				{
					"inputs": [],
					"name": "leaseStartTimestamp",
					"outputs": [
						{
							"internalType": "uint256",
							"name": "",
							"type": "uint256"
						}
					],
					"stateMutability": "view",
					"type": "function"
				},
				{
					"inputs": [],
					"name": "payDeposit",
					"outputs": [],
					"stateMutability": "payable",
					"type": "function"
				},
				{
					"inputs": [],
					"name": "payRent",
					"outputs": [],
					"stateMutability": "payable",
					"type": "function"
				},
				{
					"inputs": [],
					"name": "paymentDueDate",
					"outputs": [
						{
							"internalType": "uint256",
							"name": "",
							"type": "uint256"
						}
					],
					"stateMutability": "view",
					"type": "function"
				},
				{
					"inputs": [
						{
							"internalType": "uint256",
							"name": "",
							"type": "uint256"
						}
					],
					"name": "paymentHistory",
					"outputs": [
						{
							"internalType": "uint256",
							"name": "timestamp",
							"type": "uint256"
						},
						{
							"internalType": "uint256",
							"name": "amount",
							"type": "uint256"
						},
						{
							"internalType": "bool",
							"name": "stablecoin",
							"type": "bool"
						}
					],
					"stateMutability": "view",
					"type": "function"
				},
				{
					"inputs": [],
					"name": "pendingSevereBreachWarning",
					"outputs": [
						{
							"internalType": "bool",
							"name": "",
							"type": "bool"
						}
					],
					"stateMutability": "view",
					"type": "function"
				},
				{
					"inputs": [],
					"name": "processAutoPayment",
					"outputs": [],
					"stateMutability": "nonpayable",
					"type": "function"
				},
				{
					"inputs": [],
					"name": "renewalApproved",
					"outputs": [
						{
							"internalType": "bool",
							"name": "",
							"type": "bool"
						}
					],
					"stateMutability": "view",
					"type": "function"
				},
				{
					"inputs": [],
					"name": "renewalRequest",
					"outputs": [
						{
							"internalType": "bool",
							"name": "",
							"type": "bool"
						}
					],
					"stateMutability": "view",
					"type": "function"
				},
				{
					"inputs": [],
					"name": "rentAmount",
					"outputs": [
						{
							"internalType": "uint256",
							"name": "",
							"type": "uint256"
						}
					],
					"stateMutability": "view",
					"type": "function"
				},
				{
					"inputs": [],
					"name": "rentalStatus",
					"outputs": [
						{
							"internalType": "enum RentalAgreement.RentalStatus",
							"name": "",
							"type": "uint8"
						}
					],
					"stateMutability": "view",
					"type": "function"
				},
				{
					"inputs": [],
					"name": "requestContractRenewal",
					"outputs": [],
					"stateMutability": "nonpayable",
					"type": "function"
				},
				{
					"inputs": [],
					"name": "requestTerminationByTennant",
					"outputs": [],
					"stateMutability": "nonpayable",
					"type": "function"
				},
				{
					"inputs": [],
					"name": "requestWarning",
					"outputs": [],
					"stateMutability": "nonpayable",
					"type": "function"
				},
				{
					"inputs": [],
					"name": "returnDeposit",
					"outputs": [],
					"stateMutability": "nonpayable",
					"type": "function"
				},
				{
					"inputs": [],
					"name": "revokeAutoPayment",
					"outputs": [],
					"stateMutability": "nonpayable",
					"type": "function"
				},
				{
					"inputs": [],
					"name": "stabelcoinAddress",
					"outputs": [
						{
							"internalType": "address",
							"name": "",
							"type": "address"
						}
					],
					"stateMutability": "view",
					"type": "function"
				},
				{
					"inputs": [],
					"name": "tenant",
					"outputs": [
						{
							"internalType": "address",
							"name": "",
							"type": "address"
						}
					],
					"stateMutability": "view",
					"type": "function"
				},
				{
					"inputs": [
						{
							"internalType": "string",
							"name": "reason",
							"type": "string"
						}
					],
					"name": "terminateContract",
					"outputs": [],
					"stateMutability": "nonpayable",
					"type": "function"
				},
				{
					"inputs": [],
					"name": "terminateContractIfNotRenewed",
					"outputs": [],
					"stateMutability": "nonpayable",
					"type": "function"
				},
				{
					"inputs": [],
					"name": "terminationTimeStamp",
					"outputs": [
						{
							"internalType": "uint256",
							"name": "",
							"type": "uint256"
						}
					],
					"stateMutability": "view",
					"type": "function"
				},
				{
					"inputs": [],
					"name": "warningCount",
					"outputs": [
						{
							"internalType": "uint256",
							"name": "",
							"type": "uint256"
						}
					],
					"stateMutability": "view",
					"type": "function"
				}
			],
			"devdoc": {
				"kind": "dev",
				"methods": {},
				"version": 1
			},
			"evm": {
				"assembly": "    /* \"contracts/RentalAgreement.sol\":160:11604  contract RentalAgreement {... */\n  mstore(0x40, 0x80)\n    /* \"contracts/RentalAgreement.sol\":2316:3406  constructor(... */\n  callvalue\n  dup1\n  iszero\n  tag_1\n  jumpi\n  0x00\n  dup1\n  revert\ntag_1:\n  pop\n  mload(0x40)\n  sub(codesize, bytecodeSize)\n  dup1\n  bytecodeSize\n  dup4\n  codecopy\n  dup2\n  dup2\n  add\n  0x40\n  mstore\n  dup2\n  add\n  swap1\n  tag_2\n  swap2\n  swap1\n  tag_3\n  jump\t// in\ntag_2:\n    /* \"contracts/RentalAgreement.sol\":2615:2625  msg.sender */\n  caller\n    /* \"contracts/RentalAgreement.sol\":2604:2612  landlord */\n  0x00\n  dup1\n    /* \"contracts/RentalAgreement.sol\":2604:2625  landlord = msg.sender */\n  0x0100\n  exp\n  dup2\n  sload\n  dup2\n  0xffffffffffffffffffffffffffffffffffffffff\n  mul\n  not\n  and\n  swap1\n  dup4\n  0xffffffffffffffffffffffffffffffffffffffff\n  and\n  mul\n  or\n  swap1\n  sstore\n  pop\n    /* \"contracts/RentalAgreement.sol\":2645:2652  _tenant */\n  dup8\n    /* \"contracts/RentalAgreement.sol\":2636:2642  tenant */\n  0x01\n  0x00\n    /* \"contracts/RentalAgreement.sol\":2636:2652  tenant = _tenant */\n  0x0100\n  exp\n  dup2\n  sload\n  dup2\n  0xffffffffffffffffffffffffffffffffffffffff\n  mul\n  not\n  and\n  swap1\n  dup4\n  0xffffffffffffffffffffffffffffffffffffffff\n  and\n  mul\n  or\n  swap1\n  sstore\n  pop\n    /* \"contracts/RentalAgreement.sol\":2676:2687  _rentAmount */\n  dup7\n    /* \"contracts/RentalAgreement.sol\":2663:2673  rentAmount */\n  0x02\n    /* \"contracts/RentalAgreement.sol\":2663:2687  rentAmount = _rentAmount */\n  dup2\n  swap1\n  sstore\n  pop\n    /* \"contracts/RentalAgreement.sol\":2714:2728  _depositAmount */\n  dup6\n    /* \"contracts/RentalAgreement.sol\":2698:2711  depositAmount */\n  0x03\n    /* \"contracts/RentalAgreement.sol\":2698:2728  depositAmount = _depositAmount */\n  dup2\n  swap1\n  sstore\n  pop\n    /* \"contracts/RentalAgreement.sol\":2758:2775  _contractIPFSHash */\n  dup5\n    /* \"contracts/RentalAgreement.sol\":2739:2755  contractIPFSHash */\n  0x04\n    /* \"contracts/RentalAgreement.sol\":2739:2775  contractIPFSHash = _contractIPFSHash */\n  swap1\n  dup2\n  tag_6\n  swap2\n  swap1\n  tag_7\n  jump\t// in\ntag_6:\n  pop\n    /* \"contracts/RentalAgreement.sol\":2808:2828  _isStablecoinPayment */\n  dup4\n    /* \"contracts/RentalAgreement.sol\":2786:2805  isStabelcoinPayment */\n  0x05\n  0x00\n    /* \"contracts/RentalAgreement.sol\":2786:2828  isStabelcoinPayment = _isStablecoinPayment */\n  0x0100\n  exp\n  dup2\n  sload\n  dup2\n  0xff\n  mul\n  not\n  and\n  swap1\n  dup4\n  iszero\n  iszero\n  mul\n  or\n  swap1\n  sstore\n  pop\n    /* \"contracts/RentalAgreement.sol\":2859:2877  _stablecoinAddress */\n  dup3\n    /* \"contracts/RentalAgreement.sol\":2839:2856  stabelcoinAddress */\n  0x05\n  0x01\n    /* \"contracts/RentalAgreement.sol\":2839:2877  stabelcoinAddress = _stablecoinAddress */\n  0x0100\n  exp\n  dup2\n  sload\n  dup2\n  0xffffffffffffffffffffffffffffffffffffffff\n  mul\n  not\n  and\n  swap1\n  dup4\n  0xffffffffffffffffffffffffffffffffffffffff\n  and\n  mul\n  or\n  swap1\n  sstore\n  pop\n    /* \"contracts/RentalAgreement.sol\":2922:2932  _priceFeed */\n  dup2\n    /* \"contracts/RentalAgreement.sol\":2888:2897  priceFeed */\n  0x06\n  0x00\n    /* \"contracts/RentalAgreement.sol\":2888:2933  priceFeed = AggregatorV3Interface(_priceFeed) */\n  0x0100\n  exp\n  dup2\n  sload\n  dup2\n  0xffffffffffffffffffffffffffffffffffffffff\n  mul\n  not\n  and\n  swap1\n  dup4\n  0xffffffffffffffffffffffffffffffffffffffff\n  and\n  mul\n  or\n  swap1\n  sstore\n  pop\n    /* \"contracts/RentalAgreement.sol\":2959:2978  RentalStatus.Active */\n  0x00\n    /* \"contracts/RentalAgreement.sol\":2944:2956  rentalStatus */\n  0x13\n  0x00\n    /* \"contracts/RentalAgreement.sol\":2944:2978  rentalStatus = RentalStatus.Active */\n  0x0100\n  exp\n  dup2\n  sload\n  dup2\n  0xff\n  mul\n  not\n  and\n  swap1\n  dup4\n  0x02\n  dup2\n  gt\n  iszero\n  tag_8\n  jumpi\n  tag_9\n  tag_10\n  jump\t// in\ntag_9:\ntag_8:\n  mul\n  or\n  swap1\n  sstore\n  pop\n    /* \"contracts/RentalAgreement.sol\":3008:3023  block.timestamp */\n  timestamp\n    /* \"contracts/RentalAgreement.sol\":2989:3005  depositStartTime */\n  0x08\n    /* \"contracts/RentalAgreement.sol\":2989:3023  depositStartTime = block.timestamp */\n  dup2\n  swap1\n  sstore\n  pop\n    /* \"contracts/RentalAgreement.sol\":3051:3052  0 */\n  0x00\n    /* \"contracts/RentalAgreement.sol\":3034:3048  deductedAmount */\n  0x09\n    /* \"contracts/RentalAgreement.sol\":3034:3052  deductedAmount = 0 */\n  dup2\n  swap1\n  sstore\n  pop\n    /* \"contracts/RentalAgreement.sol\":3080:3095  _paymentDueDate */\n  dup1\n    /* \"contracts/RentalAgreement.sol\":3063:3077  paymentDueDate */\n  0x0a\n    /* \"contracts/RentalAgreement.sol\":3063:3095  paymentDueDate = _paymentDueDate */\n  dup2\n  swap1\n  sstore\n  pop\n    /* \"contracts/RentalAgreement.sol\":3121:3122  0 */\n  0x00\n    /* \"contracts/RentalAgreement.sol\":3106:3118  warningCount */\n  0x0b\n    /* \"contracts/RentalAgreement.sol\":3106:3122  warningCount = 0 */\n  dup2\n  swap1\n  sstore\n  pop\n    /* \"contracts/RentalAgreement.sol\":3146:3147  0 */\n  0x00\n    /* \"contracts/RentalAgreement.sol\":3133:3143  amountOwed */\n  0x0c\n    /* \"contracts/RentalAgreement.sol\":3133:3147  amountOwed = 0 */\n  dup2\n  swap1\n  sstore\n  pop\n    /* \"contracts/RentalAgreement.sol\":3187:3192  false */\n  0x00\n    /* \"contracts/RentalAgreement.sol\":3158:3184  pendingSevereBreachWarning */\n  0x0d\n  0x00\n    /* \"contracts/RentalAgreement.sol\":3158:3192  pendingSevereBreachWarning = false */\n  0x0100\n  exp\n  dup2\n  sload\n  dup2\n  0xff\n  mul\n  not\n  and\n  swap1\n  dup4\n  iszero\n  iszero\n  mul\n  or\n  swap1\n  sstore\n  pop\n    /* \"contracts/RentalAgreement.sol\":3226:3227  0 */\n  0x00\n    /* \"contracts/RentalAgreement.sol\":3203:3223  terminationTimeStamp */\n  0x0e\n    /* \"contracts/RentalAgreement.sol\":3203:3227  terminationTimeStamp = 0 */\n  dup2\n  swap1\n  sstore\n  pop\n    /* \"contracts/RentalAgreement.sol\":3260:3275  block.timestamp */\n  timestamp\n    /* \"contracts/RentalAgreement.sol\":3238:3257  leaseStartTimestamp */\n  0x10\n    /* \"contracts/RentalAgreement.sol\":3238:3275  leaseStartTimestamp = block.timestamp */\n  dup2\n  swap1\n  sstore\n  pop\n    /* \"contracts/RentalAgreement.sol\":3322:3330  365 days */\n  0x01e13380\n    /* \"contracts/RentalAgreement.sol\":3304:3319  block.timestamp */\n  timestamp\n    /* \"contracts/RentalAgreement.sol\":3304:3330  block.timestamp + 365 days */\n  tag_11\n  swap2\n  swap1\n  tag_12\n  jump\t// in\ntag_11:\n    /* \"contracts/RentalAgreement.sol\":3286:3301  contractEndDate */\n  0x0f\n    /* \"contracts/RentalAgreement.sol\":3286:3330  contractEndDate = block.timestamp + 365 days */\n  dup2\n  swap1\n  sstore\n  pop\n    /* \"contracts/RentalAgreement.sol\":3373:3379  tenant */\n  0x01\n  0x00\n  swap1\n  sload\n  swap1\n  0x0100\n  exp\n  swap1\n  div\n  0xffffffffffffffffffffffffffffffffffffffff\n  and\n    /* \"contracts/RentalAgreement.sol\":3348:3398  ContractSigned(landlord, tenant, contractIPFSHash) */\n  0xffffffffffffffffffffffffffffffffffffffff\n  and\n    /* \"contracts/RentalAgreement.sol\":3363:3371  landlord */\n  0x00\n  dup1\n  sload\n  swap1\n  0x0100\n  exp\n  swap1\n  div\n  0xffffffffffffffffffffffffffffffffffffffff\n  and\n    /* \"contracts/RentalAgreement.sol\":3348:3398  ContractSigned(landlord, tenant, contractIPFSHash) */\n  0xffffffffffffffffffffffffffffffffffffffff\n  and\n  0x4f1197914a173d10d32a79e20a053170d7dafb93e77cc4f686ce07cdfa0c20fd\n    /* \"contracts/RentalAgreement.sol\":3381:3397  contractIPFSHash */\n  0x04\n    /* \"contracts/RentalAgreement.sol\":3348:3398  ContractSigned(landlord, tenant, contractIPFSHash) */\n  mload(0x40)\n  tag_13\n  swap2\n  swap1\n  tag_14\n  jump\t// in\ntag_13:\n  mload(0x40)\n  dup1\n  swap2\n  sub\n  swap1\n  log3\n    /* \"contracts/RentalAgreement.sol\":2316:3406  constructor(... */\n  pop\n  pop\n  pop\n  pop\n  pop\n  pop\n  pop\n  pop\n    /* \"contracts/RentalAgreement.sol\":160:11604  contract RentalAgreement {... */\n  jump(tag_15)\n    /* \"#utility.yul\":7:82   */\ntag_16:\n    /* \"#utility.yul\":40:46   */\n  0x00\n    /* \"#utility.yul\":73:75   */\n  0x40\n    /* \"#utility.yul\":67:76   */\n  mload\n    /* \"#utility.yul\":57:76   */\n  swap1\n  pop\n    /* \"#utility.yul\":7:82   */\n  swap1\n  jump\t// out\n    /* \"#utility.yul\":88:205   */\ntag_17:\n    /* \"#utility.yul\":197:198   */\n  0x00\n    /* \"#utility.yul\":194:195   */\n  dup1\n    /* \"#utility.yul\":187:199   */\n  revert\n    /* \"#utility.yul\":211:328   */\ntag_18:\n    /* \"#utility.yul\":320:321   */\n  0x00\n    /* \"#utility.yul\":317:318   */\n  dup1\n    /* \"#utility.yul\":310:322   */\n  revert\n    /* \"#utility.yul\":334:460   */\ntag_19:\n    /* \"#utility.yul\":371:378   */\n  0x00\n    /* \"#utility.yul\":411:453   */\n  0xffffffffffffffffffffffffffffffffffffffff\n    /* \"#utility.yul\":404:409   */\n  dup3\n    /* \"#utility.yul\":400:454   */\n  and\n    /* \"#utility.yul\":389:454   */\n  swap1\n  pop\n    /* \"#utility.yul\":334:460   */\n  swap2\n  swap1\n  pop\n  jump\t// out\n    /* \"#utility.yul\":466:562   */\ntag_20:\n    /* \"#utility.yul\":503:510   */\n  0x00\n    /* \"#utility.yul\":532:556   */\n  tag_66\n    /* \"#utility.yul\":550:555   */\n  dup3\n    /* \"#utility.yul\":532:556   */\n  tag_19\n  jump\t// in\ntag_66:\n    /* \"#utility.yul\":521:556   */\n  swap1\n  pop\n    /* \"#utility.yul\":466:562   */\n  swap2\n  swap1\n  pop\n  jump\t// out\n    /* \"#utility.yul\":568:690   */\ntag_21:\n    /* \"#utility.yul\":641:665   */\n  tag_68\n    /* \"#utility.yul\":659:664   */\n  dup2\n    /* \"#utility.yul\":641:665   */\n  tag_20\n  jump\t// in\ntag_68:\n    /* \"#utility.yul\":634:639   */\n  dup2\n    /* \"#utility.yul\":631:666   */\n  eq\n    /* \"#utility.yul\":621:684   */\n  tag_69\n  jumpi\n    /* \"#utility.yul\":680:681   */\n  0x00\n    /* \"#utility.yul\":677:678   */\n  dup1\n    /* \"#utility.yul\":670:682   */\n  revert\n    /* \"#utility.yul\":621:684   */\ntag_69:\n    /* \"#utility.yul\":568:690   */\n  pop\n  jump\t// out\n    /* \"#utility.yul\":696:839   */\ntag_22:\n    /* \"#utility.yul\":753:758   */\n  0x00\n    /* \"#utility.yul\":784:790   */\n  dup2\n    /* \"#utility.yul\":778:791   */\n  mload\n    /* \"#utility.yul\":769:791   */\n  swap1\n  pop\n    /* \"#utility.yul\":800:833   */\n  tag_71\n    /* \"#utility.yul\":827:832   */\n  dup2\n    /* \"#utility.yul\":800:833   */\n  tag_21\n  jump\t// in\ntag_71:\n    /* \"#utility.yul\":696:839   */\n  swap3\n  swap2\n  pop\n  pop\n  jump\t// out\n    /* \"#utility.yul\":845:922   */\ntag_23:\n    /* \"#utility.yul\":882:889   */\n  0x00\n    /* \"#utility.yul\":911:916   */\n  dup2\n    /* \"#utility.yul\":900:916   */\n  swap1\n  pop\n    /* \"#utility.yul\":845:922   */\n  swap2\n  swap1\n  pop\n  jump\t// out\n    /* \"#utility.yul\":928:1050   */\ntag_24:\n    /* \"#utility.yul\":1001:1025   */\n  tag_74\n    /* \"#utility.yul\":1019:1024   */\n  dup2\n    /* \"#utility.yul\":1001:1025   */\n  tag_23\n  jump\t// in\ntag_74:\n    /* \"#utility.yul\":994:999   */\n  dup2\n    /* \"#utility.yul\":991:1026   */\n  eq\n    /* \"#utility.yul\":981:1044   */\n  tag_75\n  jumpi\n    /* \"#utility.yul\":1040:1041   */\n  0x00\n    /* \"#utility.yul\":1037:1038   */\n  dup1\n    /* \"#utility.yul\":1030:1042   */\n  revert\n    /* \"#utility.yul\":981:1044   */\ntag_75:\n    /* \"#utility.yul\":928:1050   */\n  pop\n  jump\t// out\n    /* \"#utility.yul\":1056:1199   */\ntag_25:\n    /* \"#utility.yul\":1113:1118   */\n  0x00\n    /* \"#utility.yul\":1144:1150   */\n  dup2\n    /* \"#utility.yul\":1138:1151   */\n  mload\n    /* \"#utility.yul\":1129:1151   */\n  swap1\n  pop\n    /* \"#utility.yul\":1160:1193   */\n  tag_77\n    /* \"#utility.yul\":1187:1192   */\n  dup2\n    /* \"#utility.yul\":1160:1193   */\n  tag_24\n  jump\t// in\ntag_77:\n    /* \"#utility.yul\":1056:1199   */\n  swap3\n  swap2\n  pop\n  pop\n  jump\t// out\n    /* \"#utility.yul\":1205:1322   */\ntag_26:\n    /* \"#utility.yul\":1314:1315   */\n  0x00\n    /* \"#utility.yul\":1311:1312   */\n  dup1\n    /* \"#utility.yul\":1304:1316   */\n  revert\n    /* \"#utility.yul\":1328:1445   */\ntag_27:\n    /* \"#utility.yul\":1437:1438   */\n  0x00\n    /* \"#utility.yul\":1434:1435   */\n  dup1\n    /* \"#utility.yul\":1427:1439   */\n  revert\n    /* \"#utility.yul\":1451:1553   */\ntag_28:\n    /* \"#utility.yul\":1492:1498   */\n  0x00\n    /* \"#utility.yul\":1543:1545   */\n  0x1f\n    /* \"#utility.yul\":1539:1546   */\n  not\n    /* \"#utility.yul\":1534:1536   */\n  0x1f\n    /* \"#utility.yul\":1527:1532   */\n  dup4\n    /* \"#utility.yul\":1523:1537   */\n  add\n    /* \"#utility.yul\":1519:1547   */\n  and\n    /* \"#utility.yul\":1509:1547   */\n  swap1\n  pop\n    /* \"#utility.yul\":1451:1553   */\n  swap2\n  swap1\n  pop\n  jump\t// out\n    /* \"#utility.yul\":1559:1739   */\ntag_29:\n    /* \"#utility.yul\":1607:1684   */\n  0x4e487b7100000000000000000000000000000000000000000000000000000000\n    /* \"#utility.yul\":1604:1605   */\n  0x00\n    /* \"#utility.yul\":1597:1685   */\n  mstore\n    /* \"#utility.yul\":1704:1708   */\n  0x41\n    /* \"#utility.yul\":1701:1702   */\n  0x04\n    /* \"#utility.yul\":1694:1709   */\n  mstore\n    /* \"#utility.yul\":1728:1732   */\n  0x24\n    /* \"#utility.yul\":1725:1726   */\n  0x00\n    /* \"#utility.yul\":1718:1733   */\n  revert\n    /* \"#utility.yul\":1745:2026   */\ntag_30:\n    /* \"#utility.yul\":1828:1855   */\n  tag_83\n    /* \"#utility.yul\":1850:1854   */\n  dup3\n    /* \"#utility.yul\":1828:1855   */\n  tag_28\n  jump\t// in\ntag_83:\n    /* \"#utility.yul\":1820:1826   */\n  dup2\n    /* \"#utility.yul\":1816:1856   */\n  add\n    /* \"#utility.yul\":1958:1964   */\n  dup2\n    /* \"#utility.yul\":1946:1956   */\n  dup2\n    /* \"#utility.yul\":1943:1965   */\n  lt\n    /* \"#utility.yul\":1922:1940   */\n  0xffffffffffffffff\n    /* \"#utility.yul\":1910:1920   */\n  dup3\n    /* \"#utility.yul\":1907:1941   */\n  gt\n    /* \"#utility.yul\":1904:1966   */\n  or\n    /* \"#utility.yul\":1901:1989   */\n  iszero\n  tag_84\n  jumpi\n    /* \"#utility.yul\":1969:1987   */\n  tag_85\n  tag_29\n  jump\t// in\ntag_85:\n    /* \"#utility.yul\":1901:1989   */\ntag_84:\n    /* \"#utility.yul\":2009:2019   */\n  dup1\n    /* \"#utility.yul\":2005:2007   */\n  0x40\n    /* \"#utility.yul\":1998:2020   */\n  mstore\n    /* \"#utility.yul\":1788:2026   */\n  pop\n    /* \"#utility.yul\":1745:2026   */\n  pop\n  pop\n  jump\t// out\n    /* \"#utility.yul\":2032:2161   */\ntag_31:\n    /* \"#utility.yul\":2066:2072   */\n  0x00\n    /* \"#utility.yul\":2093:2113   */\n  tag_87\n  tag_16\n  jump\t// in\ntag_87:\n    /* \"#utility.yul\":2083:2113   */\n  swap1\n  pop\n    /* \"#utility.yul\":2122:2155   */\n  tag_88\n    /* \"#utility.yul\":2150:2154   */\n  dup3\n    /* \"#utility.yul\":2142:2148   */\n  dup3\n    /* \"#utility.yul\":2122:2155   */\n  tag_30\n  jump\t// in\ntag_88:\n    /* \"#utility.yul\":2032:2161   */\n  swap2\n  swap1\n  pop\n  jump\t// out\n    /* \"#utility.yul\":2167:2475   */\ntag_32:\n    /* \"#utility.yul\":2229:2233   */\n  0x00\n    /* \"#utility.yul\":2319:2337   */\n  0xffffffffffffffff\n    /* \"#utility.yul\":2311:2317   */\n  dup3\n    /* \"#utility.yul\":2308:2338   */\n  gt\n    /* \"#utility.yul\":2305:2361   */\n  iszero\n  tag_90\n  jumpi\n    /* \"#utility.yul\":2341:2359   */\n  tag_91\n  tag_29\n  jump\t// in\ntag_91:\n    /* \"#utility.yul\":2305:2361   */\ntag_90:\n    /* \"#utility.yul\":2379:2408   */\n  tag_92\n    /* \"#utility.yul\":2401:2407   */\n  dup3\n    /* \"#utility.yul\":2379:2408   */\n  tag_28\n  jump\t// in\ntag_92:\n    /* \"#utility.yul\":2371:2408   */\n  swap1\n  pop\n    /* \"#utility.yul\":2463:2467   */\n  0x20\n    /* \"#utility.yul\":2457:2461   */\n  dup2\n    /* \"#utility.yul\":2453:2468   */\n  add\n    /* \"#utility.yul\":2445:2468   */\n  swap1\n  pop\n    /* \"#utility.yul\":2167:2475   */\n  swap2\n  swap1\n  pop\n  jump\t// out\n    /* \"#utility.yul\":2481:2620   */\ntag_33:\n    /* \"#utility.yul\":2570:2576   */\n  dup3\n    /* \"#utility.yul\":2565:2568   */\n  dup2\n    /* \"#utility.yul\":2560:2563   */\n  dup4\n    /* \"#utility.yul\":2554:2577   */\n  mcopy\n    /* \"#utility.yul\":2611:2612   */\n  0x00\n    /* \"#utility.yul\":2602:2608   */\n  dup4\n    /* \"#utility.yul\":2597:2600   */\n  dup4\n    /* \"#utility.yul\":2593:2609   */\n  add\n    /* \"#utility.yul\":2586:2613   */\n  mstore\n    /* \"#utility.yul\":2481:2620   */\n  pop\n  pop\n  pop\n  jump\t// out\n    /* \"#utility.yul\":2626:3060   */\ntag_34:\n    /* \"#utility.yul\":2715:2720   */\n  0x00\n    /* \"#utility.yul\":2740:2806   */\n  tag_95\n    /* \"#utility.yul\":2756:2805   */\n  tag_96\n    /* \"#utility.yul\":2798:2804   */\n  dup5\n    /* \"#utility.yul\":2756:2805   */\n  tag_32\n  jump\t// in\ntag_96:\n    /* \"#utility.yul\":2740:2806   */\n  tag_31\n  jump\t// in\ntag_95:\n    /* \"#utility.yul\":2731:2806   */\n  swap1\n  pop\n    /* \"#utility.yul\":2829:2835   */\n  dup3\n    /* \"#utility.yul\":2822:2827   */\n  dup2\n    /* \"#utility.yul\":2815:2836   */\n  mstore\n    /* \"#utility.yul\":2867:2871   */\n  0x20\n    /* \"#utility.yul\":2860:2865   */\n  dup2\n    /* \"#utility.yul\":2856:2872   */\n  add\n    /* \"#utility.yul\":2905:2908   */\n  dup5\n    /* \"#utility.yul\":2896:2902   */\n  dup5\n    /* \"#utility.yul\":2891:2894   */\n  dup5\n    /* \"#utility.yul\":2887:2903   */\n  add\n    /* \"#utility.yul\":2884:2909   */\n  gt\n    /* \"#utility.yul\":2881:2993   */\n  iszero\n  tag_97\n  jumpi\n    /* \"#utility.yul\":2912:2991   */\n  tag_98\n  tag_27\n  jump\t// in\ntag_98:\n    /* \"#utility.yul\":2881:2993   */\ntag_97:\n    /* \"#utility.yul\":3002:3054   */\n  tag_99\n    /* \"#utility.yul\":3047:3053   */\n  dup5\n    /* \"#utility.yul\":3042:3045   */\n  dup3\n    /* \"#utility.yul\":3037:3040   */\n  dup6\n    /* \"#utility.yul\":3002:3054   */\n  tag_33\n  jump\t// in\ntag_99:\n    /* \"#utility.yul\":2721:3060   */\n  pop\n    /* \"#utility.yul\":2626:3060   */\n  swap4\n  swap3\n  pop\n  pop\n  pop\n  jump\t// out\n    /* \"#utility.yul\":3080:3435   */\ntag_35:\n    /* \"#utility.yul\":3147:3152   */\n  0x00\n    /* \"#utility.yul\":3196:3199   */\n  dup3\n    /* \"#utility.yul\":3189:3193   */\n  0x1f\n    /* \"#utility.yul\":3181:3187   */\n  dup4\n    /* \"#utility.yul\":3177:3194   */\n  add\n    /* \"#utility.yul\":3173:3200   */\n  slt\n    /* \"#utility.yul\":3163:3285   */\n  tag_101\n  jumpi\n    /* \"#utility.yul\":3204:3283   */\n  tag_102\n  tag_26\n  jump\t// in\ntag_102:\n    /* \"#utility.yul\":3163:3285   */\ntag_101:\n    /* \"#utility.yul\":3314:3320   */\n  dup2\n    /* \"#utility.yul\":3308:3321   */\n  mload\n    /* \"#utility.yul\":3339:3429   */\n  tag_103\n    /* \"#utility.yul\":3425:3428   */\n  dup5\n    /* \"#utility.yul\":3417:3423   */\n  dup3\n    /* \"#utility.yul\":3410:3414   */\n  0x20\n    /* \"#utility.yul\":3402:3408   */\n  dup7\n    /* \"#utility.yul\":3398:3415   */\n  add\n    /* \"#utility.yul\":3339:3429   */\n  tag_34\n  jump\t// in\ntag_103:\n    /* \"#utility.yul\":3330:3429   */\n  swap2\n  pop\n    /* \"#utility.yul\":3153:3435   */\n  pop\n    /* \"#utility.yul\":3080:3435   */\n  swap3\n  swap2\n  pop\n  pop\n  jump\t// out\n    /* \"#utility.yul\":3441:3531   */\ntag_36:\n    /* \"#utility.yul\":3475:3482   */\n  0x00\n    /* \"#utility.yul\":3518:3523   */\n  dup2\n    /* \"#utility.yul\":3511:3524   */\n  iszero\n    /* \"#utility.yul\":3504:3525   */\n  iszero\n    /* \"#utility.yul\":3493:3525   */\n  swap1\n  pop\n    /* \"#utility.yul\":3441:3531   */\n  swap2\n  swap1\n  pop\n  jump\t// out\n    /* \"#utility.yul\":3537:3653   */\ntag_37:\n    /* \"#utility.yul\":3607:3628   */\n  tag_106\n    /* \"#utility.yul\":3622:3627   */\n  dup2\n    /* \"#utility.yul\":3607:3628   */\n  tag_36\n  jump\t// in\ntag_106:\n    /* \"#utility.yul\":3600:3605   */\n  dup2\n    /* \"#utility.yul\":3597:3629   */\n  eq\n    /* \"#utility.yul\":3587:3647   */\n  tag_107\n  jumpi\n    /* \"#utility.yul\":3643:3644   */\n  0x00\n    /* \"#utility.yul\":3640:3641   */\n  dup1\n    /* \"#utility.yul\":3633:3645   */\n  revert\n    /* \"#utility.yul\":3587:3647   */\ntag_107:\n    /* \"#utility.yul\":3537:3653   */\n  pop\n  jump\t// out\n    /* \"#utility.yul\":3659:3796   */\ntag_38:\n    /* \"#utility.yul\":3713:3718   */\n  0x00\n    /* \"#utility.yul\":3744:3750   */\n  dup2\n    /* \"#utility.yul\":3738:3751   */\n  mload\n    /* \"#utility.yul\":3729:3751   */\n  swap1\n  pop\n    /* \"#utility.yul\":3760:3790   */\n  tag_109\n    /* \"#utility.yul\":3784:3789   */\n  dup2\n    /* \"#utility.yul\":3760:3790   */\n  tag_37\n  jump\t// in\ntag_109:\n    /* \"#utility.yul\":3659:3796   */\n  swap3\n  swap2\n  pop\n  pop\n  jump\t// out\n    /* \"#utility.yul\":3802:5417   */\ntag_3:\n    /* \"#utility.yul\":3942:3948   */\n  0x00\n    /* \"#utility.yul\":3950:3956   */\n  dup1\n    /* \"#utility.yul\":3958:3964   */\n  0x00\n    /* \"#utility.yul\":3966:3972   */\n  dup1\n    /* \"#utility.yul\":3974:3980   */\n  0x00\n    /* \"#utility.yul\":3982:3988   */\n  dup1\n    /* \"#utility.yul\":3990:3996   */\n  0x00\n    /* \"#utility.yul\":3998:4004   */\n  dup1\n    /* \"#utility.yul\":4047:4050   */\n  0x0100\n    /* \"#utility.yul\":4035:4044   */\n  dup10\n    /* \"#utility.yul\":4026:4033   */\n  dup12\n    /* \"#utility.yul\":4022:4045   */\n  sub\n    /* \"#utility.yul\":4018:4051   */\n  slt\n    /* \"#utility.yul\":4015:4135   */\n  iszero\n  tag_111\n  jumpi\n    /* \"#utility.yul\":4054:4133   */\n  tag_112\n  tag_17\n  jump\t// in\ntag_112:\n    /* \"#utility.yul\":4015:4135   */\ntag_111:\n    /* \"#utility.yul\":4174:4175   */\n  0x00\n    /* \"#utility.yul\":4199:4263   */\n  tag_113\n    /* \"#utility.yul\":4255:4262   */\n  dup12\n    /* \"#utility.yul\":4246:4252   */\n  dup3\n    /* \"#utility.yul\":4235:4244   */\n  dup13\n    /* \"#utility.yul\":4231:4253   */\n  add\n    /* \"#utility.yul\":4199:4263   */\n  tag_22\n  jump\t// in\ntag_113:\n    /* \"#utility.yul\":4189:4263   */\n  swap9\n  pop\n    /* \"#utility.yul\":4145:4273   */\n  pop\n    /* \"#utility.yul\":4312:4314   */\n  0x20\n    /* \"#utility.yul\":4338:4402   */\n  tag_114\n    /* \"#utility.yul\":4394:4401   */\n  dup12\n    /* \"#utility.yul\":4385:4391   */\n  dup3\n    /* \"#utility.yul\":4374:4383   */\n  dup13\n    /* \"#utility.yul\":4370:4392   */\n  add\n    /* \"#utility.yul\":4338:4402   */\n  tag_25\n  jump\t// in\ntag_114:\n    /* \"#utility.yul\":4328:4402   */\n  swap8\n  pop\n    /* \"#utility.yul\":4283:4412   */\n  pop\n    /* \"#utility.yul\":4451:4453   */\n  0x40\n    /* \"#utility.yul\":4477:4541   */\n  tag_115\n    /* \"#utility.yul\":4533:4540   */\n  dup12\n    /* \"#utility.yul\":4524:4530   */\n  dup3\n    /* \"#utility.yul\":4513:4522   */\n  dup13\n    /* \"#utility.yul\":4509:4531   */\n  add\n    /* \"#utility.yul\":4477:4541   */\n  tag_25\n  jump\t// in\ntag_115:\n    /* \"#utility.yul\":4467:4541   */\n  swap7\n  pop\n    /* \"#utility.yul\":4422:4551   */\n  pop\n    /* \"#utility.yul\":4611:4613   */\n  0x60\n    /* \"#utility.yul\":4600:4609   */\n  dup10\n    /* \"#utility.yul\":4596:4614   */\n  add\n    /* \"#utility.yul\":4590:4615   */\n  mload\n    /* \"#utility.yul\":4642:4660   */\n  0xffffffffffffffff\n    /* \"#utility.yul\":4634:4640   */\n  dup2\n    /* \"#utility.yul\":4631:4661   */\n  gt\n    /* \"#utility.yul\":4628:4745   */\n  iszero\n  tag_116\n  jumpi\n    /* \"#utility.yul\":4664:4743   */\n  tag_117\n  tag_18\n  jump\t// in\ntag_117:\n    /* \"#utility.yul\":4628:4745   */\ntag_116:\n    /* \"#utility.yul\":4769:4843   */\n  tag_118\n    /* \"#utility.yul\":4835:4842   */\n  dup12\n    /* \"#utility.yul\":4826:4832   */\n  dup3\n    /* \"#utility.yul\":4815:4824   */\n  dup13\n    /* \"#utility.yul\":4811:4833   */\n  add\n    /* \"#utility.yul\":4769:4843   */\n  tag_35\n  jump\t// in\ntag_118:\n    /* \"#utility.yul\":4759:4843   */\n  swap6\n  pop\n    /* \"#utility.yul\":4561:4853   */\n  pop\n    /* \"#utility.yul\":4892:4895   */\n  0x80\n    /* \"#utility.yul\":4919:4980   */\n  tag_119\n    /* \"#utility.yul\":4972:4979   */\n  dup12\n    /* \"#utility.yul\":4963:4969   */\n  dup3\n    /* \"#utility.yul\":4952:4961   */\n  dup13\n    /* \"#utility.yul\":4948:4970   */\n  add\n    /* \"#utility.yul\":4919:4980   */\n  tag_38\n  jump\t// in\ntag_119:\n    /* \"#utility.yul\":4909:4980   */\n  swap5\n  pop\n    /* \"#utility.yul\":4863:4990   */\n  pop\n    /* \"#utility.yul\":5029:5032   */\n  0xa0\n    /* \"#utility.yul\":5056:5120   */\n  tag_120\n    /* \"#utility.yul\":5112:5119   */\n  dup12\n    /* \"#utility.yul\":5103:5109   */\n  dup3\n    /* \"#utility.yul\":5092:5101   */\n  dup13\n    /* \"#utility.yul\":5088:5110   */\n  add\n    /* \"#utility.yul\":5056:5120   */\n  tag_22\n  jump\t// in\ntag_120:\n    /* \"#utility.yul\":5046:5120   */\n  swap4\n  pop\n    /* \"#utility.yul\":5000:5130   */\n  pop\n    /* \"#utility.yul\":5169:5172   */\n  0xc0\n    /* \"#utility.yul\":5196:5260   */\n  tag_121\n    /* \"#utility.yul\":5252:5259   */\n  dup12\n    /* \"#utility.yul\":5243:5249   */\n  dup3\n    /* \"#utility.yul\":5232:5241   */\n  dup13\n    /* \"#utility.yul\":5228:5250   */\n  add\n    /* \"#utility.yul\":5196:5260   */\n  tag_22\n  jump\t// in\ntag_121:\n    /* \"#utility.yul\":5186:5260   */\n  swap3\n  pop\n    /* \"#utility.yul\":5140:5270   */\n  pop\n    /* \"#utility.yul\":5309:5312   */\n  0xe0\n    /* \"#utility.yul\":5336:5400   */\n  tag_122\n    /* \"#utility.yul\":5392:5399   */\n  dup12\n    /* \"#utility.yul\":5383:5389   */\n  dup3\n    /* \"#utility.yul\":5372:5381   */\n  dup13\n    /* \"#utility.yul\":5368:5390   */\n  add\n    /* \"#utility.yul\":5336:5400   */\n  tag_25\n  jump\t// in\ntag_122:\n    /* \"#utility.yul\":5326:5400   */\n  swap2\n  pop\n    /* \"#utility.yul\":5280:5410   */\n  pop\n    /* \"#utility.yul\":3802:5417   */\n  swap3\n  swap6\n  swap9\n  pop\n  swap3\n  swap6\n  swap9\n  swap1\n  swap4\n  swap7\n  pop\n  jump\t// out\n    /* \"#utility.yul\":5423:5522   */\ntag_39:\n    /* \"#utility.yul\":5475:5481   */\n  0x00\n    /* \"#utility.yul\":5509:5514   */\n  dup2\n    /* \"#utility.yul\":5503:5515   */\n  mload\n    /* \"#utility.yul\":5493:5515   */\n  swap1\n  pop\n    /* \"#utility.yul\":5423:5522   */\n  swap2\n  swap1\n  pop\n  jump\t// out\n    /* \"#utility.yul\":5528:5708   */\ntag_40:\n    /* \"#utility.yul\":5576:5653   */\n  0x4e487b7100000000000000000000000000000000000000000000000000000000\n    /* \"#utility.yul\":5573:5574   */\n  0x00\n    /* \"#utility.yul\":5566:5654   */\n  mstore\n    /* \"#utility.yul\":5673:5677   */\n  0x22\n    /* \"#utility.yul\":5670:5671   */\n  0x04\n    /* \"#utility.yul\":5663:5678   */\n  mstore\n    /* \"#utility.yul\":5697:5701   */\n  0x24\n    /* \"#utility.yul\":5694:5695   */\n  0x00\n    /* \"#utility.yul\":5687:5702   */\n  revert\n    /* \"#utility.yul\":5714:6034   */\ntag_41:\n    /* \"#utility.yul\":5758:5764   */\n  0x00\n    /* \"#utility.yul\":5795:5796   */\n  0x02\n    /* \"#utility.yul\":5789:5793   */\n  dup3\n    /* \"#utility.yul\":5785:5797   */\n  div\n    /* \"#utility.yul\":5775:5797   */\n  swap1\n  pop\n    /* \"#utility.yul\":5842:5843   */\n  0x01\n    /* \"#utility.yul\":5836:5840   */\n  dup3\n    /* \"#utility.yul\":5832:5844   */\n  and\n    /* \"#utility.yul\":5863:5881   */\n  dup1\n    /* \"#utility.yul\":5853:5934   */\n  tag_126\n  jumpi\n    /* \"#utility.yul\":5919:5923   */\n  0x7f\n    /* \"#utility.yul\":5911:5917   */\n  dup3\n    /* \"#utility.yul\":5907:5924   */\n  and\n    /* \"#utility.yul\":5897:5924   */\n  swap2\n  pop\n    /* \"#utility.yul\":5853:5934   */\ntag_126:\n    /* \"#utility.yul\":5981:5983   */\n  0x20\n    /* \"#utility.yul\":5973:5979   */\n  dup3\n    /* \"#utility.yul\":5970:5984   */\n  lt\n    /* \"#utility.yul\":5950:5968   */\n  dup2\n    /* \"#utility.yul\":5947:5985   */\n  sub\n    /* \"#utility.yul\":5944:6028   */\n  tag_127\n  jumpi\n    /* \"#utility.yul\":6000:6018   */\n  tag_128\n  tag_40\n  jump\t// in\ntag_128:\n    /* \"#utility.yul\":5944:6028   */\ntag_127:\n    /* \"#utility.yul\":5765:6034   */\n  pop\n    /* \"#utility.yul\":5714:6034   */\n  swap2\n  swap1\n  pop\n  jump\t// out\n    /* \"#utility.yul\":6040:6181   */\ntag_42:\n    /* \"#utility.yul\":6089:6093   */\n  0x00\n    /* \"#utility.yul\":6112:6115   */\n  dup2\n    /* \"#utility.yul\":6104:6115   */\n  swap1\n  pop\n    /* \"#utility.yul\":6135:6138   */\n  dup2\n    /* \"#utility.yul\":6132:6133   */\n  0x00\n    /* \"#utility.yul\":6125:6139   */\n  mstore\n    /* \"#utility.yul\":6169:6173   */\n  0x20\n    /* \"#utility.yul\":6166:6167   */\n  0x00\n    /* \"#utility.yul\":6156:6174   */\n  keccak256\n    /* \"#utility.yul\":6148:6174   */\n  swap1\n  pop\n    /* \"#utility.yul\":6040:6181   */\n  swap2\n  swap1\n  pop\n  jump\t// out\n    /* \"#utility.yul\":6187:6280   */\ntag_43:\n    /* \"#utility.yul\":6224:6230   */\n  0x00\n    /* \"#utility.yul\":6271:6273   */\n  0x20\n    /* \"#utility.yul\":6266:6268   */\n  0x1f\n    /* \"#utility.yul\":6259:6264   */\n  dup4\n    /* \"#utility.yul\":6255:6269   */\n  add\n    /* \"#utility.yul\":6251:6274   */\n  div\n    /* \"#utility.yul\":6241:6274   */\n  swap1\n  pop\n    /* \"#utility.yul\":6187:6280   */\n  swap2\n  swap1\n  pop\n  jump\t// out\n    /* \"#utility.yul\":6286:6393   */\ntag_44:\n    /* \"#utility.yul\":6330:6338   */\n  0x00\n    /* \"#utility.yul\":6380:6385   */\n  dup3\n    /* \"#utility.yul\":6374:6378   */\n  dup3\n    /* \"#utility.yul\":6370:6386   */\n  shl\n    /* \"#utility.yul\":6349:6386   */\n  swap1\n  pop\n    /* \"#utility.yul\":6286:6393   */\n  swap3\n  swap2\n  pop\n  pop\n  jump\t// out\n    /* \"#utility.yul\":6399:6792   */\ntag_45:\n    /* \"#utility.yul\":6468:6474   */\n  0x00\n    /* \"#utility.yul\":6518:6519   */\n  0x08\n    /* \"#utility.yul\":6506:6516   */\n  dup4\n    /* \"#utility.yul\":6502:6520   */\n  mul\n    /* \"#utility.yul\":6541:6638   */\n  tag_133\n    /* \"#utility.yul\":6571:6637   */\n  0xffffffffffffffffffffffffffffffffffffffffffffffffffffffffffffffff\n    /* \"#utility.yul\":6560:6569   */\n  dup3\n    /* \"#utility.yul\":6541:6638   */\n  tag_44\n  jump\t// in\ntag_133:\n    /* \"#utility.yul\":6659:6698   */\n  tag_134\n    /* \"#utility.yul\":6689:6697   */\n  dup7\n    /* \"#utility.yul\":6678:6687   */\n  dup4\n    /* \"#utility.yul\":6659:6698   */\n  tag_44\n  jump\t// in\ntag_134:\n    /* \"#utility.yul\":6647:6698   */\n  swap6\n  pop\n    /* \"#utility.yul\":6731:6735   */\n  dup1\n    /* \"#utility.yul\":6727:6736   */\n  not\n    /* \"#utility.yul\":6720:6725   */\n  dup5\n    /* \"#utility.yul\":6716:6737   */\n  and\n    /* \"#utility.yul\":6707:6737   */\n  swap4\n  pop\n    /* \"#utility.yul\":6780:6784   */\n  dup1\n    /* \"#utility.yul\":6770:6778   */\n  dup7\n    /* \"#utility.yul\":6766:6785   */\n  and\n    /* \"#utility.yul\":6759:6764   */\n  dup5\n    /* \"#utility.yul\":6756:6786   */\n  or\n    /* \"#utility.yul\":6746:6786   */\n  swap3\n  pop\n    /* \"#utility.yul\":6475:6792   */\n  pop\n  pop\n    /* \"#utility.yul\":6399:6792   */\n  swap4\n  swap3\n  pop\n  pop\n  pop\n  jump\t// out\n    /* \"#utility.yul\":6798:6858   */\ntag_46:\n    /* \"#utility.yul\":6826:6829   */\n  0x00\n    /* \"#utility.yul\":6847:6852   */\n  dup2\n    /* \"#utility.yul\":6840:6852   */\n  swap1\n  pop\n    /* \"#utility.yul\":6798:6858   */\n  swap2\n  swap1\n  pop\n  jump\t// out\n    /* \"#utility.yul\":6864:7006   */\ntag_47:\n    /* \"#utility.yul\":6914:6923   */\n  0x00\n    /* \"#utility.yul\":6947:7000   */\n  tag_137\n    /* \"#utility.yul\":6965:6999   */\n  tag_138\n    /* \"#utility.yul\":6974:6998   */\n  tag_139\n    /* \"#utility.yul\":6992:6997   */\n  dup5\n    /* \"#utility.yul\":6974:6998   */\n  tag_23\n  jump\t// in\ntag_139:\n    /* \"#utility.yul\":6965:6999   */\n  tag_46\n  jump\t// in\ntag_138:\n    /* \"#utility.yul\":6947:7000   */\n  tag_23\n  jump\t// in\ntag_137:\n    /* \"#utility.yul\":6934:7000   */\n  swap1\n  pop\n    /* \"#utility.yul\":6864:7006   */\n  swap2\n  swap1\n  pop\n  jump\t// out\n    /* \"#utility.yul\":7012:7087   */\ntag_48:\n    /* \"#utility.yul\":7055:7058   */\n  0x00\n    /* \"#utility.yul\":7076:7081   */\n  dup2\n    /* \"#utility.yul\":7069:7081   */\n  swap1\n  pop\n    /* \"#utility.yul\":7012:7087   */\n  swap2\n  swap1\n  pop\n  jump\t// out\n    /* \"#utility.yul\":7093:7362   */\ntag_49:\n    /* \"#utility.yul\":7203:7242   */\n  tag_142\n    /* \"#utility.yul\":7234:7241   */\n  dup4\n    /* \"#utility.yul\":7203:7242   */\n  tag_47\n  jump\t// in\ntag_142:\n    /* \"#utility.yul\":7264:7355   */\n  tag_143\n    /* \"#utility.yul\":7313:7354   */\n  tag_144\n    /* \"#utility.yul\":7337:7353   */\n  dup3\n    /* \"#utility.yul\":7313:7354   */\n  tag_48\n  jump\t// in\ntag_144:\n    /* \"#utility.yul\":7305:7311   */\n  dup5\n    /* \"#utility.yul\":7298:7302   */\n  dup5\n    /* \"#utility.yul\":7292:7303   */\n  sload\n    /* \"#utility.yul\":7264:7355   */\n  tag_45\n  jump\t// in\ntag_143:\n    /* \"#utility.yul\":7258:7262   */\n  dup3\n    /* \"#utility.yul\":7251:7356   */\n  sstore\n    /* \"#utility.yul\":7169:7362   */\n  pop\n    /* \"#utility.yul\":7093:7362   */\n  pop\n  pop\n  pop\n  jump\t// out\n    /* \"#utility.yul\":7368:7441   */\ntag_50:\n    /* \"#utility.yul\":7413:7416   */\n  0x00\n    /* \"#utility.yul\":7368:7441   */\n  swap1\n  jump\t// out\n    /* \"#utility.yul\":7447:7636   */\ntag_51:\n    /* \"#utility.yul\":7524:7556   */\n  tag_147\n  tag_50\n  jump\t// in\ntag_147:\n    /* \"#utility.yul\":7565:7630   */\n  tag_148\n    /* \"#utility.yul\":7623:7629   */\n  dup2\n    /* \"#utility.yul\":7615:7621   */\n  dup5\n    /* \"#utility.yul\":7609:7613   */\n  dup5\n    /* \"#utility.yul\":7565:7630   */\n  tag_49\n  jump\t// in\ntag_148:\n    /* \"#utility.yul\":7500:7636   */\n  pop\n    /* \"#utility.yul\":7447:7636   */\n  pop\n  pop\n  jump\t// out\n    /* \"#utility.yul\":7642:7828   */\ntag_52:\n    /* \"#utility.yul\":7702:7822   */\ntag_150:\n    /* \"#utility.yul\":7719:7722   */\n  dup2\n    /* \"#utility.yul\":7712:7717   */\n  dup2\n    /* \"#utility.yul\":7709:7723   */\n  lt\n    /* \"#utility.yul\":7702:7822   */\n  iszero\n  tag_152\n  jumpi\n    /* \"#utility.yul\":7773:7812   */\n  tag_153\n    /* \"#utility.yul\":7810:7811   */\n  0x00\n    /* \"#utility.yul\":7803:7808   */\n  dup3\n    /* \"#utility.yul\":7773:7812   */\n  tag_51\n  jump\t// in\ntag_153:\n    /* \"#utility.yul\":7746:7747   */\n  0x01\n    /* \"#utility.yul\":7739:7744   */\n  dup2\n    /* \"#utility.yul\":7735:7748   */\n  add\n    /* \"#utility.yul\":7726:7748   */\n  swap1\n  pop\n    /* \"#utility.yul\":7702:7822   */\n  jump(tag_150)\ntag_152:\n    /* \"#utility.yul\":7642:7828   */\n  pop\n  pop\n  jump\t// out\n    /* \"#utility.yul\":7834:8377   */\ntag_53:\n    /* \"#utility.yul\":7935:7937   */\n  0x1f\n    /* \"#utility.yul\":7930:7933   */\n  dup3\n    /* \"#utility.yul\":7927:7938   */\n  gt\n    /* \"#utility.yul\":7924:8370   */\n  iszero\n  tag_155\n  jumpi\n    /* \"#utility.yul\":7969:8007   */\n  tag_156\n    /* \"#utility.yul\":8001:8006   */\n  dup2\n    /* \"#utility.yul\":7969:8007   */\n  tag_42\n  jump\t// in\ntag_156:\n    /* \"#utility.yul\":8053:8082   */\n  tag_157\n    /* \"#utility.yul\":8071:8081   */\n  dup5\n    /* \"#utility.yul\":8053:8082   */\n  tag_43\n  jump\t// in\ntag_157:\n    /* \"#utility.yul\":8043:8051   */\n  dup2\n    /* \"#utility.yul\":8039:8083   */\n  add\n    /* \"#utility.yul\":8236:8238   */\n  0x20\n    /* \"#utility.yul\":8224:8234   */\n  dup6\n    /* \"#utility.yul\":8221:8239   */\n  lt\n    /* \"#utility.yul\":8218:8267   */\n  iszero\n  tag_158\n  jumpi\n    /* \"#utility.yul\":8257:8265   */\n  dup2\n    /* \"#utility.yul\":8242:8265   */\n  swap1\n  pop\n    /* \"#utility.yul\":8218:8267   */\ntag_158:\n    /* \"#utility.yul\":8280:8360   */\n  tag_159\n    /* \"#utility.yul\":8336:8358   */\n  tag_160\n    /* \"#utility.yul\":8354:8357   */\n  dup6\n    /* \"#utility.yul\":8336:8358   */\n  tag_43\n  jump\t// in\ntag_160:\n    /* \"#utility.yul\":8326:8334   */\n  dup4\n    /* \"#utility.yul\":8322:8359   */\n  add\n    /* \"#utility.yul\":8309:8320   */\n  dup3\n    /* \"#utility.yul\":8280:8360   */\n  tag_52\n  jump\t// in\ntag_159:\n    /* \"#utility.yul\":7939:8370   */\n  pop\n  pop\n    /* \"#utility.yul\":7924:8370   */\ntag_155:\n    /* \"#utility.yul\":7834:8377   */\n  pop\n  pop\n  pop\n  jump\t// out\n    /* \"#utility.yul\":8383:8500   */\ntag_54:\n    /* \"#utility.yul\":8437:8445   */\n  0x00\n    /* \"#utility.yul\":8487:8492   */\n  dup3\n    /* \"#utility.yul\":8481:8485   */\n  dup3\n    /* \"#utility.yul\":8477:8493   */\n  shr\n    /* \"#utility.yul\":8456:8493   */\n  swap1\n  pop\n    /* \"#utility.yul\":8383:8500   */\n  swap3\n  swap2\n  pop\n  pop\n  jump\t// out\n    /* \"#utility.yul\":8506:8675   */\ntag_55:\n    /* \"#utility.yul\":8550:8556   */\n  0x00\n    /* \"#utility.yul\":8583:8634   */\n  tag_163\n    /* \"#utility.yul\":8631:8632   */\n  0x00\n    /* \"#utility.yul\":8627:8633   */\n  not\n    /* \"#utility.yul\":8619:8624   */\n  dup5\n    /* \"#utility.yul\":8616:8617   */\n  0x08\n    /* \"#utility.yul\":8612:8625   */\n  mul\n    /* \"#utility.yul\":8583:8634   */\n  tag_54\n  jump\t// in\ntag_163:\n    /* \"#utility.yul\":8579:8635   */\n  not\n    /* \"#utility.yul\":8664:8668   */\n  dup1\n    /* \"#utility.yul\":8658:8662   */\n  dup4\n    /* \"#utility.yul\":8654:8669   */\n  and\n    /* \"#utility.yul\":8644:8669   */\n  swap2\n  pop\n    /* \"#utility.yul\":8557:8675   */\n  pop\n    /* \"#utility.yul\":8506:8675   */\n  swap3\n  swap2\n  pop\n  pop\n  jump\t// out\n    /* \"#utility.yul\":8680:8975   */\ntag_56:\n    /* \"#utility.yul\":8756:8760   */\n  0x00\n    /* \"#utility.yul\":8902:8931   */\n  tag_165\n    /* \"#utility.yul\":8927:8930   */\n  dup4\n    /* \"#utility.yul\":8921:8925   */\n  dup4\n    /* \"#utility.yul\":8902:8931   */\n  tag_55\n  jump\t// in\ntag_165:\n    /* \"#utility.yul\":8894:8931   */\n  swap2\n  pop\n    /* \"#utility.yul\":8964:8967   */\n  dup3\n    /* \"#utility.yul\":8961:8962   */\n  0x02\n    /* \"#utility.yul\":8957:8968   */\n  mul\n    /* \"#utility.yul\":8951:8955   */\n  dup3\n    /* \"#utility.yul\":8948:8969   */\n  or\n    /* \"#utility.yul\":8940:8969   */\n  swap1\n  pop\n    /* \"#utility.yul\":8680:8975   */\n  swap3\n  swap2\n  pop\n  pop\n  jump\t// out\n    /* \"#utility.yul\":8980:10375   */\ntag_7:\n    /* \"#utility.yul\":9097:9134   */\n  tag_167\n    /* \"#utility.yul\":9130:9133   */\n  dup3\n    /* \"#utility.yul\":9097:9134   */\n  tag_39\n  jump\t// in\ntag_167:\n    /* \"#utility.yul\":9199:9217   */\n  0xffffffffffffffff\n    /* \"#utility.yul\":9191:9197   */\n  dup2\n    /* \"#utility.yul\":9188:9218   */\n  gt\n    /* \"#utility.yul\":9185:9241   */\n  iszero\n  tag_168\n  jumpi\n    /* \"#utility.yul\":9221:9239   */\n  tag_169\n  tag_29\n  jump\t// in\ntag_169:\n    /* \"#utility.yul\":9185:9241   */\ntag_168:\n    /* \"#utility.yul\":9265:9303   */\n  tag_170\n    /* \"#utility.yul\":9297:9301   */\n  dup3\n    /* \"#utility.yul\":9291:9302   */\n  sload\n    /* \"#utility.yul\":9265:9303   */\n  tag_41\n  jump\t// in\ntag_170:\n    /* \"#utility.yul\":9350:9417   */\n  tag_171\n    /* \"#utility.yul\":9410:9416   */\n  dup3\n    /* \"#utility.yul\":9402:9408   */\n  dup3\n    /* \"#utility.yul\":9396:9400   */\n  dup6\n    /* \"#utility.yul\":9350:9417   */\n  tag_53\n  jump\t// in\ntag_171:\n    /* \"#utility.yul\":9444:9445   */\n  0x00\n    /* \"#utility.yul\":9468:9472   */\n  0x20\n    /* \"#utility.yul\":9455:9472   */\n  swap1\n  pop\n    /* \"#utility.yul\":9500:9502   */\n  0x1f\n    /* \"#utility.yul\":9492:9498   */\n  dup4\n    /* \"#utility.yul\":9489:9503   */\n  gt\n    /* \"#utility.yul\":9517:9518   */\n  0x01\n    /* \"#utility.yul\":9512:10130   */\n  dup2\n  eq\n  tag_173\n  jumpi\n    /* \"#utility.yul\":10174:10175   */\n  0x00\n    /* \"#utility.yul\":10191:10197   */\n  dup5\n    /* \"#utility.yul\":10188:10265   */\n  iszero\n  tag_174\n  jumpi\n    /* \"#utility.yul\":10240:10249   */\n  dup3\n    /* \"#utility.yul\":10235:10238   */\n  dup8\n    /* \"#utility.yul\":10231:10250   */\n  add\n    /* \"#utility.yul\":10225:10251   */\n  mload\n    /* \"#utility.yul\":10216:10251   */\n  swap1\n  pop\n    /* \"#utility.yul\":10188:10265   */\ntag_174:\n    /* \"#utility.yul\":10291:10358   */\n  tag_175\n    /* \"#utility.yul\":10351:10357   */\n  dup6\n    /* \"#utility.yul\":10344:10349   */\n  dup3\n    /* \"#utility.yul\":10291:10358   */\n  tag_56\n  jump\t// in\ntag_175:\n    /* \"#utility.yul\":10285:10289   */\n  dup7\n    /* \"#utility.yul\":10278:10359   */\n  sstore\n    /* \"#utility.yul\":10147:10369   */\n  pop\n    /* \"#utility.yul\":9482:10369   */\n  jump(tag_172)\n    /* \"#utility.yul\":9512:10130   */\ntag_173:\n    /* \"#utility.yul\":9564:9568   */\n  0x1f\n    /* \"#utility.yul\":9560:9569   */\n  not\n    /* \"#utility.yul\":9552:9558   */\n  dup5\n    /* \"#utility.yul\":9548:9570   */\n  and\n    /* \"#utility.yul\":9598:9635   */\n  tag_176\n    /* \"#utility.yul\":9630:9634   */\n  dup7\n    /* \"#utility.yul\":9598:9635   */\n  tag_42\n  jump\t// in\ntag_176:\n    /* \"#utility.yul\":9657:9658   */\n  0x00\n    /* \"#utility.yul\":9671:9879   */\ntag_177:\n    /* \"#utility.yul\":9685:9692   */\n  dup3\n    /* \"#utility.yul\":9682:9683   */\n  dup2\n    /* \"#utility.yul\":9679:9693   */\n  lt\n    /* \"#utility.yul\":9671:9879   */\n  iszero\n  tag_179\n  jumpi\n    /* \"#utility.yul\":9764:9773   */\n  dup5\n    /* \"#utility.yul\":9759:9762   */\n  dup10\n    /* \"#utility.yul\":9755:9774   */\n  add\n    /* \"#utility.yul\":9749:9775   */\n  mload\n    /* \"#utility.yul\":9741:9747   */\n  dup3\n    /* \"#utility.yul\":9734:9776   */\n  sstore\n    /* \"#utility.yul\":9815:9816   */\n  0x01\n    /* \"#utility.yul\":9807:9813   */\n  dup3\n    /* \"#utility.yul\":9803:9817   */\n  add\n    /* \"#utility.yul\":9793:9817   */\n  swap2\n  pop\n    /* \"#utility.yul\":9862:9864   */\n  0x20\n    /* \"#utility.yul\":9851:9860   */\n  dup6\n    /* \"#utility.yul\":9847:9865   */\n  add\n    /* \"#utility.yul\":9834:9865   */\n  swap5\n  pop\n    /* \"#utility.yul\":9708:9712   */\n  0x20\n    /* \"#utility.yul\":9705:9706   */\n  dup2\n    /* \"#utility.yul\":9701:9713   */\n  add\n    /* \"#utility.yul\":9696:9713   */\n  swap1\n  pop\n    /* \"#utility.yul\":9671:9879   */\n  jump(tag_177)\ntag_179:\n    /* \"#utility.yul\":9907:9913   */\n  dup7\n    /* \"#utility.yul\":9898:9905   */\n  dup4\n    /* \"#utility.yul\":9895:9914   */\n  lt\n    /* \"#utility.yul\":9892:10071   */\n  iszero\n  tag_180\n  jumpi\n    /* \"#utility.yul\":9965:9974   */\n  dup5\n    /* \"#utility.yul\":9960:9963   */\n  dup10\n    /* \"#utility.yul\":9956:9975   */\n  add\n    /* \"#utility.yul\":9950:9976   */\n  mload\n    /* \"#utility.yul\":10008:10056   */\n  tag_181\n    /* \"#utility.yul\":10050:10054   */\n  0x1f\n    /* \"#utility.yul\":10042:10048   */\n  dup10\n    /* \"#utility.yul\":10038:10055   */\n  and\n    /* \"#utility.yul\":10027:10036   */\n  dup3\n    /* \"#utility.yul\":10008:10056   */\n  tag_55\n  jump\t// in\ntag_181:\n    /* \"#utility.yul\":10000:10006   */\n  dup4\n    /* \"#utility.yul\":9993:10057   */\n  sstore\n    /* \"#utility.yul\":9915:10071   */\n  pop\n    /* \"#utility.yul\":9892:10071   */\ntag_180:\n    /* \"#utility.yul\":10117:10118   */\n  0x01\n    /* \"#utility.yul\":10113:10114   */\n  0x02\n    /* \"#utility.yul\":10105:10111   */\n  dup9\n    /* \"#utility.yul\":10101:10115   */\n  mul\n    /* \"#utility.yul\":10097:10119   */\n  add\n    /* \"#utility.yul\":10091:10095   */\n  dup9\n    /* \"#utility.yul\":10084:10120   */\n  sstore\n    /* \"#utility.yul\":9519:10130   */\n  pop\n  pop\n  pop\n    /* \"#utility.yul\":9482:10369   */\ntag_172:\n  pop\n    /* \"#utility.yul\":9072:10375   */\n  pop\n  pop\n  pop\n    /* \"#utility.yul\":8980:10375   */\n  pop\n  pop\n  jump\t// out\n    /* \"#utility.yul\":10381:10561   */\ntag_10:\n    /* \"#utility.yul\":10429:10506   */\n  0x4e487b7100000000000000000000000000000000000000000000000000000000\n    /* \"#utility.yul\":10426:10427   */\n  0x00\n    /* \"#utility.yul\":10419:10507   */\n  mstore\n    /* \"#utility.yul\":10526:10530   */\n  0x21\n    /* \"#utility.yul\":10523:10524   */\n  0x04\n    /* \"#utility.yul\":10516:10531   */\n  mstore\n    /* \"#utility.yul\":10550:10554   */\n  0x24\n    /* \"#utility.yul\":10547:10548   */\n  0x00\n    /* \"#utility.yul\":10540:10555   */\n  revert\n    /* \"#utility.yul\":10567:10747   */\ntag_57:\n    /* \"#utility.yul\":10615:10692   */\n  0x4e487b7100000000000000000000000000000000000000000000000000000000\n    /* \"#utility.yul\":10612:10613   */\n  0x00\n    /* \"#utility.yul\":10605:10693   */\n  mstore\n    /* \"#utility.yul\":10712:10716   */\n  0x11\n    /* \"#utility.yul\":10709:10710   */\n  0x04\n    /* \"#utility.yul\":10702:10717   */\n  mstore\n    /* \"#utility.yul\":10736:10740   */\n  0x24\n    /* \"#utility.yul\":10733:10734   */\n  0x00\n    /* \"#utility.yul\":10726:10741   */\n  revert\n    /* \"#utility.yul\":10753:10944   */\ntag_12:\n    /* \"#utility.yul\":10793:10796   */\n  0x00\n    /* \"#utility.yul\":10812:10832   */\n  tag_185\n    /* \"#utility.yul\":10830:10831   */\n  dup3\n    /* \"#utility.yul\":10812:10832   */\n  tag_23\n  jump\t// in\ntag_185:\n    /* \"#utility.yul\":10807:10832   */\n  swap2\n  pop\n    /* \"#utility.yul\":10846:10866   */\n  tag_186\n    /* \"#utility.yul\":10864:10865   */\n  dup4\n    /* \"#utility.yul\":10846:10866   */\n  tag_23\n  jump\t// in\ntag_186:\n    /* \"#utility.yul\":10841:10866   */\n  swap3\n  pop\n    /* \"#utility.yul\":10889:10890   */\n  dup3\n    /* \"#utility.yul\":10886:10887   */\n  dup3\n    /* \"#utility.yul\":10882:10891   */\n  add\n    /* \"#utility.yul\":10875:10891   */\n  swap1\n  pop\n    /* \"#utility.yul\":10910:10913   */\n  dup1\n    /* \"#utility.yul\":10907:10908   */\n  dup3\n    /* \"#utility.yul\":10904:10914   */\n  gt\n    /* \"#utility.yul\":10901:10937   */\n  iszero\n  tag_187\n  jumpi\n    /* \"#utility.yul\":10917:10935   */\n  tag_188\n  tag_57\n  jump\t// in\ntag_188:\n    /* \"#utility.yul\":10901:10937   */\ntag_187:\n    /* \"#utility.yul\":10753:10944   */\n  swap3\n  swap2\n  pop\n  pop\n  jump\t// out\n    /* \"#utility.yul\":10950:11119   */\ntag_58:\n    /* \"#utility.yul\":11034:11045   */\n  0x00\n    /* \"#utility.yul\":11068:11074   */\n  dup3\n    /* \"#utility.yul\":11063:11066   */\n  dup3\n    /* \"#utility.yul\":11056:11075   */\n  mstore\n    /* \"#utility.yul\":11108:11112   */\n  0x20\n    /* \"#utility.yul\":11103:11106   */\n  dup3\n    /* \"#utility.yul\":11099:11113   */\n  add\n    /* \"#utility.yul\":11084:11113   */\n  swap1\n  pop\n    /* \"#utility.yul\":10950:11119   */\n  swap3\n  swap2\n  pop\n  pop\n  jump\t// out\n    /* \"#utility.yul\":11149:11980   */\ntag_59:\n    /* \"#utility.yul\":11234:11237   */\n  0x00\n    /* \"#utility.yul\":11271:11276   */\n  dup2\n    /* \"#utility.yul\":11265:11277   */\n  sload\n    /* \"#utility.yul\":11300:11336   */\n  tag_191\n    /* \"#utility.yul\":11326:11335   */\n  dup2\n    /* \"#utility.yul\":11300:11336   */\n  tag_41\n  jump\t// in\ntag_191:\n    /* \"#utility.yul\":11352:11423   */\n  tag_192\n    /* \"#utility.yul\":11416:11422   */\n  dup2\n    /* \"#utility.yul\":11411:11414   */\n  dup7\n    /* \"#utility.yul\":11352:11423   */\n  tag_58\n  jump\t// in\ntag_192:\n    /* \"#utility.yul\":11345:11423   */\n  swap5\n  pop\n    /* \"#utility.yul\":11454:11455   */\n  0x01\n    /* \"#utility.yul\":11443:11452   */\n  dup3\n    /* \"#utility.yul\":11439:11456   */\n  and\n    /* \"#utility.yul\":11470:11471   */\n  0x00\n    /* \"#utility.yul\":11465:11629   */\n  dup2\n  eq\n  tag_194\n  jumpi\n    /* \"#utility.yul\":11643:11644   */\n  0x01\n    /* \"#utility.yul\":11638:11974   */\n  dup2\n  eq\n  tag_195\n  jumpi\n    /* \"#utility.yul\":11432:11974   */\n  jump(tag_193)\n    /* \"#utility.yul\":11465:11629   */\ntag_194:\n    /* \"#utility.yul\":11549:11553   */\n  0xff\n    /* \"#utility.yul\":11545:11554   */\n  not\n    /* \"#utility.yul\":11534:11543   */\n  dup4\n    /* \"#utility.yul\":11530:11555   */\n  and\n    /* \"#utility.yul\":11525:11528   */\n  dup7\n    /* \"#utility.yul\":11518:11556   */\n  mstore\n    /* \"#utility.yul\":11609:11615   */\n  dup2\n    /* \"#utility.yul\":11602:11616   */\n  iszero\n    /* \"#utility.yul\":11595:11617   */\n  iszero\n    /* \"#utility.yul\":11589:11593   */\n  0x20\n    /* \"#utility.yul\":11585:11618   */\n  mul\n    /* \"#utility.yul\":11580:11583   */\n  dup7\n    /* \"#utility.yul\":11576:11619   */\n  add\n    /* \"#utility.yul\":11569:11619   */\n  swap4\n  pop\n    /* \"#utility.yul\":11465:11629   */\n  jump(tag_193)\n    /* \"#utility.yul\":11638:11974   */\ntag_195:\n    /* \"#utility.yul\":11705:11743   */\n  tag_196\n    /* \"#utility.yul\":11737:11742   */\n  dup6\n    /* \"#utility.yul\":11705:11743   */\n  tag_42\n  jump\t// in\ntag_196:\n    /* \"#utility.yul\":11765:11766   */\n  0x00\n    /* \"#utility.yul\":11779:11933   */\ntag_197:\n    /* \"#utility.yul\":11793:11799   */\n  dup4\n    /* \"#utility.yul\":11790:11791   */\n  dup2\n    /* \"#utility.yul\":11787:11800   */\n  lt\n    /* \"#utility.yul\":11779:11933   */\n  iszero\n  tag_199\n  jumpi\n    /* \"#utility.yul\":11867:11874   */\n  dup2\n    /* \"#utility.yul\":11861:11875   */\n  sload\n    /* \"#utility.yul\":11857:11858   */\n  dup2\n    /* \"#utility.yul\":11852:11855   */\n  dup10\n    /* \"#utility.yul\":11848:11859   */\n  add\n    /* \"#utility.yul\":11841:11876   */\n  mstore\n    /* \"#utility.yul\":11917:11918   */\n  0x01\n    /* \"#utility.yul\":11908:11915   */\n  dup3\n    /* \"#utility.yul\":11904:11919   */\n  add\n    /* \"#utility.yul\":11893:11919   */\n  swap2\n  pop\n    /* \"#utility.yul\":11815:11819   */\n  0x20\n    /* \"#utility.yul\":11812:11813   */\n  dup2\n    /* \"#utility.yul\":11808:11820   */\n  add\n    /* \"#utility.yul\":11803:11820   */\n  swap1\n  pop\n    /* \"#utility.yul\":11779:11933   */\n  jump(tag_197)\ntag_199:\n    /* \"#utility.yul\":11962:11963   */\n  dup1\n    /* \"#utility.yul\":11957:11960   */\n  dup9\n    /* \"#utility.yul\":11953:11964   */\n  add\n    /* \"#utility.yul\":11946:11964   */\n  swap6\n  pop\n    /* \"#utility.yul\":11645:11974   */\n  pop\n  pop\n    /* \"#utility.yul\":11432:11974   */\ntag_193:\n  pop\n    /* \"#utility.yul\":11238:11980   */\n  pop\n  pop\n    /* \"#utility.yul\":11149:11980   */\n  swap3\n  swap2\n  pop\n  pop\n  jump\t// out\n    /* \"#utility.yul\":11986:12293   */\ntag_14:\n    /* \"#utility.yul\":12096:12100   */\n  0x00\n    /* \"#utility.yul\":12134:12136   */\n  0x20\n    /* \"#utility.yul\":12123:12132   */\n  dup3\n    /* \"#utility.yul\":12119:12137   */\n  add\n    /* \"#utility.yul\":12111:12137   */\n  swap1\n  pop\n    /* \"#utility.yul\":12183:12192   */\n  dup2\n    /* \"#utility.yul\":12177:12181   */\n  dup2\n    /* \"#utility.yul\":12173:12193   */\n  sub\n    /* \"#utility.yul\":12169:12170   */\n  0x00\n    /* \"#utility.yul\":12158:12167   */\n  dup4\n    /* \"#utility.yul\":12154:12171   */\n  add\n    /* \"#utility.yul\":12147:12194   */\n  mstore\n    /* \"#utility.yul\":12211:12286   */\n  tag_201\n    /* \"#utility.yul\":12281:12285   */\n  dup2\n    /* \"#utility.yul\":12272:12278   */\n  dup5\n    /* \"#utility.yul\":12211:12286   */\n  tag_59\n  jump\t// in\ntag_201:\n    /* \"#utility.yul\":12203:12286   */\n  swap1\n  pop\n    /* \"#utility.yul\":11986:12293   */\n  swap3\n  swap2\n  pop\n  pop\n  jump\t// out\n    /* \"contracts/RentalAgreement.sol\":160:11604  contract RentalAgreement {... */\ntag_15:\n  dataSize(sub_0)\n  dup1\n  dataOffset(sub_0)\n  0x00\n  codecopy\n  0x00\n  return\nstop\n\nsub_0: assembly {\n        /* \"contracts/RentalAgreement.sol\":160:11604  contract RentalAgreement {... */\n      mstore(0x40, 0x80)\n      jumpi(tag_1, lt(calldatasize, 0x04))\n      shr(0xe0, calldataload(0x00))\n      dup1\n      0x7f91df9c\n      gt\n      tag_47\n      jumpi\n      dup1\n      0xd39763c8\n      gt\n      tag_48\n      jumpi\n      dup1\n      0xe36a03e0\n      gt\n      tag_49\n      jumpi\n      dup1\n      0xe36a03e0\n      eq\n      tag_41\n      jumpi\n      dup1\n      0xea9e7f6a\n      eq\n      tag_42\n      jumpi\n      dup1\n      0xf24bb69b\n      eq\n      tag_43\n      jumpi\n      dup1\n      0xf84a0f2d\n      eq\n      tag_44\n      jumpi\n      dup1\n      0xf8ef1e13\n      eq\n      tag_45\n      jumpi\n      dup1\n      0xf8fd0501\n      eq\n      tag_46\n      jumpi\n      jump(tag_1)\n    tag_49:\n      dup1\n      0xd39763c8\n      eq\n      tag_35\n      jumpi\n      dup1\n      0xd4e76e2c\n      eq\n      tag_36\n      jumpi\n      dup1\n      0xd6e82dca\n      eq\n      tag_37\n      jumpi\n      dup1\n      0xd9ef0459\n      eq\n      tag_38\n      jumpi\n      dup1\n      0xdc1997ea\n      eq\n      tag_39\n      jumpi\n      dup1\n      0xdd66857f\n      eq\n      tag_40\n      jumpi\n      jump(tag_1)\n    tag_48:\n      dup1\n      0xa5e047b8\n      gt\n      tag_50\n      jumpi\n      dup1\n      0xa5e047b8\n      eq\n      tag_29\n      jumpi\n      dup1\n      0xa709c4fe\n      eq\n      tag_30\n      jumpi\n      dup1\n      0xaa018005\n      eq\n      tag_31\n      jumpi\n      dup1\n      0xadf07791\n      eq\n      tag_32\n      jumpi\n      dup1\n      0xb651bb61\n      eq\n      tag_33\n      jumpi\n      dup1\n      0xc418c525\n      eq\n      tag_34\n      jumpi\n      jump(tag_1)\n    tag_50:\n      dup1\n      0x7f91df9c\n      eq\n      tag_24\n      jumpi\n      dup1\n      0x8e15f473\n      eq\n      tag_25\n      jumpi\n      dup1\n      0x8e3e760e\n      eq\n      tag_26\n      jumpi\n      dup1\n      0x8e7f727f\n      eq\n      tag_27\n      jumpi\n      dup1\n      0x9f1f9082\n      eq\n      tag_28\n      jumpi\n      jump(tag_1)\n    tag_47:\n      dup1\n      0x3e3bd90e\n      gt\n      tag_51\n      jumpi\n      dup1\n      0x5c274b86\n      gt\n      tag_52\n      jumpi\n      dup1\n      0x5c274b86\n      eq\n      tag_18\n      jumpi\n      dup1\n      0x61bc1a49\n      eq\n      tag_19\n      jumpi\n      dup1\n      0x6845071d\n      eq\n      tag_20\n      jumpi\n      dup1\n      0x775e9fce\n      eq\n      tag_21\n      jumpi\n      dup1\n      0x7e88f603\n      eq\n      tag_22\n      jumpi\n      dup1\n      0x7ec3110c\n      eq\n      tag_23\n      jumpi\n      jump(tag_1)\n    tag_52:\n      dup1\n      0x3e3bd90e\n      eq\n      tag_13\n      jumpi\n      dup1\n      0x419759f5\n      eq\n      tag_14\n      jumpi\n      dup1\n      0x4269751c\n      eq\n      tag_15\n      jumpi\n      dup1\n      0x4d5dca5a\n      eq\n      tag_16\n      jumpi\n      dup1\n      0x587419d5\n      eq\n      tag_17\n      jumpi\n      jump(tag_1)\n    tag_51:\n      dup1\n      0x1f85316c\n      gt\n      tag_53\n      jumpi\n      dup1\n      0x1f85316c\n      eq\n      tag_7\n      jumpi\n      dup1\n      0x3070c38b\n      eq\n      tag_8\n      jumpi\n      dup1\n      0x31d019b7\n      eq\n      tag_9\n      jumpi\n      dup1\n      0x33fc1183\n      eq\n      tag_10\n      jumpi\n      dup1\n      0x34cbfdfe\n      eq\n      tag_11\n      jumpi\n      dup1\n      0x36ec98ef\n      eq\n      tag_12\n      jumpi\n      jump(tag_1)\n    tag_53:\n      dup1\n      0x03c77fa4\n      eq\n      tag_2\n      jumpi\n      dup1\n      0x0abb1d7f\n      eq\n      tag_3\n      jumpi\n      dup1\n      0x140f26bf\n      eq\n      tag_4\n      jumpi\n      dup1\n      0x18bb32f5\n      eq\n      tag_5\n      jumpi\n      dup1\n      0x1ca43edd\n      eq\n      tag_6\n      jumpi\n    tag_1:\n      0x00\n      dup1\n      revert\n        /* \"contracts/RentalAgreement.sol\":11420:11601  function terminateContract(string memory reason) external onlyLandlord {... */\n    tag_2:\n      callvalue\n      dup1\n      iszero\n      tag_54\n      jumpi\n      0x00\n      dup1\n      revert\n    tag_54:\n      pop\n      tag_55\n      0x04\n      dup1\n      calldatasize\n      sub\n      dup2\n      add\n      swap1\n      tag_56\n      swap2\n      swap1\n      tag_57\n      jump\t// in\n    tag_56:\n      tag_58\n      jump\t// in\n    tag_55:\n      stop\n        /* \"contracts/RentalAgreement.sol\":5286:5719  function checkContractExpiration() external {... */\n    tag_3:\n      callvalue\n      dup1\n      iszero\n      tag_59\n      jumpi\n      0x00\n      dup1\n      revert\n    tag_59:\n      pop\n      tag_60\n      tag_61\n      jump\t// in\n    tag_60:\n      stop\n        /* \"contracts/RentalAgreement.sol\":311:341  string public contractIPFSHash */\n    tag_4:\n      callvalue\n      dup1\n      iszero\n      tag_62\n      jumpi\n      0x00\n      dup1\n      revert\n    tag_62:\n      pop\n      tag_63\n      tag_64\n      jump\t// in\n    tag_63:\n      mload(0x40)\n      tag_65\n      swap2\n      swap1\n      tag_66\n      jump\t// in\n    tag_65:\n      mload(0x40)\n      dup1\n      swap2\n      sub\n      swap1\n      return\n        /* \"contracts/RentalAgreement.sol\":348:379  bool public isStabelcoinPayment */\n    tag_5:\n      callvalue\n      dup1\n      iszero\n      tag_67\n      jumpi\n      0x00\n      dup1\n      revert\n    tag_67:\n      pop\n      tag_68\n      tag_69\n      jump\t// in\n    tag_68:\n      mload(0x40)\n      tag_70\n      swap2\n      swap1\n      tag_71\n      jump\t// in\n    tag_70:\n      mload(0x40)\n      dup1\n      swap2\n      sub\n      swap1\n      return\n        /* \"contracts/RentalAgreement.sol\":889:940  mapping(address => bool) public autoPaymentApproved */\n    tag_6:\n      callvalue\n      dup1\n      iszero\n      tag_72\n      jumpi\n      0x00\n      dup1\n      revert\n    tag_72:\n      pop\n      tag_73\n      0x04\n      dup1\n      calldatasize\n      sub\n      dup2\n      add\n      swap1\n      tag_74\n      swap2\n      swap1\n      tag_75\n      jump\t// in\n    tag_74:\n      tag_76\n      jump\t// in\n    tag_73:\n      mload(0x40)\n      tag_77\n      swap2\n      swap1\n      tag_71\n      jump\t// in\n    tag_77:\n      mload(0x40)\n      dup1\n      swap2\n      sub\n      swap1\n      return\n        /* \"contracts/RentalAgreement.sol\":666:704  bool public pendingSevereBreachWarning */\n    tag_7:\n      callvalue\n      dup1\n      iszero\n      tag_78\n      jumpi\n      0x00\n      dup1\n      revert\n    tag_78:\n      pop\n      tag_79\n      tag_80\n      jump\t// in\n    tag_79:\n      mload(0x40)\n      tag_81\n      swap2\n      swap1\n      tag_71\n      jump\t// in\n    tag_81:\n      mload(0x40)\n      dup1\n      swap2\n      sub\n      swap1\n      return\n        /* \"contracts/RentalAgreement.sol\":9972:10271  function checkTermination() external onlyLandlord {... */\n    tag_8:\n      callvalue\n      dup1\n      iszero\n      tag_82\n      jumpi\n      0x00\n      dup1\n      revert\n    tag_82:\n      pop\n      tag_83\n      tag_84\n      jump\t// in\n    tag_83:\n      stop\n        /* \"contracts/RentalAgreement.sol\":1015:1047  RentalStatus public rentalStatus */\n    tag_9:\n      callvalue\n      dup1\n      iszero\n      tag_85\n      jumpi\n      0x00\n      dup1\n      revert\n    tag_85:\n      pop\n      tag_86\n      tag_87\n      jump\t// in\n    tag_86:\n      mload(0x40)\n      tag_88\n      swap2\n      swap1\n      tag_89\n      jump\t// in\n    tag_88:\n      mload(0x40)\n      dup1\n      swap2\n      sub\n      swap1\n      return\n        /* \"contracts/RentalAgreement.sol\":855:882  bool public renewalApproved */\n    tag_10:\n      callvalue\n      dup1\n      iszero\n      tag_90\n      jumpi\n      0x00\n      dup1\n      revert\n    tag_90:\n      pop\n      tag_91\n      tag_92\n      jump\t// in\n    tag_91:\n      mload(0x40)\n      tag_93\n      swap2\n      swap1\n      tag_71\n      jump\t// in\n    tag_93:\n      mload(0x40)\n      dup1\n      swap2\n      sub\n      swap1\n      return\n        /* \"contracts/RentalAgreement.sol\":606:630  uint public warningCount */\n    tag_11:\n      callvalue\n      dup1\n      iszero\n      tag_94\n      jumpi\n      0x00\n      dup1\n      revert\n    tag_94:\n      pop\n      tag_95\n      tag_96\n      jump\t// in\n    tag_95:\n      mload(0x40)\n      tag_97\n      swap2\n      swap1\n      tag_98\n      jump\t// in\n    tag_97:\n      mload(0x40)\n      dup1\n      swap2\n      sub\n      swap1\n      return\n        /* \"contracts/RentalAgreement.sol\":8058:8423  function calculateUpdatedDeposit() public view returns (uint) {... */\n    tag_12:\n      callvalue\n      dup1\n      iszero\n      tag_99\n      jumpi\n      0x00\n      dup1\n      revert\n    tag_99:\n      pop\n      tag_100\n      tag_101\n      jump\t// in\n    tag_100:\n      mload(0x40)\n      tag_102\n      swap2\n      swap1\n      tag_98\n      jump\t// in\n    tag_102:\n      mload(0x40)\n      dup1\n      swap2\n      sub\n      swap1\n      return\n        /* \"contracts/RentalAgreement.sol\":750:777  uint public contractEndDate */\n    tag_13:\n      callvalue\n      dup1\n      iszero\n      tag_103\n      jumpi\n      0x00\n      dup1\n      revert\n    tag_103:\n      pop\n      tag_104\n      tag_105\n      jump\t// in\n    tag_104:\n      mload(0x40)\n      tag_106\n      swap2\n      swap1\n      tag_98\n      jump\t// in\n    tag_106:\n      mload(0x40)\n      dup1\n      swap2\n      sub\n      swap1\n      return\n        /* \"contracts/RentalAgreement.sol\":279:304  uint public depositAmount */\n    tag_14:\n      callvalue\n      dup1\n      iszero\n      tag_107\n      jumpi\n      0x00\n      dup1\n      revert\n    tag_107:\n      pop\n      tag_108\n      tag_109\n      jump\t// in\n    tag_108:\n      mload(0x40)\n      tag_110\n      swap2\n      swap1\n      tag_98\n      jump\t// in\n    tag_110:\n      mload(0x40)\n      dup1\n      swap2\n      sub\n      swap1\n      return\n        /* \"contracts/RentalAgreement.sol\":10700:11025  function requestTerminationByTennant() external onlyTenant {... */\n    tag_15:\n      callvalue\n      dup1\n      iszero\n      tag_111\n      jumpi\n      0x00\n      dup1\n      revert\n    tag_111:\n      pop\n      tag_112\n      tag_113\n      jump\t// in\n    tag_112:\n      stop\n        /* \"contracts/RentalAgreement.sol\":6325:6594  function confirmWarning() external onlyLandlord {... */\n    tag_16:\n      callvalue\n      dup1\n      iszero\n      tag_114\n      jumpi\n      0x00\n      dup1\n      revert\n    tag_114:\n      pop\n      tag_115\n      tag_116\n      jump\t// in\n    tag_115:\n      stop\n        /* \"contracts/RentalAgreement.sol\":505:533  uint public depositStartTime */\n    tag_17:\n      callvalue\n      dup1\n      iszero\n      tag_117\n      jumpi\n      0x00\n      dup1\n      revert\n    tag_117:\n      pop\n      tag_118\n      tag_119\n      jump\t// in\n    tag_118:\n      mload(0x40)\n      tag_120\n      swap2\n      swap1\n      tag_98\n      jump\t// in\n    tag_120:\n      mload(0x40)\n      dup1\n      swap2\n      sub\n      swap1\n      return\n        /* \"contracts/RentalAgreement.sol\":6603:7695  function payDeposit() external payable onlyTenant {... */\n    tag_18:\n      tag_121\n      tag_122\n      jump\t// in\n    tag_121:\n      stop\n        /* \"contracts/RentalAgreement.sol\":472:498  uint public depositBalance */\n    tag_19:\n      callvalue\n      dup1\n      iszero\n      tag_123\n      jumpi\n      0x00\n      dup1\n      revert\n    tag_123:\n      pop\n      tag_124\n      tag_125\n      jump\t// in\n    tag_124:\n      mload(0x40)\n      tag_126\n      swap2\n      swap1\n      tag_98\n      jump\t// in\n    tag_126:\n      mload(0x40)\n      dup1\n      swap2\n      sub\n      swap1\n      return\n        /* \"contracts/RentalAgreement.sol\":9014:9374  function terminateContractIfNotRenewed() external {... */\n    tag_20:\n      callvalue\n      dup1\n      iszero\n      tag_127\n      jumpi\n      0x00\n      dup1\n      revert\n    tag_127:\n      pop\n      tag_128\n      tag_129\n      jump\t// in\n    tag_128:\n      stop\n        /* \"contracts/RentalAgreement.sol\":637:659  uint public amountOwed */\n    tag_21:\n      callvalue\n      dup1\n      iszero\n      tag_130\n      jumpi\n      0x00\n      dup1\n      revert\n    tag_130:\n      pop\n      tag_131\n      tag_132\n      jump\t// in\n    tag_131:\n      mload(0x40)\n      tag_133\n      swap2\n      swap1\n      tag_98\n      jump\t// in\n    tag_133:\n      mload(0x40)\n      dup1\n      swap2\n      sub\n      swap1\n      return\n        /* \"contracts/RentalAgreement.sol\":8606:9005  function returnDeposit() external onlyLandlord {... */\n    tag_22:\n      callvalue\n      dup1\n      iszero\n      tag_134\n      jumpi\n      0x00\n      dup1\n      revert\n    tag_134:\n      pop\n      tag_135\n      tag_136\n      jump\t// in\n    tag_135:\n      stop\n        /* \"contracts/RentalAgreement.sol\":711:743  uint public terminationTimeStamp */\n    tag_23:\n      callvalue\n      dup1\n      iszero\n      tag_137\n      jumpi\n      0x00\n      dup1\n      revert\n    tag_137:\n      pop\n      tag_138\n      tag_139\n      jump\t// in\n    tag_138:\n      mload(0x40)\n      tag_140\n      swap2\n      swap1\n      tag_98\n      jump\t// in\n    tag_140:\n      mload(0x40)\n      dup1\n      swap2\n      sub\n      swap1\n      return\n        /* \"contracts/RentalAgreement.sol\":8432:8592  function getLatestInterestRate() public view returns (uint256) {... */\n    tag_24:\n      callvalue\n      dup1\n      iszero\n      tag_141\n      jumpi\n      0x00\n      dup1\n      revert\n    tag_141:\n      pop\n      tag_142\n      tag_143\n      jump\t// in\n    tag_142:\n      mload(0x40)\n      tag_144\n      swap2\n      swap1\n      tag_98\n      jump\t// in\n    tag_144:\n      mload(0x40)\n      dup1\n      swap2\n      sub\n      swap1\n      return\n        /* \"contracts/RentalAgreement.sol\":3416:3574  function getLatestPrice() public view returns (uint) {... */\n    tag_25:\n      callvalue\n      dup1\n      iszero\n      tag_145\n      jumpi\n      0x00\n      dup1\n      revert\n    tag_145:\n      pop\n      tag_146\n      tag_147\n      jump\t// in\n    tag_146:\n      mload(0x40)\n      tag_148\n      swap2\n      swap1\n      tag_98\n      jump\t// in\n    tag_148:\n      mload(0x40)\n      dup1\n      swap2\n      sub\n      swap1\n      return\n        /* \"contracts/RentalAgreement.sol\":822:848  bool public renewalRequest */\n    tag_26:\n      callvalue\n      dup1\n      iszero\n      tag_149\n      jumpi\n      0x00\n      dup1\n      revert\n    tag_149:\n      pop\n      tag_150\n      tag_151\n      jump\t// in\n    tag_150:\n      mload(0x40)\n      tag_152\n      swap2\n      swap1\n      tag_71\n      jump\t// in\n    tag_152:\n      mload(0x40)\n      dup1\n      swap2\n      sub\n      swap1\n      return\n        /* \"contracts/RentalAgreement.sol\":7704:8049  function deductFromDeposit(uint amount, string memory reason) external onlyLandlord {... */\n    tag_27:\n      callvalue\n      dup1\n      iszero\n      tag_153\n      jumpi\n      0x00\n      dup1\n      revert\n    tag_153:\n      pop\n      tag_154\n      0x04\n      dup1\n      calldatasize\n      sub\n      dup2\n      add\n      swap1\n      tag_155\n      swap2\n      swap1\n      tag_156\n      jump\t// in\n    tag_155:\n      tag_157\n      jump\t// in\n    tag_154:\n      stop\n        /* \"contracts/RentalAgreement.sol\":3583:3693  function authorizeAutoPayment() external onlyTenant {... */\n    tag_28:\n      callvalue\n      dup1\n      iszero\n      tag_158\n      jumpi\n      0x00\n      dup1\n      revert\n    tag_158:\n      pop\n      tag_159\n      tag_160\n      jump\t// in\n    tag_159:\n      stop\n        /* \"contracts/RentalAgreement.sol\":1166:1203  PaymentRecord[] public paymentHistory */\n    tag_29:\n      callvalue\n      dup1\n      iszero\n      tag_161\n      jumpi\n      0x00\n      dup1\n      revert\n    tag_161:\n      pop\n      tag_162\n      0x04\n      dup1\n      calldatasize\n      sub\n      dup2\n      add\n      swap1\n      tag_163\n      swap2\n      swap1\n      tag_164\n      jump\t// in\n    tag_163:\n      tag_165\n      jump\t// in\n    tag_162:\n      mload(0x40)\n      tag_166\n      swap4\n      swap3\n      swap2\n      swap1\n      tag_167\n      jump\t// in\n    tag_166:\n      mload(0x40)\n      dup1\n      swap2\n      sub\n      swap1\n      return\n        /* \"contracts/RentalAgreement.sol\":4332:5277  function payRent() external payable onlyTenant {... */\n    tag_30:\n      tag_168\n      tag_169\n      jump\t// in\n    tag_168:\n      stop\n        /* \"contracts/RentalAgreement.sol\":3702:3810  function revokeAutoPayment() external onlyTenant {... */\n    tag_31:\n      callvalue\n      dup1\n      iszero\n      tag_170\n      jumpi\n      0x00\n      dup1\n      revert\n    tag_170:\n      pop\n      tag_171\n      tag_172\n      jump\t// in\n    tag_171:\n      stop\n        /* \"contracts/RentalAgreement.sol\":222:243  address public tenant */\n    tag_32:\n      callvalue\n      dup1\n      iszero\n      tag_173\n      jumpi\n      0x00\n      dup1\n      revert\n    tag_173:\n      pop\n      tag_174\n      tag_175\n      jump\t// in\n    tag_174:\n      mload(0x40)\n      tag_176\n      swap2\n      swap1\n      tag_177\n      jump\t// in\n    tag_176:\n      mload(0x40)\n      dup1\n      swap2\n      sub\n      swap1\n      return\n        /* \"contracts/RentalAgreement.sol\":5728:5844  function getPaymentHistory() external view returns(PaymentRecord[] memory) {... */\n    tag_33:\n      callvalue\n      dup1\n      iszero\n      tag_178\n      jumpi\n      0x00\n      dup1\n      revert\n    tag_178:\n      pop\n      tag_179\n      tag_180\n      jump\t// in\n    tag_179:\n      mload(0x40)\n      tag_181\n      swap2\n      swap1\n      tag_182\n      jump\t// in\n    tag_181:\n      mload(0x40)\n      dup1\n      swap2\n      sub\n      swap1\n      return\n        /* \"contracts/RentalAgreement.sol\":9383:9618  function requestContractRenewal() external onlyTenant {... */\n    tag_34:\n      callvalue\n      dup1\n      iszero\n      tag_183\n      jumpi\n      0x00\n      dup1\n      revert\n    tag_183:\n      pop\n      tag_184\n      tag_185\n      jump\t// in\n    tag_184:\n      stop\n        /* \"contracts/RentalAgreement.sol\":386:418  address public stabelcoinAddress */\n    tag_35:\n      callvalue\n      dup1\n      iszero\n      tag_186\n      jumpi\n      0x00\n      dup1\n      revert\n    tag_186:\n      pop\n      tag_187\n      tag_188\n      jump\t// in\n    tag_187:\n      mload(0x40)\n      tag_189\n      swap2\n      swap1\n      tag_177\n      jump\t// in\n    tag_189:\n      mload(0x40)\n      dup1\n      swap2\n      sub\n      swap1\n      return\n        /* \"contracts/RentalAgreement.sol\":5853:6052  function getNextPaymentTimeStamp() public view returns (uint) {... */\n    tag_36:\n      callvalue\n      dup1\n      iszero\n      tag_190\n      jumpi\n      0x00\n      dup1\n      revert\n    tag_190:\n      pop\n      tag_191\n      tag_192\n      jump\t// in\n    tag_191:\n      mload(0x40)\n      tag_193\n      swap2\n      swap1\n      tag_98\n      jump\t// in\n    tag_193:\n      mload(0x40)\n      dup1\n      swap2\n      sub\n      swap1\n      return\n        /* \"contracts/RentalAgreement.sol\":6061:6316  function requestWarning() external onlyLandlord {... */\n    tag_37:\n      callvalue\n      dup1\n      iszero\n      tag_194\n      jumpi\n      0x00\n      dup1\n      revert\n    tag_194:\n      pop\n      tag_195\n      tag_196\n      jump\t// in\n    tag_195:\n      stop\n        /* \"contracts/RentalAgreement.sol\":573:599  uint public paymentDueDate */\n    tag_38:\n      callvalue\n      dup1\n      iszero\n      tag_197\n      jumpi\n      0x00\n      dup1\n      revert\n    tag_197:\n      pop\n      tag_198\n      tag_199\n      jump\t// in\n    tag_198:\n      mload(0x40)\n      tag_200\n      swap2\n      swap1\n      tag_98\n      jump\t// in\n    tag_200:\n      mload(0x40)\n      dup1\n      swap2\n      sub\n      swap1\n      return\n        /* \"contracts/RentalAgreement.sol\":192:215  address public landlord */\n    tag_39:\n      callvalue\n      dup1\n      iszero\n      tag_201\n      jumpi\n      0x00\n      dup1\n      revert\n    tag_201:\n      pop\n      tag_202\n      tag_203\n      jump\t// in\n    tag_202:\n      mload(0x40)\n      tag_204\n      swap2\n      swap1\n      tag_177\n      jump\t// in\n    tag_204:\n      mload(0x40)\n      dup1\n      swap2\n      sub\n      swap1\n      return\n        /* \"contracts/RentalAgreement.sol\":10280:10691  function executeTermination() external onlyLandlord {... */\n    tag_40:\n      callvalue\n      dup1\n      iszero\n      tag_205\n      jumpi\n      0x00\n      dup1\n      revert\n    tag_205:\n      pop\n      tag_206\n      tag_207\n      jump\t// in\n    tag_206:\n      stop\n        /* \"contracts/RentalAgreement.sol\":3819:4323  function processAutoPayment() external onlyLandlord {... */\n    tag_41:\n      callvalue\n      dup1\n      iszero\n      tag_208\n      jumpi\n      0x00\n      dup1\n      revert\n    tag_208:\n      pop\n      tag_209\n      tag_210\n      jump\t// in\n    tag_209:\n      stop\n        /* \"contracts/RentalAgreement.sol\":540:566  uint public deductedAmount */\n    tag_42:\n      callvalue\n      dup1\n      iszero\n      tag_211\n      jumpi\n      0x00\n      dup1\n      revert\n    tag_211:\n      pop\n      tag_212\n      tag_213\n      jump\t// in\n    tag_212:\n      mload(0x40)\n      tag_214\n      swap2\n      swap1\n      tag_98\n      jump\t// in\n    tag_214:\n      mload(0x40)\n      dup1\n      swap2\n      sub\n      swap1\n      return\n        /* \"contracts/RentalAgreement.sol\":784:815  uint public leaseStartTimestamp */\n    tag_43:\n      callvalue\n      dup1\n      iszero\n      tag_215\n      jumpi\n      0x00\n      dup1\n      revert\n    tag_215:\n      pop\n      tag_216\n      tag_217\n      jump\t// in\n    tag_216:\n      mload(0x40)\n      tag_218\n      swap2\n      swap1\n      tag_98\n      jump\t// in\n    tag_218:\n      mload(0x40)\n      dup1\n      swap2\n      sub\n      swap1\n      return\n        /* \"contracts/RentalAgreement.sol\":11034:11411  function executeTenantTermination() external {... */\n    tag_44:\n      callvalue\n      dup1\n      iszero\n      tag_219\n      jumpi\n      0x00\n      dup1\n      revert\n    tag_219:\n      pop\n      tag_220\n      tag_221\n      jump\t// in\n    tag_220:\n      stop\n        /* \"contracts/RentalAgreement.sol\":250:272  uint public rentAmount */\n    tag_45:\n      callvalue\n      dup1\n      iszero\n      tag_222\n      jumpi\n      0x00\n      dup1\n      revert\n    tag_222:\n      pop\n      tag_223\n      tag_224\n      jump\t// in\n    tag_223:\n      mload(0x40)\n      tag_225\n      swap2\n      swap1\n      tag_98\n      jump\t// in\n    tag_225:\n      mload(0x40)\n      dup1\n      swap2\n      sub\n      swap1\n      return\n        /* \"contracts/RentalAgreement.sol\":9627:9963  function approveContractRenewal() external onlyLandlord {... */\n    tag_46:\n      callvalue\n      dup1\n      iszero\n      tag_226\n      jumpi\n      0x00\n      dup1\n      revert\n    tag_226:\n      pop\n      tag_227\n      tag_228\n      jump\t// in\n    tag_227:\n      stop\n        /* \"contracts/RentalAgreement.sol\":11420:11601  function terminateContract(string memory reason) external onlyLandlord {... */\n    tag_58:\n        /* \"contracts/RentalAgreement.sol\":2105:2113  landlord */\n      0x00\n      dup1\n      sload\n      swap1\n      0x0100\n      exp\n      swap1\n      div\n      0xffffffffffffffffffffffffffffffffffffffff\n      and\n        /* \"contracts/RentalAgreement.sol\":2091:2113  msg.sender == landlord */\n      0xffffffffffffffffffffffffffffffffffffffff\n      and\n        /* \"contracts/RentalAgreement.sol\":2091:2101  msg.sender */\n      caller\n        /* \"contracts/RentalAgreement.sol\":2091:2113  msg.sender == landlord */\n      0xffffffffffffffffffffffffffffffffffffffff\n      and\n      eq\n        /* \"contracts/RentalAgreement.sol\":2083:2155  require(msg.sender == landlord, \"Only landlord can perform this action\") */\n      tag_230\n      jumpi\n      mload(0x40)\n      0x08c379a000000000000000000000000000000000000000000000000000000000\n      dup2\n      mstore\n      0x04\n      add\n      tag_231\n      swap1\n      tag_232\n      jump\t// in\n    tag_231:\n      mload(0x40)\n      dup1\n      swap2\n      sub\n      swap1\n      revert\n    tag_230:\n        /* \"contracts/RentalAgreement.sol\":11517:11540  RentalStatus.Terminated */\n      0x01\n        /* \"contracts/RentalAgreement.sol\":11502:11514  rentalStatus */\n      0x13\n      0x00\n        /* \"contracts/RentalAgreement.sol\":11502:11540  rentalStatus = RentalStatus.Terminated */\n      0x0100\n      exp\n      dup2\n      sload\n      dup2\n      0xff\n      mul\n      not\n      and\n      swap1\n      dup4\n      0x02\n      dup2\n      gt\n      iszero\n      tag_234\n      jumpi\n      tag_235\n      tag_236\n      jump\t// in\n    tag_235:\n    tag_234:\n      mul\n      or\n      swap1\n      sstore\n      pop\n        /* \"contracts/RentalAgreement.sol\":11575:11583  landlord */\n      0x00\n      dup1\n      sload\n      swap1\n      0x0100\n      exp\n      swap1\n      div\n      0xffffffffffffffffffffffffffffffffffffffff\n      and\n        /* \"contracts/RentalAgreement.sol\":11556:11592  ContractTerminated(landlord, reason) */\n      0xffffffffffffffffffffffffffffffffffffffff\n      and\n      0x7b73f5d770f3eb41fd57f1e6a1c9e2a5ec61febbbd4e608d511c46e3fd611639\n        /* \"contracts/RentalAgreement.sol\":11585:11591  reason */\n      dup3\n        /* \"contracts/RentalAgreement.sol\":11556:11592  ContractTerminated(landlord, reason) */\n      mload(0x40)\n      tag_237\n      swap2\n      swap1\n      tag_66\n      jump\t// in\n    tag_237:\n      mload(0x40)\n      dup1\n      swap2\n      sub\n      swap1\n      log2\n        /* \"contracts/RentalAgreement.sol\":11420:11601  function terminateContract(string memory reason) external onlyLandlord {... */\n      pop\n      jump\t// out\n        /* \"contracts/RentalAgreement.sol\":5286:5719  function checkContractExpiration() external {... */\n    tag_61:\n        /* \"contracts/RentalAgreement.sol\":5365:5384  RentalStatus.Active */\n      0x00\n        /* \"contracts/RentalAgreement.sol\":5349:5384  rentalStatus == RentalStatus.Active */\n      0x02\n      dup2\n      gt\n      iszero\n      tag_239\n      jumpi\n      tag_240\n      tag_236\n      jump\t// in\n    tag_240:\n    tag_239:\n        /* \"contracts/RentalAgreement.sol\":5349:5361  rentalStatus */\n      0x13\n      0x00\n      swap1\n      sload\n      swap1\n      0x0100\n      exp\n      swap1\n      div\n      0xff\n      and\n        /* \"contracts/RentalAgreement.sol\":5349:5384  rentalStatus == RentalStatus.Active */\n      0x02\n      dup2\n      gt\n      iszero\n      tag_241\n      jumpi\n      tag_242\n      tag_236\n      jump\t// in\n    tag_242:\n    tag_241:\n      eq\n        /* \"contracts/RentalAgreement.sol\":5341:5411  require(rentalStatus == RentalStatus.Active, \"Contract is not active\") */\n      tag_243\n      jumpi\n      mload(0x40)\n      0x08c379a000000000000000000000000000000000000000000000000000000000\n      dup2\n      mstore\n      0x04\n      add\n      tag_244\n      swap1\n      tag_245\n      jump\t// in\n    tag_244:\n      mload(0x40)\n      dup1\n      swap2\n      sub\n      swap1\n      revert\n    tag_243:\n        /* \"contracts/RentalAgreement.sol\":5422:5435  uint timeLeft */\n      0x00\n        /* \"contracts/RentalAgreement.sol\":5456:5471  block.timestamp */\n      timestamp\n        /* \"contracts/RentalAgreement.sol\":5438:5453  contractEndDate */\n      sload(0x0f)\n        /* \"contracts/RentalAgreement.sol\":5438:5471  contractEndDate - block.timestamp */\n      tag_246\n      swap2\n      swap1\n      tag_247\n      jump\t// in\n    tag_246:\n        /* \"contracts/RentalAgreement.sol\":5422:5471  uint timeLeft = contractEndDate - block.timestamp */\n      swap1\n      pop\n        /* \"contracts/RentalAgreement.sol\":5498:5505  60 days */\n      0x4f1a00\n        /* \"contracts/RentalAgreement.sol\":5486:5494  timeLeft */\n      dup2\n        /* \"contracts/RentalAgreement.sol\":5486:5505  timeLeft == 60 days */\n      eq\n        /* \"contracts/RentalAgreement.sol\":5486:5523  timeLeft == 60 days || timeLeft == 30 */\n      dup1\n      tag_248\n      jumpi\n      pop\n        /* \"contracts/RentalAgreement.sol\":5521:5523  30 */\n      0x1e\n        /* \"contracts/RentalAgreement.sol\":5509:5517  timeLeft */\n      dup2\n        /* \"contracts/RentalAgreement.sol\":5509:5523  timeLeft == 30 */\n      eq\n        /* \"contracts/RentalAgreement.sol\":5486:5523  timeLeft == 60 days || timeLeft == 30 */\n    tag_248:\n        /* \"contracts/RentalAgreement.sol\":5482:5711  if (timeLeft == 60 days || timeLeft == 30) {... */\n      iszero\n      tag_249\n      jumpi\n        /* \"contracts/RentalAgreement.sol\":5545:5586  ContractExpirationWarning(timeLeft/86400) */\n      0xd0b1f933b37bcb6fa032c1f03d79ec22be0798137cdb06ad046be2e640eafbc5\n        /* \"contracts/RentalAgreement.sol\":5580:5585  86400 */\n      0x015180\n        /* \"contracts/RentalAgreement.sol\":5571:5579  timeLeft */\n      dup3\n        /* \"contracts/RentalAgreement.sol\":5571:5585  timeLeft/86400 */\n      tag_250\n      swap2\n      swap1\n      tag_251\n      jump\t// in\n    tag_250:\n        /* \"contracts/RentalAgreement.sol\":5545:5586  ContractExpirationWarning(timeLeft/86400) */\n      mload(0x40)\n      tag_252\n      swap2\n      swap1\n      tag_98\n      jump\t// in\n    tag_252:\n      mload(0x40)\n      dup1\n      swap2\n      sub\n      swap1\n      log1\n        /* \"contracts/RentalAgreement.sol\":5482:5711  if (timeLeft == 60 days || timeLeft == 30) {... */\n      jump(tag_253)\n    tag_249:\n        /* \"contracts/RentalAgreement.sol\":5629:5636  14 days */\n      0x127500\n        /* \"contracts/RentalAgreement.sol\":5617:5625  timeLeft */\n      dup2\n        /* \"contracts/RentalAgreement.sol\":5617:5636  timeLeft >= 14 days */\n      lt\n        /* \"contracts/RentalAgreement.sol\":5613:5711  if (timeLeft >= 14 days) {... */\n      tag_254\n      jumpi\n        /* \"contracts/RentalAgreement.sol\":5658:5699  ContractExpirationWarning(timeLeft/86400) */\n      0xd0b1f933b37bcb6fa032c1f03d79ec22be0798137cdb06ad046be2e640eafbc5\n        /* \"contracts/RentalAgreement.sol\":5693:5698  86400 */\n      0x015180\n        /* \"contracts/RentalAgreement.sol\":5684:5692  timeLeft */\n      dup3\n        /* \"contracts/RentalAgreement.sol\":5684:5698  timeLeft/86400 */\n      tag_255\n      swap2\n      swap1\n      tag_251\n      jump\t// in\n    tag_255:\n        /* \"contracts/RentalAgreement.sol\":5658:5699  ContractExpirationWarning(timeLeft/86400) */\n      mload(0x40)\n      tag_256\n      swap2\n      swap1\n      tag_98\n      jump\t// in\n    tag_256:\n      mload(0x40)\n      dup1\n      swap2\n      sub\n      swap1\n      log1\n        /* \"contracts/RentalAgreement.sol\":5613:5711  if (timeLeft >= 14 days) {... */\n    tag_254:\n        /* \"contracts/RentalAgreement.sol\":5482:5711  if (timeLeft == 60 days || timeLeft == 30) {... */\n    tag_253:\n        /* \"contracts/RentalAgreement.sol\":5330:5719  {... */\n      pop\n        /* \"contracts/RentalAgreement.sol\":5286:5719  function checkContractExpiration() external {... */\n      jump\t// out\n        /* \"contracts/RentalAgreement.sol\":311:341  string public contractIPFSHash */\n    tag_64:\n      0x04\n      dup1\n      sload\n      tag_257\n      swap1\n      tag_258\n      jump\t// in\n    tag_257:\n      dup1\n      0x1f\n      add\n      0x20\n      dup1\n      swap2\n      div\n      mul\n      0x20\n      add\n      mload(0x40)\n      swap1\n      dup2\n      add\n      0x40\n      mstore\n      dup1\n      swap3\n      swap2\n      swap1\n      dup2\n      dup2\n      mstore\n      0x20\n      add\n      dup3\n      dup1\n      sload\n      tag_259\n      swap1\n      tag_258\n      jump\t// in\n    tag_259:\n      dup1\n      iszero\n      tag_260\n      jumpi\n      dup1\n      0x1f\n      lt\n      tag_261\n      jumpi\n      0x0100\n      dup1\n      dup4\n      sload\n      div\n      mul\n      dup4\n      mstore\n      swap2\n      0x20\n      add\n      swap2\n      jump(tag_260)\n    tag_261:\n      dup3\n      add\n      swap2\n      swap1\n      0x00\n      mstore\n      keccak256(0x00, 0x20)\n      swap1\n    tag_262:\n      dup2\n      sload\n      dup2\n      mstore\n      swap1\n      0x01\n      add\n      swap1\n      0x20\n      add\n      dup1\n      dup4\n      gt\n      tag_262\n      jumpi\n      dup3\n      swap1\n      sub\n      0x1f\n      and\n      dup3\n      add\n      swap2\n    tag_260:\n      pop\n      pop\n      pop\n      pop\n      pop\n      dup2\n      jump\t// out\n        /* \"contracts/RentalAgreement.sol\":348:379  bool public isStabelcoinPayment */\n    tag_69:\n      0x05\n      0x00\n      swap1\n      sload\n      swap1\n      0x0100\n      exp\n      swap1\n      div\n      0xff\n      and\n      dup2\n      jump\t// out\n        /* \"contracts/RentalAgreement.sol\":889:940  mapping(address => bool) public autoPaymentApproved */\n    tag_76:\n      mstore(0x20, 0x12)\n      dup1\n      0x00\n      mstore\n      keccak256(0x00, 0x40)\n      0x00\n      swap2\n      pop\n      sload\n      swap1\n      0x0100\n      exp\n      swap1\n      div\n      0xff\n      and\n      dup2\n      jump\t// out\n        /* \"contracts/RentalAgreement.sol\":666:704  bool public pendingSevereBreachWarning */\n    tag_80:\n      0x0d\n      0x00\n      swap1\n      sload\n      swap1\n      0x0100\n      exp\n      swap1\n      div\n      0xff\n      and\n      dup2\n      jump\t// out\n        /* \"contracts/RentalAgreement.sol\":9972:10271  function checkTermination() external onlyLandlord {... */\n    tag_84:\n        /* \"contracts/RentalAgreement.sol\":2105:2113  landlord */\n      0x00\n      dup1\n      sload\n      swap1\n      0x0100\n      exp\n      swap1\n      div\n      0xffffffffffffffffffffffffffffffffffffffff\n      and\n        /* \"contracts/RentalAgreement.sol\":2091:2113  msg.sender == landlord */\n      0xffffffffffffffffffffffffffffffffffffffff\n      and\n        /* \"contracts/RentalAgreement.sol\":2091:2101  msg.sender */\n      caller\n        /* \"contracts/RentalAgreement.sol\":2091:2113  msg.sender == landlord */\n      0xffffffffffffffffffffffffffffffffffffffff\n      and\n      eq\n        /* \"contracts/RentalAgreement.sol\":2083:2155  require(msg.sender == landlord, \"Only landlord can perform this action\") */\n      tag_264\n      jumpi\n      mload(0x40)\n      0x08c379a000000000000000000000000000000000000000000000000000000000\n      dup2\n      mstore\n      0x04\n      add\n      tag_265\n      swap1\n      tag_232\n      jump\t// in\n    tag_265:\n      mload(0x40)\n      dup1\n      swap2\n      sub\n      swap1\n      revert\n    tag_264:\n        /* \"contracts/RentalAgreement.sol\":10053:10063  rentAmount */\n      sload(0x02)\n        /* \"contracts/RentalAgreement.sol\":10049:10050  3 */\n      0x03\n        /* \"contracts/RentalAgreement.sol\":10049:10063  3 * rentAmount */\n      tag_267\n      swap2\n      swap1\n      tag_268\n      jump\t// in\n    tag_267:\n        /* \"contracts/RentalAgreement.sol\":10036:10046  amountOwed */\n      sload(0x0c)\n        /* \"contracts/RentalAgreement.sol\":10036:10063  amountOwed > 3 * rentAmount */\n      gt\n        /* \"contracts/RentalAgreement.sol\":10033:10263  if(amountOwed > 3 * rentAmount) {... */\n      iszero\n      tag_269\n      jumpi\n        /* \"contracts/RentalAgreement.sol\":10121:10128  90 days */\n      0x76a700\n        /* \"contracts/RentalAgreement.sol\":10103:10118  block.timestamp */\n      timestamp\n        /* \"contracts/RentalAgreement.sol\":10103:10128  block.timestamp + 90 days */\n      tag_270\n      swap2\n      swap1\n      tag_271\n      jump\t// in\n    tag_270:\n        /* \"contracts/RentalAgreement.sol\":10080:10100  terminationTimeStamp */\n      0x0e\n        /* \"contracts/RentalAgreement.sol\":10080:10128  terminationTimeStamp = block.timestamp + 90 days */\n      dup2\n      swap1\n      sstore\n      pop\n        /* \"contracts/RentalAgreement.sol\":10158:10189  RentalStatus.PendingTermination */\n      0x02\n        /* \"contracts/RentalAgreement.sol\":10143:10155  rentalStatus */\n      0x13\n      0x00\n        /* \"contracts/RentalAgreement.sol\":10143:10189  rentalStatus = RentalStatus.PendingTermination */\n      0x0100\n      exp\n      dup2\n      sload\n      dup2\n      0xff\n      mul\n      not\n      and\n      swap1\n      dup4\n      0x02\n      dup2\n      gt\n      iszero\n      tag_272\n      jumpi\n      tag_273\n      tag_236\n      jump\t// in\n    tag_273:\n    tag_272:\n      mul\n      or\n      swap1\n      sstore\n      pop\n        /* \"contracts/RentalAgreement.sol\":10209:10251  TerminationScheduled(terminationTimeStamp) */\n      0x2032eea88030b7d191bcbdc44c5ac10ed559f3e9f56a319c896f007b55aba5c6\n        /* \"contracts/RentalAgreement.sol\":10230:10250  terminationTimeStamp */\n      sload(0x0e)\n        /* \"contracts/RentalAgreement.sol\":10209:10251  TerminationScheduled(terminationTimeStamp) */\n      mload(0x40)\n      tag_274\n      swap2\n      swap1\n      tag_98\n      jump\t// in\n    tag_274:\n      mload(0x40)\n      dup1\n      swap2\n      sub\n      swap1\n      log1\n        /* \"contracts/RentalAgreement.sol\":10033:10263  if(amountOwed > 3 * rentAmount) {... */\n    tag_269:\n        /* \"contracts/RentalAgreement.sol\":9972:10271  function checkTermination() external onlyLandlord {... */\n      jump\t// out\n        /* \"contracts/RentalAgreement.sol\":1015:1047  RentalStatus public rentalStatus */\n    tag_87:\n      0x13\n      0x00\n      swap1\n      sload\n      swap1\n      0x0100\n      exp\n      swap1\n      div\n      0xff\n      and\n      dup2\n      jump\t// out\n        /* \"contracts/RentalAgreement.sol\":855:882  bool public renewalApproved */\n    tag_92:\n      0x11\n      0x01\n      swap1\n      sload\n      swap1\n      0x0100\n      exp\n      swap1\n      div\n      0xff\n      and\n      dup2\n      jump\t// out\n        /* \"contracts/RentalAgreement.sol\":606:630  uint public warningCount */\n    tag_96:\n      sload(0x0b)\n      dup2\n      jump\t// out\n        /* \"contracts/RentalAgreement.sol\":8058:8423  function calculateUpdatedDeposit() public view returns (uint) {... */\n    tag_101:\n        /* \"contracts/RentalAgreement.sol\":8114:8118  uint */\n      0x00\n        /* \"contracts/RentalAgreement.sol\":8131:8147  uint timeElapsed */\n      dup1\n        /* \"contracts/RentalAgreement.sol\":8168:8184  depositStartTime */\n      sload(0x08)\n        /* \"contracts/RentalAgreement.sol\":8150:8165  block.timestamp */\n      timestamp\n        /* \"contracts/RentalAgreement.sol\":8150:8184  block.timestamp - depositStartTime */\n      tag_276\n      swap2\n      swap1\n      tag_247\n      jump\t// in\n    tag_276:\n        /* \"contracts/RentalAgreement.sol\":8131:8184  uint timeElapsed = block.timestamp - depositStartTime */\n      swap1\n      pop\n        /* \"contracts/RentalAgreement.sol\":8195:8212  uint yearsElapsed */\n      0x00\n        /* \"contracts/RentalAgreement.sol\":8229:8237  365 days */\n      0x01e13380\n        /* \"contracts/RentalAgreement.sol\":8215:8226  timeElapsed */\n      dup3\n        /* \"contracts/RentalAgreement.sol\":8215:8237  timeElapsed / 365 days */\n      tag_277\n      swap2\n      swap1\n      tag_251\n      jump\t// in\n    tag_277:\n        /* \"contracts/RentalAgreement.sol\":8195:8237  uint yearsElapsed = timeElapsed / 365 days */\n      swap1\n      pop\n        /* \"contracts/RentalAgreement.sol\":8248:8265  uint interestRate */\n      0x00\n        /* \"contracts/RentalAgreement.sol\":8268:8291  getLatestInterestRate() */\n      tag_278\n        /* \"contracts/RentalAgreement.sol\":8268:8289  getLatestInterestRate */\n      tag_143\n        /* \"contracts/RentalAgreement.sol\":8268:8291  getLatestInterestRate() */\n      jump\t// in\n    tag_278:\n        /* \"contracts/RentalAgreement.sol\":8248:8291  uint interestRate = getLatestInterestRate() */\n      swap1\n      pop\n        /* \"contracts/RentalAgreement.sol\":8302:8321  uint updatedDeposit */\n      0x00\n        /* \"contracts/RentalAgreement.sol\":8378:8381  100 */\n      0x64\n        /* \"contracts/RentalAgreement.sol\":8362:8374  yearsElapsed */\n      dup4\n        /* \"contracts/RentalAgreement.sol\":8347:8359  interestRate */\n      dup4\n        /* \"contracts/RentalAgreement.sol\":8347:8374  interestRate * yearsElapsed */\n      tag_279\n      swap2\n      swap1\n      tag_268\n      jump\t// in\n    tag_279:\n        /* \"contracts/RentalAgreement.sol\":8346:8381  (interestRate * yearsElapsed) / 100 */\n      tag_280\n      swap2\n      swap1\n      tag_251\n      jump\t// in\n    tag_280:\n        /* \"contracts/RentalAgreement.sol\":8342:8343  1 */\n      0x01\n        /* \"contracts/RentalAgreement.sol\":8342:8381  1 + (interestRate * yearsElapsed) / 100 */\n      tag_281\n      swap2\n      swap1\n      tag_271\n      jump\t// in\n    tag_281:\n        /* \"contracts/RentalAgreement.sol\":8324:8338  depositBalance */\n      sload(0x07)\n        /* \"contracts/RentalAgreement.sol\":8324:8382  depositBalance * (1 + (interestRate * yearsElapsed) / 100) */\n      tag_282\n      swap2\n      swap1\n      tag_268\n      jump\t// in\n    tag_282:\n        /* \"contracts/RentalAgreement.sol\":8302:8382  uint updatedDeposit = depositBalance * (1 + (interestRate * yearsElapsed) / 100) */\n      swap1\n      pop\n        /* \"contracts/RentalAgreement.sol\":8400:8414  updatedDeposit */\n      dup1\n        /* \"contracts/RentalAgreement.sol\":8393:8414  return updatedDeposit */\n      swap5\n      pop\n      pop\n      pop\n      pop\n      pop\n        /* \"contracts/RentalAgreement.sol\":8058:8423  function calculateUpdatedDeposit() public view returns (uint) {... */\n      swap1\n      jump\t// out\n        /* \"contracts/RentalAgreement.sol\":750:777  uint public contractEndDate */\n    tag_105:\n      sload(0x0f)\n      dup2\n      jump\t// out\n        /* \"contracts/RentalAgreement.sol\":279:304  uint public depositAmount */\n    tag_109:\n      sload(0x03)\n      dup2\n      jump\t// out\n        /* \"contracts/RentalAgreement.sol\":10700:11025  function requestTerminationByTennant() external onlyTenant {... */\n    tag_113:\n        /* \"contracts/RentalAgreement.sol\":2238:2244  tenant */\n      0x01\n      0x00\n      swap1\n      sload\n      swap1\n      0x0100\n      exp\n      swap1\n      div\n      0xffffffffffffffffffffffffffffffffffffffff\n      and\n        /* \"contracts/RentalAgreement.sol\":2224:2244  msg.sender == tenant */\n      0xffffffffffffffffffffffffffffffffffffffff\n      and\n        /* \"contracts/RentalAgreement.sol\":2224:2234  msg.sender */\n      caller\n        /* \"contracts/RentalAgreement.sol\":2224:2244  msg.sender == tenant */\n      0xffffffffffffffffffffffffffffffffffffffff\n      and\n      eq\n        /* \"contracts/RentalAgreement.sol\":2216:2284  require(msg.sender == tenant, \"Only Tenant can perform this action\") */\n      tag_284\n      jumpi\n      mload(0x40)\n      0x08c379a000000000000000000000000000000000000000000000000000000000\n      dup2\n      mstore\n      0x04\n      add\n      tag_285\n      swap1\n      tag_286\n      jump\t// in\n    tag_285:\n      mload(0x40)\n      dup1\n      swap2\n      sub\n      swap1\n      revert\n    tag_284:\n        /* \"contracts/RentalAgreement.sol\":10794:10813  RentalStatus.Active */\n      0x00\n        /* \"contracts/RentalAgreement.sol\":10778:10813  rentalStatus == RentalStatus.Active */\n      0x02\n      dup2\n      gt\n      iszero\n      tag_288\n      jumpi\n      tag_289\n      tag_236\n      jump\t// in\n    tag_289:\n    tag_288:\n        /* \"contracts/RentalAgreement.sol\":10778:10790  rentalStatus */\n      0x13\n      0x00\n      swap1\n      sload\n      swap1\n      0x0100\n      exp\n      swap1\n      div\n      0xff\n      and\n        /* \"contracts/RentalAgreement.sol\":10778:10813  rentalStatus == RentalStatus.Active */\n      0x02\n      dup2\n      gt\n      iszero\n      tag_290\n      jumpi\n      tag_291\n      tag_236\n      jump\t// in\n    tag_291:\n    tag_290:\n      eq\n        /* \"contracts/RentalAgreement.sol\":10770:10840  require(rentalStatus == RentalStatus.Active, \"Contract is not Active\") */\n      tag_292\n      jumpi\n      mload(0x40)\n      0x08c379a000000000000000000000000000000000000000000000000000000000\n      dup2\n      mstore\n      0x04\n      add\n      tag_293\n      swap1\n      tag_294\n      jump\t// in\n    tag_293:\n      mload(0x40)\n      dup1\n      swap2\n      sub\n      swap1\n      revert\n    tag_292:\n        /* \"contracts/RentalAgreement.sol\":10892:10899  90 days */\n      0x76a700\n        /* \"contracts/RentalAgreement.sol\":10874:10889  block.timestamp */\n      timestamp\n        /* \"contracts/RentalAgreement.sol\":10874:10899  block.timestamp + 90 days */\n      tag_295\n      swap2\n      swap1\n      tag_271\n      jump\t// in\n    tag_295:\n        /* \"contracts/RentalAgreement.sol\":10851:10871  terminationTimeStamp */\n      0x0e\n        /* \"contracts/RentalAgreement.sol\":10851:10899  terminationTimeStamp = block.timestamp + 90 days */\n      dup2\n      swap1\n      sstore\n      pop\n        /* \"contracts/RentalAgreement.sol\":10925:10956  RentalStatus.PendingTermination */\n      0x02\n        /* \"contracts/RentalAgreement.sol\":10910:10922  rentalStatus */\n      0x13\n      0x00\n        /* \"contracts/RentalAgreement.sol\":10910:10956  rentalStatus = RentalStatus.PendingTermination */\n      0x0100\n      exp\n      dup2\n      sload\n      dup2\n      0xff\n      mul\n      not\n      and\n      swap1\n      dup4\n      0x02\n      dup2\n      gt\n      iszero\n      tag_296\n      jumpi\n      tag_297\n      tag_236\n      jump\t// in\n    tag_297:\n    tag_296:\n      mul\n      or\n      swap1\n      sstore\n      pop\n        /* \"contracts/RentalAgreement.sol\":10974:11016  TerminationScheduled(terminationTimeStamp) */\n      0x2032eea88030b7d191bcbdc44c5ac10ed559f3e9f56a319c896f007b55aba5c6\n        /* \"contracts/RentalAgreement.sol\":10995:11015  terminationTimeStamp */\n      sload(0x0e)\n        /* \"contracts/RentalAgreement.sol\":10974:11016  TerminationScheduled(terminationTimeStamp) */\n      mload(0x40)\n      tag_298\n      swap2\n      swap1\n      tag_98\n      jump\t// in\n    tag_298:\n      mload(0x40)\n      dup1\n      swap2\n      sub\n      swap1\n      log1\n        /* \"contracts/RentalAgreement.sol\":10700:11025  function requestTerminationByTennant() external onlyTenant {... */\n      jump\t// out\n        /* \"contracts/RentalAgreement.sol\":6325:6594  function confirmWarning() external onlyLandlord {... */\n    tag_116:\n        /* \"contracts/RentalAgreement.sol\":2105:2113  landlord */\n      0x00\n      dup1\n      sload\n      swap1\n      0x0100\n      exp\n      swap1\n      div\n      0xffffffffffffffffffffffffffffffffffffffff\n      and\n        /* \"contracts/RentalAgreement.sol\":2091:2113  msg.sender == landlord */\n      0xffffffffffffffffffffffffffffffffffffffff\n      and\n        /* \"contracts/RentalAgreement.sol\":2091:2101  msg.sender */\n      caller\n        /* \"contracts/RentalAgreement.sol\":2091:2113  msg.sender == landlord */\n      0xffffffffffffffffffffffffffffffffffffffff\n      and\n      eq\n        /* \"contracts/RentalAgreement.sol\":2083:2155  require(msg.sender == landlord, \"Only landlord can perform this action\") */\n      tag_300\n      jumpi\n      mload(0x40)\n      0x08c379a000000000000000000000000000000000000000000000000000000000\n      dup2\n      mstore\n      0x04\n      add\n      tag_301\n      swap1\n      tag_232\n      jump\t// in\n    tag_301:\n      mload(0x40)\n      dup1\n      swap2\n      sub\n      swap1\n      revert\n    tag_300:\n        /* \"contracts/RentalAgreement.sol\":6392:6418  pendingSevereBreachWarning */\n      0x0d\n      0x00\n      swap1\n      sload\n      swap1\n      0x0100\n      exp\n      swap1\n      div\n      0xff\n      and\n        /* \"contracts/RentalAgreement.sol\":6384:6452  require(pendingSevereBreachWarning, \"No pending warning to confirm\") */\n      tag_303\n      jumpi\n      mload(0x40)\n      0x08c379a000000000000000000000000000000000000000000000000000000000\n      dup2\n      mstore\n      0x04\n      add\n      tag_304\n      swap1\n      tag_305\n      jump\t// in\n    tag_304:\n      mload(0x40)\n      dup1\n      swap2\n      sub\n      swap1\n      revert\n    tag_303:\n        /* \"contracts/RentalAgreement.sol\":6463:6475  warningCount */\n      0x0b\n      0x00\n        /* \"contracts/RentalAgreement.sol\":6463:6477  warningCount++ */\n      dup2\n      sload\n      dup1\n      swap3\n      swap2\n      swap1\n      tag_306\n      swap1\n      tag_307\n      jump\t// in\n    tag_306:\n      swap2\n      swap1\n      pop\n      sstore\n      pop\n        /* \"contracts/RentalAgreement.sol\":6517:6522  false */\n      0x00\n        /* \"contracts/RentalAgreement.sol\":6488:6514  pendingSevereBreachWarning */\n      0x0d\n      0x00\n        /* \"contracts/RentalAgreement.sol\":6488:6522  pendingSevereBreachWarning = false */\n      0x0100\n      exp\n      dup2\n      sload\n      dup2\n      0xff\n      mul\n      not\n      and\n      swap1\n      dup4\n      iszero\n      iszero\n      mul\n      or\n      swap1\n      sstore\n      pop\n        /* \"contracts/RentalAgreement.sol\":6564:6570  tenant */\n      0x01\n      0x00\n      swap1\n      sload\n      swap1\n      0x0100\n      exp\n      swap1\n      div\n      0xffffffffffffffffffffffffffffffffffffffff\n      and\n        /* \"contracts/RentalAgreement.sol\":6538:6585  SevereBreachWarningIssued(tenant, warningCount) */\n      0xffffffffffffffffffffffffffffffffffffffff\n      and\n      0x3b3128f7f622ff2560e38be1b058b93ba3d585cba51577708f3da9d6fe4cd925\n        /* \"contracts/RentalAgreement.sol\":6572:6584  warningCount */\n      sload(0x0b)\n        /* \"contracts/RentalAgreement.sol\":6538:6585  SevereBreachWarningIssued(tenant, warningCount) */\n      mload(0x40)\n      tag_308\n      swap2\n      swap1\n      tag_98\n      jump\t// in\n    tag_308:\n      mload(0x40)\n      dup1\n      swap2\n      sub\n      swap1\n      log2\n        /* \"contracts/RentalAgreement.sol\":6325:6594  function confirmWarning() external onlyLandlord {... */\n      jump\t// out\n        /* \"contracts/RentalAgreement.sol\":505:533  uint public depositStartTime */\n    tag_119:\n      sload(0x08)\n      dup2\n      jump\t// out\n        /* \"contracts/RentalAgreement.sol\":6603:7695  function payDeposit() external payable onlyTenant {... */\n    tag_122:\n        /* \"contracts/RentalAgreement.sol\":2238:2244  tenant */\n      0x01\n      0x00\n      swap1\n      sload\n      swap1\n      0x0100\n      exp\n      swap1\n      div\n      0xffffffffffffffffffffffffffffffffffffffff\n      and\n        /* \"contracts/RentalAgreement.sol\":2224:2244  msg.sender == tenant */\n      0xffffffffffffffffffffffffffffffffffffffff\n      and\n        /* \"contracts/RentalAgreement.sol\":2224:2234  msg.sender */\n      caller\n        /* \"contracts/RentalAgreement.sol\":2224:2244  msg.sender == tenant */\n      0xffffffffffffffffffffffffffffffffffffffff\n      and\n      eq\n        /* \"contracts/RentalAgreement.sol\":2216:2284  require(msg.sender == tenant, \"Only Tenant can perform this action\") */\n      tag_310\n      jumpi\n      mload(0x40)\n      0x08c379a000000000000000000000000000000000000000000000000000000000\n      dup2\n      mstore\n      0x04\n      add\n      tag_311\n      swap1\n      tag_286\n      jump\t// in\n    tag_311:\n      mload(0x40)\n      dup1\n      swap2\n      sub\n      swap1\n      revert\n    tag_310:\n        /* \"contracts/RentalAgreement.sol\":6688:6707  RentalStatus.Active */\n      0x00\n        /* \"contracts/RentalAgreement.sol\":6672:6707  rentalStatus == RentalStatus.Active */\n      0x02\n      dup2\n      gt\n      iszero\n      tag_313\n      jumpi\n      tag_314\n      tag_236\n      jump\t// in\n    tag_314:\n    tag_313:\n        /* \"contracts/RentalAgreement.sol\":6672:6684  rentalStatus */\n      0x13\n      0x00\n      swap1\n      sload\n      swap1\n      0x0100\n      exp\n      swap1\n      div\n      0xff\n      and\n        /* \"contracts/RentalAgreement.sol\":6672:6707  rentalStatus == RentalStatus.Active */\n      0x02\n      dup2\n      gt\n      iszero\n      tag_315\n      jumpi\n      tag_316\n      tag_236\n      jump\t// in\n    tag_316:\n    tag_315:\n      eq\n        /* \"contracts/RentalAgreement.sol\":6664:6741  require(rentalStatus == RentalStatus.Active, \"Rental contract is not active\") */\n      tag_317\n      jumpi\n      mload(0x40)\n      0x08c379a000000000000000000000000000000000000000000000000000000000\n      dup2\n      mstore\n      0x04\n      add\n      tag_318\n      swap1\n      tag_319\n      jump\t// in\n    tag_318:\n      mload(0x40)\n      dup1\n      swap2\n      sub\n      swap1\n      revert\n    tag_317:\n        /* \"contracts/RentalAgreement.sol\":6754:6770  uint amountToPay */\n      0x00\n        /* \"contracts/RentalAgreement.sol\":6785:6804  isStabelcoinPayment */\n      0x05\n      0x00\n      swap1\n      sload\n      swap1\n      0x0100\n      exp\n      swap1\n      div\n      0xff\n      and\n        /* \"contracts/RentalAgreement.sol\":6781:7604  if (isStabelcoinPayment) {... */\n      iszero\n      tag_320\n      jumpi\n        /* \"contracts/RentalAgreement.sol\":6835:6848  depositAmount */\n      sload(0x03)\n        /* \"contracts/RentalAgreement.sol\":6821:6848  amountToPay = depositAmount */\n      swap1\n      pop\n        /* \"contracts/RentalAgreement.sol\":6878:6895  stabelcoinAddress */\n      0x05\n      0x01\n      swap1\n      sload\n      swap1\n      0x0100\n      exp\n      swap1\n      div\n      0xffffffffffffffffffffffffffffffffffffffff\n      and\n        /* \"contracts/RentalAgreement.sol\":6871:6909  IERC20(stabelcoinAddress).transferFrom */\n      0xffffffffffffffffffffffffffffffffffffffff\n      and\n      0x23b872dd\n        /* \"contracts/RentalAgreement.sol\":6910:6920  msg.sender */\n      caller\n        /* \"contracts/RentalAgreement.sol\":6930:6934  this */\n      address\n        /* \"contracts/RentalAgreement.sol\":6937:6948  amountToPay */\n      dup5\n        /* \"contracts/RentalAgreement.sol\":6871:6949  IERC20(stabelcoinAddress).transferFrom(msg.sender, address(this), amountToPay) */\n      mload(0x40)\n      dup5\n      0xffffffff\n      and\n      0xe0\n      shl\n      dup2\n      mstore\n      0x04\n      add\n      tag_321\n      swap4\n      swap3\n      swap2\n      swap1\n      tag_322\n      jump\t// in\n    tag_321:\n      0x20\n      mload(0x40)\n      dup1\n      dup4\n      sub\n      dup2\n      0x00\n      dup8\n      gas\n      call\n      iszero\n      dup1\n      iszero\n      tag_324\n      jumpi\n      returndatasize\n      0x00\n      dup1\n      returndatacopy\n      revert(0x00, returndatasize)\n    tag_324:\n      pop\n      pop\n      pop\n      pop\n      mload(0x40)\n      returndatasize\n      not(0x1f)\n      0x1f\n      dup3\n      add\n      and\n      dup3\n      add\n      dup1\n      0x40\n      mstore\n      pop\n      dup2\n      add\n      swap1\n      tag_325\n      swap2\n      swap1\n      tag_326\n      jump\t// in\n    tag_325:\n        /* \"contracts/RentalAgreement.sol\":6863:6979  require(IERC20(stabelcoinAddress).transferFrom(msg.sender, address(this), amountToPay), \"Stablecoin deposit failed\") */\n      tag_327\n      jumpi\n      mload(0x40)\n      0x08c379a000000000000000000000000000000000000000000000000000000000\n      dup2\n      mstore\n      0x04\n      add\n      tag_328\n      swap1\n      tag_329\n      jump\t// in\n    tag_328:\n      mload(0x40)\n      dup1\n      swap2\n      sub\n      swap1\n      revert\n    tag_327:\n        /* \"contracts/RentalAgreement.sol\":7008:7025  uint excessAmount */\n      0x00\n        /* \"contracts/RentalAgreement.sol\":7040:7051  amountToPay */\n      dup2\n        /* \"contracts/RentalAgreement.sol\":7028:7037  msg.value */\n      callvalue\n        /* \"contracts/RentalAgreement.sol\":7028:7051  msg.value - amountToPay */\n      tag_330\n      swap2\n      swap1\n      tag_247\n      jump\t// in\n    tag_330:\n        /* \"contracts/RentalAgreement.sol\":7008:7051  uint excessAmount = msg.value - amountToPay */\n      swap1\n      pop\n        /* \"contracts/RentalAgreement.sol\":7084:7085  0 */\n      0x00\n        /* \"contracts/RentalAgreement.sol\":7069:7081  excessAmount */\n      dup2\n        /* \"contracts/RentalAgreement.sol\":7069:7085  excessAmount > 0 */\n      gt\n        /* \"contracts/RentalAgreement.sol\":7066:7164  if(excessAmount > 0) {... */\n      iszero\n      tag_331\n      jumpi\n        /* \"contracts/RentalAgreement.sol\":7114:7124  msg.sender */\n      caller\n        /* \"contracts/RentalAgreement.sol\":7106:7134  payable(msg.sender).transfer */\n      0xffffffffffffffffffffffffffffffffffffffff\n      and\n        /* \"contracts/RentalAgreement.sol\":7106:7148  payable(msg.sender).transfer(excessAmount) */\n      0x08fc\n        /* \"contracts/RentalAgreement.sol\":7135:7147  excessAmount */\n      dup3\n        /* \"contracts/RentalAgreement.sol\":7106:7148  payable(msg.sender).transfer(excessAmount) */\n      swap1\n      dup2\n      iszero\n      mul\n      swap1\n      mload(0x40)\n      0x00\n      mload(0x40)\n      dup1\n      dup4\n      sub\n      dup2\n      dup6\n      dup9\n      dup9\n      call\n      swap4\n      pop\n      pop\n      pop\n      pop\n      iszero\n      dup1\n      iszero\n      tag_333\n      jumpi\n      returndatasize\n      0x00\n      dup1\n      returndatacopy\n      revert(0x00, returndatasize)\n    tag_333:\n      pop\n        /* \"contracts/RentalAgreement.sol\":7066:7164  if(excessAmount > 0) {... */\n    tag_331:\n        /* \"contracts/RentalAgreement.sol\":6806:7175  {... */\n      pop\n        /* \"contracts/RentalAgreement.sol\":6781:7604  if (isStabelcoinPayment) {... */\n      jump(tag_334)\n    tag_320:\n        /* \"contracts/RentalAgreement.sol\":7196:7209  uint ethPrice */\n      0x00\n        /* \"contracts/RentalAgreement.sol\":7212:7228  getLatestPrice() */\n      tag_335\n        /* \"contracts/RentalAgreement.sol\":7212:7226  getLatestPrice */\n      tag_147\n        /* \"contracts/RentalAgreement.sol\":7212:7228  getLatestPrice() */\n      jump\t// in\n    tag_335:\n        /* \"contracts/RentalAgreement.sol\":7196:7228  uint ethPrice = getLatestPrice() */\n      swap1\n      pop\n        /* \"contracts/RentalAgreement.sol\":7282:7290  ethPrice */\n      dup1\n        /* \"contracts/RentalAgreement.sol\":7274:7278  1e18 */\n      0x0de0b6b3a7640000\n        /* \"contracts/RentalAgreement.sol\":7258:7271  depositAmount */\n      sload(0x03)\n        /* \"contracts/RentalAgreement.sol\":7258:7278  depositAmount * 1e18 */\n      tag_336\n      swap2\n      swap1\n      tag_268\n      jump\t// in\n    tag_336:\n        /* \"contracts/RentalAgreement.sol\":7257:7290  (depositAmount * 1e18) / ethPrice */\n      tag_337\n      swap2\n      swap1\n      tag_251\n      jump\t// in\n    tag_337:\n        /* \"contracts/RentalAgreement.sol\":7243:7290  amountToPay = (depositAmount * 1e18) / ethPrice */\n      swap2\n      pop\n        /* \"contracts/RentalAgreement.sol\":7326:7337  amountToPay */\n      dup2\n        /* \"contracts/RentalAgreement.sol\":7313:7322  msg.value */\n      callvalue\n        /* \"contracts/RentalAgreement.sol\":7313:7337  msg.value >= amountToPay */\n      lt\n      iszero\n        /* \"contracts/RentalAgreement.sol\":7305:7362  require(msg.value >= amountToPay, \"Insufficent ETH sent\") */\n      tag_338\n      jumpi\n      mload(0x40)\n      0x08c379a000000000000000000000000000000000000000000000000000000000\n      dup2\n      mstore\n      0x04\n      add\n      tag_339\n      swap1\n      tag_340\n      jump\t// in\n    tag_339:\n      mload(0x40)\n      dup1\n      swap2\n      sub\n      swap1\n      revert\n    tag_338:\n        /* \"contracts/RentalAgreement.sol\":7379:7396  uint excessAmount */\n      0x00\n        /* \"contracts/RentalAgreement.sol\":7411:7422  amountToPay */\n      dup3\n        /* \"contracts/RentalAgreement.sol\":7399:7408  msg.value */\n      callvalue\n        /* \"contracts/RentalAgreement.sol\":7399:7422  msg.value - amountToPay */\n      tag_341\n      swap2\n      swap1\n      tag_247\n      jump\t// in\n    tag_341:\n        /* \"contracts/RentalAgreement.sol\":7379:7422  uint excessAmount = msg.value - amountToPay */\n      swap1\n      pop\n        /* \"contracts/RentalAgreement.sol\":7455:7456  0 */\n      0x00\n        /* \"contracts/RentalAgreement.sol\":7440:7452  excessAmount */\n      dup2\n        /* \"contracts/RentalAgreement.sol\":7440:7456  excessAmount > 0 */\n      gt\n        /* \"contracts/RentalAgreement.sol\":7437:7535  if(excessAmount > 0) {... */\n      iszero\n      tag_342\n      jumpi\n        /* \"contracts/RentalAgreement.sol\":7485:7495  msg.sender */\n      caller\n        /* \"contracts/RentalAgreement.sol\":7477:7505  payable(msg.sender).transfer */\n      0xffffffffffffffffffffffffffffffffffffffff\n      and\n        /* \"contracts/RentalAgreement.sol\":7477:7519  payable(msg.sender).transfer(excessAmount) */\n      0x08fc\n        /* \"contracts/RentalAgreement.sol\":7506:7518  excessAmount */\n      dup3\n        /* \"contracts/RentalAgreement.sol\":7477:7519  payable(msg.sender).transfer(excessAmount) */\n      swap1\n      dup2\n      iszero\n      mul\n      swap1\n      mload(0x40)\n      0x00\n      mload(0x40)\n      dup1\n      dup4\n      sub\n      dup2\n      dup6\n      dup9\n      dup9\n      call\n      swap4\n      pop\n      pop\n      pop\n      pop\n      iszero\n      dup1\n      iszero\n      tag_344\n      jumpi\n      returndatasize\n      0x00\n      dup1\n      returndatacopy\n      revert(0x00, returndatasize)\n    tag_344:\n      pop\n        /* \"contracts/RentalAgreement.sol\":7437:7535  if(excessAmount > 0) {... */\n    tag_342:\n        /* \"contracts/RentalAgreement.sol\":7581:7592  amountToPay */\n      dup3\n        /* \"contracts/RentalAgreement.sol\":7563:7577  depositBalance */\n      0x07\n      0x00\n        /* \"contracts/RentalAgreement.sol\":7563:7592  depositBalance += amountToPay */\n      dup3\n      dup3\n      sload\n      tag_345\n      swap2\n      swap1\n      tag_271\n      jump\t// in\n    tag_345:\n      swap3\n      pop\n      pop\n      dup2\n      swap1\n      sstore\n      pop\n        /* \"contracts/RentalAgreement.sol\":7181:7604  {... */\n      pop\n      pop\n        /* \"contracts/RentalAgreement.sol\":6781:7604  if (isStabelcoinPayment) {... */\n    tag_334:\n        /* \"contracts/RentalAgreement.sol\":7641:7651  msg.sender */\n      caller\n        /* \"contracts/RentalAgreement.sol\":7629:7686  DepositPaid(msg.sender, amountToPay, isStabelcoinPayment) */\n      0xffffffffffffffffffffffffffffffffffffffff\n      and\n      0xd843b6e8d49f0e65c61fb0c27466e0719df02e1ca2340e577c3e289c1ac9154c\n        /* \"contracts/RentalAgreement.sol\":7653:7664  amountToPay */\n      dup3\n        /* \"contracts/RentalAgreement.sol\":7666:7685  isStabelcoinPayment */\n      0x05\n      0x00\n      swap1\n      sload\n      swap1\n      0x0100\n      exp\n      swap1\n      div\n      0xff\n      and\n        /* \"contracts/RentalAgreement.sol\":7629:7686  DepositPaid(msg.sender, amountToPay, isStabelcoinPayment) */\n      mload(0x40)\n      tag_346\n      swap3\n      swap2\n      swap1\n      tag_347\n      jump\t// in\n    tag_346:\n      mload(0x40)\n      dup1\n      swap2\n      sub\n      swap1\n      log2\n        /* \"contracts/RentalAgreement.sol\":6653:7695  {... */\n      pop\n        /* \"contracts/RentalAgreement.sol\":6603:7695  function payDeposit() external payable onlyTenant {... */\n      jump\t// out\n        /* \"contracts/RentalAgreement.sol\":472:498  uint public depositBalance */\n    tag_125:\n      sload(0x07)\n      dup2\n      jump\t// out\n        /* \"contracts/RentalAgreement.sol\":9014:9374  function terminateContractIfNotRenewed() external {... */\n    tag_129:\n        /* \"contracts/RentalAgreement.sol\":9102:9117  contractEndDate */\n      sload(0x0f)\n        /* \"contracts/RentalAgreement.sol\":9083:9098  block.timestamp */\n      timestamp\n        /* \"contracts/RentalAgreement.sol\":9083:9117  block.timestamp >= contractEndDate */\n      lt\n      iszero\n        /* \"contracts/RentalAgreement.sol\":9075:9150  require(block.timestamp >= contractEndDate, \"Contract has not expired yet\") */\n      tag_349\n      jumpi\n      mload(0x40)\n      0x08c379a000000000000000000000000000000000000000000000000000000000\n      dup2\n      mstore\n      0x04\n      add\n      tag_350\n      swap1\n      tag_351\n      jump\t// in\n    tag_350:\n      mload(0x40)\n      dup1\n      swap2\n      sub\n      swap1\n      revert\n    tag_349:\n        /* \"contracts/RentalAgreement.sol\":9170:9185  renewalApproved */\n      0x11\n      0x01\n      swap1\n      sload\n      swap1\n      0x0100\n      exp\n      swap1\n      div\n      0xff\n      and\n        /* \"contracts/RentalAgreement.sol\":9169:9185  !renewalApproved */\n      iszero\n        /* \"contracts/RentalAgreement.sol\":9169:9204  !renewalApproved || !renewalRequest */\n      dup1\n      tag_352\n      jumpi\n      pop\n        /* \"contracts/RentalAgreement.sol\":9190:9204  renewalRequest */\n      0x11\n      0x00\n      swap1\n      sload\n      swap1\n      0x0100\n      exp\n      swap1\n      div\n      0xff\n      and\n        /* \"contracts/RentalAgreement.sol\":9189:9204  !renewalRequest */\n      iszero\n        /* \"contracts/RentalAgreement.sol\":9169:9204  !renewalApproved || !renewalRequest */\n    tag_352:\n        /* \"contracts/RentalAgreement.sol\":9161:9234  require(!renewalApproved || !renewalRequest, \"Contract has been renewed\") */\n      tag_353\n      jumpi\n      mload(0x40)\n      0x08c379a000000000000000000000000000000000000000000000000000000000\n      dup2\n      mstore\n      0x04\n      add\n      tag_354\n      swap1\n      tag_355\n      jump\t// in\n    tag_354:\n      mload(0x40)\n      dup1\n      swap2\n      sub\n      swap1\n      revert\n    tag_353:\n        /* \"contracts/RentalAgreement.sol\":9262:9285  RentalStatus.Terminated */\n      0x01\n        /* \"contracts/RentalAgreement.sol\":9247:9259  rentalStatus */\n      0x13\n      0x00\n        /* \"contracts/RentalAgreement.sol\":9247:9285  rentalStatus = RentalStatus.Terminated */\n      0x0100\n      exp\n      dup2\n      sload\n      dup2\n      0xff\n      mul\n      not\n      and\n      swap1\n      dup4\n      0x02\n      dup2\n      gt\n      iszero\n      tag_356\n      jumpi\n      tag_357\n      tag_236\n      jump\t// in\n    tag_357:\n    tag_356:\n      mul\n      or\n      swap1\n      sstore\n      pop\n        /* \"contracts/RentalAgreement.sol\":9320:9328  landlord */\n      0x00\n      dup1\n      sload\n      swap1\n      0x0100\n      exp\n      swap1\n      div\n      0xffffffffffffffffffffffffffffffffffffffff\n      and\n        /* \"contracts/RentalAgreement.sol\":9301:9365  ContractTerminated(landlord, \"Contract expired without renewal\") */\n      0xffffffffffffffffffffffffffffffffffffffff\n      and\n      0x7b73f5d770f3eb41fd57f1e6a1c9e2a5ec61febbbd4e608d511c46e3fd611639\n      mload(0x40)\n      tag_358\n      swap1\n      tag_359\n      jump\t// in\n    tag_358:\n      mload(0x40)\n      dup1\n      swap2\n      sub\n      swap1\n      log2\n        /* \"contracts/RentalAgreement.sol\":9014:9374  function terminateContractIfNotRenewed() external {... */\n      jump\t// out\n        /* \"contracts/RentalAgreement.sol\":637:659  uint public amountOwed */\n    tag_132:\n      sload(0x0c)\n      dup2\n      jump\t// out\n        /* \"contracts/RentalAgreement.sol\":8606:9005  function returnDeposit() external onlyLandlord {... */\n    tag_136:\n        /* \"contracts/RentalAgreement.sol\":2105:2113  landlord */\n      0x00\n      dup1\n      sload\n      swap1\n      0x0100\n      exp\n      swap1\n      div\n      0xffffffffffffffffffffffffffffffffffffffff\n      and\n        /* \"contracts/RentalAgreement.sol\":2091:2113  msg.sender == landlord */\n      0xffffffffffffffffffffffffffffffffffffffff\n      and\n        /* \"contracts/RentalAgreement.sol\":2091:2101  msg.sender */\n      caller\n        /* \"contracts/RentalAgreement.sol\":2091:2113  msg.sender == landlord */\n      0xffffffffffffffffffffffffffffffffffffffff\n      and\n      eq\n        /* \"contracts/RentalAgreement.sol\":2083:2155  require(msg.sender == landlord, \"Only landlord can perform this action\") */\n      tag_361\n      jumpi\n      mload(0x40)\n      0x08c379a000000000000000000000000000000000000000000000000000000000\n      dup2\n      mstore\n      0x04\n      add\n      tag_362\n      swap1\n      tag_232\n      jump\t// in\n    tag_362:\n      mload(0x40)\n      dup1\n      swap2\n      sub\n      swap1\n      revert\n    tag_361:\n        /* \"contracts/RentalAgreement.sol\":8688:8711  RentalStatus.Terminated */\n      0x01\n        /* \"contracts/RentalAgreement.sol\":8672:8711  rentalStatus == RentalStatus.Terminated */\n      0x02\n      dup2\n      gt\n      iszero\n      tag_364\n      jumpi\n      tag_365\n      tag_236\n      jump\t// in\n    tag_365:\n    tag_364:\n        /* \"contracts/RentalAgreement.sol\":8672:8684  rentalStatus */\n      0x13\n      0x00\n      swap1\n      sload\n      swap1\n      0x0100\n      exp\n      swap1\n      div\n      0xff\n      and\n        /* \"contracts/RentalAgreement.sol\":8672:8711  rentalStatus == RentalStatus.Terminated */\n      0x02\n      dup2\n      gt\n      iszero\n      tag_366\n      jumpi\n      tag_367\n      tag_236\n      jump\t// in\n    tag_367:\n    tag_366:\n      eq\n        /* \"contracts/RentalAgreement.sol\":8664:8744  require(rentalStatus == RentalStatus.Terminated, \"Contract must ber terminated\") */\n      tag_368\n      jumpi\n      mload(0x40)\n      0x08c379a000000000000000000000000000000000000000000000000000000000\n      dup2\n      mstore\n      0x04\n      add\n      tag_369\n      swap1\n      tag_370\n      jump\t// in\n    tag_369:\n      mload(0x40)\n      dup1\n      swap2\n      sub\n      swap1\n      revert\n    tag_368:\n        /* \"contracts/RentalAgreement.sol\":8757:8776  uint updatedDeposit */\n      0x00\n        /* \"contracts/RentalAgreement.sol\":8779:8804  calculateUpdatedDeposit() */\n      tag_371\n        /* \"contracts/RentalAgreement.sol\":8779:8802  calculateUpdatedDeposit */\n      tag_101\n        /* \"contracts/RentalAgreement.sol\":8779:8804  calculateUpdatedDeposit() */\n      jump\t// in\n    tag_371:\n        /* \"contracts/RentalAgreement.sol\":8757:8804  uint updatedDeposit = calculateUpdatedDeposit() */\n      swap1\n      pop\n        /* \"contracts/RentalAgreement.sol\":8815:8832  uint returnAmount */\n      0x00\n        /* \"contracts/RentalAgreement.sol\":8835:8849  depositBalance */\n      sload(0x07)\n        /* \"contracts/RentalAgreement.sol\":8815:8849  uint returnAmount = depositBalance */\n      swap1\n      pop\n        /* \"contracts/RentalAgreement.sol\":8877:8878  0 */\n      0x00\n        /* \"contracts/RentalAgreement.sol\":8860:8874  depositBalance */\n      0x07\n        /* \"contracts/RentalAgreement.sol\":8860:8878  depositBalance = 0 */\n      dup2\n      swap1\n      sstore\n      pop\n        /* \"contracts/RentalAgreement.sol\":8897:8903  tenant */\n      0x01\n      0x00\n      swap1\n      sload\n      swap1\n      0x0100\n      exp\n      swap1\n      div\n      0xffffffffffffffffffffffffffffffffffffffff\n      and\n        /* \"contracts/RentalAgreement.sol\":8889:8913  payable(tenant).transfer */\n      0xffffffffffffffffffffffffffffffffffffffff\n      and\n        /* \"contracts/RentalAgreement.sol\":8889:8929  payable(tenant).transfer(updatedDeposit) */\n      0x08fc\n        /* \"contracts/RentalAgreement.sol\":8914:8928  updatedDeposit */\n      dup4\n        /* \"contracts/RentalAgreement.sol\":8889:8929  payable(tenant).transfer(updatedDeposit) */\n      swap1\n      dup2\n      iszero\n      mul\n      swap1\n      mload(0x40)\n      0x00\n      mload(0x40)\n      dup1\n      dup4\n      sub\n      dup2\n      dup6\n      dup9\n      dup9\n      call\n      swap4\n      pop\n      pop\n      pop\n      pop\n      iszero\n      dup1\n      iszero\n      tag_373\n      jumpi\n      returndatasize\n      0x00\n      dup1\n      returndatacopy\n      revert(0x00, returndatasize)\n    tag_373:\n      pop\n        /* \"contracts/RentalAgreement.sol\":8971:8981  msg.sender */\n      caller\n        /* \"contracts/RentalAgreement.sol\":8955:8996  DepositReturned(msg.sender, returnAmount) */\n      0xffffffffffffffffffffffffffffffffffffffff\n      and\n      0xa09244c122a83074363635dc89ce0098166c2f74827960ff64a7c8e6ad1c57a2\n        /* \"contracts/RentalAgreement.sol\":8983:8995  returnAmount */\n      dup3\n        /* \"contracts/RentalAgreement.sol\":8955:8996  DepositReturned(msg.sender, returnAmount) */\n      mload(0x40)\n      tag_374\n      swap2\n      swap1\n      tag_98\n      jump\t// in\n    tag_374:\n      mload(0x40)\n      dup1\n      swap2\n      sub\n      swap1\n      log2\n        /* \"contracts/RentalAgreement.sol\":8653:9005  {... */\n      pop\n      pop\n        /* \"contracts/RentalAgreement.sol\":8606:9005  function returnDeposit() external onlyLandlord {... */\n      jump\t// out\n        /* \"contracts/RentalAgreement.sol\":711:743  uint public terminationTimeStamp */\n    tag_139:\n      sload(0x0e)\n      dup2\n      jump\t// out\n        /* \"contracts/RentalAgreement.sol\":8432:8592  function getLatestInterestRate() public view returns (uint256) {... */\n    tag_143:\n        /* \"contracts/RentalAgreement.sol\":8486:8493  uint256 */\n      0x00\n        /* \"contracts/RentalAgreement.sol\":8509:8517  int rate */\n      dup1\n        /* \"contracts/RentalAgreement.sol\":8528:8537  priceFeed */\n      0x06\n      0x00\n      swap1\n      sload\n      swap1\n      0x0100\n      exp\n      swap1\n      div\n      0xffffffffffffffffffffffffffffffffffffffff\n      and\n        /* \"contracts/RentalAgreement.sol\":8528:8553  priceFeed.latestRoundData */\n      0xffffffffffffffffffffffffffffffffffffffff\n      and\n      0xfeaf968c\n        /* \"contracts/RentalAgreement.sol\":8528:8555  priceFeed.latestRoundData() */\n      mload(0x40)\n      dup2\n      0xffffffff\n      and\n      0xe0\n      shl\n      dup2\n      mstore\n      0x04\n      add\n      0xa0\n      mload(0x40)\n      dup1\n      dup4\n      sub\n      dup2\n      dup7\n      gas\n      staticcall\n      iszero\n      dup1\n      iszero\n      tag_377\n      jumpi\n      returndatasize\n      0x00\n      dup1\n      returndatacopy\n      revert(0x00, returndatasize)\n    tag_377:\n      pop\n      pop\n      pop\n      pop\n      mload(0x40)\n      returndatasize\n      not(0x1f)\n      0x1f\n      dup3\n      add\n      and\n      dup3\n      add\n      dup1\n      0x40\n      mstore\n      pop\n      dup2\n      add\n      swap1\n      tag_378\n      swap2\n      swap1\n      tag_379\n      jump\t// in\n    tag_378:\n        /* \"contracts/RentalAgreement.sol\":8506:8555  (, int rate , , , ) = priceFeed.latestRoundData() */\n      pop\n      pop\n      pop\n      swap2\n      pop\n      pop\n        /* \"contracts/RentalAgreement.sol\":8578:8582  rate */\n      dup1\n        /* \"contracts/RentalAgreement.sol\":8566:8583  return uint(rate) */\n      swap2\n      pop\n      pop\n        /* \"contracts/RentalAgreement.sol\":8432:8592  function getLatestInterestRate() public view returns (uint256) {... */\n      swap1\n      jump\t// out\n        /* \"contracts/RentalAgreement.sol\":3416:3574  function getLatestPrice() public view returns (uint) {... */\n    tag_147:\n        /* \"contracts/RentalAgreement.sol\":3463:3467  uint */\n      0x00\n        /* \"contracts/RentalAgreement.sol\":3483:3492  int price */\n      dup1\n        /* \"contracts/RentalAgreement.sol\":3502:3511  priceFeed */\n      0x06\n      0x00\n      swap1\n      sload\n      swap1\n      0x0100\n      exp\n      swap1\n      div\n      0xffffffffffffffffffffffffffffffffffffffff\n      and\n        /* \"contracts/RentalAgreement.sol\":3502:3527  priceFeed.latestRoundData */\n      0xffffffffffffffffffffffffffffffffffffffff\n      and\n      0xfeaf968c\n        /* \"contracts/RentalAgreement.sol\":3502:3529  priceFeed.latestRoundData() */\n      mload(0x40)\n      dup2\n      0xffffffff\n      and\n      0xe0\n      shl\n      dup2\n      mstore\n      0x04\n      add\n      0xa0\n      mload(0x40)\n      dup1\n      dup4\n      sub\n      dup2\n      dup7\n      gas\n      staticcall\n      iszero\n      dup1\n      iszero\n      tag_382\n      jumpi\n      returndatasize\n      0x00\n      dup1\n      returndatacopy\n      revert(0x00, returndatasize)\n    tag_382:\n      pop\n      pop\n      pop\n      pop\n      mload(0x40)\n      returndatasize\n      not(0x1f)\n      0x1f\n      dup3\n      add\n      and\n      dup3\n      add\n      dup1\n      0x40\n      mstore\n      pop\n      dup2\n      add\n      swap1\n      tag_383\n      swap2\n      swap1\n      tag_379\n      jump\t// in\n    tag_383:\n        /* \"contracts/RentalAgreement.sol\":3480:3529  (, int price, , , ) = priceFeed.latestRoundData() */\n      pop\n      pop\n      pop\n      swap2\n      pop\n      pop\n        /* \"contracts/RentalAgreement.sol\":3558:3564  10**10 */\n      0x02540be400\n        /* \"contracts/RentalAgreement.sol\":3552:3557  price */\n      dup2\n        /* \"contracts/RentalAgreement.sol\":3552:3564  price*10**10 */\n      tag_384\n      swap2\n      swap1\n      tag_385\n      jump\t// in\n    tag_384:\n        /* \"contracts/RentalAgreement.sol\":3540:3565  return uint(price*10**10) */\n      swap2\n      pop\n      pop\n        /* \"contracts/RentalAgreement.sol\":3416:3574  function getLatestPrice() public view returns (uint) {... */\n      swap1\n      jump\t// out\n        /* \"contracts/RentalAgreement.sol\":822:848  bool public renewalRequest */\n    tag_151:\n      0x11\n      0x00\n      swap1\n      sload\n      swap1\n      0x0100\n      exp\n      swap1\n      div\n      0xff\n      and\n      dup2\n      jump\t// out\n        /* \"contracts/RentalAgreement.sol\":7704:8049  function deductFromDeposit(uint amount, string memory reason) external onlyLandlord {... */\n    tag_157:\n        /* \"contracts/RentalAgreement.sol\":2105:2113  landlord */\n      0x00\n      dup1\n      sload\n      swap1\n      0x0100\n      exp\n      swap1\n      div\n      0xffffffffffffffffffffffffffffffffffffffff\n      and\n        /* \"contracts/RentalAgreement.sol\":2091:2113  msg.sender == landlord */\n      0xffffffffffffffffffffffffffffffffffffffff\n      and\n        /* \"contracts/RentalAgreement.sol\":2091:2101  msg.sender */\n      caller\n        /* \"contracts/RentalAgreement.sol\":2091:2113  msg.sender == landlord */\n      0xffffffffffffffffffffffffffffffffffffffff\n      and\n      eq\n        /* \"contracts/RentalAgreement.sol\":2083:2155  require(msg.sender == landlord, \"Only landlord can perform this action\") */\n      tag_387\n      jumpi\n      mload(0x40)\n      0x08c379a000000000000000000000000000000000000000000000000000000000\n      dup2\n      mstore\n      0x04\n      add\n      tag_388\n      swap1\n      tag_232\n      jump\t// in\n    tag_388:\n      mload(0x40)\n      dup1\n      swap2\n      sub\n      swap1\n      revert\n    tag_387:\n        /* \"contracts/RentalAgreement.sol\":7817:7831  depositBalance */\n      sload(0x07)\n        /* \"contracts/RentalAgreement.sol\":7807:7813  amount */\n      dup3\n        /* \"contracts/RentalAgreement.sol\":7807:7831  amount <= depositBalance */\n      gt\n      iszero\n        /* \"contracts/RentalAgreement.sol\":7799:7868  require(amount <= depositBalance, \"Deduction exceeds deposit amount\") */\n      tag_390\n      jumpi\n      mload(0x40)\n      0x08c379a000000000000000000000000000000000000000000000000000000000\n      dup2\n      mstore\n      0x04\n      add\n      tag_391\n      swap1\n      tag_392\n      jump\t// in\n    tag_391:\n      mload(0x40)\n      dup1\n      swap2\n      sub\n      swap1\n      revert\n    tag_390:\n        /* \"contracts/RentalAgreement.sol\":7897:7903  amount */\n      dup2\n        /* \"contracts/RentalAgreement.sol\":7879:7893  depositBalance */\n      0x07\n      0x00\n        /* \"contracts/RentalAgreement.sol\":7879:7903  depositBalance -= amount */\n      dup3\n      dup3\n      sload\n      tag_393\n      swap2\n      swap1\n      tag_247\n      jump\t// in\n    tag_393:\n      swap3\n      pop\n      pop\n      dup2\n      swap1\n      sstore\n      pop\n        /* \"contracts/RentalAgreement.sol\":7932:7938  amount */\n      dup2\n        /* \"contracts/RentalAgreement.sol\":7914:7928  deductedAmount */\n      0x09\n      0x00\n        /* \"contracts/RentalAgreement.sol\":7914:7938  deductedAmount += amount */\n      dup3\n      dup3\n      sload\n      tag_394\n      swap2\n      swap1\n      tag_271\n      jump\t// in\n    tag_394:\n      swap3\n      pop\n      pop\n      dup2\n      swap1\n      sstore\n      pop\n        /* \"contracts/RentalAgreement.sol\":7957:7965  landlord */\n      0x00\n      dup1\n      sload\n      swap1\n      0x0100\n      exp\n      swap1\n      div\n      0xffffffffffffffffffffffffffffffffffffffff\n      and\n        /* \"contracts/RentalAgreement.sol\":7949:7975  payable(landlord).transfer */\n      0xffffffffffffffffffffffffffffffffffffffff\n      and\n        /* \"contracts/RentalAgreement.sol\":7949:7983  payable(landlord).transfer(amount) */\n      0x08fc\n        /* \"contracts/RentalAgreement.sol\":7976:7982  amount */\n      dup4\n        /* \"contracts/RentalAgreement.sol\":7949:7983  payable(landlord).transfer(amount) */\n      swap1\n      dup2\n      iszero\n      mul\n      swap1\n      mload(0x40)\n      0x00\n      mload(0x40)\n      dup1\n      dup4\n      sub\n      dup2\n      dup6\n      dup9\n      dup9\n      call\n      swap4\n      pop\n      pop\n      pop\n      pop\n      iszero\n      dup1\n      iszero\n      tag_396\n      jumpi\n      returndatasize\n      0x00\n      dup1\n      returndatacopy\n      revert(0x00, returndatasize)\n    tag_396:\n      pop\n        /* \"contracts/RentalAgreement.sol\":8015:8023  landlord */\n      0x00\n      dup1\n      sload\n      swap1\n      0x0100\n      exp\n      swap1\n      div\n      0xffffffffffffffffffffffffffffffffffffffff\n      and\n        /* \"contracts/RentalAgreement.sol\":7999:8040  DepositDeducted(landlord, amount, reason) */\n      0xffffffffffffffffffffffffffffffffffffffff\n      and\n      0x0e71db61460cade63bdce2bd520284d5fcde93eb8604be23456ac0761c5cb4d9\n        /* \"contracts/RentalAgreement.sol\":8025:8031  amount */\n      dup4\n        /* \"contracts/RentalAgreement.sol\":8033:8039  reason */\n      dup4\n        /* \"contracts/RentalAgreement.sol\":7999:8040  DepositDeducted(landlord, amount, reason) */\n      mload(0x40)\n      tag_397\n      swap3\n      swap2\n      swap1\n      tag_398\n      jump\t// in\n    tag_397:\n      mload(0x40)\n      dup1\n      swap2\n      sub\n      swap1\n      log2\n        /* \"contracts/RentalAgreement.sol\":7704:8049  function deductFromDeposit(uint amount, string memory reason) external onlyLandlord {... */\n      pop\n      pop\n      jump\t// out\n        /* \"contracts/RentalAgreement.sol\":3583:3693  function authorizeAutoPayment() external onlyTenant {... */\n    tag_160:\n        /* \"contracts/RentalAgreement.sol\":2238:2244  tenant */\n      0x01\n      0x00\n      swap1\n      sload\n      swap1\n      0x0100\n      exp\n      swap1\n      div\n      0xffffffffffffffffffffffffffffffffffffffff\n      and\n        /* \"contracts/RentalAgreement.sol\":2224:2244  msg.sender == tenant */\n      0xffffffffffffffffffffffffffffffffffffffff\n      and\n        /* \"contracts/RentalAgreement.sol\":2224:2234  msg.sender */\n      caller\n        /* \"contracts/RentalAgreement.sol\":2224:2244  msg.sender == tenant */\n      0xffffffffffffffffffffffffffffffffffffffff\n      and\n      eq\n        /* \"contracts/RentalAgreement.sol\":2216:2284  require(msg.sender == tenant, \"Only Tenant can perform this action\") */\n      tag_400\n      jumpi\n      mload(0x40)\n      0x08c379a000000000000000000000000000000000000000000000000000000000\n      dup2\n      mstore\n      0x04\n      add\n      tag_401\n      swap1\n      tag_286\n      jump\t// in\n    tag_401:\n      mload(0x40)\n      dup1\n      swap2\n      sub\n      swap1\n      revert\n    tag_400:\n        /* \"contracts/RentalAgreement.sol\":3680:3684  true */\n      0x01\n        /* \"contracts/RentalAgreement.sol\":3646:3665  autoPaymentApproved */\n      0x12\n        /* \"contracts/RentalAgreement.sol\":3646:3677  autoPaymentApproved[msg.sender] */\n      0x00\n        /* \"contracts/RentalAgreement.sol\":3666:3676  msg.sender */\n      caller\n        /* \"contracts/RentalAgreement.sol\":3646:3677  autoPaymentApproved[msg.sender] */\n      0xffffffffffffffffffffffffffffffffffffffff\n      and\n      0xffffffffffffffffffffffffffffffffffffffff\n      and\n      dup2\n      mstore\n      0x20\n      add\n      swap1\n      dup2\n      mstore\n      0x20\n      add\n      0x00\n      keccak256\n      0x00\n        /* \"contracts/RentalAgreement.sol\":3646:3684  autoPaymentApproved[msg.sender] = true */\n      0x0100\n      exp\n      dup2\n      sload\n      dup2\n      0xff\n      mul\n      not\n      and\n      swap1\n      dup4\n      iszero\n      iszero\n      mul\n      or\n      swap1\n      sstore\n      pop\n        /* \"contracts/RentalAgreement.sol\":3583:3693  function authorizeAutoPayment() external onlyTenant {... */\n      jump\t// out\n        /* \"contracts/RentalAgreement.sol\":1166:1203  PaymentRecord[] public paymentHistory */\n    tag_165:\n      0x14\n      dup2\n      dup2\n      sload\n      dup2\n      lt\n      tag_403\n      jumpi\n      0x00\n      dup1\n      revert\n    tag_403:\n      swap1\n      0x00\n      mstore\n      keccak256(0x00, 0x20)\n      swap1\n      0x03\n      mul\n      add\n      0x00\n      swap2\n      pop\n      swap1\n      pop\n      dup1\n      0x00\n      add\n      sload\n      swap1\n      dup1\n      0x01\n      add\n      sload\n      swap1\n      dup1\n      0x02\n      add\n      0x00\n      swap1\n      sload\n      swap1\n      0x0100\n      exp\n      swap1\n      div\n      0xff\n      and\n      swap1\n      pop\n      dup4\n      jump\t// out\n        /* \"contracts/RentalAgreement.sol\":4332:5277  function payRent() external payable onlyTenant {... */\n    tag_169:\n        /* \"contracts/RentalAgreement.sol\":2238:2244  tenant */\n      0x01\n      0x00\n      swap1\n      sload\n      swap1\n      0x0100\n      exp\n      swap1\n      div\n      0xffffffffffffffffffffffffffffffffffffffff\n      and\n        /* \"contracts/RentalAgreement.sol\":2224:2244  msg.sender == tenant */\n      0xffffffffffffffffffffffffffffffffffffffff\n      and\n        /* \"contracts/RentalAgreement.sol\":2224:2234  msg.sender */\n      caller\n        /* \"contracts/RentalAgreement.sol\":2224:2244  msg.sender == tenant */\n      0xffffffffffffffffffffffffffffffffffffffff\n      and\n      eq\n        /* \"contracts/RentalAgreement.sol\":2216:2284  require(msg.sender == tenant, \"Only Tenant can perform this action\") */\n      tag_406\n      jumpi\n      mload(0x40)\n      0x08c379a000000000000000000000000000000000000000000000000000000000\n      dup2\n      mstore\n      0x04\n      add\n      tag_407\n      swap1\n      tag_286\n      jump\t// in\n    tag_407:\n      mload(0x40)\n      dup1\n      swap2\n      sub\n      swap1\n      revert\n    tag_406:\n        /* \"contracts/RentalAgreement.sol\":4414:4433  RentalStatus.Active */\n      0x00\n        /* \"contracts/RentalAgreement.sol\":4398:4433  rentalStatus == RentalStatus.Active */\n      0x02\n      dup2\n      gt\n      iszero\n      tag_409\n      jumpi\n      tag_410\n      tag_236\n      jump\t// in\n    tag_410:\n    tag_409:\n        /* \"contracts/RentalAgreement.sol\":4398:4410  rentalStatus */\n      0x13\n      0x00\n      swap1\n      sload\n      swap1\n      0x0100\n      exp\n      swap1\n      div\n      0xff\n      and\n        /* \"contracts/RentalAgreement.sol\":4398:4433  rentalStatus == RentalStatus.Active */\n      0x02\n      dup2\n      gt\n      iszero\n      tag_411\n      jumpi\n      tag_412\n      tag_236\n      jump\t// in\n    tag_412:\n    tag_411:\n      eq\n        /* \"contracts/RentalAgreement.sol\":4390:4467  require(rentalStatus == RentalStatus.Active, \"Rental contract is not active\") */\n      tag_413\n      jumpi\n      mload(0x40)\n      0x08c379a000000000000000000000000000000000000000000000000000000000\n      dup2\n      mstore\n      0x04\n      add\n      tag_414\n      swap1\n      tag_319\n      jump\t// in\n    tag_414:\n      mload(0x40)\n      dup1\n      swap2\n      sub\n      swap1\n      revert\n    tag_413:\n        /* \"contracts/RentalAgreement.sol\":4480:4496  uint amountToPay */\n      0x00\n        /* \"contracts/RentalAgreement.sol\":4511:4530  isStabelcoinPayment */\n      0x05\n      0x00\n      swap1\n      sload\n      swap1\n      0x0100\n      exp\n      swap1\n      div\n      0xff\n      and\n        /* \"contracts/RentalAgreement.sol\":4507:4961  if (isStabelcoinPayment) {... */\n      iszero\n      tag_415\n      jumpi\n        /* \"contracts/RentalAgreement.sol\":4561:4571  rentAmount */\n      sload(0x02)\n        /* \"contracts/RentalAgreement.sol\":4547:4571  amountToPay = rentAmount */\n      swap1\n      pop\n        /* \"contracts/RentalAgreement.sol\":4601:4618  stabelcoinAddress */\n      0x05\n      0x01\n      swap1\n      sload\n      swap1\n      0x0100\n      exp\n      swap1\n      div\n      0xffffffffffffffffffffffffffffffffffffffff\n      and\n        /* \"contracts/RentalAgreement.sol\":4594:4632  IERC20(stabelcoinAddress).transferFrom */\n      0xffffffffffffffffffffffffffffffffffffffff\n      and\n      0x23b872dd\n        /* \"contracts/RentalAgreement.sol\":4633:4643  msg.sender */\n      caller\n        /* \"contracts/RentalAgreement.sol\":4645:4653  landlord */\n      0x00\n      dup1\n      sload\n      swap1\n      0x0100\n      exp\n      swap1\n      div\n      0xffffffffffffffffffffffffffffffffffffffff\n      and\n        /* \"contracts/RentalAgreement.sol\":4655:4666  amountToPay */\n      dup5\n        /* \"contracts/RentalAgreement.sol\":4594:4667  IERC20(stabelcoinAddress).transferFrom(msg.sender, landlord, amountToPay) */\n      mload(0x40)\n      dup5\n      0xffffffff\n      and\n      0xe0\n      shl\n      dup2\n      mstore\n      0x04\n      add\n      tag_416\n      swap4\n      swap3\n      swap2\n      swap1\n      tag_322\n      jump\t// in\n    tag_416:\n      0x20\n      mload(0x40)\n      dup1\n      dup4\n      sub\n      dup2\n      0x00\n      dup8\n      gas\n      call\n      iszero\n      dup1\n      iszero\n      tag_418\n      jumpi\n      returndatasize\n      0x00\n      dup1\n      returndatacopy\n      revert(0x00, returndatasize)\n    tag_418:\n      pop\n      pop\n      pop\n      pop\n      mload(0x40)\n      returndatasize\n      not(0x1f)\n      0x1f\n      dup3\n      add\n      and\n      dup3\n      add\n      dup1\n      0x40\n      mstore\n      pop\n      dup2\n      add\n      swap1\n      tag_419\n      swap2\n      swap1\n      tag_326\n      jump\t// in\n    tag_419:\n        /* \"contracts/RentalAgreement.sol\":4586:4697  require(IERC20(stabelcoinAddress).transferFrom(msg.sender, landlord, amountToPay), \"Stablecoin payment failed\") */\n      tag_420\n      jumpi\n      mload(0x40)\n      0x08c379a000000000000000000000000000000000000000000000000000000000\n      dup2\n      mstore\n      0x04\n      add\n      tag_421\n      swap1\n      tag_422\n      jump\t// in\n    tag_421:\n      mload(0x40)\n      dup1\n      swap2\n      sub\n      swap1\n      revert\n    tag_420:\n        /* \"contracts/RentalAgreement.sol\":4507:4961  if (isStabelcoinPayment) {... */\n      jump(tag_423)\n    tag_415:\n        /* \"contracts/RentalAgreement.sol\":4730:4743  uint ethPrice */\n      0x00\n        /* \"contracts/RentalAgreement.sol\":4746:4762  getLatestPrice() */\n      tag_424\n        /* \"contracts/RentalAgreement.sol\":4746:4760  getLatestPrice */\n      tag_147\n        /* \"contracts/RentalAgreement.sol\":4746:4762  getLatestPrice() */\n      jump\t// in\n    tag_424:\n        /* \"contracts/RentalAgreement.sol\":4730:4762  uint ethPrice = getLatestPrice() */\n      swap1\n      pop\n        /* \"contracts/RentalAgreement.sol\":4813:4821  ethPrice */\n      dup1\n        /* \"contracts/RentalAgreement.sol\":4805:4809  1e18 */\n      0x0de0b6b3a7640000\n        /* \"contracts/RentalAgreement.sol\":4792:4802  rentAmount */\n      sload(0x02)\n        /* \"contracts/RentalAgreement.sol\":4792:4809  rentAmount * 1e18 */\n      tag_425\n      swap2\n      swap1\n      tag_268\n      jump\t// in\n    tag_425:\n        /* \"contracts/RentalAgreement.sol\":4791:4821  (rentAmount * 1e18) / ethPrice */\n      tag_426\n      swap2\n      swap1\n      tag_251\n      jump\t// in\n    tag_426:\n        /* \"contracts/RentalAgreement.sol\":4777:4821  amountToPay = (rentAmount * 1e18) / ethPrice */\n      swap2\n      pop\n        /* \"contracts/RentalAgreement.sol\":4857:4868  amountToPay */\n      dup2\n        /* \"contracts/RentalAgreement.sol\":4844:4853  msg.value */\n      callvalue\n        /* \"contracts/RentalAgreement.sol\":4844:4868  msg.value >= amountToPay */\n      lt\n      iszero\n        /* \"contracts/RentalAgreement.sol\":4836:4893  require(msg.value >= amountToPay, \"Insufficent ETH sent\") */\n      tag_427\n      jumpi\n      mload(0x40)\n      0x08c379a000000000000000000000000000000000000000000000000000000000\n      dup2\n      mstore\n      0x04\n      add\n      tag_428\n      swap1\n      tag_340\n      jump\t// in\n    tag_428:\n      mload(0x40)\n      dup1\n      swap2\n      sub\n      swap1\n      revert\n    tag_427:\n        /* \"contracts/RentalAgreement.sol\":4918:4926  landlord */\n      0x00\n      dup1\n      sload\n      swap1\n      0x0100\n      exp\n      swap1\n      div\n      0xffffffffffffffffffffffffffffffffffffffff\n      and\n        /* \"contracts/RentalAgreement.sol\":4910:4936  payable(landlord).transfer */\n      0xffffffffffffffffffffffffffffffffffffffff\n      and\n        /* \"contracts/RentalAgreement.sol\":4910:4949  payable(landlord).transfer(amountToPay) */\n      0x08fc\n        /* \"contracts/RentalAgreement.sol\":4937:4948  amountToPay */\n      dup4\n        /* \"contracts/RentalAgreement.sol\":4910:4949  payable(landlord).transfer(amountToPay) */\n      swap1\n      dup2\n      iszero\n      mul\n      swap1\n      mload(0x40)\n      0x00\n      mload(0x40)\n      dup1\n      dup4\n      sub\n      dup2\n      dup6\n      dup9\n      dup9\n      call\n      swap4\n      pop\n      pop\n      pop\n      pop\n      iszero\n      dup1\n      iszero\n      tag_430\n      jumpi\n      returndatasize\n      0x00\n      dup1\n      returndatacopy\n      revert(0x00, returndatasize)\n    tag_430:\n      pop\n        /* \"contracts/RentalAgreement.sol\":4715:4961  {... */\n      pop\n        /* \"contracts/RentalAgreement.sol\":4507:4961  if (isStabelcoinPayment) {... */\n    tag_423:\n        /* \"contracts/RentalAgreement.sol\":4989:5000  amountToPay */\n      dup1\n        /* \"contracts/RentalAgreement.sol\":4975:4985  amountOwed */\n      sload(0x0c)\n        /* \"contracts/RentalAgreement.sol\":4975:5000  amountOwed == amountToPay */\n      sub\n        /* \"contracts/RentalAgreement.sol\":4971:5101  if (amountOwed == amountToPay) {... */\n      tag_431\n      jumpi\n        /* \"contracts/RentalAgreement.sol\":5030:5031  0 */\n      0x00\n        /* \"contracts/RentalAgreement.sol\":5017:5027  amountOwed */\n      0x0c\n        /* \"contracts/RentalAgreement.sol\":5017:5031  amountOwed = 0 */\n      dup2\n      swap1\n      sstore\n      pop\n        /* \"contracts/RentalAgreement.sol\":4971:5101  if (amountOwed == amountToPay) {... */\n      jump(tag_432)\n    tag_431:\n        /* \"contracts/RentalAgreement.sol\":5078:5089  amountToPay */\n      dup1\n        /* \"contracts/RentalAgreement.sol\":5064:5074  amountOwed */\n      0x0c\n      0x00\n        /* \"contracts/RentalAgreement.sol\":5064:5089  amountOwed -= amountToPay */\n      dup3\n      dup3\n      sload\n      tag_433\n      swap2\n      swap1\n      tag_247\n      jump\t// in\n    tag_433:\n      swap3\n      pop\n      pop\n      dup2\n      swap1\n      sstore\n      pop\n        /* \"contracts/RentalAgreement.sol\":4971:5101  if (amountOwed == amountToPay) {... */\n    tag_432:\n        /* \"contracts/RentalAgreement.sol\":5113:5127  paymentHistory */\n      0x14\n        /* \"contracts/RentalAgreement.sol\":5133:5197  PaymentRecord(block.timestamp, amountToPay, isStabelcoinPayment) */\n      mload(0x40)\n      dup1\n      0x60\n      add\n      0x40\n      mstore\n      dup1\n        /* \"contracts/RentalAgreement.sol\":5147:5162  block.timestamp */\n      timestamp\n        /* \"contracts/RentalAgreement.sol\":5133:5197  PaymentRecord(block.timestamp, amountToPay, isStabelcoinPayment) */\n      dup2\n      mstore\n      0x20\n      add\n        /* \"contracts/RentalAgreement.sol\":5164:5175  amountToPay */\n      dup4\n        /* \"contracts/RentalAgreement.sol\":5133:5197  PaymentRecord(block.timestamp, amountToPay, isStabelcoinPayment) */\n      dup2\n      mstore\n      0x20\n      add\n        /* \"contracts/RentalAgreement.sol\":5177:5196  isStabelcoinPayment */\n      0x05\n      0x00\n      swap1\n      sload\n      swap1\n      0x0100\n      exp\n      swap1\n      div\n      0xff\n      and\n        /* \"contracts/RentalAgreement.sol\":5133:5197  PaymentRecord(block.timestamp, amountToPay, isStabelcoinPayment) */\n      iszero\n      iszero\n      dup2\n      mstore\n      pop\n        /* \"contracts/RentalAgreement.sol\":5113:5198  paymentHistory.push(PaymentRecord(block.timestamp, amountToPay, isStabelcoinPayment)) */\n      swap1\n      dup1\n      0x01\n      dup2\n      sload\n      add\n      dup1\n      dup3\n      sstore\n      dup1\n      swap2\n      pop\n      pop\n      0x01\n      swap1\n      sub\n      swap1\n      0x00\n      mstore\n      keccak256(0x00, 0x20)\n      swap1\n      0x03\n      mul\n      add\n      0x00\n      swap1\n      swap2\n      swap1\n      swap2\n      swap1\n      swap2\n      pop\n      0x00\n      dup3\n      add\n      mload\n      dup2\n      0x00\n      add\n      sstore\n      0x20\n      dup3\n      add\n      mload\n      dup2\n      0x01\n      add\n      sstore\n      0x40\n      dup3\n      add\n      mload\n      dup2\n      0x02\n      add\n      exp(0x0100, 0x00)\n      dup2\n      sload\n      dup2\n      0xff\n      mul\n      not\n      and\n      swap1\n      dup4\n      iszero\n      iszero\n      mul\n      or\n      swap1\n      sstore\n      pop\n      pop\n      pop\n        /* \"contracts/RentalAgreement.sol\":5223:5233  msg.sender */\n      caller\n        /* \"contracts/RentalAgreement.sol\":5214:5268  RentPaid(msg.sender, amountToPay, isStabelcoinPayment) */\n      0xffffffffffffffffffffffffffffffffffffffff\n      and\n      0xa0e44cc6f4f184bc83e145bf7f0cc703b7f698476124cf6a9d7d403d202e77fd\n        /* \"contracts/RentalAgreement.sol\":5235:5246  amountToPay */\n      dup3\n        /* \"contracts/RentalAgreement.sol\":5248:5267  isStabelcoinPayment */\n      0x05\n      0x00\n      swap1\n      sload\n      swap1\n      0x0100\n      exp\n      swap1\n      div\n      0xff\n      and\n        /* \"contracts/RentalAgreement.sol\":5214:5268  RentPaid(msg.sender, amountToPay, isStabelcoinPayment) */\n      mload(0x40)\n      tag_435\n      swap3\n      swap2\n      swap1\n      tag_347\n      jump\t// in\n    tag_435:\n      mload(0x40)\n      dup1\n      swap2\n      sub\n      swap1\n      log2\n        /* \"contracts/RentalAgreement.sol\":4379:5277  {... */\n      pop\n        /* \"contracts/RentalAgreement.sol\":4332:5277  function payRent() external payable onlyTenant {... */\n      jump\t// out\n        /* \"contracts/RentalAgreement.sol\":3702:3810  function revokeAutoPayment() external onlyTenant {... */\n    tag_172:\n        /* \"contracts/RentalAgreement.sol\":2238:2244  tenant */\n      0x01\n      0x00\n      swap1\n      sload\n      swap1\n      0x0100\n      exp\n      swap1\n      div\n      0xffffffffffffffffffffffffffffffffffffffff\n      and\n        /* \"contracts/RentalAgreement.sol\":2224:2244  msg.sender == tenant */\n      0xffffffffffffffffffffffffffffffffffffffff\n      and\n        /* \"contracts/RentalAgreement.sol\":2224:2234  msg.sender */\n      caller\n        /* \"contracts/RentalAgreement.sol\":2224:2244  msg.sender == tenant */\n      0xffffffffffffffffffffffffffffffffffffffff\n      and\n      eq\n        /* \"contracts/RentalAgreement.sol\":2216:2284  require(msg.sender == tenant, \"Only Tenant can perform this action\") */\n      tag_437\n      jumpi\n      mload(0x40)\n      0x08c379a000000000000000000000000000000000000000000000000000000000\n      dup2\n      mstore\n      0x04\n      add\n      tag_438\n      swap1\n      tag_286\n      jump\t// in\n    tag_438:\n      mload(0x40)\n      dup1\n      swap2\n      sub\n      swap1\n      revert\n    tag_437:\n        /* \"contracts/RentalAgreement.sol\":3796:3801  false */\n      0x00\n        /* \"contracts/RentalAgreement.sol\":3762:3781  autoPaymentApproved */\n      0x12\n        /* \"contracts/RentalAgreement.sol\":3762:3793  autoPaymentApproved[msg.sender] */\n      0x00\n        /* \"contracts/RentalAgreement.sol\":3782:3792  msg.sender */\n      caller\n        /* \"contracts/RentalAgreement.sol\":3762:3793  autoPaymentApproved[msg.sender] */\n      0xffffffffffffffffffffffffffffffffffffffff\n      and\n      0xffffffffffffffffffffffffffffffffffffffff\n      and\n      dup2\n      mstore\n      0x20\n      add\n      swap1\n      dup2\n      mstore\n      0x20\n      add\n      0x00\n      keccak256\n      0x00\n        /* \"contracts/RentalAgreement.sol\":3762:3801  autoPaymentApproved[msg.sender] = false */\n      0x0100\n      exp\n      dup2\n      sload\n      dup2\n      0xff\n      mul\n      not\n      and\n      swap1\n      dup4\n      iszero\n      iszero\n      mul\n      or\n      swap1\n      sstore\n      pop\n        /* \"contracts/RentalAgreement.sol\":3702:3810  function revokeAutoPayment() external onlyTenant {... */\n      jump\t// out\n        /* \"contracts/RentalAgreement.sol\":222:243  address public tenant */\n    tag_175:\n      0x01\n      0x00\n      swap1\n      sload\n      swap1\n      0x0100\n      exp\n      swap1\n      div\n      0xffffffffffffffffffffffffffffffffffffffff\n      and\n      dup2\n      jump\t// out\n        /* \"contracts/RentalAgreement.sol\":5728:5844  function getPaymentHistory() external view returns(PaymentRecord[] memory) {... */\n    tag_180:\n        /* \"contracts/RentalAgreement.sol\":5779:5801  PaymentRecord[] memory */\n      0x60\n        /* \"contracts/RentalAgreement.sol\":5821:5835  paymentHistory */\n      0x14\n        /* \"contracts/RentalAgreement.sol\":5814:5835  return paymentHistory */\n      dup1\n      sload\n      dup1\n      0x20\n      mul\n      0x20\n      add\n      mload(0x40)\n      swap1\n      dup2\n      add\n      0x40\n      mstore\n      dup1\n      swap3\n      swap2\n      swap1\n      dup2\n      dup2\n      mstore\n      0x20\n      add\n      0x00\n      swap1\n    tag_441:\n      dup3\n      dup3\n      lt\n      iszero\n      tag_442\n      jumpi\n      dup4\n      dup3\n      swap1\n      0x00\n      mstore\n      keccak256(0x00, 0x20)\n      swap1\n      0x03\n      mul\n      add\n      mload(0x40)\n      dup1\n      0x60\n      add\n      0x40\n      mstore\n      swap1\n      dup2\n      0x00\n      dup3\n      add\n      sload\n      dup2\n      mstore\n      0x20\n      add\n      0x01\n      dup3\n      add\n      sload\n      dup2\n      mstore\n      0x20\n      add\n      0x02\n      dup3\n      add\n      0x00\n      swap1\n      sload\n      swap1\n      0x0100\n      exp\n      swap1\n      div\n      0xff\n      and\n      iszero\n      iszero\n      iszero\n      iszero\n      dup2\n      mstore\n      pop\n      pop\n      dup2\n      mstore\n      0x20\n      add\n      swap1\n      0x01\n      add\n      swap1\n      jump(tag_441)\n    tag_442:\n      pop\n      pop\n      pop\n      pop\n      swap1\n      pop\n        /* \"contracts/RentalAgreement.sol\":5728:5844  function getPaymentHistory() external view returns(PaymentRecord[] memory) {... */\n      swap1\n      jump\t// out\n        /* \"contracts/RentalAgreement.sol\":9383:9618  function requestContractRenewal() external onlyTenant {... */\n    tag_185:\n        /* \"contracts/RentalAgreement.sol\":2238:2244  tenant */\n      0x01\n      0x00\n      swap1\n      sload\n      swap1\n      0x0100\n      exp\n      swap1\n      div\n      0xffffffffffffffffffffffffffffffffffffffff\n      and\n        /* \"contracts/RentalAgreement.sol\":2224:2244  msg.sender == tenant */\n      0xffffffffffffffffffffffffffffffffffffffff\n      and\n        /* \"contracts/RentalAgreement.sol\":2224:2234  msg.sender */\n      caller\n        /* \"contracts/RentalAgreement.sol\":2224:2244  msg.sender == tenant */\n      0xffffffffffffffffffffffffffffffffffffffff\n      and\n      eq\n        /* \"contracts/RentalAgreement.sol\":2216:2284  require(msg.sender == tenant, \"Only Tenant can perform this action\") */\n      tag_445\n      jumpi\n      mload(0x40)\n      0x08c379a000000000000000000000000000000000000000000000000000000000\n      dup2\n      mstore\n      0x04\n      add\n      tag_446\n      swap1\n      tag_286\n      jump\t// in\n    tag_446:\n      mload(0x40)\n      dup1\n      swap2\n      sub\n      swap1\n      revert\n    tag_445:\n        /* \"contracts/RentalAgreement.sol\":9472:9491  RentalStatus.Active */\n      0x00\n        /* \"contracts/RentalAgreement.sol\":9456:9491  rentalStatus == RentalStatus.Active */\n      0x02\n      dup2\n      gt\n      iszero\n      tag_448\n      jumpi\n      tag_449\n      tag_236\n      jump\t// in\n    tag_449:\n    tag_448:\n        /* \"contracts/RentalAgreement.sol\":9456:9468  rentalStatus */\n      0x13\n      0x00\n      swap1\n      sload\n      swap1\n      0x0100\n      exp\n      swap1\n      div\n      0xff\n      and\n        /* \"contracts/RentalAgreement.sol\":9456:9491  rentalStatus == RentalStatus.Active */\n      0x02\n      dup2\n      gt\n      iszero\n      tag_450\n      jumpi\n      tag_451\n      tag_236\n      jump\t// in\n    tag_451:\n    tag_450:\n      eq\n        /* \"contracts/RentalAgreement.sol\":9448:9524  require(rentalStatus == RentalStatus.Active, \"Contract has already expired\") */\n      tag_452\n      jumpi\n      mload(0x40)\n      0x08c379a000000000000000000000000000000000000000000000000000000000\n      dup2\n      mstore\n      0x04\n      add\n      tag_453\n      swap1\n      tag_454\n      jump\t// in\n    tag_453:\n      mload(0x40)\n      dup1\n      swap2\n      sub\n      swap1\n      revert\n    tag_452:\n        /* \"contracts/RentalAgreement.sol\":9552:9556  true */\n      0x01\n        /* \"contracts/RentalAgreement.sol\":9535:9549  renewalRequest */\n      0x11\n      0x00\n        /* \"contracts/RentalAgreement.sol\":9535:9556  renewalRequest = true */\n      0x0100\n      exp\n      dup2\n      sload\n      dup2\n      0xff\n      mul\n      not\n      and\n      swap1\n      dup4\n      iszero\n      iszero\n      mul\n      or\n      swap1\n      sstore\n      pop\n        /* \"contracts/RentalAgreement.sol\":9598:9608  msg.sender */\n      caller\n        /* \"contracts/RentalAgreement.sol\":9574:9609  ContracRenewalRequested(msg.sender) */\n      0xffffffffffffffffffffffffffffffffffffffff\n      and\n      0x54551c802caca31274238693b2aebd359c4bc3d704209b36bf46cace47543722\n      mload(0x40)\n      mload(0x40)\n      dup1\n      swap2\n      sub\n      swap1\n      log2\n        /* \"contracts/RentalAgreement.sol\":9383:9618  function requestContractRenewal() external onlyTenant {... */\n      jump\t// out\n        /* \"contracts/RentalAgreement.sol\":386:418  address public stabelcoinAddress */\n    tag_188:\n      0x05\n      0x01\n      swap1\n      sload\n      swap1\n      0x0100\n      exp\n      swap1\n      div\n      0xffffffffffffffffffffffffffffffffffffffff\n      and\n      dup2\n      jump\t// out\n        /* \"contracts/RentalAgreement.sol\":5853:6052  function getNextPaymentTimeStamp() public view returns (uint) {... */\n    tag_192:\n        /* \"contracts/RentalAgreement.sol\":5909:5913  uint */\n      0x00\n        /* \"contracts/RentalAgreement.sol\":5926:5943  uint currentMonth */\n      dup1\n        /* \"contracts/RentalAgreement.sol\":5964:5971  30 days */\n      0x278d00\n        /* \"contracts/RentalAgreement.sol\":5946:5961  block.timestamp */\n      timestamp\n        /* \"contracts/RentalAgreement.sol\":5946:5971  block.timestamp / 30 days */\n      tag_456\n      swap2\n      swap1\n      tag_251\n      jump\t// in\n    tag_456:\n        /* \"contracts/RentalAgreement.sol\":5926:5971  uint currentMonth = block.timestamp / 30 days */\n      swap1\n      pop\n        /* \"contracts/RentalAgreement.sol\":6037:6043  1 days */\n      0x015180\n        /* \"contracts/RentalAgreement.sol\":6020:6034  paymentDueDate */\n      sload(0x0a)\n        /* \"contracts/RentalAgreement.sol\":6020:6043  paymentDueDate * 1 days */\n      tag_457\n      swap2\n      swap1\n      tag_268\n      jump\t// in\n    tag_457:\n        /* \"contracts/RentalAgreement.sol\":6010:6017  30 days */\n      0x278d00\n        /* \"contracts/RentalAgreement.sol\":6005:6006  1 */\n      0x01\n        /* \"contracts/RentalAgreement.sol\":5990:6002  currentMonth */\n      dup4\n        /* \"contracts/RentalAgreement.sol\":5990:6006  currentMonth + 1 */\n      tag_458\n      swap2\n      swap1\n      tag_271\n      jump\t// in\n    tag_458:\n        /* \"contracts/RentalAgreement.sol\":5989:6017  (currentMonth + 1) * 30 days */\n      tag_459\n      swap2\n      swap1\n      tag_268\n      jump\t// in\n    tag_459:\n        /* \"contracts/RentalAgreement.sol\":5989:6043  (currentMonth + 1) * 30 days + paymentDueDate * 1 days */\n      tag_460\n      swap2\n      swap1\n      tag_271\n      jump\t// in\n    tag_460:\n        /* \"contracts/RentalAgreement.sol\":5982:6043  return (currentMonth + 1) * 30 days + paymentDueDate * 1 days */\n      swap2\n      pop\n      pop\n        /* \"contracts/RentalAgreement.sol\":5853:6052  function getNextPaymentTimeStamp() public view returns (uint) {... */\n      swap1\n      jump\t// out\n        /* \"contracts/RentalAgreement.sol\":6061:6316  function requestWarning() external onlyLandlord {... */\n    tag_196:\n        /* \"contracts/RentalAgreement.sol\":2105:2113  landlord */\n      0x00\n      dup1\n      sload\n      swap1\n      0x0100\n      exp\n      swap1\n      div\n      0xffffffffffffffffffffffffffffffffffffffff\n      and\n        /* \"contracts/RentalAgreement.sol\":2091:2113  msg.sender == landlord */\n      0xffffffffffffffffffffffffffffffffffffffff\n      and\n        /* \"contracts/RentalAgreement.sol\":2091:2101  msg.sender */\n      caller\n        /* \"contracts/RentalAgreement.sol\":2091:2113  msg.sender == landlord */\n      0xffffffffffffffffffffffffffffffffffffffff\n      and\n      eq\n        /* \"contracts/RentalAgreement.sol\":2083:2155  require(msg.sender == landlord, \"Only landlord can perform this action\") */\n      tag_462\n      jumpi\n      mload(0x40)\n      0x08c379a000000000000000000000000000000000000000000000000000000000\n      dup2\n      mstore\n      0x04\n      add\n      tag_463\n      swap1\n      tag_232\n      jump\t// in\n    tag_463:\n      mload(0x40)\n      dup1\n      swap2\n      sub\n      swap1\n      revert\n    tag_462:\n        /* \"contracts/RentalAgreement.sol\":6174:6180  7 days */\n      0x093a80\n        /* \"contracts/RentalAgreement.sol\":6146:6171  getNextPaymentTimeStamp() */\n      tag_465\n        /* \"contracts/RentalAgreement.sol\":6146:6169  getNextPaymentTimeStamp */\n      tag_192\n        /* \"contracts/RentalAgreement.sol\":6146:6171  getNextPaymentTimeStamp() */\n      jump\t// in\n    tag_465:\n        /* \"contracts/RentalAgreement.sol\":6146:6180  getNextPaymentTimeStamp() + 7 days */\n      tag_466\n      swap2\n      swap1\n      tag_271\n      jump\t// in\n    tag_466:\n        /* \"contracts/RentalAgreement.sol\":6128:6143  block.timestamp */\n      timestamp\n        /* \"contracts/RentalAgreement.sol\":6128:6180  block.timestamp > getNextPaymentTimeStamp() + 7 days */\n      gt\n        /* \"contracts/RentalAgreement.sol\":6120:6211  require(block.timestamp > getNextPaymentTimeStamp() + 7 days, \"Warning not applicable yet\") */\n      tag_467\n      jumpi\n      mload(0x40)\n      0x08c379a000000000000000000000000000000000000000000000000000000000\n      dup2\n      mstore\n      0x04\n      add\n      tag_468\n      swap1\n      tag_469\n      jump\t// in\n    tag_468:\n      mload(0x40)\n      dup1\n      swap2\n      sub\n      swap1\n      revert\n    tag_467:\n        /* \"contracts/RentalAgreement.sol\":6251:6255  true */\n      0x01\n        /* \"contracts/RentalAgreement.sol\":6222:6248  pendingSevereBreachWarning */\n      0x0d\n      0x00\n        /* \"contracts/RentalAgreement.sol\":6222:6255  pendingSevereBreachWarning = true */\n      0x0100\n      exp\n      dup2\n      sload\n      dup2\n      0xff\n      mul\n      not\n      and\n      swap1\n      dup4\n      iszero\n      iszero\n      mul\n      or\n      swap1\n      sstore\n      pop\n        /* \"contracts/RentalAgreement.sol\":6300:6306  tenant */\n      0x01\n      0x00\n      swap1\n      sload\n      swap1\n      0x0100\n      exp\n      swap1\n      div\n      0xffffffffffffffffffffffffffffffffffffffff\n      and\n        /* \"contracts/RentalAgreement.sol\":6271:6307  SevereBreachWarningRequested(tenant) */\n      0xffffffffffffffffffffffffffffffffffffffff\n      and\n      0x8e0013ec8ea09fb2e5fc1733fcaa4d39f199b60c282b0300add067402b2aa91b\n      mload(0x40)\n      mload(0x40)\n      dup1\n      swap2\n      sub\n      swap1\n      log2\n        /* \"contracts/RentalAgreement.sol\":6061:6316  function requestWarning() external onlyLandlord {... */\n      jump\t// out\n        /* \"contracts/RentalAgreement.sol\":573:599  uint public paymentDueDate */\n    tag_199:\n      sload(0x0a)\n      dup2\n      jump\t// out\n        /* \"contracts/RentalAgreement.sol\":192:215  address public landlord */\n    tag_203:\n      0x00\n      dup1\n      sload\n      swap1\n      0x0100\n      exp\n      swap1\n      div\n      0xffffffffffffffffffffffffffffffffffffffff\n      and\n      dup2\n      jump\t// out\n        /* \"contracts/RentalAgreement.sol\":10280:10691  function executeTermination() external onlyLandlord {... */\n    tag_207:\n        /* \"contracts/RentalAgreement.sol\":2105:2113  landlord */\n      0x00\n      dup1\n      sload\n      swap1\n      0x0100\n      exp\n      swap1\n      div\n      0xffffffffffffffffffffffffffffffffffffffff\n      and\n        /* \"contracts/RentalAgreement.sol\":2091:2113  msg.sender == landlord */\n      0xffffffffffffffffffffffffffffffffffffffff\n      and\n        /* \"contracts/RentalAgreement.sol\":2091:2101  msg.sender */\n      caller\n        /* \"contracts/RentalAgreement.sol\":2091:2113  msg.sender == landlord */\n      0xffffffffffffffffffffffffffffffffffffffff\n      and\n      eq\n        /* \"contracts/RentalAgreement.sol\":2083:2155  require(msg.sender == landlord, \"Only landlord can perform this action\") */\n      tag_471\n      jumpi\n      mload(0x40)\n      0x08c379a000000000000000000000000000000000000000000000000000000000\n      dup2\n      mstore\n      0x04\n      add\n      tag_472\n      swap1\n      tag_232\n      jump\t// in\n    tag_472:\n      mload(0x40)\n      dup1\n      swap2\n      sub\n      swap1\n      revert\n    tag_471:\n        /* \"contracts/RentalAgreement.sol\":10367:10398  RentalStatus.PendingTermination */\n      0x02\n        /* \"contracts/RentalAgreement.sol\":10351:10398  rentalStatus == RentalStatus.PendingTermination */\n      dup1\n      dup2\n      gt\n      iszero\n      tag_474\n      jumpi\n      tag_475\n      tag_236\n      jump\t// in\n    tag_475:\n    tag_474:\n        /* \"contracts/RentalAgreement.sol\":10351:10363  rentalStatus */\n      0x13\n      0x00\n      swap1\n      sload\n      swap1\n      0x0100\n      exp\n      swap1\n      div\n      0xff\n      and\n        /* \"contracts/RentalAgreement.sol\":10351:10398  rentalStatus == RentalStatus.PendingTermination */\n      0x02\n      dup2\n      gt\n      iszero\n      tag_476\n      jumpi\n      tag_477\n      tag_236\n      jump\t// in\n    tag_477:\n    tag_476:\n      eq\n        /* \"contracts/RentalAgreement.sol\":10343:10427  require(rentalStatus == RentalStatus.PendingTermination, \"Termination not schduled\") */\n      tag_478\n      jumpi\n      mload(0x40)\n      0x08c379a000000000000000000000000000000000000000000000000000000000\n      dup2\n      mstore\n      0x04\n      add\n      tag_479\n      swap1\n      tag_480\n      jump\t// in\n    tag_479:\n      mload(0x40)\n      dup1\n      swap2\n      sub\n      swap1\n      revert\n    tag_478:\n        /* \"contracts/RentalAgreement.sol\":10465:10485  terminationTimeStamp */\n      sload(0x0e)\n        /* \"contracts/RentalAgreement.sol\":10446:10461  block.timestamp */\n      timestamp\n        /* \"contracts/RentalAgreement.sol\":10446:10485  block.timestamp >= terminationTimeStamp */\n      lt\n      iszero\n        /* \"contracts/RentalAgreement.sol\":10438:10520  require(block.timestamp >= terminationTimeStamp, \"Termination period not reached\") */\n      tag_481\n      jumpi\n      mload(0x40)\n      0x08c379a000000000000000000000000000000000000000000000000000000000\n      dup2\n      mstore\n      0x04\n      add\n      tag_482\n      swap1\n      tag_483\n      jump\t// in\n    tag_482:\n      mload(0x40)\n      dup1\n      swap2\n      sub\n      swap1\n      revert\n    tag_481:\n        /* \"contracts/RentalAgreement.sol\":10546:10569  RentalStatus.Terminated */\n      0x01\n        /* \"contracts/RentalAgreement.sol\":10531:10543  rentalStatus */\n      0x13\n      0x00\n        /* \"contracts/RentalAgreement.sol\":10531:10569  rentalStatus = RentalStatus.Terminated */\n      0x0100\n      exp\n      dup2\n      sload\n      dup2\n      0xff\n      mul\n      not\n      and\n      swap1\n      dup4\n      0x02\n      dup2\n      gt\n      iszero\n      tag_484\n      jumpi\n      tag_485\n      tag_236\n      jump\t// in\n    tag_485:\n    tag_484:\n      mul\n      or\n      swap1\n      sstore\n      pop\n        /* \"contracts/RentalAgreement.sol\":10604:10612  landlord */\n      0x00\n      dup1\n      sload\n      swap1\n      0x0100\n      exp\n      swap1\n      div\n      0xffffffffffffffffffffffffffffffffffffffff\n      and\n        /* \"contracts/RentalAgreement.sol\":10585:10682  ContractTerminated(landlord, \"More than 3 payments were not registered. Contract is terminated.\") */\n      0xffffffffffffffffffffffffffffffffffffffff\n      and\n      0x7b73f5d770f3eb41fd57f1e6a1c9e2a5ec61febbbd4e608d511c46e3fd611639\n      mload(0x40)\n      tag_486\n      swap1\n      tag_487\n      jump\t// in\n    tag_486:\n      mload(0x40)\n      dup1\n      swap2\n      sub\n      swap1\n      log2\n        /* \"contracts/RentalAgreement.sol\":10280:10691  function executeTermination() external onlyLandlord {... */\n      jump\t// out\n        /* \"contracts/RentalAgreement.sol\":3819:4323  function processAutoPayment() external onlyLandlord {... */\n    tag_210:\n        /* \"contracts/RentalAgreement.sol\":2105:2113  landlord */\n      0x00\n      dup1\n      sload\n      swap1\n      0x0100\n      exp\n      swap1\n      div\n      0xffffffffffffffffffffffffffffffffffffffff\n      and\n        /* \"contracts/RentalAgreement.sol\":2091:2113  msg.sender == landlord */\n      0xffffffffffffffffffffffffffffffffffffffff\n      and\n        /* \"contracts/RentalAgreement.sol\":2091:2101  msg.sender */\n      caller\n        /* \"contracts/RentalAgreement.sol\":2091:2113  msg.sender == landlord */\n      0xffffffffffffffffffffffffffffffffffffffff\n      and\n      eq\n        /* \"contracts/RentalAgreement.sol\":2083:2155  require(msg.sender == landlord, \"Only landlord can perform this action\") */\n      tag_489\n      jumpi\n      mload(0x40)\n      0x08c379a000000000000000000000000000000000000000000000000000000000\n      dup2\n      mstore\n      0x04\n      add\n      tag_490\n      swap1\n      tag_232\n      jump\t// in\n    tag_490:\n      mload(0x40)\n      dup1\n      swap2\n      sub\n      swap1\n      revert\n    tag_489:\n        /* \"contracts/RentalAgreement.sol\":3890:3909  autoPaymentApproved */\n      0x12\n        /* \"contracts/RentalAgreement.sol\":3890:3917  autoPaymentApproved[tenant] */\n      0x00\n        /* \"contracts/RentalAgreement.sol\":3910:3916  tenant */\n      0x01\n      0x00\n      swap1\n      sload\n      swap1\n      0x0100\n      exp\n      swap1\n      div\n      0xffffffffffffffffffffffffffffffffffffffff\n      and\n        /* \"contracts/RentalAgreement.sol\":3890:3917  autoPaymentApproved[tenant] */\n      0xffffffffffffffffffffffffffffffffffffffff\n      and\n      0xffffffffffffffffffffffffffffffffffffffff\n      and\n      dup2\n      mstore\n      0x20\n      add\n      swap1\n      dup2\n      mstore\n      0x20\n      add\n      0x00\n      keccak256\n      0x00\n      swap1\n      sload\n      swap1\n      0x0100\n      exp\n      swap1\n      div\n      0xff\n      and\n        /* \"contracts/RentalAgreement.sol\":3882:3949  require(autoPaymentApproved[tenant], \"Auto payment not authorized\") */\n      tag_492\n      jumpi\n      mload(0x40)\n      0x08c379a000000000000000000000000000000000000000000000000000000000\n      dup2\n      mstore\n      0x04\n      add\n      tag_493\n      swap1\n      tag_494\n      jump\t// in\n    tag_493:\n      mload(0x40)\n      dup1\n      swap2\n      sub\n      swap1\n      revert\n    tag_492:\n        /* \"contracts/RentalAgreement.sol\":3984:4003  RentalStatus.Active */\n      0x00\n        /* \"contracts/RentalAgreement.sol\":3968:4003  rentalStatus == RentalStatus.Active */\n      0x02\n      dup2\n      gt\n      iszero\n      tag_495\n      jumpi\n      tag_496\n      tag_236\n      jump\t// in\n    tag_496:\n    tag_495:\n        /* \"contracts/RentalAgreement.sol\":3968:3980  rentalStatus */\n      0x13\n      0x00\n      swap1\n      sload\n      swap1\n      0x0100\n      exp\n      swap1\n      div\n      0xff\n      and\n        /* \"contracts/RentalAgreement.sol\":3968:4003  rentalStatus == RentalStatus.Active */\n      0x02\n      dup2\n      gt\n      iszero\n      tag_497\n      jumpi\n      tag_498\n      tag_236\n      jump\t// in\n    tag_498:\n    tag_497:\n      eq\n        /* \"contracts/RentalAgreement.sol\":3960:4030  require(rentalStatus == RentalStatus.Active, \"Contract is not active\") */\n      tag_499\n      jumpi\n      mload(0x40)\n      0x08c379a000000000000000000000000000000000000000000000000000000000\n      dup2\n      mstore\n      0x04\n      add\n      tag_500\n      swap1\n      tag_245\n      jump\t// in\n    tag_500:\n      mload(0x40)\n      dup1\n      swap2\n      sub\n      swap1\n      revert\n    tag_499:\n        /* \"contracts/RentalAgreement.sol\":4043:4059  uint amountToPay */\n      0x00\n        /* \"contracts/RentalAgreement.sol\":4062:4072  rentAmount */\n      sload(0x02)\n        /* \"contracts/RentalAgreement.sol\":4043:4072  uint amountToPay = rentAmount */\n      swap1\n      pop\n        /* \"contracts/RentalAgreement.sol\":4098:4115  stabelcoinAddress */\n      0x05\n      0x01\n      swap1\n      sload\n      swap1\n      0x0100\n      exp\n      swap1\n      div\n      0xffffffffffffffffffffffffffffffffffffffff\n      and\n        /* \"contracts/RentalAgreement.sol\":4091:4129  IERC20(stabelcoinAddress).transferFrom */\n      0xffffffffffffffffffffffffffffffffffffffff\n      and\n      0x23b872dd\n        /* \"contracts/RentalAgreement.sol\":4130:4136  tenant */\n      0x01\n      0x00\n      swap1\n      sload\n      swap1\n      0x0100\n      exp\n      swap1\n      div\n      0xffffffffffffffffffffffffffffffffffffffff\n      and\n        /* \"contracts/RentalAgreement.sol\":4138:4146  landlord */\n      0x00\n      dup1\n      sload\n      swap1\n      0x0100\n      exp\n      swap1\n      div\n      0xffffffffffffffffffffffffffffffffffffffff\n      and\n        /* \"contracts/RentalAgreement.sol\":4148:4159  amountToPay */\n      dup5\n        /* \"contracts/RentalAgreement.sol\":4091:4160  IERC20(stabelcoinAddress).transferFrom(tenant, landlord, amountToPay) */\n      mload(0x40)\n      dup5\n      0xffffffff\n      and\n      0xe0\n      shl\n      dup2\n      mstore\n      0x04\n      add\n      tag_501\n      swap4\n      swap3\n      swap2\n      swap1\n      tag_322\n      jump\t// in\n    tag_501:\n      0x20\n      mload(0x40)\n      dup1\n      dup4\n      sub\n      dup2\n      0x00\n      dup8\n      gas\n      call\n      iszero\n      dup1\n      iszero\n      tag_503\n      jumpi\n      returndatasize\n      0x00\n      dup1\n      returndatacopy\n      revert(0x00, returndatasize)\n    tag_503:\n      pop\n      pop\n      pop\n      pop\n      mload(0x40)\n      returndatasize\n      not(0x1f)\n      0x1f\n      dup3\n      add\n      and\n      dup3\n      add\n      dup1\n      0x40\n      mstore\n      pop\n      dup2\n      add\n      swap1\n      tag_504\n      swap2\n      swap1\n      tag_326\n      jump\t// in\n    tag_504:\n        /* \"contracts/RentalAgreement.sol\":4083:4180  require(IERC20(stabelcoinAddress).transferFrom(tenant, landlord, amountToPay), \"Auto pay failed\") */\n      tag_505\n      jumpi\n      mload(0x40)\n      0x08c379a000000000000000000000000000000000000000000000000000000000\n      dup2\n      mstore\n      0x04\n      add\n      tag_506\n      swap1\n      tag_507\n      jump\t// in\n    tag_506:\n      mload(0x40)\n      dup1\n      swap2\n      sub\n      swap1\n      revert\n    tag_505:\n        /* \"contracts/RentalAgreement.sol\":4193:4207  paymentHistory */\n      0x14\n        /* \"contracts/RentalAgreement.sol\":4213:4262  PaymentRecord(block.timestamp, amountToPay, true) */\n      mload(0x40)\n      dup1\n      0x60\n      add\n      0x40\n      mstore\n      dup1\n        /* \"contracts/RentalAgreement.sol\":4227:4242  block.timestamp */\n      timestamp\n        /* \"contracts/RentalAgreement.sol\":4213:4262  PaymentRecord(block.timestamp, amountToPay, true) */\n      dup2\n      mstore\n      0x20\n      add\n        /* \"contracts/RentalAgreement.sol\":4244:4255  amountToPay */\n      dup4\n        /* \"contracts/RentalAgreement.sol\":4213:4262  PaymentRecord(block.timestamp, amountToPay, true) */\n      dup2\n      mstore\n      0x20\n      add\n        /* \"contracts/RentalAgreement.sol\":4257:4261  true */\n      0x01\n        /* \"contracts/RentalAgreement.sol\":4213:4262  PaymentRecord(block.timestamp, amountToPay, true) */\n      iszero\n      iszero\n      dup2\n      mstore\n      pop\n        /* \"contracts/RentalAgreement.sol\":4193:4263  paymentHistory.push(PaymentRecord(block.timestamp, amountToPay, true)) */\n      swap1\n      dup1\n      0x01\n      dup2\n      sload\n      add\n      dup1\n      dup3\n      sstore\n      dup1\n      swap2\n      pop\n      pop\n      0x01\n      swap1\n      sub\n      swap1\n      0x00\n      mstore\n      keccak256(0x00, 0x20)\n      swap1\n      0x03\n      mul\n      add\n      0x00\n      swap1\n      swap2\n      swap1\n      swap2\n      swap1\n      swap2\n      pop\n      0x00\n      dup3\n      add\n      mload\n      dup2\n      0x00\n      add\n      sstore\n      0x20\n      dup3\n      add\n      mload\n      dup2\n      0x01\n      add\n      sstore\n      0x40\n      dup3\n      add\n      mload\n      dup2\n      0x02\n      add\n      exp(0x0100, 0x00)\n      dup2\n      sload\n      dup2\n      0xff\n      mul\n      not\n      and\n      swap1\n      dup4\n      iszero\n      iszero\n      mul\n      or\n      swap1\n      sstore\n      pop\n      pop\n      pop\n        /* \"contracts/RentalAgreement.sol\":4288:4294  tenant */\n      0x01\n      0x00\n      swap1\n      sload\n      swap1\n      0x0100\n      exp\n      swap1\n      div\n      0xffffffffffffffffffffffffffffffffffffffff\n      and\n        /* \"contracts/RentalAgreement.sol\":4279:4314  RentPaid(tenant, amountToPay, true) */\n      0xffffffffffffffffffffffffffffffffffffffff\n      and\n      0xa0e44cc6f4f184bc83e145bf7f0cc703b7f698476124cf6a9d7d403d202e77fd\n        /* \"contracts/RentalAgreement.sol\":4296:4307  amountToPay */\n      dup3\n        /* \"contracts/RentalAgreement.sol\":4309:4313  true */\n      0x01\n        /* \"contracts/RentalAgreement.sol\":4279:4314  RentPaid(tenant, amountToPay, true) */\n      mload(0x40)\n      tag_509\n      swap3\n      swap2\n      swap1\n      tag_347\n      jump\t// in\n    tag_509:\n      mload(0x40)\n      dup1\n      swap2\n      sub\n      swap1\n      log2\n        /* \"contracts/RentalAgreement.sol\":3871:4323  {... */\n      pop\n        /* \"contracts/RentalAgreement.sol\":3819:4323  function processAutoPayment() external onlyLandlord {... */\n      jump\t// out\n        /* \"contracts/RentalAgreement.sol\":540:566  uint public deductedAmount */\n    tag_213:\n      sload(0x09)\n      dup2\n      jump\t// out\n        /* \"contracts/RentalAgreement.sol\":784:815  uint public leaseStartTimestamp */\n    tag_217:\n      sload(0x10)\n      dup2\n      jump\t// out\n        /* \"contracts/RentalAgreement.sol\":11034:11411  function executeTenantTermination() external {... */\n    tag_221:\n        /* \"contracts/RentalAgreement.sol\":11114:11145  RentalStatus.PendingTermination */\n      0x02\n        /* \"contracts/RentalAgreement.sol\":11098:11145  rentalStatus == RentalStatus.PendingTermination */\n      dup1\n      dup2\n      gt\n      iszero\n      tag_511\n      jumpi\n      tag_512\n      tag_236\n      jump\t// in\n    tag_512:\n    tag_511:\n        /* \"contracts/RentalAgreement.sol\":11098:11110  rentalStatus */\n      0x13\n      0x00\n      swap1\n      sload\n      swap1\n      0x0100\n      exp\n      swap1\n      div\n      0xff\n      and\n        /* \"contracts/RentalAgreement.sol\":11098:11145  rentalStatus == RentalStatus.PendingTermination */\n      0x02\n      dup2\n      gt\n      iszero\n      tag_513\n      jumpi\n      tag_514\n      tag_236\n      jump\t// in\n    tag_514:\n    tag_513:\n      eq\n        /* \"contracts/RentalAgreement.sol\":11090:11175  require(rentalStatus == RentalStatus.PendingTermination, \"Termination not scheduled\") */\n      tag_515\n      jumpi\n      mload(0x40)\n      0x08c379a000000000000000000000000000000000000000000000000000000000\n      dup2\n      mstore\n      0x04\n      add\n      tag_516\n      swap1\n      tag_517\n      jump\t// in\n    tag_516:\n      mload(0x40)\n      dup1\n      swap2\n      sub\n      swap1\n      revert\n    tag_515:\n        /* \"contracts/RentalAgreement.sol\":11213:11233  terminationTimeStamp */\n      sload(0x0e)\n        /* \"contracts/RentalAgreement.sol\":11194:11209  block.timestamp */\n      timestamp\n        /* \"contracts/RentalAgreement.sol\":11194:11233  block.timestamp >= terminationTimeStamp */\n      lt\n      iszero\n        /* \"contracts/RentalAgreement.sol\":11186:11268  require(block.timestamp >= terminationTimeStamp, \"Termination period not reached\") */\n      tag_518\n      jumpi\n      mload(0x40)\n      0x08c379a000000000000000000000000000000000000000000000000000000000\n      dup2\n      mstore\n      0x04\n      add\n      tag_519\n      swap1\n      tag_483\n      jump\t// in\n    tag_519:\n      mload(0x40)\n      dup1\n      swap2\n      sub\n      swap1\n      revert\n    tag_518:\n        /* \"contracts/RentalAgreement.sol\":11296:11319  RentalStatus.Terminated */\n      0x01\n        /* \"contracts/RentalAgreement.sol\":11281:11293  rentalStatus */\n      0x13\n      0x00\n        /* \"contracts/RentalAgreement.sol\":11281:11319  rentalStatus = RentalStatus.Terminated */\n      0x0100\n      exp\n      dup2\n      sload\n      dup2\n      0xff\n      mul\n      not\n      and\n      swap1\n      dup4\n      0x02\n      dup2\n      gt\n      iszero\n      tag_520\n      jumpi\n      tag_521\n      tag_236\n      jump\t// in\n    tag_521:\n    tag_520:\n      mul\n      or\n      swap1\n      sstore\n      pop\n        /* \"contracts/RentalAgreement.sol\":11354:11360  tenant */\n      0x01\n      0x00\n      swap1\n      sload\n      swap1\n      0x0100\n      exp\n      swap1\n      div\n      0xffffffffffffffffffffffffffffffffffffffff\n      and\n        /* \"contracts/RentalAgreement.sol\":11335:11402  ContractTerminated(tenant, \"Tenant terminated the lease agreement\") */\n      0xffffffffffffffffffffffffffffffffffffffff\n      and\n      0x7b73f5d770f3eb41fd57f1e6a1c9e2a5ec61febbbd4e608d511c46e3fd611639\n      mload(0x40)\n      tag_522\n      swap1\n      tag_523\n      jump\t// in\n    tag_522:\n      mload(0x40)\n      dup1\n      swap2\n      sub\n      swap1\n      log2\n        /* \"contracts/RentalAgreement.sol\":11034:11411  function executeTenantTermination() external {... */\n      jump\t// out\n        /* \"contracts/RentalAgreement.sol\":250:272  uint public rentAmount */\n    tag_224:\n      sload(0x02)\n      dup2\n      jump\t// out\n        /* \"contracts/RentalAgreement.sol\":9627:9963  function approveContractRenewal() external onlyLandlord {... */\n    tag_228:\n        /* \"contracts/RentalAgreement.sol\":2105:2113  landlord */\n      0x00\n      dup1\n      sload\n      swap1\n      0x0100\n      exp\n      swap1\n      div\n      0xffffffffffffffffffffffffffffffffffffffff\n      and\n        /* \"contracts/RentalAgreement.sol\":2091:2113  msg.sender == landlord */\n      0xffffffffffffffffffffffffffffffffffffffff\n      and\n        /* \"contracts/RentalAgreement.sol\":2091:2101  msg.sender */\n      caller\n        /* \"contracts/RentalAgreement.sol\":2091:2113  msg.sender == landlord */\n      0xffffffffffffffffffffffffffffffffffffffff\n      and\n      eq\n        /* \"contracts/RentalAgreement.sol\":2083:2155  require(msg.sender == landlord, \"Only landlord can perform this action\") */\n      tag_525\n      jumpi\n      mload(0x40)\n      0x08c379a000000000000000000000000000000000000000000000000000000000\n      dup2\n      mstore\n      0x04\n      add\n      tag_526\n      swap1\n      tag_232\n      jump\t// in\n    tag_526:\n      mload(0x40)\n      dup1\n      swap2\n      sub\n      swap1\n      revert\n    tag_525:\n        /* \"contracts/RentalAgreement.sol\":9720:9724  true */\n      0x01\n        /* \"contracts/RentalAgreement.sol\":9702:9724  renewalRequest == true */\n      iszero\n      iszero\n        /* \"contracts/RentalAgreement.sol\":9702:9716  renewalRequest */\n      0x11\n      0x00\n      swap1\n      sload\n      swap1\n      0x0100\n      exp\n      swap1\n      div\n      0xff\n      and\n        /* \"contracts/RentalAgreement.sol\":9702:9724  renewalRequest == true */\n      iszero\n      iszero\n      eq\n        /* \"contracts/RentalAgreement.sol\":9694:9762  require(renewalRequest == true, \"Tennant has not asked for renewal\") */\n      tag_528\n      jumpi\n      mload(0x40)\n      0x08c379a000000000000000000000000000000000000000000000000000000000\n      dup2\n      mstore\n      0x04\n      add\n      tag_529\n      swap1\n      tag_530\n      jump\t// in\n    tag_529:\n      mload(0x40)\n      dup1\n      swap2\n      sub\n      swap1\n      revert\n    tag_528:\n        /* \"contracts/RentalAgreement.sol\":9793:9797  true */\n      0x01\n        /* \"contracts/RentalAgreement.sol\":9775:9790  renewalApproved */\n      0x11\n      0x01\n        /* \"contracts/RentalAgreement.sol\":9775:9797  renewalApproved = true */\n      0x0100\n      exp\n      dup2\n      sload\n      dup2\n      0xff\n      mul\n      not\n      and\n      swap1\n      dup4\n      iszero\n      iszero\n      mul\n      or\n      swap1\n      sstore\n      pop\n        /* \"contracts/RentalAgreement.sol\":9827:9835  365 days */\n      0x01e13380\n        /* \"contracts/RentalAgreement.sol\":9808:9823  contractEndDate */\n      0x0f\n      0x00\n        /* \"contracts/RentalAgreement.sol\":9808:9835  contractEndDate += 365 days */\n      dup3\n      dup3\n      sload\n      tag_531\n      swap2\n      swap1\n      tag_271\n      jump\t// in\n    tag_531:\n      swap3\n      pop\n      pop\n      dup2\n      swap1\n      sstore\n      pop\n        /* \"contracts/RentalAgreement.sol\":9865:9870  false */\n      0x00\n        /* \"contracts/RentalAgreement.sol\":9848:9862  renewalRequest */\n      0x11\n      0x00\n        /* \"contracts/RentalAgreement.sol\":9848:9870  renewalRequest = false */\n      0x0100\n      exp\n      dup2\n      sload\n      dup2\n      0xff\n      mul\n      not\n      and\n      swap1\n      dup4\n      iszero\n      iszero\n      mul\n      or\n      swap1\n      sstore\n      pop\n        /* \"contracts/RentalAgreement.sol\":9899:9904  false */\n      0x00\n        /* \"contracts/RentalAgreement.sol\":9881:9896  renewalApproved */\n      0x11\n      0x01\n        /* \"contracts/RentalAgreement.sol\":9881:9904  renewalApproved = false */\n      0x0100\n      exp\n      dup2\n      sload\n      dup2\n      0xff\n      mul\n      not\n      and\n      swap1\n      dup4\n      iszero\n      iszero\n      mul\n      or\n      swap1\n      sstore\n      pop\n        /* \"contracts/RentalAgreement.sol\":9922:9954  ContractRenewed(contractEndDate) */\n      0x9b92a9893c6f7c060109fbacf7a7ed7384b0d145f68541169a1a201ea42ce854\n        /* \"contracts/RentalAgreement.sol\":9938:9953  contractEndDate */\n      sload(0x0f)\n        /* \"contracts/RentalAgreement.sol\":9922:9954  ContractRenewed(contractEndDate) */\n      mload(0x40)\n      tag_532\n      swap2\n      swap1\n      tag_98\n      jump\t// in\n    tag_532:\n      mload(0x40)\n      dup1\n      swap2\n      sub\n      swap1\n      log1\n        /* \"contracts/RentalAgreement.sol\":9627:9963  function approveContractRenewal() external onlyLandlord {... */\n      jump\t// out\n        /* \"#utility.yul\":7:82   */\n    tag_533:\n        /* \"#utility.yul\":40:46   */\n      0x00\n        /* \"#utility.yul\":73:75   */\n      0x40\n        /* \"#utility.yul\":67:76   */\n      mload\n        /* \"#utility.yul\":57:76   */\n      swap1\n      pop\n        /* \"#utility.yul\":7:82   */\n      swap1\n      jump\t// out\n        /* \"#utility.yul\":88:205   */\n    tag_534:\n        /* \"#utility.yul\":197:198   */\n      0x00\n        /* \"#utility.yul\":194:195   */\n      dup1\n        /* \"#utility.yul\":187:199   */\n      revert\n        /* \"#utility.yul\":211:328   */\n    tag_535:\n        /* \"#utility.yul\":320:321   */\n      0x00\n        /* \"#utility.yul\":317:318   */\n      dup1\n        /* \"#utility.yul\":310:322   */\n      revert\n        /* \"#utility.yul\":334:451   */\n    tag_536:\n        /* \"#utility.yul\":443:444   */\n      0x00\n        /* \"#utility.yul\":440:441   */\n      dup1\n        /* \"#utility.yul\":433:445   */\n      revert\n        /* \"#utility.yul\":457:574   */\n    tag_537:\n        /* \"#utility.yul\":566:567   */\n      0x00\n        /* \"#utility.yul\":563:564   */\n      dup1\n        /* \"#utility.yul\":556:568   */\n      revert\n        /* \"#utility.yul\":580:682   */\n    tag_538:\n        /* \"#utility.yul\":621:627   */\n      0x00\n        /* \"#utility.yul\":672:674   */\n      0x1f\n        /* \"#utility.yul\":668:675   */\n      not\n        /* \"#utility.yul\":663:665   */\n      0x1f\n        /* \"#utility.yul\":656:661   */\n      dup4\n        /* \"#utility.yul\":652:666   */\n      add\n        /* \"#utility.yul\":648:676   */\n      and\n        /* \"#utility.yul\":638:676   */\n      swap1\n      pop\n        /* \"#utility.yul\":580:682   */\n      swap2\n      swap1\n      pop\n      jump\t// out\n        /* \"#utility.yul\":688:868   */\n    tag_539:\n        /* \"#utility.yul\":736:813   */\n      0x4e487b7100000000000000000000000000000000000000000000000000000000\n        /* \"#utility.yul\":733:734   */\n      0x00\n        /* \"#utility.yul\":726:814   */\n      mstore\n        /* \"#utility.yul\":833:837   */\n      0x41\n        /* \"#utility.yul\":830:831   */\n      0x04\n        /* \"#utility.yul\":823:838   */\n      mstore\n        /* \"#utility.yul\":857:861   */\n      0x24\n        /* \"#utility.yul\":854:855   */\n      0x00\n        /* \"#utility.yul\":847:862   */\n      revert\n        /* \"#utility.yul\":874:1155   */\n    tag_540:\n        /* \"#utility.yul\":957:984   */\n      tag_643\n        /* \"#utility.yul\":979:983   */\n      dup3\n        /* \"#utility.yul\":957:984   */\n      tag_538\n      jump\t// in\n    tag_643:\n        /* \"#utility.yul\":949:955   */\n      dup2\n        /* \"#utility.yul\":945:985   */\n      add\n        /* \"#utility.yul\":1087:1093   */\n      dup2\n        /* \"#utility.yul\":1075:1085   */\n      dup2\n        /* \"#utility.yul\":1072:1094   */\n      lt\n        /* \"#utility.yul\":1051:1069   */\n      0xffffffffffffffff\n        /* \"#utility.yul\":1039:1049   */\n      dup3\n        /* \"#utility.yul\":1036:1070   */\n      gt\n        /* \"#utility.yul\":1033:1095   */\n      or\n        /* \"#utility.yul\":1030:1118   */\n      iszero\n      tag_644\n      jumpi\n        /* \"#utility.yul\":1098:1116   */\n      tag_645\n      tag_539\n      jump\t// in\n    tag_645:\n        /* \"#utility.yul\":1030:1118   */\n    tag_644:\n        /* \"#utility.yul\":1138:1148   */\n      dup1\n        /* \"#utility.yul\":1134:1136   */\n      0x40\n        /* \"#utility.yul\":1127:1149   */\n      mstore\n        /* \"#utility.yul\":917:1155   */\n      pop\n        /* \"#utility.yul\":874:1155   */\n      pop\n      pop\n      jump\t// out\n        /* \"#utility.yul\":1161:1290   */\n    tag_541:\n        /* \"#utility.yul\":1195:1201   */\n      0x00\n        /* \"#utility.yul\":1222:1242   */\n      tag_647\n      tag_533\n      jump\t// in\n    tag_647:\n        /* \"#utility.yul\":1212:1242   */\n      swap1\n      pop\n        /* \"#utility.yul\":1251:1284   */\n      tag_648\n        /* \"#utility.yul\":1279:1283   */\n      dup3\n        /* \"#utility.yul\":1271:1277   */\n      dup3\n        /* \"#utility.yul\":1251:1284   */\n      tag_540\n      jump\t// in\n    tag_648:\n        /* \"#utility.yul\":1161:1290   */\n      swap2\n      swap1\n      pop\n      jump\t// out\n        /* \"#utility.yul\":1296:1604   */\n    tag_542:\n        /* \"#utility.yul\":1358:1362   */\n      0x00\n        /* \"#utility.yul\":1448:1466   */\n      0xffffffffffffffff\n        /* \"#utility.yul\":1440:1446   */\n      dup3\n        /* \"#utility.yul\":1437:1467   */\n      gt\n        /* \"#utility.yul\":1434:1490   */\n      iszero\n      tag_650\n      jumpi\n        /* \"#utility.yul\":1470:1488   */\n      tag_651\n      tag_539\n      jump\t// in\n    tag_651:\n        /* \"#utility.yul\":1434:1490   */\n    tag_650:\n        /* \"#utility.yul\":1508:1537   */\n      tag_652\n        /* \"#utility.yul\":1530:1536   */\n      dup3\n        /* \"#utility.yul\":1508:1537   */\n      tag_538\n      jump\t// in\n    tag_652:\n        /* \"#utility.yul\":1500:1537   */\n      swap1\n      pop\n        /* \"#utility.yul\":1592:1596   */\n      0x20\n        /* \"#utility.yul\":1586:1590   */\n      dup2\n        /* \"#utility.yul\":1582:1597   */\n      add\n        /* \"#utility.yul\":1574:1597   */\n      swap1\n      pop\n        /* \"#utility.yul\":1296:1604   */\n      swap2\n      swap1\n      pop\n      jump\t// out\n        /* \"#utility.yul\":1610:1758   */\n    tag_543:\n        /* \"#utility.yul\":1708:1714   */\n      dup3\n        /* \"#utility.yul\":1703:1706   */\n      dup2\n        /* \"#utility.yul\":1698:1701   */\n      dup4\n        /* \"#utility.yul\":1685:1715   */\n      calldatacopy\n        /* \"#utility.yul\":1749:1750   */\n      0x00\n        /* \"#utility.yul\":1740:1746   */\n      dup4\n        /* \"#utility.yul\":1735:1738   */\n      dup4\n        /* \"#utility.yul\":1731:1747   */\n      add\n        /* \"#utility.yul\":1724:1751   */\n      mstore\n        /* \"#utility.yul\":1610:1758   */\n      pop\n      pop\n      pop\n      jump\t// out\n        /* \"#utility.yul\":1764:2189   */\n    tag_544:\n        /* \"#utility.yul\":1842:1847   */\n      0x00\n        /* \"#utility.yul\":1867:1933   */\n      tag_655\n        /* \"#utility.yul\":1883:1932   */\n      tag_656\n        /* \"#utility.yul\":1925:1931   */\n      dup5\n        /* \"#utility.yul\":1883:1932   */\n      tag_542\n      jump\t// in\n    tag_656:\n        /* \"#utility.yul\":1867:1933   */\n      tag_541\n      jump\t// in\n    tag_655:\n        /* \"#utility.yul\":1858:1933   */\n      swap1\n      pop\n        /* \"#utility.yul\":1956:1962   */\n      dup3\n        /* \"#utility.yul\":1949:1954   */\n      dup2\n        /* \"#utility.yul\":1942:1963   */\n      mstore\n        /* \"#utility.yul\":1994:1998   */\n      0x20\n        /* \"#utility.yul\":1987:1992   */\n      dup2\n        /* \"#utility.yul\":1983:1999   */\n      add\n        /* \"#utility.yul\":2032:2035   */\n      dup5\n        /* \"#utility.yul\":2023:2029   */\n      dup5\n        /* \"#utility.yul\":2018:2021   */\n      dup5\n        /* \"#utility.yul\":2014:2030   */\n      add\n        /* \"#utility.yul\":2011:2036   */\n      gt\n        /* \"#utility.yul\":2008:2120   */\n      iszero\n      tag_657\n      jumpi\n        /* \"#utility.yul\":2039:2118   */\n      tag_658\n      tag_537\n      jump\t// in\n    tag_658:\n        /* \"#utility.yul\":2008:2120   */\n    tag_657:\n        /* \"#utility.yul\":2129:2183   */\n      tag_659\n        /* \"#utility.yul\":2176:2182   */\n      dup5\n        /* \"#utility.yul\":2171:2174   */\n      dup3\n        /* \"#utility.yul\":2166:2169   */\n      dup6\n        /* \"#utility.yul\":2129:2183   */\n      tag_543\n      jump\t// in\n    tag_659:\n        /* \"#utility.yul\":1848:2189   */\n      pop\n        /* \"#utility.yul\":1764:2189   */\n      swap4\n      swap3\n      pop\n      pop\n      pop\n      jump\t// out\n        /* \"#utility.yul\":2209:2549   */\n    tag_545:\n        /* \"#utility.yul\":2265:2270   */\n      0x00\n        /* \"#utility.yul\":2314:2317   */\n      dup3\n        /* \"#utility.yul\":2307:2311   */\n      0x1f\n        /* \"#utility.yul\":2299:2305   */\n      dup4\n        /* \"#utility.yul\":2295:2312   */\n      add\n        /* \"#utility.yul\":2291:2318   */\n      slt\n        /* \"#utility.yul\":2281:2403   */\n      tag_661\n      jumpi\n        /* \"#utility.yul\":2322:2401   */\n      tag_662\n      tag_536\n      jump\t// in\n    tag_662:\n        /* \"#utility.yul\":2281:2403   */\n    tag_661:\n        /* \"#utility.yul\":2439:2445   */\n      dup2\n        /* \"#utility.yul\":2426:2446   */\n      calldataload\n        /* \"#utility.yul\":2464:2543   */\n      tag_663\n        /* \"#utility.yul\":2539:2542   */\n      dup5\n        /* \"#utility.yul\":2531:2537   */\n      dup3\n        /* \"#utility.yul\":2524:2528   */\n      0x20\n        /* \"#utility.yul\":2516:2522   */\n      dup7\n        /* \"#utility.yul\":2512:2529   */\n      add\n        /* \"#utility.yul\":2464:2543   */\n      tag_544\n      jump\t// in\n    tag_663:\n        /* \"#utility.yul\":2455:2543   */\n      swap2\n      pop\n        /* \"#utility.yul\":2271:2549   */\n      pop\n        /* \"#utility.yul\":2209:2549   */\n      swap3\n      swap2\n      pop\n      pop\n      jump\t// out\n        /* \"#utility.yul\":2555:3064   */\n    tag_57:\n        /* \"#utility.yul\":2624:2630   */\n      0x00\n        /* \"#utility.yul\":2673:2675   */\n      0x20\n        /* \"#utility.yul\":2661:2670   */\n      dup3\n        /* \"#utility.yul\":2652:2659   */\n      dup5\n        /* \"#utility.yul\":2648:2671   */\n      sub\n        /* \"#utility.yul\":2644:2676   */\n      slt\n        /* \"#utility.yul\":2641:2760   */\n      iszero\n      tag_665\n      jumpi\n        /* \"#utility.yul\":2679:2758   */\n      tag_666\n      tag_534\n      jump\t// in\n    tag_666:\n        /* \"#utility.yul\":2641:2760   */\n    tag_665:\n        /* \"#utility.yul\":2827:2828   */\n      0x00\n        /* \"#utility.yul\":2816:2825   */\n      dup3\n        /* \"#utility.yul\":2812:2829   */\n      add\n        /* \"#utility.yul\":2799:2830   */\n      calldataload\n        /* \"#utility.yul\":2857:2875   */\n      0xffffffffffffffff\n        /* \"#utility.yul\":2849:2855   */\n      dup2\n        /* \"#utility.yul\":2846:2876   */\n      gt\n        /* \"#utility.yul\":2843:2960   */\n      iszero\n      tag_667\n      jumpi\n        /* \"#utility.yul\":2879:2958   */\n      tag_668\n      tag_535\n      jump\t// in\n    tag_668:\n        /* \"#utility.yul\":2843:2960   */\n    tag_667:\n        /* \"#utility.yul\":2984:3047   */\n      tag_669\n        /* \"#utility.yul\":3039:3046   */\n      dup5\n        /* \"#utility.yul\":3030:3036   */\n      dup3\n        /* \"#utility.yul\":3019:3028   */\n      dup6\n        /* \"#utility.yul\":3015:3037   */\n      add\n        /* \"#utility.yul\":2984:3047   */\n      tag_545\n      jump\t// in\n    tag_669:\n        /* \"#utility.yul\":2974:3047   */\n      swap2\n      pop\n        /* \"#utility.yul\":2770:3057   */\n      pop\n        /* \"#utility.yul\":2555:3064   */\n      swap3\n      swap2\n      pop\n      pop\n      jump\t// out\n        /* \"#utility.yul\":3070:3169   */\n    tag_546:\n        /* \"#utility.yul\":3122:3128   */\n      0x00\n        /* \"#utility.yul\":3156:3161   */\n      dup2\n        /* \"#utility.yul\":3150:3162   */\n      mload\n        /* \"#utility.yul\":3140:3162   */\n      swap1\n      pop\n        /* \"#utility.yul\":3070:3169   */\n      swap2\n      swap1\n      pop\n      jump\t// out\n        /* \"#utility.yul\":3175:3344   */\n    tag_547:\n        /* \"#utility.yul\":3259:3270   */\n      0x00\n        /* \"#utility.yul\":3293:3299   */\n      dup3\n        /* \"#utility.yul\":3288:3291   */\n      dup3\n        /* \"#utility.yul\":3281:3300   */\n      mstore\n        /* \"#utility.yul\":3333:3337   */\n      0x20\n        /* \"#utility.yul\":3328:3331   */\n      dup3\n        /* \"#utility.yul\":3324:3338   */\n      add\n        /* \"#utility.yul\":3309:3338   */\n      swap1\n      pop\n        /* \"#utility.yul\":3175:3344   */\n      swap3\n      swap2\n      pop\n      pop\n      jump\t// out\n        /* \"#utility.yul\":3350:3489   */\n    tag_548:\n        /* \"#utility.yul\":3439:3445   */\n      dup3\n        /* \"#utility.yul\":3434:3437   */\n      dup2\n        /* \"#utility.yul\":3429:3432   */\n      dup4\n        /* \"#utility.yul\":3423:3446   */\n      mcopy\n        /* \"#utility.yul\":3480:3481   */\n      0x00\n        /* \"#utility.yul\":3471:3477   */\n      dup4\n        /* \"#utility.yul\":3466:3469   */\n      dup4\n        /* \"#utility.yul\":3462:3478   */\n      add\n        /* \"#utility.yul\":3455:3482   */\n      mstore\n        /* \"#utility.yul\":3350:3489   */\n      pop\n      pop\n      pop\n      jump\t// out\n        /* \"#utility.yul\":3495:3872   */\n    tag_549:\n        /* \"#utility.yul\":3583:3586   */\n      0x00\n        /* \"#utility.yul\":3611:3650   */\n      tag_674\n        /* \"#utility.yul\":3644:3649   */\n      dup3\n        /* \"#utility.yul\":3611:3650   */\n      tag_546\n      jump\t// in\n    tag_674:\n        /* \"#utility.yul\":3666:3737   */\n      tag_675\n        /* \"#utility.yul\":3730:3736   */\n      dup2\n        /* \"#utility.yul\":3725:3728   */\n      dup6\n        /* \"#utility.yul\":3666:3737   */\n      tag_547\n      jump\t// in\n    tag_675:\n        /* \"#utility.yul\":3659:3737   */\n      swap4\n      pop\n        /* \"#utility.yul\":3746:3811   */\n      tag_676\n        /* \"#utility.yul\":3804:3810   */\n      dup2\n        /* \"#utility.yul\":3799:3802   */\n      dup6\n        /* \"#utility.yul\":3792:3796   */\n      0x20\n        /* \"#utility.yul\":3785:3790   */\n      dup7\n        /* \"#utility.yul\":3781:3797   */\n      add\n        /* \"#utility.yul\":3746:3811   */\n      tag_548\n      jump\t// in\n    tag_676:\n        /* \"#utility.yul\":3836:3865   */\n      tag_677\n        /* \"#utility.yul\":3858:3864   */\n      dup2\n        /* \"#utility.yul\":3836:3865   */\n      tag_538\n      jump\t// in\n    tag_677:\n        /* \"#utility.yul\":3831:3834   */\n      dup5\n        /* \"#utility.yul\":3827:3866   */\n      add\n        /* \"#utility.yul\":3820:3866   */\n      swap2\n      pop\n        /* \"#utility.yul\":3587:3872   */\n      pop\n        /* \"#utility.yul\":3495:3872   */\n      swap3\n      swap2\n      pop\n      pop\n      jump\t// out\n        /* \"#utility.yul\":3878:4191   */\n    tag_66:\n        /* \"#utility.yul\":3991:3995   */\n      0x00\n        /* \"#utility.yul\":4029:4031   */\n      0x20\n        /* \"#utility.yul\":4018:4027   */\n      dup3\n        /* \"#utility.yul\":4014:4032   */\n      add\n        /* \"#utility.yul\":4006:4032   */\n      swap1\n      pop\n        /* \"#utility.yul\":4078:4087   */\n      dup2\n        /* \"#utility.yul\":4072:4076   */\n      dup2\n        /* \"#utility.yul\":4068:4088   */\n      sub\n        /* \"#utility.yul\":4064:4065   */\n      0x00\n        /* \"#utility.yul\":4053:4062   */\n      dup4\n        /* \"#utility.yul\":4049:4066   */\n      add\n        /* \"#utility.yul\":4042:4089   */\n      mstore\n        /* \"#utility.yul\":4106:4184   */\n      tag_679\n        /* \"#utility.yul\":4179:4183   */\n      dup2\n        /* \"#utility.yul\":4170:4176   */\n      dup5\n        /* \"#utility.yul\":4106:4184   */\n      tag_549\n      jump\t// in\n    tag_679:\n        /* \"#utility.yul\":4098:4184   */\n      swap1\n      pop\n        /* \"#utility.yul\":3878:4191   */\n      swap3\n      swap2\n      pop\n      pop\n      jump\t// out\n        /* \"#utility.yul\":4197:4287   */\n    tag_550:\n        /* \"#utility.yul\":4231:4238   */\n      0x00\n        /* \"#utility.yul\":4274:4279   */\n      dup2\n        /* \"#utility.yul\":4267:4280   */\n      iszero\n        /* \"#utility.yul\":4260:4281   */\n      iszero\n        /* \"#utility.yul\":4249:4281   */\n      swap1\n      pop\n        /* \"#utility.yul\":4197:4287   */\n      swap2\n      swap1\n      pop\n      jump\t// out\n        /* \"#utility.yul\":4293:4402   */\n    tag_551:\n        /* \"#utility.yul\":4374:4395   */\n      tag_682\n        /* \"#utility.yul\":4389:4394   */\n      dup2\n        /* \"#utility.yul\":4374:4395   */\n      tag_550\n      jump\t// in\n    tag_682:\n        /* \"#utility.yul\":4369:4372   */\n      dup3\n        /* \"#utility.yul\":4362:4396   */\n      mstore\n        /* \"#utility.yul\":4293:4402   */\n      pop\n      pop\n      jump\t// out\n        /* \"#utility.yul\":4408:4618   */\n    tag_71:\n        /* \"#utility.yul\":4495:4499   */\n      0x00\n        /* \"#utility.yul\":4533:4535   */\n      0x20\n        /* \"#utility.yul\":4522:4531   */\n      dup3\n        /* \"#utility.yul\":4518:4536   */\n      add\n        /* \"#utility.yul\":4510:4536   */\n      swap1\n      pop\n        /* \"#utility.yul\":4546:4611   */\n      tag_684\n        /* \"#utility.yul\":4608:4609   */\n      0x00\n        /* \"#utility.yul\":4597:4606   */\n      dup4\n        /* \"#utility.yul\":4593:4610   */\n      add\n        /* \"#utility.yul\":4584:4590   */\n      dup5\n        /* \"#utility.yul\":4546:4611   */\n      tag_551\n      jump\t// in\n    tag_684:\n        /* \"#utility.yul\":4408:4618   */\n      swap3\n      swap2\n      pop\n      pop\n      jump\t// out\n        /* \"#utility.yul\":4624:4750   */\n    tag_552:\n        /* \"#utility.yul\":4661:4668   */\n      0x00\n        /* \"#utility.yul\":4701:4743   */\n      0xffffffffffffffffffffffffffffffffffffffff\n        /* \"#utility.yul\":4694:4699   */\n      dup3\n        /* \"#utility.yul\":4690:4744   */\n      and\n        /* \"#utility.yul\":4679:4744   */\n      swap1\n      pop\n        /* \"#utility.yul\":4624:4750   */\n      swap2\n      swap1\n      pop\n      jump\t// out\n        /* \"#utility.yul\":4756:4852   */\n    tag_553:\n        /* \"#utility.yul\":4793:4800   */\n      0x00\n        /* \"#utility.yul\":4822:4846   */\n      tag_687\n        /* \"#utility.yul\":4840:4845   */\n      dup3\n        /* \"#utility.yul\":4822:4846   */\n      tag_552\n      jump\t// in\n    tag_687:\n        /* \"#utility.yul\":4811:4846   */\n      swap1\n      pop\n        /* \"#utility.yul\":4756:4852   */\n      swap2\n      swap1\n      pop\n      jump\t// out\n        /* \"#utility.yul\":4858:4980   */\n    tag_554:\n        /* \"#utility.yul\":4931:4955   */\n      tag_689\n        /* \"#utility.yul\":4949:4954   */\n      dup2\n        /* \"#utility.yul\":4931:4955   */\n      tag_553\n      jump\t// in\n    tag_689:\n        /* \"#utility.yul\":4924:4929   */\n      dup2\n        /* \"#utility.yul\":4921:4956   */\n      eq\n        /* \"#utility.yul\":4911:4974   */\n      tag_690\n      jumpi\n        /* \"#utility.yul\":4970:4971   */\n      0x00\n        /* \"#utility.yul\":4967:4968   */\n      dup1\n        /* \"#utility.yul\":4960:4972   */\n      revert\n        /* \"#utility.yul\":4911:4974   */\n    tag_690:\n        /* \"#utility.yul\":4858:4980   */\n      pop\n      jump\t// out\n        /* \"#utility.yul\":4986:5125   */\n    tag_555:\n        /* \"#utility.yul\":5032:5037   */\n      0x00\n        /* \"#utility.yul\":5070:5076   */\n      dup2\n        /* \"#utility.yul\":5057:5077   */\n      calldataload\n        /* \"#utility.yul\":5048:5077   */\n      swap1\n      pop\n        /* \"#utility.yul\":5086:5119   */\n      tag_692\n        /* \"#utility.yul\":5113:5118   */\n      dup2\n        /* \"#utility.yul\":5086:5119   */\n      tag_554\n      jump\t// in\n    tag_692:\n        /* \"#utility.yul\":4986:5125   */\n      swap3\n      swap2\n      pop\n      pop\n      jump\t// out\n        /* \"#utility.yul\":5131:5460   */\n    tag_75:\n        /* \"#utility.yul\":5190:5196   */\n      0x00\n        /* \"#utility.yul\":5239:5241   */\n      0x20\n        /* \"#utility.yul\":5227:5236   */\n      dup3\n        /* \"#utility.yul\":5218:5225   */\n      dup5\n        /* \"#utility.yul\":5214:5237   */\n      sub\n        /* \"#utility.yul\":5210:5242   */\n      slt\n        /* \"#utility.yul\":5207:5326   */\n      iszero\n      tag_694\n      jumpi\n        /* \"#utility.yul\":5245:5324   */\n      tag_695\n      tag_534\n      jump\t// in\n    tag_695:\n        /* \"#utility.yul\":5207:5326   */\n    tag_694:\n        /* \"#utility.yul\":5365:5366   */\n      0x00\n        /* \"#utility.yul\":5390:5443   */\n      tag_696\n        /* \"#utility.yul\":5435:5442   */\n      dup5\n        /* \"#utility.yul\":5426:5432   */\n      dup3\n        /* \"#utility.yul\":5415:5424   */\n      dup6\n        /* \"#utility.yul\":5411:5433   */\n      add\n        /* \"#utility.yul\":5390:5443   */\n      tag_555\n      jump\t// in\n    tag_696:\n        /* \"#utility.yul\":5380:5443   */\n      swap2\n      pop\n        /* \"#utility.yul\":5336:5453   */\n      pop\n        /* \"#utility.yul\":5131:5460   */\n      swap3\n      swap2\n      pop\n      pop\n      jump\t// out\n        /* \"#utility.yul\":5466:5646   */\n    tag_236:\n        /* \"#utility.yul\":5514:5591   */\n      0x4e487b7100000000000000000000000000000000000000000000000000000000\n        /* \"#utility.yul\":5511:5512   */\n      0x00\n        /* \"#utility.yul\":5504:5592   */\n      mstore\n        /* \"#utility.yul\":5611:5615   */\n      0x21\n        /* \"#utility.yul\":5608:5609   */\n      0x04\n        /* \"#utility.yul\":5601:5616   */\n      mstore\n        /* \"#utility.yul\":5635:5639   */\n      0x24\n        /* \"#utility.yul\":5632:5633   */\n      0x00\n        /* \"#utility.yul\":5625:5640   */\n      revert\n        /* \"#utility.yul\":5652:5773   */\n    tag_556:\n        /* \"#utility.yul\":5741:5742   */\n      0x03\n        /* \"#utility.yul\":5734:5739   */\n      dup2\n        /* \"#utility.yul\":5731:5743   */\n      lt\n        /* \"#utility.yul\":5721:5767   */\n      tag_699\n      jumpi\n        /* \"#utility.yul\":5747:5765   */\n      tag_700\n      tag_236\n      jump\t// in\n    tag_700:\n        /* \"#utility.yul\":5721:5767   */\n    tag_699:\n        /* \"#utility.yul\":5652:5773   */\n      pop\n      jump\t// out\n        /* \"#utility.yul\":5779:5922   */\n    tag_557:\n        /* \"#utility.yul\":5832:5839   */\n      0x00\n        /* \"#utility.yul\":5861:5866   */\n      dup2\n        /* \"#utility.yul\":5850:5866   */\n      swap1\n      pop\n        /* \"#utility.yul\":5867:5916   */\n      tag_702\n        /* \"#utility.yul\":5910:5915   */\n      dup3\n        /* \"#utility.yul\":5867:5916   */\n      tag_556\n      jump\t// in\n    tag_702:\n        /* \"#utility.yul\":5779:5922   */\n      swap2\n      swap1\n      pop\n      jump\t// out\n        /* \"#utility.yul\":5928:6071   */\n    tag_558:\n        /* \"#utility.yul\":5992:6001   */\n      0x00\n        /* \"#utility.yul\":6025:6065   */\n      tag_704\n        /* \"#utility.yul\":6059:6064   */\n      dup3\n        /* \"#utility.yul\":6025:6065   */\n      tag_557\n      jump\t// in\n    tag_704:\n        /* \"#utility.yul\":6012:6065   */\n      swap1\n      pop\n        /* \"#utility.yul\":5928:6071   */\n      swap2\n      swap1\n      pop\n      jump\t// out\n        /* \"#utility.yul\":6077:6236   */\n    tag_559:\n        /* \"#utility.yul\":6178:6229   */\n      tag_706\n        /* \"#utility.yul\":6223:6228   */\n      dup2\n        /* \"#utility.yul\":6178:6229   */\n      tag_558\n      jump\t// in\n    tag_706:\n        /* \"#utility.yul\":6173:6176   */\n      dup3\n        /* \"#utility.yul\":6166:6230   */\n      mstore\n        /* \"#utility.yul\":6077:6236   */\n      pop\n      pop\n      jump\t// out\n        /* \"#utility.yul\":6242:6492   */\n    tag_89:\n        /* \"#utility.yul\":6349:6353   */\n      0x00\n        /* \"#utility.yul\":6387:6389   */\n      0x20\n        /* \"#utility.yul\":6376:6385   */\n      dup3\n        /* \"#utility.yul\":6372:6390   */\n      add\n        /* \"#utility.yul\":6364:6390   */\n      swap1\n      pop\n        /* \"#utility.yul\":6400:6485   */\n      tag_708\n        /* \"#utility.yul\":6482:6483   */\n      0x00\n        /* \"#utility.yul\":6471:6480   */\n      dup4\n        /* \"#utility.yul\":6467:6484   */\n      add\n        /* \"#utility.yul\":6458:6464   */\n      dup5\n        /* \"#utility.yul\":6400:6485   */\n      tag_559\n      jump\t// in\n    tag_708:\n        /* \"#utility.yul\":6242:6492   */\n      swap3\n      swap2\n      pop\n      pop\n      jump\t// out\n        /* \"#utility.yul\":6498:6575   */\n    tag_560:\n        /* \"#utility.yul\":6535:6542   */\n      0x00\n        /* \"#utility.yul\":6564:6569   */\n      dup2\n        /* \"#utility.yul\":6553:6569   */\n      swap1\n      pop\n        /* \"#utility.yul\":6498:6575   */\n      swap2\n      swap1\n      pop\n      jump\t// out\n        /* \"#utility.yul\":6581:6699   */\n    tag_561:\n        /* \"#utility.yul\":6668:6692   */\n      tag_711\n        /* \"#utility.yul\":6686:6691   */\n      dup2\n        /* \"#utility.yul\":6668:6692   */\n      tag_560\n      jump\t// in\n    tag_711:\n        /* \"#utility.yul\":6663:6666   */\n      dup3\n        /* \"#utility.yul\":6656:6693   */\n      mstore\n        /* \"#utility.yul\":6581:6699   */\n      pop\n      pop\n      jump\t// out\n        /* \"#utility.yul\":6705:6927   */\n    tag_98:\n        /* \"#utility.yul\":6798:6802   */\n      0x00\n        /* \"#utility.yul\":6836:6838   */\n      0x20\n        /* \"#utility.yul\":6825:6834   */\n      dup3\n        /* \"#utility.yul\":6821:6839   */\n      add\n        /* \"#utility.yul\":6813:6839   */\n      swap1\n      pop\n        /* \"#utility.yul\":6849:6920   */\n      tag_713\n        /* \"#utility.yul\":6917:6918   */\n      0x00\n        /* \"#utility.yul\":6906:6915   */\n      dup4\n        /* \"#utility.yul\":6902:6919   */\n      add\n        /* \"#utility.yul\":6893:6899   */\n      dup5\n        /* \"#utility.yul\":6849:6920   */\n      tag_561\n      jump\t// in\n    tag_713:\n        /* \"#utility.yul\":6705:6927   */\n      swap3\n      swap2\n      pop\n      pop\n      jump\t// out\n        /* \"#utility.yul\":6933:7055   */\n    tag_562:\n        /* \"#utility.yul\":7006:7030   */\n      tag_715\n        /* \"#utility.yul\":7024:7029   */\n      dup2\n        /* \"#utility.yul\":7006:7030   */\n      tag_560\n      jump\t// in\n    tag_715:\n        /* \"#utility.yul\":6999:7004   */\n      dup2\n        /* \"#utility.yul\":6996:7031   */\n      eq\n        /* \"#utility.yul\":6986:7049   */\n      tag_716\n      jumpi\n        /* \"#utility.yul\":7045:7046   */\n      0x00\n        /* \"#utility.yul\":7042:7043   */\n      dup1\n        /* \"#utility.yul\":7035:7047   */\n      revert\n        /* \"#utility.yul\":6986:7049   */\n    tag_716:\n        /* \"#utility.yul\":6933:7055   */\n      pop\n      jump\t// out\n        /* \"#utility.yul\":7061:7200   */\n    tag_563:\n        /* \"#utility.yul\":7107:7112   */\n      0x00\n        /* \"#utility.yul\":7145:7151   */\n      dup2\n        /* \"#utility.yul\":7132:7152   */\n      calldataload\n        /* \"#utility.yul\":7123:7152   */\n      swap1\n      pop\n        /* \"#utility.yul\":7161:7194   */\n      tag_718\n        /* \"#utility.yul\":7188:7193   */\n      dup2\n        /* \"#utility.yul\":7161:7194   */\n      tag_562\n      jump\t// in\n    tag_718:\n        /* \"#utility.yul\":7061:7200   */\n      swap3\n      swap2\n      pop\n      pop\n      jump\t// out\n        /* \"#utility.yul\":7206:7860   */\n    tag_156:\n        /* \"#utility.yul\":7284:7290   */\n      0x00\n        /* \"#utility.yul\":7292:7298   */\n      dup1\n        /* \"#utility.yul\":7341:7343   */\n      0x40\n        /* \"#utility.yul\":7329:7338   */\n      dup4\n        /* \"#utility.yul\":7320:7327   */\n      dup6\n        /* \"#utility.yul\":7316:7339   */\n      sub\n        /* \"#utility.yul\":7312:7344   */\n      slt\n        /* \"#utility.yul\":7309:7428   */\n      iszero\n      tag_720\n      jumpi\n        /* \"#utility.yul\":7347:7426   */\n      tag_721\n      tag_534\n      jump\t// in\n    tag_721:\n        /* \"#utility.yul\":7309:7428   */\n    tag_720:\n        /* \"#utility.yul\":7467:7468   */\n      0x00\n        /* \"#utility.yul\":7492:7545   */\n      tag_722\n        /* \"#utility.yul\":7537:7544   */\n      dup6\n        /* \"#utility.yul\":7528:7534   */\n      dup3\n        /* \"#utility.yul\":7517:7526   */\n      dup7\n        /* \"#utility.yul\":7513:7535   */\n      add\n        /* \"#utility.yul\":7492:7545   */\n      tag_563\n      jump\t// in\n    tag_722:\n        /* \"#utility.yul\":7482:7545   */\n      swap3\n      pop\n        /* \"#utility.yul\":7438:7555   */\n      pop\n        /* \"#utility.yul\":7622:7624   */\n      0x20\n        /* \"#utility.yul\":7611:7620   */\n      dup4\n        /* \"#utility.yul\":7607:7625   */\n      add\n        /* \"#utility.yul\":7594:7626   */\n      calldataload\n        /* \"#utility.yul\":7653:7671   */\n      0xffffffffffffffff\n        /* \"#utility.yul\":7645:7651   */\n      dup2\n        /* \"#utility.yul\":7642:7672   */\n      gt\n        /* \"#utility.yul\":7639:7756   */\n      iszero\n      tag_723\n      jumpi\n        /* \"#utility.yul\":7675:7754   */\n      tag_724\n      tag_535\n      jump\t// in\n    tag_724:\n        /* \"#utility.yul\":7639:7756   */\n    tag_723:\n        /* \"#utility.yul\":7780:7843   */\n      tag_725\n        /* \"#utility.yul\":7835:7842   */\n      dup6\n        /* \"#utility.yul\":7826:7832   */\n      dup3\n        /* \"#utility.yul\":7815:7824   */\n      dup7\n        /* \"#utility.yul\":7811:7833   */\n      add\n        /* \"#utility.yul\":7780:7843   */\n      tag_545\n      jump\t// in\n    tag_725:\n        /* \"#utility.yul\":7770:7843   */\n      swap2\n      pop\n        /* \"#utility.yul\":7565:7853   */\n      pop\n        /* \"#utility.yul\":7206:7860   */\n      swap3\n      pop\n      swap3\n      swap1\n      pop\n      jump\t// out\n        /* \"#utility.yul\":7866:8195   */\n    tag_164:\n        /* \"#utility.yul\":7925:7931   */\n      0x00\n        /* \"#utility.yul\":7974:7976   */\n      0x20\n        /* \"#utility.yul\":7962:7971   */\n      dup3\n        /* \"#utility.yul\":7953:7960   */\n      dup5\n        /* \"#utility.yul\":7949:7972   */\n      sub\n        /* \"#utility.yul\":7945:7977   */\n      slt\n        /* \"#utility.yul\":7942:8061   */\n      iszero\n      tag_727\n      jumpi\n        /* \"#utility.yul\":7980:8059   */\n      tag_728\n      tag_534\n      jump\t// in\n    tag_728:\n        /* \"#utility.yul\":7942:8061   */\n    tag_727:\n        /* \"#utility.yul\":8100:8101   */\n      0x00\n        /* \"#utility.yul\":8125:8178   */\n      tag_729\n        /* \"#utility.yul\":8170:8177   */\n      dup5\n        /* \"#utility.yul\":8161:8167   */\n      dup3\n        /* \"#utility.yul\":8150:8159   */\n      dup6\n        /* \"#utility.yul\":8146:8168   */\n      add\n        /* \"#utility.yul\":8125:8178   */\n      tag_563\n      jump\t// in\n    tag_729:\n        /* \"#utility.yul\":8115:8178   */\n      swap2\n      pop\n        /* \"#utility.yul\":8071:8188   */\n      pop\n        /* \"#utility.yul\":7866:8195   */\n      swap3\n      swap2\n      pop\n      pop\n      jump\t// out\n        /* \"#utility.yul\":8201:8631   */\n    tag_167:\n        /* \"#utility.yul\":8344:8348   */\n      0x00\n        /* \"#utility.yul\":8382:8384   */\n      0x60\n        /* \"#utility.yul\":8371:8380   */\n      dup3\n        /* \"#utility.yul\":8367:8385   */\n      add\n        /* \"#utility.yul\":8359:8385   */\n      swap1\n      pop\n        /* \"#utility.yul\":8395:8466   */\n      tag_731\n        /* \"#utility.yul\":8463:8464   */\n      0x00\n        /* \"#utility.yul\":8452:8461   */\n      dup4\n        /* \"#utility.yul\":8448:8465   */\n      add\n        /* \"#utility.yul\":8439:8445   */\n      dup7\n        /* \"#utility.yul\":8395:8466   */\n      tag_561\n      jump\t// in\n    tag_731:\n        /* \"#utility.yul\":8476:8548   */\n      tag_732\n        /* \"#utility.yul\":8544:8546   */\n      0x20\n        /* \"#utility.yul\":8533:8542   */\n      dup4\n        /* \"#utility.yul\":8529:8547   */\n      add\n        /* \"#utility.yul\":8520:8526   */\n      dup6\n        /* \"#utility.yul\":8476:8548   */\n      tag_561\n      jump\t// in\n    tag_732:\n        /* \"#utility.yul\":8558:8624   */\n      tag_733\n        /* \"#utility.yul\":8620:8622   */\n      0x40\n        /* \"#utility.yul\":8609:8618   */\n      dup4\n        /* \"#utility.yul\":8605:8623   */\n      add\n        /* \"#utility.yul\":8596:8602   */\n      dup5\n        /* \"#utility.yul\":8558:8624   */\n      tag_551\n      jump\t// in\n    tag_733:\n        /* \"#utility.yul\":8201:8631   */\n      swap5\n      swap4\n      pop\n      pop\n      pop\n      pop\n      jump\t// out\n        /* \"#utility.yul\":8637:8755   */\n    tag_564:\n        /* \"#utility.yul\":8724:8748   */\n      tag_735\n        /* \"#utility.yul\":8742:8747   */\n      dup2\n        /* \"#utility.yul\":8724:8748   */\n      tag_553\n      jump\t// in\n    tag_735:\n        /* \"#utility.yul\":8719:8722   */\n      dup3\n        /* \"#utility.yul\":8712:8749   */\n      mstore\n        /* \"#utility.yul\":8637:8755   */\n      pop\n      pop\n      jump\t// out\n        /* \"#utility.yul\":8761:8983   */\n    tag_177:\n        /* \"#utility.yul\":8854:8858   */\n      0x00\n        /* \"#utility.yul\":8892:8894   */\n      0x20\n        /* \"#utility.yul\":8881:8890   */\n      dup3\n        /* \"#utility.yul\":8877:8895   */\n      add\n        /* \"#utility.yul\":8869:8895   */\n      swap1\n      pop\n        /* \"#utility.yul\":8905:8976   */\n      tag_737\n        /* \"#utility.yul\":8973:8974   */\n      0x00\n        /* \"#utility.yul\":8962:8971   */\n      dup4\n        /* \"#utility.yul\":8958:8975   */\n      add\n        /* \"#utility.yul\":8949:8955   */\n      dup5\n        /* \"#utility.yul\":8905:8976   */\n      tag_564\n      jump\t// in\n    tag_737:\n        /* \"#utility.yul\":8761:8983   */\n      swap3\n      swap2\n      pop\n      pop\n      jump\t// out\n        /* \"#utility.yul\":8989:9133   */\n    tag_565:\n        /* \"#utility.yul\":9086:9092   */\n      0x00\n        /* \"#utility.yul\":9120:9125   */\n      dup2\n        /* \"#utility.yul\":9114:9126   */\n      mload\n        /* \"#utility.yul\":9104:9126   */\n      swap1\n      pop\n        /* \"#utility.yul\":8989:9133   */\n      swap2\n      swap1\n      pop\n      jump\t// out\n        /* \"#utility.yul\":9139:9353   */\n    tag_566:\n        /* \"#utility.yul\":9268:9279   */\n      0x00\n        /* \"#utility.yul\":9302:9308   */\n      dup3\n        /* \"#utility.yul\":9297:9300   */\n      dup3\n        /* \"#utility.yul\":9290:9309   */\n      mstore\n        /* \"#utility.yul\":9342:9346   */\n      0x20\n        /* \"#utility.yul\":9337:9340   */\n      dup3\n        /* \"#utility.yul\":9333:9347   */\n      add\n        /* \"#utility.yul\":9318:9347   */\n      swap1\n      pop\n        /* \"#utility.yul\":9139:9353   */\n      swap3\n      swap2\n      pop\n      pop\n      jump\t// out\n        /* \"#utility.yul\":9359:9521   */\n    tag_567:\n        /* \"#utility.yul\":9456:9460   */\n      0x00\n        /* \"#utility.yul\":9479:9482   */\n      dup2\n        /* \"#utility.yul\":9471:9482   */\n      swap1\n      pop\n        /* \"#utility.yul\":9509:9513   */\n      0x20\n        /* \"#utility.yul\":9504:9507   */\n      dup3\n        /* \"#utility.yul\":9500:9514   */\n      add\n        /* \"#utility.yul\":9492:9514   */\n      swap1\n      pop\n        /* \"#utility.yul\":9359:9521   */\n      swap2\n      swap1\n      pop\n      jump\t// out\n        /* \"#utility.yul\":9527:9635   */\n    tag_568:\n        /* \"#utility.yul\":9604:9628   */\n      tag_742\n        /* \"#utility.yul\":9622:9627   */\n      dup2\n        /* \"#utility.yul\":9604:9628   */\n      tag_560\n      jump\t// in\n    tag_742:\n        /* \"#utility.yul\":9599:9602   */\n      dup3\n        /* \"#utility.yul\":9592:9629   */\n      mstore\n        /* \"#utility.yul\":9527:9635   */\n      pop\n      pop\n      jump\t// out\n        /* \"#utility.yul\":9641:9740   */\n    tag_569:\n        /* \"#utility.yul\":9712:9733   */\n      tag_744\n        /* \"#utility.yul\":9727:9732   */\n      dup2\n        /* \"#utility.yul\":9712:9733   */\n      tag_550\n      jump\t// in\n    tag_744:\n        /* \"#utility.yul\":9707:9710   */\n      dup3\n        /* \"#utility.yul\":9700:9734   */\n      mstore\n        /* \"#utility.yul\":9641:9740   */\n      pop\n      pop\n      jump\t// out\n        /* \"#utility.yul\":9830:10518   */\n    tag_570:\n        /* \"#utility.yul\":9977:9981   */\n      0x60\n        /* \"#utility.yul\":9972:9975   */\n      dup3\n        /* \"#utility.yul\":9968:9982   */\n      add\n        /* \"#utility.yul\":10069:10073   */\n      0x00\n        /* \"#utility.yul\":10062:10067   */\n      dup3\n        /* \"#utility.yul\":10058:10074   */\n      add\n        /* \"#utility.yul\":10052:10075   */\n      mload\n        /* \"#utility.yul\":10088:10151   */\n      tag_746\n        /* \"#utility.yul\":10145:10149   */\n      0x00\n        /* \"#utility.yul\":10140:10143   */\n      dup6\n        /* \"#utility.yul\":10136:10150   */\n      add\n        /* \"#utility.yul\":10122:10134   */\n      dup3\n        /* \"#utility.yul\":10088:10151   */\n      tag_568\n      jump\t// in\n    tag_746:\n        /* \"#utility.yul\":9992:10161   */\n      pop\n        /* \"#utility.yul\":10245:10249   */\n      0x20\n        /* \"#utility.yul\":10238:10243   */\n      dup3\n        /* \"#utility.yul\":10234:10250   */\n      add\n        /* \"#utility.yul\":10228:10251   */\n      mload\n        /* \"#utility.yul\":10264:10327   */\n      tag_747\n        /* \"#utility.yul\":10321:10325   */\n      0x20\n        /* \"#utility.yul\":10316:10319   */\n      dup6\n        /* \"#utility.yul\":10312:10326   */\n      add\n        /* \"#utility.yul\":10298:10310   */\n      dup3\n        /* \"#utility.yul\":10264:10327   */\n      tag_568\n      jump\t// in\n    tag_747:\n        /* \"#utility.yul\":10171:10337   */\n      pop\n        /* \"#utility.yul\":10425:10429   */\n      0x40\n        /* \"#utility.yul\":10418:10423   */\n      dup3\n        /* \"#utility.yul\":10414:10430   */\n      add\n        /* \"#utility.yul\":10408:10431   */\n      mload\n        /* \"#utility.yul\":10444:10501   */\n      tag_748\n        /* \"#utility.yul\":10495:10499   */\n      0x40\n        /* \"#utility.yul\":10490:10493   */\n      dup6\n        /* \"#utility.yul\":10486:10500   */\n      add\n        /* \"#utility.yul\":10472:10484   */\n      dup3\n        /* \"#utility.yul\":10444:10501   */\n      tag_569\n      jump\t// in\n    tag_748:\n        /* \"#utility.yul\":10347:10511   */\n      pop\n        /* \"#utility.yul\":9946:10518   */\n      pop\n        /* \"#utility.yul\":9830:10518   */\n      pop\n      pop\n      jump\t// out\n        /* \"#utility.yul\":10524:10823   */\n    tag_571:\n        /* \"#utility.yul\":10653:10663   */\n      0x00\n        /* \"#utility.yul\":10674:10780   */\n      tag_750\n        /* \"#utility.yul\":10776:10779   */\n      dup4\n        /* \"#utility.yul\":10768:10774   */\n      dup4\n        /* \"#utility.yul\":10674:10780   */\n      tag_570\n      jump\t// in\n    tag_750:\n        /* \"#utility.yul\":10812:10816   */\n      0x60\n        /* \"#utility.yul\":10807:10810   */\n      dup4\n        /* \"#utility.yul\":10803:10817   */\n      add\n        /* \"#utility.yul\":10789:10817   */\n      swap1\n      pop\n        /* \"#utility.yul\":10524:10823   */\n      swap3\n      swap2\n      pop\n      pop\n      jump\t// out\n        /* \"#utility.yul\":10829:10972   */\n    tag_572:\n        /* \"#utility.yul\":10929:10933   */\n      0x00\n        /* \"#utility.yul\":10961:10965   */\n      0x20\n        /* \"#utility.yul\":10956:10959   */\n      dup3\n        /* \"#utility.yul\":10952:10966   */\n      add\n        /* \"#utility.yul\":10944:10966   */\n      swap1\n      pop\n        /* \"#utility.yul\":10829:10972   */\n      swap2\n      swap1\n      pop\n      jump\t// out\n        /* \"#utility.yul\":11066:12038   */\n    tag_573:\n        /* \"#utility.yul\":11245:11248   */\n      0x00\n        /* \"#utility.yul\":11274:11358   */\n      tag_753\n        /* \"#utility.yul\":11352:11357   */\n      dup3\n        /* \"#utility.yul\":11274:11358   */\n      tag_565\n      jump\t// in\n    tag_753:\n        /* \"#utility.yul\":11374:11490   */\n      tag_754\n        /* \"#utility.yul\":11483:11489   */\n      dup2\n        /* \"#utility.yul\":11478:11481   */\n      dup6\n        /* \"#utility.yul\":11374:11490   */\n      tag_566\n      jump\t// in\n    tag_754:\n        /* \"#utility.yul\":11367:11490   */\n      swap4\n      pop\n        /* \"#utility.yul\":11514:11600   */\n      tag_755\n        /* \"#utility.yul\":11594:11599   */\n      dup4\n        /* \"#utility.yul\":11514:11600   */\n      tag_567\n      jump\t// in\n    tag_755:\n        /* \"#utility.yul\":11623:11630   */\n      dup1\n        /* \"#utility.yul\":11654:11655   */\n      0x00\n        /* \"#utility.yul\":11639:12013   */\n    tag_756:\n        /* \"#utility.yul\":11664:11670   */\n      dup4\n        /* \"#utility.yul\":11661:11662   */\n      dup2\n        /* \"#utility.yul\":11658:11671   */\n      lt\n        /* \"#utility.yul\":11639:12013   */\n      iszero\n      tag_758\n      jumpi\n        /* \"#utility.yul\":11740:11746   */\n      dup2\n        /* \"#utility.yul\":11734:11747   */\n      mload\n        /* \"#utility.yul\":11767:11890   */\n      tag_759\n        /* \"#utility.yul\":11886:11889   */\n      dup9\n        /* \"#utility.yul\":11871:11884   */\n      dup3\n        /* \"#utility.yul\":11767:11890   */\n      tag_571\n      jump\t// in\n    tag_759:\n        /* \"#utility.yul\":11760:11890   */\n      swap8\n      pop\n        /* \"#utility.yul\":11913:12003   */\n      tag_760\n        /* \"#utility.yul\":11996:12002   */\n      dup4\n        /* \"#utility.yul\":11913:12003   */\n      tag_572\n      jump\t// in\n    tag_760:\n        /* \"#utility.yul\":11903:12003   */\n      swap3\n      pop\n        /* \"#utility.yul\":11699:12013   */\n      pop\n        /* \"#utility.yul\":11686:11687   */\n      0x01\n        /* \"#utility.yul\":11683:11684   */\n      dup2\n        /* \"#utility.yul\":11679:11688   */\n      add\n        /* \"#utility.yul\":11674:11688   */\n      swap1\n      pop\n        /* \"#utility.yul\":11639:12013   */\n      jump(tag_756)\n    tag_758:\n        /* \"#utility.yul\":11643:11657   */\n      pop\n        /* \"#utility.yul\":12029:12032   */\n      dup6\n        /* \"#utility.yul\":12022:12032   */\n      swap4\n      pop\n        /* \"#utility.yul\":11250:12038   */\n      pop\n      pop\n      pop\n        /* \"#utility.yul\":11066:12038   */\n      swap3\n      swap2\n      pop\n      pop\n      jump\t// out\n        /* \"#utility.yul\":12044:12537   */\n    tag_182:\n        /* \"#utility.yul\":12247:12251   */\n      0x00\n        /* \"#utility.yul\":12285:12287   */\n      0x20\n        /* \"#utility.yul\":12274:12283   */\n      dup3\n        /* \"#utility.yul\":12270:12288   */\n      add\n        /* \"#utility.yul\":12262:12288   */\n      swap1\n      pop\n        /* \"#utility.yul\":12334:12343   */\n      dup2\n        /* \"#utility.yul\":12328:12332   */\n      dup2\n        /* \"#utility.yul\":12324:12344   */\n      sub\n        /* \"#utility.yul\":12320:12321   */\n      0x00\n        /* \"#utility.yul\":12309:12318   */\n      dup4\n        /* \"#utility.yul\":12305:12322   */\n      add\n        /* \"#utility.yul\":12298:12345   */\n      mstore\n        /* \"#utility.yul\":12362:12530   */\n      tag_762\n        /* \"#utility.yul\":12525:12529   */\n      dup2\n        /* \"#utility.yul\":12516:12522   */\n      dup5\n        /* \"#utility.yul\":12362:12530   */\n      tag_573\n      jump\t// in\n    tag_762:\n        /* \"#utility.yul\":12354:12530   */\n      swap1\n      pop\n        /* \"#utility.yul\":12044:12537   */\n      swap3\n      swap2\n      pop\n      pop\n      jump\t// out\n        /* \"#utility.yul\":12543:12767   */\n    tag_574:\n        /* \"#utility.yul\":12683:12717   */\n      0x4f6e6c79206c616e646c6f72642063616e20706572666f726d20746869732061\n        /* \"#utility.yul\":12679:12680   */\n      0x00\n        /* \"#utility.yul\":12671:12677   */\n      dup3\n        /* \"#utility.yul\":12667:12681   */\n      add\n        /* \"#utility.yul\":12660:12718   */\n      mstore\n        /* \"#utility.yul\":12752:12759   */\n      0x6374696f6e000000000000000000000000000000000000000000000000000000\n        /* \"#utility.yul\":12747:12749   */\n      0x20\n        /* \"#utility.yul\":12739:12745   */\n      dup3\n        /* \"#utility.yul\":12735:12750   */\n      add\n        /* \"#utility.yul\":12728:12760   */\n      mstore\n        /* \"#utility.yul\":12543:12767   */\n      pop\n      jump\t// out\n        /* \"#utility.yul\":12773:13139   */\n    tag_575:\n        /* \"#utility.yul\":12915:12918   */\n      0x00\n        /* \"#utility.yul\":12936:13003   */\n      tag_765\n        /* \"#utility.yul\":13000:13002   */\n      0x25\n        /* \"#utility.yul\":12995:12998   */\n      dup4\n        /* \"#utility.yul\":12936:13003   */\n      tag_547\n      jump\t// in\n    tag_765:\n        /* \"#utility.yul\":12929:13003   */\n      swap2\n      pop\n        /* \"#utility.yul\":13012:13105   */\n      tag_766\n        /* \"#utility.yul\":13101:13104   */\n      dup3\n        /* \"#utility.yul\":13012:13105   */\n      tag_574\n      jump\t// in\n    tag_766:\n        /* \"#utility.yul\":13130:13132   */\n      0x40\n        /* \"#utility.yul\":13125:13128   */\n      dup3\n        /* \"#utility.yul\":13121:13133   */\n      add\n        /* \"#utility.yul\":13114:13133   */\n      swap1\n      pop\n        /* \"#utility.yul\":12773:13139   */\n      swap2\n      swap1\n      pop\n      jump\t// out\n        /* \"#utility.yul\":13145:13564   */\n    tag_232:\n        /* \"#utility.yul\":13311:13315   */\n      0x00\n        /* \"#utility.yul\":13349:13351   */\n      0x20\n        /* \"#utility.yul\":13338:13347   */\n      dup3\n        /* \"#utility.yul\":13334:13352   */\n      add\n        /* \"#utility.yul\":13326:13352   */\n      swap1\n      pop\n        /* \"#utility.yul\":13398:13407   */\n      dup2\n        /* \"#utility.yul\":13392:13396   */\n      dup2\n        /* \"#utility.yul\":13388:13408   */\n      sub\n        /* \"#utility.yul\":13384:13385   */\n      0x00\n        /* \"#utility.yul\":13373:13382   */\n      dup4\n        /* \"#utility.yul\":13369:13386   */\n      add\n        /* \"#utility.yul\":13362:13409   */\n      mstore\n        /* \"#utility.yul\":13426:13557   */\n      tag_768\n        /* \"#utility.yul\":13552:13556   */\n      dup2\n        /* \"#utility.yul\":13426:13557   */\n      tag_575\n      jump\t// in\n    tag_768:\n        /* \"#utility.yul\":13418:13557   */\n      swap1\n      pop\n        /* \"#utility.yul\":13145:13564   */\n      swap2\n      swap1\n      pop\n      jump\t// out\n        /* \"#utility.yul\":13570:13742   */\n    tag_576:\n        /* \"#utility.yul\":13710:13734   */\n      0x436f6e7472616374206973206e6f742061637469766500000000000000000000\n        /* \"#utility.yul\":13706:13707   */\n      0x00\n        /* \"#utility.yul\":13698:13704   */\n      dup3\n        /* \"#utility.yul\":13694:13708   */\n      add\n        /* \"#utility.yul\":13687:13735   */\n      mstore\n        /* \"#utility.yul\":13570:13742   */\n      pop\n      jump\t// out\n        /* \"#utility.yul\":13748:14114   */\n    tag_577:\n        /* \"#utility.yul\":13890:13893   */\n      0x00\n        /* \"#utility.yul\":13911:13978   */\n      tag_771\n        /* \"#utility.yul\":13975:13977   */\n      0x16\n        /* \"#utility.yul\":13970:13973   */\n      dup4\n        /* \"#utility.yul\":13911:13978   */\n      tag_547\n      jump\t// in\n    tag_771:\n        /* \"#utility.yul\":13904:13978   */\n      swap2\n      pop\n        /* \"#utility.yul\":13987:14080   */\n      tag_772\n        /* \"#utility.yul\":14076:14079   */\n      dup3\n        /* \"#utility.yul\":13987:14080   */\n      tag_576\n      jump\t// in\n    tag_772:\n        /* \"#utility.yul\":14105:14107   */\n      0x20\n        /* \"#utility.yul\":14100:14103   */\n      dup3\n        /* \"#utility.yul\":14096:14108   */\n      add\n        /* \"#utility.yul\":14089:14108   */\n      swap1\n      pop\n        /* \"#utility.yul\":13748:14114   */\n      swap2\n      swap1\n      pop\n      jump\t// out\n        /* \"#utility.yul\":14120:14539   */\n    tag_245:\n        /* \"#utility.yul\":14286:14290   */\n      0x00\n        /* \"#utility.yul\":14324:14326   */\n      0x20\n        /* \"#utility.yul\":14313:14322   */\n      dup3\n        /* \"#utility.yul\":14309:14327   */\n      add\n        /* \"#utility.yul\":14301:14327   */\n      swap1\n      pop\n        /* \"#utility.yul\":14373:14382   */\n      dup2\n        /* \"#utility.yul\":14367:14371   */\n      dup2\n        /* \"#utility.yul\":14363:14383   */\n      sub\n        /* \"#utility.yul\":14359:14360   */\n      0x00\n        /* \"#utility.yul\":14348:14357   */\n      dup4\n        /* \"#utility.yul\":14344:14361   */\n      add\n        /* \"#utility.yul\":14337:14384   */\n      mstore\n        /* \"#utility.yul\":14401:14532   */\n      tag_774\n        /* \"#utility.yul\":14527:14531   */\n      dup2\n        /* \"#utility.yul\":14401:14532   */\n      tag_577\n      jump\t// in\n    tag_774:\n        /* \"#utility.yul\":14393:14532   */\n      swap1\n      pop\n        /* \"#utility.yul\":14120:14539   */\n      swap2\n      swap1\n      pop\n      jump\t// out\n        /* \"#utility.yul\":14545:14725   */\n    tag_578:\n        /* \"#utility.yul\":14593:14670   */\n      0x4e487b7100000000000000000000000000000000000000000000000000000000\n        /* \"#utility.yul\":14590:14591   */\n      0x00\n        /* \"#utility.yul\":14583:14671   */\n      mstore\n        /* \"#utility.yul\":14690:14694   */\n      0x11\n        /* \"#utility.yul\":14687:14688   */\n      0x04\n        /* \"#utility.yul\":14680:14695   */\n      mstore\n        /* \"#utility.yul\":14714:14718   */\n      0x24\n        /* \"#utility.yul\":14711:14712   */\n      0x00\n        /* \"#utility.yul\":14704:14719   */\n      revert\n        /* \"#utility.yul\":14731:14925   */\n    tag_247:\n        /* \"#utility.yul\":14771:14775   */\n      0x00\n        /* \"#utility.yul\":14791:14811   */\n      tag_777\n        /* \"#utility.yul\":14809:14810   */\n      dup3\n        /* \"#utility.yul\":14791:14811   */\n      tag_560\n      jump\t// in\n    tag_777:\n        /* \"#utility.yul\":14786:14811   */\n      swap2\n      pop\n        /* \"#utility.yul\":14825:14845   */\n      tag_778\n        /* \"#utility.yul\":14843:14844   */\n      dup4\n        /* \"#utility.yul\":14825:14845   */\n      tag_560\n      jump\t// in\n    tag_778:\n        /* \"#utility.yul\":14820:14845   */\n      swap3\n      pop\n        /* \"#utility.yul\":14869:14870   */\n      dup3\n        /* \"#utility.yul\":14866:14867   */\n      dup3\n        /* \"#utility.yul\":14862:14871   */\n      sub\n        /* \"#utility.yul\":14854:14871   */\n      swap1\n      pop\n        /* \"#utility.yul\":14893:14894   */\n      dup2\n        /* \"#utility.yul\":14887:14891   */\n      dup2\n        /* \"#utility.yul\":14884:14895   */\n      gt\n        /* \"#utility.yul\":14881:14918   */\n      iszero\n      tag_779\n      jumpi\n        /* \"#utility.yul\":14898:14916   */\n      tag_780\n      tag_578\n      jump\t// in\n    tag_780:\n        /* \"#utility.yul\":14881:14918   */\n    tag_779:\n        /* \"#utility.yul\":14731:14925   */\n      swap3\n      swap2\n      pop\n      pop\n      jump\t// out\n        /* \"#utility.yul\":14931:15111   */\n    tag_579:\n        /* \"#utility.yul\":14979:15056   */\n      0x4e487b7100000000000000000000000000000000000000000000000000000000\n        /* \"#utility.yul\":14976:14977   */\n      0x00\n        /* \"#utility.yul\":14969:15057   */\n      mstore\n        /* \"#utility.yul\":15076:15080   */\n      0x12\n        /* \"#utility.yul\":15073:15074   */\n      0x04\n        /* \"#utility.yul\":15066:15081   */\n      mstore\n        /* \"#utility.yul\":15100:15104   */\n      0x24\n        /* \"#utility.yul\":15097:15098   */\n      0x00\n        /* \"#utility.yul\":15090:15105   */\n      revert\n        /* \"#utility.yul\":15117:15302   */\n    tag_251:\n        /* \"#utility.yul\":15157:15158   */\n      0x00\n        /* \"#utility.yul\":15174:15194   */\n      tag_783\n        /* \"#utility.yul\":15192:15193   */\n      dup3\n        /* \"#utility.yul\":15174:15194   */\n      tag_560\n      jump\t// in\n    tag_783:\n        /* \"#utility.yul\":15169:15194   */\n      swap2\n      pop\n        /* \"#utility.yul\":15208:15228   */\n      tag_784\n        /* \"#utility.yul\":15226:15227   */\n      dup4\n        /* \"#utility.yul\":15208:15228   */\n      tag_560\n      jump\t// in\n    tag_784:\n        /* \"#utility.yul\":15203:15228   */\n      swap3\n      pop\n        /* \"#utility.yul\":15247:15248   */\n      dup3\n        /* \"#utility.yul\":15237:15272   */\n      tag_785\n      jumpi\n        /* \"#utility.yul\":15252:15270   */\n      tag_786\n      tag_579\n      jump\t// in\n    tag_786:\n        /* \"#utility.yul\":15237:15272   */\n    tag_785:\n        /* \"#utility.yul\":15294:15295   */\n      dup3\n        /* \"#utility.yul\":15291:15292   */\n      dup3\n        /* \"#utility.yul\":15287:15296   */\n      div\n        /* \"#utility.yul\":15282:15296   */\n      swap1\n      pop\n        /* \"#utility.yul\":15117:15302   */\n      swap3\n      swap2\n      pop\n      pop\n      jump\t// out\n        /* \"#utility.yul\":15308:15488   */\n    tag_580:\n        /* \"#utility.yul\":15356:15433   */\n      0x4e487b7100000000000000000000000000000000000000000000000000000000\n        /* \"#utility.yul\":15353:15354   */\n      0x00\n        /* \"#utility.yul\":15346:15434   */\n      mstore\n        /* \"#utility.yul\":15453:15457   */\n      0x22\n        /* \"#utility.yul\":15450:15451   */\n      0x04\n        /* \"#utility.yul\":15443:15458   */\n      mstore\n        /* \"#utility.yul\":15477:15481   */\n      0x24\n        /* \"#utility.yul\":15474:15475   */\n      0x00\n        /* \"#utility.yul\":15467:15482   */\n      revert\n        /* \"#utility.yul\":15494:15814   */\n    tag_258:\n        /* \"#utility.yul\":15538:15544   */\n      0x00\n        /* \"#utility.yul\":15575:15576   */\n      0x02\n        /* \"#utility.yul\":15569:15573   */\n      dup3\n        /* \"#utility.yul\":15565:15577   */\n      div\n        /* \"#utility.yul\":15555:15577   */\n      swap1\n      pop\n        /* \"#utility.yul\":15622:15623   */\n      0x01\n        /* \"#utility.yul\":15616:15620   */\n      dup3\n        /* \"#utility.yul\":15612:15624   */\n      and\n        /* \"#utility.yul\":15643:15661   */\n      dup1\n        /* \"#utility.yul\":15633:15714   */\n      tag_789\n      jumpi\n        /* \"#utility.yul\":15699:15703   */\n      0x7f\n        /* \"#utility.yul\":15691:15697   */\n      dup3\n        /* \"#utility.yul\":15687:15704   */\n      and\n        /* \"#utility.yul\":15677:15704   */\n      swap2\n      pop\n        /* \"#utility.yul\":15633:15714   */\n    tag_789:\n        /* \"#utility.yul\":15761:15763   */\n      0x20\n        /* \"#utility.yul\":15753:15759   */\n      dup3\n        /* \"#utility.yul\":15750:15764   */\n      lt\n        /* \"#utility.yul\":15730:15748   */\n      dup2\n        /* \"#utility.yul\":15727:15765   */\n      sub\n        /* \"#utility.yul\":15724:15808   */\n      tag_790\n      jumpi\n        /* \"#utility.yul\":15780:15798   */\n      tag_791\n      tag_580\n      jump\t// in\n    tag_791:\n        /* \"#utility.yul\":15724:15808   */\n    tag_790:\n        /* \"#utility.yul\":15545:15814   */\n      pop\n        /* \"#utility.yul\":15494:15814   */\n      swap2\n      swap1\n      pop\n      jump\t// out\n        /* \"#utility.yul\":15820:16230   */\n    tag_268:\n        /* \"#utility.yul\":15860:15867   */\n      0x00\n        /* \"#utility.yul\":15883:15903   */\n      tag_793\n        /* \"#utility.yul\":15901:15902   */\n      dup3\n        /* \"#utility.yul\":15883:15903   */\n      tag_560\n      jump\t// in\n    tag_793:\n        /* \"#utility.yul\":15878:15903   */\n      swap2\n      pop\n        /* \"#utility.yul\":15917:15937   */\n      tag_794\n        /* \"#utility.yul\":15935:15936   */\n      dup4\n        /* \"#utility.yul\":15917:15937   */\n      tag_560\n      jump\t// in\n    tag_794:\n        /* \"#utility.yul\":15912:15937   */\n      swap3\n      pop\n        /* \"#utility.yul\":15972:15973   */\n      dup3\n        /* \"#utility.yul\":15969:15970   */\n      dup3\n        /* \"#utility.yul\":15965:15974   */\n      mul\n        /* \"#utility.yul\":15994:16024   */\n      tag_795\n        /* \"#utility.yul\":16012:16023   */\n      dup2\n        /* \"#utility.yul\":15994:16024   */\n      tag_560\n      jump\t// in\n    tag_795:\n        /* \"#utility.yul\":15983:16024   */\n      swap2\n      pop\n        /* \"#utility.yul\":16173:16174   */\n      dup3\n        /* \"#utility.yul\":16164:16171   */\n      dup3\n        /* \"#utility.yul\":16160:16175   */\n      div\n        /* \"#utility.yul\":16157:16158   */\n      dup5\n        /* \"#utility.yul\":16154:16176   */\n      eq\n        /* \"#utility.yul\":16134:16135   */\n      dup4\n        /* \"#utility.yul\":16127:16136   */\n      iszero\n        /* \"#utility.yul\":16107:16190   */\n      or\n        /* \"#utility.yul\":16084:16223   */\n      tag_796\n      jumpi\n        /* \"#utility.yul\":16203:16221   */\n      tag_797\n      tag_578\n      jump\t// in\n    tag_797:\n        /* \"#utility.yul\":16084:16223   */\n    tag_796:\n        /* \"#utility.yul\":15868:16230   */\n      pop\n        /* \"#utility.yul\":15820:16230   */\n      swap3\n      swap2\n      pop\n      pop\n      jump\t// out\n        /* \"#utility.yul\":16236:16427   */\n    tag_271:\n        /* \"#utility.yul\":16276:16279   */\n      0x00\n        /* \"#utility.yul\":16295:16315   */\n      tag_799\n        /* \"#utility.yul\":16313:16314   */\n      dup3\n        /* \"#utility.yul\":16295:16315   */\n      tag_560\n      jump\t// in\n    tag_799:\n        /* \"#utility.yul\":16290:16315   */\n      swap2\n      pop\n        /* \"#utility.yul\":16329:16349   */\n      tag_800\n        /* \"#utility.yul\":16347:16348   */\n      dup4\n        /* \"#utility.yul\":16329:16349   */\n      tag_560\n      jump\t// in\n    tag_800:\n        /* \"#utility.yul\":16324:16349   */\n      swap3\n      pop\n        /* \"#utility.yul\":16372:16373   */\n      dup3\n        /* \"#utility.yul\":16369:16370   */\n      dup3\n        /* \"#utility.yul\":16365:16374   */\n      add\n        /* \"#utility.yul\":16358:16374   */\n      swap1\n      pop\n        /* \"#utility.yul\":16393:16396   */\n      dup1\n        /* \"#utility.yul\":16390:16391   */\n      dup3\n        /* \"#utility.yul\":16387:16397   */\n      gt\n        /* \"#utility.yul\":16384:16420   */\n      iszero\n      tag_801\n      jumpi\n        /* \"#utility.yul\":16400:16418   */\n      tag_802\n      tag_578\n      jump\t// in\n    tag_802:\n        /* \"#utility.yul\":16384:16420   */\n    tag_801:\n        /* \"#utility.yul\":16236:16427   */\n      swap3\n      swap2\n      pop\n      pop\n      jump\t// out\n        /* \"#utility.yul\":16433:16655   */\n    tag_581:\n        /* \"#utility.yul\":16573:16607   */\n      0x4f6e6c792054656e616e742063616e20706572666f726d207468697320616374\n        /* \"#utility.yul\":16569:16570   */\n      0x00\n        /* \"#utility.yul\":16561:16567   */\n      dup3\n        /* \"#utility.yul\":16557:16571   */\n      add\n        /* \"#utility.yul\":16550:16608   */\n      mstore\n        /* \"#utility.yul\":16642:16647   */\n      0x696f6e0000000000000000000000000000000000000000000000000000000000\n        /* \"#utility.yul\":16637:16639   */\n      0x20\n        /* \"#utility.yul\":16629:16635   */\n      dup3\n        /* \"#utility.yul\":16625:16640   */\n      add\n        /* \"#utility.yul\":16618:16648   */\n      mstore\n        /* \"#utility.yul\":16433:16655   */\n      pop\n      jump\t// out\n        /* \"#utility.yul\":16661:17027   */\n    tag_582:\n        /* \"#utility.yul\":16803:16806   */\n      0x00\n        /* \"#utility.yul\":16824:16891   */\n      tag_805\n        /* \"#utility.yul\":16888:16890   */\n      0x23\n        /* \"#utility.yul\":16883:16886   */\n      dup4\n        /* \"#utility.yul\":16824:16891   */\n      tag_547\n      jump\t// in\n    tag_805:\n        /* \"#utility.yul\":16817:16891   */\n      swap2\n      pop\n        /* \"#utility.yul\":16900:16993   */\n      tag_806\n        /* \"#utility.yul\":16989:16992   */\n      dup3\n        /* \"#utility.yul\":16900:16993   */\n      tag_581\n      jump\t// in\n    tag_806:\n        /* \"#utility.yul\":17018:17020   */\n      0x40\n        /* \"#utility.yul\":17013:17016   */\n      dup3\n        /* \"#utility.yul\":17009:17021   */\n      add\n        /* \"#utility.yul\":17002:17021   */\n      swap1\n      pop\n        /* \"#utility.yul\":16661:17027   */\n      swap2\n      swap1\n      pop\n      jump\t// out\n        /* \"#utility.yul\":17033:17452   */\n    tag_286:\n        /* \"#utility.yul\":17199:17203   */\n      0x00\n        /* \"#utility.yul\":17237:17239   */\n      0x20\n        /* \"#utility.yul\":17226:17235   */\n      dup3\n        /* \"#utility.yul\":17222:17240   */\n      add\n        /* \"#utility.yul\":17214:17240   */\n      swap1\n      pop\n        /* \"#utility.yul\":17286:17295   */\n      dup2\n        /* \"#utility.yul\":17280:17284   */\n      dup2\n        /* \"#utility.yul\":17276:17296   */\n      sub\n        /* \"#utility.yul\":17272:17273   */\n      0x00\n        /* \"#utility.yul\":17261:17270   */\n      dup4\n        /* \"#utility.yul\":17257:17274   */\n      add\n        /* \"#utility.yul\":17250:17297   */\n      mstore\n        /* \"#utility.yul\":17314:17445   */\n      tag_808\n        /* \"#utility.yul\":17440:17444   */\n      dup2\n        /* \"#utility.yul\":17314:17445   */\n      tag_582\n      jump\t// in\n    tag_808:\n        /* \"#utility.yul\":17306:17445   */\n      swap1\n      pop\n        /* \"#utility.yul\":17033:17452   */\n      swap2\n      swap1\n      pop\n      jump\t// out\n        /* \"#utility.yul\":17458:17630   */\n    tag_583:\n        /* \"#utility.yul\":17598:17622   */\n      0x436f6e7472616374206973206e6f742041637469766500000000000000000000\n        /* \"#utility.yul\":17594:17595   */\n      0x00\n        /* \"#utility.yul\":17586:17592   */\n      dup3\n        /* \"#utility.yul\":17582:17596   */\n      add\n        /* \"#utility.yul\":17575:17623   */\n      mstore\n        /* \"#utility.yul\":17458:17630   */\n      pop\n      jump\t// out\n        /* \"#utility.yul\":17636:18002   */\n    tag_584:\n        /* \"#utility.yul\":17778:17781   */\n      0x00\n        /* \"#utility.yul\":17799:17866   */\n      tag_811\n        /* \"#utility.yul\":17863:17865   */\n      0x16\n        /* \"#utility.yul\":17858:17861   */\n      dup4\n        /* \"#utility.yul\":17799:17866   */\n      tag_547\n      jump\t// in\n    tag_811:\n        /* \"#utility.yul\":17792:17866   */\n      swap2\n      pop\n        /* \"#utility.yul\":17875:17968   */\n      tag_812\n        /* \"#utility.yul\":17964:17967   */\n      dup3\n        /* \"#utility.yul\":17875:17968   */\n      tag_583\n      jump\t// in\n    tag_812:\n        /* \"#utility.yul\":17993:17995   */\n      0x20\n        /* \"#utility.yul\":17988:17991   */\n      dup3\n        /* \"#utility.yul\":17984:17996   */\n      add\n        /* \"#utility.yul\":17977:17996   */\n      swap1\n      pop\n        /* \"#utility.yul\":17636:18002   */\n      swap2\n      swap1\n      pop\n      jump\t// out\n        /* \"#utility.yul\":18008:18427   */\n    tag_294:\n        /* \"#utility.yul\":18174:18178   */\n      0x00\n        /* \"#utility.yul\":18212:18214   */\n      0x20\n        /* \"#utility.yul\":18201:18210   */\n      dup3\n        /* \"#utility.yul\":18197:18215   */\n      add\n        /* \"#utility.yul\":18189:18215   */\n      swap1\n      pop\n        /* \"#utility.yul\":18261:18270   */\n      dup2\n        /* \"#utility.yul\":18255:18259   */\n      dup2\n        /* \"#utility.yul\":18251:18271   */\n      sub\n        /* \"#utility.yul\":18247:18248   */\n      0x00\n        /* \"#utility.yul\":18236:18245   */\n      dup4\n        /* \"#utility.yul\":18232:18249   */\n      add\n        /* \"#utility.yul\":18225:18272   */\n      mstore\n        /* \"#utility.yul\":18289:18420   */\n      tag_814\n        /* \"#utility.yul\":18415:18419   */\n      dup2\n        /* \"#utility.yul\":18289:18420   */\n      tag_584\n      jump\t// in\n    tag_814:\n        /* \"#utility.yul\":18281:18420   */\n      swap1\n      pop\n        /* \"#utility.yul\":18008:18427   */\n      swap2\n      swap1\n      pop\n      jump\t// out\n        /* \"#utility.yul\":18433:18612   */\n    tag_585:\n        /* \"#utility.yul\":18573:18604   */\n      0x4e6f2070656e64696e67207761726e696e6720746f20636f6e6669726d000000\n        /* \"#utility.yul\":18569:18570   */\n      0x00\n        /* \"#utility.yul\":18561:18567   */\n      dup3\n        /* \"#utility.yul\":18557:18571   */\n      add\n        /* \"#utility.yul\":18550:18605   */\n      mstore\n        /* \"#utility.yul\":18433:18612   */\n      pop\n      jump\t// out\n        /* \"#utility.yul\":18618:18984   */\n    tag_586:\n        /* \"#utility.yul\":18760:18763   */\n      0x00\n        /* \"#utility.yul\":18781:18848   */\n      tag_817\n        /* \"#utility.yul\":18845:18847   */\n      0x1d\n        /* \"#utility.yul\":18840:18843   */\n      dup4\n        /* \"#utility.yul\":18781:18848   */\n      tag_547\n      jump\t// in\n    tag_817:\n        /* \"#utility.yul\":18774:18848   */\n      swap2\n      pop\n        /* \"#utility.yul\":18857:18950   */\n      tag_818\n        /* \"#utility.yul\":18946:18949   */\n      dup3\n        /* \"#utility.yul\":18857:18950   */\n      tag_585\n      jump\t// in\n    tag_818:\n        /* \"#utility.yul\":18975:18977   */\n      0x20\n        /* \"#utility.yul\":18970:18973   */\n      dup3\n        /* \"#utility.yul\":18966:18978   */\n      add\n        /* \"#utility.yul\":18959:18978   */\n      swap1\n      pop\n        /* \"#utility.yul\":18618:18984   */\n      swap2\n      swap1\n      pop\n      jump\t// out\n        /* \"#utility.yul\":18990:19409   */\n    tag_305:\n        /* \"#utility.yul\":19156:19160   */\n      0x00\n        /* \"#utility.yul\":19194:19196   */\n      0x20\n        /* \"#utility.yul\":19183:19192   */\n      dup3\n        /* \"#utility.yul\":19179:19197   */\n      add\n        /* \"#utility.yul\":19171:19197   */\n      swap1\n      pop\n        /* \"#utility.yul\":19243:19252   */\n      dup2\n        /* \"#utility.yul\":19237:19241   */\n      dup2\n        /* \"#utility.yul\":19233:19253   */\n      sub\n        /* \"#utility.yul\":19229:19230   */\n      0x00\n        /* \"#utility.yul\":19218:19227   */\n      dup4\n        /* \"#utility.yul\":19214:19231   */\n      add\n        /* \"#utility.yul\":19207:19254   */\n      mstore\n        /* \"#utility.yul\":19271:19402   */\n      tag_820\n        /* \"#utility.yul\":19397:19401   */\n      dup2\n        /* \"#utility.yul\":19271:19402   */\n      tag_586\n      jump\t// in\n    tag_820:\n        /* \"#utility.yul\":19263:19402   */\n      swap1\n      pop\n        /* \"#utility.yul\":18990:19409   */\n      swap2\n      swap1\n      pop\n      jump\t// out\n        /* \"#utility.yul\":19415:19648   */\n    tag_307:\n        /* \"#utility.yul\":19454:19457   */\n      0x00\n        /* \"#utility.yul\":19477:19501   */\n      tag_822\n        /* \"#utility.yul\":19495:19500   */\n      dup3\n        /* \"#utility.yul\":19477:19501   */\n      tag_560\n      jump\t// in\n    tag_822:\n        /* \"#utility.yul\":19468:19501   */\n      swap2\n      pop\n        /* \"#utility.yul\":19523:19589   */\n      0xffffffffffffffffffffffffffffffffffffffffffffffffffffffffffffffff\n        /* \"#utility.yul\":19516:19521   */\n      dup3\n        /* \"#utility.yul\":19513:19590   */\n      sub\n        /* \"#utility.yul\":19510:19613   */\n      tag_823\n      jumpi\n        /* \"#utility.yul\":19593:19611   */\n      tag_824\n      tag_578\n      jump\t// in\n    tag_824:\n        /* \"#utility.yul\":19510:19613   */\n    tag_823:\n        /* \"#utility.yul\":19640:19641   */\n      0x01\n        /* \"#utility.yul\":19633:19638   */\n      dup3\n        /* \"#utility.yul\":19629:19642   */\n      add\n        /* \"#utility.yul\":19622:19642   */\n      swap1\n      pop\n        /* \"#utility.yul\":19415:19648   */\n      swap2\n      swap1\n      pop\n      jump\t// out\n        /* \"#utility.yul\":19654:19833   */\n    tag_587:\n        /* \"#utility.yul\":19794:19825   */\n      0x52656e74616c20636f6e7472616374206973206e6f7420616374697665000000\n        /* \"#utility.yul\":19790:19791   */\n      0x00\n        /* \"#utility.yul\":19782:19788   */\n      dup3\n        /* \"#utility.yul\":19778:19792   */\n      add\n        /* \"#utility.yul\":19771:19826   */\n      mstore\n        /* \"#utility.yul\":19654:19833   */\n      pop\n      jump\t// out\n        /* \"#utility.yul\":19839:20205   */\n    tag_588:\n        /* \"#utility.yul\":19981:19984   */\n      0x00\n        /* \"#utility.yul\":20002:20069   */\n      tag_827\n        /* \"#utility.yul\":20066:20068   */\n      0x1d\n        /* \"#utility.yul\":20061:20064   */\n      dup4\n        /* \"#utility.yul\":20002:20069   */\n      tag_547\n      jump\t// in\n    tag_827:\n        /* \"#utility.yul\":19995:20069   */\n      swap2\n      pop\n        /* \"#utility.yul\":20078:20171   */\n      tag_828\n        /* \"#utility.yul\":20167:20170   */\n      dup3\n        /* \"#utility.yul\":20078:20171   */\n      tag_587\n      jump\t// in\n    tag_828:\n        /* \"#utility.yul\":20196:20198   */\n      0x20\n        /* \"#utility.yul\":20191:20194   */\n      dup3\n        /* \"#utility.yul\":20187:20199   */\n      add\n        /* \"#utility.yul\":20180:20199   */\n      swap1\n      pop\n        /* \"#utility.yul\":19839:20205   */\n      swap2\n      swap1\n      pop\n      jump\t// out\n        /* \"#utility.yul\":20211:20630   */\n    tag_319:\n        /* \"#utility.yul\":20377:20381   */\n      0x00\n        /* \"#utility.yul\":20415:20417   */\n      0x20\n        /* \"#utility.yul\":20404:20413   */\n      dup3\n        /* \"#utility.yul\":20400:20418   */\n      add\n        /* \"#utility.yul\":20392:20418   */\n      swap1\n      pop\n        /* \"#utility.yul\":20464:20473   */\n      dup2\n        /* \"#utility.yul\":20458:20462   */\n      dup2\n        /* \"#utility.yul\":20454:20474   */\n      sub\n        /* \"#utility.yul\":20450:20451   */\n      0x00\n        /* \"#utility.yul\":20439:20448   */\n      dup4\n        /* \"#utility.yul\":20435:20452   */\n      add\n        /* \"#utility.yul\":20428:20475   */\n      mstore\n        /* \"#utility.yul\":20492:20623   */\n      tag_830\n        /* \"#utility.yul\":20618:20622   */\n      dup2\n        /* \"#utility.yul\":20492:20623   */\n      tag_588\n      jump\t// in\n    tag_830:\n        /* \"#utility.yul\":20484:20623   */\n      swap1\n      pop\n        /* \"#utility.yul\":20211:20630   */\n      swap2\n      swap1\n      pop\n      jump\t// out\n        /* \"#utility.yul\":20636:21078   */\n    tag_322:\n        /* \"#utility.yul\":20785:20789   */\n      0x00\n        /* \"#utility.yul\":20823:20825   */\n      0x60\n        /* \"#utility.yul\":20812:20821   */\n      dup3\n        /* \"#utility.yul\":20808:20826   */\n      add\n        /* \"#utility.yul\":20800:20826   */\n      swap1\n      pop\n        /* \"#utility.yul\":20836:20907   */\n      tag_832\n        /* \"#utility.yul\":20904:20905   */\n      0x00\n        /* \"#utility.yul\":20893:20902   */\n      dup4\n        /* \"#utility.yul\":20889:20906   */\n      add\n        /* \"#utility.yul\":20880:20886   */\n      dup7\n        /* \"#utility.yul\":20836:20907   */\n      tag_564\n      jump\t// in\n    tag_832:\n        /* \"#utility.yul\":20917:20989   */\n      tag_833\n        /* \"#utility.yul\":20985:20987   */\n      0x20\n        /* \"#utility.yul\":20974:20983   */\n      dup4\n        /* \"#utility.yul\":20970:20988   */\n      add\n        /* \"#utility.yul\":20961:20967   */\n      dup6\n        /* \"#utility.yul\":20917:20989   */\n      tag_564\n      jump\t// in\n    tag_833:\n        /* \"#utility.yul\":20999:21071   */\n      tag_834\n        /* \"#utility.yul\":21067:21069   */\n      0x40\n        /* \"#utility.yul\":21056:21065   */\n      dup4\n        /* \"#utility.yul\":21052:21070   */\n      add\n        /* \"#utility.yul\":21043:21049   */\n      dup5\n        /* \"#utility.yul\":20999:21071   */\n      tag_561\n      jump\t// in\n    tag_834:\n        /* \"#utility.yul\":20636:21078   */\n      swap5\n      swap4\n      pop\n      pop\n      pop\n      pop\n      jump\t// out\n        /* \"#utility.yul\":21084:21200   */\n    tag_589:\n        /* \"#utility.yul\":21154:21175   */\n      tag_836\n        /* \"#utility.yul\":21169:21174   */\n      dup2\n        /* \"#utility.yul\":21154:21175   */\n      tag_550\n      jump\t// in\n    tag_836:\n        /* \"#utility.yul\":21147:21152   */\n      dup2\n        /* \"#utility.yul\":21144:21176   */\n      eq\n        /* \"#utility.yul\":21134:21194   */\n      tag_837\n      jumpi\n        /* \"#utility.yul\":21190:21191   */\n      0x00\n        /* \"#utility.yul\":21187:21188   */\n      dup1\n        /* \"#utility.yul\":21180:21192   */\n      revert\n        /* \"#utility.yul\":21134:21194   */\n    tag_837:\n        /* \"#utility.yul\":21084:21200   */\n      pop\n      jump\t// out\n        /* \"#utility.yul\":21206:21343   */\n    tag_590:\n        /* \"#utility.yul\":21260:21265   */\n      0x00\n        /* \"#utility.yul\":21291:21297   */\n      dup2\n        /* \"#utility.yul\":21285:21298   */\n      mload\n        /* \"#utility.yul\":21276:21298   */\n      swap1\n      pop\n        /* \"#utility.yul\":21307:21337   */\n      tag_839\n        /* \"#utility.yul\":21331:21336   */\n      dup2\n        /* \"#utility.yul\":21307:21337   */\n      tag_589\n      jump\t// in\n    tag_839:\n        /* \"#utility.yul\":21206:21343   */\n      swap3\n      swap2\n      pop\n      pop\n      jump\t// out\n        /* \"#utility.yul\":21349:21694   */\n    tag_326:\n        /* \"#utility.yul\":21416:21422   */\n      0x00\n        /* \"#utility.yul\":21465:21467   */\n      0x20\n        /* \"#utility.yul\":21453:21462   */\n      dup3\n        /* \"#utility.yul\":21444:21451   */\n      dup5\n        /* \"#utility.yul\":21440:21463   */\n      sub\n        /* \"#utility.yul\":21436:21468   */\n      slt\n        /* \"#utility.yul\":21433:21552   */\n      iszero\n      tag_841\n      jumpi\n        /* \"#utility.yul\":21471:21550   */\n      tag_842\n      tag_534\n      jump\t// in\n    tag_842:\n        /* \"#utility.yul\":21433:21552   */\n    tag_841:\n        /* \"#utility.yul\":21591:21592   */\n      0x00\n        /* \"#utility.yul\":21616:21677   */\n      tag_843\n        /* \"#utility.yul\":21669:21676   */\n      dup5\n        /* \"#utility.yul\":21660:21666   */\n      dup3\n        /* \"#utility.yul\":21649:21658   */\n      dup6\n        /* \"#utility.yul\":21645:21667   */\n      add\n        /* \"#utility.yul\":21616:21677   */\n      tag_590\n      jump\t// in\n    tag_843:\n        /* \"#utility.yul\":21606:21677   */\n      swap2\n      pop\n        /* \"#utility.yul\":21562:21687   */\n      pop\n        /* \"#utility.yul\":21349:21694   */\n      swap3\n      swap2\n      pop\n      pop\n      jump\t// out\n        /* \"#utility.yul\":21700:21875   */\n    tag_591:\n        /* \"#utility.yul\":21840:21867   */\n      0x537461626c65636f696e206465706f736974206661696c656400000000000000\n        /* \"#utility.yul\":21836:21837   */\n      0x00\n        /* \"#utility.yul\":21828:21834   */\n      dup3\n        /* \"#utility.yul\":21824:21838   */\n      add\n        /* \"#utility.yul\":21817:21868   */\n      mstore\n        /* \"#utility.yul\":21700:21875   */\n      pop\n      jump\t// out\n        /* \"#utility.yul\":21881:22247   */\n    tag_592:\n        /* \"#utility.yul\":22023:22026   */\n      0x00\n        /* \"#utility.yul\":22044:22111   */\n      tag_846\n        /* \"#utility.yul\":22108:22110   */\n      0x19\n        /* \"#utility.yul\":22103:22106   */\n      dup4\n        /* \"#utility.yul\":22044:22111   */\n      tag_547\n      jump\t// in\n    tag_846:\n        /* \"#utility.yul\":22037:22111   */\n      swap2\n      pop\n        /* \"#utility.yul\":22120:22213   */\n      tag_847\n        /* \"#utility.yul\":22209:22212   */\n      dup3\n        /* \"#utility.yul\":22120:22213   */\n      tag_591\n      jump\t// in\n    tag_847:\n        /* \"#utility.yul\":22238:22240   */\n      0x20\n        /* \"#utility.yul\":22233:22236   */\n      dup3\n        /* \"#utility.yul\":22229:22241   */\n      add\n        /* \"#utility.yul\":22222:22241   */\n      swap1\n      pop\n        /* \"#utility.yul\":21881:22247   */\n      swap2\n      swap1\n      pop\n      jump\t// out\n        /* \"#utility.yul\":22253:22672   */\n    tag_329:\n        /* \"#utility.yul\":22419:22423   */\n      0x00\n        /* \"#utility.yul\":22457:22459   */\n      0x20\n        /* \"#utility.yul\":22446:22455   */\n      dup3\n        /* \"#utility.yul\":22442:22460   */\n      add\n        /* \"#utility.yul\":22434:22460   */\n      swap1\n      pop\n        /* \"#utility.yul\":22506:22515   */\n      dup2\n        /* \"#utility.yul\":22500:22504   */\n      dup2\n        /* \"#utility.yul\":22496:22516   */\n      sub\n        /* \"#utility.yul\":22492:22493   */\n      0x00\n        /* \"#utility.yul\":22481:22490   */\n      dup4\n        /* \"#utility.yul\":22477:22494   */\n      add\n        /* \"#utility.yul\":22470:22517   */\n      mstore\n        /* \"#utility.yul\":22534:22665   */\n      tag_849\n        /* \"#utility.yul\":22660:22664   */\n      dup2\n        /* \"#utility.yul\":22534:22665   */\n      tag_592\n      jump\t// in\n    tag_849:\n        /* \"#utility.yul\":22526:22665   */\n      swap1\n      pop\n        /* \"#utility.yul\":22253:22672   */\n      swap2\n      swap1\n      pop\n      jump\t// out\n        /* \"#utility.yul\":22678:22848   */\n    tag_593:\n        /* \"#utility.yul\":22818:22840   */\n      0x496e737566666963656e74204554482073656e74000000000000000000000000\n        /* \"#utility.yul\":22814:22815   */\n      0x00\n        /* \"#utility.yul\":22806:22812   */\n      dup3\n        /* \"#utility.yul\":22802:22816   */\n      add\n        /* \"#utility.yul\":22795:22841   */\n      mstore\n        /* \"#utility.yul\":22678:22848   */\n      pop\n      jump\t// out\n        /* \"#utility.yul\":22854:23220   */\n    tag_594:\n        /* \"#utility.yul\":22996:22999   */\n      0x00\n        /* \"#utility.yul\":23017:23084   */\n      tag_852\n        /* \"#utility.yul\":23081:23083   */\n      0x14\n        /* \"#utility.yul\":23076:23079   */\n      dup4\n        /* \"#utility.yul\":23017:23084   */\n      tag_547\n      jump\t// in\n    tag_852:\n        /* \"#utility.yul\":23010:23084   */\n      swap2\n      pop\n        /* \"#utility.yul\":23093:23186   */\n      tag_853\n        /* \"#utility.yul\":23182:23185   */\n      dup3\n        /* \"#utility.yul\":23093:23186   */\n      tag_593\n      jump\t// in\n    tag_853:\n        /* \"#utility.yul\":23211:23213   */\n      0x20\n        /* \"#utility.yul\":23206:23209   */\n      dup3\n        /* \"#utility.yul\":23202:23214   */\n      add\n        /* \"#utility.yul\":23195:23214   */\n      swap1\n      pop\n        /* \"#utility.yul\":22854:23220   */\n      swap2\n      swap1\n      pop\n      jump\t// out\n        /* \"#utility.yul\":23226:23645   */\n    tag_340:\n        /* \"#utility.yul\":23392:23396   */\n      0x00\n        /* \"#utility.yul\":23430:23432   */\n      0x20\n        /* \"#utility.yul\":23419:23428   */\n      dup3\n        /* \"#utility.yul\":23415:23433   */\n      add\n        /* \"#utility.yul\":23407:23433   */\n      swap1\n      pop\n        /* \"#utility.yul\":23479:23488   */\n      dup2\n        /* \"#utility.yul\":23473:23477   */\n      dup2\n        /* \"#utility.yul\":23469:23489   */\n      sub\n        /* \"#utility.yul\":23465:23466   */\n      0x00\n        /* \"#utility.yul\":23454:23463   */\n      dup4\n        /* \"#utility.yul\":23450:23467   */\n      add\n        /* \"#utility.yul\":23443:23490   */\n      mstore\n        /* \"#utility.yul\":23507:23638   */\n      tag_855\n        /* \"#utility.yul\":23633:23637   */\n      dup2\n        /* \"#utility.yul\":23507:23638   */\n      tag_594\n      jump\t// in\n    tag_855:\n        /* \"#utility.yul\":23499:23638   */\n      swap1\n      pop\n        /* \"#utility.yul\":23226:23645   */\n      swap2\n      swap1\n      pop\n      jump\t// out\n        /* \"#utility.yul\":23651:23971   */\n    tag_347:\n        /* \"#utility.yul\":23766:23770   */\n      0x00\n        /* \"#utility.yul\":23804:23806   */\n      0x40\n        /* \"#utility.yul\":23793:23802   */\n      dup3\n        /* \"#utility.yul\":23789:23807   */\n      add\n        /* \"#utility.yul\":23781:23807   */\n      swap1\n      pop\n        /* \"#utility.yul\":23817:23888   */\n      tag_857\n        /* \"#utility.yul\":23885:23886   */\n      0x00\n        /* \"#utility.yul\":23874:23883   */\n      dup4\n        /* \"#utility.yul\":23870:23887   */\n      add\n        /* \"#utility.yul\":23861:23867   */\n      dup6\n        /* \"#utility.yul\":23817:23888   */\n      tag_561\n      jump\t// in\n    tag_857:\n        /* \"#utility.yul\":23898:23964   */\n      tag_858\n        /* \"#utility.yul\":23960:23962   */\n      0x20\n        /* \"#utility.yul\":23949:23958   */\n      dup4\n        /* \"#utility.yul\":23945:23963   */\n      add\n        /* \"#utility.yul\":23936:23942   */\n      dup5\n        /* \"#utility.yul\":23898:23964   */\n      tag_551\n      jump\t// in\n    tag_858:\n        /* \"#utility.yul\":23651:23971   */\n      swap4\n      swap3\n      pop\n      pop\n      pop\n      jump\t// out\n        /* \"#utility.yul\":23977:24155   */\n    tag_595:\n        /* \"#utility.yul\":24117:24147   */\n      0x436f6e747261637420686173206e6f7420657870697265642079657400000000\n        /* \"#utility.yul\":24113:24114   */\n      0x00\n        /* \"#utility.yul\":24105:24111   */\n      dup3\n        /* \"#utility.yul\":24101:24115   */\n      add\n        /* \"#utility.yul\":24094:24148   */\n      mstore\n        /* \"#utility.yul\":23977:24155   */\n      pop\n      jump\t// out\n        /* \"#utility.yul\":24161:24527   */\n    tag_596:\n        /* \"#utility.yul\":24303:24306   */\n      0x00\n        /* \"#utility.yul\":24324:24391   */\n      tag_861\n        /* \"#utility.yul\":24388:24390   */\n      0x1c\n        /* \"#utility.yul\":24383:24386   */\n      dup4\n        /* \"#utility.yul\":24324:24391   */\n      tag_547\n      jump\t// in\n    tag_861:\n        /* \"#utility.yul\":24317:24391   */\n      swap2\n      pop\n        /* \"#utility.yul\":24400:24493   */\n      tag_862\n        /* \"#utility.yul\":24489:24492   */\n      dup3\n        /* \"#utility.yul\":24400:24493   */\n      tag_595\n      jump\t// in\n    tag_862:\n        /* \"#utility.yul\":24518:24520   */\n      0x20\n        /* \"#utility.yul\":24513:24516   */\n      dup3\n        /* \"#utility.yul\":24509:24521   */\n      add\n        /* \"#utility.yul\":24502:24521   */\n      swap1\n      pop\n        /* \"#utility.yul\":24161:24527   */\n      swap2\n      swap1\n      pop\n      jump\t// out\n        /* \"#utility.yul\":24533:24952   */\n    tag_351:\n        /* \"#utility.yul\":24699:24703   */\n      0x00\n        /* \"#utility.yul\":24737:24739   */\n      0x20\n        /* \"#utility.yul\":24726:24735   */\n      dup3\n        /* \"#utility.yul\":24722:24740   */\n      add\n        /* \"#utility.yul\":24714:24740   */\n      swap1\n      pop\n        /* \"#utility.yul\":24786:24795   */\n      dup2\n        /* \"#utility.yul\":24780:24784   */\n      dup2\n        /* \"#utility.yul\":24776:24796   */\n      sub\n        /* \"#utility.yul\":24772:24773   */\n      0x00\n        /* \"#utility.yul\":24761:24770   */\n      dup4\n        /* \"#utility.yul\":24757:24774   */\n      add\n        /* \"#utility.yul\":24750:24797   */\n      mstore\n        /* \"#utility.yul\":24814:24945   */\n      tag_864\n        /* \"#utility.yul\":24940:24944   */\n      dup2\n        /* \"#utility.yul\":24814:24945   */\n      tag_596\n      jump\t// in\n    tag_864:\n        /* \"#utility.yul\":24806:24945   */\n      swap1\n      pop\n        /* \"#utility.yul\":24533:24952   */\n      swap2\n      swap1\n      pop\n      jump\t// out\n        /* \"#utility.yul\":24958:25133   */\n    tag_597:\n        /* \"#utility.yul\":25098:25125   */\n      0x436f6e747261637420686173206265656e2072656e6577656400000000000000\n        /* \"#utility.yul\":25094:25095   */\n      0x00\n        /* \"#utility.yul\":25086:25092   */\n      dup3\n        /* \"#utility.yul\":25082:25096   */\n      add\n        /* \"#utility.yul\":25075:25126   */\n      mstore\n        /* \"#utility.yul\":24958:25133   */\n      pop\n      jump\t// out\n        /* \"#utility.yul\":25139:25505   */\n    tag_598:\n        /* \"#utility.yul\":25281:25284   */\n      0x00\n        /* \"#utility.yul\":25302:25369   */\n      tag_867\n        /* \"#utility.yul\":25366:25368   */\n      0x19\n        /* \"#utility.yul\":25361:25364   */\n      dup4\n        /* \"#utility.yul\":25302:25369   */\n      tag_547\n      jump\t// in\n    tag_867:\n        /* \"#utility.yul\":25295:25369   */\n      swap2\n      pop\n        /* \"#utility.yul\":25378:25471   */\n      tag_868\n        /* \"#utility.yul\":25467:25470   */\n      dup3\n        /* \"#utility.yul\":25378:25471   */\n      tag_597\n      jump\t// in\n    tag_868:\n        /* \"#utility.yul\":25496:25498   */\n      0x20\n        /* \"#utility.yul\":25491:25494   */\n      dup3\n        /* \"#utility.yul\":25487:25499   */\n      add\n        /* \"#utility.yul\":25480:25499   */\n      swap1\n      pop\n        /* \"#utility.yul\":25139:25505   */\n      swap2\n      swap1\n      pop\n      jump\t// out\n        /* \"#utility.yul\":25511:25930   */\n    tag_355:\n        /* \"#utility.yul\":25677:25681   */\n      0x00\n        /* \"#utility.yul\":25715:25717   */\n      0x20\n        /* \"#utility.yul\":25704:25713   */\n      dup3\n        /* \"#utility.yul\":25700:25718   */\n      add\n        /* \"#utility.yul\":25692:25718   */\n      swap1\n      pop\n        /* \"#utility.yul\":25764:25773   */\n      dup2\n        /* \"#utility.yul\":25758:25762   */\n      dup2\n        /* \"#utility.yul\":25754:25774   */\n      sub\n        /* \"#utility.yul\":25750:25751   */\n      0x00\n        /* \"#utility.yul\":25739:25748   */\n      dup4\n        /* \"#utility.yul\":25735:25752   */\n      add\n        /* \"#utility.yul\":25728:25775   */\n      mstore\n        /* \"#utility.yul\":25792:25923   */\n      tag_870\n        /* \"#utility.yul\":25918:25922   */\n      dup2\n        /* \"#utility.yul\":25792:25923   */\n      tag_598\n      jump\t// in\n    tag_870:\n        /* \"#utility.yul\":25784:25923   */\n      swap1\n      pop\n        /* \"#utility.yul\":25511:25930   */\n      swap2\n      swap1\n      pop\n      jump\t// out\n        /* \"#utility.yul\":25936:26118   */\n    tag_599:\n        /* \"#utility.yul\":26076:26110   */\n      0x436f6e7472616374206578706972656420776974686f75742072656e6577616c\n        /* \"#utility.yul\":26072:26073   */\n      0x00\n        /* \"#utility.yul\":26064:26070   */\n      dup3\n        /* \"#utility.yul\":26060:26074   */\n      add\n        /* \"#utility.yul\":26053:26111   */\n      mstore\n        /* \"#utility.yul\":25936:26118   */\n      pop\n      jump\t// out\n        /* \"#utility.yul\":26124:26490   */\n    tag_600:\n        /* \"#utility.yul\":26266:26269   */\n      0x00\n        /* \"#utility.yul\":26287:26354   */\n      tag_873\n        /* \"#utility.yul\":26351:26353   */\n      0x20\n        /* \"#utility.yul\":26346:26349   */\n      dup4\n        /* \"#utility.yul\":26287:26354   */\n      tag_547\n      jump\t// in\n    tag_873:\n        /* \"#utility.yul\":26280:26354   */\n      swap2\n      pop\n        /* \"#utility.yul\":26363:26456   */\n      tag_874\n        /* \"#utility.yul\":26452:26455   */\n      dup3\n        /* \"#utility.yul\":26363:26456   */\n      tag_599\n      jump\t// in\n    tag_874:\n        /* \"#utility.yul\":26481:26483   */\n      0x20\n        /* \"#utility.yul\":26476:26479   */\n      dup3\n        /* \"#utility.yul\":26472:26484   */\n      add\n        /* \"#utility.yul\":26465:26484   */\n      swap1\n      pop\n        /* \"#utility.yul\":26124:26490   */\n      swap2\n      swap1\n      pop\n      jump\t// out\n        /* \"#utility.yul\":26496:26915   */\n    tag_359:\n        /* \"#utility.yul\":26662:26666   */\n      0x00\n        /* \"#utility.yul\":26700:26702   */\n      0x20\n        /* \"#utility.yul\":26689:26698   */\n      dup3\n        /* \"#utility.yul\":26685:26703   */\n      add\n        /* \"#utility.yul\":26677:26703   */\n      swap1\n      pop\n        /* \"#utility.yul\":26749:26758   */\n      dup2\n        /* \"#utility.yul\":26743:26747   */\n      dup2\n        /* \"#utility.yul\":26739:26759   */\n      sub\n        /* \"#utility.yul\":26735:26736   */\n      0x00\n        /* \"#utility.yul\":26724:26733   */\n      dup4\n        /* \"#utility.yul\":26720:26737   */\n      add\n        /* \"#utility.yul\":26713:26760   */\n      mstore\n        /* \"#utility.yul\":26777:26908   */\n      tag_876\n        /* \"#utility.yul\":26903:26907   */\n      dup2\n        /* \"#utility.yul\":26777:26908   */\n      tag_600\n      jump\t// in\n    tag_876:\n        /* \"#utility.yul\":26769:26908   */\n      swap1\n      pop\n        /* \"#utility.yul\":26496:26915   */\n      swap2\n      swap1\n      pop\n      jump\t// out\n        /* \"#utility.yul\":26921:27099   */\n    tag_601:\n        /* \"#utility.yul\":27061:27091   */\n      0x436f6e7472616374206d75737420626572207465726d696e6174656400000000\n        /* \"#utility.yul\":27057:27058   */\n      0x00\n        /* \"#utility.yul\":27049:27055   */\n      dup3\n        /* \"#utility.yul\":27045:27059   */\n      add\n        /* \"#utility.yul\":27038:27092   */\n      mstore\n        /* \"#utility.yul\":26921:27099   */\n      pop\n      jump\t// out\n        /* \"#utility.yul\":27105:27471   */\n    tag_602:\n        /* \"#utility.yul\":27247:27250   */\n      0x00\n        /* \"#utility.yul\":27268:27335   */\n      tag_879\n        /* \"#utility.yul\":27332:27334   */\n      0x1c\n        /* \"#utility.yul\":27327:27330   */\n      dup4\n        /* \"#utility.yul\":27268:27335   */\n      tag_547\n      jump\t// in\n    tag_879:\n        /* \"#utility.yul\":27261:27335   */\n      swap2\n      pop\n        /* \"#utility.yul\":27344:27437   */\n      tag_880\n        /* \"#utility.yul\":27433:27436   */\n      dup3\n        /* \"#utility.yul\":27344:27437   */\n      tag_601\n      jump\t// in\n    tag_880:\n        /* \"#utility.yul\":27462:27464   */\n      0x20\n        /* \"#utility.yul\":27457:27460   */\n      dup3\n        /* \"#utility.yul\":27453:27465   */\n      add\n        /* \"#utility.yul\":27446:27465   */\n      swap1\n      pop\n        /* \"#utility.yul\":27105:27471   */\n      swap2\n      swap1\n      pop\n      jump\t// out\n        /* \"#utility.yul\":27477:27896   */\n    tag_370:\n        /* \"#utility.yul\":27643:27647   */\n      0x00\n        /* \"#utility.yul\":27681:27683   */\n      0x20\n        /* \"#utility.yul\":27670:27679   */\n      dup3\n        /* \"#utility.yul\":27666:27684   */\n      add\n        /* \"#utility.yul\":27658:27684   */\n      swap1\n      pop\n        /* \"#utility.yul\":27730:27739   */\n      dup2\n        /* \"#utility.yul\":27724:27728   */\n      dup2\n        /* \"#utility.yul\":27720:27740   */\n      sub\n        /* \"#utility.yul\":27716:27717   */\n      0x00\n        /* \"#utility.yul\":27705:27714   */\n      dup4\n        /* \"#utility.yul\":27701:27718   */\n      add\n        /* \"#utility.yul\":27694:27741   */\n      mstore\n        /* \"#utility.yul\":27758:27889   */\n      tag_882\n        /* \"#utility.yul\":27884:27888   */\n      dup2\n        /* \"#utility.yul\":27758:27889   */\n      tag_602\n      jump\t// in\n    tag_882:\n        /* \"#utility.yul\":27750:27889   */\n      swap1\n      pop\n        /* \"#utility.yul\":27477:27896   */\n      swap2\n      swap1\n      pop\n      jump\t// out\n        /* \"#utility.yul\":27902:28007   */\n    tag_603:\n        /* \"#utility.yul\":27938:27945   */\n      0x00\n        /* \"#utility.yul\":27978:28000   */\n      0xffffffffffffffffffff\n        /* \"#utility.yul\":27971:27976   */\n      dup3\n        /* \"#utility.yul\":27967:28001   */\n      and\n        /* \"#utility.yul\":27956:28001   */\n      swap1\n      pop\n        /* \"#utility.yul\":27902:28007   */\n      swap2\n      swap1\n      pop\n      jump\t// out\n        /* \"#utility.yul\":28013:28133   */\n    tag_604:\n        /* \"#utility.yul\":28085:28108   */\n      tag_885\n        /* \"#utility.yul\":28102:28107   */\n      dup2\n        /* \"#utility.yul\":28085:28108   */\n      tag_603\n      jump\t// in\n    tag_885:\n        /* \"#utility.yul\":28078:28083   */\n      dup2\n        /* \"#utility.yul\":28075:28109   */\n      eq\n        /* \"#utility.yul\":28065:28127   */\n      tag_886\n      jumpi\n        /* \"#utility.yul\":28123:28124   */\n      0x00\n        /* \"#utility.yul\":28120:28121   */\n      dup1\n        /* \"#utility.yul\":28113:28125   */\n      revert\n        /* \"#utility.yul\":28065:28127   */\n    tag_886:\n        /* \"#utility.yul\":28013:28133   */\n      pop\n      jump\t// out\n        /* \"#utility.yul\":28139:28280   */\n    tag_605:\n        /* \"#utility.yul\":28195:28200   */\n      0x00\n        /* \"#utility.yul\":28226:28232   */\n      dup2\n        /* \"#utility.yul\":28220:28233   */\n      mload\n        /* \"#utility.yul\":28211:28233   */\n      swap1\n      pop\n        /* \"#utility.yul\":28242:28274   */\n      tag_888\n        /* \"#utility.yul\":28268:28273   */\n      dup2\n        /* \"#utility.yul\":28242:28274   */\n      tag_604\n      jump\t// in\n    tag_888:\n        /* \"#utility.yul\":28139:28280   */\n      swap3\n      swap2\n      pop\n      pop\n      jump\t// out\n        /* \"#utility.yul\":28286:28362   */\n    tag_606:\n        /* \"#utility.yul\":28322:28329   */\n      0x00\n        /* \"#utility.yul\":28351:28356   */\n      dup2\n        /* \"#utility.yul\":28340:28356   */\n      swap1\n      pop\n        /* \"#utility.yul\":28286:28362   */\n      swap2\n      swap1\n      pop\n      jump\t// out\n        /* \"#utility.yul\":28368:28488   */\n    tag_607:\n        /* \"#utility.yul\":28440:28463   */\n      tag_891\n        /* \"#utility.yul\":28457:28462   */\n      dup2\n        /* \"#utility.yul\":28440:28463   */\n      tag_606\n      jump\t// in\n    tag_891:\n        /* \"#utility.yul\":28433:28438   */\n      dup2\n        /* \"#utility.yul\":28430:28464   */\n      eq\n        /* \"#utility.yul\":28420:28482   */\n      tag_892\n      jumpi\n        /* \"#utility.yul\":28478:28479   */\n      0x00\n        /* \"#utility.yul\":28475:28476   */\n      dup1\n        /* \"#utility.yul\":28468:28480   */\n      revert\n        /* \"#utility.yul\":28420:28482   */\n    tag_892:\n        /* \"#utility.yul\":28368:28488   */\n      pop\n      jump\t// out\n        /* \"#utility.yul\":28494:28635   */\n    tag_608:\n        /* \"#utility.yul\":28550:28555   */\n      0x00\n        /* \"#utility.yul\":28581:28587   */\n      dup2\n        /* \"#utility.yul\":28575:28588   */\n      mload\n        /* \"#utility.yul\":28566:28588   */\n      swap1\n      pop\n        /* \"#utility.yul\":28597:28629   */\n      tag_894\n        /* \"#utility.yul\":28623:28628   */\n      dup2\n        /* \"#utility.yul\":28597:28629   */\n      tag_607\n      jump\t// in\n    tag_894:\n        /* \"#utility.yul\":28494:28635   */\n      swap3\n      swap2\n      pop\n      pop\n      jump\t// out\n        /* \"#utility.yul\":28641:28784   */\n    tag_609:\n        /* \"#utility.yul\":28698:28703   */\n      0x00\n        /* \"#utility.yul\":28729:28735   */\n      dup2\n        /* \"#utility.yul\":28723:28736   */\n      mload\n        /* \"#utility.yul\":28714:28736   */\n      swap1\n      pop\n        /* \"#utility.yul\":28745:28778   */\n      tag_896\n        /* \"#utility.yul\":28772:28777   */\n      dup2\n        /* \"#utility.yul\":28745:28778   */\n      tag_562\n      jump\t// in\n    tag_896:\n        /* \"#utility.yul\":28641:28784   */\n      swap3\n      swap2\n      pop\n      pop\n      jump\t// out\n        /* \"#utility.yul\":28790:29761   */\n    tag_379:\n        /* \"#utility.yul\":28893:28899   */\n      0x00\n        /* \"#utility.yul\":28901:28907   */\n      dup1\n        /* \"#utility.yul\":28909:28915   */\n      0x00\n        /* \"#utility.yul\":28917:28923   */\n      dup1\n        /* \"#utility.yul\":28925:28931   */\n      0x00\n        /* \"#utility.yul\":28974:28977   */\n      0xa0\n        /* \"#utility.yul\":28962:28971   */\n      dup7\n        /* \"#utility.yul\":28953:28960   */\n      dup9\n        /* \"#utility.yul\":28949:28972   */\n      sub\n        /* \"#utility.yul\":28945:28978   */\n      slt\n        /* \"#utility.yul\":28942:29062   */\n      iszero\n      tag_898\n      jumpi\n        /* \"#utility.yul\":28981:29060   */\n      tag_899\n      tag_534\n      jump\t// in\n    tag_899:\n        /* \"#utility.yul\":28942:29062   */\n    tag_898:\n        /* \"#utility.yul\":29101:29102   */\n      0x00\n        /* \"#utility.yul\":29126:29189   */\n      tag_900\n        /* \"#utility.yul\":29181:29188   */\n      dup9\n        /* \"#utility.yul\":29172:29178   */\n      dup3\n        /* \"#utility.yul\":29161:29170   */\n      dup10\n        /* \"#utility.yul\":29157:29179   */\n      add\n        /* \"#utility.yul\":29126:29189   */\n      tag_605\n      jump\t// in\n    tag_900:\n        /* \"#utility.yul\":29116:29189   */\n      swap6\n      pop\n        /* \"#utility.yul\":29072:29199   */\n      pop\n        /* \"#utility.yul\":29238:29240   */\n      0x20\n        /* \"#utility.yul\":29264:29327   */\n      tag_901\n        /* \"#utility.yul\":29319:29326   */\n      dup9\n        /* \"#utility.yul\":29310:29316   */\n      dup3\n        /* \"#utility.yul\":29299:29308   */\n      dup10\n        /* \"#utility.yul\":29295:29317   */\n      add\n        /* \"#utility.yul\":29264:29327   */\n      tag_608\n      jump\t// in\n    tag_901:\n        /* \"#utility.yul\":29254:29327   */\n      swap5\n      pop\n        /* \"#utility.yul\":29209:29337   */\n      pop\n        /* \"#utility.yul\":29376:29378   */\n      0x40\n        /* \"#utility.yul\":29402:29466   */\n      tag_902\n        /* \"#utility.yul\":29458:29465   */\n      dup9\n        /* \"#utility.yul\":29449:29455   */\n      dup3\n        /* \"#utility.yul\":29438:29447   */\n      dup10\n        /* \"#utility.yul\":29434:29456   */\n      add\n        /* \"#utility.yul\":29402:29466   */\n      tag_609\n      jump\t// in\n    tag_902:\n        /* \"#utility.yul\":29392:29466   */\n      swap4\n      pop\n        /* \"#utility.yul\":29347:29476   */\n      pop\n        /* \"#utility.yul\":29515:29517   */\n      0x60\n        /* \"#utility.yul\":29541:29605   */\n      tag_903\n        /* \"#utility.yul\":29597:29604   */\n      dup9\n        /* \"#utility.yul\":29588:29594   */\n      dup3\n        /* \"#utility.yul\":29577:29586   */\n      dup10\n        /* \"#utility.yul\":29573:29595   */\n      add\n        /* \"#utility.yul\":29541:29605   */\n      tag_609\n      jump\t// in\n    tag_903:\n        /* \"#utility.yul\":29531:29605   */\n      swap3\n      pop\n        /* \"#utility.yul\":29486:29615   */\n      pop\n        /* \"#utility.yul\":29654:29657   */\n      0x80\n        /* \"#utility.yul\":29681:29744   */\n      tag_904\n        /* \"#utility.yul\":29736:29743   */\n      dup9\n        /* \"#utility.yul\":29727:29733   */\n      dup3\n        /* \"#utility.yul\":29716:29725   */\n      dup10\n        /* \"#utility.yul\":29712:29734   */\n      add\n        /* \"#utility.yul\":29681:29744   */\n      tag_605\n      jump\t// in\n    tag_904:\n        /* \"#utility.yul\":29671:29744   */\n      swap2\n      pop\n        /* \"#utility.yul\":29625:29754   */\n      pop\n        /* \"#utility.yul\":28790:29761   */\n      swap3\n      swap6\n      pop\n      swap3\n      swap6\n      swap1\n      swap4\n      pop\n      jump\t// out\n        /* \"#utility.yul\":29767:30323   */\n    tag_385:\n        /* \"#utility.yul\":29806:29813   */\n      0x00\n        /* \"#utility.yul\":29829:29848   */\n      tag_906\n        /* \"#utility.yul\":29846:29847   */\n      dup3\n        /* \"#utility.yul\":29829:29848   */\n      tag_606\n      jump\t// in\n    tag_906:\n        /* \"#utility.yul\":29824:29848   */\n      swap2\n      pop\n        /* \"#utility.yul\":29862:29881   */\n      tag_907\n        /* \"#utility.yul\":29879:29880   */\n      dup4\n        /* \"#utility.yul\":29862:29881   */\n      tag_606\n      jump\t// in\n    tag_907:\n        /* \"#utility.yul\":29857:29881   */\n      swap3\n      pop\n        /* \"#utility.yul\":29916:29917   */\n      dup3\n        /* \"#utility.yul\":29913:29914   */\n      dup3\n        /* \"#utility.yul\":29909:29918   */\n      mul\n        /* \"#utility.yul\":29938:29967   */\n      tag_908\n        /* \"#utility.yul\":29955:29966   */\n      dup2\n        /* \"#utility.yul\":29938:29967   */\n      tag_606\n      jump\t// in\n    tag_908:\n        /* \"#utility.yul\":29927:29967   */\n      swap2\n      pop\n        /* \"#utility.yul\":30025:30091   */\n      0x8000000000000000000000000000000000000000000000000000000000000000\n        /* \"#utility.yul\":30022:30023   */\n      dup5\n        /* \"#utility.yul\":30019:30092   */\n      eq\n        /* \"#utility.yul\":30015:30016   */\n      0x00\n        /* \"#utility.yul\":30012:30013   */\n      dup5\n        /* \"#utility.yul\":30008:30017   */\n      slt\n        /* \"#utility.yul\":30004:30093   */\n      and\n        /* \"#utility.yul\":30001:30116   */\n      iszero\n      tag_909\n      jumpi\n        /* \"#utility.yul\":30096:30114   */\n      tag_910\n      tag_578\n      jump\t// in\n    tag_910:\n        /* \"#utility.yul\":30001:30116   */\n    tag_909:\n        /* \"#utility.yul\":30266:30267   */\n      dup3\n        /* \"#utility.yul\":30257:30264   */\n      dup3\n        /* \"#utility.yul\":30252:30268   */\n      sdiv\n        /* \"#utility.yul\":30249:30250   */\n      dup5\n        /* \"#utility.yul\":30246:30269   */\n      eq\n        /* \"#utility.yul\":30226:30227   */\n      dup4\n        /* \"#utility.yul\":30219:30228   */\n      iszero\n        /* \"#utility.yul\":30199:30283   */\n      or\n        /* \"#utility.yul\":30176:30316   */\n      tag_911\n      jumpi\n        /* \"#utility.yul\":30296:30314   */\n      tag_912\n      tag_578\n      jump\t// in\n    tag_912:\n        /* \"#utility.yul\":30176:30316   */\n    tag_911:\n        /* \"#utility.yul\":29814:30323   */\n      pop\n        /* \"#utility.yul\":29767:30323   */\n      swap3\n      swap2\n      pop\n      pop\n      jump\t// out\n        /* \"#utility.yul\":30329:30511   */\n    tag_610:\n        /* \"#utility.yul\":30469:30503   */\n      0x446564756374696f6e2065786365656473206465706f73697420616d6f756e74\n        /* \"#utility.yul\":30465:30466   */\n      0x00\n        /* \"#utility.yul\":30457:30463   */\n      dup3\n        /* \"#utility.yul\":30453:30467   */\n      add\n        /* \"#utility.yul\":30446:30504   */\n      mstore\n        /* \"#utility.yul\":30329:30511   */\n      pop\n      jump\t// out\n        /* \"#utility.yul\":30517:30883   */\n    tag_611:\n        /* \"#utility.yul\":30659:30662   */\n      0x00\n        /* \"#utility.yul\":30680:30747   */\n      tag_915\n        /* \"#utility.yul\":30744:30746   */\n      0x20\n        /* \"#utility.yul\":30739:30742   */\n      dup4\n        /* \"#utility.yul\":30680:30747   */\n      tag_547\n      jump\t// in\n    tag_915:\n        /* \"#utility.yul\":30673:30747   */\n      swap2\n      pop\n        /* \"#utility.yul\":30756:30849   */\n      tag_916\n        /* \"#utility.yul\":30845:30848   */\n      dup3\n        /* \"#utility.yul\":30756:30849   */\n      tag_610\n      jump\t// in\n    tag_916:\n        /* \"#utility.yul\":30874:30876   */\n      0x20\n        /* \"#utility.yul\":30869:30872   */\n      dup3\n        /* \"#utility.yul\":30865:30877   */\n      add\n        /* \"#utility.yul\":30858:30877   */\n      swap1\n      pop\n        /* \"#utility.yul\":30517:30883   */\n      swap2\n      swap1\n      pop\n      jump\t// out\n        /* \"#utility.yul\":30889:31308   */\n    tag_392:\n        /* \"#utility.yul\":31055:31059   */\n      0x00\n        /* \"#utility.yul\":31093:31095   */\n      0x20\n        /* \"#utility.yul\":31082:31091   */\n      dup3\n        /* \"#utility.yul\":31078:31096   */\n      add\n        /* \"#utility.yul\":31070:31096   */\n      swap1\n      pop\n        /* \"#utility.yul\":31142:31151   */\n      dup2\n        /* \"#utility.yul\":31136:31140   */\n      dup2\n        /* \"#utility.yul\":31132:31152   */\n      sub\n        /* \"#utility.yul\":31128:31129   */\n      0x00\n        /* \"#utility.yul\":31117:31126   */\n      dup4\n        /* \"#utility.yul\":31113:31130   */\n      add\n        /* \"#utility.yul\":31106:31153   */\n      mstore\n        /* \"#utility.yul\":31170:31301   */\n      tag_918\n        /* \"#utility.yul\":31296:31300   */\n      dup2\n        /* \"#utility.yul\":31170:31301   */\n      tag_611\n      jump\t// in\n    tag_918:\n        /* \"#utility.yul\":31162:31301   */\n      swap1\n      pop\n        /* \"#utility.yul\":30889:31308   */\n      swap2\n      swap1\n      pop\n      jump\t// out\n        /* \"#utility.yul\":31314:31737   */\n    tag_398:\n        /* \"#utility.yul\":31455:31459   */\n      0x00\n        /* \"#utility.yul\":31493:31495   */\n      0x40\n        /* \"#utility.yul\":31482:31491   */\n      dup3\n        /* \"#utility.yul\":31478:31496   */\n      add\n        /* \"#utility.yul\":31470:31496   */\n      swap1\n      pop\n        /* \"#utility.yul\":31506:31577   */\n      tag_920\n        /* \"#utility.yul\":31574:31575   */\n      0x00\n        /* \"#utility.yul\":31563:31572   */\n      dup4\n        /* \"#utility.yul\":31559:31576   */\n      add\n        /* \"#utility.yul\":31550:31556   */\n      dup6\n        /* \"#utility.yul\":31506:31577   */\n      tag_561\n      jump\t// in\n    tag_920:\n        /* \"#utility.yul\":31624:31633   */\n      dup2\n        /* \"#utility.yul\":31618:31622   */\n      dup2\n        /* \"#utility.yul\":31614:31634   */\n      sub\n        /* \"#utility.yul\":31609:31611   */\n      0x20\n        /* \"#utility.yul\":31598:31607   */\n      dup4\n        /* \"#utility.yul\":31594:31612   */\n      add\n        /* \"#utility.yul\":31587:31635   */\n      mstore\n        /* \"#utility.yul\":31652:31730   */\n      tag_921\n        /* \"#utility.yul\":31725:31729   */\n      dup2\n        /* \"#utility.yul\":31716:31722   */\n      dup5\n        /* \"#utility.yul\":31652:31730   */\n      tag_549\n      jump\t// in\n    tag_921:\n        /* \"#utility.yul\":31644:31730   */\n      swap1\n      pop\n        /* \"#utility.yul\":31314:31737   */\n      swap4\n      swap3\n      pop\n      pop\n      pop\n      jump\t// out\n        /* \"#utility.yul\":31743:31918   */\n    tag_612:\n        /* \"#utility.yul\":31883:31910   */\n      0x537461626c65636f696e207061796d656e74206661696c656400000000000000\n        /* \"#utility.yul\":31879:31880   */\n      0x00\n        /* \"#utility.yul\":31871:31877   */\n      dup3\n        /* \"#utility.yul\":31867:31881   */\n      add\n        /* \"#utility.yul\":31860:31911   */\n      mstore\n        /* \"#utility.yul\":31743:31918   */\n      pop\n      jump\t// out\n        /* \"#utility.yul\":31924:32290   */\n    tag_613:\n        /* \"#utility.yul\":32066:32069   */\n      0x00\n        /* \"#utility.yul\":32087:32154   */\n      tag_924\n        /* \"#utility.yul\":32151:32153   */\n      0x19\n        /* \"#utility.yul\":32146:32149   */\n      dup4\n        /* \"#utility.yul\":32087:32154   */\n      tag_547\n      jump\t// in\n    tag_924:\n        /* \"#utility.yul\":32080:32154   */\n      swap2\n      pop\n        /* \"#utility.yul\":32163:32256   */\n      tag_925\n        /* \"#utility.yul\":32252:32255   */\n      dup3\n        /* \"#utility.yul\":32163:32256   */\n      tag_612\n      jump\t// in\n    tag_925:\n        /* \"#utility.yul\":32281:32283   */\n      0x20\n        /* \"#utility.yul\":32276:32279   */\n      dup3\n        /* \"#utility.yul\":32272:32284   */\n      add\n        /* \"#utility.yul\":32265:32284   */\n      swap1\n      pop\n        /* \"#utility.yul\":31924:32290   */\n      swap2\n      swap1\n      pop\n      jump\t// out\n        /* \"#utility.yul\":32296:32715   */\n    tag_422:\n        /* \"#utility.yul\":32462:32466   */\n      0x00\n        /* \"#utility.yul\":32500:32502   */\n      0x20\n        /* \"#utility.yul\":32489:32498   */\n      dup3\n        /* \"#utility.yul\":32485:32503   */\n      add\n        /* \"#utility.yul\":32477:32503   */\n      swap1\n      pop\n        /* \"#utility.yul\":32549:32558   */\n      dup2\n        /* \"#utility.yul\":32543:32547   */\n      dup2\n        /* \"#utility.yul\":32539:32559   */\n      sub\n        /* \"#utility.yul\":32535:32536   */\n      0x00\n        /* \"#utility.yul\":32524:32533   */\n      dup4\n        /* \"#utility.yul\":32520:32537   */\n      add\n        /* \"#utility.yul\":32513:32560   */\n      mstore\n        /* \"#utility.yul\":32577:32708   */\n      tag_927\n        /* \"#utility.yul\":32703:32707   */\n      dup2\n        /* \"#utility.yul\":32577:32708   */\n      tag_613\n      jump\t// in\n    tag_927:\n        /* \"#utility.yul\":32569:32708   */\n      swap1\n      pop\n        /* \"#utility.yul\":32296:32715   */\n      swap2\n      swap1\n      pop\n      jump\t// out\n        /* \"#utility.yul\":32721:32899   */\n    tag_614:\n        /* \"#utility.yul\":32861:32891   */\n      0x436f6e74726163742068617320616c7265616479206578706972656400000000\n        /* \"#utility.yul\":32857:32858   */\n      0x00\n        /* \"#utility.yul\":32849:32855   */\n      dup3\n        /* \"#utility.yul\":32845:32859   */\n      add\n        /* \"#utility.yul\":32838:32892   */\n      mstore\n        /* \"#utility.yul\":32721:32899   */\n      pop\n      jump\t// out\n        /* \"#utility.yul\":32905:33271   */\n    tag_615:\n        /* \"#utility.yul\":33047:33050   */\n      0x00\n        /* \"#utility.yul\":33068:33135   */\n      tag_930\n        /* \"#utility.yul\":33132:33134   */\n      0x1c\n        /* \"#utility.yul\":33127:33130   */\n      dup4\n        /* \"#utility.yul\":33068:33135   */\n      tag_547\n      jump\t// in\n    tag_930:\n        /* \"#utility.yul\":33061:33135   */\n      swap2\n      pop\n        /* \"#utility.yul\":33144:33237   */\n      tag_931\n        /* \"#utility.yul\":33233:33236   */\n      dup3\n        /* \"#utility.yul\":33144:33237   */\n      tag_614\n      jump\t// in\n    tag_931:\n        /* \"#utility.yul\":33262:33264   */\n      0x20\n        /* \"#utility.yul\":33257:33260   */\n      dup3\n        /* \"#utility.yul\":33253:33265   */\n      add\n        /* \"#utility.yul\":33246:33265   */\n      swap1\n      pop\n        /* \"#utility.yul\":32905:33271   */\n      swap2\n      swap1\n      pop\n      jump\t// out\n        /* \"#utility.yul\":33277:33696   */\n    tag_454:\n        /* \"#utility.yul\":33443:33447   */\n      0x00\n        /* \"#utility.yul\":33481:33483   */\n      0x20\n        /* \"#utility.yul\":33470:33479   */\n      dup3\n        /* \"#utility.yul\":33466:33484   */\n      add\n        /* \"#utility.yul\":33458:33484   */\n      swap1\n      pop\n        /* \"#utility.yul\":33530:33539   */\n      dup2\n        /* \"#utility.yul\":33524:33528   */\n      dup2\n        /* \"#utility.yul\":33520:33540   */\n      sub\n        /* \"#utility.yul\":33516:33517   */\n      0x00\n        /* \"#utility.yul\":33505:33514   */\n      dup4\n        /* \"#utility.yul\":33501:33518   */\n      add\n        /* \"#utility.yul\":33494:33541   */\n      mstore\n        /* \"#utility.yul\":33558:33689   */\n      tag_933\n        /* \"#utility.yul\":33684:33688   */\n      dup2\n        /* \"#utility.yul\":33558:33689   */\n      tag_615\n      jump\t// in\n    tag_933:\n        /* \"#utility.yul\":33550:33689   */\n      swap1\n      pop\n        /* \"#utility.yul\":33277:33696   */\n      swap2\n      swap1\n      pop\n      jump\t// out\n        /* \"#utility.yul\":33702:33878   */\n    tag_616:\n        /* \"#utility.yul\":33842:33870   */\n      0x5761726e696e67206e6f74206170706c696361626c6520796574000000000000\n        /* \"#utility.yul\":33838:33839   */\n      0x00\n        /* \"#utility.yul\":33830:33836   */\n      dup3\n        /* \"#utility.yul\":33826:33840   */\n      add\n        /* \"#utility.yul\":33819:33871   */\n      mstore\n        /* \"#utility.yul\":33702:33878   */\n      pop\n      jump\t// out\n        /* \"#utility.yul\":33884:34250   */\n    tag_617:\n        /* \"#utility.yul\":34026:34029   */\n      0x00\n        /* \"#utility.yul\":34047:34114   */\n      tag_936\n        /* \"#utility.yul\":34111:34113   */\n      0x1a\n        /* \"#utility.yul\":34106:34109   */\n      dup4\n        /* \"#utility.yul\":34047:34114   */\n      tag_547\n      jump\t// in\n    tag_936:\n        /* \"#utility.yul\":34040:34114   */\n      swap2\n      pop\n        /* \"#utility.yul\":34123:34216   */\n      tag_937\n        /* \"#utility.yul\":34212:34215   */\n      dup3\n        /* \"#utility.yul\":34123:34216   */\n      tag_616\n      jump\t// in\n    tag_937:\n        /* \"#utility.yul\":34241:34243   */\n      0x20\n        /* \"#utility.yul\":34236:34239   */\n      dup3\n        /* \"#utility.yul\":34232:34244   */\n      add\n        /* \"#utility.yul\":34225:34244   */\n      swap1\n      pop\n        /* \"#utility.yul\":33884:34250   */\n      swap2\n      swap1\n      pop\n      jump\t// out\n        /* \"#utility.yul\":34256:34675   */\n    tag_469:\n        /* \"#utility.yul\":34422:34426   */\n      0x00\n        /* \"#utility.yul\":34460:34462   */\n      0x20\n        /* \"#utility.yul\":34449:34458   */\n      dup3\n        /* \"#utility.yul\":34445:34463   */\n      add\n        /* \"#utility.yul\":34437:34463   */\n      swap1\n      pop\n        /* \"#utility.yul\":34509:34518   */\n      dup2\n        /* \"#utility.yul\":34503:34507   */\n      dup2\n        /* \"#utility.yul\":34499:34519   */\n      sub\n        /* \"#utility.yul\":34495:34496   */\n      0x00\n        /* \"#utility.yul\":34484:34493   */\n      dup4\n        /* \"#utility.yul\":34480:34497   */\n      add\n        /* \"#utility.yul\":34473:34520   */\n      mstore\n        /* \"#utility.yul\":34537:34668   */\n      tag_939\n        /* \"#utility.yul\":34663:34667   */\n      dup2\n        /* \"#utility.yul\":34537:34668   */\n      tag_617\n      jump\t// in\n    tag_939:\n        /* \"#utility.yul\":34529:34668   */\n      swap1\n      pop\n        /* \"#utility.yul\":34256:34675   */\n      swap2\n      swap1\n      pop\n      jump\t// out\n        /* \"#utility.yul\":34681:34855   */\n    tag_618:\n        /* \"#utility.yul\":34821:34847   */\n      0x5465726d696e6174696f6e206e6f742073636864756c65640000000000000000\n        /* \"#utility.yul\":34817:34818   */\n      0x00\n        /* \"#utility.yul\":34809:34815   */\n      dup3\n        /* \"#utility.yul\":34805:34819   */\n      add\n        /* \"#utility.yul\":34798:34848   */\n      mstore\n        /* \"#utility.yul\":34681:34855   */\n      pop\n      jump\t// out\n        /* \"#utility.yul\":34861:35227   */\n    tag_619:\n        /* \"#utility.yul\":35003:35006   */\n      0x00\n        /* \"#utility.yul\":35024:35091   */\n      tag_942\n        /* \"#utility.yul\":35088:35090   */\n      0x18\n        /* \"#utility.yul\":35083:35086   */\n      dup4\n        /* \"#utility.yul\":35024:35091   */\n      tag_547\n      jump\t// in\n    tag_942:\n        /* \"#utility.yul\":35017:35091   */\n      swap2\n      pop\n        /* \"#utility.yul\":35100:35193   */\n      tag_943\n        /* \"#utility.yul\":35189:35192   */\n      dup3\n        /* \"#utility.yul\":35100:35193   */\n      tag_618\n      jump\t// in\n    tag_943:\n        /* \"#utility.yul\":35218:35220   */\n      0x20\n        /* \"#utility.yul\":35213:35216   */\n      dup3\n        /* \"#utility.yul\":35209:35221   */\n      add\n        /* \"#utility.yul\":35202:35221   */\n      swap1\n      pop\n        /* \"#utility.yul\":34861:35227   */\n      swap2\n      swap1\n      pop\n      jump\t// out\n        /* \"#utility.yul\":35233:35652   */\n    tag_480:\n        /* \"#utility.yul\":35399:35403   */\n      0x00\n        /* \"#utility.yul\":35437:35439   */\n      0x20\n        /* \"#utility.yul\":35426:35435   */\n      dup3\n        /* \"#utility.yul\":35422:35440   */\n      add\n        /* \"#utility.yul\":35414:35440   */\n      swap1\n      pop\n        /* \"#utility.yul\":35486:35495   */\n      dup2\n        /* \"#utility.yul\":35480:35484   */\n      dup2\n        /* \"#utility.yul\":35476:35496   */\n      sub\n        /* \"#utility.yul\":35472:35473   */\n      0x00\n        /* \"#utility.yul\":35461:35470   */\n      dup4\n        /* \"#utility.yul\":35457:35474   */\n      add\n        /* \"#utility.yul\":35450:35497   */\n      mstore\n        /* \"#utility.yul\":35514:35645   */\n      tag_945\n        /* \"#utility.yul\":35640:35644   */\n      dup2\n        /* \"#utility.yul\":35514:35645   */\n      tag_619\n      jump\t// in\n    tag_945:\n        /* \"#utility.yul\":35506:35645   */\n      swap1\n      pop\n        /* \"#utility.yul\":35233:35652   */\n      swap2\n      swap1\n      pop\n      jump\t// out\n        /* \"#utility.yul\":35658:35838   */\n    tag_620:\n        /* \"#utility.yul\":35798:35830   */\n      0x5465726d696e6174696f6e20706572696f64206e6f7420726561636865640000\n        /* \"#utility.yul\":35794:35795   */\n      0x00\n        /* \"#utility.yul\":35786:35792   */\n      dup3\n        /* \"#utility.yul\":35782:35796   */\n      add\n        /* \"#utility.yul\":35775:35831   */\n      mstore\n        /* \"#utility.yul\":35658:35838   */\n      pop\n      jump\t// out\n        /* \"#utility.yul\":35844:36210   */\n    tag_621:\n        /* \"#utility.yul\":35986:35989   */\n      0x00\n        /* \"#utility.yul\":36007:36074   */\n      tag_948\n        /* \"#utility.yul\":36071:36073   */\n      0x1e\n        /* \"#utility.yul\":36066:36069   */\n      dup4\n        /* \"#utility.yul\":36007:36074   */\n      tag_547\n      jump\t// in\n    tag_948:\n        /* \"#utility.yul\":36000:36074   */\n      swap2\n      pop\n        /* \"#utility.yul\":36083:36176   */\n      tag_949\n        /* \"#utility.yul\":36172:36175   */\n      dup3\n        /* \"#utility.yul\":36083:36176   */\n      tag_620\n      jump\t// in\n    tag_949:\n        /* \"#utility.yul\":36201:36203   */\n      0x20\n        /* \"#utility.yul\":36196:36199   */\n      dup3\n        /* \"#utility.yul\":36192:36204   */\n      add\n        /* \"#utility.yul\":36185:36204   */\n      swap1\n      pop\n        /* \"#utility.yul\":35844:36210   */\n      swap2\n      swap1\n      pop\n      jump\t// out\n        /* \"#utility.yul\":36216:36635   */\n    tag_483:\n        /* \"#utility.yul\":36382:36386   */\n      0x00\n        /* \"#utility.yul\":36420:36422   */\n      0x20\n        /* \"#utility.yul\":36409:36418   */\n      dup3\n        /* \"#utility.yul\":36405:36423   */\n      add\n        /* \"#utility.yul\":36397:36423   */\n      swap1\n      pop\n        /* \"#utility.yul\":36469:36478   */\n      dup2\n        /* \"#utility.yul\":36463:36467   */\n      dup2\n        /* \"#utility.yul\":36459:36479   */\n      sub\n        /* \"#utility.yul\":36455:36456   */\n      0x00\n        /* \"#utility.yul\":36444:36453   */\n      dup4\n        /* \"#utility.yul\":36440:36457   */\n      add\n        /* \"#utility.yul\":36433:36480   */\n      mstore\n        /* \"#utility.yul\":36497:36628   */\n      tag_951\n        /* \"#utility.yul\":36623:36627   */\n      dup2\n        /* \"#utility.yul\":36497:36628   */\n      tag_621\n      jump\t// in\n    tag_951:\n        /* \"#utility.yul\":36489:36628   */\n      swap1\n      pop\n        /* \"#utility.yul\":36216:36635   */\n      swap2\n      swap1\n      pop\n      jump\t// out\n        /* \"#utility.yul\":36641:36930   */\n    tag_622:\n        /* \"#utility.yul\":36781:36815   */\n      0x4d6f7265207468616e2033207061796d656e74732077657265206e6f74207265\n        /* \"#utility.yul\":36777:36778   */\n      0x00\n        /* \"#utility.yul\":36769:36775   */\n      dup3\n        /* \"#utility.yul\":36765:36779   */\n      add\n        /* \"#utility.yul\":36758:36816   */\n      mstore\n        /* \"#utility.yul\":36850:36884   */\n      0x67697374657265642e20436f6e7472616374206973207465726d696e61746564\n        /* \"#utility.yul\":36845:36847   */\n      0x20\n        /* \"#utility.yul\":36837:36843   */\n      dup3\n        /* \"#utility.yul\":36833:36848   */\n      add\n        /* \"#utility.yul\":36826:36885   */\n      mstore\n        /* \"#utility.yul\":36919:36922   */\n      0x2e00000000000000000000000000000000000000000000000000000000000000\n        /* \"#utility.yul\":36914:36916   */\n      0x40\n        /* \"#utility.yul\":36906:36912   */\n      dup3\n        /* \"#utility.yul\":36902:36917   */\n      add\n        /* \"#utility.yul\":36895:36923   */\n      mstore\n        /* \"#utility.yul\":36641:36930   */\n      pop\n      jump\t// out\n        /* \"#utility.yul\":36936:37302   */\n    tag_623:\n        /* \"#utility.yul\":37078:37081   */\n      0x00\n        /* \"#utility.yul\":37099:37166   */\n      tag_954\n        /* \"#utility.yul\":37163:37165   */\n      0x41\n        /* \"#utility.yul\":37158:37161   */\n      dup4\n        /* \"#utility.yul\":37099:37166   */\n      tag_547\n      jump\t// in\n    tag_954:\n        /* \"#utility.yul\":37092:37166   */\n      swap2\n      pop\n        /* \"#utility.yul\":37175:37268   */\n      tag_955\n        /* \"#utility.yul\":37264:37267   */\n      dup3\n        /* \"#utility.yul\":37175:37268   */\n      tag_622\n      jump\t// in\n    tag_955:\n        /* \"#utility.yul\":37293:37295   */\n      0x60\n        /* \"#utility.yul\":37288:37291   */\n      dup3\n        /* \"#utility.yul\":37284:37296   */\n      add\n        /* \"#utility.yul\":37277:37296   */\n      swap1\n      pop\n        /* \"#utility.yul\":36936:37302   */\n      swap2\n      swap1\n      pop\n      jump\t// out\n        /* \"#utility.yul\":37308:37727   */\n    tag_487:\n        /* \"#utility.yul\":37474:37478   */\n      0x00\n        /* \"#utility.yul\":37512:37514   */\n      0x20\n        /* \"#utility.yul\":37501:37510   */\n      dup3\n        /* \"#utility.yul\":37497:37515   */\n      add\n        /* \"#utility.yul\":37489:37515   */\n      swap1\n      pop\n        /* \"#utility.yul\":37561:37570   */\n      dup2\n        /* \"#utility.yul\":37555:37559   */\n      dup2\n        /* \"#utility.yul\":37551:37571   */\n      sub\n        /* \"#utility.yul\":37547:37548   */\n      0x00\n        /* \"#utility.yul\":37536:37545   */\n      dup4\n        /* \"#utility.yul\":37532:37549   */\n      add\n        /* \"#utility.yul\":37525:37572   */\n      mstore\n        /* \"#utility.yul\":37589:37720   */\n      tag_957\n        /* \"#utility.yul\":37715:37719   */\n      dup2\n        /* \"#utility.yul\":37589:37720   */\n      tag_623\n      jump\t// in\n    tag_957:\n        /* \"#utility.yul\":37581:37720   */\n      swap1\n      pop\n        /* \"#utility.yul\":37308:37727   */\n      swap2\n      swap1\n      pop\n      jump\t// out\n        /* \"#utility.yul\":37733:37910   */\n    tag_624:\n        /* \"#utility.yul\":37873:37902   */\n      0x4175746f207061796d656e74206e6f7420617574686f72697a65640000000000\n        /* \"#utility.yul\":37869:37870   */\n      0x00\n        /* \"#utility.yul\":37861:37867   */\n      dup3\n        /* \"#utility.yul\":37857:37871   */\n      add\n        /* \"#utility.yul\":37850:37903   */\n      mstore\n        /* \"#utility.yul\":37733:37910   */\n      pop\n      jump\t// out\n        /* \"#utility.yul\":37916:38282   */\n    tag_625:\n        /* \"#utility.yul\":38058:38061   */\n      0x00\n        /* \"#utility.yul\":38079:38146   */\n      tag_960\n        /* \"#utility.yul\":38143:38145   */\n      0x1b\n        /* \"#utility.yul\":38138:38141   */\n      dup4\n        /* \"#utility.yul\":38079:38146   */\n      tag_547\n      jump\t// in\n    tag_960:\n        /* \"#utility.yul\":38072:38146   */\n      swap2\n      pop\n        /* \"#utility.yul\":38155:38248   */\n      tag_961\n        /* \"#utility.yul\":38244:38247   */\n      dup3\n        /* \"#utility.yul\":38155:38248   */\n      tag_624\n      jump\t// in\n    tag_961:\n        /* \"#utility.yul\":38273:38275   */\n      0x20\n        /* \"#utility.yul\":38268:38271   */\n      dup3\n        /* \"#utility.yul\":38264:38276   */\n      add\n        /* \"#utility.yul\":38257:38276   */\n      swap1\n      pop\n        /* \"#utility.yul\":37916:38282   */\n      swap2\n      swap1\n      pop\n      jump\t// out\n        /* \"#utility.yul\":38288:38707   */\n    tag_494:\n        /* \"#utility.yul\":38454:38458   */\n      0x00\n        /* \"#utility.yul\":38492:38494   */\n      0x20\n        /* \"#utility.yul\":38481:38490   */\n      dup3\n        /* \"#utility.yul\":38477:38495   */\n      add\n        /* \"#utility.yul\":38469:38495   */\n      swap1\n      pop\n        /* \"#utility.yul\":38541:38550   */\n      dup2\n        /* \"#utility.yul\":38535:38539   */\n      dup2\n        /* \"#utility.yul\":38531:38551   */\n      sub\n        /* \"#utility.yul\":38527:38528   */\n      0x00\n        /* \"#utility.yul\":38516:38525   */\n      dup4\n        /* \"#utility.yul\":38512:38529   */\n      add\n        /* \"#utility.yul\":38505:38552   */\n      mstore\n        /* \"#utility.yul\":38569:38700   */\n      tag_963\n        /* \"#utility.yul\":38695:38699   */\n      dup2\n        /* \"#utility.yul\":38569:38700   */\n      tag_625\n      jump\t// in\n    tag_963:\n        /* \"#utility.yul\":38561:38700   */\n      swap1\n      pop\n        /* \"#utility.yul\":38288:38707   */\n      swap2\n      swap1\n      pop\n      jump\t// out\n        /* \"#utility.yul\":38713:38878   */\n    tag_626:\n        /* \"#utility.yul\":38853:38870   */\n      0x4175746f20706179206661696c65640000000000000000000000000000000000\n        /* \"#utility.yul\":38849:38850   */\n      0x00\n        /* \"#utility.yul\":38841:38847   */\n      dup3\n        /* \"#utility.yul\":38837:38851   */\n      add\n        /* \"#utility.yul\":38830:38871   */\n      mstore\n        /* \"#utility.yul\":38713:38878   */\n      pop\n      jump\t// out\n        /* \"#utility.yul\":38884:39250   */\n    tag_627:\n        /* \"#utility.yul\":39026:39029   */\n      0x00\n        /* \"#utility.yul\":39047:39114   */\n      tag_966\n        /* \"#utility.yul\":39111:39113   */\n      0x0f\n        /* \"#utility.yul\":39106:39109   */\n      dup4\n        /* \"#utility.yul\":39047:39114   */\n      tag_547\n      jump\t// in\n    tag_966:\n        /* \"#utility.yul\":39040:39114   */\n      swap2\n      pop\n        /* \"#utility.yul\":39123:39216   */\n      tag_967\n        /* \"#utility.yul\":39212:39215   */\n      dup3\n        /* \"#utility.yul\":39123:39216   */\n      tag_626\n      jump\t// in\n    tag_967:\n        /* \"#utility.yul\":39241:39243   */\n      0x20\n        /* \"#utility.yul\":39236:39239   */\n      dup3\n        /* \"#utility.yul\":39232:39244   */\n      add\n        /* \"#utility.yul\":39225:39244   */\n      swap1\n      pop\n        /* \"#utility.yul\":38884:39250   */\n      swap2\n      swap1\n      pop\n      jump\t// out\n        /* \"#utility.yul\":39256:39675   */\n    tag_507:\n        /* \"#utility.yul\":39422:39426   */\n      0x00\n        /* \"#utility.yul\":39460:39462   */\n      0x20\n        /* \"#utility.yul\":39449:39458   */\n      dup3\n        /* \"#utility.yul\":39445:39463   */\n      add\n        /* \"#utility.yul\":39437:39463   */\n      swap1\n      pop\n        /* \"#utility.yul\":39509:39518   */\n      dup2\n        /* \"#utility.yul\":39503:39507   */\n      dup2\n        /* \"#utility.yul\":39499:39519   */\n      sub\n        /* \"#utility.yul\":39495:39496   */\n      0x00\n        /* \"#utility.yul\":39484:39493   */\n      dup4\n        /* \"#utility.yul\":39480:39497   */\n      add\n        /* \"#utility.yul\":39473:39520   */\n      mstore\n        /* \"#utility.yul\":39537:39668   */\n      tag_969\n        /* \"#utility.yul\":39663:39667   */\n      dup2\n        /* \"#utility.yul\":39537:39668   */\n      tag_627\n      jump\t// in\n    tag_969:\n        /* \"#utility.yul\":39529:39668   */\n      swap1\n      pop\n        /* \"#utility.yul\":39256:39675   */\n      swap2\n      swap1\n      pop\n      jump\t// out\n        /* \"#utility.yul\":39681:39856   */\n    tag_628:\n        /* \"#utility.yul\":39821:39848   */\n      0x5465726d696e6174696f6e206e6f74207363686564756c656400000000000000\n        /* \"#utility.yul\":39817:39818   */\n      0x00\n        /* \"#utility.yul\":39809:39815   */\n      dup3\n        /* \"#utility.yul\":39805:39819   */\n      add\n        /* \"#utility.yul\":39798:39849   */\n      mstore\n        /* \"#utility.yul\":39681:39856   */\n      pop\n      jump\t// out\n        /* \"#utility.yul\":39862:40228   */\n    tag_629:\n        /* \"#utility.yul\":40004:40007   */\n      0x00\n        /* \"#utility.yul\":40025:40092   */\n      tag_972\n        /* \"#utility.yul\":40089:40091   */\n      0x19\n        /* \"#utility.yul\":40084:40087   */\n      dup4\n        /* \"#utility.yul\":40025:40092   */\n      tag_547\n      jump\t// in\n    tag_972:\n        /* \"#utility.yul\":40018:40092   */\n      swap2\n      pop\n        /* \"#utility.yul\":40101:40194   */\n      tag_973\n        /* \"#utility.yul\":40190:40193   */\n      dup3\n        /* \"#utility.yul\":40101:40194   */\n      tag_628\n      jump\t// in\n    tag_973:\n        /* \"#utility.yul\":40219:40221   */\n      0x20\n        /* \"#utility.yul\":40214:40217   */\n      dup3\n        /* \"#utility.yul\":40210:40222   */\n      add\n        /* \"#utility.yul\":40203:40222   */\n      swap1\n      pop\n        /* \"#utility.yul\":39862:40228   */\n      swap2\n      swap1\n      pop\n      jump\t// out\n        /* \"#utility.yul\":40234:40653   */\n    tag_517:\n        /* \"#utility.yul\":40400:40404   */\n      0x00\n        /* \"#utility.yul\":40438:40440   */\n      0x20\n        /* \"#utility.yul\":40427:40436   */\n      dup3\n        /* \"#utility.yul\":40423:40441   */\n      add\n        /* \"#utility.yul\":40415:40441   */\n      swap1\n      pop\n        /* \"#utility.yul\":40487:40496   */\n      dup2\n        /* \"#utility.yul\":40481:40485   */\n      dup2\n        /* \"#utility.yul\":40477:40497   */\n      sub\n        /* \"#utility.yul\":40473:40474   */\n      0x00\n        /* \"#utility.yul\":40462:40471   */\n      dup4\n        /* \"#utility.yul\":40458:40475   */\n      add\n        /* \"#utility.yul\":40451:40498   */\n      mstore\n        /* \"#utility.yul\":40515:40646   */\n      tag_975\n        /* \"#utility.yul\":40641:40645   */\n      dup2\n        /* \"#utility.yul\":40515:40646   */\n      tag_629\n      jump\t// in\n    tag_975:\n        /* \"#utility.yul\":40507:40646   */\n      swap1\n      pop\n        /* \"#utility.yul\":40234:40653   */\n      swap2\n      swap1\n      pop\n      jump\t// out\n        /* \"#utility.yul\":40659:40883   */\n    tag_630:\n        /* \"#utility.yul\":40799:40833   */\n      0x54656e616e74207465726d696e6174656420746865206c656173652061677265\n        /* \"#utility.yul\":40795:40796   */\n      0x00\n        /* \"#utility.yul\":40787:40793   */\n      dup3\n        /* \"#utility.yul\":40783:40797   */\n      add\n        /* \"#utility.yul\":40776:40834   */\n      mstore\n        /* \"#utility.yul\":40868:40875   */\n      0x656d656e74000000000000000000000000000000000000000000000000000000\n        /* \"#utility.yul\":40863:40865   */\n      0x20\n        /* \"#utility.yul\":40855:40861   */\n      dup3\n        /* \"#utility.yul\":40851:40866   */\n      add\n        /* \"#utility.yul\":40844:40876   */\n      mstore\n        /* \"#utility.yul\":40659:40883   */\n      pop\n      jump\t// out\n        /* \"#utility.yul\":40889:41255   */\n    tag_631:\n        /* \"#utility.yul\":41031:41034   */\n      0x00\n        /* \"#utility.yul\":41052:41119   */\n      tag_978\n        /* \"#utility.yul\":41116:41118   */\n      0x25\n        /* \"#utility.yul\":41111:41114   */\n      dup4\n        /* \"#utility.yul\":41052:41119   */\n      tag_547\n      jump\t// in\n    tag_978:\n        /* \"#utility.yul\":41045:41119   */\n      swap2\n      pop\n        /* \"#utility.yul\":41128:41221   */\n      tag_979\n        /* \"#utility.yul\":41217:41220   */\n      dup3\n        /* \"#utility.yul\":41128:41221   */\n      tag_630\n      jump\t// in\n    tag_979:\n        /* \"#utility.yul\":41246:41248   */\n      0x40\n        /* \"#utility.yul\":41241:41244   */\n      dup3\n        /* \"#utility.yul\":41237:41249   */\n      add\n        /* \"#utility.yul\":41230:41249   */\n      swap1\n      pop\n        /* \"#utility.yul\":40889:41255   */\n      swap2\n      swap1\n      pop\n      jump\t// out\n        /* \"#utility.yul\":41261:41680   */\n    tag_523:\n        /* \"#utility.yul\":41427:41431   */\n      0x00\n        /* \"#utility.yul\":41465:41467   */\n      0x20\n        /* \"#utility.yul\":41454:41463   */\n      dup3\n        /* \"#utility.yul\":41450:41468   */\n      add\n        /* \"#utility.yul\":41442:41468   */\n      swap1\n      pop\n        /* \"#utility.yul\":41514:41523   */\n      dup2\n        /* \"#utility.yul\":41508:41512   */\n      dup2\n        /* \"#utility.yul\":41504:41524   */\n      sub\n        /* \"#utility.yul\":41500:41501   */\n      0x00\n        /* \"#utility.yul\":41489:41498   */\n      dup4\n        /* \"#utility.yul\":41485:41502   */\n      add\n        /* \"#utility.yul\":41478:41525   */\n      mstore\n        /* \"#utility.yul\":41542:41673   */\n      tag_981\n        /* \"#utility.yul\":41668:41672   */\n      dup2\n        /* \"#utility.yul\":41542:41673   */\n      tag_631\n      jump\t// in\n    tag_981:\n        /* \"#utility.yul\":41534:41673   */\n      swap1\n      pop\n        /* \"#utility.yul\":41261:41680   */\n      swap2\n      swap1\n      pop\n      jump\t// out\n        /* \"#utility.yul\":41686:41906   */\n    tag_632:\n        /* \"#utility.yul\":41826:41860   */\n      0x54656e6e616e7420686173206e6f742061736b656420666f722072656e657761\n        /* \"#utility.yul\":41822:41823   */\n      0x00\n        /* \"#utility.yul\":41814:41820   */\n      dup3\n        /* \"#utility.yul\":41810:41824   */\n      add\n        /* \"#utility.yul\":41803:41861   */\n      mstore\n        /* \"#utility.yul\":41895:41898   */\n      0x6c00000000000000000000000000000000000000000000000000000000000000\n        /* \"#utility.yul\":41890:41892   */\n      0x20\n        /* \"#utility.yul\":41882:41888   */\n      dup3\n        /* \"#utility.yul\":41878:41893   */\n      add\n        /* \"#utility.yul\":41871:41899   */\n      mstore\n        /* \"#utility.yul\":41686:41906   */\n      pop\n      jump\t// out\n        /* \"#utility.yul\":41912:42278   */\n    tag_633:\n        /* \"#utility.yul\":42054:42057   */\n      0x00\n        /* \"#utility.yul\":42075:42142   */\n      tag_984\n        /* \"#utility.yul\":42139:42141   */\n      0x21\n        /* \"#utility.yul\":42134:42137   */\n      dup4\n        /* \"#utility.yul\":42075:42142   */\n      tag_547\n      jump\t// in\n    tag_984:\n        /* \"#utility.yul\":42068:42142   */\n      swap2\n      pop\n        /* \"#utility.yul\":42151:42244   */\n      tag_985\n        /* \"#utility.yul\":42240:42243   */\n      dup3\n        /* \"#utility.yul\":42151:42244   */\n      tag_632\n      jump\t// in\n    tag_985:\n        /* \"#utility.yul\":42269:42271   */\n      0x40\n        /* \"#utility.yul\":42264:42267   */\n      dup3\n        /* \"#utility.yul\":42260:42272   */\n      add\n        /* \"#utility.yul\":42253:42272   */\n      swap1\n      pop\n        /* \"#utility.yul\":41912:42278   */\n      swap2\n      swap1\n      pop\n      jump\t// out\n        /* \"#utility.yul\":42284:42703   */\n    tag_530:\n        /* \"#utility.yul\":42450:42454   */\n      0x00\n        /* \"#utility.yul\":42488:42490   */\n      0x20\n        /* \"#utility.yul\":42477:42486   */\n      dup3\n        /* \"#utility.yul\":42473:42491   */\n      add\n        /* \"#utility.yul\":42465:42491   */\n      swap1\n      pop\n        /* \"#utility.yul\":42537:42546   */\n      dup2\n        /* \"#utility.yul\":42531:42535   */\n      dup2\n        /* \"#utility.yul\":42527:42547   */\n      sub\n        /* \"#utility.yul\":42523:42524   */\n      0x00\n        /* \"#utility.yul\":42512:42521   */\n      dup4\n        /* \"#utility.yul\":42508:42525   */\n      add\n        /* \"#utility.yul\":42501:42548   */\n      mstore\n        /* \"#utility.yul\":42565:42696   */\n      tag_987\n        /* \"#utility.yul\":42691:42695   */\n      dup2\n        /* \"#utility.yul\":42565:42696   */\n      tag_633\n      jump\t// in\n    tag_987:\n        /* \"#utility.yul\":42557:42696   */\n      swap1\n      pop\n        /* \"#utility.yul\":42284:42703   */\n      swap2\n      swap1\n      pop\n      jump\t// out\n\n    auxdata: 0xa2646970667358221220876dd46391d1b9ce01812432542c8cbe3ca185c4e01db8be07fc64998c9ef12464736f6c634300081a0033\n}\n",
				"bytecode": {
					"linkReferences": {},
					"object": "608060405234801561000f575f80fd5b50604051614b9b380380614b9b833981810160405281019061003191906104b3565b335f806101000a81548173ffffffffffffffffffffffffffffffffffffffff021916908373ffffffffffffffffffffffffffffffffffffffff1602179055508760015f6101000a81548173ffffffffffffffffffffffffffffffffffffffff021916908373ffffffffffffffffffffffffffffffffffffffff160217905550866002819055508560038190555084600490816100cd9190610784565b508360055f6101000a81548160ff02191690831515021790555082600560016101000a81548173ffffffffffffffffffffffffffffffffffffffff021916908373ffffffffffffffffffffffffffffffffffffffff1602179055508160065f6101000a81548173ffffffffffffffffffffffffffffffffffffffff021916908373ffffffffffffffffffffffffffffffffffffffff1602179055505f60135f6101000a81548160ff0219169083600281111561018c5761018b610853565b5b0217905550426008819055505f60098190555080600a819055505f600b819055505f600c819055505f600d5f6101000a81548160ff0219169083151502179055505f600e81905550426010819055506301e13380426101eb91906108ad565b600f8190555060015f9054906101000a900473ffffffffffffffffffffffffffffffffffffffff1673ffffffffffffffffffffffffffffffffffffffff165f8054906101000a900473ffffffffffffffffffffffffffffffffffffffff1673ffffffffffffffffffffffffffffffffffffffff167f4f1197914a173d10d32a79e20a053170d7dafb93e77cc4f686ce07cdfa0c20fd600460405161028f9190610971565b60405180910390a35050505050505050610991565b5f604051905090565b5f80fd5b5f80fd5b5f73ffffffffffffffffffffffffffffffffffffffff82169050919050565b5f6102de826102b5565b9050919050565b6102ee816102d4565b81146102f8575f80fd5b50565b5f81519050610309816102e5565b92915050565b5f819050919050565b6103218161030f565b811461032b575f80fd5b50565b5f8151905061033c81610318565b92915050565b5f80fd5b5f80fd5b5f601f19601f8301169050919050565b7f4e487b71000000000000000000000000000000000000000000000000000000005f52604160045260245ffd5b6103908261034a565b810181811067ffffffffffffffff821117156103af576103ae61035a565b5b80604052505050565b5f6103c16102a4565b90506103cd8282610387565b919050565b5f67ffffffffffffffff8211156103ec576103eb61035a565b5b6103f58261034a565b9050602081019050919050565b8281835e5f83830152505050565b5f61042261041d846103d2565b6103b8565b90508281526020810184848401111561043e5761043d610346565b5b610449848285610402565b509392505050565b5f82601f83011261046557610464610342565b5b8151610475848260208601610410565b91505092915050565b5f8115159050919050565b6104928161047e565b811461049c575f80fd5b50565b5f815190506104ad81610489565b92915050565b5f805f805f805f80610100898b0312156104d0576104cf6102ad565b5b5f6104dd8b828c016102fb565b98505060206104ee8b828c0161032e565b97505060406104ff8b828c0161032e565b965050606089015167ffffffffffffffff8111156105205761051f6102b1565b5b61052c8b828c01610451565b955050608061053d8b828c0161049f565b94505060a061054e8b828c016102fb565b93505060c061055f8b828c016102fb565b92505060e06105708b828c0161032e565b9150509295985092959890939650565b5f81519050919050565b7f4e487b71000000000000000000000000000000000000000000000000000000005f52602260045260245ffd5b5f60028204905060018216806105ce57607f821691505b6020821081036105e1576105e061058a565b5b50919050565b5f819050815f5260205f209050919050565b5f6020601f8301049050919050565b5f82821b905092915050565b5f600883026106437fffffffffffffffffffffffffffffffffffffffffffffffffffffffffffffffff82610608565b61064d8683610608565b95508019841693508086168417925050509392505050565b5f819050919050565b5f61068861068361067e8461030f565b610665565b61030f565b9050919050565b5f819050919050565b6106a18361066e565b6106b56106ad8261068f565b848454610614565b825550505050565b5f90565b6106c96106bd565b6106d4818484610698565b505050565b5b818110156106f7576106ec5f826106c1565b6001810190506106da565b5050565b601f82111561073c5761070d816105e7565b610716846105f9565b81016020851015610725578190505b610739610731856105f9565b8301826106d9565b50505b505050565b5f82821c905092915050565b5f61075c5f1984600802610741565b1980831691505092915050565b5f610774838361074d565b9150826002028217905092915050565b61078d82610580565b67ffffffffffffffff8111156107a6576107a561035a565b5b6107b082546105b7565b6107bb8282856106fb565b5f60209050601f8311600181146107ec575f84156107da578287015190505b6107e48582610769565b86555061084b565b601f1984166107fa866105e7565b5f5b82811015610821578489015182556001820191506020850194506020810190506107fc565b8683101561083e578489015161083a601f89168261074d565b8355505b6001600288020188555050505b505050505050565b7f4e487b71000000000000000000000000000000000000000000000000000000005f52602160045260245ffd5b7f4e487b71000000000000000000000000000000000000000000000000000000005f52601160045260245ffd5b5f6108b78261030f565b91506108c28361030f565b92508282019050808211156108da576108d9610880565b5b92915050565b5f82825260208201905092915050565b5f81546108fc816105b7565b61090681866108e0565b9450600182165f8114610920576001811461093657610968565b60ff198316865281151560200286019350610968565b61093f856105e7565b5f5b8381101561096057815481890152600182019150602081019050610941565b808801955050505b50505092915050565b5f6020820190508181035f83015261098981846108f0565b905092915050565b6141fd8061099e5f395ff3fe608060405260043610610271575f3560e01c80637f91df9c1161014e578063d39763c8116100c0578063e36a03e011610079578063e36a03e0146107e1578063ea9e7f6a146107f7578063f24bb69b14610821578063f84a0f2d1461084b578063f8ef1e1314610861578063f8fd05011461088b57610271565b8063d39763c81461070d578063d4e76e2c14610737578063d6e82dca14610761578063d9ef045914610777578063dc1997ea146107a1578063dd66857f146107cb57610271565b8063a5e047b811610112578063a5e047b814610645578063a709c4fe14610683578063aa0180051461068d578063adf07791146106a3578063b651bb61146106cd578063c418c525146106f757610271565b80637f91df9c146105895780638e15f473146105b35780638e3e760e146105dd5780638e7f727f146106075780639f1f90821461062f57610271565b80633e3bd90e116101e75780635c274b86116101ab5780635c274b86146104d557806361bc1a49146104df5780636845071d14610509578063775e9fce1461051f5780637e88f603146105495780637ec3110c1461055f57610271565b80633e3bd90e1461042b578063419759f5146104555780634269751c1461047f5780634d5dca5a14610495578063587419d5146104ab57610271565b80631f85316c116102395780631f85316c146103435780633070c38b1461036d57806331d019b71461038357806333fc1183146103ad57806334cbfdfe146103d757806336ec98ef1461040157610271565b806303c77fa4146102755780630abb1d7f1461029d578063140f26bf146102b357806318bb32f5146102dd5780631ca43edd14610307575b5f80fd5b348015610280575f80fd5b5061029b60048036038101906102969190612e8e565b6108a1565b005b3480156102a8575f80fd5b506102b16109c8565b005b3480156102be575f80fd5b506102c7610b01565b6040516102d49190612f35565b60405180910390f35b3480156102e8575f80fd5b506102f1610b8d565b6040516102fe9190612f6f565b60405180910390f35b348015610312575f80fd5b5061032d60048036038101906103289190612fe2565b610b9f565b60405161033a9190612f6f565b60405180910390f35b34801561034e575f80fd5b50610357610bbc565b6040516103649190612f6f565b60405180910390f35b348015610378575f80fd5b50610381610bce565b005b34801561038e575f80fd5b50610397610cee565b6040516103a49190613080565b60405180910390f35b3480156103b8575f80fd5b506103c1610d00565b6040516103ce9190612f6f565b60405180910390f35b3480156103e2575f80fd5b506103eb610d13565b6040516103f891906130b1565b60405180910390f35b34801561040c575f80fd5b50610415610d19565b60405161042291906130b1565b60405180910390f35b348015610436575f80fd5b5061043f610d87565b60405161044c91906130b1565b60405180910390f35b348015610460575f80fd5b50610469610d8d565b60405161047691906130b1565b60405180910390f35b34801561048a575f80fd5b50610493610d93565b005b3480156104a0575f80fd5b506104a9610f10565b005b3480156104b6575f80fd5b506104bf61108e565b6040516104cc91906130b1565b60405180910390f35b6104dd611094565b005b3480156104ea575f80fd5b506104f361143a565b60405161050091906130b1565b60405180910390f35b348015610514575f80fd5b5061051d611440565b005b34801561052a575f80fd5b50610533611583565b60405161054091906130b1565b60405180910390f35b348015610554575f80fd5b5061055d611589565b005b34801561056a575f80fd5b5061057361175a565b60405161058091906130b1565b60405180910390f35b348015610594575f80fd5b5061059d611760565b6040516105aa91906130b1565b60405180910390f35b3480156105be575f80fd5b506105c76117fd565b6040516105d491906130b1565b60405180910390f35b3480156105e8575f80fd5b506105f16118aa565b6040516105fe9190612f6f565b60405180910390f35b348015610612575f80fd5b5061062d600480360381019061062891906130f4565b6118bc565b005b34801561063a575f80fd5b50610643611a94565b005b348015610650575f80fd5b5061066b6004803603810190610666919061314e565b611b7a565b60405161067a93929190613179565b60405180910390f35b61068b611bbb565b005b348015610698575f80fd5b506106a1611fc5565b005b3480156106ae575f80fd5b506106b76120aa565b6040516106c491906131bd565b60405180910390f35b3480156106d8575f80fd5b506106e16120cf565b6040516106ee91906132dc565b60405180910390f35b348015610702575f80fd5b5061070b612158565b005b348015610718575f80fd5b506107216122ba565b60405161072e91906131bd565b60405180910390f35b348015610742575f80fd5b5061074b6122e0565b60405161075891906130b1565b60405180910390f35b34801561076c575f80fd5b5061077561232f565b005b348015610782575f80fd5b5061078b612493565b60405161079891906130b1565b60405180910390f35b3480156107ac575f80fd5b506107b5612499565b6040516107c291906131bd565b60405180910390f35b3480156107d6575f80fd5b506107df6124bc565b005b3480156107ec575f80fd5b506107f5612699565b005b348015610802575f80fd5b5061080b612a56565b60405161081891906130b1565b60405180910390f35b34801561082c575f80fd5b50610835612a5c565b60405161084291906130b1565b60405180910390f35b348015610856575f80fd5b5061085f612a62565b005b34801561086c575f80fd5b50610875612bb4565b60405161088291906130b1565b60405180910390f35b348015610896575f80fd5b5061089f612bba565b005b5f8054906101000a900473ffffffffffffffffffffffffffffffffffffffff1673ffffffffffffffffffffffffffffffffffffffff163373ffffffffffffffffffffffffffffffffffffffff161461092e576040517f08c379a00000000000000000000000000000000000000000000000000000000081526004016109259061336c565b60405180910390fd5b600160135f6101000a81548160ff021916908360028111156109535761095261300d565b5b02179055505f8054906101000a900473ffffffffffffffffffffffffffffffffffffffff1673ffffffffffffffffffffffffffffffffffffffff167f7b73f5d770f3eb41fd57f1e6a1c9e2a5ec61febbbd4e608d511c46e3fd611639826040516109bd9190612f35565b60405180910390a250565b5f60028111156109db576109da61300d565b5b60135f9054906101000a900460ff1660028111156109fc576109fb61300d565b5b14610a3c576040517f08c379a0000000000000000000000000000000000000000000000000000000008152600401610a33906133d4565b60405180910390fd5b5f42600f54610a4b919061341f565b9050624f1a00811480610a5e5750601e81145b15610aad577fd0b1f933b37bcb6fa032c1f03d79ec22be0798137cdb06ad046be2e640eafbc56201518082610a93919061347f565b604051610aa091906130b1565b60405180910390a1610afe565b621275008110610afd577fd0b1f933b37bcb6fa032c1f03d79ec22be0798137cdb06ad046be2e640eafbc56201518082610ae7919061347f565b604051610af491906130b1565b60405180910390a15b5b50565b60048054610b0e906134dc565b80601f0160208091040260200160405190810160405280929190818152602001828054610b3a906134dc565b8015610b855780601f10610b5c57610100808354040283529160200191610b85565b820191905f5260205f20905b815481529060010190602001808311610b6857829003601f168201915b505050505081565b60055f9054906101000a900460ff1681565b6012602052805f5260405f205f915054906101000a900460ff1681565b600d5f9054906101000a900460ff1681565b5f8054906101000a900473ffffffffffffffffffffffffffffffffffffffff1673ffffffffffffffffffffffffffffffffffffffff163373ffffffffffffffffffffffffffffffffffffffff1614610c5b576040517f08c379a0000000000000000000000000000000000000000000000000000000008152600401610c529061336c565b60405180910390fd5b6002546003610c6a919061350c565b600c541115610cec576276a70042610c82919061354d565b600e81905550600260135f6101000a81548160ff02191690836002811115610cad57610cac61300d565b5b02179055507f2032eea88030b7d191bcbdc44c5ac10ed559f3e9f56a319c896f007b55aba5c6600e54604051610ce391906130b1565b60405180910390a15b565b60135f9054906101000a900460ff1681565b601160019054906101000a900460ff1681565b600b5481565b5f8060085442610d29919061341f565b90505f6301e1338082610d3c919061347f565b90505f610d47611760565b90505f60648383610d58919061350c565b610d62919061347f565b6001610d6e919061354d565b600754610d7b919061350c565b90508094505050505090565b600f5481565b60035481565b60015f9054906101000a900473ffffffffffffffffffffffffffffffffffffffff1673ffffffffffffffffffffffffffffffffffffffff163373ffffffffffffffffffffffffffffffffffffffff1614610e22576040517f08c379a0000000000000000000000000000000000000000000000000000000008152600401610e19906135f0565b60405180910390fd5b5f6002811115610e3557610e3461300d565b5b60135f9054906101000a900460ff166002811115610e5657610e5561300d565b5b14610e96576040517f08c379a0000000000000000000000000000000000000000000000000000000008152600401610e8d90613658565b60405180910390fd5b6276a70042610ea5919061354d565b600e81905550600260135f6101000a81548160ff02191690836002811115610ed057610ecf61300d565b5b02179055507f2032eea88030b7d191bcbdc44c5ac10ed559f3e9f56a319c896f007b55aba5c6600e54604051610f0691906130b1565b60405180910390a1565b5f8054906101000a900473ffffffffffffffffffffffffffffffffffffffff1673ffffffffffffffffffffffffffffffffffffffff163373ffffffffffffffffffffffffffffffffffffffff1614610f9d576040517f08c379a0000000000000000000000000000000000000000000000000000000008152600401610f949061336c565b60405180910390fd5b600d5f9054906101000a900460ff16610feb576040517f08c379a0000000000000000000000000000000000000000000000000000000008152600401610fe2906136c0565b60405180910390fd5b600b5f815480929190610ffd906136de565b91905055505f600d5f6101000a81548160ff02191690831515021790555060015f9054906101000a900473ffffffffffffffffffffffffffffffffffffffff1673ffffffffffffffffffffffffffffffffffffffff167f3b3128f7f622ff2560e38be1b058b93ba3d585cba51577708f3da9d6fe4cd925600b5460405161108491906130b1565b60405180910390a2565b60085481565b60015f9054906101000a900473ffffffffffffffffffffffffffffffffffffffff1673ffffffffffffffffffffffffffffffffffffffff163373ffffffffffffffffffffffffffffffffffffffff1614611123576040517f08c379a000000000000000000000000000000000000000000000000000000000815260040161111a906135f0565b60405180910390fd5b5f60028111156111365761113561300d565b5b60135f9054906101000a900460ff1660028111156111575761115661300d565b5b14611197576040517f08c379a000000000000000000000000000000000000000000000000000000000815260040161118e9061376f565b60405180910390fd5b5f60055f9054906101000a900460ff16156112f1576003549050600560019054906101000a900473ffffffffffffffffffffffffffffffffffffffff1673ffffffffffffffffffffffffffffffffffffffff166323b872dd3330846040518463ffffffff1660e01b81526004016112109392919061378d565b6020604051808303815f875af115801561122c573d5f803e3d5ffd5b505050506040513d601f19601f8201168201806040525081019061125091906137ec565b61128f576040517f08c379a000000000000000000000000000000000000000000000000000000000815260040161128690613861565b60405180910390fd5b5f813461129c919061341f565b90505f8111156112eb573373ffffffffffffffffffffffffffffffffffffffff166108fc8290811502906040515f60405180830381858888f193505050501580156112e9573d5f803e3d5ffd5b505b506113d9565b5f6112fa6117fd565b905080670de0b6b3a7640000600354611313919061350c565b61131d919061347f565b915081341015611362576040517f08c379a0000000000000000000000000000000000000000000000000000000008152600401611359906138c9565b60405180910390fd5b5f823461136f919061341f565b90505f8111156113be573373ffffffffffffffffffffffffffffffffffffffff166108fc8290811502906040515f60405180830381858888f193505050501580156113bc573d5f803e3d5ffd5b505b8260075f8282546113cf919061354d565b9250508190555050505b3373ffffffffffffffffffffffffffffffffffffffff167fd843b6e8d49f0e65c61fb0c27466e0719df02e1ca2340e577c3e289c1ac9154c8260055f9054906101000a900460ff1660405161142f9291906138e7565b60405180910390a250565b60075481565b600f54421015611485576040517f08c379a000000000000000000000000000000000000000000000000000000000815260040161147c90613958565b60405180910390fd5b601160019054906101000a900460ff1615806114ad575060115f9054906101000a900460ff16155b6114ec576040517f08c379a00000000000000000000000000000000000000000000000000000000081526004016114e3906139c0565b60405180910390fd5b600160135f6101000a81548160ff021916908360028111156115115761151061300d565b5b02179055505f8054906101000a900473ffffffffffffffffffffffffffffffffffffffff1673ffffffffffffffffffffffffffffffffffffffff167f7b73f5d770f3eb41fd57f1e6a1c9e2a5ec61febbbd4e608d511c46e3fd61163960405161157990613a28565b60405180910390a2565b600c5481565b5f8054906101000a900473ffffffffffffffffffffffffffffffffffffffff1673ffffffffffffffffffffffffffffffffffffffff163373ffffffffffffffffffffffffffffffffffffffff1614611616576040517f08c379a000000000000000000000000000000000000000000000000000000000815260040161160d9061336c565b60405180910390fd5b6001600281111561162a5761162961300d565b5b60135f9054906101000a900460ff16600281111561164b5761164a61300d565b5b1461168b576040517f08c379a000000000000000000000000000000000000000000000000000000000815260040161168290613a90565b60405180910390fd5b5f611694610d19565b90505f60075490505f60078190555060015f9054906101000a900473ffffffffffffffffffffffffffffffffffffffff1673ffffffffffffffffffffffffffffffffffffffff166108fc8390811502906040515f60405180830381858888f19350505050158015611707573d5f803e3d5ffd5b503373ffffffffffffffffffffffffffffffffffffffff167fa09244c122a83074363635dc89ce0098166c2f74827960ff64a7c8e6ad1c57a28260405161174e91906130b1565b60405180910390a25050565b600e5481565b5f8060065f9054906101000a900473ffffffffffffffffffffffffffffffffffffffff1673ffffffffffffffffffffffffffffffffffffffff1663feaf968c6040518163ffffffff1660e01b815260040160a060405180830381865afa1580156117cc573d5f803e3d5ffd5b505050506040513d601f19601f820116820180604052508101906117f09190613b34565b5050509150508091505090565b5f8060065f9054906101000a900473ffffffffffffffffffffffffffffffffffffffff1673ffffffffffffffffffffffffffffffffffffffff1663feaf968c6040518163ffffffff1660e01b815260040160a060405180830381865afa158015611869573d5f803e3d5ffd5b505050506040513d601f19601f8201168201806040525081019061188d9190613b34565b5050509150506402540be400816118a49190613bab565b91505090565b60115f9054906101000a900460ff1681565b5f8054906101000a900473ffffffffffffffffffffffffffffffffffffffff1673ffffffffffffffffffffffffffffffffffffffff163373ffffffffffffffffffffffffffffffffffffffff1614611949576040517f08c379a00000000000000000000000000000000000000000000000000000000081526004016119409061336c565b60405180910390fd5b60075482111561198e576040517f08c379a000000000000000000000000000000000000000000000000000000000815260040161198590613c6b565b60405180910390fd5b8160075f82825461199f919061341f565b925050819055508160095f8282546119b7919061354d565b925050819055505f8054906101000a900473ffffffffffffffffffffffffffffffffffffffff1673ffffffffffffffffffffffffffffffffffffffff166108fc8390811502906040515f60405180830381858888f19350505050158015611a20573d5f803e3d5ffd5b505f8054906101000a900473ffffffffffffffffffffffffffffffffffffffff1673ffffffffffffffffffffffffffffffffffffffff167f0e71db61460cade63bdce2bd520284d5fcde93eb8604be23456ac0761c5cb4d98383604051611a88929190613c89565b60405180910390a25050565b60015f9054906101000a900473ffffffffffffffffffffffffffffffffffffffff1673ffffffffffffffffffffffffffffffffffffffff163373ffffffffffffffffffffffffffffffffffffffff1614611b23576040517f08c379a0000000000000000000000000000000000000000000000000000000008152600401611b1a906135f0565b60405180910390fd5b600160125f3373ffffffffffffffffffffffffffffffffffffffff1673ffffffffffffffffffffffffffffffffffffffff1681526020019081526020015f205f6101000a81548160ff021916908315150217905550565b60148181548110611b89575f80fd5b905f5260205f2090600302015f91509050805f015490806001015490806002015f9054906101000a900460ff16905083565b60015f9054906101000a900473ffffffffffffffffffffffffffffffffffffffff1673ffffffffffffffffffffffffffffffffffffffff163373ffffffffffffffffffffffffffffffffffffffff1614611c4a576040517f08c379a0000000000000000000000000000000000000000000000000000000008152600401611c41906135f0565b60405180910390fd5b5f6002811115611c5d57611c5c61300d565b5b60135f9054906101000a900460ff166002811115611c7e57611c7d61300d565b5b14611cbe576040517f08c379a0000000000000000000000000000000000000000000000000000000008152600401611cb59061376f565b60405180910390fd5b5f60055f9054906101000a900460ff1615611dda576002549050600560019054906101000a900473ffffffffffffffffffffffffffffffffffffffff1673ffffffffffffffffffffffffffffffffffffffff166323b872dd335f8054906101000a900473ffffffffffffffffffffffffffffffffffffffff16846040518463ffffffff1660e01b8152600401611d569392919061378d565b6020604051808303815f875af1158015611d72573d5f803e3d5ffd5b505050506040513d601f19601f82011682018060405250810190611d9691906137ec565b611dd5576040517f08c379a0000000000000000000000000000000000000000000000000000000008152600401611dcc90613d01565b60405180910390fd5b611eb0565b5f611de36117fd565b905080670de0b6b3a7640000600254611dfc919061350c565b611e06919061347f565b915081341015611e4b576040517f08c379a0000000000000000000000000000000000000000000000000000000008152600401611e42906138c9565b60405180910390fd5b5f8054906101000a900473ffffffffffffffffffffffffffffffffffffffff1673ffffffffffffffffffffffffffffffffffffffff166108fc8390811502906040515f60405180830381858888f19350505050158015611ead573d5f803e3d5ffd5b50505b80600c5403611ec5575f600c81905550611ede565b80600c5f828254611ed6919061341f565b925050819055505b6014604051806060016040528042815260200183815260200160055f9054906101000a900460ff161515815250908060018154018082558091505060019003905f5260205f2090600302015f909190919091505f820151815f0155602082015181600101556040820151816002015f6101000a81548160ff02191690831515021790555050503373ffffffffffffffffffffffffffffffffffffffff167fa0e44cc6f4f184bc83e145bf7f0cc703b7f698476124cf6a9d7d403d202e77fd8260055f9054906101000a900460ff16604051611fba9291906138e7565b60405180910390a250565b60015f9054906101000a900473ffffffffffffffffffffffffffffffffffffffff1673ffffffffffffffffffffffffffffffffffffffff163373ffffffffffffffffffffffffffffffffffffffff1614612054576040517f08c379a000000000000000000000000000000000000000000000000000000000815260040161204b906135f0565b60405180910390fd5b5f60125f3373ffffffffffffffffffffffffffffffffffffffff1673ffffffffffffffffffffffffffffffffffffffff1681526020019081526020015f205f6101000a81548160ff021916908315150217905550565b60015f9054906101000a900473ffffffffffffffffffffffffffffffffffffffff1681565b60606014805480602002602001604051908101604052809291908181526020015f905b8282101561214f578382905f5260205f2090600302016040518060600160405290815f820154815260200160018201548152602001600282015f9054906101000a900460ff161515151581525050815260200190600101906120f2565b50505050905090565b60015f9054906101000a900473ffffffffffffffffffffffffffffffffffffffff1673ffffffffffffffffffffffffffffffffffffffff163373ffffffffffffffffffffffffffffffffffffffff16146121e7576040517f08c379a00000000000000000000000000000000000000000000000000000000081526004016121de906135f0565b60405180910390fd5b5f60028111156121fa576121f961300d565b5b60135f9054906101000a900460ff16600281111561221b5761221a61300d565b5b1461225b576040517f08c379a000000000000000000000000000000000000000000000000000000000815260040161225290613d69565b60405180910390fd5b600160115f6101000a81548160ff0219169083151502179055503373ffffffffffffffffffffffffffffffffffffffff167f54551c802caca31274238693b2aebd359c4bc3d704209b36bf46cace4754372260405160405180910390a2565b600560019054906101000a900473ffffffffffffffffffffffffffffffffffffffff1681565b5f8062278d00426122f1919061347f565b905062015180600a54612304919061350c565b62278d00600183612315919061354d565b61231f919061350c565b612329919061354d565b91505090565b5f8054906101000a900473ffffffffffffffffffffffffffffffffffffffff1673ffffffffffffffffffffffffffffffffffffffff163373ffffffffffffffffffffffffffffffffffffffff16146123bc576040517f08c379a00000000000000000000000000000000000000000000000000000000081526004016123b39061336c565b60405180910390fd5b62093a806123c86122e0565b6123d2919061354d565b4211612413576040517f08c379a000000000000000000000000000000000000000000000000000000000815260040161240a90613dd1565b60405180910390fd5b6001600d5f6101000a81548160ff02191690831515021790555060015f9054906101000a900473ffffffffffffffffffffffffffffffffffffffff1673ffffffffffffffffffffffffffffffffffffffff167f8e0013ec8ea09fb2e5fc1733fcaa4d39f199b60c282b0300add067402b2aa91b60405160405180910390a2565b600a5481565b5f8054906101000a900473ffffffffffffffffffffffffffffffffffffffff1681565b5f8054906101000a900473ffffffffffffffffffffffffffffffffffffffff1673ffffffffffffffffffffffffffffffffffffffff163373ffffffffffffffffffffffffffffffffffffffff1614612549576040517f08c379a00000000000000000000000000000000000000000000000000000000081526004016125409061336c565b60405180910390fd5b60028081111561255c5761255b61300d565b5b60135f9054906101000a900460ff16600281111561257d5761257c61300d565b5b146125bd576040517f08c379a00000000000000000000000000000000000000000000000000000000081526004016125b490613e39565b60405180910390fd5b600e54421015612602576040517f08c379a00000000000000000000000000000000000000000000000000000000081526004016125f990613ea1565b60405180910390fd5b600160135f6101000a81548160ff021916908360028111156126275761262661300d565b5b02179055505f8054906101000a900473ffffffffffffffffffffffffffffffffffffffff1673ffffffffffffffffffffffffffffffffffffffff167f7b73f5d770f3eb41fd57f1e6a1c9e2a5ec61febbbd4e608d511c46e3fd61163960405161268f90613f55565b60405180910390a2565b5f8054906101000a900473ffffffffffffffffffffffffffffffffffffffff1673ffffffffffffffffffffffffffffffffffffffff163373ffffffffffffffffffffffffffffffffffffffff1614612726576040517f08c379a000000000000000000000000000000000000000000000000000000000815260040161271d9061336c565b60405180910390fd5b60125f60015f9054906101000a900473ffffffffffffffffffffffffffffffffffffffff1673ffffffffffffffffffffffffffffffffffffffff1673ffffffffffffffffffffffffffffffffffffffff1681526020019081526020015f205f9054906101000a900460ff166127d0576040517f08c379a00000000000000000000000000000000000000000000000000000000081526004016127c790613fbd565b60405180910390fd5b5f60028111156127e3576127e261300d565b5b60135f9054906101000a900460ff1660028111156128045761280361300d565b5b14612844576040517f08c379a000000000000000000000000000000000000000000000000000000000815260040161283b906133d4565b60405180910390fd5b5f6002549050600560019054906101000a900473ffffffffffffffffffffffffffffffffffffffff1673ffffffffffffffffffffffffffffffffffffffff166323b872dd60015f9054906101000a900473ffffffffffffffffffffffffffffffffffffffff165f8054906101000a900473ffffffffffffffffffffffffffffffffffffffff16846040518463ffffffff1660e01b81526004016128e99392919061378d565b6020604051808303815f875af1158015612905573d5f803e3d5ffd5b505050506040513d601f19601f8201168201806040525081019061292991906137ec565b612968576040517f08c379a000000000000000000000000000000000000000000000000000000000815260040161295f90614025565b60405180910390fd5b6014604051806060016040528042815260200183815260200160011515815250908060018154018082558091505060019003905f5260205f2090600302015f909190919091505f820151815f0155602082015181600101556040820151816002015f6101000a81548160ff021916908315150217905550505060015f9054906101000a900473ffffffffffffffffffffffffffffffffffffffff1673ffffffffffffffffffffffffffffffffffffffff167fa0e44cc6f4f184bc83e145bf7f0cc703b7f698476124cf6a9d7d403d202e77fd826001604051612a4b9291906138e7565b60405180910390a250565b60095481565b60105481565b600280811115612a7557612a7461300d565b5b60135f9054906101000a900460ff166002811115612a9657612a9561300d565b5b14612ad6576040517f08c379a0000000000000000000000000000000000000000000000000000000008152600401612acd9061408d565b60405180910390fd5b600e54421015612b1b576040517f08c379a0000000000000000000000000000000000000000000000000000000008152600401612b1290613ea1565b60405180910390fd5b600160135f6101000a81548160ff02191690836002811115612b4057612b3f61300d565b5b021790555060015f9054906101000a900473ffffffffffffffffffffffffffffffffffffffff1673ffffffffffffffffffffffffffffffffffffffff167f7b73f5d770f3eb41fd57f1e6a1c9e2a5ec61febbbd4e608d511c46e3fd611639604051612baa9061411b565b60405180910390a2565b60025481565b5f8054906101000a900473ffffffffffffffffffffffffffffffffffffffff1673ffffffffffffffffffffffffffffffffffffffff163373ffffffffffffffffffffffffffffffffffffffff1614612c47576040517f08c379a0000000000000000000000000000000000000000000000000000000008152600401612c3e9061336c565b60405180910390fd5b6001151560115f9054906101000a900460ff16151514612c9c576040517f08c379a0000000000000000000000000000000000000000000000000000000008152600401612c93906141a9565b60405180910390fd5b6001601160016101000a81548160ff0219169083151502179055506301e13380600f5f828254612ccc919061354d565b925050819055505f60115f6101000a81548160ff0219169083151502179055505f601160016101000a81548160ff0219169083151502179055507f9b92a9893c6f7c060109fbacf7a7ed7384b0d145f68541169a1a201ea42ce854600f54604051612d3791906130b1565b60405180910390a1565b5f604051905090565b5f80fd5b5f80fd5b5f80fd5b5f80fd5b5f601f19601f8301169050919050565b7f4e487b71000000000000000000000000000000000000000000000000000000005f52604160045260245ffd5b612da082612d5a565b810181811067ffffffffffffffff82111715612dbf57612dbe612d6a565b5b80604052505050565b5f612dd1612d41565b9050612ddd8282612d97565b919050565b5f67ffffffffffffffff821115612dfc57612dfb612d6a565b5b612e0582612d5a565b9050602081019050919050565b828183375f83830152505050565b5f612e32612e2d84612de2565b612dc8565b905082815260208101848484011115612e4e57612e4d612d56565b5b612e59848285612e12565b509392505050565b5f82601f830112612e7557612e74612d52565b5b8135612e85848260208601612e20565b91505092915050565b5f60208284031215612ea357612ea2612d4a565b5b5f82013567ffffffffffffffff811115612ec057612ebf612d4e565b5b612ecc84828501612e61565b91505092915050565b5f81519050919050565b5f82825260208201905092915050565b8281835e5f83830152505050565b5f612f0782612ed5565b612f118185612edf565b9350612f21818560208601612eef565b612f2a81612d5a565b840191505092915050565b5f6020820190508181035f830152612f4d8184612efd565b905092915050565b5f8115159050919050565b612f6981612f55565b82525050565b5f602082019050612f825f830184612f60565b92915050565b5f73ffffffffffffffffffffffffffffffffffffffff82169050919050565b5f612fb182612f88565b9050919050565b612fc181612fa7565b8114612fcb575f80fd5b50565b5f81359050612fdc81612fb8565b92915050565b5f60208284031215612ff757612ff6612d4a565b5b5f61300484828501612fce565b91505092915050565b7f4e487b71000000000000000000000000000000000000000000000000000000005f52602160045260245ffd5b6003811061304b5761304a61300d565b5b50565b5f81905061305b8261303a565b919050565b5f61306a8261304e565b9050919050565b61307a81613060565b82525050565b5f6020820190506130935f830184613071565b92915050565b5f819050919050565b6130ab81613099565b82525050565b5f6020820190506130c45f8301846130a2565b92915050565b6130d381613099565b81146130dd575f80fd5b50565b5f813590506130ee816130ca565b92915050565b5f806040838503121561310a57613109612d4a565b5b5f613117858286016130e0565b925050602083013567ffffffffffffffff81111561313857613137612d4e565b5b61314485828601612e61565b9150509250929050565b5f6020828403121561316357613162612d4a565b5b5f613170848285016130e0565b91505092915050565b5f60608201905061318c5f8301866130a2565b61319960208301856130a2565b6131a66040830184612f60565b949350505050565b6131b781612fa7565b82525050565b5f6020820190506131d05f8301846131ae565b92915050565b5f81519050919050565b5f82825260208201905092915050565b5f819050602082019050919050565b61320881613099565b82525050565b61321781612f55565b82525050565b606082015f8201516132315f8501826131ff565b50602082015161324460208501826131ff565b506040820151613257604085018261320e565b50505050565b5f613268838361321d565b60608301905092915050565b5f602082019050919050565b5f61328a826131d6565b61329481856131e0565b935061329f836131f0565b805f5b838110156132cf5781516132b6888261325d565b97506132c183613274565b9250506001810190506132a2565b5085935050505092915050565b5f6020820190508181035f8301526132f48184613280565b905092915050565b7f4f6e6c79206c616e646c6f72642063616e20706572666f726d207468697320615f8201527f6374696f6e000000000000000000000000000000000000000000000000000000602082015250565b5f613356602583612edf565b9150613361826132fc565b604082019050919050565b5f6020820190508181035f8301526133838161334a565b9050919050565b7f436f6e7472616374206973206e6f7420616374697665000000000000000000005f82015250565b5f6133be601683612edf565b91506133c98261338a565b602082019050919050565b5f6020820190508181035f8301526133eb816133b2565b9050919050565b7f4e487b71000000000000000000000000000000000000000000000000000000005f52601160045260245ffd5b5f61342982613099565b915061343483613099565b925082820390508181111561344c5761344b6133f2565b5b92915050565b7f4e487b71000000000000000000000000000000000000000000000000000000005f52601260045260245ffd5b5f61348982613099565b915061349483613099565b9250826134a4576134a3613452565b5b828204905092915050565b7f4e487b71000000000000000000000000000000000000000000000000000000005f52602260045260245ffd5b5f60028204905060018216806134f357607f821691505b602082108103613506576135056134af565b5b50919050565b5f61351682613099565b915061352183613099565b925082820261352f81613099565b91508282048414831517613546576135456133f2565b5b5092915050565b5f61355782613099565b915061356283613099565b925082820190508082111561357a576135796133f2565b5b92915050565b7f4f6e6c792054656e616e742063616e20706572666f726d2074686973206163745f8201527f696f6e0000000000000000000000000000000000000000000000000000000000602082015250565b5f6135da602383612edf565b91506135e582613580565b604082019050919050565b5f6020820190508181035f830152613607816135ce565b9050919050565b7f436f6e7472616374206973206e6f7420416374697665000000000000000000005f82015250565b5f613642601683612edf565b915061364d8261360e565b602082019050919050565b5f6020820190508181035f83015261366f81613636565b9050919050565b7f4e6f2070656e64696e67207761726e696e6720746f20636f6e6669726d0000005f82015250565b5f6136aa601d83612edf565b91506136b582613676565b602082019050919050565b5f6020820190508181035f8301526136d78161369e565b9050919050565b5f6136e882613099565b91507fffffffffffffffffffffffffffffffffffffffffffffffffffffffffffffffff820361371a576137196133f2565b5b600182019050919050565b7f52656e74616c20636f6e7472616374206973206e6f74206163746976650000005f82015250565b5f613759601d83612edf565b915061376482613725565b602082019050919050565b5f6020820190508181035f8301526137868161374d565b9050919050565b5f6060820190506137a05f8301866131ae565b6137ad60208301856131ae565b6137ba60408301846130a2565b949350505050565b6137cb81612f55565b81146137d5575f80fd5b50565b5f815190506137e6816137c2565b92915050565b5f6020828403121561380157613800612d4a565b5b5f61380e848285016137d8565b91505092915050565b7f537461626c65636f696e206465706f736974206661696c6564000000000000005f82015250565b5f61384b601983612edf565b915061385682613817565b602082019050919050565b5f6020820190508181035f8301526138788161383f565b9050919050565b7f496e737566666963656e74204554482073656e740000000000000000000000005f82015250565b5f6138b3601483612edf565b91506138be8261387f565b602082019050919050565b5f6020820190508181035f8301526138e0816138a7565b9050919050565b5f6040820190506138fa5f8301856130a2565b6139076020830184612f60565b9392505050565b7f436f6e747261637420686173206e6f74206578706972656420796574000000005f82015250565b5f613942601c83612edf565b915061394d8261390e565b602082019050919050565b5f6020820190508181035f83015261396f81613936565b9050919050565b7f436f6e747261637420686173206265656e2072656e65776564000000000000005f82015250565b5f6139aa601983612edf565b91506139b582613976565b602082019050919050565b5f6020820190508181035f8301526139d78161399e565b9050919050565b7f436f6e7472616374206578706972656420776974686f75742072656e6577616c5f82015250565b5f613a12602083612edf565b9150613a1d826139de565b602082019050919050565b5f6020820190508181035f830152613a3f81613a06565b9050919050565b7f436f6e7472616374206d75737420626572207465726d696e61746564000000005f82015250565b5f613a7a601c83612edf565b9150613a8582613a46565b602082019050919050565b5f6020820190508181035f830152613aa781613a6e565b9050919050565b5f69ffffffffffffffffffff82169050919050565b613acc81613aae565b8114613ad6575f80fd5b50565b5f81519050613ae781613ac3565b92915050565b5f819050919050565b613aff81613aed565b8114613b09575f80fd5b50565b5f81519050613b1a81613af6565b92915050565b5f81519050613b2e816130ca565b92915050565b5f805f805f60a08688031215613b4d57613b4c612d4a565b5b5f613b5a88828901613ad9565b9550506020613b6b88828901613b0c565b9450506040613b7c88828901613b20565b9350506060613b8d88828901613b20565b9250506080613b9e88828901613ad9565b9150509295509295909350565b5f613bb582613aed565b9150613bc083613aed565b9250828202613bce81613aed565b91507f800000000000000000000000000000000000000000000000000000000000000084145f84121615613c0557613c046133f2565b5b8282058414831517613c1a57613c196133f2565b5b5092915050565b7f446564756374696f6e2065786365656473206465706f73697420616d6f756e745f82015250565b5f613c55602083612edf565b9150613c6082613c21565b602082019050919050565b5f6020820190508181035f830152613c8281613c49565b9050919050565b5f604082019050613c9c5f8301856130a2565b8181036020830152613cae8184612efd565b90509392505050565b7f537461626c65636f696e207061796d656e74206661696c6564000000000000005f82015250565b5f613ceb601983612edf565b9150613cf682613cb7565b602082019050919050565b5f6020820190508181035f830152613d1881613cdf565b9050919050565b7f436f6e74726163742068617320616c72656164792065787069726564000000005f82015250565b5f613d53601c83612edf565b9150613d5e82613d1f565b602082019050919050565b5f6020820190508181035f830152613d8081613d47565b9050919050565b7f5761726e696e67206e6f74206170706c696361626c65207965740000000000005f82015250565b5f613dbb601a83612edf565b9150613dc682613d87565b602082019050919050565b5f6020820190508181035f830152613de881613daf565b9050919050565b7f5465726d696e6174696f6e206e6f742073636864756c656400000000000000005f82015250565b5f613e23601883612edf565b9150613e2e82613def565b602082019050919050565b5f6020820190508181035f830152613e5081613e17565b9050919050565b7f5465726d696e6174696f6e20706572696f64206e6f74207265616368656400005f82015250565b5f613e8b601e83612edf565b9150613e9682613e57565b602082019050919050565b5f6020820190508181035f830152613eb881613e7f565b9050919050565b7f4d6f7265207468616e2033207061796d656e74732077657265206e6f742072655f8201527f67697374657265642e20436f6e7472616374206973207465726d696e6174656460208201527f2e00000000000000000000000000000000000000000000000000000000000000604082015250565b5f613f3f604183612edf565b9150613f4a82613ebf565b606082019050919050565b5f6020820190508181035f830152613f6c81613f33565b9050919050565b7f4175746f207061796d656e74206e6f7420617574686f72697a656400000000005f82015250565b5f613fa7601b83612edf565b9150613fb282613f73565b602082019050919050565b5f6020820190508181035f830152613fd481613f9b565b9050919050565b7f4175746f20706179206661696c656400000000000000000000000000000000005f82015250565b5f61400f600f83612edf565b915061401a82613fdb565b602082019050919050565b5f6020820190508181035f83015261403c81614003565b9050919050565b7f5465726d696e6174696f6e206e6f74207363686564756c6564000000000000005f82015250565b5f614077601983612edf565b915061408282614043565b602082019050919050565b5f6020820190508181035f8301526140a48161406b565b9050919050565b7f54656e616e74207465726d696e6174656420746865206c6561736520616772655f8201527f656d656e74000000000000000000000000000000000000000000000000000000602082015250565b5f614105602583612edf565b9150614110826140ab565b604082019050919050565b5f6020820190508181035f830152614132816140f9565b9050919050565b7f54656e6e616e7420686173206e6f742061736b656420666f722072656e6577615f8201527f6c00000000000000000000000000000000000000000000000000000000000000602082015250565b5f614193602183612edf565b915061419e82614139565b604082019050919050565b5f6020820190508181035f8301526141c081614187565b905091905056fea2646970667358221220876dd46391d1b9ce01812432542c8cbe3ca185c4e01db8be07fc64998c9ef12464736f6c634300081a0033",
					"opcodes": "PUSH1 0x80 PUSH1 0x40 MSTORE CALLVALUE DUP1 ISZERO PUSH2 0xF JUMPI PUSH0 DUP1 REVERT JUMPDEST POP PUSH1 0x40 MLOAD PUSH2 0x4B9B CODESIZE SUB DUP1 PUSH2 0x4B9B DUP4 CODECOPY DUP2 DUP2 ADD PUSH1 0x40 MSTORE DUP2 ADD SWAP1 PUSH2 0x31 SWAP2 SWAP1 PUSH2 0x4B3 JUMP JUMPDEST CALLER PUSH0 DUP1 PUSH2 0x100 EXP DUP2 SLOAD DUP2 PUSH20 0xFFFFFFFFFFFFFFFFFFFFFFFFFFFFFFFFFFFFFFFF MUL NOT AND SWAP1 DUP4 PUSH20 0xFFFFFFFFFFFFFFFFFFFFFFFFFFFFFFFFFFFFFFFF AND MUL OR SWAP1 SSTORE POP DUP8 PUSH1 0x1 PUSH0 PUSH2 0x100 EXP DUP2 SLOAD DUP2 PUSH20 0xFFFFFFFFFFFFFFFFFFFFFFFFFFFFFFFFFFFFFFFF MUL NOT AND SWAP1 DUP4 PUSH20 0xFFFFFFFFFFFFFFFFFFFFFFFFFFFFFFFFFFFFFFFF AND MUL OR SWAP1 SSTORE POP DUP7 PUSH1 0x2 DUP2 SWAP1 SSTORE POP DUP6 PUSH1 0x3 DUP2 SWAP1 SSTORE POP DUP5 PUSH1 0x4 SWAP1 DUP2 PUSH2 0xCD SWAP2 SWAP1 PUSH2 0x784 JUMP JUMPDEST POP DUP4 PUSH1 0x5 PUSH0 PUSH2 0x100 EXP DUP2 SLOAD DUP2 PUSH1 0xFF MUL NOT AND SWAP1 DUP4 ISZERO ISZERO MUL OR SWAP1 SSTORE POP DUP3 PUSH1 0x5 PUSH1 0x1 PUSH2 0x100 EXP DUP2 SLOAD DUP2 PUSH20 0xFFFFFFFFFFFFFFFFFFFFFFFFFFFFFFFFFFFFFFFF MUL NOT AND SWAP1 DUP4 PUSH20 0xFFFFFFFFFFFFFFFFFFFFFFFFFFFFFFFFFFFFFFFF AND MUL OR SWAP1 SSTORE POP DUP2 PUSH1 0x6 PUSH0 PUSH2 0x100 EXP DUP2 SLOAD DUP2 PUSH20 0xFFFFFFFFFFFFFFFFFFFFFFFFFFFFFFFFFFFFFFFF MUL NOT AND SWAP1 DUP4 PUSH20 0xFFFFFFFFFFFFFFFFFFFFFFFFFFFFFFFFFFFFFFFF AND MUL OR SWAP1 SSTORE POP PUSH0 PUSH1 0x13 PUSH0 PUSH2 0x100 EXP DUP2 SLOAD DUP2 PUSH1 0xFF MUL NOT AND SWAP1 DUP4 PUSH1 0x2 DUP2 GT ISZERO PUSH2 0x18C JUMPI PUSH2 0x18B PUSH2 0x853 JUMP JUMPDEST JUMPDEST MUL OR SWAP1 SSTORE POP TIMESTAMP PUSH1 0x8 DUP2 SWAP1 SSTORE POP PUSH0 PUSH1 0x9 DUP2 SWAP1 SSTORE POP DUP1 PUSH1 0xA DUP2 SWAP1 SSTORE POP PUSH0 PUSH1 0xB DUP2 SWAP1 SSTORE POP PUSH0 PUSH1 0xC DUP2 SWAP1 SSTORE POP PUSH0 PUSH1 0xD PUSH0 PUSH2 0x100 EXP DUP2 SLOAD DUP2 PUSH1 0xFF MUL NOT AND SWAP1 DUP4 ISZERO ISZERO MUL OR SWAP1 SSTORE POP PUSH0 PUSH1 0xE DUP2 SWAP1 SSTORE POP TIMESTAMP PUSH1 0x10 DUP2 SWAP1 SSTORE POP PUSH4 0x1E13380 TIMESTAMP PUSH2 0x1EB SWAP2 SWAP1 PUSH2 0x8AD JUMP JUMPDEST PUSH1 0xF DUP2 SWAP1 SSTORE POP PUSH1 0x1 PUSH0 SWAP1 SLOAD SWAP1 PUSH2 0x100 EXP SWAP1 DIV PUSH20 0xFFFFFFFFFFFFFFFFFFFFFFFFFFFFFFFFFFFFFFFF AND PUSH20 0xFFFFFFFFFFFFFFFFFFFFFFFFFFFFFFFFFFFFFFFF AND PUSH0 DUP1 SLOAD SWAP1 PUSH2 0x100 EXP SWAP1 DIV PUSH20 0xFFFFFFFFFFFFFFFFFFFFFFFFFFFFFFFFFFFFFFFF AND PUSH20 0xFFFFFFFFFFFFFFFFFFFFFFFFFFFFFFFFFFFFFFFF AND PUSH32 0x4F1197914A173D10D32A79E20A053170D7DAFB93E77CC4F686CE07CDFA0C20FD PUSH1 0x4 PUSH1 0x40 MLOAD PUSH2 0x28F SWAP2 SWAP1 PUSH2 0x971 JUMP JUMPDEST PUSH1 0x40 MLOAD DUP1 SWAP2 SUB SWAP1 LOG3 POP POP POP POP POP POP POP POP PUSH2 0x991 JUMP JUMPDEST PUSH0 PUSH1 0x40 MLOAD SWAP1 POP SWAP1 JUMP JUMPDEST PUSH0 DUP1 REVERT JUMPDEST PUSH0 DUP1 REVERT JUMPDEST PUSH0 PUSH20 0xFFFFFFFFFFFFFFFFFFFFFFFFFFFFFFFFFFFFFFFF DUP3 AND SWAP1 POP SWAP2 SWAP1 POP JUMP JUMPDEST PUSH0 PUSH2 0x2DE DUP3 PUSH2 0x2B5 JUMP JUMPDEST SWAP1 POP SWAP2 SWAP1 POP JUMP JUMPDEST PUSH2 0x2EE DUP2 PUSH2 0x2D4 JUMP JUMPDEST DUP2 EQ PUSH2 0x2F8 JUMPI PUSH0 DUP1 REVERT JUMPDEST POP JUMP JUMPDEST PUSH0 DUP2 MLOAD SWAP1 POP PUSH2 0x309 DUP2 PUSH2 0x2E5 JUMP JUMPDEST SWAP3 SWAP2 POP POP JUMP JUMPDEST PUSH0 DUP2 SWAP1 POP SWAP2 SWAP1 POP JUMP JUMPDEST PUSH2 0x321 DUP2 PUSH2 0x30F JUMP JUMPDEST DUP2 EQ PUSH2 0x32B JUMPI PUSH0 DUP1 REVERT JUMPDEST POP JUMP JUMPDEST PUSH0 DUP2 MLOAD SWAP1 POP PUSH2 0x33C DUP2 PUSH2 0x318 JUMP JUMPDEST SWAP3 SWAP2 POP POP JUMP JUMPDEST PUSH0 DUP1 REVERT JUMPDEST PUSH0 DUP1 REVERT JUMPDEST PUSH0 PUSH1 0x1F NOT PUSH1 0x1F DUP4 ADD AND SWAP1 POP SWAP2 SWAP1 POP JUMP JUMPDEST PUSH32 0x4E487B7100000000000000000000000000000000000000000000000000000000 PUSH0 MSTORE PUSH1 0x41 PUSH1 0x4 MSTORE PUSH1 0x24 PUSH0 REVERT JUMPDEST PUSH2 0x390 DUP3 PUSH2 0x34A JUMP JUMPDEST DUP2 ADD DUP2 DUP2 LT PUSH8 0xFFFFFFFFFFFFFFFF DUP3 GT OR ISZERO PUSH2 0x3AF JUMPI PUSH2 0x3AE PUSH2 0x35A JUMP JUMPDEST JUMPDEST DUP1 PUSH1 0x40 MSTORE POP POP POP JUMP JUMPDEST PUSH0 PUSH2 0x3C1 PUSH2 0x2A4 JUMP JUMPDEST SWAP1 POP PUSH2 0x3CD DUP3 DUP3 PUSH2 0x387 JUMP JUMPDEST SWAP2 SWAP1 POP JUMP JUMPDEST PUSH0 PUSH8 0xFFFFFFFFFFFFFFFF DUP3 GT ISZERO PUSH2 0x3EC JUMPI PUSH2 0x3EB PUSH2 0x35A JUMP JUMPDEST JUMPDEST PUSH2 0x3F5 DUP3 PUSH2 0x34A JUMP JUMPDEST SWAP1 POP PUSH1 0x20 DUP2 ADD SWAP1 POP SWAP2 SWAP1 POP JUMP JUMPDEST DUP3 DUP2 DUP4 MCOPY PUSH0 DUP4 DUP4 ADD MSTORE POP POP POP JUMP JUMPDEST PUSH0 PUSH2 0x422 PUSH2 0x41D DUP5 PUSH2 0x3D2 JUMP JUMPDEST PUSH2 0x3B8 JUMP JUMPDEST SWAP1 POP DUP3 DUP2 MSTORE PUSH1 0x20 DUP2 ADD DUP5 DUP5 DUP5 ADD GT ISZERO PUSH2 0x43E JUMPI PUSH2 0x43D PUSH2 0x346 JUMP JUMPDEST JUMPDEST PUSH2 0x449 DUP5 DUP3 DUP6 PUSH2 0x402 JUMP JUMPDEST POP SWAP4 SWAP3 POP POP POP JUMP JUMPDEST PUSH0 DUP3 PUSH1 0x1F DUP4 ADD SLT PUSH2 0x465 JUMPI PUSH2 0x464 PUSH2 0x342 JUMP JUMPDEST JUMPDEST DUP2 MLOAD PUSH2 0x475 DUP5 DUP3 PUSH1 0x20 DUP7 ADD PUSH2 0x410 JUMP JUMPDEST SWAP2 POP POP SWAP3 SWAP2 POP POP JUMP JUMPDEST PUSH0 DUP2 ISZERO ISZERO SWAP1 POP SWAP2 SWAP1 POP JUMP JUMPDEST PUSH2 0x492 DUP2 PUSH2 0x47E JUMP JUMPDEST DUP2 EQ PUSH2 0x49C JUMPI PUSH0 DUP1 REVERT JUMPDEST POP JUMP JUMPDEST PUSH0 DUP2 MLOAD SWAP1 POP PUSH2 0x4AD DUP2 PUSH2 0x489 JUMP JUMPDEST SWAP3 SWAP2 POP POP JUMP JUMPDEST PUSH0 DUP1 PUSH0 DUP1 PUSH0 DUP1 PUSH0 DUP1 PUSH2 0x100 DUP10 DUP12 SUB SLT ISZERO PUSH2 0x4D0 JUMPI PUSH2 0x4CF PUSH2 0x2AD JUMP JUMPDEST JUMPDEST PUSH0 PUSH2 0x4DD DUP12 DUP3 DUP13 ADD PUSH2 0x2FB JUMP JUMPDEST SWAP9 POP POP PUSH1 0x20 PUSH2 0x4EE DUP12 DUP3 DUP13 ADD PUSH2 0x32E JUMP JUMPDEST SWAP8 POP POP PUSH1 0x40 PUSH2 0x4FF DUP12 DUP3 DUP13 ADD PUSH2 0x32E JUMP JUMPDEST SWAP7 POP POP PUSH1 0x60 DUP10 ADD MLOAD PUSH8 0xFFFFFFFFFFFFFFFF DUP2 GT ISZERO PUSH2 0x520 JUMPI PUSH2 0x51F PUSH2 0x2B1 JUMP JUMPDEST JUMPDEST PUSH2 0x52C DUP12 DUP3 DUP13 ADD PUSH2 0x451 JUMP JUMPDEST SWAP6 POP POP PUSH1 0x80 PUSH2 0x53D DUP12 DUP3 DUP13 ADD PUSH2 0x49F JUMP JUMPDEST SWAP5 POP POP PUSH1 0xA0 PUSH2 0x54E DUP12 DUP3 DUP13 ADD PUSH2 0x2FB JUMP JUMPDEST SWAP4 POP POP PUSH1 0xC0 PUSH2 0x55F DUP12 DUP3 DUP13 ADD PUSH2 0x2FB JUMP JUMPDEST SWAP3 POP POP PUSH1 0xE0 PUSH2 0x570 DUP12 DUP3 DUP13 ADD PUSH2 0x32E JUMP JUMPDEST SWAP2 POP POP SWAP3 SWAP6 SWAP9 POP SWAP3 SWAP6 SWAP9 SWAP1 SWAP4 SWAP7 POP JUMP JUMPDEST PUSH0 DUP2 MLOAD SWAP1 POP SWAP2 SWAP1 POP JUMP JUMPDEST PUSH32 0x4E487B7100000000000000000000000000000000000000000000000000000000 PUSH0 MSTORE PUSH1 0x22 PUSH1 0x4 MSTORE PUSH1 0x24 PUSH0 REVERT JUMPDEST PUSH0 PUSH1 0x2 DUP3 DIV SWAP1 POP PUSH1 0x1 DUP3 AND DUP1 PUSH2 0x5CE JUMPI PUSH1 0x7F DUP3 AND SWAP2 POP JUMPDEST PUSH1 0x20 DUP3 LT DUP2 SUB PUSH2 0x5E1 JUMPI PUSH2 0x5E0 PUSH2 0x58A JUMP JUMPDEST JUMPDEST POP SWAP2 SWAP1 POP JUMP JUMPDEST PUSH0 DUP2 SWAP1 POP DUP2 PUSH0 MSTORE PUSH1 0x20 PUSH0 KECCAK256 SWAP1 POP SWAP2 SWAP1 POP JUMP JUMPDEST PUSH0 PUSH1 0x20 PUSH1 0x1F DUP4 ADD DIV SWAP1 POP SWAP2 SWAP1 POP JUMP JUMPDEST PUSH0 DUP3 DUP3 SHL SWAP1 POP SWAP3 SWAP2 POP POP JUMP JUMPDEST PUSH0 PUSH1 0x8 DUP4 MUL PUSH2 0x643 PUSH32 0xFFFFFFFFFFFFFFFFFFFFFFFFFFFFFFFFFFFFFFFFFFFFFFFFFFFFFFFFFFFFFFFF DUP3 PUSH2 0x608 JUMP JUMPDEST PUSH2 0x64D DUP7 DUP4 PUSH2 0x608 JUMP JUMPDEST SWAP6 POP DUP1 NOT DUP5 AND SWAP4 POP DUP1 DUP7 AND DUP5 OR SWAP3 POP POP POP SWAP4 SWAP3 POP POP POP JUMP JUMPDEST PUSH0 DUP2 SWAP1 POP SWAP2 SWAP1 POP JUMP JUMPDEST PUSH0 PUSH2 0x688 PUSH2 0x683 PUSH2 0x67E DUP5 PUSH2 0x30F JUMP JUMPDEST PUSH2 0x665 JUMP JUMPDEST PUSH2 0x30F JUMP JUMPDEST SWAP1 POP SWAP2 SWAP1 POP JUMP JUMPDEST PUSH0 DUP2 SWAP1 POP SWAP2 SWAP1 POP JUMP JUMPDEST PUSH2 0x6A1 DUP4 PUSH2 0x66E JUMP JUMPDEST PUSH2 0x6B5 PUSH2 0x6AD DUP3 PUSH2 0x68F JUMP JUMPDEST DUP5 DUP5 SLOAD PUSH2 0x614 JUMP JUMPDEST DUP3 SSTORE POP POP POP POP JUMP JUMPDEST PUSH0 SWAP1 JUMP JUMPDEST PUSH2 0x6C9 PUSH2 0x6BD JUMP JUMPDEST PUSH2 0x6D4 DUP2 DUP5 DUP5 PUSH2 0x698 JUMP JUMPDEST POP POP POP JUMP JUMPDEST JUMPDEST DUP2 DUP2 LT ISZERO PUSH2 0x6F7 JUMPI PUSH2 0x6EC PUSH0 DUP3 PUSH2 0x6C1 JUMP JUMPDEST PUSH1 0x1 DUP2 ADD SWAP1 POP PUSH2 0x6DA JUMP JUMPDEST POP POP JUMP JUMPDEST PUSH1 0x1F DUP3 GT ISZERO PUSH2 0x73C JUMPI PUSH2 0x70D DUP2 PUSH2 0x5E7 JUMP JUMPDEST PUSH2 0x716 DUP5 PUSH2 0x5F9 JUMP JUMPDEST DUP2 ADD PUSH1 0x20 DUP6 LT ISZERO PUSH2 0x725 JUMPI DUP2 SWAP1 POP JUMPDEST PUSH2 0x739 PUSH2 0x731 DUP6 PUSH2 0x5F9 JUMP JUMPDEST DUP4 ADD DUP3 PUSH2 0x6D9 JUMP JUMPDEST POP POP JUMPDEST POP POP POP JUMP JUMPDEST PUSH0 DUP3 DUP3 SHR SWAP1 POP SWAP3 SWAP2 POP POP JUMP JUMPDEST PUSH0 PUSH2 0x75C PUSH0 NOT DUP5 PUSH1 0x8 MUL PUSH2 0x741 JUMP JUMPDEST NOT DUP1 DUP4 AND SWAP2 POP POP SWAP3 SWAP2 POP POP JUMP JUMPDEST PUSH0 PUSH2 0x774 DUP4 DUP4 PUSH2 0x74D JUMP JUMPDEST SWAP2 POP DUP3 PUSH1 0x2 MUL DUP3 OR SWAP1 POP SWAP3 SWAP2 POP POP JUMP JUMPDEST PUSH2 0x78D DUP3 PUSH2 0x580 JUMP JUMPDEST PUSH8 0xFFFFFFFFFFFFFFFF DUP2 GT ISZERO PUSH2 0x7A6 JUMPI PUSH2 0x7A5 PUSH2 0x35A JUMP JUMPDEST JUMPDEST PUSH2 0x7B0 DUP3 SLOAD PUSH2 0x5B7 JUMP JUMPDEST PUSH2 0x7BB DUP3 DUP3 DUP6 PUSH2 0x6FB JUMP JUMPDEST PUSH0 PUSH1 0x20 SWAP1 POP PUSH1 0x1F DUP4 GT PUSH1 0x1 DUP2 EQ PUSH2 0x7EC JUMPI PUSH0 DUP5 ISZERO PUSH2 0x7DA JUMPI DUP3 DUP8 ADD MLOAD SWAP1 POP JUMPDEST PUSH2 0x7E4 DUP6 DUP3 PUSH2 0x769 JUMP JUMPDEST DUP7 SSTORE POP PUSH2 0x84B JUMP JUMPDEST PUSH1 0x1F NOT DUP5 AND PUSH2 0x7FA DUP7 PUSH2 0x5E7 JUMP JUMPDEST PUSH0 JUMPDEST DUP3 DUP2 LT ISZERO PUSH2 0x821 JUMPI DUP5 DUP10 ADD MLOAD DUP3 SSTORE PUSH1 0x1 DUP3 ADD SWAP2 POP PUSH1 0x20 DUP6 ADD SWAP5 POP PUSH1 0x20 DUP2 ADD SWAP1 POP PUSH2 0x7FC JUMP JUMPDEST DUP7 DUP4 LT ISZERO PUSH2 0x83E JUMPI DUP5 DUP10 ADD MLOAD PUSH2 0x83A PUSH1 0x1F DUP10 AND DUP3 PUSH2 0x74D JUMP JUMPDEST DUP4 SSTORE POP JUMPDEST PUSH1 0x1 PUSH1 0x2 DUP9 MUL ADD DUP9 SSTORE POP POP POP JUMPDEST POP POP POP POP POP POP JUMP JUMPDEST PUSH32 0x4E487B7100000000000000000000000000000000000000000000000000000000 PUSH0 MSTORE PUSH1 0x21 PUSH1 0x4 MSTORE PUSH1 0x24 PUSH0 REVERT JUMPDEST PUSH32 0x4E487B7100000000000000000000000000000000000000000000000000000000 PUSH0 MSTORE PUSH1 0x11 PUSH1 0x4 MSTORE PUSH1 0x24 PUSH0 REVERT JUMPDEST PUSH0 PUSH2 0x8B7 DUP3 PUSH2 0x30F JUMP JUMPDEST SWAP2 POP PUSH2 0x8C2 DUP4 PUSH2 0x30F JUMP JUMPDEST SWAP3 POP DUP3 DUP3 ADD SWAP1 POP DUP1 DUP3 GT ISZERO PUSH2 0x8DA JUMPI PUSH2 0x8D9 PUSH2 0x880 JUMP JUMPDEST JUMPDEST SWAP3 SWAP2 POP POP JUMP JUMPDEST PUSH0 DUP3 DUP3 MSTORE PUSH1 0x20 DUP3 ADD SWAP1 POP SWAP3 SWAP2 POP POP JUMP JUMPDEST PUSH0 DUP2 SLOAD PUSH2 0x8FC DUP2 PUSH2 0x5B7 JUMP JUMPDEST PUSH2 0x906 DUP2 DUP7 PUSH2 0x8E0 JUMP JUMPDEST SWAP5 POP PUSH1 0x1 DUP3 AND PUSH0 DUP2 EQ PUSH2 0x920 JUMPI PUSH1 0x1 DUP2 EQ PUSH2 0x936 JUMPI PUSH2 0x968 JUMP JUMPDEST PUSH1 0xFF NOT DUP4 AND DUP7 MSTORE DUP2 ISZERO ISZERO PUSH1 0x20 MUL DUP7 ADD SWAP4 POP PUSH2 0x968 JUMP JUMPDEST PUSH2 0x93F DUP6 PUSH2 0x5E7 JUMP JUMPDEST PUSH0 JUMPDEST DUP4 DUP2 LT ISZERO PUSH2 0x960 JUMPI DUP2 SLOAD DUP2 DUP10 ADD MSTORE PUSH1 0x1 DUP3 ADD SWAP2 POP PUSH1 0x20 DUP2 ADD SWAP1 POP PUSH2 0x941 JUMP JUMPDEST DUP1 DUP9 ADD SWAP6 POP POP POP JUMPDEST POP POP POP SWAP3 SWAP2 POP POP JUMP JUMPDEST PUSH0 PUSH1 0x20 DUP3 ADD SWAP1 POP DUP2 DUP2 SUB PUSH0 DUP4 ADD MSTORE PUSH2 0x989 DUP2 DUP5 PUSH2 0x8F0 JUMP JUMPDEST SWAP1 POP SWAP3 SWAP2 POP POP JUMP JUMPDEST PUSH2 0x41FD DUP1 PUSH2 0x99E PUSH0 CODECOPY PUSH0 RETURN INVALID PUSH1 0x80 PUSH1 0x40 MSTORE PUSH1 0x4 CALLDATASIZE LT PUSH2 0x271 JUMPI PUSH0 CALLDATALOAD PUSH1 0xE0 SHR DUP1 PUSH4 0x7F91DF9C GT PUSH2 0x14E JUMPI DUP1 PUSH4 0xD39763C8 GT PUSH2 0xC0 JUMPI DUP1 PUSH4 0xE36A03E0 GT PUSH2 0x79 JUMPI DUP1 PUSH4 0xE36A03E0 EQ PUSH2 0x7E1 JUMPI DUP1 PUSH4 0xEA9E7F6A EQ PUSH2 0x7F7 JUMPI DUP1 PUSH4 0xF24BB69B EQ PUSH2 0x821 JUMPI DUP1 PUSH4 0xF84A0F2D EQ PUSH2 0x84B JUMPI DUP1 PUSH4 0xF8EF1E13 EQ PUSH2 0x861 JUMPI DUP1 PUSH4 0xF8FD0501 EQ PUSH2 0x88B JUMPI PUSH2 0x271 JUMP JUMPDEST DUP1 PUSH4 0xD39763C8 EQ PUSH2 0x70D JUMPI DUP1 PUSH4 0xD4E76E2C EQ PUSH2 0x737 JUMPI DUP1 PUSH4 0xD6E82DCA EQ PUSH2 0x761 JUMPI DUP1 PUSH4 0xD9EF0459 EQ PUSH2 0x777 JUMPI DUP1 PUSH4 0xDC1997EA EQ PUSH2 0x7A1 JUMPI DUP1 PUSH4 0xDD66857F EQ PUSH2 0x7CB JUMPI PUSH2 0x271 JUMP JUMPDEST DUP1 PUSH4 0xA5E047B8 GT PUSH2 0x112 JUMPI DUP1 PUSH4 0xA5E047B8 EQ PUSH2 0x645 JUMPI DUP1 PUSH4 0xA709C4FE EQ PUSH2 0x683 JUMPI DUP1 PUSH4 0xAA018005 EQ PUSH2 0x68D JUMPI DUP1 PUSH4 0xADF07791 EQ PUSH2 0x6A3 JUMPI DUP1 PUSH4 0xB651BB61 EQ PUSH2 0x6CD JUMPI DUP1 PUSH4 0xC418C525 EQ PUSH2 0x6F7 JUMPI PUSH2 0x271 JUMP JUMPDEST DUP1 PUSH4 0x7F91DF9C EQ PUSH2 0x589 JUMPI DUP1 PUSH4 0x8E15F473 EQ PUSH2 0x5B3 JUMPI DUP1 PUSH4 0x8E3E760E EQ PUSH2 0x5DD JUMPI DUP1 PUSH4 0x8E7F727F EQ PUSH2 0x607 JUMPI DUP1 PUSH4 0x9F1F9082 EQ PUSH2 0x62F JUMPI PUSH2 0x271 JUMP JUMPDEST DUP1 PUSH4 0x3E3BD90E GT PUSH2 0x1E7 JUMPI DUP1 PUSH4 0x5C274B86 GT PUSH2 0x1AB JUMPI DUP1 PUSH4 0x5C274B86 EQ PUSH2 0x4D5 JUMPI DUP1 PUSH4 0x61BC1A49 EQ PUSH2 0x4DF JUMPI DUP1 PUSH4 0x6845071D EQ PUSH2 0x509 JUMPI DUP1 PUSH4 0x775E9FCE EQ PUSH2 0x51F JUMPI DUP1 PUSH4 0x7E88F603 EQ PUSH2 0x549 JUMPI DUP1 PUSH4 0x7EC3110C EQ PUSH2 0x55F JUMPI PUSH2 0x271 JUMP JUMPDEST DUP1 PUSH4 0x3E3BD90E EQ PUSH2 0x42B JUMPI DUP1 PUSH4 0x419759F5 EQ PUSH2 0x455 JUMPI DUP1 PUSH4 0x4269751C EQ PUSH2 0x47F JUMPI DUP1 PUSH4 0x4D5DCA5A EQ PUSH2 0x495 JUMPI DUP1 PUSH4 0x587419D5 EQ PUSH2 0x4AB JUMPI PUSH2 0x271 JUMP JUMPDEST DUP1 PUSH4 0x1F85316C GT PUSH2 0x239 JUMPI DUP1 PUSH4 0x1F85316C EQ PUSH2 0x343 JUMPI DUP1 PUSH4 0x3070C38B EQ PUSH2 0x36D JUMPI DUP1 PUSH4 0x31D019B7 EQ PUSH2 0x383 JUMPI DUP1 PUSH4 0x33FC1183 EQ PUSH2 0x3AD JUMPI DUP1 PUSH4 0x34CBFDFE EQ PUSH2 0x3D7 JUMPI DUP1 PUSH4 0x36EC98EF EQ PUSH2 0x401 JUMPI PUSH2 0x271 JUMP JUMPDEST DUP1 PUSH4 0x3C77FA4 EQ PUSH2 0x275 JUMPI DUP1 PUSH4 0xABB1D7F EQ PUSH2 0x29D JUMPI DUP1 PUSH4 0x140F26BF EQ PUSH2 0x2B3 JUMPI DUP1 PUSH4 0x18BB32F5 EQ PUSH2 0x2DD JUMPI DUP1 PUSH4 0x1CA43EDD EQ PUSH2 0x307 JUMPI JUMPDEST PUSH0 DUP1 REVERT JUMPDEST CALLVALUE DUP1 ISZERO PUSH2 0x280 JUMPI PUSH0 DUP1 REVERT JUMPDEST POP PUSH2 0x29B PUSH1 0x4 DUP1 CALLDATASIZE SUB DUP2 ADD SWAP1 PUSH2 0x296 SWAP2 SWAP1 PUSH2 0x2E8E JUMP JUMPDEST PUSH2 0x8A1 JUMP JUMPDEST STOP JUMPDEST CALLVALUE DUP1 ISZERO PUSH2 0x2A8 JUMPI PUSH0 DUP1 REVERT JUMPDEST POP PUSH2 0x2B1 PUSH2 0x9C8 JUMP JUMPDEST STOP JUMPDEST CALLVALUE DUP1 ISZERO PUSH2 0x2BE JUMPI PUSH0 DUP1 REVERT JUMPDEST POP PUSH2 0x2C7 PUSH2 0xB01 JUMP JUMPDEST PUSH1 0x40 MLOAD PUSH2 0x2D4 SWAP2 SWAP1 PUSH2 0x2F35 JUMP JUMPDEST PUSH1 0x40 MLOAD DUP1 SWAP2 SUB SWAP1 RETURN JUMPDEST CALLVALUE DUP1 ISZERO PUSH2 0x2E8 JUMPI PUSH0 DUP1 REVERT JUMPDEST POP PUSH2 0x2F1 PUSH2 0xB8D JUMP JUMPDEST PUSH1 0x40 MLOAD PUSH2 0x2FE SWAP2 SWAP1 PUSH2 0x2F6F JUMP JUMPDEST PUSH1 0x40 MLOAD DUP1 SWAP2 SUB SWAP1 RETURN JUMPDEST CALLVALUE DUP1 ISZERO PUSH2 0x312 JUMPI PUSH0 DUP1 REVERT JUMPDEST POP PUSH2 0x32D PUSH1 0x4 DUP1 CALLDATASIZE SUB DUP2 ADD SWAP1 PUSH2 0x328 SWAP2 SWAP1 PUSH2 0x2FE2 JUMP JUMPDEST PUSH2 0xB9F JUMP JUMPDEST PUSH1 0x40 MLOAD PUSH2 0x33A SWAP2 SWAP1 PUSH2 0x2F6F JUMP JUMPDEST PUSH1 0x40 MLOAD DUP1 SWAP2 SUB SWAP1 RETURN JUMPDEST CALLVALUE DUP1 ISZERO PUSH2 0x34E JUMPI PUSH0 DUP1 REVERT JUMPDEST POP PUSH2 0x357 PUSH2 0xBBC JUMP JUMPDEST PUSH1 0x40 MLOAD PUSH2 0x364 SWAP2 SWAP1 PUSH2 0x2F6F JUMP JUMPDEST PUSH1 0x40 MLOAD DUP1 SWAP2 SUB SWAP1 RETURN JUMPDEST CALLVALUE DUP1 ISZERO PUSH2 0x378 JUMPI PUSH0 DUP1 REVERT JUMPDEST POP PUSH2 0x381 PUSH2 0xBCE JUMP JUMPDEST STOP JUMPDEST CALLVALUE DUP1 ISZERO PUSH2 0x38E JUMPI PUSH0 DUP1 REVERT JUMPDEST POP PUSH2 0x397 PUSH2 0xCEE JUMP JUMPDEST PUSH1 0x40 MLOAD PUSH2 0x3A4 SWAP2 SWAP1 PUSH2 0x3080 JUMP JUMPDEST PUSH1 0x40 MLOAD DUP1 SWAP2 SUB SWAP1 RETURN JUMPDEST CALLVALUE DUP1 ISZERO PUSH2 0x3B8 JUMPI PUSH0 DUP1 REVERT JUMPDEST POP PUSH2 0x3C1 PUSH2 0xD00 JUMP JUMPDEST PUSH1 0x40 MLOAD PUSH2 0x3CE SWAP2 SWAP1 PUSH2 0x2F6F JUMP JUMPDEST PUSH1 0x40 MLOAD DUP1 SWAP2 SUB SWAP1 RETURN JUMPDEST CALLVALUE DUP1 ISZERO PUSH2 0x3E2 JUMPI PUSH0 DUP1 REVERT JUMPDEST POP PUSH2 0x3EB PUSH2 0xD13 JUMP JUMPDEST PUSH1 0x40 MLOAD PUSH2 0x3F8 SWAP2 SWAP1 PUSH2 0x30B1 JUMP JUMPDEST PUSH1 0x40 MLOAD DUP1 SWAP2 SUB SWAP1 RETURN JUMPDEST CALLVALUE DUP1 ISZERO PUSH2 0x40C JUMPI PUSH0 DUP1 REVERT JUMPDEST POP PUSH2 0x415 PUSH2 0xD19 JUMP JUMPDEST PUSH1 0x40 MLOAD PUSH2 0x422 SWAP2 SWAP1 PUSH2 0x30B1 JUMP JUMPDEST PUSH1 0x40 MLOAD DUP1 SWAP2 SUB SWAP1 RETURN JUMPDEST CALLVALUE DUP1 ISZERO PUSH2 0x436 JUMPI PUSH0 DUP1 REVERT JUMPDEST POP PUSH2 0x43F PUSH2 0xD87 JUMP JUMPDEST PUSH1 0x40 MLOAD PUSH2 0x44C SWAP2 SWAP1 PUSH2 0x30B1 JUMP JUMPDEST PUSH1 0x40 MLOAD DUP1 SWAP2 SUB SWAP1 RETURN JUMPDEST CALLVALUE DUP1 ISZERO PUSH2 0x460 JUMPI PUSH0 DUP1 REVERT JUMPDEST POP PUSH2 0x469 PUSH2 0xD8D JUMP JUMPDEST PUSH1 0x40 MLOAD PUSH2 0x476 SWAP2 SWAP1 PUSH2 0x30B1 JUMP JUMPDEST PUSH1 0x40 MLOAD DUP1 SWAP2 SUB SWAP1 RETURN JUMPDEST CALLVALUE DUP1 ISZERO PUSH2 0x48A JUMPI PUSH0 DUP1 REVERT JUMPDEST POP PUSH2 0x493 PUSH2 0xD93 JUMP JUMPDEST STOP JUMPDEST CALLVALUE DUP1 ISZERO PUSH2 0x4A0 JUMPI PUSH0 DUP1 REVERT JUMPDEST POP PUSH2 0x4A9 PUSH2 0xF10 JUMP JUMPDEST STOP JUMPDEST CALLVALUE DUP1 ISZERO PUSH2 0x4B6 JUMPI PUSH0 DUP1 REVERT JUMPDEST POP PUSH2 0x4BF PUSH2 0x108E JUMP JUMPDEST PUSH1 0x40 MLOAD PUSH2 0x4CC SWAP2 SWAP1 PUSH2 0x30B1 JUMP JUMPDEST PUSH1 0x40 MLOAD DUP1 SWAP2 SUB SWAP1 RETURN JUMPDEST PUSH2 0x4DD PUSH2 0x1094 JUMP JUMPDEST STOP JUMPDEST CALLVALUE DUP1 ISZERO PUSH2 0x4EA JUMPI PUSH0 DUP1 REVERT JUMPDEST POP PUSH2 0x4F3 PUSH2 0x143A JUMP JUMPDEST PUSH1 0x40 MLOAD PUSH2 0x500 SWAP2 SWAP1 PUSH2 0x30B1 JUMP JUMPDEST PUSH1 0x40 MLOAD DUP1 SWAP2 SUB SWAP1 RETURN JUMPDEST CALLVALUE DUP1 ISZERO PUSH2 0x514 JUMPI PUSH0 DUP1 REVERT JUMPDEST POP PUSH2 0x51D PUSH2 0x1440 JUMP JUMPDEST STOP JUMPDEST CALLVALUE DUP1 ISZERO PUSH2 0x52A JUMPI PUSH0 DUP1 REVERT JUMPDEST POP PUSH2 0x533 PUSH2 0x1583 JUMP JUMPDEST PUSH1 0x40 MLOAD PUSH2 0x540 SWAP2 SWAP1 PUSH2 0x30B1 JUMP JUMPDEST PUSH1 0x40 MLOAD DUP1 SWAP2 SUB SWAP1 RETURN JUMPDEST CALLVALUE DUP1 ISZERO PUSH2 0x554 JUMPI PUSH0 DUP1 REVERT JUMPDEST POP PUSH2 0x55D PUSH2 0x1589 JUMP JUMPDEST STOP JUMPDEST CALLVALUE DUP1 ISZERO PUSH2 0x56A JUMPI PUSH0 DUP1 REVERT JUMPDEST POP PUSH2 0x573 PUSH2 0x175A JUMP JUMPDEST PUSH1 0x40 MLOAD PUSH2 0x580 SWAP2 SWAP1 PUSH2 0x30B1 JUMP JUMPDEST PUSH1 0x40 MLOAD DUP1 SWAP2 SUB SWAP1 RETURN JUMPDEST CALLVALUE DUP1 ISZERO PUSH2 0x594 JUMPI PUSH0 DUP1 REVERT JUMPDEST POP PUSH2 0x59D PUSH2 0x1760 JUMP JUMPDEST PUSH1 0x40 MLOAD PUSH2 0x5AA SWAP2 SWAP1 PUSH2 0x30B1 JUMP JUMPDEST PUSH1 0x40 MLOAD DUP1 SWAP2 SUB SWAP1 RETURN JUMPDEST CALLVALUE DUP1 ISZERO PUSH2 0x5BE JUMPI PUSH0 DUP1 REVERT JUMPDEST POP PUSH2 0x5C7 PUSH2 0x17FD JUMP JUMPDEST PUSH1 0x40 MLOAD PUSH2 0x5D4 SWAP2 SWAP1 PUSH2 0x30B1 JUMP JUMPDEST PUSH1 0x40 MLOAD DUP1 SWAP2 SUB SWAP1 RETURN JUMPDEST CALLVALUE DUP1 ISZERO PUSH2 0x5E8 JUMPI PUSH0 DUP1 REVERT JUMPDEST POP PUSH2 0x5F1 PUSH2 0x18AA JUMP JUMPDEST PUSH1 0x40 MLOAD PUSH2 0x5FE SWAP2 SWAP1 PUSH2 0x2F6F JUMP JUMPDEST PUSH1 0x40 MLOAD DUP1 SWAP2 SUB SWAP1 RETURN JUMPDEST CALLVALUE DUP1 ISZERO PUSH2 0x612 JUMPI PUSH0 DUP1 REVERT JUMPDEST POP PUSH2 0x62D PUSH1 0x4 DUP1 CALLDATASIZE SUB DUP2 ADD SWAP1 PUSH2 0x628 SWAP2 SWAP1 PUSH2 0x30F4 JUMP JUMPDEST PUSH2 0x18BC JUMP JUMPDEST STOP JUMPDEST CALLVALUE DUP1 ISZERO PUSH2 0x63A JUMPI PUSH0 DUP1 REVERT JUMPDEST POP PUSH2 0x643 PUSH2 0x1A94 JUMP JUMPDEST STOP JUMPDEST CALLVALUE DUP1 ISZERO PUSH2 0x650 JUMPI PUSH0 DUP1 REVERT JUMPDEST POP PUSH2 0x66B PUSH1 0x4 DUP1 CALLDATASIZE SUB DUP2 ADD SWAP1 PUSH2 0x666 SWAP2 SWAP1 PUSH2 0x314E JUMP JUMPDEST PUSH2 0x1B7A JUMP JUMPDEST PUSH1 0x40 MLOAD PUSH2 0x67A SWAP4 SWAP3 SWAP2 SWAP1 PUSH2 0x3179 JUMP JUMPDEST PUSH1 0x40 MLOAD DUP1 SWAP2 SUB SWAP1 RETURN JUMPDEST PUSH2 0x68B PUSH2 0x1BBB JUMP JUMPDEST STOP JUMPDEST CALLVALUE DUP1 ISZERO PUSH2 0x698 JUMPI PUSH0 DUP1 REVERT JUMPDEST POP PUSH2 0x6A1 PUSH2 0x1FC5 JUMP JUMPDEST STOP JUMPDEST CALLVALUE DUP1 ISZERO PUSH2 0x6AE JUMPI PUSH0 DUP1 REVERT JUMPDEST POP PUSH2 0x6B7 PUSH2 0x20AA JUMP JUMPDEST PUSH1 0x40 MLOAD PUSH2 0x6C4 SWAP2 SWAP1 PUSH2 0x31BD JUMP JUMPDEST PUSH1 0x40 MLOAD DUP1 SWAP2 SUB SWAP1 RETURN JUMPDEST CALLVALUE DUP1 ISZERO PUSH2 0x6D8 JUMPI PUSH0 DUP1 REVERT JUMPDEST POP PUSH2 0x6E1 PUSH2 0x20CF JUMP JUMPDEST PUSH1 0x40 MLOAD PUSH2 0x6EE SWAP2 SWAP1 PUSH2 0x32DC JUMP JUMPDEST PUSH1 0x40 MLOAD DUP1 SWAP2 SUB SWAP1 RETURN JUMPDEST CALLVALUE DUP1 ISZERO PUSH2 0x702 JUMPI PUSH0 DUP1 REVERT JUMPDEST POP PUSH2 0x70B PUSH2 0x2158 JUMP JUMPDEST STOP JUMPDEST CALLVALUE DUP1 ISZERO PUSH2 0x718 JUMPI PUSH0 DUP1 REVERT JUMPDEST POP PUSH2 0x721 PUSH2 0x22BA JUMP JUMPDEST PUSH1 0x40 MLOAD PUSH2 0x72E SWAP2 SWAP1 PUSH2 0x31BD JUMP JUMPDEST PUSH1 0x40 MLOAD DUP1 SWAP2 SUB SWAP1 RETURN JUMPDEST CALLVALUE DUP1 ISZERO PUSH2 0x742 JUMPI PUSH0 DUP1 REVERT JUMPDEST POP PUSH2 0x74B PUSH2 0x22E0 JUMP JUMPDEST PUSH1 0x40 MLOAD PUSH2 0x758 SWAP2 SWAP1 PUSH2 0x30B1 JUMP JUMPDEST PUSH1 0x40 MLOAD DUP1 SWAP2 SUB SWAP1 RETURN JUMPDEST CALLVALUE DUP1 ISZERO PUSH2 0x76C JUMPI PUSH0 DUP1 REVERT JUMPDEST POP PUSH2 0x775 PUSH2 0x232F JUMP JUMPDEST STOP JUMPDEST CALLVALUE DUP1 ISZERO PUSH2 0x782 JUMPI PUSH0 DUP1 REVERT JUMPDEST POP PUSH2 0x78B PUSH2 0x2493 JUMP JUMPDEST PUSH1 0x40 MLOAD PUSH2 0x798 SWAP2 SWAP1 PUSH2 0x30B1 JUMP JUMPDEST PUSH1 0x40 MLOAD DUP1 SWAP2 SUB SWAP1 RETURN JUMPDEST CALLVALUE DUP1 ISZERO PUSH2 0x7AC JUMPI PUSH0 DUP1 REVERT JUMPDEST POP PUSH2 0x7B5 PUSH2 0x2499 JUMP JUMPDEST PUSH1 0x40 MLOAD PUSH2 0x7C2 SWAP2 SWAP1 PUSH2 0x31BD JUMP JUMPDEST PUSH1 0x40 MLOAD DUP1 SWAP2 SUB SWAP1 RETURN JUMPDEST CALLVALUE DUP1 ISZERO PUSH2 0x7D6 JUMPI PUSH0 DUP1 REVERT JUMPDEST POP PUSH2 0x7DF PUSH2 0x24BC JUMP JUMPDEST STOP JUMPDEST CALLVALUE DUP1 ISZERO PUSH2 0x7EC JUMPI PUSH0 DUP1 REVERT JUMPDEST POP PUSH2 0x7F5 PUSH2 0x2699 JUMP JUMPDEST STOP JUMPDEST CALLVALUE DUP1 ISZERO PUSH2 0x802 JUMPI PUSH0 DUP1 REVERT JUMPDEST POP PUSH2 0x80B PUSH2 0x2A56 JUMP JUMPDEST PUSH1 0x40 MLOAD PUSH2 0x818 SWAP2 SWAP1 PUSH2 0x30B1 JUMP JUMPDEST PUSH1 0x40 MLOAD DUP1 SWAP2 SUB SWAP1 RETURN JUMPDEST CALLVALUE DUP1 ISZERO PUSH2 0x82C JUMPI PUSH0 DUP1 REVERT JUMPDEST POP PUSH2 0x835 PUSH2 0x2A5C JUMP JUMPDEST PUSH1 0x40 MLOAD PUSH2 0x842 SWAP2 SWAP1 PUSH2 0x30B1 JUMP JUMPDEST PUSH1 0x40 MLOAD DUP1 SWAP2 SUB SWAP1 RETURN JUMPDEST CALLVALUE DUP1 ISZERO PUSH2 0x856 JUMPI PUSH0 DUP1 REVERT JUMPDEST POP PUSH2 0x85F PUSH2 0x2A62 JUMP JUMPDEST STOP JUMPDEST CALLVALUE DUP1 ISZERO PUSH2 0x86C JUMPI PUSH0 DUP1 REVERT JUMPDEST POP PUSH2 0x875 PUSH2 0x2BB4 JUMP JUMPDEST PUSH1 0x40 MLOAD PUSH2 0x882 SWAP2 SWAP1 PUSH2 0x30B1 JUMP JUMPDEST PUSH1 0x40 MLOAD DUP1 SWAP2 SUB SWAP1 RETURN JUMPDEST CALLVALUE DUP1 ISZERO PUSH2 0x896 JUMPI PUSH0 DUP1 REVERT JUMPDEST POP PUSH2 0x89F PUSH2 0x2BBA JUMP JUMPDEST STOP JUMPDEST PUSH0 DUP1 SLOAD SWAP1 PUSH2 0x100 EXP SWAP1 DIV PUSH20 0xFFFFFFFFFFFFFFFFFFFFFFFFFFFFFFFFFFFFFFFF AND PUSH20 0xFFFFFFFFFFFFFFFFFFFFFFFFFFFFFFFFFFFFFFFF AND CALLER PUSH20 0xFFFFFFFFFFFFFFFFFFFFFFFFFFFFFFFFFFFFFFFF AND EQ PUSH2 0x92E JUMPI PUSH1 0x40 MLOAD PUSH32 0x8C379A000000000000000000000000000000000000000000000000000000000 DUP2 MSTORE PUSH1 0x4 ADD PUSH2 0x925 SWAP1 PUSH2 0x336C JUMP JUMPDEST PUSH1 0x40 MLOAD DUP1 SWAP2 SUB SWAP1 REVERT JUMPDEST PUSH1 0x1 PUSH1 0x13 PUSH0 PUSH2 0x100 EXP DUP2 SLOAD DUP2 PUSH1 0xFF MUL NOT AND SWAP1 DUP4 PUSH1 0x2 DUP2 GT ISZERO PUSH2 0x953 JUMPI PUSH2 0x952 PUSH2 0x300D JUMP JUMPDEST JUMPDEST MUL OR SWAP1 SSTORE POP PUSH0 DUP1 SLOAD SWAP1 PUSH2 0x100 EXP SWAP1 DIV PUSH20 0xFFFFFFFFFFFFFFFFFFFFFFFFFFFFFFFFFFFFFFFF AND PUSH20 0xFFFFFFFFFFFFFFFFFFFFFFFFFFFFFFFFFFFFFFFF AND PUSH32 0x7B73F5D770F3EB41FD57F1E6A1C9E2A5EC61FEBBBD4E608D511C46E3FD611639 DUP3 PUSH1 0x40 MLOAD PUSH2 0x9BD SWAP2 SWAP1 PUSH2 0x2F35 JUMP JUMPDEST PUSH1 0x40 MLOAD DUP1 SWAP2 SUB SWAP1 LOG2 POP JUMP JUMPDEST PUSH0 PUSH1 0x2 DUP2 GT ISZERO PUSH2 0x9DB JUMPI PUSH2 0x9DA PUSH2 0x300D JUMP JUMPDEST JUMPDEST PUSH1 0x13 PUSH0 SWAP1 SLOAD SWAP1 PUSH2 0x100 EXP SWAP1 DIV PUSH1 0xFF AND PUSH1 0x2 DUP2 GT ISZERO PUSH2 0x9FC JUMPI PUSH2 0x9FB PUSH2 0x300D JUMP JUMPDEST JUMPDEST EQ PUSH2 0xA3C JUMPI PUSH1 0x40 MLOAD PUSH32 0x8C379A000000000000000000000000000000000000000000000000000000000 DUP2 MSTORE PUSH1 0x4 ADD PUSH2 0xA33 SWAP1 PUSH2 0x33D4 JUMP JUMPDEST PUSH1 0x40 MLOAD DUP1 SWAP2 SUB SWAP1 REVERT JUMPDEST PUSH0 TIMESTAMP PUSH1 0xF SLOAD PUSH2 0xA4B SWAP2 SWAP1 PUSH2 0x341F JUMP JUMPDEST SWAP1 POP PUSH3 0x4F1A00 DUP2 EQ DUP1 PUSH2 0xA5E JUMPI POP PUSH1 0x1E DUP2 EQ JUMPDEST ISZERO PUSH2 0xAAD JUMPI PUSH32 0xD0B1F933B37BCB6FA032C1F03D79EC22BE0798137CDB06AD046BE2E640EAFBC5 PUSH3 0x15180 DUP3 PUSH2 0xA93 SWAP2 SWAP1 PUSH2 0x347F JUMP JUMPDEST PUSH1 0x40 MLOAD PUSH2 0xAA0 SWAP2 SWAP1 PUSH2 0x30B1 JUMP JUMPDEST PUSH1 0x40 MLOAD DUP1 SWAP2 SUB SWAP1 LOG1 PUSH2 0xAFE JUMP JUMPDEST PUSH3 0x127500 DUP2 LT PUSH2 0xAFD JUMPI PUSH32 0xD0B1F933B37BCB6FA032C1F03D79EC22BE0798137CDB06AD046BE2E640EAFBC5 PUSH3 0x15180 DUP3 PUSH2 0xAE7 SWAP2 SWAP1 PUSH2 0x347F JUMP JUMPDEST PUSH1 0x40 MLOAD PUSH2 0xAF4 SWAP2 SWAP1 PUSH2 0x30B1 JUMP JUMPDEST PUSH1 0x40 MLOAD DUP1 SWAP2 SUB SWAP1 LOG1 JUMPDEST JUMPDEST POP JUMP JUMPDEST PUSH1 0x4 DUP1 SLOAD PUSH2 0xB0E SWAP1 PUSH2 0x34DC JUMP JUMPDEST DUP1 PUSH1 0x1F ADD PUSH1 0x20 DUP1 SWAP2 DIV MUL PUSH1 0x20 ADD PUSH1 0x40 MLOAD SWAP1 DUP2 ADD PUSH1 0x40 MSTORE DUP1 SWAP3 SWAP2 SWAP1 DUP2 DUP2 MSTORE PUSH1 0x20 ADD DUP3 DUP1 SLOAD PUSH2 0xB3A SWAP1 PUSH2 0x34DC JUMP JUMPDEST DUP1 ISZERO PUSH2 0xB85 JUMPI DUP1 PUSH1 0x1F LT PUSH2 0xB5C JUMPI PUSH2 0x100 DUP1 DUP4 SLOAD DIV MUL DUP4 MSTORE SWAP2 PUSH1 0x20 ADD SWAP2 PUSH2 0xB85 JUMP JUMPDEST DUP3 ADD SWAP2 SWAP1 PUSH0 MSTORE PUSH1 0x20 PUSH0 KECCAK256 SWAP1 JUMPDEST DUP2 SLOAD DUP2 MSTORE SWAP1 PUSH1 0x1 ADD SWAP1 PUSH1 0x20 ADD DUP1 DUP4 GT PUSH2 0xB68 JUMPI DUP3 SWAP1 SUB PUSH1 0x1F AND DUP3 ADD SWAP2 JUMPDEST POP POP POP POP POP DUP2 JUMP JUMPDEST PUSH1 0x5 PUSH0 SWAP1 SLOAD SWAP1 PUSH2 0x100 EXP SWAP1 DIV PUSH1 0xFF AND DUP2 JUMP JUMPDEST PUSH1 0x12 PUSH1 0x20 MSTORE DUP1 PUSH0 MSTORE PUSH1 0x40 PUSH0 KECCAK256 PUSH0 SWAP2 POP SLOAD SWAP1 PUSH2 0x100 EXP SWAP1 DIV PUSH1 0xFF AND DUP2 JUMP JUMPDEST PUSH1 0xD PUSH0 SWAP1 SLOAD SWAP1 PUSH2 0x100 EXP SWAP1 DIV PUSH1 0xFF AND DUP2 JUMP JUMPDEST PUSH0 DUP1 SLOAD SWAP1 PUSH2 0x100 EXP SWAP1 DIV PUSH20 0xFFFFFFFFFFFFFFFFFFFFFFFFFFFFFFFFFFFFFFFF AND PUSH20 0xFFFFFFFFFFFFFFFFFFFFFFFFFFFFFFFFFFFFFFFF AND CALLER PUSH20 0xFFFFFFFFFFFFFFFFFFFFFFFFFFFFFFFFFFFFFFFF AND EQ PUSH2 0xC5B JUMPI PUSH1 0x40 MLOAD PUSH32 0x8C379A000000000000000000000000000000000000000000000000000000000 DUP2 MSTORE PUSH1 0x4 ADD PUSH2 0xC52 SWAP1 PUSH2 0x336C JUMP JUMPDEST PUSH1 0x40 MLOAD DUP1 SWAP2 SUB SWAP1 REVERT JUMPDEST PUSH1 0x2 SLOAD PUSH1 0x3 PUSH2 0xC6A SWAP2 SWAP1 PUSH2 0x350C JUMP JUMPDEST PUSH1 0xC SLOAD GT ISZERO PUSH2 0xCEC JUMPI PUSH3 0x76A700 TIMESTAMP PUSH2 0xC82 SWAP2 SWAP1 PUSH2 0x354D JUMP JUMPDEST PUSH1 0xE DUP2 SWAP1 SSTORE POP PUSH1 0x2 PUSH1 0x13 PUSH0 PUSH2 0x100 EXP DUP2 SLOAD DUP2 PUSH1 0xFF MUL NOT AND SWAP1 DUP4 PUSH1 0x2 DUP2 GT ISZERO PUSH2 0xCAD JUMPI PUSH2 0xCAC PUSH2 0x300D JUMP JUMPDEST JUMPDEST MUL OR SWAP1 SSTORE POP PUSH32 0x2032EEA88030B7D191BCBDC44C5AC10ED559F3E9F56A319C896F007B55ABA5C6 PUSH1 0xE SLOAD PUSH1 0x40 MLOAD PUSH2 0xCE3 SWAP2 SWAP1 PUSH2 0x30B1 JUMP JUMPDEST PUSH1 0x40 MLOAD DUP1 SWAP2 SUB SWAP1 LOG1 JUMPDEST JUMP JUMPDEST PUSH1 0x13 PUSH0 SWAP1 SLOAD SWAP1 PUSH2 0x100 EXP SWAP1 DIV PUSH1 0xFF AND DUP2 JUMP JUMPDEST PUSH1 0x11 PUSH1 0x1 SWAP1 SLOAD SWAP1 PUSH2 0x100 EXP SWAP1 DIV PUSH1 0xFF AND DUP2 JUMP JUMPDEST PUSH1 0xB SLOAD DUP2 JUMP JUMPDEST PUSH0 DUP1 PUSH1 0x8 SLOAD TIMESTAMP PUSH2 0xD29 SWAP2 SWAP1 PUSH2 0x341F JUMP JUMPDEST SWAP1 POP PUSH0 PUSH4 0x1E13380 DUP3 PUSH2 0xD3C SWAP2 SWAP1 PUSH2 0x347F JUMP JUMPDEST SWAP1 POP PUSH0 PUSH2 0xD47 PUSH2 0x1760 JUMP JUMPDEST SWAP1 POP PUSH0 PUSH1 0x64 DUP4 DUP4 PUSH2 0xD58 SWAP2 SWAP1 PUSH2 0x350C JUMP JUMPDEST PUSH2 0xD62 SWAP2 SWAP1 PUSH2 0x347F JUMP JUMPDEST PUSH1 0x1 PUSH2 0xD6E SWAP2 SWAP1 PUSH2 0x354D JUMP JUMPDEST PUSH1 0x7 SLOAD PUSH2 0xD7B SWAP2 SWAP1 PUSH2 0x350C JUMP JUMPDEST SWAP1 POP DUP1 SWAP5 POP POP POP POP POP SWAP1 JUMP JUMPDEST PUSH1 0xF SLOAD DUP2 JUMP JUMPDEST PUSH1 0x3 SLOAD DUP2 JUMP JUMPDEST PUSH1 0x1 PUSH0 SWAP1 SLOAD SWAP1 PUSH2 0x100 EXP SWAP1 DIV PUSH20 0xFFFFFFFFFFFFFFFFFFFFFFFFFFFFFFFFFFFFFFFF AND PUSH20 0xFFFFFFFFFFFFFFFFFFFFFFFFFFFFFFFFFFFFFFFF AND CALLER PUSH20 0xFFFFFFFFFFFFFFFFFFFFFFFFFFFFFFFFFFFFFFFF AND EQ PUSH2 0xE22 JUMPI PUSH1 0x40 MLOAD PUSH32 0x8C379A000000000000000000000000000000000000000000000000000000000 DUP2 MSTORE PUSH1 0x4 ADD PUSH2 0xE19 SWAP1 PUSH2 0x35F0 JUMP JUMPDEST PUSH1 0x40 MLOAD DUP1 SWAP2 SUB SWAP1 REVERT JUMPDEST PUSH0 PUSH1 0x2 DUP2 GT ISZERO PUSH2 0xE35 JUMPI PUSH2 0xE34 PUSH2 0x300D JUMP JUMPDEST JUMPDEST PUSH1 0x13 PUSH0 SWAP1 SLOAD SWAP1 PUSH2 0x100 EXP SWAP1 DIV PUSH1 0xFF AND PUSH1 0x2 DUP2 GT ISZERO PUSH2 0xE56 JUMPI PUSH2 0xE55 PUSH2 0x300D JUMP JUMPDEST JUMPDEST EQ PUSH2 0xE96 JUMPI PUSH1 0x40 MLOAD PUSH32 0x8C379A000000000000000000000000000000000000000000000000000000000 DUP2 MSTORE PUSH1 0x4 ADD PUSH2 0xE8D SWAP1 PUSH2 0x3658 JUMP JUMPDEST PUSH1 0x40 MLOAD DUP1 SWAP2 SUB SWAP1 REVERT JUMPDEST PUSH3 0x76A700 TIMESTAMP PUSH2 0xEA5 SWAP2 SWAP1 PUSH2 0x354D JUMP JUMPDEST PUSH1 0xE DUP2 SWAP1 SSTORE POP PUSH1 0x2 PUSH1 0x13 PUSH0 PUSH2 0x100 EXP DUP2 SLOAD DUP2 PUSH1 0xFF MUL NOT AND SWAP1 DUP4 PUSH1 0x2 DUP2 GT ISZERO PUSH2 0xED0 JUMPI PUSH2 0xECF PUSH2 0x300D JUMP JUMPDEST JUMPDEST MUL OR SWAP1 SSTORE POP PUSH32 0x2032EEA88030B7D191BCBDC44C5AC10ED559F3E9F56A319C896F007B55ABA5C6 PUSH1 0xE SLOAD PUSH1 0x40 MLOAD PUSH2 0xF06 SWAP2 SWAP1 PUSH2 0x30B1 JUMP JUMPDEST PUSH1 0x40 MLOAD DUP1 SWAP2 SUB SWAP1 LOG1 JUMP JUMPDEST PUSH0 DUP1 SLOAD SWAP1 PUSH2 0x100 EXP SWAP1 DIV PUSH20 0xFFFFFFFFFFFFFFFFFFFFFFFFFFFFFFFFFFFFFFFF AND PUSH20 0xFFFFFFFFFFFFFFFFFFFFFFFFFFFFFFFFFFFFFFFF AND CALLER PUSH20 0xFFFFFFFFFFFFFFFFFFFFFFFFFFFFFFFFFFFFFFFF AND EQ PUSH2 0xF9D JUMPI PUSH1 0x40 MLOAD PUSH32 0x8C379A000000000000000000000000000000000000000000000000000000000 DUP2 MSTORE PUSH1 0x4 ADD PUSH2 0xF94 SWAP1 PUSH2 0x336C JUMP JUMPDEST PUSH1 0x40 MLOAD DUP1 SWAP2 SUB SWAP1 REVERT JUMPDEST PUSH1 0xD PUSH0 SWAP1 SLOAD SWAP1 PUSH2 0x100 EXP SWAP1 DIV PUSH1 0xFF AND PUSH2 0xFEB JUMPI PUSH1 0x40 MLOAD PUSH32 0x8C379A000000000000000000000000000000000000000000000000000000000 DUP2 MSTORE PUSH1 0x4 ADD PUSH2 0xFE2 SWAP1 PUSH2 0x36C0 JUMP JUMPDEST PUSH1 0x40 MLOAD DUP1 SWAP2 SUB SWAP1 REVERT JUMPDEST PUSH1 0xB PUSH0 DUP2 SLOAD DUP1 SWAP3 SWAP2 SWAP1 PUSH2 0xFFD SWAP1 PUSH2 0x36DE JUMP JUMPDEST SWAP2 SWAP1 POP SSTORE POP PUSH0 PUSH1 0xD PUSH0 PUSH2 0x100 EXP DUP2 SLOAD DUP2 PUSH1 0xFF MUL NOT AND SWAP1 DUP4 ISZERO ISZERO MUL OR SWAP1 SSTORE POP PUSH1 0x1 PUSH0 SWAP1 SLOAD SWAP1 PUSH2 0x100 EXP SWAP1 DIV PUSH20 0xFFFFFFFFFFFFFFFFFFFFFFFFFFFFFFFFFFFFFFFF AND PUSH20 0xFFFFFFFFFFFFFFFFFFFFFFFFFFFFFFFFFFFFFFFF AND PUSH32 0x3B3128F7F622FF2560E38BE1B058B93BA3D585CBA51577708F3DA9D6FE4CD925 PUSH1 0xB SLOAD PUSH1 0x40 MLOAD PUSH2 0x1084 SWAP2 SWAP1 PUSH2 0x30B1 JUMP JUMPDEST PUSH1 0x40 MLOAD DUP1 SWAP2 SUB SWAP1 LOG2 JUMP JUMPDEST PUSH1 0x8 SLOAD DUP2 JUMP JUMPDEST PUSH1 0x1 PUSH0 SWAP1 SLOAD SWAP1 PUSH2 0x100 EXP SWAP1 DIV PUSH20 0xFFFFFFFFFFFFFFFFFFFFFFFFFFFFFFFFFFFFFFFF AND PUSH20 0xFFFFFFFFFFFFFFFFFFFFFFFFFFFFFFFFFFFFFFFF AND CALLER PUSH20 0xFFFFFFFFFFFFFFFFFFFFFFFFFFFFFFFFFFFFFFFF AND EQ PUSH2 0x1123 JUMPI PUSH1 0x40 MLOAD PUSH32 0x8C379A000000000000000000000000000000000000000000000000000000000 DUP2 MSTORE PUSH1 0x4 ADD PUSH2 0x111A SWAP1 PUSH2 0x35F0 JUMP JUMPDEST PUSH1 0x40 MLOAD DUP1 SWAP2 SUB SWAP1 REVERT JUMPDEST PUSH0 PUSH1 0x2 DUP2 GT ISZERO PUSH2 0x1136 JUMPI PUSH2 0x1135 PUSH2 0x300D JUMP JUMPDEST JUMPDEST PUSH1 0x13 PUSH0 SWAP1 SLOAD SWAP1 PUSH2 0x100 EXP SWAP1 DIV PUSH1 0xFF AND PUSH1 0x2 DUP2 GT ISZERO PUSH2 0x1157 JUMPI PUSH2 0x1156 PUSH2 0x300D JUMP JUMPDEST JUMPDEST EQ PUSH2 0x1197 JUMPI PUSH1 0x40 MLOAD PUSH32 0x8C379A000000000000000000000000000000000000000000000000000000000 DUP2 MSTORE PUSH1 0x4 ADD PUSH2 0x118E SWAP1 PUSH2 0x376F JUMP JUMPDEST PUSH1 0x40 MLOAD DUP1 SWAP2 SUB SWAP1 REVERT JUMPDEST PUSH0 PUSH1 0x5 PUSH0 SWAP1 SLOAD SWAP1 PUSH2 0x100 EXP SWAP1 DIV PUSH1 0xFF AND ISZERO PUSH2 0x12F1 JUMPI PUSH1 0x3 SLOAD SWAP1 POP PUSH1 0x5 PUSH1 0x1 SWAP1 SLOAD SWAP1 PUSH2 0x100 EXP SWAP1 DIV PUSH20 0xFFFFFFFFFFFFFFFFFFFFFFFFFFFFFFFFFFFFFFFF AND PUSH20 0xFFFFFFFFFFFFFFFFFFFFFFFFFFFFFFFFFFFFFFFF AND PUSH4 0x23B872DD CALLER ADDRESS DUP5 PUSH1 0x40 MLOAD DUP5 PUSH4 0xFFFFFFFF AND PUSH1 0xE0 SHL DUP2 MSTORE PUSH1 0x4 ADD PUSH2 0x1210 SWAP4 SWAP3 SWAP2 SWAP1 PUSH2 0x378D JUMP JUMPDEST PUSH1 0x20 PUSH1 0x40 MLOAD DUP1 DUP4 SUB DUP2 PUSH0 DUP8 GAS CALL ISZERO DUP1 ISZERO PUSH2 0x122C JUMPI RETURNDATASIZE PUSH0 DUP1 RETURNDATACOPY RETURNDATASIZE PUSH0 REVERT JUMPDEST POP POP POP POP PUSH1 0x40 MLOAD RETURNDATASIZE PUSH1 0x1F NOT PUSH1 0x1F DUP3 ADD AND DUP3 ADD DUP1 PUSH1 0x40 MSTORE POP DUP2 ADD SWAP1 PUSH2 0x1250 SWAP2 SWAP1 PUSH2 0x37EC JUMP JUMPDEST PUSH2 0x128F JUMPI PUSH1 0x40 MLOAD PUSH32 0x8C379A000000000000000000000000000000000000000000000000000000000 DUP2 MSTORE PUSH1 0x4 ADD PUSH2 0x1286 SWAP1 PUSH2 0x3861 JUMP JUMPDEST PUSH1 0x40 MLOAD DUP1 SWAP2 SUB SWAP1 REVERT JUMPDEST PUSH0 DUP2 CALLVALUE PUSH2 0x129C SWAP2 SWAP1 PUSH2 0x341F JUMP JUMPDEST SWAP1 POP PUSH0 DUP2 GT ISZERO PUSH2 0x12EB JUMPI CALLER PUSH20 0xFFFFFFFFFFFFFFFFFFFFFFFFFFFFFFFFFFFFFFFF AND PUSH2 0x8FC DUP3 SWAP1 DUP2 ISZERO MUL SWAP1 PUSH1 0x40 MLOAD PUSH0 PUSH1 0x40 MLOAD DUP1 DUP4 SUB DUP2 DUP6 DUP9 DUP9 CALL SWAP4 POP POP POP POP ISZERO DUP1 ISZERO PUSH2 0x12E9 JUMPI RETURNDATASIZE PUSH0 DUP1 RETURNDATACOPY RETURNDATASIZE PUSH0 REVERT JUMPDEST POP JUMPDEST POP PUSH2 0x13D9 JUMP JUMPDEST PUSH0 PUSH2 0x12FA PUSH2 0x17FD JUMP JUMPDEST SWAP1 POP DUP1 PUSH8 0xDE0B6B3A7640000 PUSH1 0x3 SLOAD PUSH2 0x1313 SWAP2 SWAP1 PUSH2 0x350C JUMP JUMPDEST PUSH2 0x131D SWAP2 SWAP1 PUSH2 0x347F JUMP JUMPDEST SWAP2 POP DUP2 CALLVALUE LT ISZERO PUSH2 0x1362 JUMPI PUSH1 0x40 MLOAD PUSH32 0x8C379A000000000000000000000000000000000000000000000000000000000 DUP2 MSTORE PUSH1 0x4 ADD PUSH2 0x1359 SWAP1 PUSH2 0x38C9 JUMP JUMPDEST PUSH1 0x40 MLOAD DUP1 SWAP2 SUB SWAP1 REVERT JUMPDEST PUSH0 DUP3 CALLVALUE PUSH2 0x136F SWAP2 SWAP1 PUSH2 0x341F JUMP JUMPDEST SWAP1 POP PUSH0 DUP2 GT ISZERO PUSH2 0x13BE JUMPI CALLER PUSH20 0xFFFFFFFFFFFFFFFFFFFFFFFFFFFFFFFFFFFFFFFF AND PUSH2 0x8FC DUP3 SWAP1 DUP2 ISZERO MUL SWAP1 PUSH1 0x40 MLOAD PUSH0 PUSH1 0x40 MLOAD DUP1 DUP4 SUB DUP2 DUP6 DUP9 DUP9 CALL SWAP4 POP POP POP POP ISZERO DUP1 ISZERO PUSH2 0x13BC JUMPI RETURNDATASIZE PUSH0 DUP1 RETURNDATACOPY RETURNDATASIZE PUSH0 REVERT JUMPDEST POP JUMPDEST DUP3 PUSH1 0x7 PUSH0 DUP3 DUP3 SLOAD PUSH2 0x13CF SWAP2 SWAP1 PUSH2 0x354D JUMP JUMPDEST SWAP3 POP POP DUP2 SWAP1 SSTORE POP POP POP JUMPDEST CALLER PUSH20 0xFFFFFFFFFFFFFFFFFFFFFFFFFFFFFFFFFFFFFFFF AND PUSH32 0xD843B6E8D49F0E65C61FB0C27466E0719DF02E1CA2340E577C3E289C1AC9154C DUP3 PUSH1 0x5 PUSH0 SWAP1 SLOAD SWAP1 PUSH2 0x100 EXP SWAP1 DIV PUSH1 0xFF AND PUSH1 0x40 MLOAD PUSH2 0x142F SWAP3 SWAP2 SWAP1 PUSH2 0x38E7 JUMP JUMPDEST PUSH1 0x40 MLOAD DUP1 SWAP2 SUB SWAP1 LOG2 POP JUMP JUMPDEST PUSH1 0x7 SLOAD DUP2 JUMP JUMPDEST PUSH1 0xF SLOAD TIMESTAMP LT ISZERO PUSH2 0x1485 JUMPI PUSH1 0x40 MLOAD PUSH32 0x8C379A000000000000000000000000000000000000000000000000000000000 DUP2 MSTORE PUSH1 0x4 ADD PUSH2 0x147C SWAP1 PUSH2 0x3958 JUMP JUMPDEST PUSH1 0x40 MLOAD DUP1 SWAP2 SUB SWAP1 REVERT JUMPDEST PUSH1 0x11 PUSH1 0x1 SWAP1 SLOAD SWAP1 PUSH2 0x100 EXP SWAP1 DIV PUSH1 0xFF AND ISZERO DUP1 PUSH2 0x14AD JUMPI POP PUSH1 0x11 PUSH0 SWAP1 SLOAD SWAP1 PUSH2 0x100 EXP SWAP1 DIV PUSH1 0xFF AND ISZERO JUMPDEST PUSH2 0x14EC JUMPI PUSH1 0x40 MLOAD PUSH32 0x8C379A000000000000000000000000000000000000000000000000000000000 DUP2 MSTORE PUSH1 0x4 ADD PUSH2 0x14E3 SWAP1 PUSH2 0x39C0 JUMP JUMPDEST PUSH1 0x40 MLOAD DUP1 SWAP2 SUB SWAP1 REVERT JUMPDEST PUSH1 0x1 PUSH1 0x13 PUSH0 PUSH2 0x100 EXP DUP2 SLOAD DUP2 PUSH1 0xFF MUL NOT AND SWAP1 DUP4 PUSH1 0x2 DUP2 GT ISZERO PUSH2 0x1511 JUMPI PUSH2 0x1510 PUSH2 0x300D JUMP JUMPDEST JUMPDEST MUL OR SWAP1 SSTORE POP PUSH0 DUP1 SLOAD SWAP1 PUSH2 0x100 EXP SWAP1 DIV PUSH20 0xFFFFFFFFFFFFFFFFFFFFFFFFFFFFFFFFFFFFFFFF AND PUSH20 0xFFFFFFFFFFFFFFFFFFFFFFFFFFFFFFFFFFFFFFFF AND PUSH32 0x7B73F5D770F3EB41FD57F1E6A1C9E2A5EC61FEBBBD4E608D511C46E3FD611639 PUSH1 0x40 MLOAD PUSH2 0x1579 SWAP1 PUSH2 0x3A28 JUMP JUMPDEST PUSH1 0x40 MLOAD DUP1 SWAP2 SUB SWAP1 LOG2 JUMP JUMPDEST PUSH1 0xC SLOAD DUP2 JUMP JUMPDEST PUSH0 DUP1 SLOAD SWAP1 PUSH2 0x100 EXP SWAP1 DIV PUSH20 0xFFFFFFFFFFFFFFFFFFFFFFFFFFFFFFFFFFFFFFFF AND PUSH20 0xFFFFFFFFFFFFFFFFFFFFFFFFFFFFFFFFFFFFFFFF AND CALLER PUSH20 0xFFFFFFFFFFFFFFFFFFFFFFFFFFFFFFFFFFFFFFFF AND EQ PUSH2 0x1616 JUMPI PUSH1 0x40 MLOAD PUSH32 0x8C379A000000000000000000000000000000000000000000000000000000000 DUP2 MSTORE PUSH1 0x4 ADD PUSH2 0x160D SWAP1 PUSH2 0x336C JUMP JUMPDEST PUSH1 0x40 MLOAD DUP1 SWAP2 SUB SWAP1 REVERT JUMPDEST PUSH1 0x1 PUSH1 0x2 DUP2 GT ISZERO PUSH2 0x162A JUMPI PUSH2 0x1629 PUSH2 0x300D JUMP JUMPDEST JUMPDEST PUSH1 0x13 PUSH0 SWAP1 SLOAD SWAP1 PUSH2 0x100 EXP SWAP1 DIV PUSH1 0xFF AND PUSH1 0x2 DUP2 GT ISZERO PUSH2 0x164B JUMPI PUSH2 0x164A PUSH2 0x300D JUMP JUMPDEST JUMPDEST EQ PUSH2 0x168B JUMPI PUSH1 0x40 MLOAD PUSH32 0x8C379A000000000000000000000000000000000000000000000000000000000 DUP2 MSTORE PUSH1 0x4 ADD PUSH2 0x1682 SWAP1 PUSH2 0x3A90 JUMP JUMPDEST PUSH1 0x40 MLOAD DUP1 SWAP2 SUB SWAP1 REVERT JUMPDEST PUSH0 PUSH2 0x1694 PUSH2 0xD19 JUMP JUMPDEST SWAP1 POP PUSH0 PUSH1 0x7 SLOAD SWAP1 POP PUSH0 PUSH1 0x7 DUP2 SWAP1 SSTORE POP PUSH1 0x1 PUSH0 SWAP1 SLOAD SWAP1 PUSH2 0x100 EXP SWAP1 DIV PUSH20 0xFFFFFFFFFFFFFFFFFFFFFFFFFFFFFFFFFFFFFFFF AND PUSH20 0xFFFFFFFFFFFFFFFFFFFFFFFFFFFFFFFFFFFFFFFF AND PUSH2 0x8FC DUP4 SWAP1 DUP2 ISZERO MUL SWAP1 PUSH1 0x40 MLOAD PUSH0 PUSH1 0x40 MLOAD DUP1 DUP4 SUB DUP2 DUP6 DUP9 DUP9 CALL SWAP4 POP POP POP POP ISZERO DUP1 ISZERO PUSH2 0x1707 JUMPI RETURNDATASIZE PUSH0 DUP1 RETURNDATACOPY RETURNDATASIZE PUSH0 REVERT JUMPDEST POP CALLER PUSH20 0xFFFFFFFFFFFFFFFFFFFFFFFFFFFFFFFFFFFFFFFF AND PUSH32 0xA09244C122A83074363635DC89CE0098166C2F74827960FF64A7C8E6AD1C57A2 DUP3 PUSH1 0x40 MLOAD PUSH2 0x174E SWAP2 SWAP1 PUSH2 0x30B1 JUMP JUMPDEST PUSH1 0x40 MLOAD DUP1 SWAP2 SUB SWAP1 LOG2 POP POP JUMP JUMPDEST PUSH1 0xE SLOAD DUP2 JUMP JUMPDEST PUSH0 DUP1 PUSH1 0x6 PUSH0 SWAP1 SLOAD SWAP1 PUSH2 0x100 EXP SWAP1 DIV PUSH20 0xFFFFFFFFFFFFFFFFFFFFFFFFFFFFFFFFFFFFFFFF AND PUSH20 0xFFFFFFFFFFFFFFFFFFFFFFFFFFFFFFFFFFFFFFFF AND PUSH4 0xFEAF968C PUSH1 0x40 MLOAD DUP2 PUSH4 0xFFFFFFFF AND PUSH1 0xE0 SHL DUP2 MSTORE PUSH1 0x4 ADD PUSH1 0xA0 PUSH1 0x40 MLOAD DUP1 DUP4 SUB DUP2 DUP7 GAS STATICCALL ISZERO DUP1 ISZERO PUSH2 0x17CC JUMPI RETURNDATASIZE PUSH0 DUP1 RETURNDATACOPY RETURNDATASIZE PUSH0 REVERT JUMPDEST POP POP POP POP PUSH1 0x40 MLOAD RETURNDATASIZE PUSH1 0x1F NOT PUSH1 0x1F DUP3 ADD AND DUP3 ADD DUP1 PUSH1 0x40 MSTORE POP DUP2 ADD SWAP1 PUSH2 0x17F0 SWAP2 SWAP1 PUSH2 0x3B34 JUMP JUMPDEST POP POP POP SWAP2 POP POP DUP1 SWAP2 POP POP SWAP1 JUMP JUMPDEST PUSH0 DUP1 PUSH1 0x6 PUSH0 SWAP1 SLOAD SWAP1 PUSH2 0x100 EXP SWAP1 DIV PUSH20 0xFFFFFFFFFFFFFFFFFFFFFFFFFFFFFFFFFFFFFFFF AND PUSH20 0xFFFFFFFFFFFFFFFFFFFFFFFFFFFFFFFFFFFFFFFF AND PUSH4 0xFEAF968C PUSH1 0x40 MLOAD DUP2 PUSH4 0xFFFFFFFF AND PUSH1 0xE0 SHL DUP2 MSTORE PUSH1 0x4 ADD PUSH1 0xA0 PUSH1 0x40 MLOAD DUP1 DUP4 SUB DUP2 DUP7 GAS STATICCALL ISZERO DUP1 ISZERO PUSH2 0x1869 JUMPI RETURNDATASIZE PUSH0 DUP1 RETURNDATACOPY RETURNDATASIZE PUSH0 REVERT JUMPDEST POP POP POP POP PUSH1 0x40 MLOAD RETURNDATASIZE PUSH1 0x1F NOT PUSH1 0x1F DUP3 ADD AND DUP3 ADD DUP1 PUSH1 0x40 MSTORE POP DUP2 ADD SWAP1 PUSH2 0x188D SWAP2 SWAP1 PUSH2 0x3B34 JUMP JUMPDEST POP POP POP SWAP2 POP POP PUSH5 0x2540BE400 DUP2 PUSH2 0x18A4 SWAP2 SWAP1 PUSH2 0x3BAB JUMP JUMPDEST SWAP2 POP POP SWAP1 JUMP JUMPDEST PUSH1 0x11 PUSH0 SWAP1 SLOAD SWAP1 PUSH2 0x100 EXP SWAP1 DIV PUSH1 0xFF AND DUP2 JUMP JUMPDEST PUSH0 DUP1 SLOAD SWAP1 PUSH2 0x100 EXP SWAP1 DIV PUSH20 0xFFFFFFFFFFFFFFFFFFFFFFFFFFFFFFFFFFFFFFFF AND PUSH20 0xFFFFFFFFFFFFFFFFFFFFFFFFFFFFFFFFFFFFFFFF AND CALLER PUSH20 0xFFFFFFFFFFFFFFFFFFFFFFFFFFFFFFFFFFFFFFFF AND EQ PUSH2 0x1949 JUMPI PUSH1 0x40 MLOAD PUSH32 0x8C379A000000000000000000000000000000000000000000000000000000000 DUP2 MSTORE PUSH1 0x4 ADD PUSH2 0x1940 SWAP1 PUSH2 0x336C JUMP JUMPDEST PUSH1 0x40 MLOAD DUP1 SWAP2 SUB SWAP1 REVERT JUMPDEST PUSH1 0x7 SLOAD DUP3 GT ISZERO PUSH2 0x198E JUMPI PUSH1 0x40 MLOAD PUSH32 0x8C379A000000000000000000000000000000000000000000000000000000000 DUP2 MSTORE PUSH1 0x4 ADD PUSH2 0x1985 SWAP1 PUSH2 0x3C6B JUMP JUMPDEST PUSH1 0x40 MLOAD DUP1 SWAP2 SUB SWAP1 REVERT JUMPDEST DUP2 PUSH1 0x7 PUSH0 DUP3 DUP3 SLOAD PUSH2 0x199F SWAP2 SWAP1 PUSH2 0x341F JUMP JUMPDEST SWAP3 POP POP DUP2 SWAP1 SSTORE POP DUP2 PUSH1 0x9 PUSH0 DUP3 DUP3 SLOAD PUSH2 0x19B7 SWAP2 SWAP1 PUSH2 0x354D JUMP JUMPDEST SWAP3 POP POP DUP2 SWAP1 SSTORE POP PUSH0 DUP1 SLOAD SWAP1 PUSH2 0x100 EXP SWAP1 DIV PUSH20 0xFFFFFFFFFFFFFFFFFFFFFFFFFFFFFFFFFFFFFFFF AND PUSH20 0xFFFFFFFFFFFFFFFFFFFFFFFFFFFFFFFFFFFFFFFF AND PUSH2 0x8FC DUP4 SWAP1 DUP2 ISZERO MUL SWAP1 PUSH1 0x40 MLOAD PUSH0 PUSH1 0x40 MLOAD DUP1 DUP4 SUB DUP2 DUP6 DUP9 DUP9 CALL SWAP4 POP POP POP POP ISZERO DUP1 ISZERO PUSH2 0x1A20 JUMPI RETURNDATASIZE PUSH0 DUP1 RETURNDATACOPY RETURNDATASIZE PUSH0 REVERT JUMPDEST POP PUSH0 DUP1 SLOAD SWAP1 PUSH2 0x100 EXP SWAP1 DIV PUSH20 0xFFFFFFFFFFFFFFFFFFFFFFFFFFFFFFFFFFFFFFFF AND PUSH20 0xFFFFFFFFFFFFFFFFFFFFFFFFFFFFFFFFFFFFFFFF AND PUSH32 0xE71DB61460CADE63BDCE2BD520284D5FCDE93EB8604BE23456AC0761C5CB4D9 DUP4 DUP4 PUSH1 0x40 MLOAD PUSH2 0x1A88 SWAP3 SWAP2 SWAP1 PUSH2 0x3C89 JUMP JUMPDEST PUSH1 0x40 MLOAD DUP1 SWAP2 SUB SWAP1 LOG2 POP POP JUMP JUMPDEST PUSH1 0x1 PUSH0 SWAP1 SLOAD SWAP1 PUSH2 0x100 EXP SWAP1 DIV PUSH20 0xFFFFFFFFFFFFFFFFFFFFFFFFFFFFFFFFFFFFFFFF AND PUSH20 0xFFFFFFFFFFFFFFFFFFFFFFFFFFFFFFFFFFFFFFFF AND CALLER PUSH20 0xFFFFFFFFFFFFFFFFFFFFFFFFFFFFFFFFFFFFFFFF AND EQ PUSH2 0x1B23 JUMPI PUSH1 0x40 MLOAD PUSH32 0x8C379A000000000000000000000000000000000000000000000000000000000 DUP2 MSTORE PUSH1 0x4 ADD PUSH2 0x1B1A SWAP1 PUSH2 0x35F0 JUMP JUMPDEST PUSH1 0x40 MLOAD DUP1 SWAP2 SUB SWAP1 REVERT JUMPDEST PUSH1 0x1 PUSH1 0x12 PUSH0 CALLER PUSH20 0xFFFFFFFFFFFFFFFFFFFFFFFFFFFFFFFFFFFFFFFF AND PUSH20 0xFFFFFFFFFFFFFFFFFFFFFFFFFFFFFFFFFFFFFFFF AND DUP2 MSTORE PUSH1 0x20 ADD SWAP1 DUP2 MSTORE PUSH1 0x20 ADD PUSH0 KECCAK256 PUSH0 PUSH2 0x100 EXP DUP2 SLOAD DUP2 PUSH1 0xFF MUL NOT AND SWAP1 DUP4 ISZERO ISZERO MUL OR SWAP1 SSTORE POP JUMP JUMPDEST PUSH1 0x14 DUP2 DUP2 SLOAD DUP2 LT PUSH2 0x1B89 JUMPI PUSH0 DUP1 REVERT JUMPDEST SWAP1 PUSH0 MSTORE PUSH1 0x20 PUSH0 KECCAK256 SWAP1 PUSH1 0x3 MUL ADD PUSH0 SWAP2 POP SWAP1 POP DUP1 PUSH0 ADD SLOAD SWAP1 DUP1 PUSH1 0x1 ADD SLOAD SWAP1 DUP1 PUSH1 0x2 ADD PUSH0 SWAP1 SLOAD SWAP1 PUSH2 0x100 EXP SWAP1 DIV PUSH1 0xFF AND SWAP1 POP DUP4 JUMP JUMPDEST PUSH1 0x1 PUSH0 SWAP1 SLOAD SWAP1 PUSH2 0x100 EXP SWAP1 DIV PUSH20 0xFFFFFFFFFFFFFFFFFFFFFFFFFFFFFFFFFFFFFFFF AND PUSH20 0xFFFFFFFFFFFFFFFFFFFFFFFFFFFFFFFFFFFFFFFF AND CALLER PUSH20 0xFFFFFFFFFFFFFFFFFFFFFFFFFFFFFFFFFFFFFFFF AND EQ PUSH2 0x1C4A JUMPI PUSH1 0x40 MLOAD PUSH32 0x8C379A000000000000000000000000000000000000000000000000000000000 DUP2 MSTORE PUSH1 0x4 ADD PUSH2 0x1C41 SWAP1 PUSH2 0x35F0 JUMP JUMPDEST PUSH1 0x40 MLOAD DUP1 SWAP2 SUB SWAP1 REVERT JUMPDEST PUSH0 PUSH1 0x2 DUP2 GT ISZERO PUSH2 0x1C5D JUMPI PUSH2 0x1C5C PUSH2 0x300D JUMP JUMPDEST JUMPDEST PUSH1 0x13 PUSH0 SWAP1 SLOAD SWAP1 PUSH2 0x100 EXP SWAP1 DIV PUSH1 0xFF AND PUSH1 0x2 DUP2 GT ISZERO PUSH2 0x1C7E JUMPI PUSH2 0x1C7D PUSH2 0x300D JUMP JUMPDEST JUMPDEST EQ PUSH2 0x1CBE JUMPI PUSH1 0x40 MLOAD PUSH32 0x8C379A000000000000000000000000000000000000000000000000000000000 DUP2 MSTORE PUSH1 0x4 ADD PUSH2 0x1CB5 SWAP1 PUSH2 0x376F JUMP JUMPDEST PUSH1 0x40 MLOAD DUP1 SWAP2 SUB SWAP1 REVERT JUMPDEST PUSH0 PUSH1 0x5 PUSH0 SWAP1 SLOAD SWAP1 PUSH2 0x100 EXP SWAP1 DIV PUSH1 0xFF AND ISZERO PUSH2 0x1DDA JUMPI PUSH1 0x2 SLOAD SWAP1 POP PUSH1 0x5 PUSH1 0x1 SWAP1 SLOAD SWAP1 PUSH2 0x100 EXP SWAP1 DIV PUSH20 0xFFFFFFFFFFFFFFFFFFFFFFFFFFFFFFFFFFFFFFFF AND PUSH20 0xFFFFFFFFFFFFFFFFFFFFFFFFFFFFFFFFFFFFFFFF AND PUSH4 0x23B872DD CALLER PUSH0 DUP1 SLOAD SWAP1 PUSH2 0x100 EXP SWAP1 DIV PUSH20 0xFFFFFFFFFFFFFFFFFFFFFFFFFFFFFFFFFFFFFFFF AND DUP5 PUSH1 0x40 MLOAD DUP5 PUSH4 0xFFFFFFFF AND PUSH1 0xE0 SHL DUP2 MSTORE PUSH1 0x4 ADD PUSH2 0x1D56 SWAP4 SWAP3 SWAP2 SWAP1 PUSH2 0x378D JUMP JUMPDEST PUSH1 0x20 PUSH1 0x40 MLOAD DUP1 DUP4 SUB DUP2 PUSH0 DUP8 GAS CALL ISZERO DUP1 ISZERO PUSH2 0x1D72 JUMPI RETURNDATASIZE PUSH0 DUP1 RETURNDATACOPY RETURNDATASIZE PUSH0 REVERT JUMPDEST POP POP POP POP PUSH1 0x40 MLOAD RETURNDATASIZE PUSH1 0x1F NOT PUSH1 0x1F DUP3 ADD AND DUP3 ADD DUP1 PUSH1 0x40 MSTORE POP DUP2 ADD SWAP1 PUSH2 0x1D96 SWAP2 SWAP1 PUSH2 0x37EC JUMP JUMPDEST PUSH2 0x1DD5 JUMPI PUSH1 0x40 MLOAD PUSH32 0x8C379A000000000000000000000000000000000000000000000000000000000 DUP2 MSTORE PUSH1 0x4 ADD PUSH2 0x1DCC SWAP1 PUSH2 0x3D01 JUMP JUMPDEST PUSH1 0x40 MLOAD DUP1 SWAP2 SUB SWAP1 REVERT JUMPDEST PUSH2 0x1EB0 JUMP JUMPDEST PUSH0 PUSH2 0x1DE3 PUSH2 0x17FD JUMP JUMPDEST SWAP1 POP DUP1 PUSH8 0xDE0B6B3A7640000 PUSH1 0x2 SLOAD PUSH2 0x1DFC SWAP2 SWAP1 PUSH2 0x350C JUMP JUMPDEST PUSH2 0x1E06 SWAP2 SWAP1 PUSH2 0x347F JUMP JUMPDEST SWAP2 POP DUP2 CALLVALUE LT ISZERO PUSH2 0x1E4B JUMPI PUSH1 0x40 MLOAD PUSH32 0x8C379A000000000000000000000000000000000000000000000000000000000 DUP2 MSTORE PUSH1 0x4 ADD PUSH2 0x1E42 SWAP1 PUSH2 0x38C9 JUMP JUMPDEST PUSH1 0x40 MLOAD DUP1 SWAP2 SUB SWAP1 REVERT JUMPDEST PUSH0 DUP1 SLOAD SWAP1 PUSH2 0x100 EXP SWAP1 DIV PUSH20 0xFFFFFFFFFFFFFFFFFFFFFFFFFFFFFFFFFFFFFFFF AND PUSH20 0xFFFFFFFFFFFFFFFFFFFFFFFFFFFFFFFFFFFFFFFF AND PUSH2 0x8FC DUP4 SWAP1 DUP2 ISZERO MUL SWAP1 PUSH1 0x40 MLOAD PUSH0 PUSH1 0x40 MLOAD DUP1 DUP4 SUB DUP2 DUP6 DUP9 DUP9 CALL SWAP4 POP POP POP POP ISZERO DUP1 ISZERO PUSH2 0x1EAD JUMPI RETURNDATASIZE PUSH0 DUP1 RETURNDATACOPY RETURNDATASIZE PUSH0 REVERT JUMPDEST POP POP JUMPDEST DUP1 PUSH1 0xC SLOAD SUB PUSH2 0x1EC5 JUMPI PUSH0 PUSH1 0xC DUP2 SWAP1 SSTORE POP PUSH2 0x1EDE JUMP JUMPDEST DUP1 PUSH1 0xC PUSH0 DUP3 DUP3 SLOAD PUSH2 0x1ED6 SWAP2 SWAP1 PUSH2 0x341F JUMP JUMPDEST SWAP3 POP POP DUP2 SWAP1 SSTORE POP JUMPDEST PUSH1 0x14 PUSH1 0x40 MLOAD DUP1 PUSH1 0x60 ADD PUSH1 0x40 MSTORE DUP1 TIMESTAMP DUP2 MSTORE PUSH1 0x20 ADD DUP4 DUP2 MSTORE PUSH1 0x20 ADD PUSH1 0x5 PUSH0 SWAP1 SLOAD SWAP1 PUSH2 0x100 EXP SWAP1 DIV PUSH1 0xFF AND ISZERO ISZERO DUP2 MSTORE POP SWAP1 DUP1 PUSH1 0x1 DUP2 SLOAD ADD DUP1 DUP3 SSTORE DUP1 SWAP2 POP POP PUSH1 0x1 SWAP1 SUB SWAP1 PUSH0 MSTORE PUSH1 0x20 PUSH0 KECCAK256 SWAP1 PUSH1 0x3 MUL ADD PUSH0 SWAP1 SWAP2 SWAP1 SWAP2 SWAP1 SWAP2 POP PUSH0 DUP3 ADD MLOAD DUP2 PUSH0 ADD SSTORE PUSH1 0x20 DUP3 ADD MLOAD DUP2 PUSH1 0x1 ADD SSTORE PUSH1 0x40 DUP3 ADD MLOAD DUP2 PUSH1 0x2 ADD PUSH0 PUSH2 0x100 EXP DUP2 SLOAD DUP2 PUSH1 0xFF MUL NOT AND SWAP1 DUP4 ISZERO ISZERO MUL OR SWAP1 SSTORE POP POP POP CALLER PUSH20 0xFFFFFFFFFFFFFFFFFFFFFFFFFFFFFFFFFFFFFFFF AND PUSH32 0xA0E44CC6F4F184BC83E145BF7F0CC703B7F698476124CF6A9D7D403D202E77FD DUP3 PUSH1 0x5 PUSH0 SWAP1 SLOAD SWAP1 PUSH2 0x100 EXP SWAP1 DIV PUSH1 0xFF AND PUSH1 0x40 MLOAD PUSH2 0x1FBA SWAP3 SWAP2 SWAP1 PUSH2 0x38E7 JUMP JUMPDEST PUSH1 0x40 MLOAD DUP1 SWAP2 SUB SWAP1 LOG2 POP JUMP JUMPDEST PUSH1 0x1 PUSH0 SWAP1 SLOAD SWAP1 PUSH2 0x100 EXP SWAP1 DIV PUSH20 0xFFFFFFFFFFFFFFFFFFFFFFFFFFFFFFFFFFFFFFFF AND PUSH20 0xFFFFFFFFFFFFFFFFFFFFFFFFFFFFFFFFFFFFFFFF AND CALLER PUSH20 0xFFFFFFFFFFFFFFFFFFFFFFFFFFFFFFFFFFFFFFFF AND EQ PUSH2 0x2054 JUMPI PUSH1 0x40 MLOAD PUSH32 0x8C379A000000000000000000000000000000000000000000000000000000000 DUP2 MSTORE PUSH1 0x4 ADD PUSH2 0x204B SWAP1 PUSH2 0x35F0 JUMP JUMPDEST PUSH1 0x40 MLOAD DUP1 SWAP2 SUB SWAP1 REVERT JUMPDEST PUSH0 PUSH1 0x12 PUSH0 CALLER PUSH20 0xFFFFFFFFFFFFFFFFFFFFFFFFFFFFFFFFFFFFFFFF AND PUSH20 0xFFFFFFFFFFFFFFFFFFFFFFFFFFFFFFFFFFFFFFFF AND DUP2 MSTORE PUSH1 0x20 ADD SWAP1 DUP2 MSTORE PUSH1 0x20 ADD PUSH0 KECCAK256 PUSH0 PUSH2 0x100 EXP DUP2 SLOAD DUP2 PUSH1 0xFF MUL NOT AND SWAP1 DUP4 ISZERO ISZERO MUL OR SWAP1 SSTORE POP JUMP JUMPDEST PUSH1 0x1 PUSH0 SWAP1 SLOAD SWAP1 PUSH2 0x100 EXP SWAP1 DIV PUSH20 0xFFFFFFFFFFFFFFFFFFFFFFFFFFFFFFFFFFFFFFFF AND DUP2 JUMP JUMPDEST PUSH1 0x60 PUSH1 0x14 DUP1 SLOAD DUP1 PUSH1 0x20 MUL PUSH1 0x20 ADD PUSH1 0x40 MLOAD SWAP1 DUP2 ADD PUSH1 0x40 MSTORE DUP1 SWAP3 SWAP2 SWAP1 DUP2 DUP2 MSTORE PUSH1 0x20 ADD PUSH0 SWAP1 JUMPDEST DUP3 DUP3 LT ISZERO PUSH2 0x214F JUMPI DUP4 DUP3 SWAP1 PUSH0 MSTORE PUSH1 0x20 PUSH0 KECCAK256 SWAP1 PUSH1 0x3 MUL ADD PUSH1 0x40 MLOAD DUP1 PUSH1 0x60 ADD PUSH1 0x40 MSTORE SWAP1 DUP2 PUSH0 DUP3 ADD SLOAD DUP2 MSTORE PUSH1 0x20 ADD PUSH1 0x1 DUP3 ADD SLOAD DUP2 MSTORE PUSH1 0x20 ADD PUSH1 0x2 DUP3 ADD PUSH0 SWAP1 SLOAD SWAP1 PUSH2 0x100 EXP SWAP1 DIV PUSH1 0xFF AND ISZERO ISZERO ISZERO ISZERO DUP2 MSTORE POP POP DUP2 MSTORE PUSH1 0x20 ADD SWAP1 PUSH1 0x1 ADD SWAP1 PUSH2 0x20F2 JUMP JUMPDEST POP POP POP POP SWAP1 POP SWAP1 JUMP JUMPDEST PUSH1 0x1 PUSH0 SWAP1 SLOAD SWAP1 PUSH2 0x100 EXP SWAP1 DIV PUSH20 0xFFFFFFFFFFFFFFFFFFFFFFFFFFFFFFFFFFFFFFFF AND PUSH20 0xFFFFFFFFFFFFFFFFFFFFFFFFFFFFFFFFFFFFFFFF AND CALLER PUSH20 0xFFFFFFFFFFFFFFFFFFFFFFFFFFFFFFFFFFFFFFFF AND EQ PUSH2 0x21E7 JUMPI PUSH1 0x40 MLOAD PUSH32 0x8C379A000000000000000000000000000000000000000000000000000000000 DUP2 MSTORE PUSH1 0x4 ADD PUSH2 0x21DE SWAP1 PUSH2 0x35F0 JUMP JUMPDEST PUSH1 0x40 MLOAD DUP1 SWAP2 SUB SWAP1 REVERT JUMPDEST PUSH0 PUSH1 0x2 DUP2 GT ISZERO PUSH2 0x21FA JUMPI PUSH2 0x21F9 PUSH2 0x300D JUMP JUMPDEST JUMPDEST PUSH1 0x13 PUSH0 SWAP1 SLOAD SWAP1 PUSH2 0x100 EXP SWAP1 DIV PUSH1 0xFF AND PUSH1 0x2 DUP2 GT ISZERO PUSH2 0x221B JUMPI PUSH2 0x221A PUSH2 0x300D JUMP JUMPDEST JUMPDEST EQ PUSH2 0x225B JUMPI PUSH1 0x40 MLOAD PUSH32 0x8C379A000000000000000000000000000000000000000000000000000000000 DUP2 MSTORE PUSH1 0x4 ADD PUSH2 0x2252 SWAP1 PUSH2 0x3D69 JUMP JUMPDEST PUSH1 0x40 MLOAD DUP1 SWAP2 SUB SWAP1 REVERT JUMPDEST PUSH1 0x1 PUSH1 0x11 PUSH0 PUSH2 0x100 EXP DUP2 SLOAD DUP2 PUSH1 0xFF MUL NOT AND SWAP1 DUP4 ISZERO ISZERO MUL OR SWAP1 SSTORE POP CALLER PUSH20 0xFFFFFFFFFFFFFFFFFFFFFFFFFFFFFFFFFFFFFFFF AND PUSH32 0x54551C802CACA31274238693B2AEBD359C4BC3D704209B36BF46CACE47543722 PUSH1 0x40 MLOAD PUSH1 0x40 MLOAD DUP1 SWAP2 SUB SWAP1 LOG2 JUMP JUMPDEST PUSH1 0x5 PUSH1 0x1 SWAP1 SLOAD SWAP1 PUSH2 0x100 EXP SWAP1 DIV PUSH20 0xFFFFFFFFFFFFFFFFFFFFFFFFFFFFFFFFFFFFFFFF AND DUP2 JUMP JUMPDEST PUSH0 DUP1 PUSH3 0x278D00 TIMESTAMP PUSH2 0x22F1 SWAP2 SWAP1 PUSH2 0x347F JUMP JUMPDEST SWAP1 POP PUSH3 0x15180 PUSH1 0xA SLOAD PUSH2 0x2304 SWAP2 SWAP1 PUSH2 0x350C JUMP JUMPDEST PUSH3 0x278D00 PUSH1 0x1 DUP4 PUSH2 0x2315 SWAP2 SWAP1 PUSH2 0x354D JUMP JUMPDEST PUSH2 0x231F SWAP2 SWAP1 PUSH2 0x350C JUMP JUMPDEST PUSH2 0x2329 SWAP2 SWAP1 PUSH2 0x354D JUMP JUMPDEST SWAP2 POP POP SWAP1 JUMP JUMPDEST PUSH0 DUP1 SLOAD SWAP1 PUSH2 0x100 EXP SWAP1 DIV PUSH20 0xFFFFFFFFFFFFFFFFFFFFFFFFFFFFFFFFFFFFFFFF AND PUSH20 0xFFFFFFFFFFFFFFFFFFFFFFFFFFFFFFFFFFFFFFFF AND CALLER PUSH20 0xFFFFFFFFFFFFFFFFFFFFFFFFFFFFFFFFFFFFFFFF AND EQ PUSH2 0x23BC JUMPI PUSH1 0x40 MLOAD PUSH32 0x8C379A000000000000000000000000000000000000000000000000000000000 DUP2 MSTORE PUSH1 0x4 ADD PUSH2 0x23B3 SWAP1 PUSH2 0x336C JUMP JUMPDEST PUSH1 0x40 MLOAD DUP1 SWAP2 SUB SWAP1 REVERT JUMPDEST PUSH3 0x93A80 PUSH2 0x23C8 PUSH2 0x22E0 JUMP JUMPDEST PUSH2 0x23D2 SWAP2 SWAP1 PUSH2 0x354D JUMP JUMPDEST TIMESTAMP GT PUSH2 0x2413 JUMPI PUSH1 0x40 MLOAD PUSH32 0x8C379A000000000000000000000000000000000000000000000000000000000 DUP2 MSTORE PUSH1 0x4 ADD PUSH2 0x240A SWAP1 PUSH2 0x3DD1 JUMP JUMPDEST PUSH1 0x40 MLOAD DUP1 SWAP2 SUB SWAP1 REVERT JUMPDEST PUSH1 0x1 PUSH1 0xD PUSH0 PUSH2 0x100 EXP DUP2 SLOAD DUP2 PUSH1 0xFF MUL NOT AND SWAP1 DUP4 ISZERO ISZERO MUL OR SWAP1 SSTORE POP PUSH1 0x1 PUSH0 SWAP1 SLOAD SWAP1 PUSH2 0x100 EXP SWAP1 DIV PUSH20 0xFFFFFFFFFFFFFFFFFFFFFFFFFFFFFFFFFFFFFFFF AND PUSH20 0xFFFFFFFFFFFFFFFFFFFFFFFFFFFFFFFFFFFFFFFF AND PUSH32 0x8E0013EC8EA09FB2E5FC1733FCAA4D39F199B60C282B0300ADD067402B2AA91B PUSH1 0x40 MLOAD PUSH1 0x40 MLOAD DUP1 SWAP2 SUB SWAP1 LOG2 JUMP JUMPDEST PUSH1 0xA SLOAD DUP2 JUMP JUMPDEST PUSH0 DUP1 SLOAD SWAP1 PUSH2 0x100 EXP SWAP1 DIV PUSH20 0xFFFFFFFFFFFFFFFFFFFFFFFFFFFFFFFFFFFFFFFF AND DUP2 JUMP JUMPDEST PUSH0 DUP1 SLOAD SWAP1 PUSH2 0x100 EXP SWAP1 DIV PUSH20 0xFFFFFFFFFFFFFFFFFFFFFFFFFFFFFFFFFFFFFFFF AND PUSH20 0xFFFFFFFFFFFFFFFFFFFFFFFFFFFFFFFFFFFFFFFF AND CALLER PUSH20 0xFFFFFFFFFFFFFFFFFFFFFFFFFFFFFFFFFFFFFFFF AND EQ PUSH2 0x2549 JUMPI PUSH1 0x40 MLOAD PUSH32 0x8C379A000000000000000000000000000000000000000000000000000000000 DUP2 MSTORE PUSH1 0x4 ADD PUSH2 0x2540 SWAP1 PUSH2 0x336C JUMP JUMPDEST PUSH1 0x40 MLOAD DUP1 SWAP2 SUB SWAP1 REVERT JUMPDEST PUSH1 0x2 DUP1 DUP2 GT ISZERO PUSH2 0x255C JUMPI PUSH2 0x255B PUSH2 0x300D JUMP JUMPDEST JUMPDEST PUSH1 0x13 PUSH0 SWAP1 SLOAD SWAP1 PUSH2 0x100 EXP SWAP1 DIV PUSH1 0xFF AND PUSH1 0x2 DUP2 GT ISZERO PUSH2 0x257D JUMPI PUSH2 0x257C PUSH2 0x300D JUMP JUMPDEST JUMPDEST EQ PUSH2 0x25BD JUMPI PUSH1 0x40 MLOAD PUSH32 0x8C379A000000000000000000000000000000000000000000000000000000000 DUP2 MSTORE PUSH1 0x4 ADD PUSH2 0x25B4 SWAP1 PUSH2 0x3E39 JUMP JUMPDEST PUSH1 0x40 MLOAD DUP1 SWAP2 SUB SWAP1 REVERT JUMPDEST PUSH1 0xE SLOAD TIMESTAMP LT ISZERO PUSH2 0x2602 JUMPI PUSH1 0x40 MLOAD PUSH32 0x8C379A000000000000000000000000000000000000000000000000000000000 DUP2 MSTORE PUSH1 0x4 ADD PUSH2 0x25F9 SWAP1 PUSH2 0x3EA1 JUMP JUMPDEST PUSH1 0x40 MLOAD DUP1 SWAP2 SUB SWAP1 REVERT JUMPDEST PUSH1 0x1 PUSH1 0x13 PUSH0 PUSH2 0x100 EXP DUP2 SLOAD DUP2 PUSH1 0xFF MUL NOT AND SWAP1 DUP4 PUSH1 0x2 DUP2 GT ISZERO PUSH2 0x2627 JUMPI PUSH2 0x2626 PUSH2 0x300D JUMP JUMPDEST JUMPDEST MUL OR SWAP1 SSTORE POP PUSH0 DUP1 SLOAD SWAP1 PUSH2 0x100 EXP SWAP1 DIV PUSH20 0xFFFFFFFFFFFFFFFFFFFFFFFFFFFFFFFFFFFFFFFF AND PUSH20 0xFFFFFFFFFFFFFFFFFFFFFFFFFFFFFFFFFFFFFFFF AND PUSH32 0x7B73F5D770F3EB41FD57F1E6A1C9E2A5EC61FEBBBD4E608D511C46E3FD611639 PUSH1 0x40 MLOAD PUSH2 0x268F SWAP1 PUSH2 0x3F55 JUMP JUMPDEST PUSH1 0x40 MLOAD DUP1 SWAP2 SUB SWAP1 LOG2 JUMP JUMPDEST PUSH0 DUP1 SLOAD SWAP1 PUSH2 0x100 EXP SWAP1 DIV PUSH20 0xFFFFFFFFFFFFFFFFFFFFFFFFFFFFFFFFFFFFFFFF AND PUSH20 0xFFFFFFFFFFFFFFFFFFFFFFFFFFFFFFFFFFFFFFFF AND CALLER PUSH20 0xFFFFFFFFFFFFFFFFFFFFFFFFFFFFFFFFFFFFFFFF AND EQ PUSH2 0x2726 JUMPI PUSH1 0x40 MLOAD PUSH32 0x8C379A000000000000000000000000000000000000000000000000000000000 DUP2 MSTORE PUSH1 0x4 ADD PUSH2 0x271D SWAP1 PUSH2 0x336C JUMP JUMPDEST PUSH1 0x40 MLOAD DUP1 SWAP2 SUB SWAP1 REVERT JUMPDEST PUSH1 0x12 PUSH0 PUSH1 0x1 PUSH0 SWAP1 SLOAD SWAP1 PUSH2 0x100 EXP SWAP1 DIV PUSH20 0xFFFFFFFFFFFFFFFFFFFFFFFFFFFFFFFFFFFFFFFF AND PUSH20 0xFFFFFFFFFFFFFFFFFFFFFFFFFFFFFFFFFFFFFFFF AND PUSH20 0xFFFFFFFFFFFFFFFFFFFFFFFFFFFFFFFFFFFFFFFF AND DUP2 MSTORE PUSH1 0x20 ADD SWAP1 DUP2 MSTORE PUSH1 0x20 ADD PUSH0 KECCAK256 PUSH0 SWAP1 SLOAD SWAP1 PUSH2 0x100 EXP SWAP1 DIV PUSH1 0xFF AND PUSH2 0x27D0 JUMPI PUSH1 0x40 MLOAD PUSH32 0x8C379A000000000000000000000000000000000000000000000000000000000 DUP2 MSTORE PUSH1 0x4 ADD PUSH2 0x27C7 SWAP1 PUSH2 0x3FBD JUMP JUMPDEST PUSH1 0x40 MLOAD DUP1 SWAP2 SUB SWAP1 REVERT JUMPDEST PUSH0 PUSH1 0x2 DUP2 GT ISZERO PUSH2 0x27E3 JUMPI PUSH2 0x27E2 PUSH2 0x300D JUMP JUMPDEST JUMPDEST PUSH1 0x13 PUSH0 SWAP1 SLOAD SWAP1 PUSH2 0x100 EXP SWAP1 DIV PUSH1 0xFF AND PUSH1 0x2 DUP2 GT ISZERO PUSH2 0x2804 JUMPI PUSH2 0x2803 PUSH2 0x300D JUMP JUMPDEST JUMPDEST EQ PUSH2 0x2844 JUMPI PUSH1 0x40 MLOAD PUSH32 0x8C379A000000000000000000000000000000000000000000000000000000000 DUP2 MSTORE PUSH1 0x4 ADD PUSH2 0x283B SWAP1 PUSH2 0x33D4 JUMP JUMPDEST PUSH1 0x40 MLOAD DUP1 SWAP2 SUB SWAP1 REVERT JUMPDEST PUSH0 PUSH1 0x2 SLOAD SWAP1 POP PUSH1 0x5 PUSH1 0x1 SWAP1 SLOAD SWAP1 PUSH2 0x100 EXP SWAP1 DIV PUSH20 0xFFFFFFFFFFFFFFFFFFFFFFFFFFFFFFFFFFFFFFFF AND PUSH20 0xFFFFFFFFFFFFFFFFFFFFFFFFFFFFFFFFFFFFFFFF AND PUSH4 0x23B872DD PUSH1 0x1 PUSH0 SWAP1 SLOAD SWAP1 PUSH2 0x100 EXP SWAP1 DIV PUSH20 0xFFFFFFFFFFFFFFFFFFFFFFFFFFFFFFFFFFFFFFFF AND PUSH0 DUP1 SLOAD SWAP1 PUSH2 0x100 EXP SWAP1 DIV PUSH20 0xFFFFFFFFFFFFFFFFFFFFFFFFFFFFFFFFFFFFFFFF AND DUP5 PUSH1 0x40 MLOAD DUP5 PUSH4 0xFFFFFFFF AND PUSH1 0xE0 SHL DUP2 MSTORE PUSH1 0x4 ADD PUSH2 0x28E9 SWAP4 SWAP3 SWAP2 SWAP1 PUSH2 0x378D JUMP JUMPDEST PUSH1 0x20 PUSH1 0x40 MLOAD DUP1 DUP4 SUB DUP2 PUSH0 DUP8 GAS CALL ISZERO DUP1 ISZERO PUSH2 0x2905 JUMPI RETURNDATASIZE PUSH0 DUP1 RETURNDATACOPY RETURNDATASIZE PUSH0 REVERT JUMPDEST POP POP POP POP PUSH1 0x40 MLOAD RETURNDATASIZE PUSH1 0x1F NOT PUSH1 0x1F DUP3 ADD AND DUP3 ADD DUP1 PUSH1 0x40 MSTORE POP DUP2 ADD SWAP1 PUSH2 0x2929 SWAP2 SWAP1 PUSH2 0x37EC JUMP JUMPDEST PUSH2 0x2968 JUMPI PUSH1 0x40 MLOAD PUSH32 0x8C379A000000000000000000000000000000000000000000000000000000000 DUP2 MSTORE PUSH1 0x4 ADD PUSH2 0x295F SWAP1 PUSH2 0x4025 JUMP JUMPDEST PUSH1 0x40 MLOAD DUP1 SWAP2 SUB SWAP1 REVERT JUMPDEST PUSH1 0x14 PUSH1 0x40 MLOAD DUP1 PUSH1 0x60 ADD PUSH1 0x40 MSTORE DUP1 TIMESTAMP DUP2 MSTORE PUSH1 0x20 ADD DUP4 DUP2 MSTORE PUSH1 0x20 ADD PUSH1 0x1 ISZERO ISZERO DUP2 MSTORE POP SWAP1 DUP1 PUSH1 0x1 DUP2 SLOAD ADD DUP1 DUP3 SSTORE DUP1 SWAP2 POP POP PUSH1 0x1 SWAP1 SUB SWAP1 PUSH0 MSTORE PUSH1 0x20 PUSH0 KECCAK256 SWAP1 PUSH1 0x3 MUL ADD PUSH0 SWAP1 SWAP2 SWAP1 SWAP2 SWAP1 SWAP2 POP PUSH0 DUP3 ADD MLOAD DUP2 PUSH0 ADD SSTORE PUSH1 0x20 DUP3 ADD MLOAD DUP2 PUSH1 0x1 ADD SSTORE PUSH1 0x40 DUP3 ADD MLOAD DUP2 PUSH1 0x2 ADD PUSH0 PUSH2 0x100 EXP DUP2 SLOAD DUP2 PUSH1 0xFF MUL NOT AND SWAP1 DUP4 ISZERO ISZERO MUL OR SWAP1 SSTORE POP POP POP PUSH1 0x1 PUSH0 SWAP1 SLOAD SWAP1 PUSH2 0x100 EXP SWAP1 DIV PUSH20 0xFFFFFFFFFFFFFFFFFFFFFFFFFFFFFFFFFFFFFFFF AND PUSH20 0xFFFFFFFFFFFFFFFFFFFFFFFFFFFFFFFFFFFFFFFF AND PUSH32 0xA0E44CC6F4F184BC83E145BF7F0CC703B7F698476124CF6A9D7D403D202E77FD DUP3 PUSH1 0x1 PUSH1 0x40 MLOAD PUSH2 0x2A4B SWAP3 SWAP2 SWAP1 PUSH2 0x38E7 JUMP JUMPDEST PUSH1 0x40 MLOAD DUP1 SWAP2 SUB SWAP1 LOG2 POP JUMP JUMPDEST PUSH1 0x9 SLOAD DUP2 JUMP JUMPDEST PUSH1 0x10 SLOAD DUP2 JUMP JUMPDEST PUSH1 0x2 DUP1 DUP2 GT ISZERO PUSH2 0x2A75 JUMPI PUSH2 0x2A74 PUSH2 0x300D JUMP JUMPDEST JUMPDEST PUSH1 0x13 PUSH0 SWAP1 SLOAD SWAP1 PUSH2 0x100 EXP SWAP1 DIV PUSH1 0xFF AND PUSH1 0x2 DUP2 GT ISZERO PUSH2 0x2A96 JUMPI PUSH2 0x2A95 PUSH2 0x300D JUMP JUMPDEST JUMPDEST EQ PUSH2 0x2AD6 JUMPI PUSH1 0x40 MLOAD PUSH32 0x8C379A000000000000000000000000000000000000000000000000000000000 DUP2 MSTORE PUSH1 0x4 ADD PUSH2 0x2ACD SWAP1 PUSH2 0x408D JUMP JUMPDEST PUSH1 0x40 MLOAD DUP1 SWAP2 SUB SWAP1 REVERT JUMPDEST PUSH1 0xE SLOAD TIMESTAMP LT ISZERO PUSH2 0x2B1B JUMPI PUSH1 0x40 MLOAD PUSH32 0x8C379A000000000000000000000000000000000000000000000000000000000 DUP2 MSTORE PUSH1 0x4 ADD PUSH2 0x2B12 SWAP1 PUSH2 0x3EA1 JUMP JUMPDEST PUSH1 0x40 MLOAD DUP1 SWAP2 SUB SWAP1 REVERT JUMPDEST PUSH1 0x1 PUSH1 0x13 PUSH0 PUSH2 0x100 EXP DUP2 SLOAD DUP2 PUSH1 0xFF MUL NOT AND SWAP1 DUP4 PUSH1 0x2 DUP2 GT ISZERO PUSH2 0x2B40 JUMPI PUSH2 0x2B3F PUSH2 0x300D JUMP JUMPDEST JUMPDEST MUL OR SWAP1 SSTORE POP PUSH1 0x1 PUSH0 SWAP1 SLOAD SWAP1 PUSH2 0x100 EXP SWAP1 DIV PUSH20 0xFFFFFFFFFFFFFFFFFFFFFFFFFFFFFFFFFFFFFFFF AND PUSH20 0xFFFFFFFFFFFFFFFFFFFFFFFFFFFFFFFFFFFFFFFF AND PUSH32 0x7B73F5D770F3EB41FD57F1E6A1C9E2A5EC61FEBBBD4E608D511C46E3FD611639 PUSH1 0x40 MLOAD PUSH2 0x2BAA SWAP1 PUSH2 0x411B JUMP JUMPDEST PUSH1 0x40 MLOAD DUP1 SWAP2 SUB SWAP1 LOG2 JUMP JUMPDEST PUSH1 0x2 SLOAD DUP2 JUMP JUMPDEST PUSH0 DUP1 SLOAD SWAP1 PUSH2 0x100 EXP SWAP1 DIV PUSH20 0xFFFFFFFFFFFFFFFFFFFFFFFFFFFFFFFFFFFFFFFF AND PUSH20 0xFFFFFFFFFFFFFFFFFFFFFFFFFFFFFFFFFFFFFFFF AND CALLER PUSH20 0xFFFFFFFFFFFFFFFFFFFFFFFFFFFFFFFFFFFFFFFF AND EQ PUSH2 0x2C47 JUMPI PUSH1 0x40 MLOAD PUSH32 0x8C379A000000000000000000000000000000000000000000000000000000000 DUP2 MSTORE PUSH1 0x4 ADD PUSH2 0x2C3E SWAP1 PUSH2 0x336C JUMP JUMPDEST PUSH1 0x40 MLOAD DUP1 SWAP2 SUB SWAP1 REVERT JUMPDEST PUSH1 0x1 ISZERO ISZERO PUSH1 0x11 PUSH0 SWAP1 SLOAD SWAP1 PUSH2 0x100 EXP SWAP1 DIV PUSH1 0xFF AND ISZERO ISZERO EQ PUSH2 0x2C9C JUMPI PUSH1 0x40 MLOAD PUSH32 0x8C379A000000000000000000000000000000000000000000000000000000000 DUP2 MSTORE PUSH1 0x4 ADD PUSH2 0x2C93 SWAP1 PUSH2 0x41A9 JUMP JUMPDEST PUSH1 0x40 MLOAD DUP1 SWAP2 SUB SWAP1 REVERT JUMPDEST PUSH1 0x1 PUSH1 0x11 PUSH1 0x1 PUSH2 0x100 EXP DUP2 SLOAD DUP2 PUSH1 0xFF MUL NOT AND SWAP1 DUP4 ISZERO ISZERO MUL OR SWAP1 SSTORE POP PUSH4 0x1E13380 PUSH1 0xF PUSH0 DUP3 DUP3 SLOAD PUSH2 0x2CCC SWAP2 SWAP1 PUSH2 0x354D JUMP JUMPDEST SWAP3 POP POP DUP2 SWAP1 SSTORE POP PUSH0 PUSH1 0x11 PUSH0 PUSH2 0x100 EXP DUP2 SLOAD DUP2 PUSH1 0xFF MUL NOT AND SWAP1 DUP4 ISZERO ISZERO MUL OR SWAP1 SSTORE POP PUSH0 PUSH1 0x11 PUSH1 0x1 PUSH2 0x100 EXP DUP2 SLOAD DUP2 PUSH1 0xFF MUL NOT AND SWAP1 DUP4 ISZERO ISZERO MUL OR SWAP1 SSTORE POP PUSH32 0x9B92A9893C6F7C060109FBACF7A7ED7384B0D145F68541169A1A201EA42CE854 PUSH1 0xF SLOAD PUSH1 0x40 MLOAD PUSH2 0x2D37 SWAP2 SWAP1 PUSH2 0x30B1 JUMP JUMPDEST PUSH1 0x40 MLOAD DUP1 SWAP2 SUB SWAP1 LOG1 JUMP JUMPDEST PUSH0 PUSH1 0x40 MLOAD SWAP1 POP SWAP1 JUMP JUMPDEST PUSH0 DUP1 REVERT JUMPDEST PUSH0 DUP1 REVERT JUMPDEST PUSH0 DUP1 REVERT JUMPDEST PUSH0 DUP1 REVERT JUMPDEST PUSH0 PUSH1 0x1F NOT PUSH1 0x1F DUP4 ADD AND SWAP1 POP SWAP2 SWAP1 POP JUMP JUMPDEST PUSH32 0x4E487B7100000000000000000000000000000000000000000000000000000000 PUSH0 MSTORE PUSH1 0x41 PUSH1 0x4 MSTORE PUSH1 0x24 PUSH0 REVERT JUMPDEST PUSH2 0x2DA0 DUP3 PUSH2 0x2D5A JUMP JUMPDEST DUP2 ADD DUP2 DUP2 LT PUSH8 0xFFFFFFFFFFFFFFFF DUP3 GT OR ISZERO PUSH2 0x2DBF JUMPI PUSH2 0x2DBE PUSH2 0x2D6A JUMP JUMPDEST JUMPDEST DUP1 PUSH1 0x40 MSTORE POP POP POP JUMP JUMPDEST PUSH0 PUSH2 0x2DD1 PUSH2 0x2D41 JUMP JUMPDEST SWAP1 POP PUSH2 0x2DDD DUP3 DUP3 PUSH2 0x2D97 JUMP JUMPDEST SWAP2 SWAP1 POP JUMP JUMPDEST PUSH0 PUSH8 0xFFFFFFFFFFFFFFFF DUP3 GT ISZERO PUSH2 0x2DFC JUMPI PUSH2 0x2DFB PUSH2 0x2D6A JUMP JUMPDEST JUMPDEST PUSH2 0x2E05 DUP3 PUSH2 0x2D5A JUMP JUMPDEST SWAP1 POP PUSH1 0x20 DUP2 ADD SWAP1 POP SWAP2 SWAP1 POP JUMP JUMPDEST DUP3 DUP2 DUP4 CALLDATACOPY PUSH0 DUP4 DUP4 ADD MSTORE POP POP POP JUMP JUMPDEST PUSH0 PUSH2 0x2E32 PUSH2 0x2E2D DUP5 PUSH2 0x2DE2 JUMP JUMPDEST PUSH2 0x2DC8 JUMP JUMPDEST SWAP1 POP DUP3 DUP2 MSTORE PUSH1 0x20 DUP2 ADD DUP5 DUP5 DUP5 ADD GT ISZERO PUSH2 0x2E4E JUMPI PUSH2 0x2E4D PUSH2 0x2D56 JUMP JUMPDEST JUMPDEST PUSH2 0x2E59 DUP5 DUP3 DUP6 PUSH2 0x2E12 JUMP JUMPDEST POP SWAP4 SWAP3 POP POP POP JUMP JUMPDEST PUSH0 DUP3 PUSH1 0x1F DUP4 ADD SLT PUSH2 0x2E75 JUMPI PUSH2 0x2E74 PUSH2 0x2D52 JUMP JUMPDEST JUMPDEST DUP2 CALLDATALOAD PUSH2 0x2E85 DUP5 DUP3 PUSH1 0x20 DUP7 ADD PUSH2 0x2E20 JUMP JUMPDEST SWAP2 POP POP SWAP3 SWAP2 POP POP JUMP JUMPDEST PUSH0 PUSH1 0x20 DUP3 DUP5 SUB SLT ISZERO PUSH2 0x2EA3 JUMPI PUSH2 0x2EA2 PUSH2 0x2D4A JUMP JUMPDEST JUMPDEST PUSH0 DUP3 ADD CALLDATALOAD PUSH8 0xFFFFFFFFFFFFFFFF DUP2 GT ISZERO PUSH2 0x2EC0 JUMPI PUSH2 0x2EBF PUSH2 0x2D4E JUMP JUMPDEST JUMPDEST PUSH2 0x2ECC DUP5 DUP3 DUP6 ADD PUSH2 0x2E61 JUMP JUMPDEST SWAP2 POP POP SWAP3 SWAP2 POP POP JUMP JUMPDEST PUSH0 DUP2 MLOAD SWAP1 POP SWAP2 SWAP1 POP JUMP JUMPDEST PUSH0 DUP3 DUP3 MSTORE PUSH1 0x20 DUP3 ADD SWAP1 POP SWAP3 SWAP2 POP POP JUMP JUMPDEST DUP3 DUP2 DUP4 MCOPY PUSH0 DUP4 DUP4 ADD MSTORE POP POP POP JUMP JUMPDEST PUSH0 PUSH2 0x2F07 DUP3 PUSH2 0x2ED5 JUMP JUMPDEST PUSH2 0x2F11 DUP2 DUP6 PUSH2 0x2EDF JUMP JUMPDEST SWAP4 POP PUSH2 0x2F21 DUP2 DUP6 PUSH1 0x20 DUP7 ADD PUSH2 0x2EEF JUMP JUMPDEST PUSH2 0x2F2A DUP2 PUSH2 0x2D5A JUMP JUMPDEST DUP5 ADD SWAP2 POP POP SWAP3 SWAP2 POP POP JUMP JUMPDEST PUSH0 PUSH1 0x20 DUP3 ADD SWAP1 POP DUP2 DUP2 SUB PUSH0 DUP4 ADD MSTORE PUSH2 0x2F4D DUP2 DUP5 PUSH2 0x2EFD JUMP JUMPDEST SWAP1 POP SWAP3 SWAP2 POP POP JUMP JUMPDEST PUSH0 DUP2 ISZERO ISZERO SWAP1 POP SWAP2 SWAP1 POP JUMP JUMPDEST PUSH2 0x2F69 DUP2 PUSH2 0x2F55 JUMP JUMPDEST DUP3 MSTORE POP POP JUMP JUMPDEST PUSH0 PUSH1 0x20 DUP3 ADD SWAP1 POP PUSH2 0x2F82 PUSH0 DUP4 ADD DUP5 PUSH2 0x2F60 JUMP JUMPDEST SWAP3 SWAP2 POP POP JUMP JUMPDEST PUSH0 PUSH20 0xFFFFFFFFFFFFFFFFFFFFFFFFFFFFFFFFFFFFFFFF DUP3 AND SWAP1 POP SWAP2 SWAP1 POP JUMP JUMPDEST PUSH0 PUSH2 0x2FB1 DUP3 PUSH2 0x2F88 JUMP JUMPDEST SWAP1 POP SWAP2 SWAP1 POP JUMP JUMPDEST PUSH2 0x2FC1 DUP2 PUSH2 0x2FA7 JUMP JUMPDEST DUP2 EQ PUSH2 0x2FCB JUMPI PUSH0 DUP1 REVERT JUMPDEST POP JUMP JUMPDEST PUSH0 DUP2 CALLDATALOAD SWAP1 POP PUSH2 0x2FDC DUP2 PUSH2 0x2FB8 JUMP JUMPDEST SWAP3 SWAP2 POP POP JUMP JUMPDEST PUSH0 PUSH1 0x20 DUP3 DUP5 SUB SLT ISZERO PUSH2 0x2FF7 JUMPI PUSH2 0x2FF6 PUSH2 0x2D4A JUMP JUMPDEST JUMPDEST PUSH0 PUSH2 0x3004 DUP5 DUP3 DUP6 ADD PUSH2 0x2FCE JUMP JUMPDEST SWAP2 POP POP SWAP3 SWAP2 POP POP JUMP JUMPDEST PUSH32 0x4E487B7100000000000000000000000000000000000000000000000000000000 PUSH0 MSTORE PUSH1 0x21 PUSH1 0x4 MSTORE PUSH1 0x24 PUSH0 REVERT JUMPDEST PUSH1 0x3 DUP2 LT PUSH2 0x304B JUMPI PUSH2 0x304A PUSH2 0x300D JUMP JUMPDEST JUMPDEST POP JUMP JUMPDEST PUSH0 DUP2 SWAP1 POP PUSH2 0x305B DUP3 PUSH2 0x303A JUMP JUMPDEST SWAP2 SWAP1 POP JUMP JUMPDEST PUSH0 PUSH2 0x306A DUP3 PUSH2 0x304E JUMP JUMPDEST SWAP1 POP SWAP2 SWAP1 POP JUMP JUMPDEST PUSH2 0x307A DUP2 PUSH2 0x3060 JUMP JUMPDEST DUP3 MSTORE POP POP JUMP JUMPDEST PUSH0 PUSH1 0x20 DUP3 ADD SWAP1 POP PUSH2 0x3093 PUSH0 DUP4 ADD DUP5 PUSH2 0x3071 JUMP JUMPDEST SWAP3 SWAP2 POP POP JUMP JUMPDEST PUSH0 DUP2 SWAP1 POP SWAP2 SWAP1 POP JUMP JUMPDEST PUSH2 0x30AB DUP2 PUSH2 0x3099 JUMP JUMPDEST DUP3 MSTORE POP POP JUMP JUMPDEST PUSH0 PUSH1 0x20 DUP3 ADD SWAP1 POP PUSH2 0x30C4 PUSH0 DUP4 ADD DUP5 PUSH2 0x30A2 JUMP JUMPDEST SWAP3 SWAP2 POP POP JUMP JUMPDEST PUSH2 0x30D3 DUP2 PUSH2 0x3099 JUMP JUMPDEST DUP2 EQ PUSH2 0x30DD JUMPI PUSH0 DUP1 REVERT JUMPDEST POP JUMP JUMPDEST PUSH0 DUP2 CALLDATALOAD SWAP1 POP PUSH2 0x30EE DUP2 PUSH2 0x30CA JUMP JUMPDEST SWAP3 SWAP2 POP POP JUMP JUMPDEST PUSH0 DUP1 PUSH1 0x40 DUP4 DUP6 SUB SLT ISZERO PUSH2 0x310A JUMPI PUSH2 0x3109 PUSH2 0x2D4A JUMP JUMPDEST JUMPDEST PUSH0 PUSH2 0x3117 DUP6 DUP3 DUP7 ADD PUSH2 0x30E0 JUMP JUMPDEST SWAP3 POP POP PUSH1 0x20 DUP4 ADD CALLDATALOAD PUSH8 0xFFFFFFFFFFFFFFFF DUP2 GT ISZERO PUSH2 0x3138 JUMPI PUSH2 0x3137 PUSH2 0x2D4E JUMP JUMPDEST JUMPDEST PUSH2 0x3144 DUP6 DUP3 DUP7 ADD PUSH2 0x2E61 JUMP JUMPDEST SWAP2 POP POP SWAP3 POP SWAP3 SWAP1 POP JUMP JUMPDEST PUSH0 PUSH1 0x20 DUP3 DUP5 SUB SLT ISZERO PUSH2 0x3163 JUMPI PUSH2 0x3162 PUSH2 0x2D4A JUMP JUMPDEST JUMPDEST PUSH0 PUSH2 0x3170 DUP5 DUP3 DUP6 ADD PUSH2 0x30E0 JUMP JUMPDEST SWAP2 POP POP SWAP3 SWAP2 POP POP JUMP JUMPDEST PUSH0 PUSH1 0x60 DUP3 ADD SWAP1 POP PUSH2 0x318C PUSH0 DUP4 ADD DUP7 PUSH2 0x30A2 JUMP JUMPDEST PUSH2 0x3199 PUSH1 0x20 DUP4 ADD DUP6 PUSH2 0x30A2 JUMP JUMPDEST PUSH2 0x31A6 PUSH1 0x40 DUP4 ADD DUP5 PUSH2 0x2F60 JUMP JUMPDEST SWAP5 SWAP4 POP POP POP POP JUMP JUMPDEST PUSH2 0x31B7 DUP2 PUSH2 0x2FA7 JUMP JUMPDEST DUP3 MSTORE POP POP JUMP JUMPDEST PUSH0 PUSH1 0x20 DUP3 ADD SWAP1 POP PUSH2 0x31D0 PUSH0 DUP4 ADD DUP5 PUSH2 0x31AE JUMP JUMPDEST SWAP3 SWAP2 POP POP JUMP JUMPDEST PUSH0 DUP2 MLOAD SWAP1 POP SWAP2 SWAP1 POP JUMP JUMPDEST PUSH0 DUP3 DUP3 MSTORE PUSH1 0x20 DUP3 ADD SWAP1 POP SWAP3 SWAP2 POP POP JUMP JUMPDEST PUSH0 DUP2 SWAP1 POP PUSH1 0x20 DUP3 ADD SWAP1 POP SWAP2 SWAP1 POP JUMP JUMPDEST PUSH2 0x3208 DUP2 PUSH2 0x3099 JUMP JUMPDEST DUP3 MSTORE POP POP JUMP JUMPDEST PUSH2 0x3217 DUP2 PUSH2 0x2F55 JUMP JUMPDEST DUP3 MSTORE POP POP JUMP JUMPDEST PUSH1 0x60 DUP3 ADD PUSH0 DUP3 ADD MLOAD PUSH2 0x3231 PUSH0 DUP6 ADD DUP3 PUSH2 0x31FF JUMP JUMPDEST POP PUSH1 0x20 DUP3 ADD MLOAD PUSH2 0x3244 PUSH1 0x20 DUP6 ADD DUP3 PUSH2 0x31FF JUMP JUMPDEST POP PUSH1 0x40 DUP3 ADD MLOAD PUSH2 0x3257 PUSH1 0x40 DUP6 ADD DUP3 PUSH2 0x320E JUMP JUMPDEST POP POP POP POP JUMP JUMPDEST PUSH0 PUSH2 0x3268 DUP4 DUP4 PUSH2 0x321D JUMP JUMPDEST PUSH1 0x60 DUP4 ADD SWAP1 POP SWAP3 SWAP2 POP POP JUMP JUMPDEST PUSH0 PUSH1 0x20 DUP3 ADD SWAP1 POP SWAP2 SWAP1 POP JUMP JUMPDEST PUSH0 PUSH2 0x328A DUP3 PUSH2 0x31D6 JUMP JUMPDEST PUSH2 0x3294 DUP2 DUP6 PUSH2 0x31E0 JUMP JUMPDEST SWAP4 POP PUSH2 0x329F DUP4 PUSH2 0x31F0 JUMP JUMPDEST DUP1 PUSH0 JUMPDEST DUP4 DUP2 LT ISZERO PUSH2 0x32CF JUMPI DUP2 MLOAD PUSH2 0x32B6 DUP9 DUP3 PUSH2 0x325D JUMP JUMPDEST SWAP8 POP PUSH2 0x32C1 DUP4 PUSH2 0x3274 JUMP JUMPDEST SWAP3 POP POP PUSH1 0x1 DUP2 ADD SWAP1 POP PUSH2 0x32A2 JUMP JUMPDEST POP DUP6 SWAP4 POP POP POP POP SWAP3 SWAP2 POP POP JUMP JUMPDEST PUSH0 PUSH1 0x20 DUP3 ADD SWAP1 POP DUP2 DUP2 SUB PUSH0 DUP4 ADD MSTORE PUSH2 0x32F4 DUP2 DUP5 PUSH2 0x3280 JUMP JUMPDEST SWAP1 POP SWAP3 SWAP2 POP POP JUMP JUMPDEST PUSH32 0x4F6E6C79206C616E646C6F72642063616E20706572666F726D20746869732061 PUSH0 DUP3 ADD MSTORE PUSH32 0x6374696F6E000000000000000000000000000000000000000000000000000000 PUSH1 0x20 DUP3 ADD MSTORE POP JUMP JUMPDEST PUSH0 PUSH2 0x3356 PUSH1 0x25 DUP4 PUSH2 0x2EDF JUMP JUMPDEST SWAP2 POP PUSH2 0x3361 DUP3 PUSH2 0x32FC JUMP JUMPDEST PUSH1 0x40 DUP3 ADD SWAP1 POP SWAP2 SWAP1 POP JUMP JUMPDEST PUSH0 PUSH1 0x20 DUP3 ADD SWAP1 POP DUP2 DUP2 SUB PUSH0 DUP4 ADD MSTORE PUSH2 0x3383 DUP2 PUSH2 0x334A JUMP JUMPDEST SWAP1 POP SWAP2 SWAP1 POP JUMP JUMPDEST PUSH32 0x436F6E7472616374206973206E6F742061637469766500000000000000000000 PUSH0 DUP3 ADD MSTORE POP JUMP JUMPDEST PUSH0 PUSH2 0x33BE PUSH1 0x16 DUP4 PUSH2 0x2EDF JUMP JUMPDEST SWAP2 POP PUSH2 0x33C9 DUP3 PUSH2 0x338A JUMP JUMPDEST PUSH1 0x20 DUP3 ADD SWAP1 POP SWAP2 SWAP1 POP JUMP JUMPDEST PUSH0 PUSH1 0x20 DUP3 ADD SWAP1 POP DUP2 DUP2 SUB PUSH0 DUP4 ADD MSTORE PUSH2 0x33EB DUP2 PUSH2 0x33B2 JUMP JUMPDEST SWAP1 POP SWAP2 SWAP1 POP JUMP JUMPDEST PUSH32 0x4E487B7100000000000000000000000000000000000000000000000000000000 PUSH0 MSTORE PUSH1 0x11 PUSH1 0x4 MSTORE PUSH1 0x24 PUSH0 REVERT JUMPDEST PUSH0 PUSH2 0x3429 DUP3 PUSH2 0x3099 JUMP JUMPDEST SWAP2 POP PUSH2 0x3434 DUP4 PUSH2 0x3099 JUMP JUMPDEST SWAP3 POP DUP3 DUP3 SUB SWAP1 POP DUP2 DUP2 GT ISZERO PUSH2 0x344C JUMPI PUSH2 0x344B PUSH2 0x33F2 JUMP JUMPDEST JUMPDEST SWAP3 SWAP2 POP POP JUMP JUMPDEST PUSH32 0x4E487B7100000000000000000000000000000000000000000000000000000000 PUSH0 MSTORE PUSH1 0x12 PUSH1 0x4 MSTORE PUSH1 0x24 PUSH0 REVERT JUMPDEST PUSH0 PUSH2 0x3489 DUP3 PUSH2 0x3099 JUMP JUMPDEST SWAP2 POP PUSH2 0x3494 DUP4 PUSH2 0x3099 JUMP JUMPDEST SWAP3 POP DUP3 PUSH2 0x34A4 JUMPI PUSH2 0x34A3 PUSH2 0x3452 JUMP JUMPDEST JUMPDEST DUP3 DUP3 DIV SWAP1 POP SWAP3 SWAP2 POP POP JUMP JUMPDEST PUSH32 0x4E487B7100000000000000000000000000000000000000000000000000000000 PUSH0 MSTORE PUSH1 0x22 PUSH1 0x4 MSTORE PUSH1 0x24 PUSH0 REVERT JUMPDEST PUSH0 PUSH1 0x2 DUP3 DIV SWAP1 POP PUSH1 0x1 DUP3 AND DUP1 PUSH2 0x34F3 JUMPI PUSH1 0x7F DUP3 AND SWAP2 POP JUMPDEST PUSH1 0x20 DUP3 LT DUP2 SUB PUSH2 0x3506 JUMPI PUSH2 0x3505 PUSH2 0x34AF JUMP JUMPDEST JUMPDEST POP SWAP2 SWAP1 POP JUMP JUMPDEST PUSH0 PUSH2 0x3516 DUP3 PUSH2 0x3099 JUMP JUMPDEST SWAP2 POP PUSH2 0x3521 DUP4 PUSH2 0x3099 JUMP JUMPDEST SWAP3 POP DUP3 DUP3 MUL PUSH2 0x352F DUP2 PUSH2 0x3099 JUMP JUMPDEST SWAP2 POP DUP3 DUP3 DIV DUP5 EQ DUP4 ISZERO OR PUSH2 0x3546 JUMPI PUSH2 0x3545 PUSH2 0x33F2 JUMP JUMPDEST JUMPDEST POP SWAP3 SWAP2 POP POP JUMP JUMPDEST PUSH0 PUSH2 0x3557 DUP3 PUSH2 0x3099 JUMP JUMPDEST SWAP2 POP PUSH2 0x3562 DUP4 PUSH2 0x3099 JUMP JUMPDEST SWAP3 POP DUP3 DUP3 ADD SWAP1 POP DUP1 DUP3 GT ISZERO PUSH2 0x357A JUMPI PUSH2 0x3579 PUSH2 0x33F2 JUMP JUMPDEST JUMPDEST SWAP3 SWAP2 POP POP JUMP JUMPDEST PUSH32 0x4F6E6C792054656E616E742063616E20706572666F726D207468697320616374 PUSH0 DUP3 ADD MSTORE PUSH32 0x696F6E0000000000000000000000000000000000000000000000000000000000 PUSH1 0x20 DUP3 ADD MSTORE POP JUMP JUMPDEST PUSH0 PUSH2 0x35DA PUSH1 0x23 DUP4 PUSH2 0x2EDF JUMP JUMPDEST SWAP2 POP PUSH2 0x35E5 DUP3 PUSH2 0x3580 JUMP JUMPDEST PUSH1 0x40 DUP3 ADD SWAP1 POP SWAP2 SWAP1 POP JUMP JUMPDEST PUSH0 PUSH1 0x20 DUP3 ADD SWAP1 POP DUP2 DUP2 SUB PUSH0 DUP4 ADD MSTORE PUSH2 0x3607 DUP2 PUSH2 0x35CE JUMP JUMPDEST SWAP1 POP SWAP2 SWAP1 POP JUMP JUMPDEST PUSH32 0x436F6E7472616374206973206E6F742041637469766500000000000000000000 PUSH0 DUP3 ADD MSTORE POP JUMP JUMPDEST PUSH0 PUSH2 0x3642 PUSH1 0x16 DUP4 PUSH2 0x2EDF JUMP JUMPDEST SWAP2 POP PUSH2 0x364D DUP3 PUSH2 0x360E JUMP JUMPDEST PUSH1 0x20 DUP3 ADD SWAP1 POP SWAP2 SWAP1 POP JUMP JUMPDEST PUSH0 PUSH1 0x20 DUP3 ADD SWAP1 POP DUP2 DUP2 SUB PUSH0 DUP4 ADD MSTORE PUSH2 0x366F DUP2 PUSH2 0x3636 JUMP JUMPDEST SWAP1 POP SWAP2 SWAP1 POP JUMP JUMPDEST PUSH32 0x4E6F2070656E64696E67207761726E696E6720746F20636F6E6669726D000000 PUSH0 DUP3 ADD MSTORE POP JUMP JUMPDEST PUSH0 PUSH2 0x36AA PUSH1 0x1D DUP4 PUSH2 0x2EDF JUMP JUMPDEST SWAP2 POP PUSH2 0x36B5 DUP3 PUSH2 0x3676 JUMP JUMPDEST PUSH1 0x20 DUP3 ADD SWAP1 POP SWAP2 SWAP1 POP JUMP JUMPDEST PUSH0 PUSH1 0x20 DUP3 ADD SWAP1 POP DUP2 DUP2 SUB PUSH0 DUP4 ADD MSTORE PUSH2 0x36D7 DUP2 PUSH2 0x369E JUMP JUMPDEST SWAP1 POP SWAP2 SWAP1 POP JUMP JUMPDEST PUSH0 PUSH2 0x36E8 DUP3 PUSH2 0x3099 JUMP JUMPDEST SWAP2 POP PUSH32 0xFFFFFFFFFFFFFFFFFFFFFFFFFFFFFFFFFFFFFFFFFFFFFFFFFFFFFFFFFFFFFFFF DUP3 SUB PUSH2 0x371A JUMPI PUSH2 0x3719 PUSH2 0x33F2 JUMP JUMPDEST JUMPDEST PUSH1 0x1 DUP3 ADD SWAP1 POP SWAP2 SWAP1 POP JUMP JUMPDEST PUSH32 0x52656E74616C20636F6E7472616374206973206E6F7420616374697665000000 PUSH0 DUP3 ADD MSTORE POP JUMP JUMPDEST PUSH0 PUSH2 0x3759 PUSH1 0x1D DUP4 PUSH2 0x2EDF JUMP JUMPDEST SWAP2 POP PUSH2 0x3764 DUP3 PUSH2 0x3725 JUMP JUMPDEST PUSH1 0x20 DUP3 ADD SWAP1 POP SWAP2 SWAP1 POP JUMP JUMPDEST PUSH0 PUSH1 0x20 DUP3 ADD SWAP1 POP DUP2 DUP2 SUB PUSH0 DUP4 ADD MSTORE PUSH2 0x3786 DUP2 PUSH2 0x374D JUMP JUMPDEST SWAP1 POP SWAP2 SWAP1 POP JUMP JUMPDEST PUSH0 PUSH1 0x60 DUP3 ADD SWAP1 POP PUSH2 0x37A0 PUSH0 DUP4 ADD DUP7 PUSH2 0x31AE JUMP JUMPDEST PUSH2 0x37AD PUSH1 0x20 DUP4 ADD DUP6 PUSH2 0x31AE JUMP JUMPDEST PUSH2 0x37BA PUSH1 0x40 DUP4 ADD DUP5 PUSH2 0x30A2 JUMP JUMPDEST SWAP5 SWAP4 POP POP POP POP JUMP JUMPDEST PUSH2 0x37CB DUP2 PUSH2 0x2F55 JUMP JUMPDEST DUP2 EQ PUSH2 0x37D5 JUMPI PUSH0 DUP1 REVERT JUMPDEST POP JUMP JUMPDEST PUSH0 DUP2 MLOAD SWAP1 POP PUSH2 0x37E6 DUP2 PUSH2 0x37C2 JUMP JUMPDEST SWAP3 SWAP2 POP POP JUMP JUMPDEST PUSH0 PUSH1 0x20 DUP3 DUP5 SUB SLT ISZERO PUSH2 0x3801 JUMPI PUSH2 0x3800 PUSH2 0x2D4A JUMP JUMPDEST JUMPDEST PUSH0 PUSH2 0x380E DUP5 DUP3 DUP6 ADD PUSH2 0x37D8 JUMP JUMPDEST SWAP2 POP POP SWAP3 SWAP2 POP POP JUMP JUMPDEST PUSH32 0x537461626C65636F696E206465706F736974206661696C656400000000000000 PUSH0 DUP3 ADD MSTORE POP JUMP JUMPDEST PUSH0 PUSH2 0x384B PUSH1 0x19 DUP4 PUSH2 0x2EDF JUMP JUMPDEST SWAP2 POP PUSH2 0x3856 DUP3 PUSH2 0x3817 JUMP JUMPDEST PUSH1 0x20 DUP3 ADD SWAP1 POP SWAP2 SWAP1 POP JUMP JUMPDEST PUSH0 PUSH1 0x20 DUP3 ADD SWAP1 POP DUP2 DUP2 SUB PUSH0 DUP4 ADD MSTORE PUSH2 0x3878 DUP2 PUSH2 0x383F JUMP JUMPDEST SWAP1 POP SWAP2 SWAP1 POP JUMP JUMPDEST PUSH32 0x496E737566666963656E74204554482073656E74000000000000000000000000 PUSH0 DUP3 ADD MSTORE POP JUMP JUMPDEST PUSH0 PUSH2 0x38B3 PUSH1 0x14 DUP4 PUSH2 0x2EDF JUMP JUMPDEST SWAP2 POP PUSH2 0x38BE DUP3 PUSH2 0x387F JUMP JUMPDEST PUSH1 0x20 DUP3 ADD SWAP1 POP SWAP2 SWAP1 POP JUMP JUMPDEST PUSH0 PUSH1 0x20 DUP3 ADD SWAP1 POP DUP2 DUP2 SUB PUSH0 DUP4 ADD MSTORE PUSH2 0x38E0 DUP2 PUSH2 0x38A7 JUMP JUMPDEST SWAP1 POP SWAP2 SWAP1 POP JUMP JUMPDEST PUSH0 PUSH1 0x40 DUP3 ADD SWAP1 POP PUSH2 0x38FA PUSH0 DUP4 ADD DUP6 PUSH2 0x30A2 JUMP JUMPDEST PUSH2 0x3907 PUSH1 0x20 DUP4 ADD DUP5 PUSH2 0x2F60 JUMP JUMPDEST SWAP4 SWAP3 POP POP POP JUMP JUMPDEST PUSH32 0x436F6E747261637420686173206E6F7420657870697265642079657400000000 PUSH0 DUP3 ADD MSTORE POP JUMP JUMPDEST PUSH0 PUSH2 0x3942 PUSH1 0x1C DUP4 PUSH2 0x2EDF JUMP JUMPDEST SWAP2 POP PUSH2 0x394D DUP3 PUSH2 0x390E JUMP JUMPDEST PUSH1 0x20 DUP3 ADD SWAP1 POP SWAP2 SWAP1 POP JUMP JUMPDEST PUSH0 PUSH1 0x20 DUP3 ADD SWAP1 POP DUP2 DUP2 SUB PUSH0 DUP4 ADD MSTORE PUSH2 0x396F DUP2 PUSH2 0x3936 JUMP JUMPDEST SWAP1 POP SWAP2 SWAP1 POP JUMP JUMPDEST PUSH32 0x436F6E747261637420686173206265656E2072656E6577656400000000000000 PUSH0 DUP3 ADD MSTORE POP JUMP JUMPDEST PUSH0 PUSH2 0x39AA PUSH1 0x19 DUP4 PUSH2 0x2EDF JUMP JUMPDEST SWAP2 POP PUSH2 0x39B5 DUP3 PUSH2 0x3976 JUMP JUMPDEST PUSH1 0x20 DUP3 ADD SWAP1 POP SWAP2 SWAP1 POP JUMP JUMPDEST PUSH0 PUSH1 0x20 DUP3 ADD SWAP1 POP DUP2 DUP2 SUB PUSH0 DUP4 ADD MSTORE PUSH2 0x39D7 DUP2 PUSH2 0x399E JUMP JUMPDEST SWAP1 POP SWAP2 SWAP1 POP JUMP JUMPDEST PUSH32 0x436F6E7472616374206578706972656420776974686F75742072656E6577616C PUSH0 DUP3 ADD MSTORE POP JUMP JUMPDEST PUSH0 PUSH2 0x3A12 PUSH1 0x20 DUP4 PUSH2 0x2EDF JUMP JUMPDEST SWAP2 POP PUSH2 0x3A1D DUP3 PUSH2 0x39DE JUMP JUMPDEST PUSH1 0x20 DUP3 ADD SWAP1 POP SWAP2 SWAP1 POP JUMP JUMPDEST PUSH0 PUSH1 0x20 DUP3 ADD SWAP1 POP DUP2 DUP2 SUB PUSH0 DUP4 ADD MSTORE PUSH2 0x3A3F DUP2 PUSH2 0x3A06 JUMP JUMPDEST SWAP1 POP SWAP2 SWAP1 POP JUMP JUMPDEST PUSH32 0x436F6E7472616374206D75737420626572207465726D696E6174656400000000 PUSH0 DUP3 ADD MSTORE POP JUMP JUMPDEST PUSH0 PUSH2 0x3A7A PUSH1 0x1C DUP4 PUSH2 0x2EDF JUMP JUMPDEST SWAP2 POP PUSH2 0x3A85 DUP3 PUSH2 0x3A46 JUMP JUMPDEST PUSH1 0x20 DUP3 ADD SWAP1 POP SWAP2 SWAP1 POP JUMP JUMPDEST PUSH0 PUSH1 0x20 DUP3 ADD SWAP1 POP DUP2 DUP2 SUB PUSH0 DUP4 ADD MSTORE PUSH2 0x3AA7 DUP2 PUSH2 0x3A6E JUMP JUMPDEST SWAP1 POP SWAP2 SWAP1 POP JUMP JUMPDEST PUSH0 PUSH10 0xFFFFFFFFFFFFFFFFFFFF DUP3 AND SWAP1 POP SWAP2 SWAP1 POP JUMP JUMPDEST PUSH2 0x3ACC DUP2 PUSH2 0x3AAE JUMP JUMPDEST DUP2 EQ PUSH2 0x3AD6 JUMPI PUSH0 DUP1 REVERT JUMPDEST POP JUMP JUMPDEST PUSH0 DUP2 MLOAD SWAP1 POP PUSH2 0x3AE7 DUP2 PUSH2 0x3AC3 JUMP JUMPDEST SWAP3 SWAP2 POP POP JUMP JUMPDEST PUSH0 DUP2 SWAP1 POP SWAP2 SWAP1 POP JUMP JUMPDEST PUSH2 0x3AFF DUP2 PUSH2 0x3AED JUMP JUMPDEST DUP2 EQ PUSH2 0x3B09 JUMPI PUSH0 DUP1 REVERT JUMPDEST POP JUMP JUMPDEST PUSH0 DUP2 MLOAD SWAP1 POP PUSH2 0x3B1A DUP2 PUSH2 0x3AF6 JUMP JUMPDEST SWAP3 SWAP2 POP POP JUMP JUMPDEST PUSH0 DUP2 MLOAD SWAP1 POP PUSH2 0x3B2E DUP2 PUSH2 0x30CA JUMP JUMPDEST SWAP3 SWAP2 POP POP JUMP JUMPDEST PUSH0 DUP1 PUSH0 DUP1 PUSH0 PUSH1 0xA0 DUP7 DUP9 SUB SLT ISZERO PUSH2 0x3B4D JUMPI PUSH2 0x3B4C PUSH2 0x2D4A JUMP JUMPDEST JUMPDEST PUSH0 PUSH2 0x3B5A DUP9 DUP3 DUP10 ADD PUSH2 0x3AD9 JUMP JUMPDEST SWAP6 POP POP PUSH1 0x20 PUSH2 0x3B6B DUP9 DUP3 DUP10 ADD PUSH2 0x3B0C JUMP JUMPDEST SWAP5 POP POP PUSH1 0x40 PUSH2 0x3B7C DUP9 DUP3 DUP10 ADD PUSH2 0x3B20 JUMP JUMPDEST SWAP4 POP POP PUSH1 0x60 PUSH2 0x3B8D DUP9 DUP3 DUP10 ADD PUSH2 0x3B20 JUMP JUMPDEST SWAP3 POP POP PUSH1 0x80 PUSH2 0x3B9E DUP9 DUP3 DUP10 ADD PUSH2 0x3AD9 JUMP JUMPDEST SWAP2 POP POP SWAP3 SWAP6 POP SWAP3 SWAP6 SWAP1 SWAP4 POP JUMP JUMPDEST PUSH0 PUSH2 0x3BB5 DUP3 PUSH2 0x3AED JUMP JUMPDEST SWAP2 POP PUSH2 0x3BC0 DUP4 PUSH2 0x3AED JUMP JUMPDEST SWAP3 POP DUP3 DUP3 MUL PUSH2 0x3BCE DUP2 PUSH2 0x3AED JUMP JUMPDEST SWAP2 POP PUSH32 0x8000000000000000000000000000000000000000000000000000000000000000 DUP5 EQ PUSH0 DUP5 SLT AND ISZERO PUSH2 0x3C05 JUMPI PUSH2 0x3C04 PUSH2 0x33F2 JUMP JUMPDEST JUMPDEST DUP3 DUP3 SDIV DUP5 EQ DUP4 ISZERO OR PUSH2 0x3C1A JUMPI PUSH2 0x3C19 PUSH2 0x33F2 JUMP JUMPDEST JUMPDEST POP SWAP3 SWAP2 POP POP JUMP JUMPDEST PUSH32 0x446564756374696F6E2065786365656473206465706F73697420616D6F756E74 PUSH0 DUP3 ADD MSTORE POP JUMP JUMPDEST PUSH0 PUSH2 0x3C55 PUSH1 0x20 DUP4 PUSH2 0x2EDF JUMP JUMPDEST SWAP2 POP PUSH2 0x3C60 DUP3 PUSH2 0x3C21 JUMP JUMPDEST PUSH1 0x20 DUP3 ADD SWAP1 POP SWAP2 SWAP1 POP JUMP JUMPDEST PUSH0 PUSH1 0x20 DUP3 ADD SWAP1 POP DUP2 DUP2 SUB PUSH0 DUP4 ADD MSTORE PUSH2 0x3C82 DUP2 PUSH2 0x3C49 JUMP JUMPDEST SWAP1 POP SWAP2 SWAP1 POP JUMP JUMPDEST PUSH0 PUSH1 0x40 DUP3 ADD SWAP1 POP PUSH2 0x3C9C PUSH0 DUP4 ADD DUP6 PUSH2 0x30A2 JUMP JUMPDEST DUP2 DUP2 SUB PUSH1 0x20 DUP4 ADD MSTORE PUSH2 0x3CAE DUP2 DUP5 PUSH2 0x2EFD JUMP JUMPDEST SWAP1 POP SWAP4 SWAP3 POP POP POP JUMP JUMPDEST PUSH32 0x537461626C65636F696E207061796D656E74206661696C656400000000000000 PUSH0 DUP3 ADD MSTORE POP JUMP JUMPDEST PUSH0 PUSH2 0x3CEB PUSH1 0x19 DUP4 PUSH2 0x2EDF JUMP JUMPDEST SWAP2 POP PUSH2 0x3CF6 DUP3 PUSH2 0x3CB7 JUMP JUMPDEST PUSH1 0x20 DUP3 ADD SWAP1 POP SWAP2 SWAP1 POP JUMP JUMPDEST PUSH0 PUSH1 0x20 DUP3 ADD SWAP1 POP DUP2 DUP2 SUB PUSH0 DUP4 ADD MSTORE PUSH2 0x3D18 DUP2 PUSH2 0x3CDF JUMP JUMPDEST SWAP1 POP SWAP2 SWAP1 POP JUMP JUMPDEST PUSH32 0x436F6E74726163742068617320616C7265616479206578706972656400000000 PUSH0 DUP3 ADD MSTORE POP JUMP JUMPDEST PUSH0 PUSH2 0x3D53 PUSH1 0x1C DUP4 PUSH2 0x2EDF JUMP JUMPDEST SWAP2 POP PUSH2 0x3D5E DUP3 PUSH2 0x3D1F JUMP JUMPDEST PUSH1 0x20 DUP3 ADD SWAP1 POP SWAP2 SWAP1 POP JUMP JUMPDEST PUSH0 PUSH1 0x20 DUP3 ADD SWAP1 POP DUP2 DUP2 SUB PUSH0 DUP4 ADD MSTORE PUSH2 0x3D80 DUP2 PUSH2 0x3D47 JUMP JUMPDEST SWAP1 POP SWAP2 SWAP1 POP JUMP JUMPDEST PUSH32 0x5761726E696E67206E6F74206170706C696361626C6520796574000000000000 PUSH0 DUP3 ADD MSTORE POP JUMP JUMPDEST PUSH0 PUSH2 0x3DBB PUSH1 0x1A DUP4 PUSH2 0x2EDF JUMP JUMPDEST SWAP2 POP PUSH2 0x3DC6 DUP3 PUSH2 0x3D87 JUMP JUMPDEST PUSH1 0x20 DUP3 ADD SWAP1 POP SWAP2 SWAP1 POP JUMP JUMPDEST PUSH0 PUSH1 0x20 DUP3 ADD SWAP1 POP DUP2 DUP2 SUB PUSH0 DUP4 ADD MSTORE PUSH2 0x3DE8 DUP2 PUSH2 0x3DAF JUMP JUMPDEST SWAP1 POP SWAP2 SWAP1 POP JUMP JUMPDEST PUSH32 0x5465726D696E6174696F6E206E6F742073636864756C65640000000000000000 PUSH0 DUP3 ADD MSTORE POP JUMP JUMPDEST PUSH0 PUSH2 0x3E23 PUSH1 0x18 DUP4 PUSH2 0x2EDF JUMP JUMPDEST SWAP2 POP PUSH2 0x3E2E DUP3 PUSH2 0x3DEF JUMP JUMPDEST PUSH1 0x20 DUP3 ADD SWAP1 POP SWAP2 SWAP1 POP JUMP JUMPDEST PUSH0 PUSH1 0x20 DUP3 ADD SWAP1 POP DUP2 DUP2 SUB PUSH0 DUP4 ADD MSTORE PUSH2 0x3E50 DUP2 PUSH2 0x3E17 JUMP JUMPDEST SWAP1 POP SWAP2 SWAP1 POP JUMP JUMPDEST PUSH32 0x5465726D696E6174696F6E20706572696F64206E6F7420726561636865640000 PUSH0 DUP3 ADD MSTORE POP JUMP JUMPDEST PUSH0 PUSH2 0x3E8B PUSH1 0x1E DUP4 PUSH2 0x2EDF JUMP JUMPDEST SWAP2 POP PUSH2 0x3E96 DUP3 PUSH2 0x3E57 JUMP JUMPDEST PUSH1 0x20 DUP3 ADD SWAP1 POP SWAP2 SWAP1 POP JUMP JUMPDEST PUSH0 PUSH1 0x20 DUP3 ADD SWAP1 POP DUP2 DUP2 SUB PUSH0 DUP4 ADD MSTORE PUSH2 0x3EB8 DUP2 PUSH2 0x3E7F JUMP JUMPDEST SWAP1 POP SWAP2 SWAP1 POP JUMP JUMPDEST PUSH32 0x4D6F7265207468616E2033207061796D656E74732077657265206E6F74207265 PUSH0 DUP3 ADD MSTORE PUSH32 0x67697374657265642E20436F6E7472616374206973207465726D696E61746564 PUSH1 0x20 DUP3 ADD MSTORE PUSH32 0x2E00000000000000000000000000000000000000000000000000000000000000 PUSH1 0x40 DUP3 ADD MSTORE POP JUMP JUMPDEST PUSH0 PUSH2 0x3F3F PUSH1 0x41 DUP4 PUSH2 0x2EDF JUMP JUMPDEST SWAP2 POP PUSH2 0x3F4A DUP3 PUSH2 0x3EBF JUMP JUMPDEST PUSH1 0x60 DUP3 ADD SWAP1 POP SWAP2 SWAP1 POP JUMP JUMPDEST PUSH0 PUSH1 0x20 DUP3 ADD SWAP1 POP DUP2 DUP2 SUB PUSH0 DUP4 ADD MSTORE PUSH2 0x3F6C DUP2 PUSH2 0x3F33 JUMP JUMPDEST SWAP1 POP SWAP2 SWAP1 POP JUMP JUMPDEST PUSH32 0x4175746F207061796D656E74206E6F7420617574686F72697A65640000000000 PUSH0 DUP3 ADD MSTORE POP JUMP JUMPDEST PUSH0 PUSH2 0x3FA7 PUSH1 0x1B DUP4 PUSH2 0x2EDF JUMP JUMPDEST SWAP2 POP PUSH2 0x3FB2 DUP3 PUSH2 0x3F73 JUMP JUMPDEST PUSH1 0x20 DUP3 ADD SWAP1 POP SWAP2 SWAP1 POP JUMP JUMPDEST PUSH0 PUSH1 0x20 DUP3 ADD SWAP1 POP DUP2 DUP2 SUB PUSH0 DUP4 ADD MSTORE PUSH2 0x3FD4 DUP2 PUSH2 0x3F9B JUMP JUMPDEST SWAP1 POP SWAP2 SWAP1 POP JUMP JUMPDEST PUSH32 0x4175746F20706179206661696C65640000000000000000000000000000000000 PUSH0 DUP3 ADD MSTORE POP JUMP JUMPDEST PUSH0 PUSH2 0x400F PUSH1 0xF DUP4 PUSH2 0x2EDF JUMP JUMPDEST SWAP2 POP PUSH2 0x401A DUP3 PUSH2 0x3FDB JUMP JUMPDEST PUSH1 0x20 DUP3 ADD SWAP1 POP SWAP2 SWAP1 POP JUMP JUMPDEST PUSH0 PUSH1 0x20 DUP3 ADD SWAP1 POP DUP2 DUP2 SUB PUSH0 DUP4 ADD MSTORE PUSH2 0x403C DUP2 PUSH2 0x4003 JUMP JUMPDEST SWAP1 POP SWAP2 SWAP1 POP JUMP JUMPDEST PUSH32 0x5465726D696E6174696F6E206E6F74207363686564756C656400000000000000 PUSH0 DUP3 ADD MSTORE POP JUMP JUMPDEST PUSH0 PUSH2 0x4077 PUSH1 0x19 DUP4 PUSH2 0x2EDF JUMP JUMPDEST SWAP2 POP PUSH2 0x4082 DUP3 PUSH2 0x4043 JUMP JUMPDEST PUSH1 0x20 DUP3 ADD SWAP1 POP SWAP2 SWAP1 POP JUMP JUMPDEST PUSH0 PUSH1 0x20 DUP3 ADD SWAP1 POP DUP2 DUP2 SUB PUSH0 DUP4 ADD MSTORE PUSH2 0x40A4 DUP2 PUSH2 0x406B JUMP JUMPDEST SWAP1 POP SWAP2 SWAP1 POP JUMP JUMPDEST PUSH32 0x54656E616E74207465726D696E6174656420746865206C656173652061677265 PUSH0 DUP3 ADD MSTORE PUSH32 0x656D656E74000000000000000000000000000000000000000000000000000000 PUSH1 0x20 DUP3 ADD MSTORE POP JUMP JUMPDEST PUSH0 PUSH2 0x4105 PUSH1 0x25 DUP4 PUSH2 0x2EDF JUMP JUMPDEST SWAP2 POP PUSH2 0x4110 DUP3 PUSH2 0x40AB JUMP JUMPDEST PUSH1 0x40 DUP3 ADD SWAP1 POP SWAP2 SWAP1 POP JUMP JUMPDEST PUSH0 PUSH1 0x20 DUP3 ADD SWAP1 POP DUP2 DUP2 SUB PUSH0 DUP4 ADD MSTORE PUSH2 0x4132 DUP2 PUSH2 0x40F9 JUMP JUMPDEST SWAP1 POP SWAP2 SWAP1 POP JUMP JUMPDEST PUSH32 0x54656E6E616E7420686173206E6F742061736B656420666F722072656E657761 PUSH0 DUP3 ADD MSTORE PUSH32 0x6C00000000000000000000000000000000000000000000000000000000000000 PUSH1 0x20 DUP3 ADD MSTORE POP JUMP JUMPDEST PUSH0 PUSH2 0x4193 PUSH1 0x21 DUP4 PUSH2 0x2EDF JUMP JUMPDEST SWAP2 POP PUSH2 0x419E DUP3 PUSH2 0x4139 JUMP JUMPDEST PUSH1 0x40 DUP3 ADD SWAP1 POP SWAP2 SWAP1 POP JUMP JUMPDEST PUSH0 PUSH1 0x20 DUP3 ADD SWAP1 POP DUP2 DUP2 SUB PUSH0 DUP4 ADD MSTORE PUSH2 0x41C0 DUP2 PUSH2 0x4187 JUMP JUMPDEST SWAP1 POP SWAP2 SWAP1 POP JUMP INVALID LOG2 PUSH5 0x6970667358 0x22 SLT KECCAK256 DUP8 PUSH14 0xD46391D1B9CE01812432542C8CBE EXTCODECOPY LOG1 DUP6 0xC4 0xE0 SAR 0xB8 0xBE SMOD 0xFC PUSH5 0x998C9EF124 PUSH5 0x736F6C6343 STOP ADDMOD BYTE STOP CALLER "
				},
				"gasEstimates": {
					"creation": {
						"codeDepositCost": "3378600",
						"executionCost": "infinite",
						"totalCost": "infinite"
					},
					"external": {
						"amountOwed()": "2536",
						"approveContractRenewal()": "infinite",
						"authorizeAutoPayment()": "26799",
						"autoPaymentApproved(address)": "2968",
						"calculateUpdatedDeposit()": "infinite",
						"checkContractExpiration()": "infinite",
						"checkTermination()": "infinite",
						"confirmWarning()": "infinite",
						"contractEndDate()": "2471",
						"contractIPFSHash()": "infinite",
						"deductFromDeposit(uint256,string)": "infinite",
						"deductedAmount()": "2491",
						"depositAmount()": "2493",
						"depositBalance()": "2492",
						"depositStartTime()": "2559",
						"executeTenantTermination()": "33464",
						"executeTermination()": "35946",
						"getLatestInterestRate()": "infinite",
						"getLatestPrice()": "infinite",
						"getNextPaymentTimeStamp()": "infinite",
						"getPaymentHistory()": "infinite",
						"isStabelcoinPayment()": "2579",
						"landlord()": "2638",
						"leaseStartTimestamp()": "2513",
						"payDeposit()": "infinite",
						"payRent()": "infinite",
						"paymentDueDate()": "2536",
						"paymentHistory(uint256)": "infinite",
						"pendingSevereBreachWarning()": "2512",
						"processAutoPayment()": "infinite",
						"renewalApproved()": "2629",
						"renewalRequest()": "2556",
						"rentAmount()": "2557",
						"rentalStatus()": "2644",
						"requestContractRenewal()": "30102",
						"requestTerminationByTennant()": "infinite",
						"requestWarning()": "infinite",
						"returnDeposit()": "infinite",
						"revokeAutoPayment()": "26753",
						"stabelcoinAddress()": "2604",
						"tenant()": "2619",
						"terminateContract(string)": "infinite",
						"terminateContractIfNotRenewed()": "35322",
						"terminationTimeStamp()": "2580",
						"warningCount()": "2559"
					}
				},
				"methodIdentifiers": {
					"amountOwed()": "775e9fce",
					"approveContractRenewal()": "f8fd0501",
					"authorizeAutoPayment()": "9f1f9082",
					"autoPaymentApproved(address)": "1ca43edd",
					"calculateUpdatedDeposit()": "36ec98ef",
					"checkContractExpiration()": "0abb1d7f",
					"checkTermination()": "3070c38b",
					"confirmWarning()": "4d5dca5a",
					"contractEndDate()": "3e3bd90e",
					"contractIPFSHash()": "140f26bf",
					"deductFromDeposit(uint256,string)": "8e7f727f",
					"deductedAmount()": "ea9e7f6a",
					"depositAmount()": "419759f5",
					"depositBalance()": "61bc1a49",
					"depositStartTime()": "587419d5",
					"executeTenantTermination()": "f84a0f2d",
					"executeTermination()": "dd66857f",
					"getLatestInterestRate()": "7f91df9c",
					"getLatestPrice()": "8e15f473",
					"getNextPaymentTimeStamp()": "d4e76e2c",
					"getPaymentHistory()": "b651bb61",
					"isStabelcoinPayment()": "18bb32f5",
					"landlord()": "dc1997ea",
					"leaseStartTimestamp()": "f24bb69b",
					"payDeposit()": "5c274b86",
					"payRent()": "a709c4fe",
					"paymentDueDate()": "d9ef0459",
					"paymentHistory(uint256)": "a5e047b8",
					"pendingSevereBreachWarning()": "1f85316c",
					"processAutoPayment()": "e36a03e0",
					"renewalApproved()": "33fc1183",
					"renewalRequest()": "8e3e760e",
					"rentAmount()": "f8ef1e13",
					"rentalStatus()": "31d019b7",
					"requestContractRenewal()": "c418c525",
					"requestTerminationByTennant()": "4269751c",
					"requestWarning()": "d6e82dca",
					"returnDeposit()": "7e88f603",
					"revokeAutoPayment()": "aa018005",
					"stabelcoinAddress()": "d39763c8",
					"tenant()": "adf07791",
					"terminateContract(string)": "03c77fa4",
					"terminateContractIfNotRenewed()": "6845071d",
					"terminationTimeStamp()": "7ec3110c",
					"warningCount()": "34cbfdfe"
				}
			},
			"storageLayout": {
				"storage": [
					{
						"astId": 99,
						"contract": "contracts/RentalAgreement.sol:RentalAgreement",
						"label": "landlord",
						"offset": 0,
						"slot": "0",
						"type": "t_address"
					},
					{
						"astId": 101,
						"contract": "contracts/RentalAgreement.sol:RentalAgreement",
						"label": "tenant",
						"offset": 0,
						"slot": "1",
						"type": "t_address"
					},
					{
						"astId": 103,
						"contract": "contracts/RentalAgreement.sol:RentalAgreement",
						"label": "rentAmount",
						"offset": 0,
						"slot": "2",
						"type": "t_uint256"
					},
					{
						"astId": 105,
						"contract": "contracts/RentalAgreement.sol:RentalAgreement",
						"label": "depositAmount",
						"offset": 0,
						"slot": "3",
						"type": "t_uint256"
					},
					{
						"astId": 107,
						"contract": "contracts/RentalAgreement.sol:RentalAgreement",
						"label": "contractIPFSHash",
						"offset": 0,
						"slot": "4",
						"type": "t_string_storage"
					},
					{
						"astId": 109,
						"contract": "contracts/RentalAgreement.sol:RentalAgreement",
						"label": "isStabelcoinPayment",
						"offset": 0,
						"slot": "5",
						"type": "t_bool"
					},
					{
						"astId": 111,
						"contract": "contracts/RentalAgreement.sol:RentalAgreement",
						"label": "stabelcoinAddress",
						"offset": 1,
						"slot": "5",
						"type": "t_address"
					},
					{
						"astId": 114,
						"contract": "contracts/RentalAgreement.sol:RentalAgreement",
						"label": "priceFeed",
						"offset": 0,
						"slot": "6",
						"type": "t_contract(AggregatorV3Interface)93"
					},
					{
						"astId": 116,
						"contract": "contracts/RentalAgreement.sol:RentalAgreement",
						"label": "depositBalance",
						"offset": 0,
						"slot": "7",
						"type": "t_uint256"
					},
					{
						"astId": 118,
						"contract": "contracts/RentalAgreement.sol:RentalAgreement",
						"label": "depositStartTime",
						"offset": 0,
						"slot": "8",
						"type": "t_uint256"
					},
					{
						"astId": 120,
						"contract": "contracts/RentalAgreement.sol:RentalAgreement",
						"label": "deductedAmount",
						"offset": 0,
						"slot": "9",
						"type": "t_uint256"
					},
					{
						"astId": 122,
						"contract": "contracts/RentalAgreement.sol:RentalAgreement",
						"label": "paymentDueDate",
						"offset": 0,
						"slot": "10",
						"type": "t_uint256"
					},
					{
						"astId": 124,
						"contract": "contracts/RentalAgreement.sol:RentalAgreement",
						"label": "warningCount",
						"offset": 0,
						"slot": "11",
						"type": "t_uint256"
					},
					{
						"astId": 126,
						"contract": "contracts/RentalAgreement.sol:RentalAgreement",
						"label": "amountOwed",
						"offset": 0,
						"slot": "12",
						"type": "t_uint256"
					},
					{
						"astId": 128,
						"contract": "contracts/RentalAgreement.sol:RentalAgreement",
						"label": "pendingSevereBreachWarning",
						"offset": 0,
						"slot": "13",
						"type": "t_bool"
					},
					{
						"astId": 130,
						"contract": "contracts/RentalAgreement.sol:RentalAgreement",
						"label": "terminationTimeStamp",
						"offset": 0,
						"slot": "14",
						"type": "t_uint256"
					},
					{
						"astId": 132,
						"contract": "contracts/RentalAgreement.sol:RentalAgreement",
						"label": "contractEndDate",
						"offset": 0,
						"slot": "15",
						"type": "t_uint256"
					},
					{
						"astId": 134,
						"contract": "contracts/RentalAgreement.sol:RentalAgreement",
						"label": "leaseStartTimestamp",
						"offset": 0,
						"slot": "16",
						"type": "t_uint256"
					},
					{
						"astId": 136,
						"contract": "contracts/RentalAgreement.sol:RentalAgreement",
						"label": "renewalRequest",
						"offset": 0,
						"slot": "17",
						"type": "t_bool"
					},
					{
						"astId": 138,
						"contract": "contracts/RentalAgreement.sol:RentalAgreement",
						"label": "renewalApproved",
						"offset": 1,
						"slot": "17",
						"type": "t_bool"
					},
					{
						"astId": 142,
						"contract": "contracts/RentalAgreement.sol:RentalAgreement",
						"label": "autoPaymentApproved",
						"offset": 0,
						"slot": "18",
						"type": "t_mapping(t_address,t_bool)"
					},
					{
						"astId": 149,
						"contract": "contracts/RentalAgreement.sol:RentalAgreement",
						"label": "rentalStatus",
						"offset": 0,
						"slot": "19",
						"type": "t_enum(RentalStatus)146"
					},
					{
						"astId": 160,
						"contract": "contracts/RentalAgreement.sol:RentalAgreement",
						"label": "paymentHistory",
						"offset": 0,
						"slot": "20",
						"type": "t_array(t_struct(PaymentRecord)156_storage)dyn_storage"
					}
				],
				"types": {
					"t_address": {
						"encoding": "inplace",
						"label": "address",
						"numberOfBytes": "20"
					},
					"t_array(t_struct(PaymentRecord)156_storage)dyn_storage": {
						"base": "t_struct(PaymentRecord)156_storage",
						"encoding": "dynamic_array",
						"label": "struct RentalAgreement.PaymentRecord[]",
						"numberOfBytes": "32"
					},
					"t_bool": {
						"encoding": "inplace",
						"label": "bool",
						"numberOfBytes": "1"
					},
					"t_contract(AggregatorV3Interface)93": {
						"encoding": "inplace",
						"label": "contract AggregatorV3Interface",
						"numberOfBytes": "20"
					},
					"t_enum(RentalStatus)146": {
						"encoding": "inplace",
						"label": "enum RentalAgreement.RentalStatus",
						"numberOfBytes": "1"
					},
					"t_mapping(t_address,t_bool)": {
						"encoding": "mapping",
						"key": "t_address",
						"label": "mapping(address => bool)",
						"numberOfBytes": "32",
						"value": "t_bool"
					},
					"t_string_storage": {
						"encoding": "bytes",
						"label": "string",
						"numberOfBytes": "32"
					},
					"t_struct(PaymentRecord)156_storage": {
						"encoding": "inplace",
						"label": "struct RentalAgreement.PaymentRecord",
						"members": [
							{
								"astId": 151,
								"contract": "contracts/RentalAgreement.sol:RentalAgreement",
								"label": "timestamp",
								"offset": 0,
								"slot": "0",
								"type": "t_uint256"
							},
							{
								"astId": 153,
								"contract": "contracts/RentalAgreement.sol:RentalAgreement",
								"label": "amount",
								"offset": 0,
								"slot": "1",
								"type": "t_uint256"
							},
							{
								"astId": 155,
								"contract": "contracts/RentalAgreement.sol:RentalAgreement",
								"label": "stablecoin",
								"offset": 0,
								"slot": "2",
								"type": "t_bool"
							}
						],
						"numberOfBytes": "96"
					},
					"t_uint256": {
						"encoding": "inplace",
						"label": "uint256",
						"numberOfBytes": "32"
					}
				}
			},
			"userdoc": {
				"kind": "user",
				"methods": {},
				"version": 1
			}
		}
	}
}