{
	"contracts/DateUtils.sol": {
		"DateUtils": {
			"abi": [
				{
					"inputs": [
						{
							"internalType": "uint256",
							"name": "paymentDay",
							"type": "uint256"
						}
					],
					"name": "getNextPaymentTimestamp",
					"outputs": [
						{
							"internalType": "uint256",
							"name": "",
							"type": "uint256"
						}
					],
					"stateMutability": "view",
					"type": "function"
				}
			],
			"devdoc": {
				"kind": "dev",
				"methods": {},
				"version": 1
			},
			"evm": {
				"assembly": "    /* \"contracts/DateUtils.sol\":61:2221  library DateUtils {... */\n  dataSize(sub_0)\n  dataOffset(sub_0)\n  0x0b\n  dup3\n  dup3\n  dup3\n  codecopy\n  dup1\n  mload\n  0x00\n  byte\n  0x73\n  eq\n  tag_1\n  jumpi\n  mstore(0x00, 0x4e487b7100000000000000000000000000000000000000000000000000000000)\n  mstore(0x04, 0x00)\n  revert(0x00, 0x24)\ntag_1:\n  mstore(0x00, address)\n  0x73\n  dup2\n  mstore8\n  dup3\n  dup2\n  return\nstop\n\nsub_0: assembly {\n        /* \"contracts/DateUtils.sol\":61:2221  library DateUtils {... */\n      eq(address, deployTimeAddress())\n      mstore(0x40, 0x80)\n      jumpi(tag_1, lt(calldatasize, 0x04))\n      shr(0xe0, calldataload(0x00))\n      dup1\n      0x5468af10\n      eq\n      tag_2\n      jumpi\n    tag_1:\n      0x00\n      dup1\n      revert\n        /* \"contracts/DateUtils.sol\":1224:2215  function getNextPaymentTimestamp(uint paymentDay) public view returns (uint) {... */\n    tag_2:\n      tag_3\n      0x04\n      dup1\n      calldatasize\n      sub\n      dup2\n      add\n      swap1\n      tag_4\n      swap2\n      swap1\n      tag_5\n      jump\t// in\n    tag_4:\n      tag_6\n      jump\t// in\n    tag_3:\n      mload(0x40)\n      tag_7\n      swap2\n      swap1\n      tag_8\n      jump\t// in\n    tag_7:\n      mload(0x40)\n      dup1\n      swap2\n      sub\n      swap1\n      return\n    tag_6:\n        /* \"contracts/DateUtils.sol\":1295:1299  uint */\n      0x00\n        /* \"contracts/DateUtils.sol\":1312:1333  uint currentTimestamp */\n      dup1\n        /* \"contracts/DateUtils.sol\":1336:1351  block.timestamp */\n      timestamp\n        /* \"contracts/DateUtils.sol\":1312:1351  uint currentTimestamp = block.timestamp */\n      swap1\n      pop\n        /* \"contracts/DateUtils.sol\":1362:1381  uint daysSinceEpoch */\n      0x00\n        /* \"contracts/DateUtils.sol\":1403:1408  86400 */\n      0x015180\n        /* \"contracts/DateUtils.sol\":1384:1400  currentTimestamp */\n      dup3\n        /* \"contracts/DateUtils.sol\":1384:1408  currentTimestamp / 86400 */\n      tag_10\n      swap2\n      swap1\n      tag_11\n      jump\t// in\n    tag_10:\n        /* \"contracts/DateUtils.sol\":1362:1408  uint daysSinceEpoch = currentTimestamp / 86400 */\n      swap1\n      pop\n        /* \"contracts/DateUtils.sol\":1421:1430  uint year */\n      0x00\n        /* \"contracts/DateUtils.sol\":1433:1437  1970 */\n      0x07b2\n        /* \"contracts/DateUtils.sol\":1421:1437  uint year = 1970 */\n      swap1\n      pop\n        /* \"contracts/DateUtils.sol\":1448:1466  uint remainingDays */\n      0x00\n        /* \"contracts/DateUtils.sol\":1469:1483  daysSinceEpoch */\n      dup3\n        /* \"contracts/DateUtils.sol\":1448:1483  uint remainingDays = daysSinceEpoch */\n      swap1\n      pop\n        /* \"contracts/DateUtils.sol\":1494:1645  while (remainingDays >= (isLeapYear(year) ? 366 : 365)) {... */\n    tag_12:\n        /* \"contracts/DateUtils.sol\":1519:1535  isLeapYear(year) */\n      tag_14\n        /* \"contracts/DateUtils.sol\":1530:1534  year */\n      dup3\n        /* \"contracts/DateUtils.sol\":1519:1529  isLeapYear */\n      tag_15\n        /* \"contracts/DateUtils.sol\":1519:1535  isLeapYear(year) */\n      jump\t// in\n    tag_14:\n        /* \"contracts/DateUtils.sol\":1519:1547  isLeapYear(year) ? 366 : 365 */\n      tag_16\n      jumpi\n        /* \"contracts/DateUtils.sol\":1544:1547  365 */\n      0x016d\n        /* \"contracts/DateUtils.sol\":1519:1547  isLeapYear(year) ? 366 : 365 */\n      jump(tag_17)\n    tag_16:\n        /* \"contracts/DateUtils.sol\":1538:1541  366 */\n      0x016e\n        /* \"contracts/DateUtils.sol\":1519:1547  isLeapYear(year) ? 366 : 365 */\n    tag_17:\n        /* \"contracts/DateUtils.sol\":1501:1548  remainingDays >= (isLeapYear(year) ? 366 : 365) */\n      0xffff\n      and\n        /* \"contracts/DateUtils.sol\":1501:1514  remainingDays */\n      dup2\n        /* \"contracts/DateUtils.sol\":1501:1548  remainingDays >= (isLeapYear(year) ? 366 : 365) */\n      lt\n        /* \"contracts/DateUtils.sol\":1494:1645  while (remainingDays >= (isLeapYear(year) ? 366 : 365)) {... */\n      tag_13\n      jumpi\n        /* \"contracts/DateUtils.sol\":1583:1599  isLeapYear(year) */\n      tag_18\n        /* \"contracts/DateUtils.sol\":1594:1598  year */\n      dup3\n        /* \"contracts/DateUtils.sol\":1583:1593  isLeapYear */\n      tag_15\n        /* \"contracts/DateUtils.sol\":1583:1599  isLeapYear(year) */\n      jump\t// in\n    tag_18:\n        /* \"contracts/DateUtils.sol\":1583:1611  isLeapYear(year) ? 366 : 365 */\n      tag_19\n      jumpi\n        /* \"contracts/DateUtils.sol\":1608:1611  365 */\n      0x016d\n        /* \"contracts/DateUtils.sol\":1583:1611  isLeapYear(year) ? 366 : 365 */\n      jump(tag_20)\n    tag_19:\n        /* \"contracts/DateUtils.sol\":1602:1605  366 */\n      0x016e\n        /* \"contracts/DateUtils.sol\":1583:1611  isLeapYear(year) ? 366 : 365 */\n    tag_20:\n        /* \"contracts/DateUtils.sol\":1565:1612  remainingDays -= (isLeapYear(year) ? 366 : 365) */\n      0xffff\n      and\n      dup2\n      tag_21\n      swap2\n      swap1\n      tag_22\n      jump\t// in\n    tag_21:\n      swap1\n      pop\n        /* \"contracts/DateUtils.sol\":1627:1633  year++ */\n      dup2\n      dup1\n      tag_23\n      swap1\n      tag_24\n      jump\t// in\n    tag_23:\n      swap3\n      pop\n      pop\n        /* \"contracts/DateUtils.sol\":1494:1645  while (remainingDays >= (isLeapYear(year) ? 366 : 365)) {... */\n      jump(tag_12)\n    tag_13:\n        /* \"contracts/DateUtils.sol\":1657:1667  uint month */\n      0x00\n        /* \"contracts/DateUtils.sol\":1670:1671  1 */\n      0x01\n        /* \"contracts/DateUtils.sol\":1657:1671  uint month = 1 */\n      swap1\n      pop\n        /* \"contracts/DateUtils.sol\":1682:1828  while (remainingDays >= getDaysInMonth(year, month)) {... */\n    tag_25:\n        /* \"contracts/DateUtils.sol\":1706:1733  getDaysInMonth(year, month) */\n      tag_27\n        /* \"contracts/DateUtils.sol\":1721:1725  year */\n      dup4\n        /* \"contracts/DateUtils.sol\":1727:1732  month */\n      dup3\n        /* \"contracts/DateUtils.sol\":1706:1720  getDaysInMonth */\n      tag_28\n        /* \"contracts/DateUtils.sol\":1706:1733  getDaysInMonth(year, month) */\n      jump\t// in\n    tag_27:\n        /* \"contracts/DateUtils.sol\":1689:1702  remainingDays */\n      dup3\n        /* \"contracts/DateUtils.sol\":1689:1733  remainingDays >= getDaysInMonth(year, month) */\n      lt\n        /* \"contracts/DateUtils.sol\":1682:1828  while (remainingDays >= getDaysInMonth(year, month)) {... */\n      tag_26\n      jumpi\n        /* \"contracts/DateUtils.sol\":1767:1794  getDaysInMonth(year, month) */\n      tag_29\n        /* \"contracts/DateUtils.sol\":1782:1786  year */\n      dup4\n        /* \"contracts/DateUtils.sol\":1788:1793  month */\n      dup3\n        /* \"contracts/DateUtils.sol\":1767:1781  getDaysInMonth */\n      tag_28\n        /* \"contracts/DateUtils.sol\":1767:1794  getDaysInMonth(year, month) */\n      jump\t// in\n    tag_29:\n        /* \"contracts/DateUtils.sol\":1750:1794  remainingDays -= getDaysInMonth(year, month) */\n      dup3\n      tag_30\n      swap2\n      swap1\n      tag_22\n      jump\t// in\n    tag_30:\n      swap2\n      pop\n        /* \"contracts/DateUtils.sol\":1809:1816  month++ */\n      dup1\n      dup1\n      tag_31\n      swap1\n      tag_24\n      jump\t// in\n    tag_31:\n      swap2\n      pop\n      pop\n        /* \"contracts/DateUtils.sol\":1682:1828  while (remainingDays >= getDaysInMonth(year, month)) {... */\n      jump(tag_25)\n    tag_26:\n        /* \"contracts/DateUtils.sol\":1863:1873  paymentDay */\n      dup7\n        /* \"contracts/DateUtils.sol\":1859:1860  1 */\n      0x01\n        /* \"contracts/DateUtils.sol\":1843:1856  remainingDays */\n      dup4\n        /* \"contracts/DateUtils.sol\":1843:1860  remainingDays + 1 */\n      tag_32\n      swap2\n      swap1\n      tag_33\n      jump\t// in\n    tag_32:\n        /* \"contracts/DateUtils.sol\":1843:1873  remainingDays + 1 > paymentDay */\n      gt\n        /* \"contracts/DateUtils.sol\":1840:2008  if(remainingDays + 1 > paymentDay) {... */\n      iszero\n      tag_34\n      jumpi\n        /* \"contracts/DateUtils.sol\":1890:1897  month++ */\n      dup1\n      dup1\n      tag_35\n      swap1\n      tag_24\n      jump\t// in\n    tag_35:\n      swap2\n      pop\n      pop\n        /* \"contracts/DateUtils.sol\":1924:1926  12 */\n      0x0c\n        /* \"contracts/DateUtils.sol\":1916:1921  month */\n      dup2\n        /* \"contracts/DateUtils.sol\":1916:1926  month > 12 */\n      gt\n        /* \"contracts/DateUtils.sol\":1912:1997  if (month > 12) {... */\n      iszero\n      tag_36\n      jumpi\n        /* \"contracts/DateUtils.sol\":1947:1953  year++ */\n      dup3\n      dup1\n      tag_37\n      swap1\n      tag_24\n      jump\t// in\n    tag_37:\n      swap4\n      pop\n      pop\n        /* \"contracts/DateUtils.sol\":1980:1981  1 */\n      0x01\n        /* \"contracts/DateUtils.sol\":1972:1981  month = 1 */\n      swap1\n      pop\n        /* \"contracts/DateUtils.sol\":1912:1997  if (month > 12) {... */\n    tag_36:\n        /* \"contracts/DateUtils.sol\":1840:2008  if(remainingDays + 1 > paymentDay) {... */\n    tag_34:\n        /* \"contracts/DateUtils.sol\":2020:2050  uint timestampStartOfNextMonth */\n      0x00\n        /* \"contracts/DateUtils.sol\":2053:2084  daysToTimestamp(year, month, 1) */\n      tag_38\n        /* \"contracts/DateUtils.sol\":2069:2073  year */\n      dup5\n        /* \"contracts/DateUtils.sol\":2075:2080  month */\n      dup4\n        /* \"contracts/DateUtils.sol\":2082:2083  1 */\n      0x01\n        /* \"contracts/DateUtils.sol\":2053:2068  daysToTimestamp */\n      tag_39\n        /* \"contracts/DateUtils.sol\":2053:2084  daysToTimestamp(year, month, 1) */\n      jump\t// in\n    tag_38:\n        /* \"contracts/DateUtils.sol\":2020:2084  uint timestampStartOfNextMonth = daysToTimestamp(year, month, 1) */\n      swap1\n      pop\n        /* \"contracts/DateUtils.sol\":2095:2116  uint paymentTimestamp */\n      0x00\n        /* \"contracts/DateUtils.sol\":2166:2171  86400 */\n      0x015180\n        /* \"contracts/DateUtils.sol\":2161:2162  1 */\n      0x01\n        /* \"contracts/DateUtils.sol\":2148:2158  paymentDay */\n      dup11\n        /* \"contracts/DateUtils.sol\":2148:2162  paymentDay - 1 */\n      tag_40\n      swap2\n      swap1\n      tag_22\n      jump\t// in\n    tag_40:\n        /* \"contracts/DateUtils.sol\":2147:2171  (paymentDay - 1) * 86400 */\n      tag_41\n      swap2\n      swap1\n      tag_42\n      jump\t// in\n    tag_41:\n        /* \"contracts/DateUtils.sol\":2119:2144  timestampStartOfNextMonth */\n      dup3\n        /* \"contracts/DateUtils.sol\":2119:2171  timestampStartOfNextMonth + (paymentDay - 1) * 86400 */\n      tag_43\n      swap2\n      swap1\n      tag_33\n      jump\t// in\n    tag_43:\n        /* \"contracts/DateUtils.sol\":2095:2171  uint paymentTimestamp = timestampStartOfNextMonth + (paymentDay - 1) * 86400 */\n      swap1\n      pop\n        /* \"contracts/DateUtils.sol\":2191:2207  paymentTimestamp */\n      dup1\n        /* \"contracts/DateUtils.sol\":2184:2207  return paymentTimestamp */\n      swap8\n      pop\n      pop\n      pop\n      pop\n      pop\n      pop\n      pop\n      pop\n        /* \"contracts/DateUtils.sol\":1224:2215  function getNextPaymentTimestamp(uint paymentDay) public view returns (uint) {... */\n      swap2\n      swap1\n      pop\n      jump\t// out\n        /* \"contracts/DateUtils.sol\":658:798  function isLeapYear(uint year) internal pure returns(bool) {... */\n    tag_15:\n        /* \"contracts/DateUtils.sol\":711:715  bool */\n      0x00\n        /* \"contracts/DateUtils.sol\":748:749  0 */\n      dup1\n        /* \"contracts/DateUtils.sol\":743:744  4 */\n      0x04\n        /* \"contracts/DateUtils.sol\":736:740  year */\n      dup4\n        /* \"contracts/DateUtils.sol\":736:744  year % 4 */\n      tag_45\n      swap2\n      swap1\n      tag_46\n      jump\t// in\n    tag_45:\n        /* \"contracts/DateUtils.sol\":736:749  year % 4 == 0 */\n      eq\n        /* \"contracts/DateUtils.sol\":736:768  year % 4 == 0 && year % 100 != 0 */\n      dup1\n      iszero\n      tag_47\n      jumpi\n      pop\n        /* \"contracts/DateUtils.sol\":767:768  0 */\n      0x00\n        /* \"contracts/DateUtils.sol\":760:763  100 */\n      0x64\n        /* \"contracts/DateUtils.sol\":753:757  year */\n      dup4\n        /* \"contracts/DateUtils.sol\":753:763  year % 100 */\n      tag_48\n      swap2\n      swap1\n      tag_46\n      jump\t// in\n    tag_48:\n        /* \"contracts/DateUtils.sol\":753:768  year % 100 != 0 */\n      eq\n      iszero\n        /* \"contracts/DateUtils.sol\":736:768  year % 4 == 0 && year % 100 != 0 */\n    tag_47:\n        /* \"contracts/DateUtils.sol\":735:790  (year % 4 == 0 && year % 100 != 0) || (year % 400 == 0) */\n      dup1\n      tag_49\n      jumpi\n      pop\n        /* \"contracts/DateUtils.sol\":788:789  0 */\n      0x00\n        /* \"contracts/DateUtils.sol\":781:784  400 */\n      0x0190\n        /* \"contracts/DateUtils.sol\":774:778  year */\n      dup4\n        /* \"contracts/DateUtils.sol\":774:784  year % 400 */\n      tag_50\n      swap2\n      swap1\n      tag_46\n      jump\t// in\n    tag_50:\n        /* \"contracts/DateUtils.sol\":774:789  year % 400 == 0 */\n      eq\n        /* \"contracts/DateUtils.sol\":735:790  (year % 4 == 0 && year % 100 != 0) || (year % 400 == 0) */\n    tag_49:\n        /* \"contracts/DateUtils.sol\":728:790  return (year % 4 == 0 && year % 100 != 0) || (year % 400 == 0) */\n      swap1\n      pop\n        /* \"contracts/DateUtils.sol\":658:798  function isLeapYear(uint year) internal pure returns(bool) {... */\n      swap2\n      swap1\n      pop\n      jump\t// out\n        /* \"contracts/DateUtils.sol\":86:650  function getDaysInMonth(uint year, uint month) internal pure returns (uint) {... */\n    tag_28:\n        /* \"contracts/DateUtils.sol\":156:160  uint */\n      0x00\n        /* \"contracts/DateUtils.sol\":187:188  1 */\n      0x01\n        /* \"contracts/DateUtils.sol\":178:183  month */\n      dup3\n        /* \"contracts/DateUtils.sol\":178:188  month == 1 */\n      eq\n        /* \"contracts/DateUtils.sol\":178:202  month == 1 || month == 3 */\n      dup1\n      tag_52\n      jumpi\n      pop\n        /* \"contracts/DateUtils.sol\":201:202  3 */\n      0x03\n        /* \"contracts/DateUtils.sol\":192:197  month */\n      dup3\n        /* \"contracts/DateUtils.sol\":192:202  month == 3 */\n      eq\n        /* \"contracts/DateUtils.sol\":178:202  month == 1 || month == 3 */\n    tag_52:\n        /* \"contracts/DateUtils.sol\":178:216  month == 1 || month == 3 || month == 5 */\n      dup1\n      tag_53\n      jumpi\n      pop\n        /* \"contracts/DateUtils.sol\":215:216  5 */\n      0x05\n        /* \"contracts/DateUtils.sol\":206:211  month */\n      dup3\n        /* \"contracts/DateUtils.sol\":206:216  month == 5 */\n      eq\n        /* \"contracts/DateUtils.sol\":178:216  month == 1 || month == 3 || month == 5 */\n    tag_53:\n        /* \"contracts/DateUtils.sol\":178:230  month == 1 || month == 3 || month == 5 || month == 7 */\n      dup1\n      tag_54\n      jumpi\n      pop\n        /* \"contracts/DateUtils.sol\":229:230  7 */\n      0x07\n        /* \"contracts/DateUtils.sol\":220:225  month */\n      dup3\n        /* \"contracts/DateUtils.sol\":220:230  month == 7 */\n      eq\n        /* \"contracts/DateUtils.sol\":178:230  month == 1 || month == 3 || month == 5 || month == 7 */\n    tag_54:\n        /* \"contracts/DateUtils.sol\":178:244  month == 1 || month == 3 || month == 5 || month == 7 || month == 8 */\n      dup1\n      tag_55\n      jumpi\n      pop\n        /* \"contracts/DateUtils.sol\":243:244  8 */\n      0x08\n        /* \"contracts/DateUtils.sol\":234:239  month */\n      dup3\n        /* \"contracts/DateUtils.sol\":234:244  month == 8 */\n      eq\n        /* \"contracts/DateUtils.sol\":178:244  month == 1 || month == 3 || month == 5 || month == 7 || month == 8 */\n    tag_55:\n        /* \"contracts/DateUtils.sol\":178:259  month == 1 || month == 3 || month == 5 || month == 7 || month == 8 || month == 10 */\n      dup1\n      tag_56\n      jumpi\n      pop\n        /* \"contracts/DateUtils.sol\":257:259  10 */\n      0x0a\n        /* \"contracts/DateUtils.sol\":248:253  month */\n      dup3\n        /* \"contracts/DateUtils.sol\":248:259  month == 10 */\n      eq\n        /* \"contracts/DateUtils.sol\":178:259  month == 1 || month == 3 || month == 5 || month == 7 || month == 8 || month == 10 */\n    tag_56:\n        /* \"contracts/DateUtils.sol\":178:274  month == 1 || month == 3 || month == 5 || month == 7 || month == 8 || month == 10 || month == 12 */\n      dup1\n      tag_57\n      jumpi\n      pop\n        /* \"contracts/DateUtils.sol\":272:274  12 */\n      0x0c\n        /* \"contracts/DateUtils.sol\":263:268  month */\n      dup3\n        /* \"contracts/DateUtils.sol\":263:274  month == 12 */\n      eq\n        /* \"contracts/DateUtils.sol\":178:274  month == 1 || month == 3 || month == 5 || month == 7 || month == 8 || month == 10 || month == 12 */\n    tag_57:\n        /* \"contracts/DateUtils.sol\":173:615  if ((month == 1 || month == 3 || month == 5 || month == 7 || month == 8 || month == 10 || month == 12)){... */\n      iszero\n      tag_58\n      jumpi\n        /* \"contracts/DateUtils.sol\":298:300  31 */\n      0x1f\n        /* \"contracts/DateUtils.sol\":291:300  return 31 */\n      swap1\n      pop\n      jump(tag_51)\n        /* \"contracts/DateUtils.sol\":173:615  if ((month == 1 || month == 3 || month == 5 || month == 7 || month == 8 || month == 10 || month == 12)){... */\n    tag_58:\n        /* \"contracts/DateUtils.sol\":331:332  4 */\n      0x04\n        /* \"contracts/DateUtils.sol\":322:327  month */\n      dup3\n        /* \"contracts/DateUtils.sol\":322:332  month == 4 */\n      eq\n        /* \"contracts/DateUtils.sol\":322:345  month == 4 || month ==6 */\n      dup1\n      tag_60\n      jumpi\n      pop\n        /* \"contracts/DateUtils.sol\":344:345  6 */\n      0x06\n        /* \"contracts/DateUtils.sol\":336:341  month */\n      dup3\n        /* \"contracts/DateUtils.sol\":336:345  month ==6 */\n      eq\n        /* \"contracts/DateUtils.sol\":322:345  month == 4 || month ==6 */\n    tag_60:\n        /* \"contracts/DateUtils.sol\":322:359  month == 4 || month ==6 || month == 9 */\n      dup1\n      tag_61\n      jumpi\n      pop\n        /* \"contracts/DateUtils.sol\":358:359  9 */\n      0x09\n        /* \"contracts/DateUtils.sol\":349:354  month */\n      dup3\n        /* \"contracts/DateUtils.sol\":349:359  month == 9 */\n      eq\n        /* \"contracts/DateUtils.sol\":322:359  month == 4 || month ==6 || month == 9 */\n    tag_61:\n        /* \"contracts/DateUtils.sol\":322:374  month == 4 || month ==6 || month == 9 || month == 11 */\n      dup1\n      tag_62\n      jumpi\n      pop\n        /* \"contracts/DateUtils.sol\":372:374  11 */\n      0x0b\n        /* \"contracts/DateUtils.sol\":363:368  month */\n      dup3\n        /* \"contracts/DateUtils.sol\":363:374  month == 11 */\n      eq\n        /* \"contracts/DateUtils.sol\":322:374  month == 4 || month ==6 || month == 9 || month == 11 */\n    tag_62:\n        /* \"contracts/DateUtils.sol\":318:615  if (month == 4 || month ==6 || month == 9 || month == 11) {... */\n      iszero\n      tag_63\n      jumpi\n        /* \"contracts/DateUtils.sol\":398:400  30 */\n      0x1e\n        /* \"contracts/DateUtils.sol\":391:400  return 30 */\n      swap1\n      pop\n      jump(tag_51)\n        /* \"contracts/DateUtils.sol\":318:615  if (month == 4 || month ==6 || month == 9 || month == 11) {... */\n    tag_63:\n        /* \"contracts/DateUtils.sol\":431:432  2 */\n      0x02\n        /* \"contracts/DateUtils.sol\":422:427  month */\n      dup3\n        /* \"contracts/DateUtils.sol\":422:432  month == 2 */\n      sub\n        /* \"contracts/DateUtils.sol\":418:615  if (month == 2) {... */\n      tag_65\n      jumpi\n        /* \"contracts/DateUtils.sol\":466:467  0 */\n      0x00\n        /* \"contracts/DateUtils.sol\":461:462  4 */\n      0x04\n        /* \"contracts/DateUtils.sol\":454:458  year */\n      dup5\n        /* \"contracts/DateUtils.sol\":454:462  year % 4 */\n      tag_66\n      swap2\n      swap1\n      tag_46\n      jump\t// in\n    tag_66:\n        /* \"contracts/DateUtils.sol\":454:467  year % 4 == 0 */\n      eq\n        /* \"contracts/DateUtils.sol\":454:486  year % 4 == 0 || year % 100 != 0 */\n      dup1\n      tag_67\n      jumpi\n      pop\n        /* \"contracts/DateUtils.sol\":485:486  0 */\n      0x00\n        /* \"contracts/DateUtils.sol\":478:481  100 */\n      0x64\n        /* \"contracts/DateUtils.sol\":471:475  year */\n      dup5\n        /* \"contracts/DateUtils.sol\":471:481  year % 100 */\n      tag_68\n      swap2\n      swap1\n      tag_46\n      jump\t// in\n    tag_68:\n        /* \"contracts/DateUtils.sol\":471:486  year % 100 != 0 */\n      eq\n      iszero\n        /* \"contracts/DateUtils.sol\":454:486  year % 4 == 0 || year % 100 != 0 */\n    tag_67:\n        /* \"contracts/DateUtils.sol\":453:508  (year % 4 == 0 || year % 100 != 0) || (year % 400 == 0) */\n      dup1\n      tag_69\n      jumpi\n      pop\n        /* \"contracts/DateUtils.sol\":506:507  0 */\n      0x00\n        /* \"contracts/DateUtils.sol\":499:502  400 */\n      0x0190\n        /* \"contracts/DateUtils.sol\":492:496  year */\n      dup5\n        /* \"contracts/DateUtils.sol\":492:502  year % 400 */\n      tag_70\n      swap2\n      swap1\n      tag_46\n      jump\t// in\n    tag_70:\n        /* \"contracts/DateUtils.sol\":492:507  year % 400 == 0 */\n      eq\n        /* \"contracts/DateUtils.sol\":453:508  (year % 4 == 0 || year % 100 != 0) || (year % 400 == 0) */\n    tag_69:\n        /* \"contracts/DateUtils.sol\":449:604  if ((year % 4 == 0 || year % 100 != 0) || (year % 400 == 0)) {... */\n      iszero\n      tag_71\n      jumpi\n        /* \"contracts/DateUtils.sol\":536:538  29 */\n      0x1d\n        /* \"contracts/DateUtils.sol\":529:538  return 29 */\n      swap1\n      pop\n      jump(tag_51)\n        /* \"contracts/DateUtils.sol\":449:604  if ((year % 4 == 0 || year % 100 != 0) || (year % 400 == 0)) {... */\n    tag_71:\n        /* \"contracts/DateUtils.sol\":586:588  28 */\n      0x1c\n        /* \"contracts/DateUtils.sol\":579:588  return 28 */\n      swap1\n      pop\n      jump(tag_51)\n        /* \"contracts/DateUtils.sol\":418:615  if (month == 2) {... */\n    tag_65:\n        /* \"contracts/DateUtils.sol\":633:634  0 */\n      0x00\n        /* \"contracts/DateUtils.sol\":626:634  return 0 */\n      swap1\n      pop\n        /* \"contracts/DateUtils.sol\":86:650  function getDaysInMonth(uint year, uint month) internal pure returns (uint) {... */\n    tag_51:\n      swap3\n      swap2\n      pop\n      pop\n      jump\t// out\n        /* \"contracts/DateUtils.sol\":806:1216  function daysToTimestamp(uint year, uint month, uint day) internal pure returns (uint) {... */\n    tag_39:\n        /* \"contracts/DateUtils.sol\":887:891  uint */\n      0x00\n        /* \"contracts/DateUtils.sol\":904:918  uint timestamp */\n      dup1\n        /* \"contracts/DateUtils.sol\":921:922  0 */\n      0x00\n        /* \"contracts/DateUtils.sol\":904:922  uint timestamp = 0 */\n      swap1\n      pop\n        /* \"contracts/DateUtils.sol\":938:944  uint i */\n      0x00\n        /* \"contracts/DateUtils.sol\":947:951  1970 */\n      0x07b2\n        /* \"contracts/DateUtils.sol\":938:951  uint i = 1970 */\n      swap1\n      pop\n        /* \"contracts/DateUtils.sol\":933:1033  for (uint i = 1970; i < year; i++) {... */\n    tag_74:\n        /* \"contracts/DateUtils.sol\":957:961  year */\n      dup6\n        /* \"contracts/DateUtils.sol\":953:954  i */\n      dup2\n        /* \"contracts/DateUtils.sol\":953:961  i < year */\n      lt\n        /* \"contracts/DateUtils.sol\":933:1033  for (uint i = 1970; i < year; i++) {... */\n      iszero\n      tag_75\n      jumpi\n        /* \"contracts/DateUtils.sol\":996:1009  isLeapYear(i) */\n      tag_77\n        /* \"contracts/DateUtils.sol\":1007:1008  i */\n      dup2\n        /* \"contracts/DateUtils.sol\":996:1006  isLeapYear */\n      tag_15\n        /* \"contracts/DateUtils.sol\":996:1009  isLeapYear(i) */\n      jump\t// in\n    tag_77:\n        /* \"contracts/DateUtils.sol\":996:1021  isLeapYear(i) ? 366 : 365 */\n      tag_78\n      jumpi\n        /* \"contracts/DateUtils.sol\":1018:1021  365 */\n      0x016d\n        /* \"contracts/DateUtils.sol\":996:1021  isLeapYear(i) ? 366 : 365 */\n      jump(tag_79)\n    tag_78:\n        /* \"contracts/DateUtils.sol\":1012:1015  366 */\n      0x016e\n        /* \"contracts/DateUtils.sol\":996:1021  isLeapYear(i) ? 366 : 365 */\n    tag_79:\n        /* \"contracts/DateUtils.sol\":983:1021  timestamp += isLeapYear(i) ? 366 : 365 */\n      0xffff\n      and\n      dup3\n      tag_80\n      swap2\n      swap1\n      tag_33\n      jump\t// in\n    tag_80:\n      swap2\n      pop\n        /* \"contracts/DateUtils.sol\":963:966  i++ */\n      dup1\n      dup1\n      0x01\n      add\n      swap2\n      pop\n      pop\n        /* \"contracts/DateUtils.sol\":933:1033  for (uint i = 1970; i < year; i++) {... */\n      jump(tag_74)\n    tag_75:\n      pop\n        /* \"contracts/DateUtils.sol\":1048:1054  uint i */\n      0x00\n        /* \"contracts/DateUtils.sol\":1057:1058  1 */\n      0x01\n        /* \"contracts/DateUtils.sol\":1048:1058  uint i = 1 */\n      swap1\n      pop\n        /* \"contracts/DateUtils.sol\":1043:1139  for (uint i = 1; i < month; i++) {... */\n    tag_81:\n        /* \"contracts/DateUtils.sol\":1064:1069  month */\n      dup5\n        /* \"contracts/DateUtils.sol\":1060:1061  i */\n      dup2\n        /* \"contracts/DateUtils.sol\":1060:1069  i < month */\n      lt\n        /* \"contracts/DateUtils.sol\":1043:1139  for (uint i = 1; i < month; i++) {... */\n      iszero\n      tag_82\n      jumpi\n        /* \"contracts/DateUtils.sol\":1104:1127  getDaysInMonth(year, i) */\n      tag_84\n        /* \"contracts/DateUtils.sol\":1119:1123  year */\n      dup7\n        /* \"contracts/DateUtils.sol\":1125:1126  i */\n      dup3\n        /* \"contracts/DateUtils.sol\":1104:1118  getDaysInMonth */\n      tag_28\n        /* \"contracts/DateUtils.sol\":1104:1127  getDaysInMonth(year, i) */\n      jump\t// in\n    tag_84:\n        /* \"contracts/DateUtils.sol\":1091:1127  timestamp += getDaysInMonth(year, i) */\n      dup3\n      tag_85\n      swap2\n      swap1\n      tag_33\n      jump\t// in\n    tag_85:\n      swap2\n      pop\n        /* \"contracts/DateUtils.sol\":1071:1074  i++ */\n      dup1\n      dup1\n      0x01\n      add\n      swap2\n      pop\n      pop\n        /* \"contracts/DateUtils.sol\":1043:1139  for (uint i = 1; i < month; i++) {... */\n      jump(tag_81)\n    tag_82:\n      pop\n        /* \"contracts/DateUtils.sol\":1169:1170  1 */\n      0x01\n        /* \"contracts/DateUtils.sol\":1163:1166  day */\n      dup4\n        /* \"contracts/DateUtils.sol\":1163:1170  day - 1 */\n      tag_86\n      swap2\n      swap1\n      tag_22\n      jump\t// in\n    tag_86:\n        /* \"contracts/DateUtils.sol\":1149:1171  timestamp += (day - 1) */\n      dup2\n      tag_87\n      swap2\n      swap1\n      tag_33\n      jump\t// in\n    tag_87:\n      swap1\n      pop\n        /* \"contracts/DateUtils.sol\":1203:1208  86400 */\n      0x015180\n        /* \"contracts/DateUtils.sol\":1191:1200  timestamp */\n      dup2\n        /* \"contracts/DateUtils.sol\":1191:1208  timestamp * 86400 */\n      tag_88\n      swap2\n      swap1\n      tag_42\n      jump\t// in\n    tag_88:\n        /* \"contracts/DateUtils.sol\":1184:1208  return timestamp * 86400 */\n      swap2\n      pop\n      pop\n        /* \"contracts/DateUtils.sol\":806:1216  function daysToTimestamp(uint year, uint month, uint day) internal pure returns (uint) {... */\n      swap4\n      swap3\n      pop\n      pop\n      pop\n      jump\t// out\n        /* \"#utility.yul\":88:205   */\n    tag_90:\n        /* \"#utility.yul\":197:198   */\n      0x00\n        /* \"#utility.yul\":194:195   */\n      dup1\n        /* \"#utility.yul\":187:199   */\n      revert\n        /* \"#utility.yul\":334:411   */\n    tag_92:\n        /* \"#utility.yul\":371:378   */\n      0x00\n        /* \"#utility.yul\":400:405   */\n      dup2\n        /* \"#utility.yul\":389:405   */\n      swap1\n      pop\n        /* \"#utility.yul\":334:411   */\n      swap2\n      swap1\n      pop\n      jump\t// out\n        /* \"#utility.yul\":417:539   */\n    tag_93:\n        /* \"#utility.yul\":490:514   */\n      tag_104\n        /* \"#utility.yul\":508:513   */\n      dup2\n        /* \"#utility.yul\":490:514   */\n      tag_92\n      jump\t// in\n    tag_104:\n        /* \"#utility.yul\":483:488   */\n      dup2\n        /* \"#utility.yul\":480:515   */\n      eq\n        /* \"#utility.yul\":470:533   */\n      tag_105\n      jumpi\n        /* \"#utility.yul\":529:530   */\n      0x00\n        /* \"#utility.yul\":526:527   */\n      dup1\n        /* \"#utility.yul\":519:531   */\n      revert\n        /* \"#utility.yul\":470:533   */\n    tag_105:\n        /* \"#utility.yul\":417:539   */\n      pop\n      jump\t// out\n        /* \"#utility.yul\":545:684   */\n    tag_94:\n        /* \"#utility.yul\":591:596   */\n      0x00\n        /* \"#utility.yul\":629:635   */\n      dup2\n        /* \"#utility.yul\":616:636   */\n      calldataload\n        /* \"#utility.yul\":607:636   */\n      swap1\n      pop\n        /* \"#utility.yul\":645:678   */\n      tag_107\n        /* \"#utility.yul\":672:677   */\n      dup2\n        /* \"#utility.yul\":645:678   */\n      tag_93\n      jump\t// in\n    tag_107:\n        /* \"#utility.yul\":545:684   */\n      swap3\n      swap2\n      pop\n      pop\n      jump\t// out\n        /* \"#utility.yul\":690:1019   */\n    tag_5:\n        /* \"#utility.yul\":749:755   */\n      0x00\n        /* \"#utility.yul\":798:800   */\n      0x20\n        /* \"#utility.yul\":786:795   */\n      dup3\n        /* \"#utility.yul\":777:784   */\n      dup5\n        /* \"#utility.yul\":773:796   */\n      sub\n        /* \"#utility.yul\":769:801   */\n      slt\n        /* \"#utility.yul\":766:885   */\n      iszero\n      tag_109\n      jumpi\n        /* \"#utility.yul\":804:883   */\n      tag_110\n      tag_90\n      jump\t// in\n    tag_110:\n        /* \"#utility.yul\":766:885   */\n    tag_109:\n        /* \"#utility.yul\":924:925   */\n      0x00\n        /* \"#utility.yul\":949:1002   */\n      tag_111\n        /* \"#utility.yul\":994:1001   */\n      dup5\n        /* \"#utility.yul\":985:991   */\n      dup3\n        /* \"#utility.yul\":974:983   */\n      dup6\n        /* \"#utility.yul\":970:992   */\n      add\n        /* \"#utility.yul\":949:1002   */\n      tag_94\n      jump\t// in\n    tag_111:\n        /* \"#utility.yul\":939:1002   */\n      swap2\n      pop\n        /* \"#utility.yul\":895:1012   */\n      pop\n        /* \"#utility.yul\":690:1019   */\n      swap3\n      swap2\n      pop\n      pop\n      jump\t// out\n        /* \"#utility.yul\":1025:1151   */\n    tag_95:\n        /* \"#utility.yul\":1120:1144   */\n      tag_113\n        /* \"#utility.yul\":1138:1143   */\n      dup2\n        /* \"#utility.yul\":1120:1144   */\n      tag_92\n      jump\t// in\n    tag_113:\n        /* \"#utility.yul\":1115:1118   */\n      dup3\n        /* \"#utility.yul\":1108:1145   */\n      mstore\n        /* \"#utility.yul\":1025:1151   */\n      pop\n      pop\n      jump\t// out\n        /* \"#utility.yul\":1157:1395   */\n    tag_8:\n        /* \"#utility.yul\":1258:1262   */\n      0x00\n        /* \"#utility.yul\":1296:1298   */\n      0x20\n        /* \"#utility.yul\":1285:1294   */\n      dup3\n        /* \"#utility.yul\":1281:1299   */\n      add\n        /* \"#utility.yul\":1273:1299   */\n      swap1\n      pop\n        /* \"#utility.yul\":1309:1388   */\n      tag_115\n        /* \"#utility.yul\":1385:1386   */\n      0x00\n        /* \"#utility.yul\":1374:1383   */\n      dup4\n        /* \"#utility.yul\":1370:1387   */\n      add\n        /* \"#utility.yul\":1361:1367   */\n      dup5\n        /* \"#utility.yul\":1309:1388   */\n      tag_95\n      jump\t// in\n    tag_115:\n        /* \"#utility.yul\":1157:1395   */\n      swap3\n      swap2\n      pop\n      pop\n      jump\t// out\n        /* \"#utility.yul\":1401:1581   */\n    tag_96:\n        /* \"#utility.yul\":1449:1526   */\n      0x4e487b7100000000000000000000000000000000000000000000000000000000\n        /* \"#utility.yul\":1446:1447   */\n      0x00\n        /* \"#utility.yul\":1439:1527   */\n      mstore\n        /* \"#utility.yul\":1546:1550   */\n      0x12\n        /* \"#utility.yul\":1543:1544   */\n      0x04\n        /* \"#utility.yul\":1536:1551   */\n      mstore\n        /* \"#utility.yul\":1570:1574   */\n      0x24\n        /* \"#utility.yul\":1567:1568   */\n      0x00\n        /* \"#utility.yul\":1560:1575   */\n      revert\n        /* \"#utility.yul\":1587:1767   */\n    tag_97:\n        /* \"#utility.yul\":1635:1712   */\n      0x4e487b7100000000000000000000000000000000000000000000000000000000\n        /* \"#utility.yul\":1632:1633   */\n      0x00\n        /* \"#utility.yul\":1625:1713   */\n      mstore\n        /* \"#utility.yul\":1732:1736   */\n      0x11\n        /* \"#utility.yul\":1729:1730   */\n      0x04\n        /* \"#utility.yul\":1722:1737   */\n      mstore\n        /* \"#utility.yul\":1756:1760   */\n      0x24\n        /* \"#utility.yul\":1753:1754   */\n      0x00\n        /* \"#utility.yul\":1746:1761   */\n      revert\n        /* \"#utility.yul\":1773:1958   */\n    tag_11:\n        /* \"#utility.yul\":1813:1814   */\n      0x00\n        /* \"#utility.yul\":1830:1850   */\n      tag_119\n        /* \"#utility.yul\":1848:1849   */\n      dup3\n        /* \"#utility.yul\":1830:1850   */\n      tag_92\n      jump\t// in\n    tag_119:\n        /* \"#utility.yul\":1825:1850   */\n      swap2\n      pop\n        /* \"#utility.yul\":1864:1884   */\n      tag_120\n        /* \"#utility.yul\":1882:1883   */\n      dup4\n        /* \"#utility.yul\":1864:1884   */\n      tag_92\n      jump\t// in\n    tag_120:\n        /* \"#utility.yul\":1859:1884   */\n      swap3\n      pop\n        /* \"#utility.yul\":1903:1904   */\n      dup3\n        /* \"#utility.yul\":1893:1928   */\n      tag_121\n      jumpi\n        /* \"#utility.yul\":1908:1926   */\n      tag_122\n      tag_96\n      jump\t// in\n    tag_122:\n        /* \"#utility.yul\":1893:1928   */\n    tag_121:\n        /* \"#utility.yul\":1950:1951   */\n      dup3\n        /* \"#utility.yul\":1947:1948   */\n      dup3\n        /* \"#utility.yul\":1943:1952   */\n      div\n        /* \"#utility.yul\":1938:1952   */\n      swap1\n      pop\n        /* \"#utility.yul\":1773:1958   */\n      swap3\n      swap2\n      pop\n      pop\n      jump\t// out\n        /* \"#utility.yul\":1964:2158   */\n    tag_22:\n        /* \"#utility.yul\":2004:2008   */\n      0x00\n        /* \"#utility.yul\":2024:2044   */\n      tag_124\n        /* \"#utility.yul\":2042:2043   */\n      dup3\n        /* \"#utility.yul\":2024:2044   */\n      tag_92\n      jump\t// in\n    tag_124:\n        /* \"#utility.yul\":2019:2044   */\n      swap2\n      pop\n        /* \"#utility.yul\":2058:2078   */\n      tag_125\n        /* \"#utility.yul\":2076:2077   */\n      dup4\n        /* \"#utility.yul\":2058:2078   */\n      tag_92\n      jump\t// in\n    tag_125:\n        /* \"#utility.yul\":2053:2078   */\n      swap3\n      pop\n        /* \"#utility.yul\":2102:2103   */\n      dup3\n        /* \"#utility.yul\":2099:2100   */\n      dup3\n        /* \"#utility.yul\":2095:2104   */\n      sub\n        /* \"#utility.yul\":2087:2104   */\n      swap1\n      pop\n        /* \"#utility.yul\":2126:2127   */\n      dup2\n        /* \"#utility.yul\":2120:2124   */\n      dup2\n        /* \"#utility.yul\":2117:2128   */\n      gt\n        /* \"#utility.yul\":2114:2151   */\n      iszero\n      tag_126\n      jumpi\n        /* \"#utility.yul\":2131:2149   */\n      tag_127\n      tag_97\n      jump\t// in\n    tag_127:\n        /* \"#utility.yul\":2114:2151   */\n    tag_126:\n        /* \"#utility.yul\":1964:2158   */\n      swap3\n      swap2\n      pop\n      pop\n      jump\t// out\n        /* \"#utility.yul\":2164:2397   */\n    tag_24:\n        /* \"#utility.yul\":2203:2206   */\n      0x00\n        /* \"#utility.yul\":2226:2250   */\n      tag_129\n        /* \"#utility.yul\":2244:2249   */\n      dup3\n        /* \"#utility.yul\":2226:2250   */\n      tag_92\n      jump\t// in\n    tag_129:\n        /* \"#utility.yul\":2217:2250   */\n      swap2\n      pop\n        /* \"#utility.yul\":2272:2338   */\n      0xffffffffffffffffffffffffffffffffffffffffffffffffffffffffffffffff\n        /* \"#utility.yul\":2265:2270   */\n      dup3\n        /* \"#utility.yul\":2262:2339   */\n      sub\n        /* \"#utility.yul\":2259:2362   */\n      tag_130\n      jumpi\n        /* \"#utility.yul\":2342:2360   */\n      tag_131\n      tag_97\n      jump\t// in\n    tag_131:\n        /* \"#utility.yul\":2259:2362   */\n    tag_130:\n        /* \"#utility.yul\":2389:2390   */\n      0x01\n        /* \"#utility.yul\":2382:2387   */\n      dup3\n        /* \"#utility.yul\":2378:2391   */\n      add\n        /* \"#utility.yul\":2371:2391   */\n      swap1\n      pop\n        /* \"#utility.yul\":2164:2397   */\n      swap2\n      swap1\n      pop\n      jump\t// out\n        /* \"#utility.yul\":2403:2594   */\n    tag_33:\n        /* \"#utility.yul\":2443:2446   */\n      0x00\n        /* \"#utility.yul\":2462:2482   */\n      tag_133\n        /* \"#utility.yul\":2480:2481   */\n      dup3\n        /* \"#utility.yul\":2462:2482   */\n      tag_92\n      jump\t// in\n    tag_133:\n        /* \"#utility.yul\":2457:2482   */\n      swap2\n      pop\n        /* \"#utility.yul\":2496:2516   */\n      tag_134\n        /* \"#utility.yul\":2514:2515   */\n      dup4\n        /* \"#utility.yul\":2496:2516   */\n      tag_92\n      jump\t// in\n    tag_134:\n        /* \"#utility.yul\":2491:2516   */\n      swap3\n      pop\n        /* \"#utility.yul\":2539:2540   */\n      dup3\n        /* \"#utility.yul\":2536:2537   */\n      dup3\n        /* \"#utility.yul\":2532:2541   */\n      add\n        /* \"#utility.yul\":2525:2541   */\n      swap1\n      pop\n        /* \"#utility.yul\":2560:2563   */\n      dup1\n        /* \"#utility.yul\":2557:2558   */\n      dup3\n        /* \"#utility.yul\":2554:2564   */\n      gt\n        /* \"#utility.yul\":2551:2587   */\n      iszero\n      tag_135\n      jumpi\n        /* \"#utility.yul\":2567:2585   */\n      tag_136\n      tag_97\n      jump\t// in\n    tag_136:\n        /* \"#utility.yul\":2551:2587   */\n    tag_135:\n        /* \"#utility.yul\":2403:2594   */\n      swap3\n      swap2\n      pop\n      pop\n      jump\t// out\n        /* \"#utility.yul\":2600:3010   */\n    tag_42:\n        /* \"#utility.yul\":2640:2647   */\n      0x00\n        /* \"#utility.yul\":2663:2683   */\n      tag_138\n        /* \"#utility.yul\":2681:2682   */\n      dup3\n        /* \"#utility.yul\":2663:2683   */\n      tag_92\n      jump\t// in\n    tag_138:\n        /* \"#utility.yul\":2658:2683   */\n      swap2\n      pop\n        /* \"#utility.yul\":2697:2717   */\n      tag_139\n        /* \"#utility.yul\":2715:2716   */\n      dup4\n        /* \"#utility.yul\":2697:2717   */\n      tag_92\n      jump\t// in\n    tag_139:\n        /* \"#utility.yul\":2692:2717   */\n      swap3\n      pop\n        /* \"#utility.yul\":2752:2753   */\n      dup3\n        /* \"#utility.yul\":2749:2750   */\n      dup3\n        /* \"#utility.yul\":2745:2754   */\n      mul\n        /* \"#utility.yul\":2774:2804   */\n      tag_140\n        /* \"#utility.yul\":2792:2803   */\n      dup2\n        /* \"#utility.yul\":2774:2804   */\n      tag_92\n      jump\t// in\n    tag_140:\n        /* \"#utility.yul\":2763:2804   */\n      swap2\n      pop\n        /* \"#utility.yul\":2953:2954   */\n      dup3\n        /* \"#utility.yul\":2944:2951   */\n      dup3\n        /* \"#utility.yul\":2940:2955   */\n      div\n        /* \"#utility.yul\":2937:2938   */\n      dup5\n        /* \"#utility.yul\":2934:2956   */\n      eq\n        /* \"#utility.yul\":2914:2915   */\n      dup4\n        /* \"#utility.yul\":2907:2916   */\n      iszero\n        /* \"#utility.yul\":2887:2970   */\n      or\n        /* \"#utility.yul\":2864:3003   */\n      tag_141\n      jumpi\n        /* \"#utility.yul\":2983:3001   */\n      tag_142\n      tag_97\n      jump\t// in\n    tag_142:\n        /* \"#utility.yul\":2864:3003   */\n    tag_141:\n        /* \"#utility.yul\":2648:3010   */\n      pop\n        /* \"#utility.yul\":2600:3010   */\n      swap3\n      swap2\n      pop\n      pop\n      jump\t// out\n        /* \"#utility.yul\":3016:3192   */\n    tag_46:\n        /* \"#utility.yul\":3048:3049   */\n      0x00\n        /* \"#utility.yul\":3065:3085   */\n      tag_144\n        /* \"#utility.yul\":3083:3084   */\n      dup3\n        /* \"#utility.yul\":3065:3085   */\n      tag_92\n      jump\t// in\n    tag_144:\n        /* \"#utility.yul\":3060:3085   */\n      swap2\n      pop\n        /* \"#utility.yul\":3099:3119   */\n      tag_145\n        /* \"#utility.yul\":3117:3118   */\n      dup4\n        /* \"#utility.yul\":3099:3119   */\n      tag_92\n      jump\t// in\n    tag_145:\n        /* \"#utility.yul\":3094:3119   */\n      swap3\n      pop\n        /* \"#utility.yul\":3138:3139   */\n      dup3\n        /* \"#utility.yul\":3128:3163   */\n      tag_146\n      jumpi\n        /* \"#utility.yul\":3143:3161   */\n      tag_147\n      tag_96\n      jump\t// in\n    tag_147:\n        /* \"#utility.yul\":3128:3163   */\n    tag_146:\n        /* \"#utility.yul\":3184:3185   */\n      dup3\n        /* \"#utility.yul\":3181:3182   */\n      dup3\n        /* \"#utility.yul\":3177:3186   */\n      mod\n        /* \"#utility.yul\":3172:3186   */\n      swap1\n      pop\n        /* \"#utility.yul\":3016:3192   */\n      swap3\n      swap2\n      pop\n      pop\n      jump\t// out\n\n    auxdata: 0xa264697066735822122053b5d890453ebcc7e01bd273b5b24b200d37634fb1f89dae334a0a1d927a0b6164736f6c634300081a0033\n}\n",
				"bytecode": {
					"linkReferences": {},
					"object": "6105fe61004d600b8282823980515f1a6073146041577f4e487b71000000000000000000000000000000000000000000000000000000005f525f60045260245ffd5b305f52607381538281f3fe7300000000000000000000000000000000000000003014608060405260043610610034575f3560e01c80635468af1014610038575b5f80fd5b610052600480360381019061004d91906103cd565b610068565b60405161005f9190610407565b60405180910390f35b5f804290505f620151808261007d919061047a565b90505f6107b290505f8290505b610093826101b0565b61009f5761016d6100a3565b61016e5b61ffff1681106100ea576100b6826101b0565b6100c25761016d6100c6565b61016e5b61ffff16816100d591906104aa565b905081806100e2906104dd565b92505061008a565b5f600190505b6100fa83826101f6565b821061012a5761010a83826101f6565b8261011591906104aa565b91508080610122906104dd565b9150506100f0565b866001836101389190610524565b1115610169578080610149906104dd565b915050600c811115610168578280610160906104dd565b935050600190505b5b5f610176848360016102e4565b90505f6201518060018a61018a91906104aa565b6101949190610557565b8261019f9190610524565b905080975050505050505050919050565b5f806004836101bf9190610598565b1480156101d857505f6064836101d59190610598565b14155b806101ef57505f610190836101ed9190610598565b145b9050919050565b5f60018214806102065750600382145b806102115750600582145b8061021c5750600782145b806102275750600882145b806102325750600a82145b8061023d5750600c82145b1561024b57601f90506102de565b600482148061025a5750600682145b806102655750600982145b806102705750600b82145b1561027e57601e90506102de565b600282036102da575f6004846102949190610598565b14806102ac57505f6064846102a99190610598565b14155b806102c357505f610190846102c19190610598565b145b156102d157601d90506102de565b601c90506102de565b5f90505b92915050565b5f805f90505f6107b290505b8581101561032f57610301816101b0565b61030d5761016d610311565b61016e5b61ffff16826103209190610524565b915080806001019150506102f0565b505f600190505b848110156103625761034886826101f6565b826103539190610524565b91508080600101915050610336565b5060018361037091906104aa565b8161037b9190610524565b9050620151808161038c9190610557565b9150509392505050565b5f80fd5b5f819050919050565b6103ac8161039a565b81146103b6575f80fd5b50565b5f813590506103c7816103a3565b92915050565b5f602082840312156103e2576103e1610396565b5b5f6103ef848285016103b9565b91505092915050565b6104018161039a565b82525050565b5f60208201905061041a5f8301846103f8565b92915050565b7f4e487b71000000000000000000000000000000000000000000000000000000005f52601260045260245ffd5b7f4e487b71000000000000000000000000000000000000000000000000000000005f52601160045260245ffd5b5f6104848261039a565b915061048f8361039a565b92508261049f5761049e610420565b5b828204905092915050565b5f6104b48261039a565b91506104bf8361039a565b92508282039050818111156104d7576104d661044d565b5b92915050565b5f6104e78261039a565b91507fffffffffffffffffffffffffffffffffffffffffffffffffffffffffffffffff82036105195761051861044d565b5b600182019050919050565b5f61052e8261039a565b91506105398361039a565b92508282019050808211156105515761055061044d565b5b92915050565b5f6105618261039a565b915061056c8361039a565b925082820261057a8161039a565b915082820484148315176105915761059061044d565b5b5092915050565b5f6105a28261039a565b91506105ad8361039a565b9250826105bd576105bc610420565b5b82820690509291505056fea264697066735822122053b5d890453ebcc7e01bd273b5b24b200d37634fb1f89dae334a0a1d927a0b6164736f6c634300081a0033",
					"opcodes": "PUSH2 0x5FE PUSH2 0x4D PUSH1 0xB DUP3 DUP3 DUP3 CODECOPY DUP1 MLOAD PUSH0 BYTE PUSH1 0x73 EQ PUSH1 0x41 JUMPI PUSH32 0x4E487B7100000000000000000000000000000000000000000000000000000000 PUSH0 MSTORE PUSH0 PUSH1 0x4 MSTORE PUSH1 0x24 PUSH0 REVERT JUMPDEST ADDRESS PUSH0 MSTORE PUSH1 0x73 DUP2 MSTORE8 DUP3 DUP2 RETURN INVALID PUSH20 0x0 ADDRESS EQ PUSH1 0x80 PUSH1 0x40 MSTORE PUSH1 0x4 CALLDATASIZE LT PUSH2 0x34 JUMPI PUSH0 CALLDATALOAD PUSH1 0xE0 SHR DUP1 PUSH4 0x5468AF10 EQ PUSH2 0x38 JUMPI JUMPDEST PUSH0 DUP1 REVERT JUMPDEST PUSH2 0x52 PUSH1 0x4 DUP1 CALLDATASIZE SUB DUP2 ADD SWAP1 PUSH2 0x4D SWAP2 SWAP1 PUSH2 0x3CD JUMP JUMPDEST PUSH2 0x68 JUMP JUMPDEST PUSH1 0x40 MLOAD PUSH2 0x5F SWAP2 SWAP1 PUSH2 0x407 JUMP JUMPDEST PUSH1 0x40 MLOAD DUP1 SWAP2 SUB SWAP1 RETURN JUMPDEST PUSH0 DUP1 TIMESTAMP SWAP1 POP PUSH0 PUSH3 0x15180 DUP3 PUSH2 0x7D SWAP2 SWAP1 PUSH2 0x47A JUMP JUMPDEST SWAP1 POP PUSH0 PUSH2 0x7B2 SWAP1 POP PUSH0 DUP3 SWAP1 POP JUMPDEST PUSH2 0x93 DUP3 PUSH2 0x1B0 JUMP JUMPDEST PUSH2 0x9F JUMPI PUSH2 0x16D PUSH2 0xA3 JUMP JUMPDEST PUSH2 0x16E JUMPDEST PUSH2 0xFFFF AND DUP2 LT PUSH2 0xEA JUMPI PUSH2 0xB6 DUP3 PUSH2 0x1B0 JUMP JUMPDEST PUSH2 0xC2 JUMPI PUSH2 0x16D PUSH2 0xC6 JUMP JUMPDEST PUSH2 0x16E JUMPDEST PUSH2 0xFFFF AND DUP2 PUSH2 0xD5 SWAP2 SWAP1 PUSH2 0x4AA JUMP JUMPDEST SWAP1 POP DUP2 DUP1 PUSH2 0xE2 SWAP1 PUSH2 0x4DD JUMP JUMPDEST SWAP3 POP POP PUSH2 0x8A JUMP JUMPDEST PUSH0 PUSH1 0x1 SWAP1 POP JUMPDEST PUSH2 0xFA DUP4 DUP3 PUSH2 0x1F6 JUMP JUMPDEST DUP3 LT PUSH2 0x12A JUMPI PUSH2 0x10A DUP4 DUP3 PUSH2 0x1F6 JUMP JUMPDEST DUP3 PUSH2 0x115 SWAP2 SWAP1 PUSH2 0x4AA JUMP JUMPDEST SWAP2 POP DUP1 DUP1 PUSH2 0x122 SWAP1 PUSH2 0x4DD JUMP JUMPDEST SWAP2 POP POP PUSH2 0xF0 JUMP JUMPDEST DUP7 PUSH1 0x1 DUP4 PUSH2 0x138 SWAP2 SWAP1 PUSH2 0x524 JUMP JUMPDEST GT ISZERO PUSH2 0x169 JUMPI DUP1 DUP1 PUSH2 0x149 SWAP1 PUSH2 0x4DD JUMP JUMPDEST SWAP2 POP POP PUSH1 0xC DUP2 GT ISZERO PUSH2 0x168 JUMPI DUP3 DUP1 PUSH2 0x160 SWAP1 PUSH2 0x4DD JUMP JUMPDEST SWAP4 POP POP PUSH1 0x1 SWAP1 POP JUMPDEST JUMPDEST PUSH0 PUSH2 0x176 DUP5 DUP4 PUSH1 0x1 PUSH2 0x2E4 JUMP JUMPDEST SWAP1 POP PUSH0 PUSH3 0x15180 PUSH1 0x1 DUP11 PUSH2 0x18A SWAP2 SWAP1 PUSH2 0x4AA JUMP JUMPDEST PUSH2 0x194 SWAP2 SWAP1 PUSH2 0x557 JUMP JUMPDEST DUP3 PUSH2 0x19F SWAP2 SWAP1 PUSH2 0x524 JUMP JUMPDEST SWAP1 POP DUP1 SWAP8 POP POP POP POP POP POP POP POP SWAP2 SWAP1 POP JUMP JUMPDEST PUSH0 DUP1 PUSH1 0x4 DUP4 PUSH2 0x1BF SWAP2 SWAP1 PUSH2 0x598 JUMP JUMPDEST EQ DUP1 ISZERO PUSH2 0x1D8 JUMPI POP PUSH0 PUSH1 0x64 DUP4 PUSH2 0x1D5 SWAP2 SWAP1 PUSH2 0x598 JUMP JUMPDEST EQ ISZERO JUMPDEST DUP1 PUSH2 0x1EF JUMPI POP PUSH0 PUSH2 0x190 DUP4 PUSH2 0x1ED SWAP2 SWAP1 PUSH2 0x598 JUMP JUMPDEST EQ JUMPDEST SWAP1 POP SWAP2 SWAP1 POP JUMP JUMPDEST PUSH0 PUSH1 0x1 DUP3 EQ DUP1 PUSH2 0x206 JUMPI POP PUSH1 0x3 DUP3 EQ JUMPDEST DUP1 PUSH2 0x211 JUMPI POP PUSH1 0x5 DUP3 EQ JUMPDEST DUP1 PUSH2 0x21C JUMPI POP PUSH1 0x7 DUP3 EQ JUMPDEST DUP1 PUSH2 0x227 JUMPI POP PUSH1 0x8 DUP3 EQ JUMPDEST DUP1 PUSH2 0x232 JUMPI POP PUSH1 0xA DUP3 EQ JUMPDEST DUP1 PUSH2 0x23D JUMPI POP PUSH1 0xC DUP3 EQ JUMPDEST ISZERO PUSH2 0x24B JUMPI PUSH1 0x1F SWAP1 POP PUSH2 0x2DE JUMP JUMPDEST PUSH1 0x4 DUP3 EQ DUP1 PUSH2 0x25A JUMPI POP PUSH1 0x6 DUP3 EQ JUMPDEST DUP1 PUSH2 0x265 JUMPI POP PUSH1 0x9 DUP3 EQ JUMPDEST DUP1 PUSH2 0x270 JUMPI POP PUSH1 0xB DUP3 EQ JUMPDEST ISZERO PUSH2 0x27E JUMPI PUSH1 0x1E SWAP1 POP PUSH2 0x2DE JUMP JUMPDEST PUSH1 0x2 DUP3 SUB PUSH2 0x2DA JUMPI PUSH0 PUSH1 0x4 DUP5 PUSH2 0x294 SWAP2 SWAP1 PUSH2 0x598 JUMP JUMPDEST EQ DUP1 PUSH2 0x2AC JUMPI POP PUSH0 PUSH1 0x64 DUP5 PUSH2 0x2A9 SWAP2 SWAP1 PUSH2 0x598 JUMP JUMPDEST EQ ISZERO JUMPDEST DUP1 PUSH2 0x2C3 JUMPI POP PUSH0 PUSH2 0x190 DUP5 PUSH2 0x2C1 SWAP2 SWAP1 PUSH2 0x598 JUMP JUMPDEST EQ JUMPDEST ISZERO PUSH2 0x2D1 JUMPI PUSH1 0x1D SWAP1 POP PUSH2 0x2DE JUMP JUMPDEST PUSH1 0x1C SWAP1 POP PUSH2 0x2DE JUMP JUMPDEST PUSH0 SWAP1 POP JUMPDEST SWAP3 SWAP2 POP POP JUMP JUMPDEST PUSH0 DUP1 PUSH0 SWAP1 POP PUSH0 PUSH2 0x7B2 SWAP1 POP JUMPDEST DUP6 DUP2 LT ISZERO PUSH2 0x32F JUMPI PUSH2 0x301 DUP2 PUSH2 0x1B0 JUMP JUMPDEST PUSH2 0x30D JUMPI PUSH2 0x16D PUSH2 0x311 JUMP JUMPDEST PUSH2 0x16E JUMPDEST PUSH2 0xFFFF AND DUP3 PUSH2 0x320 SWAP2 SWAP1 PUSH2 0x524 JUMP JUMPDEST SWAP2 POP DUP1 DUP1 PUSH1 0x1 ADD SWAP2 POP POP PUSH2 0x2F0 JUMP JUMPDEST POP PUSH0 PUSH1 0x1 SWAP1 POP JUMPDEST DUP5 DUP2 LT ISZERO PUSH2 0x362 JUMPI PUSH2 0x348 DUP7 DUP3 PUSH2 0x1F6 JUMP JUMPDEST DUP3 PUSH2 0x353 SWAP2 SWAP1 PUSH2 0x524 JUMP JUMPDEST SWAP2 POP DUP1 DUP1 PUSH1 0x1 ADD SWAP2 POP POP PUSH2 0x336 JUMP JUMPDEST POP PUSH1 0x1 DUP4 PUSH2 0x370 SWAP2 SWAP1 PUSH2 0x4AA JUMP JUMPDEST DUP2 PUSH2 0x37B SWAP2 SWAP1 PUSH2 0x524 JUMP JUMPDEST SWAP1 POP PUSH3 0x15180 DUP2 PUSH2 0x38C SWAP2 SWAP1 PUSH2 0x557 JUMP JUMPDEST SWAP2 POP POP SWAP4 SWAP3 POP POP POP JUMP JUMPDEST PUSH0 DUP1 REVERT JUMPDEST PUSH0 DUP2 SWAP1 POP SWAP2 SWAP1 POP JUMP JUMPDEST PUSH2 0x3AC DUP2 PUSH2 0x39A JUMP JUMPDEST DUP2 EQ PUSH2 0x3B6 JUMPI PUSH0 DUP1 REVERT JUMPDEST POP JUMP JUMPDEST PUSH0 DUP2 CALLDATALOAD SWAP1 POP PUSH2 0x3C7 DUP2 PUSH2 0x3A3 JUMP JUMPDEST SWAP3 SWAP2 POP POP JUMP JUMPDEST PUSH0 PUSH1 0x20 DUP3 DUP5 SUB SLT ISZERO PUSH2 0x3E2 JUMPI PUSH2 0x3E1 PUSH2 0x396 JUMP JUMPDEST JUMPDEST PUSH0 PUSH2 0x3EF DUP5 DUP3 DUP6 ADD PUSH2 0x3B9 JUMP JUMPDEST SWAP2 POP POP SWAP3 SWAP2 POP POP JUMP JUMPDEST PUSH2 0x401 DUP2 PUSH2 0x39A JUMP JUMPDEST DUP3 MSTORE POP POP JUMP JUMPDEST PUSH0 PUSH1 0x20 DUP3 ADD SWAP1 POP PUSH2 0x41A PUSH0 DUP4 ADD DUP5 PUSH2 0x3F8 JUMP JUMPDEST SWAP3 SWAP2 POP POP JUMP JUMPDEST PUSH32 0x4E487B7100000000000000000000000000000000000000000000000000000000 PUSH0 MSTORE PUSH1 0x12 PUSH1 0x4 MSTORE PUSH1 0x24 PUSH0 REVERT JUMPDEST PUSH32 0x4E487B7100000000000000000000000000000000000000000000000000000000 PUSH0 MSTORE PUSH1 0x11 PUSH1 0x4 MSTORE PUSH1 0x24 PUSH0 REVERT JUMPDEST PUSH0 PUSH2 0x484 DUP3 PUSH2 0x39A JUMP JUMPDEST SWAP2 POP PUSH2 0x48F DUP4 PUSH2 0x39A JUMP JUMPDEST SWAP3 POP DUP3 PUSH2 0x49F JUMPI PUSH2 0x49E PUSH2 0x420 JUMP JUMPDEST JUMPDEST DUP3 DUP3 DIV SWAP1 POP SWAP3 SWAP2 POP POP JUMP JUMPDEST PUSH0 PUSH2 0x4B4 DUP3 PUSH2 0x39A JUMP JUMPDEST SWAP2 POP PUSH2 0x4BF DUP4 PUSH2 0x39A JUMP JUMPDEST SWAP3 POP DUP3 DUP3 SUB SWAP1 POP DUP2 DUP2 GT ISZERO PUSH2 0x4D7 JUMPI PUSH2 0x4D6 PUSH2 0x44D JUMP JUMPDEST JUMPDEST SWAP3 SWAP2 POP POP JUMP JUMPDEST PUSH0 PUSH2 0x4E7 DUP3 PUSH2 0x39A JUMP JUMPDEST SWAP2 POP PUSH32 0xFFFFFFFFFFFFFFFFFFFFFFFFFFFFFFFFFFFFFFFFFFFFFFFFFFFFFFFFFFFFFFFF DUP3 SUB PUSH2 0x519 JUMPI PUSH2 0x518 PUSH2 0x44D JUMP JUMPDEST JUMPDEST PUSH1 0x1 DUP3 ADD SWAP1 POP SWAP2 SWAP1 POP JUMP JUMPDEST PUSH0 PUSH2 0x52E DUP3 PUSH2 0x39A JUMP JUMPDEST SWAP2 POP PUSH2 0x539 DUP4 PUSH2 0x39A JUMP JUMPDEST SWAP3 POP DUP3 DUP3 ADD SWAP1 POP DUP1 DUP3 GT ISZERO PUSH2 0x551 JUMPI PUSH2 0x550 PUSH2 0x44D JUMP JUMPDEST JUMPDEST SWAP3 SWAP2 POP POP JUMP JUMPDEST PUSH0 PUSH2 0x561 DUP3 PUSH2 0x39A JUMP JUMPDEST SWAP2 POP PUSH2 0x56C DUP4 PUSH2 0x39A JUMP JUMPDEST SWAP3 POP DUP3 DUP3 MUL PUSH2 0x57A DUP2 PUSH2 0x39A JUMP JUMPDEST SWAP2 POP DUP3 DUP3 DIV DUP5 EQ DUP4 ISZERO OR PUSH2 0x591 JUMPI PUSH2 0x590 PUSH2 0x44D JUMP JUMPDEST JUMPDEST POP SWAP3 SWAP2 POP POP JUMP JUMPDEST PUSH0 PUSH2 0x5A2 DUP3 PUSH2 0x39A JUMP JUMPDEST SWAP2 POP PUSH2 0x5AD DUP4 PUSH2 0x39A JUMP JUMPDEST SWAP3 POP DUP3 PUSH2 0x5BD JUMPI PUSH2 0x5BC PUSH2 0x420 JUMP JUMPDEST JUMPDEST DUP3 DUP3 MOD SWAP1 POP SWAP3 SWAP2 POP POP JUMP INVALID LOG2 PUSH5 0x6970667358 0x22 SLT KECCAK256 MSTORE8 0xB5 0xD8 SWAP1 GASLIMIT RETURNDATACOPY 0xBC 0xC7 0xE0 SHL 0xD2 PUSH20 0xB5B24B200D37634FB1F89DAE334A0A1D927A0B61 PUSH5 0x736F6C6343 STOP ADDMOD BYTE STOP CALLER "
				},
				"gasEstimates": {
					"creation": {
						"codeDepositCost": "306800",
						"executionCost": "369",
						"totalCost": "307169"
					},
					"external": {
						"getNextPaymentTimestamp(uint256)": "infinite"
					},
					"internal": {
						"daysToTimestamp(uint256,uint256,uint256)": "infinite",
						"getDaysInMonth(uint256,uint256)": "infinite",
						"isLeapYear(uint256)": "infinite"
					}
				},
				"methodIdentifiers": {
					"getNextPaymentTimestamp(uint256)": "5468af10"
				}
			},
			"storageLayout": {
				"storage": [],
				"types": null
			},
			"userdoc": {
				"kind": "user",
				"methods": {},
				"version": 1
			}
		}
	}
}