{
  "_format": "hh-sol-artifact-1",
  "contractName": "MockV3Aggregator",
  "sourceName": "contracts/MockV3Aggregator.sol",
  "abi": [
    {
      "inputs": [
        {
          "internalType": "uint8",
          "name": "_decimals",
          "type": "uint8"
        },
        {
          "internalType": "int256",
          "name": "_initialAnswer",
          "type": "int256"
        }
      ],
      "stateMutability": "nonpayable",
      "type": "constructor"
    },
    {
      "inputs": [],
      "name": "decimals",
      "outputs": [
        {
          "internalType": "uint8",
          "name": "",
          "type": "uint8"
        }
      ],
      "stateMutability": "view",
      "type": "function"
    },
    {
      "inputs": [],
      "name": "latestRoundData",
      "outputs": [
        {
          "internalType": "uint80",
          "name": "roundId",
          "type": "uint80"
        },
        {
          "internalType": "int256",
          "name": "answer",
          "type": "int256"
        },
        {
          "internalType": "uint256",
          "name": "startedAt",
          "type": "uint256"
        },
        {
          "internalType": "uint256",
          "name": "updatedAt",
          "type": "uint256"
        },
        {
          "internalType": "uint80",
          "name": "answeredInRound",
          "type": "uint80"
        }
      ],
      "stateMutability": "view",
      "type": "function"
    },
    {
      "inputs": [
        {
          "internalType": "int256",
          "name": "newAnswer",
          "type": "int256"
        }
      ],
      "name": "updateAnswer",
      "outputs": [],
      "stateMutability": "nonpayable",
      "type": "function"
    }
  ],
  "bytecode": "0x60a060405234801561001057600080fd5b5060405161023838038061023883398101604081905261002f91610051565b60ff909116608052600055600180546001600160501b03191681179055610085565b6000806040838503121561006457600080fd5b825160ff8116811461007557600080fd5b6020939093015192949293505050565b60805161019961009f6000396000604b01526101996000f3fe608060405234801561001057600080fd5b50600436106100415760003560e01c8063313ce56714610046578063a87a20ce14610084578063feaf968c14610099575b600080fd5b61006d7f000000000000000000000000000000000000000000000000000000000000000081565b60405160ff90911681526020015b60405180910390f35b610097610092366004610116565b6100d2565b005b600154600054604080516001600160501b039093168084526020840192909252429083018190526060830152608082015260a00161007b565b6000818155600180546001600160501b0316916100ee8361012f565b91906101000a8154816001600160501b0302191690836001600160501b031602179055505050565b60006020828403121561012857600080fd5b5035919050565b60006001600160501b0380831681810361015957634e487b7160e01b600052601160045260246000fd5b600101939250505056fea2646970667358221220b3e014e4ad7df2e9d9a1a043835fca3277dfbef0455f7b2f9a1666cd222c3c7864736f6c63430008140033",
  "linkReferences": {},
  "deployedLinkReferences": {}
}