{
	"data": {
		"bytecode": {
			"linkReferences": {},
			"object": "6105fe61004d600b8282823980515f1a6073146041577f4e487b71000000000000000000000000000000000000000000000000000000005f525f60045260245ffd5b305f52607381538281f3fe7300000000000000000000000000000000000000003014608060405260043610610034575f3560e01c80635468af1014610038575b5f80fd5b610052600480360381019061004d91906103cd565b610068565b60405161005f9190610407565b60405180910390f35b5f804290505f620151808261007d919061047a565b90505f6107b290505f8290505b610093826101b0565b61009f5761016d6100a3565b61016e5b61ffff1681106100ea576100b6826101b0565b6100c25761016d6100c6565b61016e5b61ffff16816100d591906104aa565b905081806100e2906104dd565b92505061008a565b5f600190505b6100fa83826101f6565b821061012a5761010a83826101f6565b8261011591906104aa565b91508080610122906104dd565b9150506100f0565b866001836101389190610524565b1115610169578080610149906104dd565b915050600c811115610168578280610160906104dd565b935050600190505b5b5f610176848360016102e4565b90505f6201518060018a61018a91906104aa565b6101949190610557565b8261019f9190610524565b905080975050505050505050919050565b5f806004836101bf9190610598565b1480156101d857505f6064836101d59190610598565b14155b806101ef57505f610190836101ed9190610598565b145b9050919050565b5f60018214806102065750600382145b806102115750600582145b8061021c5750600782145b806102275750600882145b806102325750600a82145b8061023d5750600c82145b1561024b57601f90506102de565b600482148061025a5750600682145b806102655750600982145b806102705750600b82145b1561027e57601e90506102de565b600282036102da575f6004846102949190610598565b14806102ac57505f6064846102a99190610598565b14155b806102c357505f610190846102c19190610598565b145b156102d157601d90506102de565b601c90506102de565b5f90505b92915050565b5f805f90505f6107b290505b8581101561032f57610301816101b0565b61030d5761016d610311565b61016e5b61ffff16826103209190610524565b915080806001019150506102f0565b505f600190505b848110156103625761034886826101f6565b826103539190610524565b91508080600101915050610336565b5060018361037091906104aa565b8161037b9190610524565b9050620151808161038c9190610557565b9150509392505050565b5f80fd5b5f819050919050565b6103ac8161039a565b81146103b6575f80fd5b50565b5f813590506103c7816103a3565b92915050565b5f602082840312156103e2576103e1610396565b5b5f6103ef848285016103b9565b91505092915050565b6104018161039a565b82525050565b5f60208201905061041a5f8301846103f8565b92915050565b7f4e487b71000000000000000000000000000000000000000000000000000000005f52601260045260245ffd5b7f4e487b71000000000000000000000000000000000000000000000000000000005f52601160045260245ffd5b5f6104848261039a565b915061048f8361039a565b92508261049f5761049e610420565b5b828204905092915050565b5f6104b48261039a565b91506104bf8361039a565b92508282039050818111156104d7576104d661044d565b5b92915050565b5f6104e78261039a565b91507fffffffffffffffffffffffffffffffffffffffffffffffffffffffffffffffff82036105195761051861044d565b5b600182019050919050565b5f61052e8261039a565b91506105398361039a565b92508282019050808211156105515761055061044d565b5b92915050565b5f6105618261039a565b915061056c8361039a565b925082820261057a8161039a565b915082820484148315176105915761059061044d565b5b5092915050565b5f6105a28261039a565b91506105ad8361039a565b9250826105bd576105bc610420565b5b82820690509291505056fea264697066735822122053b5d890453ebcc7e01bd273b5b24b200d37634fb1f89dae334a0a1d927a0b6164736f6c634300081a0033",
			"opcodes": "PUSH2 0x5FE PUSH2 0x4D PUSH1 0xB DUP3 DUP3 DUP3 CODECOPY DUP1 MLOAD PUSH0 BYTE PUSH1 0x73 EQ PUSH1 0x41 JUMPI PUSH32 0x4E487B7100000000000000000000000000000000000000000000000000000000 PUSH0 MSTORE PUSH0 PUSH1 0x4 MSTORE PUSH1 0x24 PUSH0 REVERT JUMPDEST ADDRESS PUSH0 MSTORE PUSH1 0x73 DUP2 MSTORE8 DUP3 DUP2 RETURN INVALID PUSH20 0x0 ADDRESS EQ PUSH1 0x80 PUSH1 0x40 MSTORE PUSH1 0x4 CALLDATASIZE LT PUSH2 0x34 JUMPI PUSH0 CALLDATALOAD PUSH1 0xE0 SHR DUP1 PUSH4 0x5468AF10 EQ PUSH2 0x38 JUMPI JUMPDEST PUSH0 DUP1 REVERT JUMPDEST PUSH2 0x52 PUSH1 0x4 DUP1 CALLDATASIZE SUB DUP2 ADD SWAP1 PUSH2 0x4D SWAP2 SWAP1 PUSH2 0x3CD JUMP JUMPDEST PUSH2 0x68 JUMP JUMPDEST PUSH1 0x40 MLOAD PUSH2 0x5F SWAP2 SWAP1 PUSH2 0x407 JUMP JUMPDEST PUSH1 0x40 MLOAD DUP1 SWAP2 SUB SWAP1 RETURN JUMPDEST PUSH0 DUP1 TIMESTAMP SWAP1 POP PUSH0 PUSH3 0x15180 DUP3 PUSH2 0x7D SWAP2 SWAP1 PUSH2 0x47A JUMP JUMPDEST SWAP1 POP PUSH0 PUSH2 0x7B2 SWAP1 POP PUSH0 DUP3 SWAP1 POP JUMPDEST PUSH2 0x93 DUP3 PUSH2 0x1B0 JUMP JUMPDEST PUSH2 0x9F JUMPI PUSH2 0x16D PUSH2 0xA3 JUMP JUMPDEST PUSH2 0x16E JUMPDEST PUSH2 0xFFFF AND DUP2 LT PUSH2 0xEA JUMPI PUSH2 0xB6 DUP3 PUSH2 0x1B0 JUMP JUMPDEST PUSH2 0xC2 JUMPI PUSH2 0x16D PUSH2 0xC6 JUMP JUMPDEST PUSH2 0x16E JUMPDEST PUSH2 0xFFFF AND DUP2 PUSH2 0xD5 SWAP2 SWAP1 PUSH2 0x4AA JUMP JUMPDEST SWAP1 POP DUP2 DUP1 PUSH2 0xE2 SWAP1 PUSH2 0x4DD JUMP JUMPDEST SWAP3 POP POP PUSH2 0x8A JUMP JUMPDEST PUSH0 PUSH1 0x1 SWAP1 POP JUMPDEST PUSH2 0xFA DUP4 DUP3 PUSH2 0x1F6 JUMP JUMPDEST DUP3 LT PUSH2 0x12A JUMPI PUSH2 0x10A DUP4 DUP3 PUSH2 0x1F6 JUMP JUMPDEST DUP3 PUSH2 0x115 SWAP2 SWAP1 PUSH2 0x4AA JUMP JUMPDEST SWAP2 POP DUP1 DUP1 PUSH2 0x122 SWAP1 PUSH2 0x4DD JUMP JUMPDEST SWAP2 POP POP PUSH2 0xF0 JUMP JUMPDEST DUP7 PUSH1 0x1 DUP4 PUSH2 0x138 SWAP2 SWAP1 PUSH2 0x524 JUMP JUMPDEST GT ISZERO PUSH2 0x169 JUMPI DUP1 DUP1 PUSH2 0x149 SWAP1 PUSH2 0x4DD JUMP JUMPDEST SWAP2 POP POP PUSH1 0xC DUP2 GT ISZERO PUSH2 0x168 JUMPI DUP3 DUP1 PUSH2 0x160 SWAP1 PUSH2 0x4DD JUMP JUMPDEST SWAP4 POP POP PUSH1 0x1 SWAP1 POP JUMPDEST JUMPDEST PUSH0 PUSH2 0x176 DUP5 DUP4 PUSH1 0x1 PUSH2 0x2E4 JUMP JUMPDEST SWAP1 POP PUSH0 PUSH3 0x15180 PUSH1 0x1 DUP11 PUSH2 0x18A SWAP2 SWAP1 PUSH2 0x4AA JUMP JUMPDEST PUSH2 0x194 SWAP2 SWAP1 PUSH2 0x557 JUMP JUMPDEST DUP3 PUSH2 0x19F SWAP2 SWAP1 PUSH2 0x524 JUMP JUMPDEST SWAP1 POP DUP1 SWAP8 POP POP POP POP POP POP POP POP SWAP2 SWAP1 POP JUMP JUMPDEST PUSH0 DUP1 PUSH1 0x4 DUP4 PUSH2 0x1BF SWAP2 SWAP1 PUSH2 0x598 JUMP JUMPDEST EQ DUP1 ISZERO PUSH2 0x1D8 JUMPI POP PUSH0 PUSH1 0x64 DUP4 PUSH2 0x1D5 SWAP2 SWAP1 PUSH2 0x598 JUMP JUMPDEST EQ ISZERO JUMPDEST DUP1 PUSH2 0x1EF JUMPI POP PUSH0 PUSH2 0x190 DUP4 PUSH2 0x1ED SWAP2 SWAP1 PUSH2 0x598 JUMP JUMPDEST EQ JUMPDEST SWAP1 POP SWAP2 SWAP1 POP JUMP JUMPDEST PUSH0 PUSH1 0x1 DUP3 EQ DUP1 PUSH2 0x206 JUMPI POP PUSH1 0x3 DUP3 EQ JUMPDEST DUP1 PUSH2 0x211 JUMPI POP PUSH1 0x5 DUP3 EQ JUMPDEST DUP1 PUSH2 0x21C JUMPI POP PUSH1 0x7 DUP3 EQ JUMPDEST DUP1 PUSH2 0x227 JUMPI POP PUSH1 0x8 DUP3 EQ JUMPDEST DUP1 PUSH2 0x232 JUMPI POP PUSH1 0xA DUP3 EQ JUMPDEST DUP1 PUSH2 0x23D JUMPI POP PUSH1 0xC DUP3 EQ JUMPDEST ISZERO PUSH2 0x24B JUMPI PUSH1 0x1F SWAP1 POP PUSH2 0x2DE JUMP JUMPDEST PUSH1 0x4 DUP3 EQ DUP1 PUSH2 0x25A JUMPI POP PUSH1 0x6 DUP3 EQ JUMPDEST DUP1 PUSH2 0x265 JUMPI POP PUSH1 0x9 DUP3 EQ JUMPDEST DUP1 PUSH2 0x270 JUMPI POP PUSH1 0xB DUP3 EQ JUMPDEST ISZERO PUSH2 0x27E JUMPI PUSH1 0x1E SWAP1 POP PUSH2 0x2DE JUMP JUMPDEST PUSH1 0x2 DUP3 SUB PUSH2 0x2DA JUMPI PUSH0 PUSH1 0x4 DUP5 PUSH2 0x294 SWAP2 SWAP1 PUSH2 0x598 JUMP JUMPDEST EQ DUP1 PUSH2 0x2AC JUMPI POP PUSH0 PUSH1 0x64 DUP5 PUSH2 0x2A9 SWAP2 SWAP1 PUSH2 0x598 JUMP JUMPDEST EQ ISZERO JUMPDEST DUP1 PUSH2 0x2C3 JUMPI POP PUSH0 PUSH2 0x190 DUP5 PUSH2 0x2C1 SWAP2 SWAP1 PUSH2 0x598 JUMP JUMPDEST EQ JUMPDEST ISZERO PUSH2 0x2D1 JUMPI PUSH1 0x1D SWAP1 POP PUSH2 0x2DE JUMP JUMPDEST PUSH1 0x1C SWAP1 POP PUSH2 0x2DE JUMP JUMPDEST PUSH0 SWAP1 POP JUMPDEST SWAP3 SWAP2 POP POP JUMP JUMPDEST PUSH0 DUP1 PUSH0 SWAP1 POP PUSH0 PUSH2 0x7B2 SWAP1 POP JUMPDEST DUP6 DUP2 LT ISZERO PUSH2 0x32F JUMPI PUSH2 0x301 DUP2 PUSH2 0x1B0 JUMP JUMPDEST PUSH2 0x30D JUMPI PUSH2 0x16D PUSH2 0x311 JUMP JUMPDEST PUSH2 0x16E JUMPDEST PUSH2 0xFFFF AND DUP3 PUSH2 0x320 SWAP2 SWAP1 PUSH2 0x524 JUMP JUMPDEST SWAP2 POP DUP1 DUP1 PUSH1 0x1 ADD SWAP2 POP POP PUSH2 0x2F0 JUMP JUMPDEST POP PUSH0 PUSH1 0x1 SWAP1 POP JUMPDEST DUP5 DUP2 LT ISZERO PUSH2 0x362 JUMPI PUSH2 0x348 DUP7 DUP3 PUSH2 0x1F6 JUMP JUMPDEST DUP3 PUSH2 0x353 SWAP2 SWAP1 PUSH2 0x524 JUMP JUMPDEST SWAP2 POP DUP1 DUP1 PUSH1 0x1 ADD SWAP2 POP POP PUSH2 0x336 JUMP JUMPDEST POP PUSH1 0x1 DUP4 PUSH2 0x370 SWAP2 SWAP1 PUSH2 0x4AA JUMP JUMPDEST DUP2 PUSH2 0x37B SWAP2 SWAP1 PUSH2 0x524 JUMP JUMPDEST SWAP1 POP PUSH3 0x15180 DUP2 PUSH2 0x38C SWAP2 SWAP1 PUSH2 0x557 JUMP JUMPDEST SWAP2 POP POP SWAP4 SWAP3 POP POP POP JUMP JUMPDEST PUSH0 DUP1 REVERT JUMPDEST PUSH0 DUP2 SWAP1 POP SWAP2 SWAP1 POP JUMP JUMPDEST PUSH2 0x3AC DUP2 PUSH2 0x39A JUMP JUMPDEST DUP2 EQ PUSH2 0x3B6 JUMPI PUSH0 DUP1 REVERT JUMPDEST POP JUMP JUMPDEST PUSH0 DUP2 CALLDATALOAD SWAP1 POP PUSH2 0x3C7 DUP2 PUSH2 0x3A3 JUMP JUMPDEST SWAP3 SWAP2 POP POP JUMP JUMPDEST PUSH0 PUSH1 0x20 DUP3 DUP5 SUB SLT ISZERO PUSH2 0x3E2 JUMPI PUSH2 0x3E1 PUSH2 0x396 JUMP JUMPDEST JUMPDEST PUSH0 PUSH2 0x3EF DUP5 DUP3 DUP6 ADD PUSH2 0x3B9 JUMP JUMPDEST SWAP2 POP POP SWAP3 SWAP2 POP POP JUMP JUMPDEST PUSH2 0x401 DUP2 PUSH2 0x39A JUMP JUMPDEST DUP3 MSTORE POP POP JUMP JUMPDEST PUSH0 PUSH1 0x20 DUP3 ADD SWAP1 POP PUSH2 0x41A PUSH0 DUP4 ADD DUP5 PUSH2 0x3F8 JUMP JUMPDEST SWAP3 SWAP2 POP POP JUMP JUMPDEST PUSH32 0x4E487B7100000000000000000000000000000000000000000000000000000000 PUSH0 MSTORE PUSH1 0x12 PUSH1 0x4 MSTORE PUSH1 0x24 PUSH0 REVERT JUMPDEST PUSH32 0x4E487B7100000000000000000000000000000000000000000000000000000000 PUSH0 MSTORE PUSH1 0x11 PUSH1 0x4 MSTORE PUSH1 0x24 PUSH0 REVERT JUMPDEST PUSH0 PUSH2 0x484 DUP3 PUSH2 0x39A JUMP JUMPDEST SWAP2 POP PUSH2 0x48F DUP4 PUSH2 0x39A JUMP JUMPDEST SWAP3 POP DUP3 PUSH2 0x49F JUMPI PUSH2 0x49E PUSH2 0x420 JUMP JUMPDEST JUMPDEST DUP3 DUP3 DIV SWAP1 POP SWAP3 SWAP2 POP POP JUMP JUMPDEST PUSH0 PUSH2 0x4B4 DUP3 PUSH2 0x39A JUMP JUMPDEST SWAP2 POP PUSH2 0x4BF DUP4 PUSH2 0x39A JUMP JUMPDEST SWAP3 POP DUP3 DUP3 SUB SWAP1 POP DUP2 DUP2 GT ISZERO PUSH2 0x4D7 JUMPI PUSH2 0x4D6 PUSH2 0x44D JUMP JUMPDEST JUMPDEST SWAP3 SWAP2 POP POP JUMP JUMPDEST PUSH0 PUSH2 0x4E7 DUP3 PUSH2 0x39A JUMP JUMPDEST SWAP2 POP PUSH32 0xFFFFFFFFFFFFFFFFFFFFFFFFFFFFFFFFFFFFFFFFFFFFFFFFFFFFFFFFFFFFFFFF DUP3 SUB PUSH2 0x519 JUMPI PUSH2 0x518 PUSH2 0x44D JUMP JUMPDEST JUMPDEST PUSH1 0x1 DUP3 ADD SWAP1 POP SWAP2 SWAP1 POP JUMP JUMPDEST PUSH0 PUSH2 0x52E DUP3 PUSH2 0x39A JUMP JUMPDEST SWAP2 POP PUSH2 0x539 DUP4 PUSH2 0x39A JUMP JUMPDEST SWAP3 POP DUP3 DUP3 ADD SWAP1 POP DUP1 DUP3 GT ISZERO PUSH2 0x551 JUMPI PUSH2 0x550 PUSH2 0x44D JUMP JUMPDEST JUMPDEST SWAP3 SWAP2 POP POP JUMP JUMPDEST PUSH0 PUSH2 0x561 DUP3 PUSH2 0x39A JUMP JUMPDEST SWAP2 POP PUSH2 0x56C DUP4 PUSH2 0x39A JUMP JUMPDEST SWAP3 POP DUP3 DUP3 MUL PUSH2 0x57A DUP2 PUSH2 0x39A JUMP JUMPDEST SWAP2 POP DUP3 DUP3 DIV DUP5 EQ DUP4 ISZERO OR PUSH2 0x591 JUMPI PUSH2 0x590 PUSH2 0x44D JUMP JUMPDEST JUMPDEST POP SWAP3 SWAP2 POP POP JUMP JUMPDEST PUSH0 PUSH2 0x5A2 DUP3 PUSH2 0x39A JUMP JUMPDEST SWAP2 POP PUSH2 0x5AD DUP4 PUSH2 0x39A JUMP JUMPDEST SWAP3 POP DUP3 PUSH2 0x5BD JUMPI PUSH2 0x5BC PUSH2 0x420 JUMP JUMPDEST JUMPDEST DUP3 DUP3 MOD SWAP1 POP SWAP3 SWAP2 POP POP JUMP INVALID LOG2 PUSH5 0x6970667358 0x22 SLT KECCAK256 MSTORE8 0xB5 0xD8 SWAP1 GASLIMIT RETURNDATACOPY 0xBC 0xC7 0xE0 SHL 0xD2 PUSH20 0xB5B24B200D37634FB1F89DAE334A0A1D927A0B61 PUSH5 0x736F6C6343 STOP ADDMOD BYTE STOP CALLER "
		},
		"gasEstimates": {
			"creation": {
				"codeDepositCost": "306800",
				"executionCost": "369",
				"totalCost": "307169"
			},
			"external": {
				"getNextPaymentTimestamp(uint256)": "infinite"
			},
			"internal": {
				"daysToTimestamp(uint256,uint256,uint256)": "infinite",
				"getDaysInMonth(uint256,uint256)": "infinite",
				"isLeapYear(uint256)": "infinite"
			}
		},
		"methodIdentifiers": {
			"getNextPaymentTimestamp(uint256)": "5468af10"
		}
	},
	"abi": [
		{
			"inputs": [
				{
					"internalType": "uint256",
					"name": "paymentDay",
					"type": "uint256"
				}
			],
			"name": "getNextPaymentTimestamp",
			"outputs": [
				{
					"internalType": "uint256",
					"name": "",
					"type": "uint256"
				}
			],
			"stateMutability": "view",
			"type": "function"
		}
	]
}