{
	"data": {
		"bytecode": {
			"linkReferences": {
				"contracts/DateUtils.sol": {
					"DateUtils": [
						{
							"length": 20,
							"start": 6022
						},
						{
							"length": 20,
							"start": 13882
						}
					]
				}
			},
			"object": "608060405234801561000f575f80fd5b5060405161587d38038061587d833981810160405281019061003191906105f3565b60015f819055505f73ffffffffffffffffffffffffffffffffffffffff168873ffffffffffffffffffffffffffffffffffffffff16036100a6576040517f08c379a000000000000000000000000000000000000000000000000000000000815260040161009d9061071a565b60405180910390fd5b5f87116100e8576040517f08c379a00000000000000000000000000000000000000000000000000000000081526004016100df906107a8565b60405180910390fd5b5f86101561012b576040517f08c379a000000000000000000000000000000000000000000000000000000000815260040161012290610836565b60405180910390fd5b5f85511161016e576040517f08c379a00000000000000000000000000000000000000000000000000000000081526004016101659061089e565b60405180910390fd5b3360015f6101000a81548173ffffffffffffffffffffffffffffffffffffffff021916908373ffffffffffffffffffffffffffffffffffffffff1602179055508760025f6101000a81548173ffffffffffffffffffffffffffffffffffffffff021916908373ffffffffffffffffffffffffffffffffffffffff1602179055508660038190555085600481905550846005908161020b9190610ac0565b508360065f6101000a81548160ff02191690831515021790555082600660016101000a81548173ffffffffffffffffffffffffffffffffffffffff021916908373ffffffffffffffffffffffffffffffffffffffff1602179055508160075f6101000a81548173ffffffffffffffffffffffffffffffffffffffff021916908373ffffffffffffffffffffffffffffffffffffffff1602179055505f60165f6101000a81548160ff021916908360028111156102ca576102c9610b8f565b5b0217905550426009819055505f600a8190555080600b819055505f600c819055505f600d819055505f600e5f6101000a81548160ff0219169083151502179055505f600f81905550426011819055506301e13380426103299190610be9565b60108190555060025f9054906101000a900473ffffffffffffffffffffffffffffffffffffffff1673ffffffffffffffffffffffffffffffffffffffff1660015f9054906101000a900473ffffffffffffffffffffffffffffffffffffffff1673ffffffffffffffffffffffffffffffffffffffff167f4f1197914a173d10d32a79e20a053170d7dafb93e77cc4f686ce07cdfa0c20fd60056040516103cf9190610c9d565b60405180910390a35050505050505050610cbd565b5f604051905090565b5f80fd5b5f80fd5b5f73ffffffffffffffffffffffffffffffffffffffff82169050919050565b5f61041e826103f5565b9050919050565b61042e81610414565b8114610438575f80fd5b50565b5f8151905061044981610425565b92915050565b5f819050919050565b6104618161044f565b811461046b575f80fd5b50565b5f8151905061047c81610458565b92915050565b5f80fd5b5f80fd5b5f601f19601f8301169050919050565b7f4e487b71000000000000000000000000000000000000000000000000000000005f52604160045260245ffd5b6104d08261048a565b810181811067ffffffffffffffff821117156104ef576104ee61049a565b5b80604052505050565b5f6105016103e4565b905061050d82826104c7565b919050565b5f67ffffffffffffffff82111561052c5761052b61049a565b5b6105358261048a565b9050602081019050919050565b8281835e5f83830152505050565b5f61056261055d84610512565b6104f8565b90508281526020810184848401111561057e5761057d610486565b5b610589848285610542565b509392505050565b5f82601f8301126105a5576105a4610482565b5b81516105b5848260208601610550565b91505092915050565b5f8115159050919050565b6105d2816105be565b81146105dc575f80fd5b50565b5f815190506105ed816105c9565b92915050565b5f805f805f805f80610100898b0312156106105761060f6103ed565b5b5f61061d8b828c0161043b565b985050602061062e8b828c0161046e565b975050604061063f8b828c0161046e565b965050606089015167ffffffffffffffff8111156106605761065f6103f1565b5b61066c8b828c01610591565b955050608061067d8b828c016105df565b94505060a061068e8b828c0161043b565b93505060c061069f8b828c0161043b565b92505060e06106b08b828c0161046e565b9150509295985092959890939650565b5f82825260208201905092915050565b7f496e76616c69642074656e616e742061646472657373000000000000000000005f82015250565b5f6107046016836106c0565b915061070f826106d0565b602082019050919050565b5f6020820190508181035f830152610731816106f8565b9050919050565b7f52656e7420616d6f756e74206d7573742062652067726561746572207468616e5f8201527f2030000000000000000000000000000000000000000000000000000000000000602082015250565b5f6107926022836106c0565b915061079d82610738565b604082019050919050565b5f6020820190508181035f8301526107bf81610786565b9050919050565b7f4465706f73697420616d6f756e74206d757374206265206e6f6e2d6e656761745f8201527f6976650000000000000000000000000000000000000000000000000000000000602082015250565b5f6108206023836106c0565b915061082b826107c6565b604082019050919050565b5f6020820190508181035f83015261084d81610814565b9050919050565b7f495046532068617368206d7573742062652073657400000000000000000000005f82015250565b5f6108886015836106c0565b915061089382610854565b602082019050919050565b5f6020820190508181035f8301526108b58161087c565b9050919050565b5f81519050919050565b7f4e487b71000000000000000000000000000000000000000000000000000000005f52602260045260245ffd5b5f600282049050600182168061090a57607f821691505b60208210810361091d5761091c6108c6565b5b50919050565b5f819050815f5260205f209050919050565b5f6020601f8301049050919050565b5f82821b905092915050565b5f6008830261097f7fffffffffffffffffffffffffffffffffffffffffffffffffffffffffffffffff82610944565b6109898683610944565b95508019841693508086168417925050509392505050565b5f819050919050565b5f6109c46109bf6109ba8461044f565b6109a1565b61044f565b9050919050565b5f819050919050565b6109dd836109aa565b6109f16109e9826109cb565b848454610950565b825550505050565b5f90565b610a056109f9565b610a108184846109d4565b505050565b5b81811015610a3357610a285f826109fd565b600181019050610a16565b5050565b601f821115610a7857610a4981610923565b610a5284610935565b81016020851015610a61578190505b610a75610a6d85610935565b830182610a15565b50505b505050565b5f82821c905092915050565b5f610a985f1984600802610a7d565b1980831691505092915050565b5f610ab08383610a89565b9150826002028217905092915050565b610ac9826108bc565b67ffffffffffffffff811115610ae257610ae161049a565b5b610aec82546108f3565b610af7828285610a37565b5f60209050601f831160018114610b28575f8415610b16578287015190505b610b208582610aa5565b865550610b87565b601f198416610b3686610923565b5f5b82811015610b5d57848901518255600182019150602085019450602081019050610b38565b86831015610b7a5784890151610b76601f891682610a89565b8355505b6001600288020188555050505b505050505050565b7f4e487b71000000000000000000000000000000000000000000000000000000005f52602160045260245ffd5b7f4e487b71000000000000000000000000000000000000000000000000000000005f52601160045260245ffd5b5f610bf38261044f565b9150610bfe8361044f565b9250828201905080821115610c1657610c15610bbc565b5b92915050565b5f8154610c28816108f3565b610c3281866106c0565b9450600182165f8114610c4c5760018114610c6257610c94565b60ff198316865281151560200286019350610c94565b610c6b85610923565b5f5b83811015610c8c57815481890152600182019150602081019050610c6d565b808801955050505b50505092915050565b5f6020820190508181035f830152610cb58184610c1c565b905092915050565b614bb380610cca5f395ff3fe6080604052600436106102c8575f3560e01c80637f91df9c11610174578063d077fb10116100db578063dd66857f11610094578063f24bb69b1161006e578063f24bb69b1461090e578063f84a0f2d14610938578063f8ef1e131461094e578063f8fd050114610978576102c8565b8063dd66857f146108b8578063e36a03e0146108ce578063ea9e7f6a146108e4576102c8565b8063d077fb10146107e4578063d39763c81461080e578063d426e15514610838578063d6e82dca1461084e578063d9ef045914610864578063dc1997ea1461088e576102c8565b8063a709c4fe1161012d578063a709c4fe14610730578063aa0180051461073a578063adf0779114610750578063b651bb611461077a578063c3efc734146107a4578063c418c525146107ce576102c8565b80637f91df9c1461064a5780638e15f473146106745780638e7f727f1461069e5780639378b8c1146106c65780639f1f9082146106dc578063a5e047b8146106f2576102c8565b806336ec98ef116102335780635c274b86116101ec578063775e9fce116101c6578063775e9fce146105b65780637e076249146105e05780637e88f6031461060a5780637ec3110c14610620576102c8565b80635c274b861461056c57806361bc1a49146105765780636845071d146105a0576102c8565b806336ec98ef146104845780633e3bd90e146104ae578063419759f5146104d85780634d5dca5a146105025780635561ae6214610518578063587419d514610542576102c8565b80631f85316c116102855780631f85316c146103b05780632dfefcca146103da5780633070c38b146103f057806331d019b71461040657806333fc11831461043057806334cbfdfe1461045a576102c8565b806303c77fa4146102cc5780630752db7a146102f45780630abb1d7f1461030a578063140f26bf1461032057806318bb32f51461034a5780631ca43edd14610374575b5f80fd5b3480156102d7575f80fd5b506102f260048036038101906102ed9190613552565b61098e565b005b3480156102ff575f80fd5b50610308610ab9565b005b348015610315575f80fd5b5061031e610c02565b005b34801561032b575f80fd5b50610334610d3b565b60405161034191906135f9565b60405180910390f35b348015610355575f80fd5b5061035e610dc7565b60405161036b9190613633565b60405180910390f35b34801561037f575f80fd5b5061039a600480360381019061039591906136a6565b610dd9565b6040516103a79190613633565b60405180910390f35b3480156103bb575f80fd5b506103c4610df6565b6040516103d19190613633565b60405180910390f35b3480156103e5575f80fd5b506103ee610e08565b005b3480156103fb575f80fd5b50610404610f27565b005b348015610411575f80fd5b5061041a611049565b6040516104279190613744565b60405180910390f35b34801561043b575f80fd5b5061044461105b565b6040516104519190613633565b60405180910390f35b348015610465575f80fd5b5061046e61106e565b60405161047b9190613775565b60405180910390f35b34801561048f575f80fd5b50610498611074565b6040516104a59190613775565b60405180910390f35b3480156104b9575f80fd5b506104c26110e2565b6040516104cf9190613775565b60405180910390f35b3480156104e3575f80fd5b506104ec6110e8565b6040516104f99190613775565b60405180910390f35b34801561050d575f80fd5b506105166110ee565b005b348015610523575f80fd5b5061052c61126e565b6040516105399190613775565b60405180910390f35b34801561054d575f80fd5b50610556611274565b6040516105639190613775565b60405180910390f35b61057461127a565b005b348015610581575f80fd5b5061058a611630565b6040516105979190613775565b60405180910390f35b3480156105ab575f80fd5b506105b4611636565b005b3480156105c1575f80fd5b506105ca61177b565b6040516105d79190613775565b60405180910390f35b3480156105eb575f80fd5b506105f4611781565b6040516106019190613633565b60405180910390f35b348015610615575f80fd5b5061061e611793565b005b34801561062b575f80fd5b50610634611976565b6040516106419190613775565b60405180910390f35b348015610655575f80fd5b5061065e61197c565b60405161066b9190613775565b60405180910390f35b34801561067f575f80fd5b50610688611984565b6040516106959190613775565b60405180910390f35b3480156106a9575f80fd5b506106c460048036038101906106bf91906137b8565b611990565b005b3480156106d1575f80fd5b506106da611b7e565b005b3480156106e7575f80fd5b506106f0611d60565b005b3480156106fd575f80fd5b5061071860048036038101906107139190613812565b611e46565b6040516107279392919061383d565b60405180910390f35b610738611e87565b005b348015610745575f80fd5b5061074e612306565b005b34801561075b575f80fd5b506107646123eb565b6040516107719190613881565b60405180910390f35b348015610785575f80fd5b5061078e612410565b60405161079b91906139a0565b60405180910390f35b3480156107af575f80fd5b506107b8612499565b6040516107c591906135f9565b60405180910390f35b3480156107d9575f80fd5b506107e26125c4565b005b3480156107ef575f80fd5b506107f8612726565b6040516108059190613633565b60405180910390f35b348015610819575f80fd5b50610822612738565b60405161082f9190613881565b60405180910390f35b348015610843575f80fd5b5061084c61275e565b005b348015610859575f80fd5b506108626128db565b005b34801561086f575f80fd5b50610878612ab1565b6040516108859190613775565b60405180910390f35b348015610899575f80fd5b506108a2612ab7565b6040516108af9190613881565b60405180910390f35b3480156108c3575f80fd5b506108cc612adc565b005b3480156108d9575f80fd5b506108e2612cbd565b005b3480156108ef575f80fd5b506108f861307e565b6040516109059190613775565b60405180910390f35b348015610919575f80fd5b50610922613084565b60405161092f9190613775565b60405180910390f35b348015610943575f80fd5b5061094c61308a565b005b348015610959575f80fd5b50610962613220565b60405161096f9190613775565b60405180910390f35b348015610983575f80fd5b5061098c613226565b005b60015f9054906101000a900473ffffffffffffffffffffffffffffffffffffffff1673ffffffffffffffffffffffffffffffffffffffff163373ffffffffffffffffffffffffffffffffffffffff1614610a1d576040517f08c379a0000000000000000000000000000000000000000000000000000000008152600401610a1490613a30565b60405180910390fd5b600160165f6101000a81548160ff02191690836002811115610a4257610a416136d1565b5b021790555060015f9054906101000a900473ffffffffffffffffffffffffffffffffffffffff1673ffffffffffffffffffffffffffffffffffffffff167f7b73f5d770f3eb41fd57f1e6a1c9e2a5ec61febbbd4e608d511c46e3fd61163982604051610aae91906135f9565b60405180910390a250565b5f73__$f6bd971a7c05cea9d3394c8f102f387bcb$__635468af106015546040518263ffffffff1660e01b8152600401610af39190613a5d565b602060405180830381865af4158015610b0e573d5f803e3d5ffd5b505050506040513d601f19601f82011682018060405250810190610b329190613a8a565b905080421115610bc857600354600d5f828254610b4f9190613ae2565b9250508190555060025f9054906101000a900473ffffffffffffffffffffffffffffffffffffffff1673ffffffffffffffffffffffffffffffffffffffff167f2774f4712321fe39a50cf43384f7a594356cdabd366829262f2654fe2f3b77f9600354604051610bbf9190613775565b60405180910390a25b7fbbcc51fa936f3a76812be73764f05aafeeb3d972c46d98dd196244186bad147f81604051610bf79190613775565b60405180910390a150565b5f6002811115610c1557610c146136d1565b5b60165f9054906101000a900460ff166002811115610c3657610c356136d1565b5b14610c76576040517f08c379a0000000000000000000000000000000000000000000000000000000008152600401610c6d90613b5f565b60405180910390fd5b5f42601054610c859190613b7d565b9050624f1a00811480610c985750601e81145b15610ce7577fd0b1f933b37bcb6fa032c1f03d79ec22be0798137cdb06ad046be2e640eafbc56201518082610ccd9190613bdd565b604051610cda9190613775565b60405180910390a1610d38565b621275008110610d37577fd0b1f933b37bcb6fa032c1f03d79ec22be0798137cdb06ad046be2e640eafbc56201518082610d219190613bdd565b604051610d2e9190613775565b60405180910390a15b5b50565b60058054610d4890613c3a565b80601f0160208091040260200160405190810160405280929190818152602001828054610d7490613c3a565b8015610dbf5780601f10610d9657610100808354040283529160200191610dbf565b820191905f5260205f20905b815481529060010190602001808311610da257829003601f168201915b505050505081565b60065f9054906101000a900460ff1681565b6013602052805f5260405f205f915054906101000a900460ff1681565b600e5f9054906101000a900460ff1681565b60015f9054906101000a900473ffffffffffffffffffffffffffffffffffffffff1673ffffffffffffffffffffffffffffffffffffffff163373ffffffffffffffffffffffffffffffffffffffff1614610e97576040517f08c379a0000000000000000000000000000000000000000000000000000000008152600401610e8e90613a30565b60405180910390fd5b600280811115610eaa57610ea96136d1565b5b60165f9054906101000a900460ff166002811115610ecb57610eca6136d1565b5b14610f0b576040517f08c379a0000000000000000000000000000000000000000000000000000000008152600401610f0290613cda565b60405180910390fd5b600160145f6101000a81548160ff021916908315150217905550565b60015f9054906101000a900473ffffffffffffffffffffffffffffffffffffffff1673ffffffffffffffffffffffffffffffffffffffff163373ffffffffffffffffffffffffffffffffffffffff1614610fb6576040517f08c379a0000000000000000000000000000000000000000000000000000000008152600401610fad90613a30565b60405180910390fd5b6003546003610fc59190613cf8565b600d541115611047576276a70042610fdd9190613ae2565b600f81905550600260165f6101000a81548160ff02191690836002811115611008576110076136d1565b5b02179055507f2032eea88030b7d191bcbdc44c5ac10ed559f3e9f56a319c896f007b55aba5c6600f5460405161103e9190613775565b60405180910390a15b565b60165f9054906101000a900460ff1681565b601260019054906101000a900460ff1681565b600c5481565b5f80600954426110849190613b7d565b90505f6301e13380826110979190613bdd565b90505f6110a261197c565b90505f606483836110b39190613cf8565b6110bd9190613bdd565b60016110c99190613ae2565b6008546110d69190613cf8565b90508094505050505090565b60105481565b60045481565b60015f9054906101000a900473ffffffffffffffffffffffffffffffffffffffff1673ffffffffffffffffffffffffffffffffffffffff163373ffffffffffffffffffffffffffffffffffffffff161461117d576040517f08c379a000000000000000000000000000000000000000000000000000000000815260040161117490613a30565b60405180910390fd5b600e5f9054906101000a900460ff166111cb576040517f08c379a00000000000000000000000000000000000000000000000000000000081526004016111c290613d83565b60405180910390fd5b600c5f8154809291906111dd90613da1565b91905055505f600e5f6101000a81548160ff02191690831515021790555060025f9054906101000a900473ffffffffffffffffffffffffffffffffffffffff1673ffffffffffffffffffffffffffffffffffffffff167f3b3128f7f622ff2560e38be1b058b93ba3d585cba51577708f3da9d6fe4cd925600c546040516112649190613775565b60405180910390a2565b60155481565b60095481565b60025f9054906101000a900473ffffffffffffffffffffffffffffffffffffffff1673ffffffffffffffffffffffffffffffffffffffff163373ffffffffffffffffffffffffffffffffffffffff1614611309576040517f08c379a000000000000000000000000000000000000000000000000000000000815260040161130090613e58565b60405180910390fd5b6113116133af565b5f6002811115611324576113236136d1565b5b60165f9054906101000a900460ff166002811115611345576113446136d1565b5b14611385576040517f08c379a000000000000000000000000000000000000000000000000000000000815260040161137c90613ec0565b60405180910390fd5b5f60065f9054906101000a900460ff16156114dc575f34146113dc576040517f08c379a00000000000000000000000000000000000000000000000000000000081526004016113d390613f4e565b60405180910390fd5b6004549050600660019054906101000a900473ffffffffffffffffffffffffffffffffffffffff1673ffffffffffffffffffffffffffffffffffffffff166323b872dd3330846040518463ffffffff1660e01b815260040161144093929190613f6c565b6020604051808303815f875af115801561145c573d5f803e3d5ffd5b505050506040513d601f19601f820116820180604052508101906114809190613fcb565b6114bf576040517f08c379a00000000000000000000000000000000000000000000000000000000081526004016114b690614040565b60405180910390fd5b8060085f8282546114d09190613ae2565b925050819055506115c7565b5f6114e5611984565b9050806a52b7d2dcc80cd2e40000006004546115019190613cf8565b61150b9190613bdd565b915081341015611550576040517f08c379a0000000000000000000000000000000000000000000000000000000008152600401611547906140a8565b60405180910390fd5b5f823461155d9190613b7d565b90505f8111156115ac573373ffffffffffffffffffffffffffffffffffffffff166108fc8290811502906040515f60405180830381858888f193505050501580156115aa573d5f803e3d5ffd5b505b8260085f8282546115bd9190613ae2565b9250508190555050505b3373ffffffffffffffffffffffffffffffffffffffff167fd843b6e8d49f0e65c61fb0c27466e0719df02e1ca2340e577c3e289c1ac9154c8260065f9054906101000a900460ff1660405161161d9291906140c6565b60405180910390a25061162e6133fc565b565b60085481565b60105442101561167b576040517f08c379a000000000000000000000000000000000000000000000000000000000815260040161167290614137565b60405180910390fd5b601260019054906101000a900460ff1615806116a3575060125f9054906101000a900460ff16155b6116e2576040517f08c379a00000000000000000000000000000000000000000000000000000000081526004016116d99061419f565b60405180910390fd5b600160165f6101000a81548160ff02191690836002811115611707576117066136d1565b5b021790555060015f9054906101000a900473ffffffffffffffffffffffffffffffffffffffff1673ffffffffffffffffffffffffffffffffffffffff167f7b73f5d770f3eb41fd57f1e6a1c9e2a5ec61febbbd4e608d511c46e3fd61163960405161177190614207565b60405180910390a2565b600d5481565b60125f9054906101000a900460ff1681565b60015f9054906101000a900473ffffffffffffffffffffffffffffffffffffffff1673ffffffffffffffffffffffffffffffffffffffff163373ffffffffffffffffffffffffffffffffffffffff1614611822576040517f08c379a000000000000000000000000000000000000000000000000000000000815260040161181990613a30565b60405180910390fd5b61182a6133af565b6001600281111561183e5761183d6136d1565b5b60165f9054906101000a900460ff16600281111561185f5761185e6136d1565b5b1461189f576040517f08c379a00000000000000000000000000000000000000000000000000000000081526004016118969061426f565b60405180910390fd5b5f6118a8611074565b90505f60085490505f60088190555060025f9054906101000a900473ffffffffffffffffffffffffffffffffffffffff1673ffffffffffffffffffffffffffffffffffffffff166108fc8390811502906040515f60405180830381858888f1935050505015801561191b573d5f803e3d5ffd5b503373ffffffffffffffffffffffffffffffffffffffff167fa09244c122a83074363635dc89ce0098166c2f74827960ff64a7c8e6ad1c57a2826040516119629190613775565b60405180910390a250506119746133fc565b565b600f5481565b5f6003905090565b5f642e90edd000905090565b60015f9054906101000a900473ffffffffffffffffffffffffffffffffffffffff1673ffffffffffffffffffffffffffffffffffffffff163373ffffffffffffffffffffffffffffffffffffffff1614611a1f576040517f08c379a0000000000000000000000000000000000000000000000000000000008152600401611a1690613a30565b60405180910390fd5b611a276133af565b600854821115611a6c576040517f08c379a0000000000000000000000000000000000000000000000000000000008152600401611a63906142d7565b60405180910390fd5b8160085f828254611a7d9190613b7d565b9250508190555081600a5f828254611a959190613ae2565b9250508190555060015f9054906101000a900473ffffffffffffffffffffffffffffffffffffffff1673ffffffffffffffffffffffffffffffffffffffff166108fc8390811502906040515f60405180830381858888f19350505050158015611b00573d5f803e3d5ffd5b5060015f9054906101000a900473ffffffffffffffffffffffffffffffffffffffff1673ffffffffffffffffffffffffffffffffffffffff167f0e71db61460cade63bdce2bd520284d5fcde93eb8604be23456ac0761c5cb4d98383604051611b6a9291906142f5565b60405180910390a2611b7a6133fc565b5050565b60025f9054906101000a900473ffffffffffffffffffffffffffffffffffffffff1673ffffffffffffffffffffffffffffffffffffffff163373ffffffffffffffffffffffffffffffffffffffff1614611c0d576040517f08c379a0000000000000000000000000000000000000000000000000000000008152600401611c0490613e58565b60405180910390fd5b600280811115611c2057611c1f6136d1565b5b60165f9054906101000a900460ff166002811115611c4157611c406136d1565b5b14611c81576040517f08c379a0000000000000000000000000000000000000000000000000000000008152600401611c7890614393565b60405180910390fd5b60145f9054906101000a900460ff16611ccf576040517f08c379a0000000000000000000000000000000000000000000000000000000008152600401611cc690614421565b60405180910390fd5b600160165f6101000a81548160ff02191690836002811115611cf457611cf36136d1565b5b02179055505f60145f6101000a81548160ff0219169083151502179055503373ffffffffffffffffffffffffffffffffffffffff167f7b73f5d770f3eb41fd57f1e6a1c9e2a5ec61febbbd4e608d511c46e3fd611639604051611d56906144af565b60405180910390a2565b60025f9054906101000a900473ffffffffffffffffffffffffffffffffffffffff1673ffffffffffffffffffffffffffffffffffffffff163373ffffffffffffffffffffffffffffffffffffffff1614611def576040517f08c379a0000000000000000000000000000000000000000000000000000000008152600401611de690613e58565b60405180910390fd5b600160135f3373ffffffffffffffffffffffffffffffffffffffff1673ffffffffffffffffffffffffffffffffffffffff1681526020019081526020015f205f6101000a81548160ff021916908315150217905550565b60178181548110611e55575f80fd5b905f5260205f2090600302015f91509050805f015490806001015490806002015f9054906101000a900460ff16905083565b60025f9054906101000a900473ffffffffffffffffffffffffffffffffffffffff1673ffffffffffffffffffffffffffffffffffffffff163373ffffffffffffffffffffffffffffffffffffffff1614611f16576040517f08c379a0000000000000000000000000000000000000000000000000000000008152600401611f0d90613e58565b60405180910390fd5b611f1e6133af565b60016002811115611f3257611f316136d1565b5b60165f9054906101000a900460ff166002811115611f5357611f526136d1565b5b03611f93576040517f08c379a0000000000000000000000000000000000000000000000000000000008152600401611f8a90613ec0565b60405180910390fd5b5f60065f9054906101000a900460ff16156120b1576003549050600660019054906101000a900473ffffffffffffffffffffffffffffffffffffffff1673ffffffffffffffffffffffffffffffffffffffff166323b872dd3360015f9054906101000a900473ffffffffffffffffffffffffffffffffffffffff16846040518463ffffffff1660e01b815260040161202d93929190613f6c565b6020604051808303815f875af1158015612049573d5f803e3d5ffd5b505050506040513d601f19601f8201168201806040525081019061206d9190613fcb565b6120ac576040517f08c379a00000000000000000000000000000000000000000000000000000000081526004016120a390614517565b60405180910390fd5b6121e9565b5f6120ba611984565b9050806a52b7d2dcc80cd2e40000006003546120d69190613cf8565b6120e09190613bdd565b915081341015612125576040517f08c379a000000000000000000000000000000000000000000000000000000000815260040161211c9061457f565b60405180910390fd5b60015f9054906101000a900473ffffffffffffffffffffffffffffffffffffffff1673ffffffffffffffffffffffffffffffffffffffff166108fc8390811502906040515f60405180830381858888f19350505050158015612189573d5f803e3d5ffd5b50813411156121e7575f823461219f9190613b7d565b90503373ffffffffffffffffffffffffffffffffffffffff166108fc8290811502906040515f60405180830381858888f193505050501580156121e4573d5f803e3d5ffd5b50505b505b80600d54116121fe575f600d81905550612217565b80600d5f82825461220f9190613b7d565b925050819055505b6017604051806060016040528042815260200183815260200160065f9054906101000a900460ff161515815250908060018154018082558091505060019003905f5260205f2090600302015f909190919091505f820151815f0155602082015181600101556040820151816002015f6101000a81548160ff02191690831515021790555050503373ffffffffffffffffffffffffffffffffffffffff167fa0e44cc6f4f184bc83e145bf7f0cc703b7f698476124cf6a9d7d403d202e77fd8260065f9054906101000a900460ff166040516122f39291906140c6565b60405180910390a2506123046133fc565b565b60025f9054906101000a900473ffffffffffffffffffffffffffffffffffffffff1673ffffffffffffffffffffffffffffffffffffffff163373ffffffffffffffffffffffffffffffffffffffff1614612395576040517f08c379a000000000000000000000000000000000000000000000000000000000815260040161238c90613e58565b60405180910390fd5b5f60135f3373ffffffffffffffffffffffffffffffffffffffff1673ffffffffffffffffffffffffffffffffffffffff1681526020019081526020015f205f6101000a81548160ff021916908315150217905550565b60025f9054906101000a900473ffffffffffffffffffffffffffffffffffffffff1681565b60606017805480602002602001604051908101604052809291908181526020015f905b82821015612490578382905f5260205f2090600302016040518060600160405290815f820154815260200160018201548152602001600282015f9054906101000a900460ff16151515158152505081526020019060010190612433565b50505050905090565b60605f60028111156124ae576124ad6136d1565b5b60165f9054906101000a900460ff1660028111156124cf576124ce6136d1565b5b03612511576040518060400160405280600681526020017f416374697665000000000000000000000000000000000000000000000000000081525090506125c1565b60016002811115612525576125246136d1565b5b60165f9054906101000a900460ff166002811115612546576125456136d1565b5b03612588576040518060400160405280600a81526020017f5465726d696e617465640000000000000000000000000000000000000000000081525090506125c1565b6040518060400160405280601281526020017f50656e64696e675465726d696e6174696f6e000000000000000000000000000081525090505b90565b60025f9054906101000a900473ffffffffffffffffffffffffffffffffffffffff1673ffffffffffffffffffffffffffffffffffffffff163373ffffffffffffffffffffffffffffffffffffffff1614612653576040517f08c379a000000000000000000000000000000000000000000000000000000000815260040161264a90613e58565b60405180910390fd5b5f6002811115612666576126656136d1565b5b60165f9054906101000a900460ff166002811115612687576126866136d1565b5b146126c7576040517f08c379a00000000000000000000000000000000000000000000000000000000081526004016126be906145e7565b60405180910390fd5b600160125f6101000a81548160ff0219169083151502179055503373ffffffffffffffffffffffffffffffffffffffff167fe50dd892821a34ea6a05e9560e362467eb50bdaa8a01f3807e5778b21296a41a60405160405180910390a2565b60145f9054906101000a900460ff1681565b600660019054906101000a900473ffffffffffffffffffffffffffffffffffffffff1681565b60025f9054906101000a900473ffffffffffffffffffffffffffffffffffffffff1673ffffffffffffffffffffffffffffffffffffffff163373ffffffffffffffffffffffffffffffffffffffff16146127ed576040517f08c379a00000000000000000000000000000000000000000000000000000000081526004016127e490613e58565b60405180910390fd5b5f6002811115612800576127ff6136d1565b5b60165f9054906101000a900460ff166002811115612821576128206136d1565b5b14612861576040517f08c379a00000000000000000000000000000000000000000000000000000000081526004016128589061464f565b60405180910390fd5b6276a700426128709190613ae2565b600f81905550600260165f6101000a81548160ff0219169083600281111561289b5761289a6136d1565b5b02179055507f2032eea88030b7d191bcbdc44c5ac10ed559f3e9f56a319c896f007b55aba5c6600f546040516128d19190613775565b60405180910390a1565b60015f9054906101000a900473ffffffffffffffffffffffffffffffffffffffff1673ffffffffffffffffffffffffffffffffffffffff163373ffffffffffffffffffffffffffffffffffffffff161461296a576040517f08c379a000000000000000000000000000000000000000000000000000000000815260040161296190613a30565b60405180910390fd5b62093a8073__$f6bd971a7c05cea9d3394c8f102f387bcb$__635468af106015546040518263ffffffff1660e01b81526004016129a79190613a5d565b602060405180830381865af41580156129c2573d5f803e3d5ffd5b505050506040513d601f19601f820116820180604052508101906129e69190613a8a565b6129f09190613ae2565b4211612a31576040517f08c379a0000000000000000000000000000000000000000000000000000000008152600401612a28906146b7565b60405180910390fd5b6001600e5f6101000a81548160ff02191690831515021790555060025f9054906101000a900473ffffffffffffffffffffffffffffffffffffffff1673ffffffffffffffffffffffffffffffffffffffff167f8e0013ec8ea09fb2e5fc1733fcaa4d39f199b60c282b0300add067402b2aa91b60405160405180910390a2565b600b5481565b60015f9054906101000a900473ffffffffffffffffffffffffffffffffffffffff1681565b60015f9054906101000a900473ffffffffffffffffffffffffffffffffffffffff1673ffffffffffffffffffffffffffffffffffffffff163373ffffffffffffffffffffffffffffffffffffffff1614612b6b576040517f08c379a0000000000000000000000000000000000000000000000000000000008152600401612b6290613a30565b60405180910390fd5b600280811115612b7e57612b7d6136d1565b5b60165f9054906101000a900460ff166002811115612b9f57612b9e6136d1565b5b14612bdf576040517f08c379a0000000000000000000000000000000000000000000000000000000008152600401612bd69061471f565b60405180910390fd5b600f54421015612c24576040517f08c379a0000000000000000000000000000000000000000000000000000000008152600401612c1b90614787565b60405180910390fd5b600160165f6101000a81548160ff02191690836002811115612c4957612c486136d1565b5b021790555060015f9054906101000a900473ffffffffffffffffffffffffffffffffffffffff1673ffffffffffffffffffffffffffffffffffffffff167f7b73f5d770f3eb41fd57f1e6a1c9e2a5ec61febbbd4e608d511c46e3fd611639604051612cb39061483b565b60405180910390a2565b60015f9054906101000a900473ffffffffffffffffffffffffffffffffffffffff1673ffffffffffffffffffffffffffffffffffffffff163373ffffffffffffffffffffffffffffffffffffffff1614612d4c576040517f08c379a0000000000000000000000000000000000000000000000000000000008152600401612d4390613a30565b60405180910390fd5b60135f60025f9054906101000a900473ffffffffffffffffffffffffffffffffffffffff1673ffffffffffffffffffffffffffffffffffffffff1673ffffffffffffffffffffffffffffffffffffffff1681526020019081526020015f205f9054906101000a900460ff16612df6576040517f08c379a0000000000000000000000000000000000000000000000000000000008152600401612ded906148a3565b60405180910390fd5b5f6002811115612e0957612e086136d1565b5b60165f9054906101000a900460ff166002811115612e2a57612e296136d1565b5b14612e6a576040517f08c379a0000000000000000000000000000000000000000000000000000000008152600401612e6190613b5f565b60405180910390fd5b5f6003549050600660019054906101000a900473ffffffffffffffffffffffffffffffffffffffff1673ffffffffffffffffffffffffffffffffffffffff166323b872dd60025f9054906101000a900473ffffffffffffffffffffffffffffffffffffffff1660015f9054906101000a900473ffffffffffffffffffffffffffffffffffffffff16846040518463ffffffff1660e01b8152600401612f1193929190613f6c565b6020604051808303815f875af1158015612f2d573d5f803e3d5ffd5b505050506040513d601f19601f82011682018060405250810190612f519190613fcb565b612f90576040517f08c379a0000000000000000000000000000000000000000000000000000000008152600401612f879061490b565b60405180910390fd5b6017604051806060016040528042815260200183815260200160011515815250908060018154018082558091505060019003905f5260205f2090600302015f909190919091505f820151815f0155602082015181600101556040820151816002015f6101000a81548160ff021916908315150217905550505060025f9054906101000a900473ffffffffffffffffffffffffffffffffffffffff1673ffffffffffffffffffffffffffffffffffffffff167fa0e44cc6f4f184bc83e145bf7f0cc703b7f698476124cf6a9d7d403d202e77fd8260016040516130739291906140c6565b60405180910390a250565b600a5481565b60115481565b60028081111561309d5761309c6136d1565b5b60165f9054906101000a900460ff1660028111156130be576130bd6136d1565b5b146130fe576040517f08c379a00000000000000000000000000000000000000000000000000000000081526004016130f590614973565b60405180910390fd5b600f54421015613143576040517f08c379a000000000000000000000000000000000000000000000000000000000815260040161313a90614787565b60405180910390fd5b5f600d5414613187576040517f08c379a000000000000000000000000000000000000000000000000000000000815260040161317e906149db565b60405180910390fd5b600160165f6101000a81548160ff021916908360028111156131ac576131ab6136d1565b5b021790555060025f9054906101000a900473ffffffffffffffffffffffffffffffffffffffff1673ffffffffffffffffffffffffffffffffffffffff167f7b73f5d770f3eb41fd57f1e6a1c9e2a5ec61febbbd4e608d511c46e3fd61163960405161321690614a69565b60405180910390a2565b60035481565b60015f9054906101000a900473ffffffffffffffffffffffffffffffffffffffff1673ffffffffffffffffffffffffffffffffffffffff163373ffffffffffffffffffffffffffffffffffffffff16146132b5576040517f08c379a00000000000000000000000000000000000000000000000000000000081526004016132ac90613a30565b60405180910390fd5b6001151560125f9054906101000a900460ff1615151461330a576040517f08c379a000000000000000000000000000000000000000000000000000000000815260040161330190614af7565b60405180910390fd5b6001601260016101000a81548160ff0219169083151502179055506301e1338060105f82825461333a9190613ae2565b925050819055505f60125f6101000a81548160ff0219169083151502179055505f601260016101000a81548160ff0219169083151502179055507f9b92a9893c6f7c060109fbacf7a7ed7384b0d145f68541169a1a201ea42ce8546010546040516133a59190613775565b60405180910390a1565b60025f54036133f3576040517f08c379a00000000000000000000000000000000000000000000000000000000081526004016133ea90614b5f565b60405180910390fd5b60025f81905550565b60015f81905550565b5f604051905090565b5f80fd5b5f80fd5b5f80fd5b5f80fd5b5f601f19601f8301169050919050565b7f4e487b71000000000000000000000000000000000000000000000000000000005f52604160045260245ffd5b6134648261341e565b810181811067ffffffffffffffff821117156134835761348261342e565b5b80604052505050565b5f613495613405565b90506134a1828261345b565b919050565b5f67ffffffffffffffff8211156134c0576134bf61342e565b5b6134c98261341e565b9050602081019050919050565b828183375f83830152505050565b5f6134f66134f1846134a6565b61348c565b9050828152602081018484840111156135125761351161341a565b5b61351d8482856134d6565b509392505050565b5f82601f83011261353957613538613416565b5b81356135498482602086016134e4565b91505092915050565b5f602082840312156135675761356661340e565b5b5f82013567ffffffffffffffff81111561358457613583613412565b5b61359084828501613525565b91505092915050565b5f81519050919050565b5f82825260208201905092915050565b8281835e5f83830152505050565b5f6135cb82613599565b6135d581856135a3565b93506135e58185602086016135b3565b6135ee8161341e565b840191505092915050565b5f6020820190508181035f83015261361181846135c1565b905092915050565b5f8115159050919050565b61362d81613619565b82525050565b5f6020820190506136465f830184613624565b92915050565b5f73ffffffffffffffffffffffffffffffffffffffff82169050919050565b5f6136758261364c565b9050919050565b6136858161366b565b811461368f575f80fd5b50565b5f813590506136a08161367c565b92915050565b5f602082840312156136bb576136ba61340e565b5b5f6136c884828501613692565b91505092915050565b7f4e487b71000000000000000000000000000000000000000000000000000000005f52602160045260245ffd5b6003811061370f5761370e6136d1565b5b50565b5f81905061371f826136fe565b919050565b5f61372e82613712565b9050919050565b61373e81613724565b82525050565b5f6020820190506137575f830184613735565b92915050565b5f819050919050565b61376f8161375d565b82525050565b5f6020820190506137885f830184613766565b92915050565b6137978161375d565b81146137a1575f80fd5b50565b5f813590506137b28161378e565b92915050565b5f80604083850312156137ce576137cd61340e565b5b5f6137db858286016137a4565b925050602083013567ffffffffffffffff8111156137fc576137fb613412565b5b61380885828601613525565b9150509250929050565b5f602082840312156138275761382661340e565b5b5f613834848285016137a4565b91505092915050565b5f6060820190506138505f830186613766565b61385d6020830185613766565b61386a6040830184613624565b949350505050565b61387b8161366b565b82525050565b5f6020820190506138945f830184613872565b92915050565b5f81519050919050565b5f82825260208201905092915050565b5f819050602082019050919050565b6138cc8161375d565b82525050565b6138db81613619565b82525050565b606082015f8201516138f55f8501826138c3565b50602082015161390860208501826138c3565b50604082015161391b60408501826138d2565b50505050565b5f61392c83836138e1565b60608301905092915050565b5f602082019050919050565b5f61394e8261389a565b61395881856138a4565b9350613963836138b4565b805f5b8381101561399357815161397a8882613921565b975061398583613938565b925050600181019050613966565b5085935050505092915050565b5f6020820190508181035f8301526139b88184613944565b905092915050565b7f4f6e6c79206c616e646c6f72642063616e20706572666f726d207468697320615f8201527f6374696f6e000000000000000000000000000000000000000000000000000000602082015250565b5f613a1a6025836135a3565b9150613a25826139c0565b604082019050919050565b5f6020820190508181035f830152613a4781613a0e565b9050919050565b613a578161375d565b82525050565b5f602082019050613a705f830184613a4e565b92915050565b5f81519050613a848161378e565b92915050565b5f60208284031215613a9f57613a9e61340e565b5b5f613aac84828501613a76565b91505092915050565b7f4e487b71000000000000000000000000000000000000000000000000000000005f52601160045260245ffd5b5f613aec8261375d565b9150613af78361375d565b9250828201905080821115613b0f57613b0e613ab5565b5b92915050565b7f436f6e7472616374206973206e6f7420616374697665000000000000000000005f82015250565b5f613b496016836135a3565b9150613b5482613b15565b602082019050919050565b5f6020820190508181035f830152613b7681613b3d565b9050919050565b5f613b878261375d565b9150613b928361375d565b9250828203905081811115613baa57613ba9613ab5565b5b92915050565b7f4e487b71000000000000000000000000000000000000000000000000000000005f52601260045260245ffd5b5f613be78261375d565b9150613bf28361375d565b925082613c0257613c01613bb0565b5b828204905092915050565b7f4e487b71000000000000000000000000000000000000000000000000000000005f52602260045260245ffd5b5f6002820490506001821680613c5157607f821691505b602082108103613c6457613c63613c0d565b5b50919050565b7f436f6e7472616374206d7573742062652070656e64696e672074656d696e61745f8201527f696f6e0000000000000000000000000000000000000000000000000000000000602082015250565b5f613cc46023836135a3565b9150613ccf82613c6a565b604082019050919050565b5f6020820190508181035f830152613cf181613cb8565b9050919050565b5f613d028261375d565b9150613d0d8361375d565b9250828202613d1b8161375d565b91508282048414831517613d3257613d31613ab5565b5b5092915050565b7f4e6f2070656e64696e67207761726e696e6720746f20636f6e6669726d0000005f82015250565b5f613d6d601d836135a3565b9150613d7882613d39565b602082019050919050565b5f6020820190508181035f830152613d9a81613d61565b9050919050565b5f613dab8261375d565b91507fffffffffffffffffffffffffffffffffffffffffffffffffffffffffffffffff8203613ddd57613ddc613ab5565b5b600182019050919050565b7f4f6e6c792054656e616e742063616e20706572666f726d2074686973206163745f8201527f696f6e0000000000000000000000000000000000000000000000000000000000602082015250565b5f613e426023836135a3565b9150613e4d82613de8565b604082019050919050565b5f6020820190508181035f830152613e6f81613e36565b9050919050565b7f52656e74616c20636f6e7472616374206973206e6f74206163746976650000005f82015250565b5f613eaa601d836135a3565b9150613eb582613e76565b602082019050919050565b5f6020820190508181035f830152613ed781613e9e565b9050919050565b7f4e6f2045544820726571756972656420666f7220737461626c65636f696e20645f8201527f65706f7369740000000000000000000000000000000000000000000000000000602082015250565b5f613f386026836135a3565b9150613f4382613ede565b604082019050919050565b5f6020820190508181035f830152613f6581613f2c565b9050919050565b5f606082019050613f7f5f830186613872565b613f8c6020830185613872565b613f996040830184613766565b949350505050565b613faa81613619565b8114613fb4575f80fd5b50565b5f81519050613fc581613fa1565b92915050565b5f60208284031215613fe057613fdf61340e565b5b5f613fed84828501613fb7565b91505092915050565b7f537461626c65636f696e206465706f736974206661696c6564000000000000005f82015250565b5f61402a6019836135a3565b915061403582613ff6565b602082019050919050565b5f6020820190508181035f8301526140578161401e565b9050919050565b7f496e73756666696369656e74204554482073656e7400000000000000000000005f82015250565b5f6140926015836135a3565b915061409d8261405e565b602082019050919050565b5f6020820190508181035f8301526140bf81614086565b9050919050565b5f6040820190506140d95f830185613766565b6140e66020830184613624565b9392505050565b7f436f6e747261637420686173206e6f74206578706972656420796574000000005f82015250565b5f614121601c836135a3565b915061412c826140ed565b602082019050919050565b5f6020820190508181035f83015261414e81614115565b9050919050565b7f436f6e747261637420686173206265656e2072656e65776564000000000000005f82015250565b5f6141896019836135a3565b915061419482614155565b602082019050919050565b5f6020820190508181035f8301526141b68161417d565b9050919050565b7f436f6e7472616374206578706972656420776974686f75742072656e6577616c5f82015250565b5f6141f16020836135a3565b91506141fc826141bd565b602082019050919050565b5f6020820190508181035f83015261421e816141e5565b9050919050565b7f436f6e7472616374206d75737420626572207465726d696e61746564000000005f82015250565b5f614259601c836135a3565b915061426482614225565b602082019050919050565b5f6020820190508181035f8301526142868161424d565b9050919050565b7f446564756374696f6e2065786365656473206465706f73697420616d6f756e745f82015250565b5f6142c16020836135a3565b91506142cc8261428d565b602082019050919050565b5f6020820190508181035f8301526142ee816142b5565b9050919050565b5f6040820190506143085f830185613766565b818103602083015261431a81846135c1565b90509392505050565b7f436f6e747261637420206d7573742062652070656e64696e67207465726d696e5f8201527f6174696f6e000000000000000000000000000000000000000000000000000000602082015250565b5f61437d6025836135a3565b915061438882614323565b604082019050919050565b5f6020820190508181035f8301526143aa81614371565b9050919050565b7f4c616e646c6f726420686173206e6f7420726571756573746564206561726c795f8201527f207465726d696e6174696f6e0000000000000000000000000000000000000000602082015250565b5f61440b602c836135a3565b9150614416826143b1565b604082019050919050565b5f6020820190508181035f830152614438816143ff565b9050919050565b7f436f6e7472616374207465726d696e61746564206561726c79206279206d75745f8201527f75616c2061677265656d656e7400000000000000000000000000000000000000602082015250565b5f614499602d836135a3565b91506144a48261443f565b604082019050919050565b5f6020820190508181035f8301526144c68161448d565b9050919050565b7f537461626c65636f696e207061796d656e74206661696c6564000000000000005f82015250565b5f6145016019836135a3565b915061450c826144cd565b602082019050919050565b5f6020820190508181035f83015261452e816144f5565b9050919050565b7f496e737566666963656e74204554482073656e740000000000000000000000005f82015250565b5f6145696014836135a3565b915061457482614535565b602082019050919050565b5f6020820190508181035f8301526145968161455d565b9050919050565b7f436f6e74726163742068617320616c72656164792065787069726564000000005f82015250565b5f6145d1601c836135a3565b91506145dc8261459d565b602082019050919050565b5f6020820190508181035f8301526145fe816145c5565b9050919050565b7f436f6e7472616374206973206e6f7420416374697665000000000000000000005f82015250565b5f6146396016836135a3565b915061464482614605565b602082019050919050565b5f6020820190508181035f8301526146668161462d565b9050919050565b7f5761726e696e67206e6f74206170706c696361626c65207965740000000000005f82015250565b5f6146a1601a836135a3565b91506146ac8261466d565b602082019050919050565b5f6020820190508181035f8301526146ce81614695565b9050919050565b7f5465726d696e6174696f6e206e6f742073636864756c656400000000000000005f82015250565b5f6147096018836135a3565b9150614714826146d5565b602082019050919050565b5f6020820190508181035f830152614736816146fd565b9050919050565b7f5465726d696e6174696f6e20706572696f64206e6f74207265616368656400005f82015250565b5f614771601e836135a3565b915061477c8261473d565b602082019050919050565b5f6020820190508181035f83015261479e81614765565b9050919050565b7f4d6f7265207468616e2033207061796d656e74732077657265206e6f742072655f8201527f67697374657265642e20436f6e7472616374206973207465726d696e6174656460208201527f2e00000000000000000000000000000000000000000000000000000000000000604082015250565b5f6148256041836135a3565b9150614830826147a5565b606082019050919050565b5f6020820190508181035f83015261485281614819565b9050919050565b7f4175746f207061796d656e74206e6f7420617574686f72697a656400000000005f82015250565b5f61488d601b836135a3565b915061489882614859565b602082019050919050565b5f6020820190508181035f8301526148ba81614881565b9050919050565b7f4175746f20706179206661696c656400000000000000000000000000000000005f82015250565b5f6148f5600f836135a3565b9150614900826148c1565b602082019050919050565b5f6020820190508181035f830152614922816148e9565b9050919050565b7f5465726d696e6174696f6e206e6f74207363686564756c6564000000000000005f82015250565b5f61495d6019836135a3565b915061496882614929565b602082019050919050565b5f6020820190508181035f83015261498a81614951565b9050919050565b7f416c6c206465627473206d7573742062652070617965640000000000000000005f82015250565b5f6149c56017836135a3565b91506149d082614991565b602082019050919050565b5f6020820190508181035f8301526149f2816149b9565b9050919050565b7f54656e616e74207465726d696e6174656420746865206c6561736520616772655f8201527f656d656e74000000000000000000000000000000000000000000000000000000602082015250565b5f614a536025836135a3565b9150614a5e826149f9565b604082019050919050565b5f6020820190508181035f830152614a8081614a47565b9050919050565b7f54656e6e616e7420686173206e6f742061736b656420666f722072656e6577615f8201527f6c00000000000000000000000000000000000000000000000000000000000000602082015250565b5f614ae16021836135a3565b9150614aec82614a87565b604082019050919050565b5f6020820190508181035f830152614b0e81614ad5565b9050919050565b7f5265656e7472616e637947756172643a207265656e7472616e742063616c6c005f82015250565b5f614b49601f836135a3565b9150614b5482614b15565b602082019050919050565b5f6020820190508181035f830152614b7681614b3d565b905091905056fea26469706673582212208dd4a008e835d81245170901260de0a05ed1cc3bde14eb5a5cbf922d17f5687e64736f6c634300081a0033",
			"opcodes": "PUSH1 0x80 PUSH1 0x40 MSTORE CALLVALUE DUP1 ISZERO PUSH2 0xF JUMPI PUSH0 DUP1 REVERT JUMPDEST POP PUSH1 0x40 MLOAD PUSH2 0x587D CODESIZE SUB DUP1 PUSH2 0x587D DUP4 CODECOPY DUP2 DUP2 ADD PUSH1 0x40 MSTORE DUP2 ADD SWAP1 PUSH2 0x31 SWAP2 SWAP1 PUSH2 0x5F3 JUMP JUMPDEST PUSH1 0x1 PUSH0 DUP2 SWAP1 SSTORE POP PUSH0 PUSH20 0xFFFFFFFFFFFFFFFFFFFFFFFFFFFFFFFFFFFFFFFF AND DUP9 PUSH20 0xFFFFFFFFFFFFFFFFFFFFFFFFFFFFFFFFFFFFFFFF AND SUB PUSH2 0xA6 JUMPI PUSH1 0x40 MLOAD PUSH32 0x8C379A000000000000000000000000000000000000000000000000000000000 DUP2 MSTORE PUSH1 0x4 ADD PUSH2 0x9D SWAP1 PUSH2 0x71A JUMP JUMPDEST PUSH1 0x40 MLOAD DUP1 SWAP2 SUB SWAP1 REVERT JUMPDEST PUSH0 DUP8 GT PUSH2 0xE8 JUMPI PUSH1 0x40 MLOAD PUSH32 0x8C379A000000000000000000000000000000000000000000000000000000000 DUP2 MSTORE PUSH1 0x4 ADD PUSH2 0xDF SWAP1 PUSH2 0x7A8 JUMP JUMPDEST PUSH1 0x40 MLOAD DUP1 SWAP2 SUB SWAP1 REVERT JUMPDEST PUSH0 DUP7 LT ISZERO PUSH2 0x12B JUMPI PUSH1 0x40 MLOAD PUSH32 0x8C379A000000000000000000000000000000000000000000000000000000000 DUP2 MSTORE PUSH1 0x4 ADD PUSH2 0x122 SWAP1 PUSH2 0x836 JUMP JUMPDEST PUSH1 0x40 MLOAD DUP1 SWAP2 SUB SWAP1 REVERT JUMPDEST PUSH0 DUP6 MLOAD GT PUSH2 0x16E JUMPI PUSH1 0x40 MLOAD PUSH32 0x8C379A000000000000000000000000000000000000000000000000000000000 DUP2 MSTORE PUSH1 0x4 ADD PUSH2 0x165 SWAP1 PUSH2 0x89E JUMP JUMPDEST PUSH1 0x40 MLOAD DUP1 SWAP2 SUB SWAP1 REVERT JUMPDEST CALLER PUSH1 0x1 PUSH0 PUSH2 0x100 EXP DUP2 SLOAD DUP2 PUSH20 0xFFFFFFFFFFFFFFFFFFFFFFFFFFFFFFFFFFFFFFFF MUL NOT AND SWAP1 DUP4 PUSH20 0xFFFFFFFFFFFFFFFFFFFFFFFFFFFFFFFFFFFFFFFF AND MUL OR SWAP1 SSTORE POP DUP8 PUSH1 0x2 PUSH0 PUSH2 0x100 EXP DUP2 SLOAD DUP2 PUSH20 0xFFFFFFFFFFFFFFFFFFFFFFFFFFFFFFFFFFFFFFFF MUL NOT AND SWAP1 DUP4 PUSH20 0xFFFFFFFFFFFFFFFFFFFFFFFFFFFFFFFFFFFFFFFF AND MUL OR SWAP1 SSTORE POP DUP7 PUSH1 0x3 DUP2 SWAP1 SSTORE POP DUP6 PUSH1 0x4 DUP2 SWAP1 SSTORE POP DUP5 PUSH1 0x5 SWAP1 DUP2 PUSH2 0x20B SWAP2 SWAP1 PUSH2 0xAC0 JUMP JUMPDEST POP DUP4 PUSH1 0x6 PUSH0 PUSH2 0x100 EXP DUP2 SLOAD DUP2 PUSH1 0xFF MUL NOT AND SWAP1 DUP4 ISZERO ISZERO MUL OR SWAP1 SSTORE POP DUP3 PUSH1 0x6 PUSH1 0x1 PUSH2 0x100 EXP DUP2 SLOAD DUP2 PUSH20 0xFFFFFFFFFFFFFFFFFFFFFFFFFFFFFFFFFFFFFFFF MUL NOT AND SWAP1 DUP4 PUSH20 0xFFFFFFFFFFFFFFFFFFFFFFFFFFFFFFFFFFFFFFFF AND MUL OR SWAP1 SSTORE POP DUP2 PUSH1 0x7 PUSH0 PUSH2 0x100 EXP DUP2 SLOAD DUP2 PUSH20 0xFFFFFFFFFFFFFFFFFFFFFFFFFFFFFFFFFFFFFFFF MUL NOT AND SWAP1 DUP4 PUSH20 0xFFFFFFFFFFFFFFFFFFFFFFFFFFFFFFFFFFFFFFFF AND MUL OR SWAP1 SSTORE POP PUSH0 PUSH1 0x16 PUSH0 PUSH2 0x100 EXP DUP2 SLOAD DUP2 PUSH1 0xFF MUL NOT AND SWAP1 DUP4 PUSH1 0x2 DUP2 GT ISZERO PUSH2 0x2CA JUMPI PUSH2 0x2C9 PUSH2 0xB8F JUMP JUMPDEST JUMPDEST MUL OR SWAP1 SSTORE POP TIMESTAMP PUSH1 0x9 DUP2 SWAP1 SSTORE POP PUSH0 PUSH1 0xA DUP2 SWAP1 SSTORE POP DUP1 PUSH1 0xB DUP2 SWAP1 SSTORE POP PUSH0 PUSH1 0xC DUP2 SWAP1 SSTORE POP PUSH0 PUSH1 0xD DUP2 SWAP1 SSTORE POP PUSH0 PUSH1 0xE PUSH0 PUSH2 0x100 EXP DUP2 SLOAD DUP2 PUSH1 0xFF MUL NOT AND SWAP1 DUP4 ISZERO ISZERO MUL OR SWAP1 SSTORE POP PUSH0 PUSH1 0xF DUP2 SWAP1 SSTORE POP TIMESTAMP PUSH1 0x11 DUP2 SWAP1 SSTORE POP PUSH4 0x1E13380 TIMESTAMP PUSH2 0x329 SWAP2 SWAP1 PUSH2 0xBE9 JUMP JUMPDEST PUSH1 0x10 DUP2 SWAP1 SSTORE POP PUSH1 0x2 PUSH0 SWAP1 SLOAD SWAP1 PUSH2 0x100 EXP SWAP1 DIV PUSH20 0xFFFFFFFFFFFFFFFFFFFFFFFFFFFFFFFFFFFFFFFF AND PUSH20 0xFFFFFFFFFFFFFFFFFFFFFFFFFFFFFFFFFFFFFFFF AND PUSH1 0x1 PUSH0 SWAP1 SLOAD SWAP1 PUSH2 0x100 EXP SWAP1 DIV PUSH20 0xFFFFFFFFFFFFFFFFFFFFFFFFFFFFFFFFFFFFFFFF AND PUSH20 0xFFFFFFFFFFFFFFFFFFFFFFFFFFFFFFFFFFFFFFFF AND PUSH32 0x4F1197914A173D10D32A79E20A053170D7DAFB93E77CC4F686CE07CDFA0C20FD PUSH1 0x5 PUSH1 0x40 MLOAD PUSH2 0x3CF SWAP2 SWAP1 PUSH2 0xC9D JUMP JUMPDEST PUSH1 0x40 MLOAD DUP1 SWAP2 SUB SWAP1 LOG3 POP POP POP POP POP POP POP POP PUSH2 0xCBD JUMP JUMPDEST PUSH0 PUSH1 0x40 MLOAD SWAP1 POP SWAP1 JUMP JUMPDEST PUSH0 DUP1 REVERT JUMPDEST PUSH0 DUP1 REVERT JUMPDEST PUSH0 PUSH20 0xFFFFFFFFFFFFFFFFFFFFFFFFFFFFFFFFFFFFFFFF DUP3 AND SWAP1 POP SWAP2 SWAP1 POP JUMP JUMPDEST PUSH0 PUSH2 0x41E DUP3 PUSH2 0x3F5 JUMP JUMPDEST SWAP1 POP SWAP2 SWAP1 POP JUMP JUMPDEST PUSH2 0x42E DUP2 PUSH2 0x414 JUMP JUMPDEST DUP2 EQ PUSH2 0x438 JUMPI PUSH0 DUP1 REVERT JUMPDEST POP JUMP JUMPDEST PUSH0 DUP2 MLOAD SWAP1 POP PUSH2 0x449 DUP2 PUSH2 0x425 JUMP JUMPDEST SWAP3 SWAP2 POP POP JUMP JUMPDEST PUSH0 DUP2 SWAP1 POP SWAP2 SWAP1 POP JUMP JUMPDEST PUSH2 0x461 DUP2 PUSH2 0x44F JUMP JUMPDEST DUP2 EQ PUSH2 0x46B JUMPI PUSH0 DUP1 REVERT JUMPDEST POP JUMP JUMPDEST PUSH0 DUP2 MLOAD SWAP1 POP PUSH2 0x47C DUP2 PUSH2 0x458 JUMP JUMPDEST SWAP3 SWAP2 POP POP JUMP JUMPDEST PUSH0 DUP1 REVERT JUMPDEST PUSH0 DUP1 REVERT JUMPDEST PUSH0 PUSH1 0x1F NOT PUSH1 0x1F DUP4 ADD AND SWAP1 POP SWAP2 SWAP1 POP JUMP JUMPDEST PUSH32 0x4E487B7100000000000000000000000000000000000000000000000000000000 PUSH0 MSTORE PUSH1 0x41 PUSH1 0x4 MSTORE PUSH1 0x24 PUSH0 REVERT JUMPDEST PUSH2 0x4D0 DUP3 PUSH2 0x48A JUMP JUMPDEST DUP2 ADD DUP2 DUP2 LT PUSH8 0xFFFFFFFFFFFFFFFF DUP3 GT OR ISZERO PUSH2 0x4EF JUMPI PUSH2 0x4EE PUSH2 0x49A JUMP JUMPDEST JUMPDEST DUP1 PUSH1 0x40 MSTORE POP POP POP JUMP JUMPDEST PUSH0 PUSH2 0x501 PUSH2 0x3E4 JUMP JUMPDEST SWAP1 POP PUSH2 0x50D DUP3 DUP3 PUSH2 0x4C7 JUMP JUMPDEST SWAP2 SWAP1 POP JUMP JUMPDEST PUSH0 PUSH8 0xFFFFFFFFFFFFFFFF DUP3 GT ISZERO PUSH2 0x52C JUMPI PUSH2 0x52B PUSH2 0x49A JUMP JUMPDEST JUMPDEST PUSH2 0x535 DUP3 PUSH2 0x48A JUMP JUMPDEST SWAP1 POP PUSH1 0x20 DUP2 ADD SWAP1 POP SWAP2 SWAP1 POP JUMP JUMPDEST DUP3 DUP2 DUP4 MCOPY PUSH0 DUP4 DUP4 ADD MSTORE POP POP POP JUMP JUMPDEST PUSH0 PUSH2 0x562 PUSH2 0x55D DUP5 PUSH2 0x512 JUMP JUMPDEST PUSH2 0x4F8 JUMP JUMPDEST SWAP1 POP DUP3 DUP2 MSTORE PUSH1 0x20 DUP2 ADD DUP5 DUP5 DUP5 ADD GT ISZERO PUSH2 0x57E JUMPI PUSH2 0x57D PUSH2 0x486 JUMP JUMPDEST JUMPDEST PUSH2 0x589 DUP5 DUP3 DUP6 PUSH2 0x542 JUMP JUMPDEST POP SWAP4 SWAP3 POP POP POP JUMP JUMPDEST PUSH0 DUP3 PUSH1 0x1F DUP4 ADD SLT PUSH2 0x5A5 JUMPI PUSH2 0x5A4 PUSH2 0x482 JUMP JUMPDEST JUMPDEST DUP2 MLOAD PUSH2 0x5B5 DUP5 DUP3 PUSH1 0x20 DUP7 ADD PUSH2 0x550 JUMP JUMPDEST SWAP2 POP POP SWAP3 SWAP2 POP POP JUMP JUMPDEST PUSH0 DUP2 ISZERO ISZERO SWAP1 POP SWAP2 SWAP1 POP JUMP JUMPDEST PUSH2 0x5D2 DUP2 PUSH2 0x5BE JUMP JUMPDEST DUP2 EQ PUSH2 0x5DC JUMPI PUSH0 DUP1 REVERT JUMPDEST POP JUMP JUMPDEST PUSH0 DUP2 MLOAD SWAP1 POP PUSH2 0x5ED DUP2 PUSH2 0x5C9 JUMP JUMPDEST SWAP3 SWAP2 POP POP JUMP JUMPDEST PUSH0 DUP1 PUSH0 DUP1 PUSH0 DUP1 PUSH0 DUP1 PUSH2 0x100 DUP10 DUP12 SUB SLT ISZERO PUSH2 0x610 JUMPI PUSH2 0x60F PUSH2 0x3ED JUMP JUMPDEST JUMPDEST PUSH0 PUSH2 0x61D DUP12 DUP3 DUP13 ADD PUSH2 0x43B JUMP JUMPDEST SWAP9 POP POP PUSH1 0x20 PUSH2 0x62E DUP12 DUP3 DUP13 ADD PUSH2 0x46E JUMP JUMPDEST SWAP8 POP POP PUSH1 0x40 PUSH2 0x63F DUP12 DUP3 DUP13 ADD PUSH2 0x46E JUMP JUMPDEST SWAP7 POP POP PUSH1 0x60 DUP10 ADD MLOAD PUSH8 0xFFFFFFFFFFFFFFFF DUP2 GT ISZERO PUSH2 0x660 JUMPI PUSH2 0x65F PUSH2 0x3F1 JUMP JUMPDEST JUMPDEST PUSH2 0x66C DUP12 DUP3 DUP13 ADD PUSH2 0x591 JUMP JUMPDEST SWAP6 POP POP PUSH1 0x80 PUSH2 0x67D DUP12 DUP3 DUP13 ADD PUSH2 0x5DF JUMP JUMPDEST SWAP5 POP POP PUSH1 0xA0 PUSH2 0x68E DUP12 DUP3 DUP13 ADD PUSH2 0x43B JUMP JUMPDEST SWAP4 POP POP PUSH1 0xC0 PUSH2 0x69F DUP12 DUP3 DUP13 ADD PUSH2 0x43B JUMP JUMPDEST SWAP3 POP POP PUSH1 0xE0 PUSH2 0x6B0 DUP12 DUP3 DUP13 ADD PUSH2 0x46E JUMP JUMPDEST SWAP2 POP POP SWAP3 SWAP6 SWAP9 POP SWAP3 SWAP6 SWAP9 SWAP1 SWAP4 SWAP7 POP JUMP JUMPDEST PUSH0 DUP3 DUP3 MSTORE PUSH1 0x20 DUP3 ADD SWAP1 POP SWAP3 SWAP2 POP POP JUMP JUMPDEST PUSH32 0x496E76616C69642074656E616E74206164647265737300000000000000000000 PUSH0 DUP3 ADD MSTORE POP JUMP JUMPDEST PUSH0 PUSH2 0x704 PUSH1 0x16 DUP4 PUSH2 0x6C0 JUMP JUMPDEST SWAP2 POP PUSH2 0x70F DUP3 PUSH2 0x6D0 JUMP JUMPDEST PUSH1 0x20 DUP3 ADD SWAP1 POP SWAP2 SWAP1 POP JUMP JUMPDEST PUSH0 PUSH1 0x20 DUP3 ADD SWAP1 POP DUP2 DUP2 SUB PUSH0 DUP4 ADD MSTORE PUSH2 0x731 DUP2 PUSH2 0x6F8 JUMP JUMPDEST SWAP1 POP SWAP2 SWAP1 POP JUMP JUMPDEST PUSH32 0x52656E7420616D6F756E74206D7573742062652067726561746572207468616E PUSH0 DUP3 ADD MSTORE PUSH32 0x2030000000000000000000000000000000000000000000000000000000000000 PUSH1 0x20 DUP3 ADD MSTORE POP JUMP JUMPDEST PUSH0 PUSH2 0x792 PUSH1 0x22 DUP4 PUSH2 0x6C0 JUMP JUMPDEST SWAP2 POP PUSH2 0x79D DUP3 PUSH2 0x738 JUMP JUMPDEST PUSH1 0x40 DUP3 ADD SWAP1 POP SWAP2 SWAP1 POP JUMP JUMPDEST PUSH0 PUSH1 0x20 DUP3 ADD SWAP1 POP DUP2 DUP2 SUB PUSH0 DUP4 ADD MSTORE PUSH2 0x7BF DUP2 PUSH2 0x786 JUMP JUMPDEST SWAP1 POP SWAP2 SWAP1 POP JUMP JUMPDEST PUSH32 0x4465706F73697420616D6F756E74206D757374206265206E6F6E2D6E65676174 PUSH0 DUP3 ADD MSTORE PUSH32 0x6976650000000000000000000000000000000000000000000000000000000000 PUSH1 0x20 DUP3 ADD MSTORE POP JUMP JUMPDEST PUSH0 PUSH2 0x820 PUSH1 0x23 DUP4 PUSH2 0x6C0 JUMP JUMPDEST SWAP2 POP PUSH2 0x82B DUP3 PUSH2 0x7C6 JUMP JUMPDEST PUSH1 0x40 DUP3 ADD SWAP1 POP SWAP2 SWAP1 POP JUMP JUMPDEST PUSH0 PUSH1 0x20 DUP3 ADD SWAP1 POP DUP2 DUP2 SUB PUSH0 DUP4 ADD MSTORE PUSH2 0x84D DUP2 PUSH2 0x814 JUMP JUMPDEST SWAP1 POP SWAP2 SWAP1 POP JUMP JUMPDEST PUSH32 0x495046532068617368206D757374206265207365740000000000000000000000 PUSH0 DUP3 ADD MSTORE POP JUMP JUMPDEST PUSH0 PUSH2 0x888 PUSH1 0x15 DUP4 PUSH2 0x6C0 JUMP JUMPDEST SWAP2 POP PUSH2 0x893 DUP3 PUSH2 0x854 JUMP JUMPDEST PUSH1 0x20 DUP3 ADD SWAP1 POP SWAP2 SWAP1 POP JUMP JUMPDEST PUSH0 PUSH1 0x20 DUP3 ADD SWAP1 POP DUP2 DUP2 SUB PUSH0 DUP4 ADD MSTORE PUSH2 0x8B5 DUP2 PUSH2 0x87C JUMP JUMPDEST SWAP1 POP SWAP2 SWAP1 POP JUMP JUMPDEST PUSH0 DUP2 MLOAD SWAP1 POP SWAP2 SWAP1 POP JUMP JUMPDEST PUSH32 0x4E487B7100000000000000000000000000000000000000000000000000000000 PUSH0 MSTORE PUSH1 0x22 PUSH1 0x4 MSTORE PUSH1 0x24 PUSH0 REVERT JUMPDEST PUSH0 PUSH1 0x2 DUP3 DIV SWAP1 POP PUSH1 0x1 DUP3 AND DUP1 PUSH2 0x90A JUMPI PUSH1 0x7F DUP3 AND SWAP2 POP JUMPDEST PUSH1 0x20 DUP3 LT DUP2 SUB PUSH2 0x91D JUMPI PUSH2 0x91C PUSH2 0x8C6 JUMP JUMPDEST JUMPDEST POP SWAP2 SWAP1 POP JUMP JUMPDEST PUSH0 DUP2 SWAP1 POP DUP2 PUSH0 MSTORE PUSH1 0x20 PUSH0 KECCAK256 SWAP1 POP SWAP2 SWAP1 POP JUMP JUMPDEST PUSH0 PUSH1 0x20 PUSH1 0x1F DUP4 ADD DIV SWAP1 POP SWAP2 SWAP1 POP JUMP JUMPDEST PUSH0 DUP3 DUP3 SHL SWAP1 POP SWAP3 SWAP2 POP POP JUMP JUMPDEST PUSH0 PUSH1 0x8 DUP4 MUL PUSH2 0x97F PUSH32 0xFFFFFFFFFFFFFFFFFFFFFFFFFFFFFFFFFFFFFFFFFFFFFFFFFFFFFFFFFFFFFFFF DUP3 PUSH2 0x944 JUMP JUMPDEST PUSH2 0x989 DUP7 DUP4 PUSH2 0x944 JUMP JUMPDEST SWAP6 POP DUP1 NOT DUP5 AND SWAP4 POP DUP1 DUP7 AND DUP5 OR SWAP3 POP POP POP SWAP4 SWAP3 POP POP POP JUMP JUMPDEST PUSH0 DUP2 SWAP1 POP SWAP2 SWAP1 POP JUMP JUMPDEST PUSH0 PUSH2 0x9C4 PUSH2 0x9BF PUSH2 0x9BA DUP5 PUSH2 0x44F JUMP JUMPDEST PUSH2 0x9A1 JUMP JUMPDEST PUSH2 0x44F JUMP JUMPDEST SWAP1 POP SWAP2 SWAP1 POP JUMP JUMPDEST PUSH0 DUP2 SWAP1 POP SWAP2 SWAP1 POP JUMP JUMPDEST PUSH2 0x9DD DUP4 PUSH2 0x9AA JUMP JUMPDEST PUSH2 0x9F1 PUSH2 0x9E9 DUP3 PUSH2 0x9CB JUMP JUMPDEST DUP5 DUP5 SLOAD PUSH2 0x950 JUMP JUMPDEST DUP3 SSTORE POP POP POP POP JUMP JUMPDEST PUSH0 SWAP1 JUMP JUMPDEST PUSH2 0xA05 PUSH2 0x9F9 JUMP JUMPDEST PUSH2 0xA10 DUP2 DUP5 DUP5 PUSH2 0x9D4 JUMP JUMPDEST POP POP POP JUMP JUMPDEST JUMPDEST DUP2 DUP2 LT ISZERO PUSH2 0xA33 JUMPI PUSH2 0xA28 PUSH0 DUP3 PUSH2 0x9FD JUMP JUMPDEST PUSH1 0x1 DUP2 ADD SWAP1 POP PUSH2 0xA16 JUMP JUMPDEST POP POP JUMP JUMPDEST PUSH1 0x1F DUP3 GT ISZERO PUSH2 0xA78 JUMPI PUSH2 0xA49 DUP2 PUSH2 0x923 JUMP JUMPDEST PUSH2 0xA52 DUP5 PUSH2 0x935 JUMP JUMPDEST DUP2 ADD PUSH1 0x20 DUP6 LT ISZERO PUSH2 0xA61 JUMPI DUP2 SWAP1 POP JUMPDEST PUSH2 0xA75 PUSH2 0xA6D DUP6 PUSH2 0x935 JUMP JUMPDEST DUP4 ADD DUP3 PUSH2 0xA15 JUMP JUMPDEST POP POP JUMPDEST POP POP POP JUMP JUMPDEST PUSH0 DUP3 DUP3 SHR SWAP1 POP SWAP3 SWAP2 POP POP JUMP JUMPDEST PUSH0 PUSH2 0xA98 PUSH0 NOT DUP5 PUSH1 0x8 MUL PUSH2 0xA7D JUMP JUMPDEST NOT DUP1 DUP4 AND SWAP2 POP POP SWAP3 SWAP2 POP POP JUMP JUMPDEST PUSH0 PUSH2 0xAB0 DUP4 DUP4 PUSH2 0xA89 JUMP JUMPDEST SWAP2 POP DUP3 PUSH1 0x2 MUL DUP3 OR SWAP1 POP SWAP3 SWAP2 POP POP JUMP JUMPDEST PUSH2 0xAC9 DUP3 PUSH2 0x8BC JUMP JUMPDEST PUSH8 0xFFFFFFFFFFFFFFFF DUP2 GT ISZERO PUSH2 0xAE2 JUMPI PUSH2 0xAE1 PUSH2 0x49A JUMP JUMPDEST JUMPDEST PUSH2 0xAEC DUP3 SLOAD PUSH2 0x8F3 JUMP JUMPDEST PUSH2 0xAF7 DUP3 DUP3 DUP6 PUSH2 0xA37 JUMP JUMPDEST PUSH0 PUSH1 0x20 SWAP1 POP PUSH1 0x1F DUP4 GT PUSH1 0x1 DUP2 EQ PUSH2 0xB28 JUMPI PUSH0 DUP5 ISZERO PUSH2 0xB16 JUMPI DUP3 DUP8 ADD MLOAD SWAP1 POP JUMPDEST PUSH2 0xB20 DUP6 DUP3 PUSH2 0xAA5 JUMP JUMPDEST DUP7 SSTORE POP PUSH2 0xB87 JUMP JUMPDEST PUSH1 0x1F NOT DUP5 AND PUSH2 0xB36 DUP7 PUSH2 0x923 JUMP JUMPDEST PUSH0 JUMPDEST DUP3 DUP2 LT ISZERO PUSH2 0xB5D JUMPI DUP5 DUP10 ADD MLOAD DUP3 SSTORE PUSH1 0x1 DUP3 ADD SWAP2 POP PUSH1 0x20 DUP6 ADD SWAP5 POP PUSH1 0x20 DUP2 ADD SWAP1 POP PUSH2 0xB38 JUMP JUMPDEST DUP7 DUP4 LT ISZERO PUSH2 0xB7A JUMPI DUP5 DUP10 ADD MLOAD PUSH2 0xB76 PUSH1 0x1F DUP10 AND DUP3 PUSH2 0xA89 JUMP JUMPDEST DUP4 SSTORE POP JUMPDEST PUSH1 0x1 PUSH1 0x2 DUP9 MUL ADD DUP9 SSTORE POP POP POP JUMPDEST POP POP POP POP POP POP JUMP JUMPDEST PUSH32 0x4E487B7100000000000000000000000000000000000000000000000000000000 PUSH0 MSTORE PUSH1 0x21 PUSH1 0x4 MSTORE PUSH1 0x24 PUSH0 REVERT JUMPDEST PUSH32 0x4E487B7100000000000000000000000000000000000000000000000000000000 PUSH0 MSTORE PUSH1 0x11 PUSH1 0x4 MSTORE PUSH1 0x24 PUSH0 REVERT JUMPDEST PUSH0 PUSH2 0xBF3 DUP3 PUSH2 0x44F JUMP JUMPDEST SWAP2 POP PUSH2 0xBFE DUP4 PUSH2 0x44F JUMP JUMPDEST SWAP3 POP DUP3 DUP3 ADD SWAP1 POP DUP1 DUP3 GT ISZERO PUSH2 0xC16 JUMPI PUSH2 0xC15 PUSH2 0xBBC JUMP JUMPDEST JUMPDEST SWAP3 SWAP2 POP POP JUMP JUMPDEST PUSH0 DUP2 SLOAD PUSH2 0xC28 DUP2 PUSH2 0x8F3 JUMP JUMPDEST PUSH2 0xC32 DUP2 DUP7 PUSH2 0x6C0 JUMP JUMPDEST SWAP5 POP PUSH1 0x1 DUP3 AND PUSH0 DUP2 EQ PUSH2 0xC4C JUMPI PUSH1 0x1 DUP2 EQ PUSH2 0xC62 JUMPI PUSH2 0xC94 JUMP JUMPDEST PUSH1 0xFF NOT DUP4 AND DUP7 MSTORE DUP2 ISZERO ISZERO PUSH1 0x20 MUL DUP7 ADD SWAP4 POP PUSH2 0xC94 JUMP JUMPDEST PUSH2 0xC6B DUP6 PUSH2 0x923 JUMP JUMPDEST PUSH0 JUMPDEST DUP4 DUP2 LT ISZERO PUSH2 0xC8C JUMPI DUP2 SLOAD DUP2 DUP10 ADD MSTORE PUSH1 0x1 DUP3 ADD SWAP2 POP PUSH1 0x20 DUP2 ADD SWAP1 POP PUSH2 0xC6D JUMP JUMPDEST DUP1 DUP9 ADD SWAP6 POP POP POP JUMPDEST POP POP POP SWAP3 SWAP2 POP POP JUMP JUMPDEST PUSH0 PUSH1 0x20 DUP3 ADD SWAP1 POP DUP2 DUP2 SUB PUSH0 DUP4 ADD MSTORE PUSH2 0xCB5 DUP2 DUP5 PUSH2 0xC1C JUMP JUMPDEST SWAP1 POP SWAP3 SWAP2 POP POP JUMP JUMPDEST PUSH2 0x4BB3 DUP1 PUSH2 0xCCA PUSH0 CODECOPY PUSH0 RETURN INVALID PUSH1 0x80 PUSH1 0x40 MSTORE PUSH1 0x4 CALLDATASIZE LT PUSH2 0x2C8 JUMPI PUSH0 CALLDATALOAD PUSH1 0xE0 SHR DUP1 PUSH4 0x7F91DF9C GT PUSH2 0x174 JUMPI DUP1 PUSH4 0xD077FB10 GT PUSH2 0xDB JUMPI DUP1 PUSH4 0xDD66857F GT PUSH2 0x94 JUMPI DUP1 PUSH4 0xF24BB69B GT PUSH2 0x6E JUMPI DUP1 PUSH4 0xF24BB69B EQ PUSH2 0x90E JUMPI DUP1 PUSH4 0xF84A0F2D EQ PUSH2 0x938 JUMPI DUP1 PUSH4 0xF8EF1E13 EQ PUSH2 0x94E JUMPI DUP1 PUSH4 0xF8FD0501 EQ PUSH2 0x978 JUMPI PUSH2 0x2C8 JUMP JUMPDEST DUP1 PUSH4 0xDD66857F EQ PUSH2 0x8B8 JUMPI DUP1 PUSH4 0xE36A03E0 EQ PUSH2 0x8CE JUMPI DUP1 PUSH4 0xEA9E7F6A EQ PUSH2 0x8E4 JUMPI PUSH2 0x2C8 JUMP JUMPDEST DUP1 PUSH4 0xD077FB10 EQ PUSH2 0x7E4 JUMPI DUP1 PUSH4 0xD39763C8 EQ PUSH2 0x80E JUMPI DUP1 PUSH4 0xD426E155 EQ PUSH2 0x838 JUMPI DUP1 PUSH4 0xD6E82DCA EQ PUSH2 0x84E JUMPI DUP1 PUSH4 0xD9EF0459 EQ PUSH2 0x864 JUMPI DUP1 PUSH4 0xDC1997EA EQ PUSH2 0x88E JUMPI PUSH2 0x2C8 JUMP JUMPDEST DUP1 PUSH4 0xA709C4FE GT PUSH2 0x12D JUMPI DUP1 PUSH4 0xA709C4FE EQ PUSH2 0x730 JUMPI DUP1 PUSH4 0xAA018005 EQ PUSH2 0x73A JUMPI DUP1 PUSH4 0xADF07791 EQ PUSH2 0x750 JUMPI DUP1 PUSH4 0xB651BB61 EQ PUSH2 0x77A JUMPI DUP1 PUSH4 0xC3EFC734 EQ PUSH2 0x7A4 JUMPI DUP1 PUSH4 0xC418C525 EQ PUSH2 0x7CE JUMPI PUSH2 0x2C8 JUMP JUMPDEST DUP1 PUSH4 0x7F91DF9C EQ PUSH2 0x64A JUMPI DUP1 PUSH4 0x8E15F473 EQ PUSH2 0x674 JUMPI DUP1 PUSH4 0x8E7F727F EQ PUSH2 0x69E JUMPI DUP1 PUSH4 0x9378B8C1 EQ PUSH2 0x6C6 JUMPI DUP1 PUSH4 0x9F1F9082 EQ PUSH2 0x6DC JUMPI DUP1 PUSH4 0xA5E047B8 EQ PUSH2 0x6F2 JUMPI PUSH2 0x2C8 JUMP JUMPDEST DUP1 PUSH4 0x36EC98EF GT PUSH2 0x233 JUMPI DUP1 PUSH4 0x5C274B86 GT PUSH2 0x1EC JUMPI DUP1 PUSH4 0x775E9FCE GT PUSH2 0x1C6 JUMPI DUP1 PUSH4 0x775E9FCE EQ PUSH2 0x5B6 JUMPI DUP1 PUSH4 0x7E076249 EQ PUSH2 0x5E0 JUMPI DUP1 PUSH4 0x7E88F603 EQ PUSH2 0x60A JUMPI DUP1 PUSH4 0x7EC3110C EQ PUSH2 0x620 JUMPI PUSH2 0x2C8 JUMP JUMPDEST DUP1 PUSH4 0x5C274B86 EQ PUSH2 0x56C JUMPI DUP1 PUSH4 0x61BC1A49 EQ PUSH2 0x576 JUMPI DUP1 PUSH4 0x6845071D EQ PUSH2 0x5A0 JUMPI PUSH2 0x2C8 JUMP JUMPDEST DUP1 PUSH4 0x36EC98EF EQ PUSH2 0x484 JUMPI DUP1 PUSH4 0x3E3BD90E EQ PUSH2 0x4AE JUMPI DUP1 PUSH4 0x419759F5 EQ PUSH2 0x4D8 JUMPI DUP1 PUSH4 0x4D5DCA5A EQ PUSH2 0x502 JUMPI DUP1 PUSH4 0x5561AE62 EQ PUSH2 0x518 JUMPI DUP1 PUSH4 0x587419D5 EQ PUSH2 0x542 JUMPI PUSH2 0x2C8 JUMP JUMPDEST DUP1 PUSH4 0x1F85316C GT PUSH2 0x285 JUMPI DUP1 PUSH4 0x1F85316C EQ PUSH2 0x3B0 JUMPI DUP1 PUSH4 0x2DFEFCCA EQ PUSH2 0x3DA JUMPI DUP1 PUSH4 0x3070C38B EQ PUSH2 0x3F0 JUMPI DUP1 PUSH4 0x31D019B7 EQ PUSH2 0x406 JUMPI DUP1 PUSH4 0x33FC1183 EQ PUSH2 0x430 JUMPI DUP1 PUSH4 0x34CBFDFE EQ PUSH2 0x45A JUMPI PUSH2 0x2C8 JUMP JUMPDEST DUP1 PUSH4 0x3C77FA4 EQ PUSH2 0x2CC JUMPI DUP1 PUSH4 0x752DB7A EQ PUSH2 0x2F4 JUMPI DUP1 PUSH4 0xABB1D7F EQ PUSH2 0x30A JUMPI DUP1 PUSH4 0x140F26BF EQ PUSH2 0x320 JUMPI DUP1 PUSH4 0x18BB32F5 EQ PUSH2 0x34A JUMPI DUP1 PUSH4 0x1CA43EDD EQ PUSH2 0x374 JUMPI JUMPDEST PUSH0 DUP1 REVERT JUMPDEST CALLVALUE DUP1 ISZERO PUSH2 0x2D7 JUMPI PUSH0 DUP1 REVERT JUMPDEST POP PUSH2 0x2F2 PUSH1 0x4 DUP1 CALLDATASIZE SUB DUP2 ADD SWAP1 PUSH2 0x2ED SWAP2 SWAP1 PUSH2 0x3552 JUMP JUMPDEST PUSH2 0x98E JUMP JUMPDEST STOP JUMPDEST CALLVALUE DUP1 ISZERO PUSH2 0x2FF JUMPI PUSH0 DUP1 REVERT JUMPDEST POP PUSH2 0x308 PUSH2 0xAB9 JUMP JUMPDEST STOP JUMPDEST CALLVALUE DUP1 ISZERO PUSH2 0x315 JUMPI PUSH0 DUP1 REVERT JUMPDEST POP PUSH2 0x31E PUSH2 0xC02 JUMP JUMPDEST STOP JUMPDEST CALLVALUE DUP1 ISZERO PUSH2 0x32B JUMPI PUSH0 DUP1 REVERT JUMPDEST POP PUSH2 0x334 PUSH2 0xD3B JUMP JUMPDEST PUSH1 0x40 MLOAD PUSH2 0x341 SWAP2 SWAP1 PUSH2 0x35F9 JUMP JUMPDEST PUSH1 0x40 MLOAD DUP1 SWAP2 SUB SWAP1 RETURN JUMPDEST CALLVALUE DUP1 ISZERO PUSH2 0x355 JUMPI PUSH0 DUP1 REVERT JUMPDEST POP PUSH2 0x35E PUSH2 0xDC7 JUMP JUMPDEST PUSH1 0x40 MLOAD PUSH2 0x36B SWAP2 SWAP1 PUSH2 0x3633 JUMP JUMPDEST PUSH1 0x40 MLOAD DUP1 SWAP2 SUB SWAP1 RETURN JUMPDEST CALLVALUE DUP1 ISZERO PUSH2 0x37F JUMPI PUSH0 DUP1 REVERT JUMPDEST POP PUSH2 0x39A PUSH1 0x4 DUP1 CALLDATASIZE SUB DUP2 ADD SWAP1 PUSH2 0x395 SWAP2 SWAP1 PUSH2 0x36A6 JUMP JUMPDEST PUSH2 0xDD9 JUMP JUMPDEST PUSH1 0x40 MLOAD PUSH2 0x3A7 SWAP2 SWAP1 PUSH2 0x3633 JUMP JUMPDEST PUSH1 0x40 MLOAD DUP1 SWAP2 SUB SWAP1 RETURN JUMPDEST CALLVALUE DUP1 ISZERO PUSH2 0x3BB JUMPI PUSH0 DUP1 REVERT JUMPDEST POP PUSH2 0x3C4 PUSH2 0xDF6 JUMP JUMPDEST PUSH1 0x40 MLOAD PUSH2 0x3D1 SWAP2 SWAP1 PUSH2 0x3633 JUMP JUMPDEST PUSH1 0x40 MLOAD DUP1 SWAP2 SUB SWAP1 RETURN JUMPDEST CALLVALUE DUP1 ISZERO PUSH2 0x3E5 JUMPI PUSH0 DUP1 REVERT JUMPDEST POP PUSH2 0x3EE PUSH2 0xE08 JUMP JUMPDEST STOP JUMPDEST CALLVALUE DUP1 ISZERO PUSH2 0x3FB JUMPI PUSH0 DUP1 REVERT JUMPDEST POP PUSH2 0x404 PUSH2 0xF27 JUMP JUMPDEST STOP JUMPDEST CALLVALUE DUP1 ISZERO PUSH2 0x411 JUMPI PUSH0 DUP1 REVERT JUMPDEST POP PUSH2 0x41A PUSH2 0x1049 JUMP JUMPDEST PUSH1 0x40 MLOAD PUSH2 0x427 SWAP2 SWAP1 PUSH2 0x3744 JUMP JUMPDEST PUSH1 0x40 MLOAD DUP1 SWAP2 SUB SWAP1 RETURN JUMPDEST CALLVALUE DUP1 ISZERO PUSH2 0x43B JUMPI PUSH0 DUP1 REVERT JUMPDEST POP PUSH2 0x444 PUSH2 0x105B JUMP JUMPDEST PUSH1 0x40 MLOAD PUSH2 0x451 SWAP2 SWAP1 PUSH2 0x3633 JUMP JUMPDEST PUSH1 0x40 MLOAD DUP1 SWAP2 SUB SWAP1 RETURN JUMPDEST CALLVALUE DUP1 ISZERO PUSH2 0x465 JUMPI PUSH0 DUP1 REVERT JUMPDEST POP PUSH2 0x46E PUSH2 0x106E JUMP JUMPDEST PUSH1 0x40 MLOAD PUSH2 0x47B SWAP2 SWAP1 PUSH2 0x3775 JUMP JUMPDEST PUSH1 0x40 MLOAD DUP1 SWAP2 SUB SWAP1 RETURN JUMPDEST CALLVALUE DUP1 ISZERO PUSH2 0x48F JUMPI PUSH0 DUP1 REVERT JUMPDEST POP PUSH2 0x498 PUSH2 0x1074 JUMP JUMPDEST PUSH1 0x40 MLOAD PUSH2 0x4A5 SWAP2 SWAP1 PUSH2 0x3775 JUMP JUMPDEST PUSH1 0x40 MLOAD DUP1 SWAP2 SUB SWAP1 RETURN JUMPDEST CALLVALUE DUP1 ISZERO PUSH2 0x4B9 JUMPI PUSH0 DUP1 REVERT JUMPDEST POP PUSH2 0x4C2 PUSH2 0x10E2 JUMP JUMPDEST PUSH1 0x40 MLOAD PUSH2 0x4CF SWAP2 SWAP1 PUSH2 0x3775 JUMP JUMPDEST PUSH1 0x40 MLOAD DUP1 SWAP2 SUB SWAP1 RETURN JUMPDEST CALLVALUE DUP1 ISZERO PUSH2 0x4E3 JUMPI PUSH0 DUP1 REVERT JUMPDEST POP PUSH2 0x4EC PUSH2 0x10E8 JUMP JUMPDEST PUSH1 0x40 MLOAD PUSH2 0x4F9 SWAP2 SWAP1 PUSH2 0x3775 JUMP JUMPDEST PUSH1 0x40 MLOAD DUP1 SWAP2 SUB SWAP1 RETURN JUMPDEST CALLVALUE DUP1 ISZERO PUSH2 0x50D JUMPI PUSH0 DUP1 REVERT JUMPDEST POP PUSH2 0x516 PUSH2 0x10EE JUMP JUMPDEST STOP JUMPDEST CALLVALUE DUP1 ISZERO PUSH2 0x523 JUMPI PUSH0 DUP1 REVERT JUMPDEST POP PUSH2 0x52C PUSH2 0x126E JUMP JUMPDEST PUSH1 0x40 MLOAD PUSH2 0x539 SWAP2 SWAP1 PUSH2 0x3775 JUMP JUMPDEST PUSH1 0x40 MLOAD DUP1 SWAP2 SUB SWAP1 RETURN JUMPDEST CALLVALUE DUP1 ISZERO PUSH2 0x54D JUMPI PUSH0 DUP1 REVERT JUMPDEST POP PUSH2 0x556 PUSH2 0x1274 JUMP JUMPDEST PUSH1 0x40 MLOAD PUSH2 0x563 SWAP2 SWAP1 PUSH2 0x3775 JUMP JUMPDEST PUSH1 0x40 MLOAD DUP1 SWAP2 SUB SWAP1 RETURN JUMPDEST PUSH2 0x574 PUSH2 0x127A JUMP JUMPDEST STOP JUMPDEST CALLVALUE DUP1 ISZERO PUSH2 0x581 JUMPI PUSH0 DUP1 REVERT JUMPDEST POP PUSH2 0x58A PUSH2 0x1630 JUMP JUMPDEST PUSH1 0x40 MLOAD PUSH2 0x597 SWAP2 SWAP1 PUSH2 0x3775 JUMP JUMPDEST PUSH1 0x40 MLOAD DUP1 SWAP2 SUB SWAP1 RETURN JUMPDEST CALLVALUE DUP1 ISZERO PUSH2 0x5AB JUMPI PUSH0 DUP1 REVERT JUMPDEST POP PUSH2 0x5B4 PUSH2 0x1636 JUMP JUMPDEST STOP JUMPDEST CALLVALUE DUP1 ISZERO PUSH2 0x5C1 JUMPI PUSH0 DUP1 REVERT JUMPDEST POP PUSH2 0x5CA PUSH2 0x177B JUMP JUMPDEST PUSH1 0x40 MLOAD PUSH2 0x5D7 SWAP2 SWAP1 PUSH2 0x3775 JUMP JUMPDEST PUSH1 0x40 MLOAD DUP1 SWAP2 SUB SWAP1 RETURN JUMPDEST CALLVALUE DUP1 ISZERO PUSH2 0x5EB JUMPI PUSH0 DUP1 REVERT JUMPDEST POP PUSH2 0x5F4 PUSH2 0x1781 JUMP JUMPDEST PUSH1 0x40 MLOAD PUSH2 0x601 SWAP2 SWAP1 PUSH2 0x3633 JUMP JUMPDEST PUSH1 0x40 MLOAD DUP1 SWAP2 SUB SWAP1 RETURN JUMPDEST CALLVALUE DUP1 ISZERO PUSH2 0x615 JUMPI PUSH0 DUP1 REVERT JUMPDEST POP PUSH2 0x61E PUSH2 0x1793 JUMP JUMPDEST STOP JUMPDEST CALLVALUE DUP1 ISZERO PUSH2 0x62B JUMPI PUSH0 DUP1 REVERT JUMPDEST POP PUSH2 0x634 PUSH2 0x1976 JUMP JUMPDEST PUSH1 0x40 MLOAD PUSH2 0x641 SWAP2 SWAP1 PUSH2 0x3775 JUMP JUMPDEST PUSH1 0x40 MLOAD DUP1 SWAP2 SUB SWAP1 RETURN JUMPDEST CALLVALUE DUP1 ISZERO PUSH2 0x655 JUMPI PUSH0 DUP1 REVERT JUMPDEST POP PUSH2 0x65E PUSH2 0x197C JUMP JUMPDEST PUSH1 0x40 MLOAD PUSH2 0x66B SWAP2 SWAP1 PUSH2 0x3775 JUMP JUMPDEST PUSH1 0x40 MLOAD DUP1 SWAP2 SUB SWAP1 RETURN JUMPDEST CALLVALUE DUP1 ISZERO PUSH2 0x67F JUMPI PUSH0 DUP1 REVERT JUMPDEST POP PUSH2 0x688 PUSH2 0x1984 JUMP JUMPDEST PUSH1 0x40 MLOAD PUSH2 0x695 SWAP2 SWAP1 PUSH2 0x3775 JUMP JUMPDEST PUSH1 0x40 MLOAD DUP1 SWAP2 SUB SWAP1 RETURN JUMPDEST CALLVALUE DUP1 ISZERO PUSH2 0x6A9 JUMPI PUSH0 DUP1 REVERT JUMPDEST POP PUSH2 0x6C4 PUSH1 0x4 DUP1 CALLDATASIZE SUB DUP2 ADD SWAP1 PUSH2 0x6BF SWAP2 SWAP1 PUSH2 0x37B8 JUMP JUMPDEST PUSH2 0x1990 JUMP JUMPDEST STOP JUMPDEST CALLVALUE DUP1 ISZERO PUSH2 0x6D1 JUMPI PUSH0 DUP1 REVERT JUMPDEST POP PUSH2 0x6DA PUSH2 0x1B7E JUMP JUMPDEST STOP JUMPDEST CALLVALUE DUP1 ISZERO PUSH2 0x6E7 JUMPI PUSH0 DUP1 REVERT JUMPDEST POP PUSH2 0x6F0 PUSH2 0x1D60 JUMP JUMPDEST STOP JUMPDEST CALLVALUE DUP1 ISZERO PUSH2 0x6FD JUMPI PUSH0 DUP1 REVERT JUMPDEST POP PUSH2 0x718 PUSH1 0x4 DUP1 CALLDATASIZE SUB DUP2 ADD SWAP1 PUSH2 0x713 SWAP2 SWAP1 PUSH2 0x3812 JUMP JUMPDEST PUSH2 0x1E46 JUMP JUMPDEST PUSH1 0x40 MLOAD PUSH2 0x727 SWAP4 SWAP3 SWAP2 SWAP1 PUSH2 0x383D JUMP JUMPDEST PUSH1 0x40 MLOAD DUP1 SWAP2 SUB SWAP1 RETURN JUMPDEST PUSH2 0x738 PUSH2 0x1E87 JUMP JUMPDEST STOP JUMPDEST CALLVALUE DUP1 ISZERO PUSH2 0x745 JUMPI PUSH0 DUP1 REVERT JUMPDEST POP PUSH2 0x74E PUSH2 0x2306 JUMP JUMPDEST STOP JUMPDEST CALLVALUE DUP1 ISZERO PUSH2 0x75B JUMPI PUSH0 DUP1 REVERT JUMPDEST POP PUSH2 0x764 PUSH2 0x23EB JUMP JUMPDEST PUSH1 0x40 MLOAD PUSH2 0x771 SWAP2 SWAP1 PUSH2 0x3881 JUMP JUMPDEST PUSH1 0x40 MLOAD DUP1 SWAP2 SUB SWAP1 RETURN JUMPDEST CALLVALUE DUP1 ISZERO PUSH2 0x785 JUMPI PUSH0 DUP1 REVERT JUMPDEST POP PUSH2 0x78E PUSH2 0x2410 JUMP JUMPDEST PUSH1 0x40 MLOAD PUSH2 0x79B SWAP2 SWAP1 PUSH2 0x39A0 JUMP JUMPDEST PUSH1 0x40 MLOAD DUP1 SWAP2 SUB SWAP1 RETURN JUMPDEST CALLVALUE DUP1 ISZERO PUSH2 0x7AF JUMPI PUSH0 DUP1 REVERT JUMPDEST POP PUSH2 0x7B8 PUSH2 0x2499 JUMP JUMPDEST PUSH1 0x40 MLOAD PUSH2 0x7C5 SWAP2 SWAP1 PUSH2 0x35F9 JUMP JUMPDEST PUSH1 0x40 MLOAD DUP1 SWAP2 SUB SWAP1 RETURN JUMPDEST CALLVALUE DUP1 ISZERO PUSH2 0x7D9 JUMPI PUSH0 DUP1 REVERT JUMPDEST POP PUSH2 0x7E2 PUSH2 0x25C4 JUMP JUMPDEST STOP JUMPDEST CALLVALUE DUP1 ISZERO PUSH2 0x7EF JUMPI PUSH0 DUP1 REVERT JUMPDEST POP PUSH2 0x7F8 PUSH2 0x2726 JUMP JUMPDEST PUSH1 0x40 MLOAD PUSH2 0x805 SWAP2 SWAP1 PUSH2 0x3633 JUMP JUMPDEST PUSH1 0x40 MLOAD DUP1 SWAP2 SUB SWAP1 RETURN JUMPDEST CALLVALUE DUP1 ISZERO PUSH2 0x819 JUMPI PUSH0 DUP1 REVERT JUMPDEST POP PUSH2 0x822 PUSH2 0x2738 JUMP JUMPDEST PUSH1 0x40 MLOAD PUSH2 0x82F SWAP2 SWAP1 PUSH2 0x3881 JUMP JUMPDEST PUSH1 0x40 MLOAD DUP1 SWAP2 SUB SWAP1 RETURN JUMPDEST CALLVALUE DUP1 ISZERO PUSH2 0x843 JUMPI PUSH0 DUP1 REVERT JUMPDEST POP PUSH2 0x84C PUSH2 0x275E JUMP JUMPDEST STOP JUMPDEST CALLVALUE DUP1 ISZERO PUSH2 0x859 JUMPI PUSH0 DUP1 REVERT JUMPDEST POP PUSH2 0x862 PUSH2 0x28DB JUMP JUMPDEST STOP JUMPDEST CALLVALUE DUP1 ISZERO PUSH2 0x86F JUMPI PUSH0 DUP1 REVERT JUMPDEST POP PUSH2 0x878 PUSH2 0x2AB1 JUMP JUMPDEST PUSH1 0x40 MLOAD PUSH2 0x885 SWAP2 SWAP1 PUSH2 0x3775 JUMP JUMPDEST PUSH1 0x40 MLOAD DUP1 SWAP2 SUB SWAP1 RETURN JUMPDEST CALLVALUE DUP1 ISZERO PUSH2 0x899 JUMPI PUSH0 DUP1 REVERT JUMPDEST POP PUSH2 0x8A2 PUSH2 0x2AB7 JUMP JUMPDEST PUSH1 0x40 MLOAD PUSH2 0x8AF SWAP2 SWAP1 PUSH2 0x3881 JUMP JUMPDEST PUSH1 0x40 MLOAD DUP1 SWAP2 SUB SWAP1 RETURN JUMPDEST CALLVALUE DUP1 ISZERO PUSH2 0x8C3 JUMPI PUSH0 DUP1 REVERT JUMPDEST POP PUSH2 0x8CC PUSH2 0x2ADC JUMP JUMPDEST STOP JUMPDEST CALLVALUE DUP1 ISZERO PUSH2 0x8D9 JUMPI PUSH0 DUP1 REVERT JUMPDEST POP PUSH2 0x8E2 PUSH2 0x2CBD JUMP JUMPDEST STOP JUMPDEST CALLVALUE DUP1 ISZERO PUSH2 0x8EF JUMPI PUSH0 DUP1 REVERT JUMPDEST POP PUSH2 0x8F8 PUSH2 0x307E JUMP JUMPDEST PUSH1 0x40 MLOAD PUSH2 0x905 SWAP2 SWAP1 PUSH2 0x3775 JUMP JUMPDEST PUSH1 0x40 MLOAD DUP1 SWAP2 SUB SWAP1 RETURN JUMPDEST CALLVALUE DUP1 ISZERO PUSH2 0x919 JUMPI PUSH0 DUP1 REVERT JUMPDEST POP PUSH2 0x922 PUSH2 0x3084 JUMP JUMPDEST PUSH1 0x40 MLOAD PUSH2 0x92F SWAP2 SWAP1 PUSH2 0x3775 JUMP JUMPDEST PUSH1 0x40 MLOAD DUP1 SWAP2 SUB SWAP1 RETURN JUMPDEST CALLVALUE DUP1 ISZERO PUSH2 0x943 JUMPI PUSH0 DUP1 REVERT JUMPDEST POP PUSH2 0x94C PUSH2 0x308A JUMP JUMPDEST STOP JUMPDEST CALLVALUE DUP1 ISZERO PUSH2 0x959 JUMPI PUSH0 DUP1 REVERT JUMPDEST POP PUSH2 0x962 PUSH2 0x3220 JUMP JUMPDEST PUSH1 0x40 MLOAD PUSH2 0x96F SWAP2 SWAP1 PUSH2 0x3775 JUMP JUMPDEST PUSH1 0x40 MLOAD DUP1 SWAP2 SUB SWAP1 RETURN JUMPDEST CALLVALUE DUP1 ISZERO PUSH2 0x983 JUMPI PUSH0 DUP1 REVERT JUMPDEST POP PUSH2 0x98C PUSH2 0x3226 JUMP JUMPDEST STOP JUMPDEST PUSH1 0x1 PUSH0 SWAP1 SLOAD SWAP1 PUSH2 0x100 EXP SWAP1 DIV PUSH20 0xFFFFFFFFFFFFFFFFFFFFFFFFFFFFFFFFFFFFFFFF AND PUSH20 0xFFFFFFFFFFFFFFFFFFFFFFFFFFFFFFFFFFFFFFFF AND CALLER PUSH20 0xFFFFFFFFFFFFFFFFFFFFFFFFFFFFFFFFFFFFFFFF AND EQ PUSH2 0xA1D JUMPI PUSH1 0x40 MLOAD PUSH32 0x8C379A000000000000000000000000000000000000000000000000000000000 DUP2 MSTORE PUSH1 0x4 ADD PUSH2 0xA14 SWAP1 PUSH2 0x3A30 JUMP JUMPDEST PUSH1 0x40 MLOAD DUP1 SWAP2 SUB SWAP1 REVERT JUMPDEST PUSH1 0x1 PUSH1 0x16 PUSH0 PUSH2 0x100 EXP DUP2 SLOAD DUP2 PUSH1 0xFF MUL NOT AND SWAP1 DUP4 PUSH1 0x2 DUP2 GT ISZERO PUSH2 0xA42 JUMPI PUSH2 0xA41 PUSH2 0x36D1 JUMP JUMPDEST JUMPDEST MUL OR SWAP1 SSTORE POP PUSH1 0x1 PUSH0 SWAP1 SLOAD SWAP1 PUSH2 0x100 EXP SWAP1 DIV PUSH20 0xFFFFFFFFFFFFFFFFFFFFFFFFFFFFFFFFFFFFFFFF AND PUSH20 0xFFFFFFFFFFFFFFFFFFFFFFFFFFFFFFFFFFFFFFFF AND PUSH32 0x7B73F5D770F3EB41FD57F1E6A1C9E2A5EC61FEBBBD4E608D511C46E3FD611639 DUP3 PUSH1 0x40 MLOAD PUSH2 0xAAE SWAP2 SWAP1 PUSH2 0x35F9 JUMP JUMPDEST PUSH1 0x40 MLOAD DUP1 SWAP2 SUB SWAP1 LOG2 POP JUMP JUMPDEST PUSH0 PUSH20 0x0 PUSH4 0x5468AF10 PUSH1 0x15 SLOAD PUSH1 0x40 MLOAD DUP3 PUSH4 0xFFFFFFFF AND PUSH1 0xE0 SHL DUP2 MSTORE PUSH1 0x4 ADD PUSH2 0xAF3 SWAP2 SWAP1 PUSH2 0x3A5D JUMP JUMPDEST PUSH1 0x20 PUSH1 0x40 MLOAD DUP1 DUP4 SUB DUP2 DUP7 GAS DELEGATECALL ISZERO DUP1 ISZERO PUSH2 0xB0E JUMPI RETURNDATASIZE PUSH0 DUP1 RETURNDATACOPY RETURNDATASIZE PUSH0 REVERT JUMPDEST POP POP POP POP PUSH1 0x40 MLOAD RETURNDATASIZE PUSH1 0x1F NOT PUSH1 0x1F DUP3 ADD AND DUP3 ADD DUP1 PUSH1 0x40 MSTORE POP DUP2 ADD SWAP1 PUSH2 0xB32 SWAP2 SWAP1 PUSH2 0x3A8A JUMP JUMPDEST SWAP1 POP DUP1 TIMESTAMP GT ISZERO PUSH2 0xBC8 JUMPI PUSH1 0x3 SLOAD PUSH1 0xD PUSH0 DUP3 DUP3 SLOAD PUSH2 0xB4F SWAP2 SWAP1 PUSH2 0x3AE2 JUMP JUMPDEST SWAP3 POP POP DUP2 SWAP1 SSTORE POP PUSH1 0x2 PUSH0 SWAP1 SLOAD SWAP1 PUSH2 0x100 EXP SWAP1 DIV PUSH20 0xFFFFFFFFFFFFFFFFFFFFFFFFFFFFFFFFFFFFFFFF AND PUSH20 0xFFFFFFFFFFFFFFFFFFFFFFFFFFFFFFFFFFFFFFFF AND PUSH32 0x2774F4712321FE39A50CF43384F7A594356CDABD366829262F2654FE2F3B77F9 PUSH1 0x3 SLOAD PUSH1 0x40 MLOAD PUSH2 0xBBF SWAP2 SWAP1 PUSH2 0x3775 JUMP JUMPDEST PUSH1 0x40 MLOAD DUP1 SWAP2 SUB SWAP1 LOG2 JUMPDEST PUSH32 0xBBCC51FA936F3A76812BE73764F05AAFEEB3D972C46D98DD196244186BAD147F DUP2 PUSH1 0x40 MLOAD PUSH2 0xBF7 SWAP2 SWAP1 PUSH2 0x3775 JUMP JUMPDEST PUSH1 0x40 MLOAD DUP1 SWAP2 SUB SWAP1 LOG1 POP JUMP JUMPDEST PUSH0 PUSH1 0x2 DUP2 GT ISZERO PUSH2 0xC15 JUMPI PUSH2 0xC14 PUSH2 0x36D1 JUMP JUMPDEST JUMPDEST PUSH1 0x16 PUSH0 SWAP1 SLOAD SWAP1 PUSH2 0x100 EXP SWAP1 DIV PUSH1 0xFF AND PUSH1 0x2 DUP2 GT ISZERO PUSH2 0xC36 JUMPI PUSH2 0xC35 PUSH2 0x36D1 JUMP JUMPDEST JUMPDEST EQ PUSH2 0xC76 JUMPI PUSH1 0x40 MLOAD PUSH32 0x8C379A000000000000000000000000000000000000000000000000000000000 DUP2 MSTORE PUSH1 0x4 ADD PUSH2 0xC6D SWAP1 PUSH2 0x3B5F JUMP JUMPDEST PUSH1 0x40 MLOAD DUP1 SWAP2 SUB SWAP1 REVERT JUMPDEST PUSH0 TIMESTAMP PUSH1 0x10 SLOAD PUSH2 0xC85 SWAP2 SWAP1 PUSH2 0x3B7D JUMP JUMPDEST SWAP1 POP PUSH3 0x4F1A00 DUP2 EQ DUP1 PUSH2 0xC98 JUMPI POP PUSH1 0x1E DUP2 EQ JUMPDEST ISZERO PUSH2 0xCE7 JUMPI PUSH32 0xD0B1F933B37BCB6FA032C1F03D79EC22BE0798137CDB06AD046BE2E640EAFBC5 PUSH3 0x15180 DUP3 PUSH2 0xCCD SWAP2 SWAP1 PUSH2 0x3BDD JUMP JUMPDEST PUSH1 0x40 MLOAD PUSH2 0xCDA SWAP2 SWAP1 PUSH2 0x3775 JUMP JUMPDEST PUSH1 0x40 MLOAD DUP1 SWAP2 SUB SWAP1 LOG1 PUSH2 0xD38 JUMP JUMPDEST PUSH3 0x127500 DUP2 LT PUSH2 0xD37 JUMPI PUSH32 0xD0B1F933B37BCB6FA032C1F03D79EC22BE0798137CDB06AD046BE2E640EAFBC5 PUSH3 0x15180 DUP3 PUSH2 0xD21 SWAP2 SWAP1 PUSH2 0x3BDD JUMP JUMPDEST PUSH1 0x40 MLOAD PUSH2 0xD2E SWAP2 SWAP1 PUSH2 0x3775 JUMP JUMPDEST PUSH1 0x40 MLOAD DUP1 SWAP2 SUB SWAP1 LOG1 JUMPDEST JUMPDEST POP JUMP JUMPDEST PUSH1 0x5 DUP1 SLOAD PUSH2 0xD48 SWAP1 PUSH2 0x3C3A JUMP JUMPDEST DUP1 PUSH1 0x1F ADD PUSH1 0x20 DUP1 SWAP2 DIV MUL PUSH1 0x20 ADD PUSH1 0x40 MLOAD SWAP1 DUP2 ADD PUSH1 0x40 MSTORE DUP1 SWAP3 SWAP2 SWAP1 DUP2 DUP2 MSTORE PUSH1 0x20 ADD DUP3 DUP1 SLOAD PUSH2 0xD74 SWAP1 PUSH2 0x3C3A JUMP JUMPDEST DUP1 ISZERO PUSH2 0xDBF JUMPI DUP1 PUSH1 0x1F LT PUSH2 0xD96 JUMPI PUSH2 0x100 DUP1 DUP4 SLOAD DIV MUL DUP4 MSTORE SWAP2 PUSH1 0x20 ADD SWAP2 PUSH2 0xDBF JUMP JUMPDEST DUP3 ADD SWAP2 SWAP1 PUSH0 MSTORE PUSH1 0x20 PUSH0 KECCAK256 SWAP1 JUMPDEST DUP2 SLOAD DUP2 MSTORE SWAP1 PUSH1 0x1 ADD SWAP1 PUSH1 0x20 ADD DUP1 DUP4 GT PUSH2 0xDA2 JUMPI DUP3 SWAP1 SUB PUSH1 0x1F AND DUP3 ADD SWAP2 JUMPDEST POP POP POP POP POP DUP2 JUMP JUMPDEST PUSH1 0x6 PUSH0 SWAP1 SLOAD SWAP1 PUSH2 0x100 EXP SWAP1 DIV PUSH1 0xFF AND DUP2 JUMP JUMPDEST PUSH1 0x13 PUSH1 0x20 MSTORE DUP1 PUSH0 MSTORE PUSH1 0x40 PUSH0 KECCAK256 PUSH0 SWAP2 POP SLOAD SWAP1 PUSH2 0x100 EXP SWAP1 DIV PUSH1 0xFF AND DUP2 JUMP JUMPDEST PUSH1 0xE PUSH0 SWAP1 SLOAD SWAP1 PUSH2 0x100 EXP SWAP1 DIV PUSH1 0xFF AND DUP2 JUMP JUMPDEST PUSH1 0x1 PUSH0 SWAP1 SLOAD SWAP1 PUSH2 0x100 EXP SWAP1 DIV PUSH20 0xFFFFFFFFFFFFFFFFFFFFFFFFFFFFFFFFFFFFFFFF AND PUSH20 0xFFFFFFFFFFFFFFFFFFFFFFFFFFFFFFFFFFFFFFFF AND CALLER PUSH20 0xFFFFFFFFFFFFFFFFFFFFFFFFFFFFFFFFFFFFFFFF AND EQ PUSH2 0xE97 JUMPI PUSH1 0x40 MLOAD PUSH32 0x8C379A000000000000000000000000000000000000000000000000000000000 DUP2 MSTORE PUSH1 0x4 ADD PUSH2 0xE8E SWAP1 PUSH2 0x3A30 JUMP JUMPDEST PUSH1 0x40 MLOAD DUP1 SWAP2 SUB SWAP1 REVERT JUMPDEST PUSH1 0x2 DUP1 DUP2 GT ISZERO PUSH2 0xEAA JUMPI PUSH2 0xEA9 PUSH2 0x36D1 JUMP JUMPDEST JUMPDEST PUSH1 0x16 PUSH0 SWAP1 SLOAD SWAP1 PUSH2 0x100 EXP SWAP1 DIV PUSH1 0xFF AND PUSH1 0x2 DUP2 GT ISZERO PUSH2 0xECB JUMPI PUSH2 0xECA PUSH2 0x36D1 JUMP JUMPDEST JUMPDEST EQ PUSH2 0xF0B JUMPI PUSH1 0x40 MLOAD PUSH32 0x8C379A000000000000000000000000000000000000000000000000000000000 DUP2 MSTORE PUSH1 0x4 ADD PUSH2 0xF02 SWAP1 PUSH2 0x3CDA JUMP JUMPDEST PUSH1 0x40 MLOAD DUP1 SWAP2 SUB SWAP1 REVERT JUMPDEST PUSH1 0x1 PUSH1 0x14 PUSH0 PUSH2 0x100 EXP DUP2 SLOAD DUP2 PUSH1 0xFF MUL NOT AND SWAP1 DUP4 ISZERO ISZERO MUL OR SWAP1 SSTORE POP JUMP JUMPDEST PUSH1 0x1 PUSH0 SWAP1 SLOAD SWAP1 PUSH2 0x100 EXP SWAP1 DIV PUSH20 0xFFFFFFFFFFFFFFFFFFFFFFFFFFFFFFFFFFFFFFFF AND PUSH20 0xFFFFFFFFFFFFFFFFFFFFFFFFFFFFFFFFFFFFFFFF AND CALLER PUSH20 0xFFFFFFFFFFFFFFFFFFFFFFFFFFFFFFFFFFFFFFFF AND EQ PUSH2 0xFB6 JUMPI PUSH1 0x40 MLOAD PUSH32 0x8C379A000000000000000000000000000000000000000000000000000000000 DUP2 MSTORE PUSH1 0x4 ADD PUSH2 0xFAD SWAP1 PUSH2 0x3A30 JUMP JUMPDEST PUSH1 0x40 MLOAD DUP1 SWAP2 SUB SWAP1 REVERT JUMPDEST PUSH1 0x3 SLOAD PUSH1 0x3 PUSH2 0xFC5 SWAP2 SWAP1 PUSH2 0x3CF8 JUMP JUMPDEST PUSH1 0xD SLOAD GT ISZERO PUSH2 0x1047 JUMPI PUSH3 0x76A700 TIMESTAMP PUSH2 0xFDD SWAP2 SWAP1 PUSH2 0x3AE2 JUMP JUMPDEST PUSH1 0xF DUP2 SWAP1 SSTORE POP PUSH1 0x2 PUSH1 0x16 PUSH0 PUSH2 0x100 EXP DUP2 SLOAD DUP2 PUSH1 0xFF MUL NOT AND SWAP1 DUP4 PUSH1 0x2 DUP2 GT ISZERO PUSH2 0x1008 JUMPI PUSH2 0x1007 PUSH2 0x36D1 JUMP JUMPDEST JUMPDEST MUL OR SWAP1 SSTORE POP PUSH32 0x2032EEA88030B7D191BCBDC44C5AC10ED559F3E9F56A319C896F007B55ABA5C6 PUSH1 0xF SLOAD PUSH1 0x40 MLOAD PUSH2 0x103E SWAP2 SWAP1 PUSH2 0x3775 JUMP JUMPDEST PUSH1 0x40 MLOAD DUP1 SWAP2 SUB SWAP1 LOG1 JUMPDEST JUMP JUMPDEST PUSH1 0x16 PUSH0 SWAP1 SLOAD SWAP1 PUSH2 0x100 EXP SWAP1 DIV PUSH1 0xFF AND DUP2 JUMP JUMPDEST PUSH1 0x12 PUSH1 0x1 SWAP1 SLOAD SWAP1 PUSH2 0x100 EXP SWAP1 DIV PUSH1 0xFF AND DUP2 JUMP JUMPDEST PUSH1 0xC SLOAD DUP2 JUMP JUMPDEST PUSH0 DUP1 PUSH1 0x9 SLOAD TIMESTAMP PUSH2 0x1084 SWAP2 SWAP1 PUSH2 0x3B7D JUMP JUMPDEST SWAP1 POP PUSH0 PUSH4 0x1E13380 DUP3 PUSH2 0x1097 SWAP2 SWAP1 PUSH2 0x3BDD JUMP JUMPDEST SWAP1 POP PUSH0 PUSH2 0x10A2 PUSH2 0x197C JUMP JUMPDEST SWAP1 POP PUSH0 PUSH1 0x64 DUP4 DUP4 PUSH2 0x10B3 SWAP2 SWAP1 PUSH2 0x3CF8 JUMP JUMPDEST PUSH2 0x10BD SWAP2 SWAP1 PUSH2 0x3BDD JUMP JUMPDEST PUSH1 0x1 PUSH2 0x10C9 SWAP2 SWAP1 PUSH2 0x3AE2 JUMP JUMPDEST PUSH1 0x8 SLOAD PUSH2 0x10D6 SWAP2 SWAP1 PUSH2 0x3CF8 JUMP JUMPDEST SWAP1 POP DUP1 SWAP5 POP POP POP POP POP SWAP1 JUMP JUMPDEST PUSH1 0x10 SLOAD DUP2 JUMP JUMPDEST PUSH1 0x4 SLOAD DUP2 JUMP JUMPDEST PUSH1 0x1 PUSH0 SWAP1 SLOAD SWAP1 PUSH2 0x100 EXP SWAP1 DIV PUSH20 0xFFFFFFFFFFFFFFFFFFFFFFFFFFFFFFFFFFFFFFFF AND PUSH20 0xFFFFFFFFFFFFFFFFFFFFFFFFFFFFFFFFFFFFFFFF AND CALLER PUSH20 0xFFFFFFFFFFFFFFFFFFFFFFFFFFFFFFFFFFFFFFFF AND EQ PUSH2 0x117D JUMPI PUSH1 0x40 MLOAD PUSH32 0x8C379A000000000000000000000000000000000000000000000000000000000 DUP2 MSTORE PUSH1 0x4 ADD PUSH2 0x1174 SWAP1 PUSH2 0x3A30 JUMP JUMPDEST PUSH1 0x40 MLOAD DUP1 SWAP2 SUB SWAP1 REVERT JUMPDEST PUSH1 0xE PUSH0 SWAP1 SLOAD SWAP1 PUSH2 0x100 EXP SWAP1 DIV PUSH1 0xFF AND PUSH2 0x11CB JUMPI PUSH1 0x40 MLOAD PUSH32 0x8C379A000000000000000000000000000000000000000000000000000000000 DUP2 MSTORE PUSH1 0x4 ADD PUSH2 0x11C2 SWAP1 PUSH2 0x3D83 JUMP JUMPDEST PUSH1 0x40 MLOAD DUP1 SWAP2 SUB SWAP1 REVERT JUMPDEST PUSH1 0xC PUSH0 DUP2 SLOAD DUP1 SWAP3 SWAP2 SWAP1 PUSH2 0x11DD SWAP1 PUSH2 0x3DA1 JUMP JUMPDEST SWAP2 SWAP1 POP SSTORE POP PUSH0 PUSH1 0xE PUSH0 PUSH2 0x100 EXP DUP2 SLOAD DUP2 PUSH1 0xFF MUL NOT AND SWAP1 DUP4 ISZERO ISZERO MUL OR SWAP1 SSTORE POP PUSH1 0x2 PUSH0 SWAP1 SLOAD SWAP1 PUSH2 0x100 EXP SWAP1 DIV PUSH20 0xFFFFFFFFFFFFFFFFFFFFFFFFFFFFFFFFFFFFFFFF AND PUSH20 0xFFFFFFFFFFFFFFFFFFFFFFFFFFFFFFFFFFFFFFFF AND PUSH32 0x3B3128F7F622FF2560E38BE1B058B93BA3D585CBA51577708F3DA9D6FE4CD925 PUSH1 0xC SLOAD PUSH1 0x40 MLOAD PUSH2 0x1264 SWAP2 SWAP1 PUSH2 0x3775 JUMP JUMPDEST PUSH1 0x40 MLOAD DUP1 SWAP2 SUB SWAP1 LOG2 JUMP JUMPDEST PUSH1 0x15 SLOAD DUP2 JUMP JUMPDEST PUSH1 0x9 SLOAD DUP2 JUMP JUMPDEST PUSH1 0x2 PUSH0 SWAP1 SLOAD SWAP1 PUSH2 0x100 EXP SWAP1 DIV PUSH20 0xFFFFFFFFFFFFFFFFFFFFFFFFFFFFFFFFFFFFFFFF AND PUSH20 0xFFFFFFFFFFFFFFFFFFFFFFFFFFFFFFFFFFFFFFFF AND CALLER PUSH20 0xFFFFFFFFFFFFFFFFFFFFFFFFFFFFFFFFFFFFFFFF AND EQ PUSH2 0x1309 JUMPI PUSH1 0x40 MLOAD PUSH32 0x8C379A000000000000000000000000000000000000000000000000000000000 DUP2 MSTORE PUSH1 0x4 ADD PUSH2 0x1300 SWAP1 PUSH2 0x3E58 JUMP JUMPDEST PUSH1 0x40 MLOAD DUP1 SWAP2 SUB SWAP1 REVERT JUMPDEST PUSH2 0x1311 PUSH2 0x33AF JUMP JUMPDEST PUSH0 PUSH1 0x2 DUP2 GT ISZERO PUSH2 0x1324 JUMPI PUSH2 0x1323 PUSH2 0x36D1 JUMP JUMPDEST JUMPDEST PUSH1 0x16 PUSH0 SWAP1 SLOAD SWAP1 PUSH2 0x100 EXP SWAP1 DIV PUSH1 0xFF AND PUSH1 0x2 DUP2 GT ISZERO PUSH2 0x1345 JUMPI PUSH2 0x1344 PUSH2 0x36D1 JUMP JUMPDEST JUMPDEST EQ PUSH2 0x1385 JUMPI PUSH1 0x40 MLOAD PUSH32 0x8C379A000000000000000000000000000000000000000000000000000000000 DUP2 MSTORE PUSH1 0x4 ADD PUSH2 0x137C SWAP1 PUSH2 0x3EC0 JUMP JUMPDEST PUSH1 0x40 MLOAD DUP1 SWAP2 SUB SWAP1 REVERT JUMPDEST PUSH0 PUSH1 0x6 PUSH0 SWAP1 SLOAD SWAP1 PUSH2 0x100 EXP SWAP1 DIV PUSH1 0xFF AND ISZERO PUSH2 0x14DC JUMPI PUSH0 CALLVALUE EQ PUSH2 0x13DC JUMPI PUSH1 0x40 MLOAD PUSH32 0x8C379A000000000000000000000000000000000000000000000000000000000 DUP2 MSTORE PUSH1 0x4 ADD PUSH2 0x13D3 SWAP1 PUSH2 0x3F4E JUMP JUMPDEST PUSH1 0x40 MLOAD DUP1 SWAP2 SUB SWAP1 REVERT JUMPDEST PUSH1 0x4 SLOAD SWAP1 POP PUSH1 0x6 PUSH1 0x1 SWAP1 SLOAD SWAP1 PUSH2 0x100 EXP SWAP1 DIV PUSH20 0xFFFFFFFFFFFFFFFFFFFFFFFFFFFFFFFFFFFFFFFF AND PUSH20 0xFFFFFFFFFFFFFFFFFFFFFFFFFFFFFFFFFFFFFFFF AND PUSH4 0x23B872DD CALLER ADDRESS DUP5 PUSH1 0x40 MLOAD DUP5 PUSH4 0xFFFFFFFF AND PUSH1 0xE0 SHL DUP2 MSTORE PUSH1 0x4 ADD PUSH2 0x1440 SWAP4 SWAP3 SWAP2 SWAP1 PUSH2 0x3F6C JUMP JUMPDEST PUSH1 0x20 PUSH1 0x40 MLOAD DUP1 DUP4 SUB DUP2 PUSH0 DUP8 GAS CALL ISZERO DUP1 ISZERO PUSH2 0x145C JUMPI RETURNDATASIZE PUSH0 DUP1 RETURNDATACOPY RETURNDATASIZE PUSH0 REVERT JUMPDEST POP POP POP POP PUSH1 0x40 MLOAD RETURNDATASIZE PUSH1 0x1F NOT PUSH1 0x1F DUP3 ADD AND DUP3 ADD DUP1 PUSH1 0x40 MSTORE POP DUP2 ADD SWAP1 PUSH2 0x1480 SWAP2 SWAP1 PUSH2 0x3FCB JUMP JUMPDEST PUSH2 0x14BF JUMPI PUSH1 0x40 MLOAD PUSH32 0x8C379A000000000000000000000000000000000000000000000000000000000 DUP2 MSTORE PUSH1 0x4 ADD PUSH2 0x14B6 SWAP1 PUSH2 0x4040 JUMP JUMPDEST PUSH1 0x40 MLOAD DUP1 SWAP2 SUB SWAP1 REVERT JUMPDEST DUP1 PUSH1 0x8 PUSH0 DUP3 DUP3 SLOAD PUSH2 0x14D0 SWAP2 SWAP1 PUSH2 0x3AE2 JUMP JUMPDEST SWAP3 POP POP DUP2 SWAP1 SSTORE POP PUSH2 0x15C7 JUMP JUMPDEST PUSH0 PUSH2 0x14E5 PUSH2 0x1984 JUMP JUMPDEST SWAP1 POP DUP1 PUSH11 0x52B7D2DCC80CD2E4000000 PUSH1 0x4 SLOAD PUSH2 0x1501 SWAP2 SWAP1 PUSH2 0x3CF8 JUMP JUMPDEST PUSH2 0x150B SWAP2 SWAP1 PUSH2 0x3BDD JUMP JUMPDEST SWAP2 POP DUP2 CALLVALUE LT ISZERO PUSH2 0x1550 JUMPI PUSH1 0x40 MLOAD PUSH32 0x8C379A000000000000000000000000000000000000000000000000000000000 DUP2 MSTORE PUSH1 0x4 ADD PUSH2 0x1547 SWAP1 PUSH2 0x40A8 JUMP JUMPDEST PUSH1 0x40 MLOAD DUP1 SWAP2 SUB SWAP1 REVERT JUMPDEST PUSH0 DUP3 CALLVALUE PUSH2 0x155D SWAP2 SWAP1 PUSH2 0x3B7D JUMP JUMPDEST SWAP1 POP PUSH0 DUP2 GT ISZERO PUSH2 0x15AC JUMPI CALLER PUSH20 0xFFFFFFFFFFFFFFFFFFFFFFFFFFFFFFFFFFFFFFFF AND PUSH2 0x8FC DUP3 SWAP1 DUP2 ISZERO MUL SWAP1 PUSH1 0x40 MLOAD PUSH0 PUSH1 0x40 MLOAD DUP1 DUP4 SUB DUP2 DUP6 DUP9 DUP9 CALL SWAP4 POP POP POP POP ISZERO DUP1 ISZERO PUSH2 0x15AA JUMPI RETURNDATASIZE PUSH0 DUP1 RETURNDATACOPY RETURNDATASIZE PUSH0 REVERT JUMPDEST POP JUMPDEST DUP3 PUSH1 0x8 PUSH0 DUP3 DUP3 SLOAD PUSH2 0x15BD SWAP2 SWAP1 PUSH2 0x3AE2 JUMP JUMPDEST SWAP3 POP POP DUP2 SWAP1 SSTORE POP POP POP JUMPDEST CALLER PUSH20 0xFFFFFFFFFFFFFFFFFFFFFFFFFFFFFFFFFFFFFFFF AND PUSH32 0xD843B6E8D49F0E65C61FB0C27466E0719DF02E1CA2340E577C3E289C1AC9154C DUP3 PUSH1 0x6 PUSH0 SWAP1 SLOAD SWAP1 PUSH2 0x100 EXP SWAP1 DIV PUSH1 0xFF AND PUSH1 0x40 MLOAD PUSH2 0x161D SWAP3 SWAP2 SWAP1 PUSH2 0x40C6 JUMP JUMPDEST PUSH1 0x40 MLOAD DUP1 SWAP2 SUB SWAP1 LOG2 POP PUSH2 0x162E PUSH2 0x33FC JUMP JUMPDEST JUMP JUMPDEST PUSH1 0x8 SLOAD DUP2 JUMP JUMPDEST PUSH1 0x10 SLOAD TIMESTAMP LT ISZERO PUSH2 0x167B JUMPI PUSH1 0x40 MLOAD PUSH32 0x8C379A000000000000000000000000000000000000000000000000000000000 DUP2 MSTORE PUSH1 0x4 ADD PUSH2 0x1672 SWAP1 PUSH2 0x4137 JUMP JUMPDEST PUSH1 0x40 MLOAD DUP1 SWAP2 SUB SWAP1 REVERT JUMPDEST PUSH1 0x12 PUSH1 0x1 SWAP1 SLOAD SWAP1 PUSH2 0x100 EXP SWAP1 DIV PUSH1 0xFF AND ISZERO DUP1 PUSH2 0x16A3 JUMPI POP PUSH1 0x12 PUSH0 SWAP1 SLOAD SWAP1 PUSH2 0x100 EXP SWAP1 DIV PUSH1 0xFF AND ISZERO JUMPDEST PUSH2 0x16E2 JUMPI PUSH1 0x40 MLOAD PUSH32 0x8C379A000000000000000000000000000000000000000000000000000000000 DUP2 MSTORE PUSH1 0x4 ADD PUSH2 0x16D9 SWAP1 PUSH2 0x419F JUMP JUMPDEST PUSH1 0x40 MLOAD DUP1 SWAP2 SUB SWAP1 REVERT JUMPDEST PUSH1 0x1 PUSH1 0x16 PUSH0 PUSH2 0x100 EXP DUP2 SLOAD DUP2 PUSH1 0xFF MUL NOT AND SWAP1 DUP4 PUSH1 0x2 DUP2 GT ISZERO PUSH2 0x1707 JUMPI PUSH2 0x1706 PUSH2 0x36D1 JUMP JUMPDEST JUMPDEST MUL OR SWAP1 SSTORE POP PUSH1 0x1 PUSH0 SWAP1 SLOAD SWAP1 PUSH2 0x100 EXP SWAP1 DIV PUSH20 0xFFFFFFFFFFFFFFFFFFFFFFFFFFFFFFFFFFFFFFFF AND PUSH20 0xFFFFFFFFFFFFFFFFFFFFFFFFFFFFFFFFFFFFFFFF AND PUSH32 0x7B73F5D770F3EB41FD57F1E6A1C9E2A5EC61FEBBBD4E608D511C46E3FD611639 PUSH1 0x40 MLOAD PUSH2 0x1771 SWAP1 PUSH2 0x4207 JUMP JUMPDEST PUSH1 0x40 MLOAD DUP1 SWAP2 SUB SWAP1 LOG2 JUMP JUMPDEST PUSH1 0xD SLOAD DUP2 JUMP JUMPDEST PUSH1 0x12 PUSH0 SWAP1 SLOAD SWAP1 PUSH2 0x100 EXP SWAP1 DIV PUSH1 0xFF AND DUP2 JUMP JUMPDEST PUSH1 0x1 PUSH0 SWAP1 SLOAD SWAP1 PUSH2 0x100 EXP SWAP1 DIV PUSH20 0xFFFFFFFFFFFFFFFFFFFFFFFFFFFFFFFFFFFFFFFF AND PUSH20 0xFFFFFFFFFFFFFFFFFFFFFFFFFFFFFFFFFFFFFFFF AND CALLER PUSH20 0xFFFFFFFFFFFFFFFFFFFFFFFFFFFFFFFFFFFFFFFF AND EQ PUSH2 0x1822 JUMPI PUSH1 0x40 MLOAD PUSH32 0x8C379A000000000000000000000000000000000000000000000000000000000 DUP2 MSTORE PUSH1 0x4 ADD PUSH2 0x1819 SWAP1 PUSH2 0x3A30 JUMP JUMPDEST PUSH1 0x40 MLOAD DUP1 SWAP2 SUB SWAP1 REVERT JUMPDEST PUSH2 0x182A PUSH2 0x33AF JUMP JUMPDEST PUSH1 0x1 PUSH1 0x2 DUP2 GT ISZERO PUSH2 0x183E JUMPI PUSH2 0x183D PUSH2 0x36D1 JUMP JUMPDEST JUMPDEST PUSH1 0x16 PUSH0 SWAP1 SLOAD SWAP1 PUSH2 0x100 EXP SWAP1 DIV PUSH1 0xFF AND PUSH1 0x2 DUP2 GT ISZERO PUSH2 0x185F JUMPI PUSH2 0x185E PUSH2 0x36D1 JUMP JUMPDEST JUMPDEST EQ PUSH2 0x189F JUMPI PUSH1 0x40 MLOAD PUSH32 0x8C379A000000000000000000000000000000000000000000000000000000000 DUP2 MSTORE PUSH1 0x4 ADD PUSH2 0x1896 SWAP1 PUSH2 0x426F JUMP JUMPDEST PUSH1 0x40 MLOAD DUP1 SWAP2 SUB SWAP1 REVERT JUMPDEST PUSH0 PUSH2 0x18A8 PUSH2 0x1074 JUMP JUMPDEST SWAP1 POP PUSH0 PUSH1 0x8 SLOAD SWAP1 POP PUSH0 PUSH1 0x8 DUP2 SWAP1 SSTORE POP PUSH1 0x2 PUSH0 SWAP1 SLOAD SWAP1 PUSH2 0x100 EXP SWAP1 DIV PUSH20 0xFFFFFFFFFFFFFFFFFFFFFFFFFFFFFFFFFFFFFFFF AND PUSH20 0xFFFFFFFFFFFFFFFFFFFFFFFFFFFFFFFFFFFFFFFF AND PUSH2 0x8FC DUP4 SWAP1 DUP2 ISZERO MUL SWAP1 PUSH1 0x40 MLOAD PUSH0 PUSH1 0x40 MLOAD DUP1 DUP4 SUB DUP2 DUP6 DUP9 DUP9 CALL SWAP4 POP POP POP POP ISZERO DUP1 ISZERO PUSH2 0x191B JUMPI RETURNDATASIZE PUSH0 DUP1 RETURNDATACOPY RETURNDATASIZE PUSH0 REVERT JUMPDEST POP CALLER PUSH20 0xFFFFFFFFFFFFFFFFFFFFFFFFFFFFFFFFFFFFFFFF AND PUSH32 0xA09244C122A83074363635DC89CE0098166C2F74827960FF64A7C8E6AD1C57A2 DUP3 PUSH1 0x40 MLOAD PUSH2 0x1962 SWAP2 SWAP1 PUSH2 0x3775 JUMP JUMPDEST PUSH1 0x40 MLOAD DUP1 SWAP2 SUB SWAP1 LOG2 POP POP PUSH2 0x1974 PUSH2 0x33FC JUMP JUMPDEST JUMP JUMPDEST PUSH1 0xF SLOAD DUP2 JUMP JUMPDEST PUSH0 PUSH1 0x3 SWAP1 POP SWAP1 JUMP JUMPDEST PUSH0 PUSH5 0x2E90EDD000 SWAP1 POP SWAP1 JUMP JUMPDEST PUSH1 0x1 PUSH0 SWAP1 SLOAD SWAP1 PUSH2 0x100 EXP SWAP1 DIV PUSH20 0xFFFFFFFFFFFFFFFFFFFFFFFFFFFFFFFFFFFFFFFF AND PUSH20 0xFFFFFFFFFFFFFFFFFFFFFFFFFFFFFFFFFFFFFFFF AND CALLER PUSH20 0xFFFFFFFFFFFFFFFFFFFFFFFFFFFFFFFFFFFFFFFF AND EQ PUSH2 0x1A1F JUMPI PUSH1 0x40 MLOAD PUSH32 0x8C379A000000000000000000000000000000000000000000000000000000000 DUP2 MSTORE PUSH1 0x4 ADD PUSH2 0x1A16 SWAP1 PUSH2 0x3A30 JUMP JUMPDEST PUSH1 0x40 MLOAD DUP1 SWAP2 SUB SWAP1 REVERT JUMPDEST PUSH2 0x1A27 PUSH2 0x33AF JUMP JUMPDEST PUSH1 0x8 SLOAD DUP3 GT ISZERO PUSH2 0x1A6C JUMPI PUSH1 0x40 MLOAD PUSH32 0x8C379A000000000000000000000000000000000000000000000000000000000 DUP2 MSTORE PUSH1 0x4 ADD PUSH2 0x1A63 SWAP1 PUSH2 0x42D7 JUMP JUMPDEST PUSH1 0x40 MLOAD DUP1 SWAP2 SUB SWAP1 REVERT JUMPDEST DUP2 PUSH1 0x8 PUSH0 DUP3 DUP3 SLOAD PUSH2 0x1A7D SWAP2 SWAP1 PUSH2 0x3B7D JUMP JUMPDEST SWAP3 POP POP DUP2 SWAP1 SSTORE POP DUP2 PUSH1 0xA PUSH0 DUP3 DUP3 SLOAD PUSH2 0x1A95 SWAP2 SWAP1 PUSH2 0x3AE2 JUMP JUMPDEST SWAP3 POP POP DUP2 SWAP1 SSTORE POP PUSH1 0x1 PUSH0 SWAP1 SLOAD SWAP1 PUSH2 0x100 EXP SWAP1 DIV PUSH20 0xFFFFFFFFFFFFFFFFFFFFFFFFFFFFFFFFFFFFFFFF AND PUSH20 0xFFFFFFFFFFFFFFFFFFFFFFFFFFFFFFFFFFFFFFFF AND PUSH2 0x8FC DUP4 SWAP1 DUP2 ISZERO MUL SWAP1 PUSH1 0x40 MLOAD PUSH0 PUSH1 0x40 MLOAD DUP1 DUP4 SUB DUP2 DUP6 DUP9 DUP9 CALL SWAP4 POP POP POP POP ISZERO DUP1 ISZERO PUSH2 0x1B00 JUMPI RETURNDATASIZE PUSH0 DUP1 RETURNDATACOPY RETURNDATASIZE PUSH0 REVERT JUMPDEST POP PUSH1 0x1 PUSH0 SWAP1 SLOAD SWAP1 PUSH2 0x100 EXP SWAP1 DIV PUSH20 0xFFFFFFFFFFFFFFFFFFFFFFFFFFFFFFFFFFFFFFFF AND PUSH20 0xFFFFFFFFFFFFFFFFFFFFFFFFFFFFFFFFFFFFFFFF AND PUSH32 0xE71DB61460CADE63BDCE2BD520284D5FCDE93EB8604BE23456AC0761C5CB4D9 DUP4 DUP4 PUSH1 0x40 MLOAD PUSH2 0x1B6A SWAP3 SWAP2 SWAP1 PUSH2 0x42F5 JUMP JUMPDEST PUSH1 0x40 MLOAD DUP1 SWAP2 SUB SWAP1 LOG2 PUSH2 0x1B7A PUSH2 0x33FC JUMP JUMPDEST POP POP JUMP JUMPDEST PUSH1 0x2 PUSH0 SWAP1 SLOAD SWAP1 PUSH2 0x100 EXP SWAP1 DIV PUSH20 0xFFFFFFFFFFFFFFFFFFFFFFFFFFFFFFFFFFFFFFFF AND PUSH20 0xFFFFFFFFFFFFFFFFFFFFFFFFFFFFFFFFFFFFFFFF AND CALLER PUSH20 0xFFFFFFFFFFFFFFFFFFFFFFFFFFFFFFFFFFFFFFFF AND EQ PUSH2 0x1C0D JUMPI PUSH1 0x40 MLOAD PUSH32 0x8C379A000000000000000000000000000000000000000000000000000000000 DUP2 MSTORE PUSH1 0x4 ADD PUSH2 0x1C04 SWAP1 PUSH2 0x3E58 JUMP JUMPDEST PUSH1 0x40 MLOAD DUP1 SWAP2 SUB SWAP1 REVERT JUMPDEST PUSH1 0x2 DUP1 DUP2 GT ISZERO PUSH2 0x1C20 JUMPI PUSH2 0x1C1F PUSH2 0x36D1 JUMP JUMPDEST JUMPDEST PUSH1 0x16 PUSH0 SWAP1 SLOAD SWAP1 PUSH2 0x100 EXP SWAP1 DIV PUSH1 0xFF AND PUSH1 0x2 DUP2 GT ISZERO PUSH2 0x1C41 JUMPI PUSH2 0x1C40 PUSH2 0x36D1 JUMP JUMPDEST JUMPDEST EQ PUSH2 0x1C81 JUMPI PUSH1 0x40 MLOAD PUSH32 0x8C379A000000000000000000000000000000000000000000000000000000000 DUP2 MSTORE PUSH1 0x4 ADD PUSH2 0x1C78 SWAP1 PUSH2 0x4393 JUMP JUMPDEST PUSH1 0x40 MLOAD DUP1 SWAP2 SUB SWAP1 REVERT JUMPDEST PUSH1 0x14 PUSH0 SWAP1 SLOAD SWAP1 PUSH2 0x100 EXP SWAP1 DIV PUSH1 0xFF AND PUSH2 0x1CCF JUMPI PUSH1 0x40 MLOAD PUSH32 0x8C379A000000000000000000000000000000000000000000000000000000000 DUP2 MSTORE PUSH1 0x4 ADD PUSH2 0x1CC6 SWAP1 PUSH2 0x4421 JUMP JUMPDEST PUSH1 0x40 MLOAD DUP1 SWAP2 SUB SWAP1 REVERT JUMPDEST PUSH1 0x1 PUSH1 0x16 PUSH0 PUSH2 0x100 EXP DUP2 SLOAD DUP2 PUSH1 0xFF MUL NOT AND SWAP1 DUP4 PUSH1 0x2 DUP2 GT ISZERO PUSH2 0x1CF4 JUMPI PUSH2 0x1CF3 PUSH2 0x36D1 JUMP JUMPDEST JUMPDEST MUL OR SWAP1 SSTORE POP PUSH0 PUSH1 0x14 PUSH0 PUSH2 0x100 EXP DUP2 SLOAD DUP2 PUSH1 0xFF MUL NOT AND SWAP1 DUP4 ISZERO ISZERO MUL OR SWAP1 SSTORE POP CALLER PUSH20 0xFFFFFFFFFFFFFFFFFFFFFFFFFFFFFFFFFFFFFFFF AND PUSH32 0x7B73F5D770F3EB41FD57F1E6A1C9E2A5EC61FEBBBD4E608D511C46E3FD611639 PUSH1 0x40 MLOAD PUSH2 0x1D56 SWAP1 PUSH2 0x44AF JUMP JUMPDEST PUSH1 0x40 MLOAD DUP1 SWAP2 SUB SWAP1 LOG2 JUMP JUMPDEST PUSH1 0x2 PUSH0 SWAP1 SLOAD SWAP1 PUSH2 0x100 EXP SWAP1 DIV PUSH20 0xFFFFFFFFFFFFFFFFFFFFFFFFFFFFFFFFFFFFFFFF AND PUSH20 0xFFFFFFFFFFFFFFFFFFFFFFFFFFFFFFFFFFFFFFFF AND CALLER PUSH20 0xFFFFFFFFFFFFFFFFFFFFFFFFFFFFFFFFFFFFFFFF AND EQ PUSH2 0x1DEF JUMPI PUSH1 0x40 MLOAD PUSH32 0x8C379A000000000000000000000000000000000000000000000000000000000 DUP2 MSTORE PUSH1 0x4 ADD PUSH2 0x1DE6 SWAP1 PUSH2 0x3E58 JUMP JUMPDEST PUSH1 0x40 MLOAD DUP1 SWAP2 SUB SWAP1 REVERT JUMPDEST PUSH1 0x1 PUSH1 0x13 PUSH0 CALLER PUSH20 0xFFFFFFFFFFFFFFFFFFFFFFFFFFFFFFFFFFFFFFFF AND PUSH20 0xFFFFFFFFFFFFFFFFFFFFFFFFFFFFFFFFFFFFFFFF AND DUP2 MSTORE PUSH1 0x20 ADD SWAP1 DUP2 MSTORE PUSH1 0x20 ADD PUSH0 KECCAK256 PUSH0 PUSH2 0x100 EXP DUP2 SLOAD DUP2 PUSH1 0xFF MUL NOT AND SWAP1 DUP4 ISZERO ISZERO MUL OR SWAP1 SSTORE POP JUMP JUMPDEST PUSH1 0x17 DUP2 DUP2 SLOAD DUP2 LT PUSH2 0x1E55 JUMPI PUSH0 DUP1 REVERT JUMPDEST SWAP1 PUSH0 MSTORE PUSH1 0x20 PUSH0 KECCAK256 SWAP1 PUSH1 0x3 MUL ADD PUSH0 SWAP2 POP SWAP1 POP DUP1 PUSH0 ADD SLOAD SWAP1 DUP1 PUSH1 0x1 ADD SLOAD SWAP1 DUP1 PUSH1 0x2 ADD PUSH0 SWAP1 SLOAD SWAP1 PUSH2 0x100 EXP SWAP1 DIV PUSH1 0xFF AND SWAP1 POP DUP4 JUMP JUMPDEST PUSH1 0x2 PUSH0 SWAP1 SLOAD SWAP1 PUSH2 0x100 EXP SWAP1 DIV PUSH20 0xFFFFFFFFFFFFFFFFFFFFFFFFFFFFFFFFFFFFFFFF AND PUSH20 0xFFFFFFFFFFFFFFFFFFFFFFFFFFFFFFFFFFFFFFFF AND CALLER PUSH20 0xFFFFFFFFFFFFFFFFFFFFFFFFFFFFFFFFFFFFFFFF AND EQ PUSH2 0x1F16 JUMPI PUSH1 0x40 MLOAD PUSH32 0x8C379A000000000000000000000000000000000000000000000000000000000 DUP2 MSTORE PUSH1 0x4 ADD PUSH2 0x1F0D SWAP1 PUSH2 0x3E58 JUMP JUMPDEST PUSH1 0x40 MLOAD DUP1 SWAP2 SUB SWAP1 REVERT JUMPDEST PUSH2 0x1F1E PUSH2 0x33AF JUMP JUMPDEST PUSH1 0x1 PUSH1 0x2 DUP2 GT ISZERO PUSH2 0x1F32 JUMPI PUSH2 0x1F31 PUSH2 0x36D1 JUMP JUMPDEST JUMPDEST PUSH1 0x16 PUSH0 SWAP1 SLOAD SWAP1 PUSH2 0x100 EXP SWAP1 DIV PUSH1 0xFF AND PUSH1 0x2 DUP2 GT ISZERO PUSH2 0x1F53 JUMPI PUSH2 0x1F52 PUSH2 0x36D1 JUMP JUMPDEST JUMPDEST SUB PUSH2 0x1F93 JUMPI PUSH1 0x40 MLOAD PUSH32 0x8C379A000000000000000000000000000000000000000000000000000000000 DUP2 MSTORE PUSH1 0x4 ADD PUSH2 0x1F8A SWAP1 PUSH2 0x3EC0 JUMP JUMPDEST PUSH1 0x40 MLOAD DUP1 SWAP2 SUB SWAP1 REVERT JUMPDEST PUSH0 PUSH1 0x6 PUSH0 SWAP1 SLOAD SWAP1 PUSH2 0x100 EXP SWAP1 DIV PUSH1 0xFF AND ISZERO PUSH2 0x20B1 JUMPI PUSH1 0x3 SLOAD SWAP1 POP PUSH1 0x6 PUSH1 0x1 SWAP1 SLOAD SWAP1 PUSH2 0x100 EXP SWAP1 DIV PUSH20 0xFFFFFFFFFFFFFFFFFFFFFFFFFFFFFFFFFFFFFFFF AND PUSH20 0xFFFFFFFFFFFFFFFFFFFFFFFFFFFFFFFFFFFFFFFF AND PUSH4 0x23B872DD CALLER PUSH1 0x1 PUSH0 SWAP1 SLOAD SWAP1 PUSH2 0x100 EXP SWAP1 DIV PUSH20 0xFFFFFFFFFFFFFFFFFFFFFFFFFFFFFFFFFFFFFFFF AND DUP5 PUSH1 0x40 MLOAD DUP5 PUSH4 0xFFFFFFFF AND PUSH1 0xE0 SHL DUP2 MSTORE PUSH1 0x4 ADD PUSH2 0x202D SWAP4 SWAP3 SWAP2 SWAP1 PUSH2 0x3F6C JUMP JUMPDEST PUSH1 0x20 PUSH1 0x40 MLOAD DUP1 DUP4 SUB DUP2 PUSH0 DUP8 GAS CALL ISZERO DUP1 ISZERO PUSH2 0x2049 JUMPI RETURNDATASIZE PUSH0 DUP1 RETURNDATACOPY RETURNDATASIZE PUSH0 REVERT JUMPDEST POP POP POP POP PUSH1 0x40 MLOAD RETURNDATASIZE PUSH1 0x1F NOT PUSH1 0x1F DUP3 ADD AND DUP3 ADD DUP1 PUSH1 0x40 MSTORE POP DUP2 ADD SWAP1 PUSH2 0x206D SWAP2 SWAP1 PUSH2 0x3FCB JUMP JUMPDEST PUSH2 0x20AC JUMPI PUSH1 0x40 MLOAD PUSH32 0x8C379A000000000000000000000000000000000000000000000000000000000 DUP2 MSTORE PUSH1 0x4 ADD PUSH2 0x20A3 SWAP1 PUSH2 0x4517 JUMP JUMPDEST PUSH1 0x40 MLOAD DUP1 SWAP2 SUB SWAP1 REVERT JUMPDEST PUSH2 0x21E9 JUMP JUMPDEST PUSH0 PUSH2 0x20BA PUSH2 0x1984 JUMP JUMPDEST SWAP1 POP DUP1 PUSH11 0x52B7D2DCC80CD2E4000000 PUSH1 0x3 SLOAD PUSH2 0x20D6 SWAP2 SWAP1 PUSH2 0x3CF8 JUMP JUMPDEST PUSH2 0x20E0 SWAP2 SWAP1 PUSH2 0x3BDD JUMP JUMPDEST SWAP2 POP DUP2 CALLVALUE LT ISZERO PUSH2 0x2125 JUMPI PUSH1 0x40 MLOAD PUSH32 0x8C379A000000000000000000000000000000000000000000000000000000000 DUP2 MSTORE PUSH1 0x4 ADD PUSH2 0x211C SWAP1 PUSH2 0x457F JUMP JUMPDEST PUSH1 0x40 MLOAD DUP1 SWAP2 SUB SWAP1 REVERT JUMPDEST PUSH1 0x1 PUSH0 SWAP1 SLOAD SWAP1 PUSH2 0x100 EXP SWAP1 DIV PUSH20 0xFFFFFFFFFFFFFFFFFFFFFFFFFFFFFFFFFFFFFFFF AND PUSH20 0xFFFFFFFFFFFFFFFFFFFFFFFFFFFFFFFFFFFFFFFF AND PUSH2 0x8FC DUP4 SWAP1 DUP2 ISZERO MUL SWAP1 PUSH1 0x40 MLOAD PUSH0 PUSH1 0x40 MLOAD DUP1 DUP4 SUB DUP2 DUP6 DUP9 DUP9 CALL SWAP4 POP POP POP POP ISZERO DUP1 ISZERO PUSH2 0x2189 JUMPI RETURNDATASIZE PUSH0 DUP1 RETURNDATACOPY RETURNDATASIZE PUSH0 REVERT JUMPDEST POP DUP2 CALLVALUE GT ISZERO PUSH2 0x21E7 JUMPI PUSH0 DUP3 CALLVALUE PUSH2 0x219F SWAP2 SWAP1 PUSH2 0x3B7D JUMP JUMPDEST SWAP1 POP CALLER PUSH20 0xFFFFFFFFFFFFFFFFFFFFFFFFFFFFFFFFFFFFFFFF AND PUSH2 0x8FC DUP3 SWAP1 DUP2 ISZERO MUL SWAP1 PUSH1 0x40 MLOAD PUSH0 PUSH1 0x40 MLOAD DUP1 DUP4 SUB DUP2 DUP6 DUP9 DUP9 CALL SWAP4 POP POP POP POP ISZERO DUP1 ISZERO PUSH2 0x21E4 JUMPI RETURNDATASIZE PUSH0 DUP1 RETURNDATACOPY RETURNDATASIZE PUSH0 REVERT JUMPDEST POP POP JUMPDEST POP JUMPDEST DUP1 PUSH1 0xD SLOAD GT PUSH2 0x21FE JUMPI PUSH0 PUSH1 0xD DUP2 SWAP1 SSTORE POP PUSH2 0x2217 JUMP JUMPDEST DUP1 PUSH1 0xD PUSH0 DUP3 DUP3 SLOAD PUSH2 0x220F SWAP2 SWAP1 PUSH2 0x3B7D JUMP JUMPDEST SWAP3 POP POP DUP2 SWAP1 SSTORE POP JUMPDEST PUSH1 0x17 PUSH1 0x40 MLOAD DUP1 PUSH1 0x60 ADD PUSH1 0x40 MSTORE DUP1 TIMESTAMP DUP2 MSTORE PUSH1 0x20 ADD DUP4 DUP2 MSTORE PUSH1 0x20 ADD PUSH1 0x6 PUSH0 SWAP1 SLOAD SWAP1 PUSH2 0x100 EXP SWAP1 DIV PUSH1 0xFF AND ISZERO ISZERO DUP2 MSTORE POP SWAP1 DUP1 PUSH1 0x1 DUP2 SLOAD ADD DUP1 DUP3 SSTORE DUP1 SWAP2 POP POP PUSH1 0x1 SWAP1 SUB SWAP1 PUSH0 MSTORE PUSH1 0x20 PUSH0 KECCAK256 SWAP1 PUSH1 0x3 MUL ADD PUSH0 SWAP1 SWAP2 SWAP1 SWAP2 SWAP1 SWAP2 POP PUSH0 DUP3 ADD MLOAD DUP2 PUSH0 ADD SSTORE PUSH1 0x20 DUP3 ADD MLOAD DUP2 PUSH1 0x1 ADD SSTORE PUSH1 0x40 DUP3 ADD MLOAD DUP2 PUSH1 0x2 ADD PUSH0 PUSH2 0x100 EXP DUP2 SLOAD DUP2 PUSH1 0xFF MUL NOT AND SWAP1 DUP4 ISZERO ISZERO MUL OR SWAP1 SSTORE POP POP POP CALLER PUSH20 0xFFFFFFFFFFFFFFFFFFFFFFFFFFFFFFFFFFFFFFFF AND PUSH32 0xA0E44CC6F4F184BC83E145BF7F0CC703B7F698476124CF6A9D7D403D202E77FD DUP3 PUSH1 0x6 PUSH0 SWAP1 SLOAD SWAP1 PUSH2 0x100 EXP SWAP1 DIV PUSH1 0xFF AND PUSH1 0x40 MLOAD PUSH2 0x22F3 SWAP3 SWAP2 SWAP1 PUSH2 0x40C6 JUMP JUMPDEST PUSH1 0x40 MLOAD DUP1 SWAP2 SUB SWAP1 LOG2 POP PUSH2 0x2304 PUSH2 0x33FC JUMP JUMPDEST JUMP JUMPDEST PUSH1 0x2 PUSH0 SWAP1 SLOAD SWAP1 PUSH2 0x100 EXP SWAP1 DIV PUSH20 0xFFFFFFFFFFFFFFFFFFFFFFFFFFFFFFFFFFFFFFFF AND PUSH20 0xFFFFFFFFFFFFFFFFFFFFFFFFFFFFFFFFFFFFFFFF AND CALLER PUSH20 0xFFFFFFFFFFFFFFFFFFFFFFFFFFFFFFFFFFFFFFFF AND EQ PUSH2 0x2395 JUMPI PUSH1 0x40 MLOAD PUSH32 0x8C379A000000000000000000000000000000000000000000000000000000000 DUP2 MSTORE PUSH1 0x4 ADD PUSH2 0x238C SWAP1 PUSH2 0x3E58 JUMP JUMPDEST PUSH1 0x40 MLOAD DUP1 SWAP2 SUB SWAP1 REVERT JUMPDEST PUSH0 PUSH1 0x13 PUSH0 CALLER PUSH20 0xFFFFFFFFFFFFFFFFFFFFFFFFFFFFFFFFFFFFFFFF AND PUSH20 0xFFFFFFFFFFFFFFFFFFFFFFFFFFFFFFFFFFFFFFFF AND DUP2 MSTORE PUSH1 0x20 ADD SWAP1 DUP2 MSTORE PUSH1 0x20 ADD PUSH0 KECCAK256 PUSH0 PUSH2 0x100 EXP DUP2 SLOAD DUP2 PUSH1 0xFF MUL NOT AND SWAP1 DUP4 ISZERO ISZERO MUL OR SWAP1 SSTORE POP JUMP JUMPDEST PUSH1 0x2 PUSH0 SWAP1 SLOAD SWAP1 PUSH2 0x100 EXP SWAP1 DIV PUSH20 0xFFFFFFFFFFFFFFFFFFFFFFFFFFFFFFFFFFFFFFFF AND DUP2 JUMP JUMPDEST PUSH1 0x60 PUSH1 0x17 DUP1 SLOAD DUP1 PUSH1 0x20 MUL PUSH1 0x20 ADD PUSH1 0x40 MLOAD SWAP1 DUP2 ADD PUSH1 0x40 MSTORE DUP1 SWAP3 SWAP2 SWAP1 DUP2 DUP2 MSTORE PUSH1 0x20 ADD PUSH0 SWAP1 JUMPDEST DUP3 DUP3 LT ISZERO PUSH2 0x2490 JUMPI DUP4 DUP3 SWAP1 PUSH0 MSTORE PUSH1 0x20 PUSH0 KECCAK256 SWAP1 PUSH1 0x3 MUL ADD PUSH1 0x40 MLOAD DUP1 PUSH1 0x60 ADD PUSH1 0x40 MSTORE SWAP1 DUP2 PUSH0 DUP3 ADD SLOAD DUP2 MSTORE PUSH1 0x20 ADD PUSH1 0x1 DUP3 ADD SLOAD DUP2 MSTORE PUSH1 0x20 ADD PUSH1 0x2 DUP3 ADD PUSH0 SWAP1 SLOAD SWAP1 PUSH2 0x100 EXP SWAP1 DIV PUSH1 0xFF AND ISZERO ISZERO ISZERO ISZERO DUP2 MSTORE POP POP DUP2 MSTORE PUSH1 0x20 ADD SWAP1 PUSH1 0x1 ADD SWAP1 PUSH2 0x2433 JUMP JUMPDEST POP POP POP POP SWAP1 POP SWAP1 JUMP JUMPDEST PUSH1 0x60 PUSH0 PUSH1 0x2 DUP2 GT ISZERO PUSH2 0x24AE JUMPI PUSH2 0x24AD PUSH2 0x36D1 JUMP JUMPDEST JUMPDEST PUSH1 0x16 PUSH0 SWAP1 SLOAD SWAP1 PUSH2 0x100 EXP SWAP1 DIV PUSH1 0xFF AND PUSH1 0x2 DUP2 GT ISZERO PUSH2 0x24CF JUMPI PUSH2 0x24CE PUSH2 0x36D1 JUMP JUMPDEST JUMPDEST SUB PUSH2 0x2511 JUMPI PUSH1 0x40 MLOAD DUP1 PUSH1 0x40 ADD PUSH1 0x40 MSTORE DUP1 PUSH1 0x6 DUP2 MSTORE PUSH1 0x20 ADD PUSH32 0x4163746976650000000000000000000000000000000000000000000000000000 DUP2 MSTORE POP SWAP1 POP PUSH2 0x25C1 JUMP JUMPDEST PUSH1 0x1 PUSH1 0x2 DUP2 GT ISZERO PUSH2 0x2525 JUMPI PUSH2 0x2524 PUSH2 0x36D1 JUMP JUMPDEST JUMPDEST PUSH1 0x16 PUSH0 SWAP1 SLOAD SWAP1 PUSH2 0x100 EXP SWAP1 DIV PUSH1 0xFF AND PUSH1 0x2 DUP2 GT ISZERO PUSH2 0x2546 JUMPI PUSH2 0x2545 PUSH2 0x36D1 JUMP JUMPDEST JUMPDEST SUB PUSH2 0x2588 JUMPI PUSH1 0x40 MLOAD DUP1 PUSH1 0x40 ADD PUSH1 0x40 MSTORE DUP1 PUSH1 0xA DUP2 MSTORE PUSH1 0x20 ADD PUSH32 0x5465726D696E6174656400000000000000000000000000000000000000000000 DUP2 MSTORE POP SWAP1 POP PUSH2 0x25C1 JUMP JUMPDEST PUSH1 0x40 MLOAD DUP1 PUSH1 0x40 ADD PUSH1 0x40 MSTORE DUP1 PUSH1 0x12 DUP2 MSTORE PUSH1 0x20 ADD PUSH32 0x50656E64696E675465726D696E6174696F6E0000000000000000000000000000 DUP2 MSTORE POP SWAP1 POP JUMPDEST SWAP1 JUMP JUMPDEST PUSH1 0x2 PUSH0 SWAP1 SLOAD SWAP1 PUSH2 0x100 EXP SWAP1 DIV PUSH20 0xFFFFFFFFFFFFFFFFFFFFFFFFFFFFFFFFFFFFFFFF AND PUSH20 0xFFFFFFFFFFFFFFFFFFFFFFFFFFFFFFFFFFFFFFFF AND CALLER PUSH20 0xFFFFFFFFFFFFFFFFFFFFFFFFFFFFFFFFFFFFFFFF AND EQ PUSH2 0x2653 JUMPI PUSH1 0x40 MLOAD PUSH32 0x8C379A000000000000000000000000000000000000000000000000000000000 DUP2 MSTORE PUSH1 0x4 ADD PUSH2 0x264A SWAP1 PUSH2 0x3E58 JUMP JUMPDEST PUSH1 0x40 MLOAD DUP1 SWAP2 SUB SWAP1 REVERT JUMPDEST PUSH0 PUSH1 0x2 DUP2 GT ISZERO PUSH2 0x2666 JUMPI PUSH2 0x2665 PUSH2 0x36D1 JUMP JUMPDEST JUMPDEST PUSH1 0x16 PUSH0 SWAP1 SLOAD SWAP1 PUSH2 0x100 EXP SWAP1 DIV PUSH1 0xFF AND PUSH1 0x2 DUP2 GT ISZERO PUSH2 0x2687 JUMPI PUSH2 0x2686 PUSH2 0x36D1 JUMP JUMPDEST JUMPDEST EQ PUSH2 0x26C7 JUMPI PUSH1 0x40 MLOAD PUSH32 0x8C379A000000000000000000000000000000000000000000000000000000000 DUP2 MSTORE PUSH1 0x4 ADD PUSH2 0x26BE SWAP1 PUSH2 0x45E7 JUMP JUMPDEST PUSH1 0x40 MLOAD DUP1 SWAP2 SUB SWAP1 REVERT JUMPDEST PUSH1 0x1 PUSH1 0x12 PUSH0 PUSH2 0x100 EXP DUP2 SLOAD DUP2 PUSH1 0xFF MUL NOT AND SWAP1 DUP4 ISZERO ISZERO MUL OR SWAP1 SSTORE POP CALLER PUSH20 0xFFFFFFFFFFFFFFFFFFFFFFFFFFFFFFFFFFFFFFFF AND PUSH32 0xE50DD892821A34EA6A05E9560E362467EB50BDAA8A01F3807E5778B21296A41A PUSH1 0x40 MLOAD PUSH1 0x40 MLOAD DUP1 SWAP2 SUB SWAP1 LOG2 JUMP JUMPDEST PUSH1 0x14 PUSH0 SWAP1 SLOAD SWAP1 PUSH2 0x100 EXP SWAP1 DIV PUSH1 0xFF AND DUP2 JUMP JUMPDEST PUSH1 0x6 PUSH1 0x1 SWAP1 SLOAD SWAP1 PUSH2 0x100 EXP SWAP1 DIV PUSH20 0xFFFFFFFFFFFFFFFFFFFFFFFFFFFFFFFFFFFFFFFF AND DUP2 JUMP JUMPDEST PUSH1 0x2 PUSH0 SWAP1 SLOAD SWAP1 PUSH2 0x100 EXP SWAP1 DIV PUSH20 0xFFFFFFFFFFFFFFFFFFFFFFFFFFFFFFFFFFFFFFFF AND PUSH20 0xFFFFFFFFFFFFFFFFFFFFFFFFFFFFFFFFFFFFFFFF AND CALLER PUSH20 0xFFFFFFFFFFFFFFFFFFFFFFFFFFFFFFFFFFFFFFFF AND EQ PUSH2 0x27ED JUMPI PUSH1 0x40 MLOAD PUSH32 0x8C379A000000000000000000000000000000000000000000000000000000000 DUP2 MSTORE PUSH1 0x4 ADD PUSH2 0x27E4 SWAP1 PUSH2 0x3E58 JUMP JUMPDEST PUSH1 0x40 MLOAD DUP1 SWAP2 SUB SWAP1 REVERT JUMPDEST PUSH0 PUSH1 0x2 DUP2 GT ISZERO PUSH2 0x2800 JUMPI PUSH2 0x27FF PUSH2 0x36D1 JUMP JUMPDEST JUMPDEST PUSH1 0x16 PUSH0 SWAP1 SLOAD SWAP1 PUSH2 0x100 EXP SWAP1 DIV PUSH1 0xFF AND PUSH1 0x2 DUP2 GT ISZERO PUSH2 0x2821 JUMPI PUSH2 0x2820 PUSH2 0x36D1 JUMP JUMPDEST JUMPDEST EQ PUSH2 0x2861 JUMPI PUSH1 0x40 MLOAD PUSH32 0x8C379A000000000000000000000000000000000000000000000000000000000 DUP2 MSTORE PUSH1 0x4 ADD PUSH2 0x2858 SWAP1 PUSH2 0x464F JUMP JUMPDEST PUSH1 0x40 MLOAD DUP1 SWAP2 SUB SWAP1 REVERT JUMPDEST PUSH3 0x76A700 TIMESTAMP PUSH2 0x2870 SWAP2 SWAP1 PUSH2 0x3AE2 JUMP JUMPDEST PUSH1 0xF DUP2 SWAP1 SSTORE POP PUSH1 0x2 PUSH1 0x16 PUSH0 PUSH2 0x100 EXP DUP2 SLOAD DUP2 PUSH1 0xFF MUL NOT AND SWAP1 DUP4 PUSH1 0x2 DUP2 GT ISZERO PUSH2 0x289B JUMPI PUSH2 0x289A PUSH2 0x36D1 JUMP JUMPDEST JUMPDEST MUL OR SWAP1 SSTORE POP PUSH32 0x2032EEA88030B7D191BCBDC44C5AC10ED559F3E9F56A319C896F007B55ABA5C6 PUSH1 0xF SLOAD PUSH1 0x40 MLOAD PUSH2 0x28D1 SWAP2 SWAP1 PUSH2 0x3775 JUMP JUMPDEST PUSH1 0x40 MLOAD DUP1 SWAP2 SUB SWAP1 LOG1 JUMP JUMPDEST PUSH1 0x1 PUSH0 SWAP1 SLOAD SWAP1 PUSH2 0x100 EXP SWAP1 DIV PUSH20 0xFFFFFFFFFFFFFFFFFFFFFFFFFFFFFFFFFFFFFFFF AND PUSH20 0xFFFFFFFFFFFFFFFFFFFFFFFFFFFFFFFFFFFFFFFF AND CALLER PUSH20 0xFFFFFFFFFFFFFFFFFFFFFFFFFFFFFFFFFFFFFFFF AND EQ PUSH2 0x296A JUMPI PUSH1 0x40 MLOAD PUSH32 0x8C379A000000000000000000000000000000000000000000000000000000000 DUP2 MSTORE PUSH1 0x4 ADD PUSH2 0x2961 SWAP1 PUSH2 0x3A30 JUMP JUMPDEST PUSH1 0x40 MLOAD DUP1 SWAP2 SUB SWAP1 REVERT JUMPDEST PUSH3 0x93A80 PUSH20 0x0 PUSH4 0x5468AF10 PUSH1 0x15 SLOAD PUSH1 0x40 MLOAD DUP3 PUSH4 0xFFFFFFFF AND PUSH1 0xE0 SHL DUP2 MSTORE PUSH1 0x4 ADD PUSH2 0x29A7 SWAP2 SWAP1 PUSH2 0x3A5D JUMP JUMPDEST PUSH1 0x20 PUSH1 0x40 MLOAD DUP1 DUP4 SUB DUP2 DUP7 GAS DELEGATECALL ISZERO DUP1 ISZERO PUSH2 0x29C2 JUMPI RETURNDATASIZE PUSH0 DUP1 RETURNDATACOPY RETURNDATASIZE PUSH0 REVERT JUMPDEST POP POP POP POP PUSH1 0x40 MLOAD RETURNDATASIZE PUSH1 0x1F NOT PUSH1 0x1F DUP3 ADD AND DUP3 ADD DUP1 PUSH1 0x40 MSTORE POP DUP2 ADD SWAP1 PUSH2 0x29E6 SWAP2 SWAP1 PUSH2 0x3A8A JUMP JUMPDEST PUSH2 0x29F0 SWAP2 SWAP1 PUSH2 0x3AE2 JUMP JUMPDEST TIMESTAMP GT PUSH2 0x2A31 JUMPI PUSH1 0x40 MLOAD PUSH32 0x8C379A000000000000000000000000000000000000000000000000000000000 DUP2 MSTORE PUSH1 0x4 ADD PUSH2 0x2A28 SWAP1 PUSH2 0x46B7 JUMP JUMPDEST PUSH1 0x40 MLOAD DUP1 SWAP2 SUB SWAP1 REVERT JUMPDEST PUSH1 0x1 PUSH1 0xE PUSH0 PUSH2 0x100 EXP DUP2 SLOAD DUP2 PUSH1 0xFF MUL NOT AND SWAP1 DUP4 ISZERO ISZERO MUL OR SWAP1 SSTORE POP PUSH1 0x2 PUSH0 SWAP1 SLOAD SWAP1 PUSH2 0x100 EXP SWAP1 DIV PUSH20 0xFFFFFFFFFFFFFFFFFFFFFFFFFFFFFFFFFFFFFFFF AND PUSH20 0xFFFFFFFFFFFFFFFFFFFFFFFFFFFFFFFFFFFFFFFF AND PUSH32 0x8E0013EC8EA09FB2E5FC1733FCAA4D39F199B60C282B0300ADD067402B2AA91B PUSH1 0x40 MLOAD PUSH1 0x40 MLOAD DUP1 SWAP2 SUB SWAP1 LOG2 JUMP JUMPDEST PUSH1 0xB SLOAD DUP2 JUMP JUMPDEST PUSH1 0x1 PUSH0 SWAP1 SLOAD SWAP1 PUSH2 0x100 EXP SWAP1 DIV PUSH20 0xFFFFFFFFFFFFFFFFFFFFFFFFFFFFFFFFFFFFFFFF AND DUP2 JUMP JUMPDEST PUSH1 0x1 PUSH0 SWAP1 SLOAD SWAP1 PUSH2 0x100 EXP SWAP1 DIV PUSH20 0xFFFFFFFFFFFFFFFFFFFFFFFFFFFFFFFFFFFFFFFF AND PUSH20 0xFFFFFFFFFFFFFFFFFFFFFFFFFFFFFFFFFFFFFFFF AND CALLER PUSH20 0xFFFFFFFFFFFFFFFFFFFFFFFFFFFFFFFFFFFFFFFF AND EQ PUSH2 0x2B6B JUMPI PUSH1 0x40 MLOAD PUSH32 0x8C379A000000000000000000000000000000000000000000000000000000000 DUP2 MSTORE PUSH1 0x4 ADD PUSH2 0x2B62 SWAP1 PUSH2 0x3A30 JUMP JUMPDEST PUSH1 0x40 MLOAD DUP1 SWAP2 SUB SWAP1 REVERT JUMPDEST PUSH1 0x2 DUP1 DUP2 GT ISZERO PUSH2 0x2B7E JUMPI PUSH2 0x2B7D PUSH2 0x36D1 JUMP JUMPDEST JUMPDEST PUSH1 0x16 PUSH0 SWAP1 SLOAD SWAP1 PUSH2 0x100 EXP SWAP1 DIV PUSH1 0xFF AND PUSH1 0x2 DUP2 GT ISZERO PUSH2 0x2B9F JUMPI PUSH2 0x2B9E PUSH2 0x36D1 JUMP JUMPDEST JUMPDEST EQ PUSH2 0x2BDF JUMPI PUSH1 0x40 MLOAD PUSH32 0x8C379A000000000000000000000000000000000000000000000000000000000 DUP2 MSTORE PUSH1 0x4 ADD PUSH2 0x2BD6 SWAP1 PUSH2 0x471F JUMP JUMPDEST PUSH1 0x40 MLOAD DUP1 SWAP2 SUB SWAP1 REVERT JUMPDEST PUSH1 0xF SLOAD TIMESTAMP LT ISZERO PUSH2 0x2C24 JUMPI PUSH1 0x40 MLOAD PUSH32 0x8C379A000000000000000000000000000000000000000000000000000000000 DUP2 MSTORE PUSH1 0x4 ADD PUSH2 0x2C1B SWAP1 PUSH2 0x4787 JUMP JUMPDEST PUSH1 0x40 MLOAD DUP1 SWAP2 SUB SWAP1 REVERT JUMPDEST PUSH1 0x1 PUSH1 0x16 PUSH0 PUSH2 0x100 EXP DUP2 SLOAD DUP2 PUSH1 0xFF MUL NOT AND SWAP1 DUP4 PUSH1 0x2 DUP2 GT ISZERO PUSH2 0x2C49 JUMPI PUSH2 0x2C48 PUSH2 0x36D1 JUMP JUMPDEST JUMPDEST MUL OR SWAP1 SSTORE POP PUSH1 0x1 PUSH0 SWAP1 SLOAD SWAP1 PUSH2 0x100 EXP SWAP1 DIV PUSH20 0xFFFFFFFFFFFFFFFFFFFFFFFFFFFFFFFFFFFFFFFF AND PUSH20 0xFFFFFFFFFFFFFFFFFFFFFFFFFFFFFFFFFFFFFFFF AND PUSH32 0x7B73F5D770F3EB41FD57F1E6A1C9E2A5EC61FEBBBD4E608D511C46E3FD611639 PUSH1 0x40 MLOAD PUSH2 0x2CB3 SWAP1 PUSH2 0x483B JUMP JUMPDEST PUSH1 0x40 MLOAD DUP1 SWAP2 SUB SWAP1 LOG2 JUMP JUMPDEST PUSH1 0x1 PUSH0 SWAP1 SLOAD SWAP1 PUSH2 0x100 EXP SWAP1 DIV PUSH20 0xFFFFFFFFFFFFFFFFFFFFFFFFFFFFFFFFFFFFFFFF AND PUSH20 0xFFFFFFFFFFFFFFFFFFFFFFFFFFFFFFFFFFFFFFFF AND CALLER PUSH20 0xFFFFFFFFFFFFFFFFFFFFFFFFFFFFFFFFFFFFFFFF AND EQ PUSH2 0x2D4C JUMPI PUSH1 0x40 MLOAD PUSH32 0x8C379A000000000000000000000000000000000000000000000000000000000 DUP2 MSTORE PUSH1 0x4 ADD PUSH2 0x2D43 SWAP1 PUSH2 0x3A30 JUMP JUMPDEST PUSH1 0x40 MLOAD DUP1 SWAP2 SUB SWAP1 REVERT JUMPDEST PUSH1 0x13 PUSH0 PUSH1 0x2 PUSH0 SWAP1 SLOAD SWAP1 PUSH2 0x100 EXP SWAP1 DIV PUSH20 0xFFFFFFFFFFFFFFFFFFFFFFFFFFFFFFFFFFFFFFFF AND PUSH20 0xFFFFFFFFFFFFFFFFFFFFFFFFFFFFFFFFFFFFFFFF AND PUSH20 0xFFFFFFFFFFFFFFFFFFFFFFFFFFFFFFFFFFFFFFFF AND DUP2 MSTORE PUSH1 0x20 ADD SWAP1 DUP2 MSTORE PUSH1 0x20 ADD PUSH0 KECCAK256 PUSH0 SWAP1 SLOAD SWAP1 PUSH2 0x100 EXP SWAP1 DIV PUSH1 0xFF AND PUSH2 0x2DF6 JUMPI PUSH1 0x40 MLOAD PUSH32 0x8C379A000000000000000000000000000000000000000000000000000000000 DUP2 MSTORE PUSH1 0x4 ADD PUSH2 0x2DED SWAP1 PUSH2 0x48A3 JUMP JUMPDEST PUSH1 0x40 MLOAD DUP1 SWAP2 SUB SWAP1 REVERT JUMPDEST PUSH0 PUSH1 0x2 DUP2 GT ISZERO PUSH2 0x2E09 JUMPI PUSH2 0x2E08 PUSH2 0x36D1 JUMP JUMPDEST JUMPDEST PUSH1 0x16 PUSH0 SWAP1 SLOAD SWAP1 PUSH2 0x100 EXP SWAP1 DIV PUSH1 0xFF AND PUSH1 0x2 DUP2 GT ISZERO PUSH2 0x2E2A JUMPI PUSH2 0x2E29 PUSH2 0x36D1 JUMP JUMPDEST JUMPDEST EQ PUSH2 0x2E6A JUMPI PUSH1 0x40 MLOAD PUSH32 0x8C379A000000000000000000000000000000000000000000000000000000000 DUP2 MSTORE PUSH1 0x4 ADD PUSH2 0x2E61 SWAP1 PUSH2 0x3B5F JUMP JUMPDEST PUSH1 0x40 MLOAD DUP1 SWAP2 SUB SWAP1 REVERT JUMPDEST PUSH0 PUSH1 0x3 SLOAD SWAP1 POP PUSH1 0x6 PUSH1 0x1 SWAP1 SLOAD SWAP1 PUSH2 0x100 EXP SWAP1 DIV PUSH20 0xFFFFFFFFFFFFFFFFFFFFFFFFFFFFFFFFFFFFFFFF AND PUSH20 0xFFFFFFFFFFFFFFFFFFFFFFFFFFFFFFFFFFFFFFFF AND PUSH4 0x23B872DD PUSH1 0x2 PUSH0 SWAP1 SLOAD SWAP1 PUSH2 0x100 EXP SWAP1 DIV PUSH20 0xFFFFFFFFFFFFFFFFFFFFFFFFFFFFFFFFFFFFFFFF AND PUSH1 0x1 PUSH0 SWAP1 SLOAD SWAP1 PUSH2 0x100 EXP SWAP1 DIV PUSH20 0xFFFFFFFFFFFFFFFFFFFFFFFFFFFFFFFFFFFFFFFF AND DUP5 PUSH1 0x40 MLOAD DUP5 PUSH4 0xFFFFFFFF AND PUSH1 0xE0 SHL DUP2 MSTORE PUSH1 0x4 ADD PUSH2 0x2F11 SWAP4 SWAP3 SWAP2 SWAP1 PUSH2 0x3F6C JUMP JUMPDEST PUSH1 0x20 PUSH1 0x40 MLOAD DUP1 DUP4 SUB DUP2 PUSH0 DUP8 GAS CALL ISZERO DUP1 ISZERO PUSH2 0x2F2D JUMPI RETURNDATASIZE PUSH0 DUP1 RETURNDATACOPY RETURNDATASIZE PUSH0 REVERT JUMPDEST POP POP POP POP PUSH1 0x40 MLOAD RETURNDATASIZE PUSH1 0x1F NOT PUSH1 0x1F DUP3 ADD AND DUP3 ADD DUP1 PUSH1 0x40 MSTORE POP DUP2 ADD SWAP1 PUSH2 0x2F51 SWAP2 SWAP1 PUSH2 0x3FCB JUMP JUMPDEST PUSH2 0x2F90 JUMPI PUSH1 0x40 MLOAD PUSH32 0x8C379A000000000000000000000000000000000000000000000000000000000 DUP2 MSTORE PUSH1 0x4 ADD PUSH2 0x2F87 SWAP1 PUSH2 0x490B JUMP JUMPDEST PUSH1 0x40 MLOAD DUP1 SWAP2 SUB SWAP1 REVERT JUMPDEST PUSH1 0x17 PUSH1 0x40 MLOAD DUP1 PUSH1 0x60 ADD PUSH1 0x40 MSTORE DUP1 TIMESTAMP DUP2 MSTORE PUSH1 0x20 ADD DUP4 DUP2 MSTORE PUSH1 0x20 ADD PUSH1 0x1 ISZERO ISZERO DUP2 MSTORE POP SWAP1 DUP1 PUSH1 0x1 DUP2 SLOAD ADD DUP1 DUP3 SSTORE DUP1 SWAP2 POP POP PUSH1 0x1 SWAP1 SUB SWAP1 PUSH0 MSTORE PUSH1 0x20 PUSH0 KECCAK256 SWAP1 PUSH1 0x3 MUL ADD PUSH0 SWAP1 SWAP2 SWAP1 SWAP2 SWAP1 SWAP2 POP PUSH0 DUP3 ADD MLOAD DUP2 PUSH0 ADD SSTORE PUSH1 0x20 DUP3 ADD MLOAD DUP2 PUSH1 0x1 ADD SSTORE PUSH1 0x40 DUP3 ADD MLOAD DUP2 PUSH1 0x2 ADD PUSH0 PUSH2 0x100 EXP DUP2 SLOAD DUP2 PUSH1 0xFF MUL NOT AND SWAP1 DUP4 ISZERO ISZERO MUL OR SWAP1 SSTORE POP POP POP PUSH1 0x2 PUSH0 SWAP1 SLOAD SWAP1 PUSH2 0x100 EXP SWAP1 DIV PUSH20 0xFFFFFFFFFFFFFFFFFFFFFFFFFFFFFFFFFFFFFFFF AND PUSH20 0xFFFFFFFFFFFFFFFFFFFFFFFFFFFFFFFFFFFFFFFF AND PUSH32 0xA0E44CC6F4F184BC83E145BF7F0CC703B7F698476124CF6A9D7D403D202E77FD DUP3 PUSH1 0x1 PUSH1 0x40 MLOAD PUSH2 0x3073 SWAP3 SWAP2 SWAP1 PUSH2 0x40C6 JUMP JUMPDEST PUSH1 0x40 MLOAD DUP1 SWAP2 SUB SWAP1 LOG2 POP JUMP JUMPDEST PUSH1 0xA SLOAD DUP2 JUMP JUMPDEST PUSH1 0x11 SLOAD DUP2 JUMP JUMPDEST PUSH1 0x2 DUP1 DUP2 GT ISZERO PUSH2 0x309D JUMPI PUSH2 0x309C PUSH2 0x36D1 JUMP JUMPDEST JUMPDEST PUSH1 0x16 PUSH0 SWAP1 SLOAD SWAP1 PUSH2 0x100 EXP SWAP1 DIV PUSH1 0xFF AND PUSH1 0x2 DUP2 GT ISZERO PUSH2 0x30BE JUMPI PUSH2 0x30BD PUSH2 0x36D1 JUMP JUMPDEST JUMPDEST EQ PUSH2 0x30FE JUMPI PUSH1 0x40 MLOAD PUSH32 0x8C379A000000000000000000000000000000000000000000000000000000000 DUP2 MSTORE PUSH1 0x4 ADD PUSH2 0x30F5 SWAP1 PUSH2 0x4973 JUMP JUMPDEST PUSH1 0x40 MLOAD DUP1 SWAP2 SUB SWAP1 REVERT JUMPDEST PUSH1 0xF SLOAD TIMESTAMP LT ISZERO PUSH2 0x3143 JUMPI PUSH1 0x40 MLOAD PUSH32 0x8C379A000000000000000000000000000000000000000000000000000000000 DUP2 MSTORE PUSH1 0x4 ADD PUSH2 0x313A SWAP1 PUSH2 0x4787 JUMP JUMPDEST PUSH1 0x40 MLOAD DUP1 SWAP2 SUB SWAP1 REVERT JUMPDEST PUSH0 PUSH1 0xD SLOAD EQ PUSH2 0x3187 JUMPI PUSH1 0x40 MLOAD PUSH32 0x8C379A000000000000000000000000000000000000000000000000000000000 DUP2 MSTORE PUSH1 0x4 ADD PUSH2 0x317E SWAP1 PUSH2 0x49DB JUMP JUMPDEST PUSH1 0x40 MLOAD DUP1 SWAP2 SUB SWAP1 REVERT JUMPDEST PUSH1 0x1 PUSH1 0x16 PUSH0 PUSH2 0x100 EXP DUP2 SLOAD DUP2 PUSH1 0xFF MUL NOT AND SWAP1 DUP4 PUSH1 0x2 DUP2 GT ISZERO PUSH2 0x31AC JUMPI PUSH2 0x31AB PUSH2 0x36D1 JUMP JUMPDEST JUMPDEST MUL OR SWAP1 SSTORE POP PUSH1 0x2 PUSH0 SWAP1 SLOAD SWAP1 PUSH2 0x100 EXP SWAP1 DIV PUSH20 0xFFFFFFFFFFFFFFFFFFFFFFFFFFFFFFFFFFFFFFFF AND PUSH20 0xFFFFFFFFFFFFFFFFFFFFFFFFFFFFFFFFFFFFFFFF AND PUSH32 0x7B73F5D770F3EB41FD57F1E6A1C9E2A5EC61FEBBBD4E608D511C46E3FD611639 PUSH1 0x40 MLOAD PUSH2 0x3216 SWAP1 PUSH2 0x4A69 JUMP JUMPDEST PUSH1 0x40 MLOAD DUP1 SWAP2 SUB SWAP1 LOG2 JUMP JUMPDEST PUSH1 0x3 SLOAD DUP2 JUMP JUMPDEST PUSH1 0x1 PUSH0 SWAP1 SLOAD SWAP1 PUSH2 0x100 EXP SWAP1 DIV PUSH20 0xFFFFFFFFFFFFFFFFFFFFFFFFFFFFFFFFFFFFFFFF AND PUSH20 0xFFFFFFFFFFFFFFFFFFFFFFFFFFFFFFFFFFFFFFFF AND CALLER PUSH20 0xFFFFFFFFFFFFFFFFFFFFFFFFFFFFFFFFFFFFFFFF AND EQ PUSH2 0x32B5 JUMPI PUSH1 0x40 MLOAD PUSH32 0x8C379A000000000000000000000000000000000000000000000000000000000 DUP2 MSTORE PUSH1 0x4 ADD PUSH2 0x32AC SWAP1 PUSH2 0x3A30 JUMP JUMPDEST PUSH1 0x40 MLOAD DUP1 SWAP2 SUB SWAP1 REVERT JUMPDEST PUSH1 0x1 ISZERO ISZERO PUSH1 0x12 PUSH0 SWAP1 SLOAD SWAP1 PUSH2 0x100 EXP SWAP1 DIV PUSH1 0xFF AND ISZERO ISZERO EQ PUSH2 0x330A JUMPI PUSH1 0x40 MLOAD PUSH32 0x8C379A000000000000000000000000000000000000000000000000000000000 DUP2 MSTORE PUSH1 0x4 ADD PUSH2 0x3301 SWAP1 PUSH2 0x4AF7 JUMP JUMPDEST PUSH1 0x40 MLOAD DUP1 SWAP2 SUB SWAP1 REVERT JUMPDEST PUSH1 0x1 PUSH1 0x12 PUSH1 0x1 PUSH2 0x100 EXP DUP2 SLOAD DUP2 PUSH1 0xFF MUL NOT AND SWAP1 DUP4 ISZERO ISZERO MUL OR SWAP1 SSTORE POP PUSH4 0x1E13380 PUSH1 0x10 PUSH0 DUP3 DUP3 SLOAD PUSH2 0x333A SWAP2 SWAP1 PUSH2 0x3AE2 JUMP JUMPDEST SWAP3 POP POP DUP2 SWAP1 SSTORE POP PUSH0 PUSH1 0x12 PUSH0 PUSH2 0x100 EXP DUP2 SLOAD DUP2 PUSH1 0xFF MUL NOT AND SWAP1 DUP4 ISZERO ISZERO MUL OR SWAP1 SSTORE POP PUSH0 PUSH1 0x12 PUSH1 0x1 PUSH2 0x100 EXP DUP2 SLOAD DUP2 PUSH1 0xFF MUL NOT AND SWAP1 DUP4 ISZERO ISZERO MUL OR SWAP1 SSTORE POP PUSH32 0x9B92A9893C6F7C060109FBACF7A7ED7384B0D145F68541169A1A201EA42CE854 PUSH1 0x10 SLOAD PUSH1 0x40 MLOAD PUSH2 0x33A5 SWAP2 SWAP1 PUSH2 0x3775 JUMP JUMPDEST PUSH1 0x40 MLOAD DUP1 SWAP2 SUB SWAP1 LOG1 JUMP JUMPDEST PUSH1 0x2 PUSH0 SLOAD SUB PUSH2 0x33F3 JUMPI PUSH1 0x40 MLOAD PUSH32 0x8C379A000000000000000000000000000000000000000000000000000000000 DUP2 MSTORE PUSH1 0x4 ADD PUSH2 0x33EA SWAP1 PUSH2 0x4B5F JUMP JUMPDEST PUSH1 0x40 MLOAD DUP1 SWAP2 SUB SWAP1 REVERT JUMPDEST PUSH1 0x2 PUSH0 DUP2 SWAP1 SSTORE POP JUMP JUMPDEST PUSH1 0x1 PUSH0 DUP2 SWAP1 SSTORE POP JUMP JUMPDEST PUSH0 PUSH1 0x40 MLOAD SWAP1 POP SWAP1 JUMP JUMPDEST PUSH0 DUP1 REVERT JUMPDEST PUSH0 DUP1 REVERT JUMPDEST PUSH0 DUP1 REVERT JUMPDEST PUSH0 DUP1 REVERT JUMPDEST PUSH0 PUSH1 0x1F NOT PUSH1 0x1F DUP4 ADD AND SWAP1 POP SWAP2 SWAP1 POP JUMP JUMPDEST PUSH32 0x4E487B7100000000000000000000000000000000000000000000000000000000 PUSH0 MSTORE PUSH1 0x41 PUSH1 0x4 MSTORE PUSH1 0x24 PUSH0 REVERT JUMPDEST PUSH2 0x3464 DUP3 PUSH2 0x341E JUMP JUMPDEST DUP2 ADD DUP2 DUP2 LT PUSH8 0xFFFFFFFFFFFFFFFF DUP3 GT OR ISZERO PUSH2 0x3483 JUMPI PUSH2 0x3482 PUSH2 0x342E JUMP JUMPDEST JUMPDEST DUP1 PUSH1 0x40 MSTORE POP POP POP JUMP JUMPDEST PUSH0 PUSH2 0x3495 PUSH2 0x3405 JUMP JUMPDEST SWAP1 POP PUSH2 0x34A1 DUP3 DUP3 PUSH2 0x345B JUMP JUMPDEST SWAP2 SWAP1 POP JUMP JUMPDEST PUSH0 PUSH8 0xFFFFFFFFFFFFFFFF DUP3 GT ISZERO PUSH2 0x34C0 JUMPI PUSH2 0x34BF PUSH2 0x342E JUMP JUMPDEST JUMPDEST PUSH2 0x34C9 DUP3 PUSH2 0x341E JUMP JUMPDEST SWAP1 POP PUSH1 0x20 DUP2 ADD SWAP1 POP SWAP2 SWAP1 POP JUMP JUMPDEST DUP3 DUP2 DUP4 CALLDATACOPY PUSH0 DUP4 DUP4 ADD MSTORE POP POP POP JUMP JUMPDEST PUSH0 PUSH2 0x34F6 PUSH2 0x34F1 DUP5 PUSH2 0x34A6 JUMP JUMPDEST PUSH2 0x348C JUMP JUMPDEST SWAP1 POP DUP3 DUP2 MSTORE PUSH1 0x20 DUP2 ADD DUP5 DUP5 DUP5 ADD GT ISZERO PUSH2 0x3512 JUMPI PUSH2 0x3511 PUSH2 0x341A JUMP JUMPDEST JUMPDEST PUSH2 0x351D DUP5 DUP3 DUP6 PUSH2 0x34D6 JUMP JUMPDEST POP SWAP4 SWAP3 POP POP POP JUMP JUMPDEST PUSH0 DUP3 PUSH1 0x1F DUP4 ADD SLT PUSH2 0x3539 JUMPI PUSH2 0x3538 PUSH2 0x3416 JUMP JUMPDEST JUMPDEST DUP2 CALLDATALOAD PUSH2 0x3549 DUP5 DUP3 PUSH1 0x20 DUP7 ADD PUSH2 0x34E4 JUMP JUMPDEST SWAP2 POP POP SWAP3 SWAP2 POP POP JUMP JUMPDEST PUSH0 PUSH1 0x20 DUP3 DUP5 SUB SLT ISZERO PUSH2 0x3567 JUMPI PUSH2 0x3566 PUSH2 0x340E JUMP JUMPDEST JUMPDEST PUSH0 DUP3 ADD CALLDATALOAD PUSH8 0xFFFFFFFFFFFFFFFF DUP2 GT ISZERO PUSH2 0x3584 JUMPI PUSH2 0x3583 PUSH2 0x3412 JUMP JUMPDEST JUMPDEST PUSH2 0x3590 DUP5 DUP3 DUP6 ADD PUSH2 0x3525 JUMP JUMPDEST SWAP2 POP POP SWAP3 SWAP2 POP POP JUMP JUMPDEST PUSH0 DUP2 MLOAD SWAP1 POP SWAP2 SWAP1 POP JUMP JUMPDEST PUSH0 DUP3 DUP3 MSTORE PUSH1 0x20 DUP3 ADD SWAP1 POP SWAP3 SWAP2 POP POP JUMP JUMPDEST DUP3 DUP2 DUP4 MCOPY PUSH0 DUP4 DUP4 ADD MSTORE POP POP POP JUMP JUMPDEST PUSH0 PUSH2 0x35CB DUP3 PUSH2 0x3599 JUMP JUMPDEST PUSH2 0x35D5 DUP2 DUP6 PUSH2 0x35A3 JUMP JUMPDEST SWAP4 POP PUSH2 0x35E5 DUP2 DUP6 PUSH1 0x20 DUP7 ADD PUSH2 0x35B3 JUMP JUMPDEST PUSH2 0x35EE DUP2 PUSH2 0x341E JUMP JUMPDEST DUP5 ADD SWAP2 POP POP SWAP3 SWAP2 POP POP JUMP JUMPDEST PUSH0 PUSH1 0x20 DUP3 ADD SWAP1 POP DUP2 DUP2 SUB PUSH0 DUP4 ADD MSTORE PUSH2 0x3611 DUP2 DUP5 PUSH2 0x35C1 JUMP JUMPDEST SWAP1 POP SWAP3 SWAP2 POP POP JUMP JUMPDEST PUSH0 DUP2 ISZERO ISZERO SWAP1 POP SWAP2 SWAP1 POP JUMP JUMPDEST PUSH2 0x362D DUP2 PUSH2 0x3619 JUMP JUMPDEST DUP3 MSTORE POP POP JUMP JUMPDEST PUSH0 PUSH1 0x20 DUP3 ADD SWAP1 POP PUSH2 0x3646 PUSH0 DUP4 ADD DUP5 PUSH2 0x3624 JUMP JUMPDEST SWAP3 SWAP2 POP POP JUMP JUMPDEST PUSH0 PUSH20 0xFFFFFFFFFFFFFFFFFFFFFFFFFFFFFFFFFFFFFFFF DUP3 AND SWAP1 POP SWAP2 SWAP1 POP JUMP JUMPDEST PUSH0 PUSH2 0x3675 DUP3 PUSH2 0x364C JUMP JUMPDEST SWAP1 POP SWAP2 SWAP1 POP JUMP JUMPDEST PUSH2 0x3685 DUP2 PUSH2 0x366B JUMP JUMPDEST DUP2 EQ PUSH2 0x368F JUMPI PUSH0 DUP1 REVERT JUMPDEST POP JUMP JUMPDEST PUSH0 DUP2 CALLDATALOAD SWAP1 POP PUSH2 0x36A0 DUP2 PUSH2 0x367C JUMP JUMPDEST SWAP3 SWAP2 POP POP JUMP JUMPDEST PUSH0 PUSH1 0x20 DUP3 DUP5 SUB SLT ISZERO PUSH2 0x36BB JUMPI PUSH2 0x36BA PUSH2 0x340E JUMP JUMPDEST JUMPDEST PUSH0 PUSH2 0x36C8 DUP5 DUP3 DUP6 ADD PUSH2 0x3692 JUMP JUMPDEST SWAP2 POP POP SWAP3 SWAP2 POP POP JUMP JUMPDEST PUSH32 0x4E487B7100000000000000000000000000000000000000000000000000000000 PUSH0 MSTORE PUSH1 0x21 PUSH1 0x4 MSTORE PUSH1 0x24 PUSH0 REVERT JUMPDEST PUSH1 0x3 DUP2 LT PUSH2 0x370F JUMPI PUSH2 0x370E PUSH2 0x36D1 JUMP JUMPDEST JUMPDEST POP JUMP JUMPDEST PUSH0 DUP2 SWAP1 POP PUSH2 0x371F DUP3 PUSH2 0x36FE JUMP JUMPDEST SWAP2 SWAP1 POP JUMP JUMPDEST PUSH0 PUSH2 0x372E DUP3 PUSH2 0x3712 JUMP JUMPDEST SWAP1 POP SWAP2 SWAP1 POP JUMP JUMPDEST PUSH2 0x373E DUP2 PUSH2 0x3724 JUMP JUMPDEST DUP3 MSTORE POP POP JUMP JUMPDEST PUSH0 PUSH1 0x20 DUP3 ADD SWAP1 POP PUSH2 0x3757 PUSH0 DUP4 ADD DUP5 PUSH2 0x3735 JUMP JUMPDEST SWAP3 SWAP2 POP POP JUMP JUMPDEST PUSH0 DUP2 SWAP1 POP SWAP2 SWAP1 POP JUMP JUMPDEST PUSH2 0x376F DUP2 PUSH2 0x375D JUMP JUMPDEST DUP3 MSTORE POP POP JUMP JUMPDEST PUSH0 PUSH1 0x20 DUP3 ADD SWAP1 POP PUSH2 0x3788 PUSH0 DUP4 ADD DUP5 PUSH2 0x3766 JUMP JUMPDEST SWAP3 SWAP2 POP POP JUMP JUMPDEST PUSH2 0x3797 DUP2 PUSH2 0x375D JUMP JUMPDEST DUP2 EQ PUSH2 0x37A1 JUMPI PUSH0 DUP1 REVERT JUMPDEST POP JUMP JUMPDEST PUSH0 DUP2 CALLDATALOAD SWAP1 POP PUSH2 0x37B2 DUP2 PUSH2 0x378E JUMP JUMPDEST SWAP3 SWAP2 POP POP JUMP JUMPDEST PUSH0 DUP1 PUSH1 0x40 DUP4 DUP6 SUB SLT ISZERO PUSH2 0x37CE JUMPI PUSH2 0x37CD PUSH2 0x340E JUMP JUMPDEST JUMPDEST PUSH0 PUSH2 0x37DB DUP6 DUP3 DUP7 ADD PUSH2 0x37A4 JUMP JUMPDEST SWAP3 POP POP PUSH1 0x20 DUP4 ADD CALLDATALOAD PUSH8 0xFFFFFFFFFFFFFFFF DUP2 GT ISZERO PUSH2 0x37FC JUMPI PUSH2 0x37FB PUSH2 0x3412 JUMP JUMPDEST JUMPDEST PUSH2 0x3808 DUP6 DUP3 DUP7 ADD PUSH2 0x3525 JUMP JUMPDEST SWAP2 POP POP SWAP3 POP SWAP3 SWAP1 POP JUMP JUMPDEST PUSH0 PUSH1 0x20 DUP3 DUP5 SUB SLT ISZERO PUSH2 0x3827 JUMPI PUSH2 0x3826 PUSH2 0x340E JUMP JUMPDEST JUMPDEST PUSH0 PUSH2 0x3834 DUP5 DUP3 DUP6 ADD PUSH2 0x37A4 JUMP JUMPDEST SWAP2 POP POP SWAP3 SWAP2 POP POP JUMP JUMPDEST PUSH0 PUSH1 0x60 DUP3 ADD SWAP1 POP PUSH2 0x3850 PUSH0 DUP4 ADD DUP7 PUSH2 0x3766 JUMP JUMPDEST PUSH2 0x385D PUSH1 0x20 DUP4 ADD DUP6 PUSH2 0x3766 JUMP JUMPDEST PUSH2 0x386A PUSH1 0x40 DUP4 ADD DUP5 PUSH2 0x3624 JUMP JUMPDEST SWAP5 SWAP4 POP POP POP POP JUMP JUMPDEST PUSH2 0x387B DUP2 PUSH2 0x366B JUMP JUMPDEST DUP3 MSTORE POP POP JUMP JUMPDEST PUSH0 PUSH1 0x20 DUP3 ADD SWAP1 POP PUSH2 0x3894 PUSH0 DUP4 ADD DUP5 PUSH2 0x3872 JUMP JUMPDEST SWAP3 SWAP2 POP POP JUMP JUMPDEST PUSH0 DUP2 MLOAD SWAP1 POP SWAP2 SWAP1 POP JUMP JUMPDEST PUSH0 DUP3 DUP3 MSTORE PUSH1 0x20 DUP3 ADD SWAP1 POP SWAP3 SWAP2 POP POP JUMP JUMPDEST PUSH0 DUP2 SWAP1 POP PUSH1 0x20 DUP3 ADD SWAP1 POP SWAP2 SWAP1 POP JUMP JUMPDEST PUSH2 0x38CC DUP2 PUSH2 0x375D JUMP JUMPDEST DUP3 MSTORE POP POP JUMP JUMPDEST PUSH2 0x38DB DUP2 PUSH2 0x3619 JUMP JUMPDEST DUP3 MSTORE POP POP JUMP JUMPDEST PUSH1 0x60 DUP3 ADD PUSH0 DUP3 ADD MLOAD PUSH2 0x38F5 PUSH0 DUP6 ADD DUP3 PUSH2 0x38C3 JUMP JUMPDEST POP PUSH1 0x20 DUP3 ADD MLOAD PUSH2 0x3908 PUSH1 0x20 DUP6 ADD DUP3 PUSH2 0x38C3 JUMP JUMPDEST POP PUSH1 0x40 DUP3 ADD MLOAD PUSH2 0x391B PUSH1 0x40 DUP6 ADD DUP3 PUSH2 0x38D2 JUMP JUMPDEST POP POP POP POP JUMP JUMPDEST PUSH0 PUSH2 0x392C DUP4 DUP4 PUSH2 0x38E1 JUMP JUMPDEST PUSH1 0x60 DUP4 ADD SWAP1 POP SWAP3 SWAP2 POP POP JUMP JUMPDEST PUSH0 PUSH1 0x20 DUP3 ADD SWAP1 POP SWAP2 SWAP1 POP JUMP JUMPDEST PUSH0 PUSH2 0x394E DUP3 PUSH2 0x389A JUMP JUMPDEST PUSH2 0x3958 DUP2 DUP6 PUSH2 0x38A4 JUMP JUMPDEST SWAP4 POP PUSH2 0x3963 DUP4 PUSH2 0x38B4 JUMP JUMPDEST DUP1 PUSH0 JUMPDEST DUP4 DUP2 LT ISZERO PUSH2 0x3993 JUMPI DUP2 MLOAD PUSH2 0x397A DUP9 DUP3 PUSH2 0x3921 JUMP JUMPDEST SWAP8 POP PUSH2 0x3985 DUP4 PUSH2 0x3938 JUMP JUMPDEST SWAP3 POP POP PUSH1 0x1 DUP2 ADD SWAP1 POP PUSH2 0x3966 JUMP JUMPDEST POP DUP6 SWAP4 POP POP POP POP SWAP3 SWAP2 POP POP JUMP JUMPDEST PUSH0 PUSH1 0x20 DUP3 ADD SWAP1 POP DUP2 DUP2 SUB PUSH0 DUP4 ADD MSTORE PUSH2 0x39B8 DUP2 DUP5 PUSH2 0x3944 JUMP JUMPDEST SWAP1 POP SWAP3 SWAP2 POP POP JUMP JUMPDEST PUSH32 0x4F6E6C79206C616E646C6F72642063616E20706572666F726D20746869732061 PUSH0 DUP3 ADD MSTORE PUSH32 0x6374696F6E000000000000000000000000000000000000000000000000000000 PUSH1 0x20 DUP3 ADD MSTORE POP JUMP JUMPDEST PUSH0 PUSH2 0x3A1A PUSH1 0x25 DUP4 PUSH2 0x35A3 JUMP JUMPDEST SWAP2 POP PUSH2 0x3A25 DUP3 PUSH2 0x39C0 JUMP JUMPDEST PUSH1 0x40 DUP3 ADD SWAP1 POP SWAP2 SWAP1 POP JUMP JUMPDEST PUSH0 PUSH1 0x20 DUP3 ADD SWAP1 POP DUP2 DUP2 SUB PUSH0 DUP4 ADD MSTORE PUSH2 0x3A47 DUP2 PUSH2 0x3A0E JUMP JUMPDEST SWAP1 POP SWAP2 SWAP1 POP JUMP JUMPDEST PUSH2 0x3A57 DUP2 PUSH2 0x375D JUMP JUMPDEST DUP3 MSTORE POP POP JUMP JUMPDEST PUSH0 PUSH1 0x20 DUP3 ADD SWAP1 POP PUSH2 0x3A70 PUSH0 DUP4 ADD DUP5 PUSH2 0x3A4E JUMP JUMPDEST SWAP3 SWAP2 POP POP JUMP JUMPDEST PUSH0 DUP2 MLOAD SWAP1 POP PUSH2 0x3A84 DUP2 PUSH2 0x378E JUMP JUMPDEST SWAP3 SWAP2 POP POP JUMP JUMPDEST PUSH0 PUSH1 0x20 DUP3 DUP5 SUB SLT ISZERO PUSH2 0x3A9F JUMPI PUSH2 0x3A9E PUSH2 0x340E JUMP JUMPDEST JUMPDEST PUSH0 PUSH2 0x3AAC DUP5 DUP3 DUP6 ADD PUSH2 0x3A76 JUMP JUMPDEST SWAP2 POP POP SWAP3 SWAP2 POP POP JUMP JUMPDEST PUSH32 0x4E487B7100000000000000000000000000000000000000000000000000000000 PUSH0 MSTORE PUSH1 0x11 PUSH1 0x4 MSTORE PUSH1 0x24 PUSH0 REVERT JUMPDEST PUSH0 PUSH2 0x3AEC DUP3 PUSH2 0x375D JUMP JUMPDEST SWAP2 POP PUSH2 0x3AF7 DUP4 PUSH2 0x375D JUMP JUMPDEST SWAP3 POP DUP3 DUP3 ADD SWAP1 POP DUP1 DUP3 GT ISZERO PUSH2 0x3B0F JUMPI PUSH2 0x3B0E PUSH2 0x3AB5 JUMP JUMPDEST JUMPDEST SWAP3 SWAP2 POP POP JUMP JUMPDEST PUSH32 0x436F6E7472616374206973206E6F742061637469766500000000000000000000 PUSH0 DUP3 ADD MSTORE POP JUMP JUMPDEST PUSH0 PUSH2 0x3B49 PUSH1 0x16 DUP4 PUSH2 0x35A3 JUMP JUMPDEST SWAP2 POP PUSH2 0x3B54 DUP3 PUSH2 0x3B15 JUMP JUMPDEST PUSH1 0x20 DUP3 ADD SWAP1 POP SWAP2 SWAP1 POP JUMP JUMPDEST PUSH0 PUSH1 0x20 DUP3 ADD SWAP1 POP DUP2 DUP2 SUB PUSH0 DUP4 ADD MSTORE PUSH2 0x3B76 DUP2 PUSH2 0x3B3D JUMP JUMPDEST SWAP1 POP SWAP2 SWAP1 POP JUMP JUMPDEST PUSH0 PUSH2 0x3B87 DUP3 PUSH2 0x375D JUMP JUMPDEST SWAP2 POP PUSH2 0x3B92 DUP4 PUSH2 0x375D JUMP JUMPDEST SWAP3 POP DUP3 DUP3 SUB SWAP1 POP DUP2 DUP2 GT ISZERO PUSH2 0x3BAA JUMPI PUSH2 0x3BA9 PUSH2 0x3AB5 JUMP JUMPDEST JUMPDEST SWAP3 SWAP2 POP POP JUMP JUMPDEST PUSH32 0x4E487B7100000000000000000000000000000000000000000000000000000000 PUSH0 MSTORE PUSH1 0x12 PUSH1 0x4 MSTORE PUSH1 0x24 PUSH0 REVERT JUMPDEST PUSH0 PUSH2 0x3BE7 DUP3 PUSH2 0x375D JUMP JUMPDEST SWAP2 POP PUSH2 0x3BF2 DUP4 PUSH2 0x375D JUMP JUMPDEST SWAP3 POP DUP3 PUSH2 0x3C02 JUMPI PUSH2 0x3C01 PUSH2 0x3BB0 JUMP JUMPDEST JUMPDEST DUP3 DUP3 DIV SWAP1 POP SWAP3 SWAP2 POP POP JUMP JUMPDEST PUSH32 0x4E487B7100000000000000000000000000000000000000000000000000000000 PUSH0 MSTORE PUSH1 0x22 PUSH1 0x4 MSTORE PUSH1 0x24 PUSH0 REVERT JUMPDEST PUSH0 PUSH1 0x2 DUP3 DIV SWAP1 POP PUSH1 0x1 DUP3 AND DUP1 PUSH2 0x3C51 JUMPI PUSH1 0x7F DUP3 AND SWAP2 POP JUMPDEST PUSH1 0x20 DUP3 LT DUP2 SUB PUSH2 0x3C64 JUMPI PUSH2 0x3C63 PUSH2 0x3C0D JUMP JUMPDEST JUMPDEST POP SWAP2 SWAP1 POP JUMP JUMPDEST PUSH32 0x436F6E7472616374206D7573742062652070656E64696E672074656D696E6174 PUSH0 DUP3 ADD MSTORE PUSH32 0x696F6E0000000000000000000000000000000000000000000000000000000000 PUSH1 0x20 DUP3 ADD MSTORE POP JUMP JUMPDEST PUSH0 PUSH2 0x3CC4 PUSH1 0x23 DUP4 PUSH2 0x35A3 JUMP JUMPDEST SWAP2 POP PUSH2 0x3CCF DUP3 PUSH2 0x3C6A JUMP JUMPDEST PUSH1 0x40 DUP3 ADD SWAP1 POP SWAP2 SWAP1 POP JUMP JUMPDEST PUSH0 PUSH1 0x20 DUP3 ADD SWAP1 POP DUP2 DUP2 SUB PUSH0 DUP4 ADD MSTORE PUSH2 0x3CF1 DUP2 PUSH2 0x3CB8 JUMP JUMPDEST SWAP1 POP SWAP2 SWAP1 POP JUMP JUMPDEST PUSH0 PUSH2 0x3D02 DUP3 PUSH2 0x375D JUMP JUMPDEST SWAP2 POP PUSH2 0x3D0D DUP4 PUSH2 0x375D JUMP JUMPDEST SWAP3 POP DUP3 DUP3 MUL PUSH2 0x3D1B DUP2 PUSH2 0x375D JUMP JUMPDEST SWAP2 POP DUP3 DUP3 DIV DUP5 EQ DUP4 ISZERO OR PUSH2 0x3D32 JUMPI PUSH2 0x3D31 PUSH2 0x3AB5 JUMP JUMPDEST JUMPDEST POP SWAP3 SWAP2 POP POP JUMP JUMPDEST PUSH32 0x4E6F2070656E64696E67207761726E696E6720746F20636F6E6669726D000000 PUSH0 DUP3 ADD MSTORE POP JUMP JUMPDEST PUSH0 PUSH2 0x3D6D PUSH1 0x1D DUP4 PUSH2 0x35A3 JUMP JUMPDEST SWAP2 POP PUSH2 0x3D78 DUP3 PUSH2 0x3D39 JUMP JUMPDEST PUSH1 0x20 DUP3 ADD SWAP1 POP SWAP2 SWAP1 POP JUMP JUMPDEST PUSH0 PUSH1 0x20 DUP3 ADD SWAP1 POP DUP2 DUP2 SUB PUSH0 DUP4 ADD MSTORE PUSH2 0x3D9A DUP2 PUSH2 0x3D61 JUMP JUMPDEST SWAP1 POP SWAP2 SWAP1 POP JUMP JUMPDEST PUSH0 PUSH2 0x3DAB DUP3 PUSH2 0x375D JUMP JUMPDEST SWAP2 POP PUSH32 0xFFFFFFFFFFFFFFFFFFFFFFFFFFFFFFFFFFFFFFFFFFFFFFFFFFFFFFFFFFFFFFFF DUP3 SUB PUSH2 0x3DDD JUMPI PUSH2 0x3DDC PUSH2 0x3AB5 JUMP JUMPDEST JUMPDEST PUSH1 0x1 DUP3 ADD SWAP1 POP SWAP2 SWAP1 POP JUMP JUMPDEST PUSH32 0x4F6E6C792054656E616E742063616E20706572666F726D207468697320616374 PUSH0 DUP3 ADD MSTORE PUSH32 0x696F6E0000000000000000000000000000000000000000000000000000000000 PUSH1 0x20 DUP3 ADD MSTORE POP JUMP JUMPDEST PUSH0 PUSH2 0x3E42 PUSH1 0x23 DUP4 PUSH2 0x35A3 JUMP JUMPDEST SWAP2 POP PUSH2 0x3E4D DUP3 PUSH2 0x3DE8 JUMP JUMPDEST PUSH1 0x40 DUP3 ADD SWAP1 POP SWAP2 SWAP1 POP JUMP JUMPDEST PUSH0 PUSH1 0x20 DUP3 ADD SWAP1 POP DUP2 DUP2 SUB PUSH0 DUP4 ADD MSTORE PUSH2 0x3E6F DUP2 PUSH2 0x3E36 JUMP JUMPDEST SWAP1 POP SWAP2 SWAP1 POP JUMP JUMPDEST PUSH32 0x52656E74616C20636F6E7472616374206973206E6F7420616374697665000000 PUSH0 DUP3 ADD MSTORE POP JUMP JUMPDEST PUSH0 PUSH2 0x3EAA PUSH1 0x1D DUP4 PUSH2 0x35A3 JUMP JUMPDEST SWAP2 POP PUSH2 0x3EB5 DUP3 PUSH2 0x3E76 JUMP JUMPDEST PUSH1 0x20 DUP3 ADD SWAP1 POP SWAP2 SWAP1 POP JUMP JUMPDEST PUSH0 PUSH1 0x20 DUP3 ADD SWAP1 POP DUP2 DUP2 SUB PUSH0 DUP4 ADD MSTORE PUSH2 0x3ED7 DUP2 PUSH2 0x3E9E JUMP JUMPDEST SWAP1 POP SWAP2 SWAP1 POP JUMP JUMPDEST PUSH32 0x4E6F2045544820726571756972656420666F7220737461626C65636F696E2064 PUSH0 DUP3 ADD MSTORE PUSH32 0x65706F7369740000000000000000000000000000000000000000000000000000 PUSH1 0x20 DUP3 ADD MSTORE POP JUMP JUMPDEST PUSH0 PUSH2 0x3F38 PUSH1 0x26 DUP4 PUSH2 0x35A3 JUMP JUMPDEST SWAP2 POP PUSH2 0x3F43 DUP3 PUSH2 0x3EDE JUMP JUMPDEST PUSH1 0x40 DUP3 ADD SWAP1 POP SWAP2 SWAP1 POP JUMP JUMPDEST PUSH0 PUSH1 0x20 DUP3 ADD SWAP1 POP DUP2 DUP2 SUB PUSH0 DUP4 ADD MSTORE PUSH2 0x3F65 DUP2 PUSH2 0x3F2C JUMP JUMPDEST SWAP1 POP SWAP2 SWAP1 POP JUMP JUMPDEST PUSH0 PUSH1 0x60 DUP3 ADD SWAP1 POP PUSH2 0x3F7F PUSH0 DUP4 ADD DUP7 PUSH2 0x3872 JUMP JUMPDEST PUSH2 0x3F8C PUSH1 0x20 DUP4 ADD DUP6 PUSH2 0x3872 JUMP JUMPDEST PUSH2 0x3F99 PUSH1 0x40 DUP4 ADD DUP5 PUSH2 0x3766 JUMP JUMPDEST SWAP5 SWAP4 POP POP POP POP JUMP JUMPDEST PUSH2 0x3FAA DUP2 PUSH2 0x3619 JUMP JUMPDEST DUP2 EQ PUSH2 0x3FB4 JUMPI PUSH0 DUP1 REVERT JUMPDEST POP JUMP JUMPDEST PUSH0 DUP2 MLOAD SWAP1 POP PUSH2 0x3FC5 DUP2 PUSH2 0x3FA1 JUMP JUMPDEST SWAP3 SWAP2 POP POP JUMP JUMPDEST PUSH0 PUSH1 0x20 DUP3 DUP5 SUB SLT ISZERO PUSH2 0x3FE0 JUMPI PUSH2 0x3FDF PUSH2 0x340E JUMP JUMPDEST JUMPDEST PUSH0 PUSH2 0x3FED DUP5 DUP3 DUP6 ADD PUSH2 0x3FB7 JUMP JUMPDEST SWAP2 POP POP SWAP3 SWAP2 POP POP JUMP JUMPDEST PUSH32 0x537461626C65636F696E206465706F736974206661696C656400000000000000 PUSH0 DUP3 ADD MSTORE POP JUMP JUMPDEST PUSH0 PUSH2 0x402A PUSH1 0x19 DUP4 PUSH2 0x35A3 JUMP JUMPDEST SWAP2 POP PUSH2 0x4035 DUP3 PUSH2 0x3FF6 JUMP JUMPDEST PUSH1 0x20 DUP3 ADD SWAP1 POP SWAP2 SWAP1 POP JUMP JUMPDEST PUSH0 PUSH1 0x20 DUP3 ADD SWAP1 POP DUP2 DUP2 SUB PUSH0 DUP4 ADD MSTORE PUSH2 0x4057 DUP2 PUSH2 0x401E JUMP JUMPDEST SWAP1 POP SWAP2 SWAP1 POP JUMP JUMPDEST PUSH32 0x496E73756666696369656E74204554482073656E740000000000000000000000 PUSH0 DUP3 ADD MSTORE POP JUMP JUMPDEST PUSH0 PUSH2 0x4092 PUSH1 0x15 DUP4 PUSH2 0x35A3 JUMP JUMPDEST SWAP2 POP PUSH2 0x409D DUP3 PUSH2 0x405E JUMP JUMPDEST PUSH1 0x20 DUP3 ADD SWAP1 POP SWAP2 SWAP1 POP JUMP JUMPDEST PUSH0 PUSH1 0x20 DUP3 ADD SWAP1 POP DUP2 DUP2 SUB PUSH0 DUP4 ADD MSTORE PUSH2 0x40BF DUP2 PUSH2 0x4086 JUMP JUMPDEST SWAP1 POP SWAP2 SWAP1 POP JUMP JUMPDEST PUSH0 PUSH1 0x40 DUP3 ADD SWAP1 POP PUSH2 0x40D9 PUSH0 DUP4 ADD DUP6 PUSH2 0x3766 JUMP JUMPDEST PUSH2 0x40E6 PUSH1 0x20 DUP4 ADD DUP5 PUSH2 0x3624 JUMP JUMPDEST SWAP4 SWAP3 POP POP POP JUMP JUMPDEST PUSH32 0x436F6E747261637420686173206E6F7420657870697265642079657400000000 PUSH0 DUP3 ADD MSTORE POP JUMP JUMPDEST PUSH0 PUSH2 0x4121 PUSH1 0x1C DUP4 PUSH2 0x35A3 JUMP JUMPDEST SWAP2 POP PUSH2 0x412C DUP3 PUSH2 0x40ED JUMP JUMPDEST PUSH1 0x20 DUP3 ADD SWAP1 POP SWAP2 SWAP1 POP JUMP JUMPDEST PUSH0 PUSH1 0x20 DUP3 ADD SWAP1 POP DUP2 DUP2 SUB PUSH0 DUP4 ADD MSTORE PUSH2 0x414E DUP2 PUSH2 0x4115 JUMP JUMPDEST SWAP1 POP SWAP2 SWAP1 POP JUMP JUMPDEST PUSH32 0x436F6E747261637420686173206265656E2072656E6577656400000000000000 PUSH0 DUP3 ADD MSTORE POP JUMP JUMPDEST PUSH0 PUSH2 0x4189 PUSH1 0x19 DUP4 PUSH2 0x35A3 JUMP JUMPDEST SWAP2 POP PUSH2 0x4194 DUP3 PUSH2 0x4155 JUMP JUMPDEST PUSH1 0x20 DUP3 ADD SWAP1 POP SWAP2 SWAP1 POP JUMP JUMPDEST PUSH0 PUSH1 0x20 DUP3 ADD SWAP1 POP DUP2 DUP2 SUB PUSH0 DUP4 ADD MSTORE PUSH2 0x41B6 DUP2 PUSH2 0x417D JUMP JUMPDEST SWAP1 POP SWAP2 SWAP1 POP JUMP JUMPDEST PUSH32 0x436F6E7472616374206578706972656420776974686F75742072656E6577616C PUSH0 DUP3 ADD MSTORE POP JUMP JUMPDEST PUSH0 PUSH2 0x41F1 PUSH1 0x20 DUP4 PUSH2 0x35A3 JUMP JUMPDEST SWAP2 POP PUSH2 0x41FC DUP3 PUSH2 0x41BD JUMP JUMPDEST PUSH1 0x20 DUP3 ADD SWAP1 POP SWAP2 SWAP1 POP JUMP JUMPDEST PUSH0 PUSH1 0x20 DUP3 ADD SWAP1 POP DUP2 DUP2 SUB PUSH0 DUP4 ADD MSTORE PUSH2 0x421E DUP2 PUSH2 0x41E5 JUMP JUMPDEST SWAP1 POP SWAP2 SWAP1 POP JUMP JUMPDEST PUSH32 0x436F6E7472616374206D75737420626572207465726D696E6174656400000000 PUSH0 DUP3 ADD MSTORE POP JUMP JUMPDEST PUSH0 PUSH2 0x4259 PUSH1 0x1C DUP4 PUSH2 0x35A3 JUMP JUMPDEST SWAP2 POP PUSH2 0x4264 DUP3 PUSH2 0x4225 JUMP JUMPDEST PUSH1 0x20 DUP3 ADD SWAP1 POP SWAP2 SWAP1 POP JUMP JUMPDEST PUSH0 PUSH1 0x20 DUP3 ADD SWAP1 POP DUP2 DUP2 SUB PUSH0 DUP4 ADD MSTORE PUSH2 0x4286 DUP2 PUSH2 0x424D JUMP JUMPDEST SWAP1 POP SWAP2 SWAP1 POP JUMP JUMPDEST PUSH32 0x446564756374696F6E2065786365656473206465706F73697420616D6F756E74 PUSH0 DUP3 ADD MSTORE POP JUMP JUMPDEST PUSH0 PUSH2 0x42C1 PUSH1 0x20 DUP4 PUSH2 0x35A3 JUMP JUMPDEST SWAP2 POP PUSH2 0x42CC DUP3 PUSH2 0x428D JUMP JUMPDEST PUSH1 0x20 DUP3 ADD SWAP1 POP SWAP2 SWAP1 POP JUMP JUMPDEST PUSH0 PUSH1 0x20 DUP3 ADD SWAP1 POP DUP2 DUP2 SUB PUSH0 DUP4 ADD MSTORE PUSH2 0x42EE DUP2 PUSH2 0x42B5 JUMP JUMPDEST SWAP1 POP SWAP2 SWAP1 POP JUMP JUMPDEST PUSH0 PUSH1 0x40 DUP3 ADD SWAP1 POP PUSH2 0x4308 PUSH0 DUP4 ADD DUP6 PUSH2 0x3766 JUMP JUMPDEST DUP2 DUP2 SUB PUSH1 0x20 DUP4 ADD MSTORE PUSH2 0x431A DUP2 DUP5 PUSH2 0x35C1 JUMP JUMPDEST SWAP1 POP SWAP4 SWAP3 POP POP POP JUMP JUMPDEST PUSH32 0x436F6E747261637420206D7573742062652070656E64696E67207465726D696E PUSH0 DUP3 ADD MSTORE PUSH32 0x6174696F6E000000000000000000000000000000000000000000000000000000 PUSH1 0x20 DUP3 ADD MSTORE POP JUMP JUMPDEST PUSH0 PUSH2 0x437D PUSH1 0x25 DUP4 PUSH2 0x35A3 JUMP JUMPDEST SWAP2 POP PUSH2 0x4388 DUP3 PUSH2 0x4323 JUMP JUMPDEST PUSH1 0x40 DUP3 ADD SWAP1 POP SWAP2 SWAP1 POP JUMP JUMPDEST PUSH0 PUSH1 0x20 DUP3 ADD SWAP1 POP DUP2 DUP2 SUB PUSH0 DUP4 ADD MSTORE PUSH2 0x43AA DUP2 PUSH2 0x4371 JUMP JUMPDEST SWAP1 POP SWAP2 SWAP1 POP JUMP JUMPDEST PUSH32 0x4C616E646C6F726420686173206E6F7420726571756573746564206561726C79 PUSH0 DUP3 ADD MSTORE PUSH32 0x207465726D696E6174696F6E0000000000000000000000000000000000000000 PUSH1 0x20 DUP3 ADD MSTORE POP JUMP JUMPDEST PUSH0 PUSH2 0x440B PUSH1 0x2C DUP4 PUSH2 0x35A3 JUMP JUMPDEST SWAP2 POP PUSH2 0x4416 DUP3 PUSH2 0x43B1 JUMP JUMPDEST PUSH1 0x40 DUP3 ADD SWAP1 POP SWAP2 SWAP1 POP JUMP JUMPDEST PUSH0 PUSH1 0x20 DUP3 ADD SWAP1 POP DUP2 DUP2 SUB PUSH0 DUP4 ADD MSTORE PUSH2 0x4438 DUP2 PUSH2 0x43FF JUMP JUMPDEST SWAP1 POP SWAP2 SWAP1 POP JUMP JUMPDEST PUSH32 0x436F6E7472616374207465726D696E61746564206561726C79206279206D7574 PUSH0 DUP3 ADD MSTORE PUSH32 0x75616C2061677265656D656E7400000000000000000000000000000000000000 PUSH1 0x20 DUP3 ADD MSTORE POP JUMP JUMPDEST PUSH0 PUSH2 0x4499 PUSH1 0x2D DUP4 PUSH2 0x35A3 JUMP JUMPDEST SWAP2 POP PUSH2 0x44A4 DUP3 PUSH2 0x443F JUMP JUMPDEST PUSH1 0x40 DUP3 ADD SWAP1 POP SWAP2 SWAP1 POP JUMP JUMPDEST PUSH0 PUSH1 0x20 DUP3 ADD SWAP1 POP DUP2 DUP2 SUB PUSH0 DUP4 ADD MSTORE PUSH2 0x44C6 DUP2 PUSH2 0x448D JUMP JUMPDEST SWAP1 POP SWAP2 SWAP1 POP JUMP JUMPDEST PUSH32 0x537461626C65636F696E207061796D656E74206661696C656400000000000000 PUSH0 DUP3 ADD MSTORE POP JUMP JUMPDEST PUSH0 PUSH2 0x4501 PUSH1 0x19 DUP4 PUSH2 0x35A3 JUMP JUMPDEST SWAP2 POP PUSH2 0x450C DUP3 PUSH2 0x44CD JUMP JUMPDEST PUSH1 0x20 DUP3 ADD SWAP1 POP SWAP2 SWAP1 POP JUMP JUMPDEST PUSH0 PUSH1 0x20 DUP3 ADD SWAP1 POP DUP2 DUP2 SUB PUSH0 DUP4 ADD MSTORE PUSH2 0x452E DUP2 PUSH2 0x44F5 JUMP JUMPDEST SWAP1 POP SWAP2 SWAP1 POP JUMP JUMPDEST PUSH32 0x496E737566666963656E74204554482073656E74000000000000000000000000 PUSH0 DUP3 ADD MSTORE POP JUMP JUMPDEST PUSH0 PUSH2 0x4569 PUSH1 0x14 DUP4 PUSH2 0x35A3 JUMP JUMPDEST SWAP2 POP PUSH2 0x4574 DUP3 PUSH2 0x4535 JUMP JUMPDEST PUSH1 0x20 DUP3 ADD SWAP1 POP SWAP2 SWAP1 POP JUMP JUMPDEST PUSH0 PUSH1 0x20 DUP3 ADD SWAP1 POP DUP2 DUP2 SUB PUSH0 DUP4 ADD MSTORE PUSH2 0x4596 DUP2 PUSH2 0x455D JUMP JUMPDEST SWAP1 POP SWAP2 SWAP1 POP JUMP JUMPDEST PUSH32 0x436F6E74726163742068617320616C7265616479206578706972656400000000 PUSH0 DUP3 ADD MSTORE POP JUMP JUMPDEST PUSH0 PUSH2 0x45D1 PUSH1 0x1C DUP4 PUSH2 0x35A3 JUMP JUMPDEST SWAP2 POP PUSH2 0x45DC DUP3 PUSH2 0x459D JUMP JUMPDEST PUSH1 0x20 DUP3 ADD SWAP1 POP SWAP2 SWAP1 POP JUMP JUMPDEST PUSH0 PUSH1 0x20 DUP3 ADD SWAP1 POP DUP2 DUP2 SUB PUSH0 DUP4 ADD MSTORE PUSH2 0x45FE DUP2 PUSH2 0x45C5 JUMP JUMPDEST SWAP1 POP SWAP2 SWAP1 POP JUMP JUMPDEST PUSH32 0x436F6E7472616374206973206E6F742041637469766500000000000000000000 PUSH0 DUP3 ADD MSTORE POP JUMP JUMPDEST PUSH0 PUSH2 0x4639 PUSH1 0x16 DUP4 PUSH2 0x35A3 JUMP JUMPDEST SWAP2 POP PUSH2 0x4644 DUP3 PUSH2 0x4605 JUMP JUMPDEST PUSH1 0x20 DUP3 ADD SWAP1 POP SWAP2 SWAP1 POP JUMP JUMPDEST PUSH0 PUSH1 0x20 DUP3 ADD SWAP1 POP DUP2 DUP2 SUB PUSH0 DUP4 ADD MSTORE PUSH2 0x4666 DUP2 PUSH2 0x462D JUMP JUMPDEST SWAP1 POP SWAP2 SWAP1 POP JUMP JUMPDEST PUSH32 0x5761726E696E67206E6F74206170706C696361626C6520796574000000000000 PUSH0 DUP3 ADD MSTORE POP JUMP JUMPDEST PUSH0 PUSH2 0x46A1 PUSH1 0x1A DUP4 PUSH2 0x35A3 JUMP JUMPDEST SWAP2 POP PUSH2 0x46AC DUP3 PUSH2 0x466D JUMP JUMPDEST PUSH1 0x20 DUP3 ADD SWAP1 POP SWAP2 SWAP1 POP JUMP JUMPDEST PUSH0 PUSH1 0x20 DUP3 ADD SWAP1 POP DUP2 DUP2 SUB PUSH0 DUP4 ADD MSTORE PUSH2 0x46CE DUP2 PUSH2 0x4695 JUMP JUMPDEST SWAP1 POP SWAP2 SWAP1 POP JUMP JUMPDEST PUSH32 0x5465726D696E6174696F6E206E6F742073636864756C65640000000000000000 PUSH0 DUP3 ADD MSTORE POP JUMP JUMPDEST PUSH0 PUSH2 0x4709 PUSH1 0x18 DUP4 PUSH2 0x35A3 JUMP JUMPDEST SWAP2 POP PUSH2 0x4714 DUP3 PUSH2 0x46D5 JUMP JUMPDEST PUSH1 0x20 DUP3 ADD SWAP1 POP SWAP2 SWAP1 POP JUMP JUMPDEST PUSH0 PUSH1 0x20 DUP3 ADD SWAP1 POP DUP2 DUP2 SUB PUSH0 DUP4 ADD MSTORE PUSH2 0x4736 DUP2 PUSH2 0x46FD JUMP JUMPDEST SWAP1 POP SWAP2 SWAP1 POP JUMP JUMPDEST PUSH32 0x5465726D696E6174696F6E20706572696F64206E6F7420726561636865640000 PUSH0 DUP3 ADD MSTORE POP JUMP JUMPDEST PUSH0 PUSH2 0x4771 PUSH1 0x1E DUP4 PUSH2 0x35A3 JUMP JUMPDEST SWAP2 POP PUSH2 0x477C DUP3 PUSH2 0x473D JUMP JUMPDEST PUSH1 0x20 DUP3 ADD SWAP1 POP SWAP2 SWAP1 POP JUMP JUMPDEST PUSH0 PUSH1 0x20 DUP3 ADD SWAP1 POP DUP2 DUP2 SUB PUSH0 DUP4 ADD MSTORE PUSH2 0x479E DUP2 PUSH2 0x4765 JUMP JUMPDEST SWAP1 POP SWAP2 SWAP1 POP JUMP JUMPDEST PUSH32 0x4D6F7265207468616E2033207061796D656E74732077657265206E6F74207265 PUSH0 DUP3 ADD MSTORE PUSH32 0x67697374657265642E20436F6E7472616374206973207465726D696E61746564 PUSH1 0x20 DUP3 ADD MSTORE PUSH32 0x2E00000000000000000000000000000000000000000000000000000000000000 PUSH1 0x40 DUP3 ADD MSTORE POP JUMP JUMPDEST PUSH0 PUSH2 0x4825 PUSH1 0x41 DUP4 PUSH2 0x35A3 JUMP JUMPDEST SWAP2 POP PUSH2 0x4830 DUP3 PUSH2 0x47A5 JUMP JUMPDEST PUSH1 0x60 DUP3 ADD SWAP1 POP SWAP2 SWAP1 POP JUMP JUMPDEST PUSH0 PUSH1 0x20 DUP3 ADD SWAP1 POP DUP2 DUP2 SUB PUSH0 DUP4 ADD MSTORE PUSH2 0x4852 DUP2 PUSH2 0x4819 JUMP JUMPDEST SWAP1 POP SWAP2 SWAP1 POP JUMP JUMPDEST PUSH32 0x4175746F207061796D656E74206E6F7420617574686F72697A65640000000000 PUSH0 DUP3 ADD MSTORE POP JUMP JUMPDEST PUSH0 PUSH2 0x488D PUSH1 0x1B DUP4 PUSH2 0x35A3 JUMP JUMPDEST SWAP2 POP PUSH2 0x4898 DUP3 PUSH2 0x4859 JUMP JUMPDEST PUSH1 0x20 DUP3 ADD SWAP1 POP SWAP2 SWAP1 POP JUMP JUMPDEST PUSH0 PUSH1 0x20 DUP3 ADD SWAP1 POP DUP2 DUP2 SUB PUSH0 DUP4 ADD MSTORE PUSH2 0x48BA DUP2 PUSH2 0x4881 JUMP JUMPDEST SWAP1 POP SWAP2 SWAP1 POP JUMP JUMPDEST PUSH32 0x4175746F20706179206661696C65640000000000000000000000000000000000 PUSH0 DUP3 ADD MSTORE POP JUMP JUMPDEST PUSH0 PUSH2 0x48F5 PUSH1 0xF DUP4 PUSH2 0x35A3 JUMP JUMPDEST SWAP2 POP PUSH2 0x4900 DUP3 PUSH2 0x48C1 JUMP JUMPDEST PUSH1 0x20 DUP3 ADD SWAP1 POP SWAP2 SWAP1 POP JUMP JUMPDEST PUSH0 PUSH1 0x20 DUP3 ADD SWAP1 POP DUP2 DUP2 SUB PUSH0 DUP4 ADD MSTORE PUSH2 0x4922 DUP2 PUSH2 0x48E9 JUMP JUMPDEST SWAP1 POP SWAP2 SWAP1 POP JUMP JUMPDEST PUSH32 0x5465726D696E6174696F6E206E6F74207363686564756C656400000000000000 PUSH0 DUP3 ADD MSTORE POP JUMP JUMPDEST PUSH0 PUSH2 0x495D PUSH1 0x19 DUP4 PUSH2 0x35A3 JUMP JUMPDEST SWAP2 POP PUSH2 0x4968 DUP3 PUSH2 0x4929 JUMP JUMPDEST PUSH1 0x20 DUP3 ADD SWAP1 POP SWAP2 SWAP1 POP JUMP JUMPDEST PUSH0 PUSH1 0x20 DUP3 ADD SWAP1 POP DUP2 DUP2 SUB PUSH0 DUP4 ADD MSTORE PUSH2 0x498A DUP2 PUSH2 0x4951 JUMP JUMPDEST SWAP1 POP SWAP2 SWAP1 POP JUMP JUMPDEST PUSH32 0x416C6C206465627473206D757374206265207061796564000000000000000000 PUSH0 DUP3 ADD MSTORE POP JUMP JUMPDEST PUSH0 PUSH2 0x49C5 PUSH1 0x17 DUP4 PUSH2 0x35A3 JUMP JUMPDEST SWAP2 POP PUSH2 0x49D0 DUP3 PUSH2 0x4991 JUMP JUMPDEST PUSH1 0x20 DUP3 ADD SWAP1 POP SWAP2 SWAP1 POP JUMP JUMPDEST PUSH0 PUSH1 0x20 DUP3 ADD SWAP1 POP DUP2 DUP2 SUB PUSH0 DUP4 ADD MSTORE PUSH2 0x49F2 DUP2 PUSH2 0x49B9 JUMP JUMPDEST SWAP1 POP SWAP2 SWAP1 POP JUMP JUMPDEST PUSH32 0x54656E616E74207465726D696E6174656420746865206C656173652061677265 PUSH0 DUP3 ADD MSTORE PUSH32 0x656D656E74000000000000000000000000000000000000000000000000000000 PUSH1 0x20 DUP3 ADD MSTORE POP JUMP JUMPDEST PUSH0 PUSH2 0x4A53 PUSH1 0x25 DUP4 PUSH2 0x35A3 JUMP JUMPDEST SWAP2 POP PUSH2 0x4A5E DUP3 PUSH2 0x49F9 JUMP JUMPDEST PUSH1 0x40 DUP3 ADD SWAP1 POP SWAP2 SWAP1 POP JUMP JUMPDEST PUSH0 PUSH1 0x20 DUP3 ADD SWAP1 POP DUP2 DUP2 SUB PUSH0 DUP4 ADD MSTORE PUSH2 0x4A80 DUP2 PUSH2 0x4A47 JUMP JUMPDEST SWAP1 POP SWAP2 SWAP1 POP JUMP JUMPDEST PUSH32 0x54656E6E616E7420686173206E6F742061736B656420666F722072656E657761 PUSH0 DUP3 ADD MSTORE PUSH32 0x6C00000000000000000000000000000000000000000000000000000000000000 PUSH1 0x20 DUP3 ADD MSTORE POP JUMP JUMPDEST PUSH0 PUSH2 0x4AE1 PUSH1 0x21 DUP4 PUSH2 0x35A3 JUMP JUMPDEST SWAP2 POP PUSH2 0x4AEC DUP3 PUSH2 0x4A87 JUMP JUMPDEST PUSH1 0x40 DUP3 ADD SWAP1 POP SWAP2 SWAP1 POP JUMP JUMPDEST PUSH0 PUSH1 0x20 DUP3 ADD SWAP1 POP DUP2 DUP2 SUB PUSH0 DUP4 ADD MSTORE PUSH2 0x4B0E DUP2 PUSH2 0x4AD5 JUMP JUMPDEST SWAP1 POP SWAP2 SWAP1 POP JUMP JUMPDEST PUSH32 0x5265656E7472616E637947756172643A207265656E7472616E742063616C6C00 PUSH0 DUP3 ADD MSTORE POP JUMP JUMPDEST PUSH0 PUSH2 0x4B49 PUSH1 0x1F DUP4 PUSH2 0x35A3 JUMP JUMPDEST SWAP2 POP PUSH2 0x4B54 DUP3 PUSH2 0x4B15 JUMP JUMPDEST PUSH1 0x20 DUP3 ADD SWAP1 POP SWAP2 SWAP1 POP JUMP JUMPDEST PUSH0 PUSH1 0x20 DUP3 ADD SWAP1 POP DUP2 DUP2 SUB PUSH0 DUP4 ADD MSTORE PUSH2 0x4B76 DUP2 PUSH2 0x4B3D JUMP JUMPDEST SWAP1 POP SWAP2 SWAP1 POP JUMP INVALID LOG2 PUSH5 0x6970667358 0x22 SLT KECCAK256 DUP14 0xD4 LOG0 ADDMOD 0xE8 CALLDATALOAD 0xD8 SLT GASLIMIT OR MULMOD ADD 0x26 0xD 0xE0 LOG0 MCOPY 0xD1 0xCC EXTCODESIZE 0xDE EQ 0xEB GAS TLOAD 0xBF SWAP3 0x2D OR CREATE2 PUSH9 0x7E64736F6C63430008 BYTE STOP CALLER "
		},
		"gasEstimates": {
			"creation": {
				"codeDepositCost": "3875800",
				"executionCost": "infinite",
				"totalCost": "infinite"
			},
			"external": {
				"amountOwed()": "2492",
				"approveContractRenewal()": "infinite",
				"authorizeAutoPayment()": "26799",
				"autoPaymentApproved(address)": "2990",
				"calculateUpdatedDeposit()": "infinite",
				"checkAndUpdateNextPayment()": "infinite",
				"checkContractExpiration()": "infinite",
				"checkTermination()": "infinite",
				"confirmEarlyTermination()": "57791",
				"confirmWarning()": "infinite",
				"contractEndDate()": "2493",
				"contractIPFSHash()": "infinite",
				"deductFromDeposit(uint256,string)": "infinite",
				"deductedAmount()": "2536",
				"depositAmount()": "2515",
				"depositBalance()": "2515",
				"depositStartTime()": "2581",
				"earlyTerminationRequestedByLandlord()": "2511",
				"executeTenantTermination()": "35564",
				"executeTermination()": "35864",
				"getLatestInterestRate()": "378",
				"getLatestPrice()": "400",
				"getPaymentHistory()": "infinite",
				"getRentalStatus()": "infinite",
				"isStabelcoinPayment()": "2601",
				"landlord()": "2663",
				"leaseStartTimestamp()": "2491",
				"payDeposit()": "infinite",
				"payRent()": "infinite",
				"paymentDate()": "2559",
				"paymentDueDate()": "2558",
				"paymentHistory(uint256)": "infinite",
				"pendingSevereBreachWarning()": "2512",
				"processAutoPayment()": "infinite",
				"renewalApproved()": "2651",
				"renewalRequested()": "2555",
				"rentAmount()": "2535",
				"rentalStatus()": "2666",
				"requestContractRenewal()": "30102",
				"requestEarlyTerminationByLandLord()": "28856",
				"requestTerminationByTenant()": "infinite",
				"requestWarning()": "infinite",
				"returnDeposit()": "infinite",
				"revokeAutoPayment()": "26731",
				"stabelcoinAddress()": "2626",
				"tenant()": "2597",
				"terminateContract(string)": "infinite",
				"terminateContractIfNotRenewed()": "35348",
				"terminationTimeStamp()": "2558",
				"warningCount()": "2581"
			}
		},
		"methodIdentifiers": {
			"amountOwed()": "775e9fce",
			"approveContractRenewal()": "f8fd0501",
			"authorizeAutoPayment()": "9f1f9082",
			"autoPaymentApproved(address)": "1ca43edd",
			"calculateUpdatedDeposit()": "36ec98ef",
			"checkAndUpdateNextPayment()": "0752db7a",
			"checkContractExpiration()": "0abb1d7f",
			"checkTermination()": "3070c38b",
			"confirmEarlyTermination()": "9378b8c1",
			"confirmWarning()": "4d5dca5a",
			"contractEndDate()": "3e3bd90e",
			"contractIPFSHash()": "140f26bf",
			"deductFromDeposit(uint256,string)": "8e7f727f",
			"deductedAmount()": "ea9e7f6a",
			"depositAmount()": "419759f5",
			"depositBalance()": "61bc1a49",
			"depositStartTime()": "587419d5",
			"earlyTerminationRequestedByLandlord()": "d077fb10",
			"executeTenantTermination()": "f84a0f2d",
			"executeTermination()": "dd66857f",
			"getLatestInterestRate()": "7f91df9c",
			"getLatestPrice()": "8e15f473",
			"getPaymentHistory()": "b651bb61",
			"getRentalStatus()": "c3efc734",
			"isStabelcoinPayment()": "18bb32f5",
			"landlord()": "dc1997ea",
			"leaseStartTimestamp()": "f24bb69b",
			"payDeposit()": "5c274b86",
			"payRent()": "a709c4fe",
			"paymentDate()": "5561ae62",
			"paymentDueDate()": "d9ef0459",
			"paymentHistory(uint256)": "a5e047b8",
			"pendingSevereBreachWarning()": "1f85316c",
			"processAutoPayment()": "e36a03e0",
			"renewalApproved()": "33fc1183",
			"renewalRequested()": "7e076249",
			"rentAmount()": "f8ef1e13",
			"rentalStatus()": "31d019b7",
			"requestContractRenewal()": "c418c525",
			"requestEarlyTerminationByLandLord()": "2dfefcca",
			"requestTerminationByTenant()": "d426e155",
			"requestWarning()": "d6e82dca",
			"returnDeposit()": "7e88f603",
			"revokeAutoPayment()": "aa018005",
			"stabelcoinAddress()": "d39763c8",
			"tenant()": "adf07791",
			"terminateContract(string)": "03c77fa4",
			"terminateContractIfNotRenewed()": "6845071d",
			"terminationTimeStamp()": "7ec3110c",
			"warningCount()": "34cbfdfe"
		}
	},
	"abi": [
		{
			"inputs": [
				{
					"internalType": "address",
					"name": "_tenant",
					"type": "address"
				},
				{
					"internalType": "uint256",
					"name": "_rentAmount",
					"type": "uint256"
				},
				{
					"internalType": "uint256",
					"name": "_depositAmount",
					"type": "uint256"
				},
				{
					"internalType": "string",
					"name": "_contractIPFSHash",
					"type": "string"
				},
				{
					"internalType": "bool",
					"name": "_isStablecoinPayment",
					"type": "bool"
				},
				{
					"internalType": "address",
					"name": "_stablecoinAddress",
					"type": "address"
				},
				{
					"internalType": "address",
					"name": "_priceFeed",
					"type": "address"
				},
				{
					"internalType": "uint256",
					"name": "_paymentDueDate",
					"type": "uint256"
				}
			],
			"stateMutability": "nonpayable",
			"type": "constructor"
		},
		{
			"anonymous": false,
			"inputs": [
				{
					"indexed": false,
					"internalType": "uint256",
					"name": "monthsLeft",
					"type": "uint256"
				}
			],
			"name": "ContractExpirationWarning",
			"type": "event"
		},
		{
			"anonymous": false,
			"inputs": [
				{
					"indexed": true,
					"internalType": "address",
					"name": "landlord",
					"type": "address"
				}
			],
			"name": "ContractRenewalRequested",
			"type": "event"
		},
		{
			"anonymous": false,
			"inputs": [
				{
					"indexed": false,
					"internalType": "uint256",
					"name": "contractEndDate",
					"type": "uint256"
				}
			],
			"name": "ContractRenewed",
			"type": "event"
		},
		{
			"anonymous": false,
			"inputs": [
				{
					"indexed": true,
					"internalType": "address",
					"name": "landlord",
					"type": "address"
				},
				{
					"indexed": true,
					"internalType": "address",
					"name": "tenant",
					"type": "address"
				},
				{
					"indexed": false,
					"internalType": "string",
					"name": "ipfsHash",
					"type": "string"
				}
			],
			"name": "ContractSigned",
			"type": "event"
		},
		{
			"anonymous": false,
			"inputs": [
				{
					"indexed": true,
					"internalType": "address",
					"name": "landlord",
					"type": "address"
				},
				{
					"indexed": false,
					"internalType": "string",
					"name": "reason",
					"type": "string"
				}
			],
			"name": "ContractTerminated",
			"type": "event"
		},
		{
			"anonymous": false,
			"inputs": [
				{
					"indexed": false,
					"internalType": "uint256",
					"name": "val",
					"type": "uint256"
				}
			],
			"name": "Debug",
			"type": "event"
		},
		{
			"anonymous": false,
			"inputs": [
				{
					"indexed": true,
					"internalType": "address",
					"name": "landlord",
					"type": "address"
				},
				{
					"indexed": false,
					"internalType": "uint256",
					"name": "amount",
					"type": "uint256"
				},
				{
					"indexed": false,
					"internalType": "string",
					"name": "reason",
					"type": "string"
				}
			],
			"name": "DepositDeducted",
			"type": "event"
		},
		{
			"anonymous": false,
			"inputs": [
				{
					"indexed": true,
					"internalType": "address",
					"name": "tenant",
					"type": "address"
				},
				{
					"indexed": false,
					"internalType": "uint256",
					"name": "amount",
					"type": "uint256"
				},
				{
					"indexed": false,
					"internalType": "bool",
					"name": "stablecoin",
					"type": "bool"
				}
			],
			"name": "DepositPaid",
			"type": "event"
		},
		{
			"anonymous": false,
			"inputs": [
				{
					"indexed": true,
					"internalType": "address",
					"name": "tenant",
					"type": "address"
				},
				{
					"indexed": false,
					"internalType": "uint256",
					"name": "amount",
					"type": "uint256"
				}
			],
			"name": "DepositReturned",
			"type": "event"
		},
		{
			"anonymous": false,
			"inputs": [
				{
					"indexed": false,
					"internalType": "uint256",
					"name": "nextPaymentDate",
					"type": "uint256"
				}
			],
			"name": "PaymentDueDateUpdate",
			"type": "event"
		},
		{
			"anonymous": false,
			"inputs": [
				{
					"indexed": true,
					"internalType": "address",
					"name": "tenant",
					"type": "address"
				},
				{
					"indexed": false,
					"internalType": "uint256",
					"name": "missedAmount",
					"type": "uint256"
				}
			],
			"name": "PaymentMissed",
			"type": "event"
		},
		{
			"anonymous": false,
			"inputs": [
				{
					"indexed": true,
					"internalType": "address",
					"name": "tennat",
					"type": "address"
				},
				{
					"indexed": false,
					"internalType": "uint256",
					"name": "amount",
					"type": "uint256"
				},
				{
					"indexed": false,
					"internalType": "bool",
					"name": "stablecoin",
					"type": "bool"
				}
			],
			"name": "RentPaid",
			"type": "event"
		},
		{
			"anonymous": false,
			"inputs": [
				{
					"indexed": true,
					"internalType": "address",
					"name": "tenant",
					"type": "address"
				},
				{
					"indexed": false,
					"internalType": "uint256",
					"name": "warningCount",
					"type": "uint256"
				}
			],
			"name": "SevereBreachWarningIssued",
			"type": "event"
		},
		{
			"anonymous": false,
			"inputs": [
				{
					"indexed": true,
					"internalType": "address",
					"name": "tenant",
					"type": "address"
				}
			],
			"name": "SevereBreachWarningRequested",
			"type": "event"
		},
		{
			"anonymous": false,
			"inputs": [
				{
					"indexed": false,
					"internalType": "uint256",
					"name": "terminationDate",
					"type": "uint256"
				}
			],
			"name": "TerminationScheduled",
			"type": "event"
		},
		{
			"inputs": [],
			"name": "amountOwed",
			"outputs": [
				{
					"internalType": "uint256",
					"name": "",
					"type": "uint256"
				}
			],
			"stateMutability": "view",
			"type": "function"
		},
		{
			"inputs": [],
			"name": "approveContractRenewal",
			"outputs": [],
			"stateMutability": "nonpayable",
			"type": "function"
		},
		{
			"inputs": [],
			"name": "authorizeAutoPayment",
			"outputs": [],
			"stateMutability": "nonpayable",
			"type": "function"
		},
		{
			"inputs": [
				{
					"internalType": "address",
					"name": "",
					"type": "address"
				}
			],
			"name": "autoPaymentApproved",
			"outputs": [
				{
					"internalType": "bool",
					"name": "",
					"type": "bool"
				}
			],
			"stateMutability": "view",
			"type": "function"
		},
		{
			"inputs": [],
			"name": "calculateUpdatedDeposit",
			"outputs": [
				{
					"internalType": "uint256",
					"name": "",
					"type": "uint256"
				}
			],
			"stateMutability": "view",
			"type": "function"
		},
		{
			"inputs": [],
			"name": "checkAndUpdateNextPayment",
			"outputs": [],
			"stateMutability": "nonpayable",
			"type": "function"
		},
		{
			"inputs": [],
			"name": "checkContractExpiration",
			"outputs": [],
			"stateMutability": "nonpayable",
			"type": "function"
		},
		{
			"inputs": [],
			"name": "checkTermination",
			"outputs": [],
			"stateMutability": "nonpayable",
			"type": "function"
		},
		{
			"inputs": [],
			"name": "confirmEarlyTermination",
			"outputs": [],
			"stateMutability": "nonpayable",
			"type": "function"
		},
		{
			"inputs": [],
			"name": "confirmWarning",
			"outputs": [],
			"stateMutability": "nonpayable",
			"type": "function"
		},
		{
			"inputs": [],
			"name": "contractEndDate",
			"outputs": [
				{
					"internalType": "uint256",
					"name": "",
					"type": "uint256"
				}
			],
			"stateMutability": "view",
			"type": "function"
		},
		{
			"inputs": [],
			"name": "contractIPFSHash",
			"outputs": [
				{
					"internalType": "string",
					"name": "",
					"type": "string"
				}
			],
			"stateMutability": "view",
			"type": "function"
		},
		{
			"inputs": [
				{
					"internalType": "uint256",
					"name": "amount",
					"type": "uint256"
				},
				{
					"internalType": "string",
					"name": "reason",
					"type": "string"
				}
			],
			"name": "deductFromDeposit",
			"outputs": [],
			"stateMutability": "nonpayable",
			"type": "function"
		},
		{
			"inputs": [],
			"name": "deductedAmount",
			"outputs": [
				{
					"internalType": "uint256",
					"name": "",
					"type": "uint256"
				}
			],
			"stateMutability": "view",
			"type": "function"
		},
		{
			"inputs": [],
			"name": "depositAmount",
			"outputs": [
				{
					"internalType": "uint256",
					"name": "",
					"type": "uint256"
				}
			],
			"stateMutability": "view",
			"type": "function"
		},
		{
			"inputs": [],
			"name": "depositBalance",
			"outputs": [
				{
					"internalType": "uint256",
					"name": "",
					"type": "uint256"
				}
			],
			"stateMutability": "view",
			"type": "function"
		},
		{
			"inputs": [],
			"name": "depositStartTime",
			"outputs": [
				{
					"internalType": "uint256",
					"name": "",
					"type": "uint256"
				}
			],
			"stateMutability": "view",
			"type": "function"
		},
		{
			"inputs": [],
			"name": "earlyTerminationRequestedByLandlord",
			"outputs": [
				{
					"internalType": "bool",
					"name": "",
					"type": "bool"
				}
			],
			"stateMutability": "view",
			"type": "function"
		},
		{
			"inputs": [],
			"name": "executeTenantTermination",
			"outputs": [],
			"stateMutability": "nonpayable",
			"type": "function"
		},
		{
			"inputs": [],
			"name": "executeTermination",
			"outputs": [],
			"stateMutability": "nonpayable",
			"type": "function"
		},
		{
			"inputs": [],
			"name": "getLatestInterestRate",
			"outputs": [
				{
					"internalType": "uint256",
					"name": "",
					"type": "uint256"
				}
			],
			"stateMutability": "pure",
			"type": "function"
		},
		{
			"inputs": [],
			"name": "getLatestPrice",
			"outputs": [
				{
					"internalType": "uint256",
					"name": "",
					"type": "uint256"
				}
			],
			"stateMutability": "pure",
			"type": "function"
		},
		{
			"inputs": [],
			"name": "getPaymentHistory",
			"outputs": [
				{
					"components": [
						{
							"internalType": "uint256",
							"name": "timestamp",
							"type": "uint256"
						},
						{
							"internalType": "uint256",
							"name": "amount",
							"type": "uint256"
						},
						{
							"internalType": "bool",
							"name": "stablecoin",
							"type": "bool"
						}
					],
					"internalType": "struct RentalAgreement.PaymentRecord[]",
					"name": "",
					"type": "tuple[]"
				}
			],
			"stateMutability": "view",
			"type": "function"
		},
		{
			"inputs": [],
			"name": "getRentalStatus",
			"outputs": [
				{
					"internalType": "string",
					"name": "",
					"type": "string"
				}
			],
			"stateMutability": "view",
			"type": "function"
		},
		{
			"inputs": [],
			"name": "isStabelcoinPayment",
			"outputs": [
				{
					"internalType": "bool",
					"name": "",
					"type": "bool"
				}
			],
			"stateMutability": "view",
			"type": "function"
		},
		{
			"inputs": [],
			"name": "landlord",
			"outputs": [
				{
					"internalType": "address",
					"name": "",
					"type": "address"
				}
			],
			"stateMutability": "view",
			"type": "function"
		},
		{
			"inputs": [],
			"name": "leaseStartTimestamp",
			"outputs": [
				{
					"internalType": "uint256",
					"name": "",
					"type": "uint256"
				}
			],
			"stateMutability": "view",
			"type": "function"
		},
		{
			"inputs": [],
			"name": "payDeposit",
			"outputs": [],
			"stateMutability": "payable",
			"type": "function"
		},
		{
			"inputs": [],
			"name": "payRent",
			"outputs": [],
			"stateMutability": "payable",
			"type": "function"
		},
		{
			"inputs": [],
			"name": "paymentDate",
			"outputs": [
				{
					"internalType": "uint256",
					"name": "",
					"type": "uint256"
				}
			],
			"stateMutability": "view",
			"type": "function"
		},
		{
			"inputs": [],
			"name": "paymentDueDate",
			"outputs": [
				{
					"internalType": "uint256",
					"name": "",
					"type": "uint256"
				}
			],
			"stateMutability": "view",
			"type": "function"
		},
		{
			"inputs": [
				{
					"internalType": "uint256",
					"name": "",
					"type": "uint256"
				}
			],
			"name": "paymentHistory",
			"outputs": [
				{
					"internalType": "uint256",
					"name": "timestamp",
					"type": "uint256"
				},
				{
					"internalType": "uint256",
					"name": "amount",
					"type": "uint256"
				},
				{
					"internalType": "bool",
					"name": "stablecoin",
					"type": "bool"
				}
			],
			"stateMutability": "view",
			"type": "function"
		},
		{
			"inputs": [],
			"name": "pendingSevereBreachWarning",
			"outputs": [
				{
					"internalType": "bool",
					"name": "",
					"type": "bool"
				}
			],
			"stateMutability": "view",
			"type": "function"
		},
		{
			"inputs": [],
			"name": "processAutoPayment",
			"outputs": [],
			"stateMutability": "nonpayable",
			"type": "function"
		},
		{
			"inputs": [],
			"name": "renewalApproved",
			"outputs": [
				{
					"internalType": "bool",
					"name": "",
					"type": "bool"
				}
			],
			"stateMutability": "view",
			"type": "function"
		},
		{
			"inputs": [],
			"name": "renewalRequested",
			"outputs": [
				{
					"internalType": "bool",
					"name": "",
					"type": "bool"
				}
			],
			"stateMutability": "view",
			"type": "function"
		},
		{
			"inputs": [],
			"name": "rentAmount",
			"outputs": [
				{
					"internalType": "uint256",
					"name": "",
					"type": "uint256"
				}
			],
			"stateMutability": "view",
			"type": "function"
		},
		{
			"inputs": [],
			"name": "rentalStatus",
			"outputs": [
				{
					"internalType": "enum RentalAgreement.RentalStatus",
					"name": "",
					"type": "uint8"
				}
			],
			"stateMutability": "view",
			"type": "function"
		},
		{
			"inputs": [],
			"name": "requestContractRenewal",
			"outputs": [],
			"stateMutability": "nonpayable",
			"type": "function"
		},
		{
			"inputs": [],
			"name": "requestEarlyTerminationByLandLord",
			"outputs": [],
			"stateMutability": "nonpayable",
			"type": "function"
		},
		{
			"inputs": [],
			"name": "requestTerminationByTenant",
			"outputs": [],
			"stateMutability": "nonpayable",
			"type": "function"
		},
		{
			"inputs": [],
			"name": "requestWarning",
			"outputs": [],
			"stateMutability": "nonpayable",
			"type": "function"
		},
		{
			"inputs": [],
			"name": "returnDeposit",
			"outputs": [],
			"stateMutability": "nonpayable",
			"type": "function"
		},
		{
			"inputs": [],
			"name": "revokeAutoPayment",
			"outputs": [],
			"stateMutability": "nonpayable",
			"type": "function"
		},
		{
			"inputs": [],
			"name": "stabelcoinAddress",
			"outputs": [
				{
					"internalType": "address",
					"name": "",
					"type": "address"
				}
			],
			"stateMutability": "view",
			"type": "function"
		},
		{
			"inputs": [],
			"name": "tenant",
			"outputs": [
				{
					"internalType": "address",
					"name": "",
					"type": "address"
				}
			],
			"stateMutability": "view",
			"type": "function"
		},
		{
			"inputs": [
				{
					"internalType": "string",
					"name": "reason",
					"type": "string"
				}
			],
			"name": "terminateContract",
			"outputs": [],
			"stateMutability": "nonpayable",
			"type": "function"
		},
		{
			"inputs": [],
			"name": "terminateContractIfNotRenewed",
			"outputs": [],
			"stateMutability": "nonpayable",
			"type": "function"
		},
		{
			"inputs": [],
			"name": "terminationTimeStamp",
			"outputs": [
				{
					"internalType": "uint256",
					"name": "",
					"type": "uint256"
				}
			],
			"stateMutability": "view",
			"type": "function"
		},
		{
			"inputs": [],
			"name": "warningCount",
			"outputs": [
				{
					"internalType": "uint256",
					"name": "",
					"type": "uint256"
				}
			],
			"stateMutability": "view",
			"type": "function"
		}
	]
}