{
	"data": {
		"bytecode": {
			"linkReferences": {
				"contracts/DateUtils.sol": {
					"DateUtils": [
						{
							"length": 20,
							"start": 6025
						},
						{
							"length": 20,
							"start": 15364
						}
					]
				}
			},
			"object": "608060405234801561000f575f5ffd5b506040516160c43803806160c4833981810160405281019061003191906105f3565b60015f819055505f73ffffffffffffffffffffffffffffffffffffffff168873ffffffffffffffffffffffffffffffffffffffff16036100a6576040517f08c379a000000000000000000000000000000000000000000000000000000000815260040161009d9061071a565b60405180910390fd5b5f87116100e8576040517f08c379a00000000000000000000000000000000000000000000000000000000081526004016100df906107a8565b60405180910390fd5b5f86101561012b576040517f08c379a000000000000000000000000000000000000000000000000000000000815260040161012290610836565b60405180910390fd5b5f85511161016e576040517f08c379a00000000000000000000000000000000000000000000000000000000081526004016101659061089e565b60405180910390fd5b3360015f6101000a81548173ffffffffffffffffffffffffffffffffffffffff021916908373ffffffffffffffffffffffffffffffffffffffff1602179055508760025f6101000a81548173ffffffffffffffffffffffffffffffffffffffff021916908373ffffffffffffffffffffffffffffffffffffffff1602179055508660038190555085600481905550846005908161020b9190610ac3565b508360065f6101000a81548160ff02191690831515021790555082600660016101000a81548173ffffffffffffffffffffffffffffffffffffffff021916908373ffffffffffffffffffffffffffffffffffffffff1602179055508160075f6101000a81548173ffffffffffffffffffffffffffffffffffffffff021916908373ffffffffffffffffffffffffffffffffffffffff1602179055505f60165f6101000a81548160ff021916908360028111156102ca576102c9610b92565b5b0217905550426009819055505f600a8190555080600b819055505f600c819055505f600d819055505f600e5f6101000a81548160ff0219169083151502179055505f600f81905550426011819055506301e13380426103299190610bec565b60108190555060025f9054906101000a900473ffffffffffffffffffffffffffffffffffffffff1673ffffffffffffffffffffffffffffffffffffffff1660015f9054906101000a900473ffffffffffffffffffffffffffffffffffffffff1673ffffffffffffffffffffffffffffffffffffffff167f4f1197914a173d10d32a79e20a053170d7dafb93e77cc4f686ce07cdfa0c20fd60056040516103cf9190610ca0565b60405180910390a35050505050505050610cc0565b5f604051905090565b5f5ffd5b5f5ffd5b5f73ffffffffffffffffffffffffffffffffffffffff82169050919050565b5f61041e826103f5565b9050919050565b61042e81610414565b8114610438575f5ffd5b50565b5f8151905061044981610425565b92915050565b5f819050919050565b6104618161044f565b811461046b575f5ffd5b50565b5f8151905061047c81610458565b92915050565b5f5ffd5b5f5ffd5b5f601f19601f8301169050919050565b7f4e487b71000000000000000000000000000000000000000000000000000000005f52604160045260245ffd5b6104d08261048a565b810181811067ffffffffffffffff821117156104ef576104ee61049a565b5b80604052505050565b5f6105016103e4565b905061050d82826104c7565b919050565b5f67ffffffffffffffff82111561052c5761052b61049a565b5b6105358261048a565b9050602081019050919050565b8281835e5f83830152505050565b5f61056261055d84610512565b6104f8565b90508281526020810184848401111561057e5761057d610486565b5b610589848285610542565b509392505050565b5f82601f8301126105a5576105a4610482565b5b81516105b5848260208601610550565b91505092915050565b5f8115159050919050565b6105d2816105be565b81146105dc575f5ffd5b50565b5f815190506105ed816105c9565b92915050565b5f5f5f5f5f5f5f5f610100898b0312156106105761060f6103ed565b5b5f61061d8b828c0161043b565b985050602061062e8b828c0161046e565b975050604061063f8b828c0161046e565b965050606089015167ffffffffffffffff8111156106605761065f6103f1565b5b61066c8b828c01610591565b955050608061067d8b828c016105df565b94505060a061068e8b828c0161043b565b93505060c061069f8b828c0161043b565b92505060e06106b08b828c0161046e565b9150509295985092959890939650565b5f82825260208201905092915050565b7f496e76616c69642074656e616e742061646472657373000000000000000000005f82015250565b5f6107046016836106c0565b915061070f826106d0565b602082019050919050565b5f6020820190508181035f830152610731816106f8565b9050919050565b7f52656e7420616d6f756e74206d7573742062652067726561746572207468616e5f8201527f2030000000000000000000000000000000000000000000000000000000000000602082015250565b5f6107926022836106c0565b915061079d82610738565b604082019050919050565b5f6020820190508181035f8301526107bf81610786565b9050919050565b7f4465706f73697420616d6f756e74206d757374206265206e6f6e2d6e656761745f8201527f6976650000000000000000000000000000000000000000000000000000000000602082015250565b5f6108206023836106c0565b915061082b826107c6565b604082019050919050565b5f6020820190508181035f83015261084d81610814565b9050919050565b7f495046532068617368206d7573742062652073657400000000000000000000005f82015250565b5f6108886015836106c0565b915061089382610854565b602082019050919050565b5f6020820190508181035f8301526108b58161087c565b9050919050565b5f81519050919050565b7f4e487b71000000000000000000000000000000000000000000000000000000005f52602260045260245ffd5b5f600282049050600182168061090a57607f821691505b60208210810361091d5761091c6108c6565b5b50919050565b5f819050815f5260205f209050919050565b5f6020601f8301049050919050565b5f82821b905092915050565b5f6008830261097f7fffffffffffffffffffffffffffffffffffffffffffffffffffffffffffffffff82610944565b6109898683610944565b95508019841693508086168417925050509392505050565b5f819050919050565b5f6109c46109bf6109ba8461044f565b6109a1565b61044f565b9050919050565b5f819050919050565b6109dd836109aa565b6109f16109e9826109cb565b848454610950565b825550505050565b5f5f905090565b610a086109f9565b610a138184846109d4565b505050565b5b81811015610a3657610a2b5f82610a00565b600181019050610a19565b5050565b601f821115610a7b57610a4c81610923565b610a5584610935565b81016020851015610a64578190505b610a78610a7085610935565b830182610a18565b50505b505050565b5f82821c905092915050565b5f610a9b5f1984600802610a80565b1980831691505092915050565b5f610ab38383610a8c565b9150826002028217905092915050565b610acc826108bc565b67ffffffffffffffff811115610ae557610ae461049a565b5b610aef82546108f3565b610afa828285610a3a565b5f60209050601f831160018114610b2b575f8415610b19578287015190505b610b238582610aa8565b865550610b8a565b601f198416610b3986610923565b5f5b82811015610b6057848901518255600182019150602085019450602081019050610b3b565b86831015610b7d5784890151610b79601f891682610a8c565b8355505b6001600288020188555050505b505050505050565b7f4e487b71000000000000000000000000000000000000000000000000000000005f52602160045260245ffd5b7f4e487b71000000000000000000000000000000000000000000000000000000005f52601160045260245ffd5b5f610bf68261044f565b9150610c018361044f565b9250828201905080821115610c1957610c18610bbf565b5b92915050565b5f8154610c2b816108f3565b610c3581866106c0565b9450600182165f8114610c4f5760018114610c6557610c97565b60ff198316865281151560200286019350610c97565b610c6e85610923565b5f5b83811015610c8f57815481890152600182019150602081019050610c70565b808801955050505b50505092915050565b5f6020820190508181035f830152610cb88184610c1f565b905092915050565b6153f780610ccd5f395ff3fe6080604052600436106102c8575f3560e01c80637f91df9c11610174578063d077fb10116100db578063dd66857f11610094578063f24bb69b1161006e578063f24bb69b1461090e578063f84a0f2d14610938578063f8ef1e131461094e578063f8fd050114610978576102c8565b8063dd66857f146108b8578063e36a03e0146108ce578063ea9e7f6a146108e4576102c8565b8063d077fb10146107e4578063d39763c81461080e578063d426e15514610838578063d6e82dca1461084e578063d9ef045914610864578063dc1997ea1461088e576102c8565b8063a709c4fe1161012d578063a709c4fe14610730578063aa0180051461073a578063adf0779114610750578063b651bb611461077a578063c3efc734146107a4578063c418c525146107ce576102c8565b80637f91df9c1461064a5780638e15f473146106745780638e7f727f1461069e5780639378b8c1146106c65780639f1f9082146106dc578063a5e047b8146106f2576102c8565b806336ec98ef116102335780635c274b86116101ec578063775e9fce116101c6578063775e9fce146105b65780637e076249146105e05780637e88f6031461060a5780637ec3110c14610620576102c8565b80635c274b861461056c57806361bc1a49146105765780636845071d146105a0576102c8565b806336ec98ef146104845780633e3bd90e146104ae578063419759f5146104d85780634d5dca5a146105025780635561ae6214610518578063587419d514610542576102c8565b80631f85316c116102855780631f85316c146103b05780632dfefcca146103da5780633070c38b146103f057806331d019b71461040657806333fc11831461043057806334cbfdfe1461045a576102c8565b806303c77fa4146102cc5780630752db7a146102f45780630abb1d7f1461030a578063140f26bf1461032057806318bb32f51461034a5780631ca43edd14610374575b5f5ffd5b3480156102d7575f5ffd5b506102f260048036038101906102ed9190613ba8565b61098e565b005b3480156102ff575f5ffd5b50610308610ab9565b005b348015610315575f5ffd5b5061031e610c02565b005b34801561032b575f5ffd5b50610334610d77565b6040516103419190613c4f565b60405180910390f35b348015610355575f5ffd5b5061035e610e03565b60405161036b9190613c89565b60405180910390f35b34801561037f575f5ffd5b5061039a60048036038101906103959190613cfc565b610e15565b6040516103a79190613c89565b60405180910390f35b3480156103bb575f5ffd5b506103c4610e32565b6040516103d19190613c89565b60405180910390f35b3480156103e5575f5ffd5b506103ee610e44565b005b3480156103fb575f5ffd5b50610404610f63565b005b348015610411575f5ffd5b5061041a611085565b6040516104279190613d9a565b60405180910390f35b34801561043b575f5ffd5b50610444611097565b6040516104519190613c89565b60405180910390f35b348015610465575f5ffd5b5061046e6110aa565b60405161047b9190613dcb565b60405180910390f35b34801561048f575f5ffd5b506104986110b0565b6040516104a59190613dcb565b60405180910390f35b3480156104b9575f5ffd5b506104c261111e565b6040516104cf9190613dcb565b60405180910390f35b3480156104e3575f5ffd5b506104ec611124565b6040516104f99190613dcb565b60405180910390f35b34801561050d575f5ffd5b5061051661112a565b005b348015610523575f5ffd5b5061052c6112aa565b6040516105399190613dcb565b60405180910390f35b34801561054d575f5ffd5b506105566112b0565b6040516105639190613dcb565b60405180910390f35b6105746112b6565b005b348015610581575f5ffd5b5061058a6116ca565b6040516105979190613dcb565b60405180910390f35b3480156105ab575f5ffd5b506105b46116d0565b005b3480156105c1575f5ffd5b506105ca6118a4565b6040516105d79190613dcb565b60405180910390f35b3480156105eb575f5ffd5b506105f46118aa565b6040516106019190613c89565b60405180910390f35b348015610615575f5ffd5b5061061e6118bc565b005b34801561062b575f5ffd5b50610634611baf565b6040516106419190613dcb565b60405180910390f35b348015610655575f5ffd5b5061065e611bb5565b60405161066b9190613dcb565b60405180910390f35b34801561067f575f5ffd5b50610688611c52565b6040516106959190613dcb565b60405180910390f35b3480156106a9575f5ffd5b506106c460048036038101906106bf9190613e0e565b611cfe565b005b3480156106d1575f5ffd5b506106da61213d565b005b3480156106e7575f5ffd5b506106f061231f565b005b3480156106fd575f5ffd5b5061071860048036038101906107139190613e68565b612405565b60405161072793929190613e93565b60405180910390f35b610738612446565b005b348015610745575f5ffd5b5061074e6128cd565b005b34801561075b575f5ffd5b506107646129b2565b6040516107719190613ed7565b60405180910390f35b348015610785575f5ffd5b5061078e6129d7565b60405161079b9190613ff6565b60405180910390f35b3480156107af575f5ffd5b506107b8612a60565b6040516107c59190613c4f565b60405180910390f35b3480156107d9575f5ffd5b506107e2612b8b565b005b3480156107ef575f5ffd5b506107f8612ced565b6040516108059190613c89565b60405180910390f35b348015610819575f5ffd5b50610822612cff565b60405161082f9190613ed7565b60405180910390f35b348015610843575f5ffd5b5061084c612d25565b005b348015610859575f5ffd5b50610862612ea2565b005b34801561086f575f5ffd5b50610878613078565b6040516108859190613dcb565b60405180910390f35b348015610899575f5ffd5b506108a261307e565b6040516108af9190613ed7565b60405180910390f35b3480156108c3575f5ffd5b506108cc6130a3565b005b3480156108d9575f5ffd5b506108e2613284565b005b3480156108ef575f5ffd5b506108f8613645565b6040516109059190613dcb565b60405180910390f35b348015610919575f5ffd5b5061092261364b565b60405161092f9190613dcb565b60405180910390f35b348015610943575f5ffd5b5061094c613651565b005b348015610959575f5ffd5b50610962613876565b60405161096f9190613dcb565b60405180910390f35b348015610983575f5ffd5b5061098c61387c565b005b60015f9054906101000a900473ffffffffffffffffffffffffffffffffffffffff1673ffffffffffffffffffffffffffffffffffffffff163373ffffffffffffffffffffffffffffffffffffffff1614610a1d576040517f08c379a0000000000000000000000000000000000000000000000000000000008152600401610a1490614086565b60405180910390fd5b600160165f6101000a81548160ff02191690836002811115610a4257610a41613d27565b5b021790555060015f9054906101000a900473ffffffffffffffffffffffffffffffffffffffff1673ffffffffffffffffffffffffffffffffffffffff167f7b73f5d770f3eb41fd57f1e6a1c9e2a5ec61febbbd4e608d511c46e3fd61163982604051610aae9190613c4f565b60405180910390a250565b5f73__$f6bd971a7c05cea9d3394c8f102f387bcb$__635468af106015546040518263ffffffff1660e01b8152600401610af391906140b3565b602060405180830381865af4158015610b0e573d5f5f3e3d5ffd5b505050506040513d601f19601f82011682018060405250810190610b3291906140e0565b905080421115610bc857600354600d5f828254610b4f9190614138565b9250508190555060025f9054906101000a900473ffffffffffffffffffffffffffffffffffffffff1673ffffffffffffffffffffffffffffffffffffffff167f2774f4712321fe39a50cf43384f7a594356cdabd366829262f2654fe2f3b77f9600354604051610bbf9190613dcb565b60405180910390a25b7fbbcc51fa936f3a76812be73764f05aafeeb3d972c46d98dd196244186bad147f81604051610bf79190613dcb565b60405180910390a150565b5f6002811115610c1557610c14613d27565b5b60165f9054906101000a900460ff166002811115610c3657610c35613d27565b5b1480610c735750600280811115610c5057610c4f613d27565b5b60165f9054906101000a900460ff166002811115610c7157610c70613d27565b5b145b610cb2576040517f08c379a0000000000000000000000000000000000000000000000000000000008152600401610ca9906141b5565b60405180910390fd5b5f42601054610cc191906141d3565b9050624f1a00811480610cd45750601e81145b15610d23577fd0b1f933b37bcb6fa032c1f03d79ec22be0798137cdb06ad046be2e640eafbc56201518082610d099190614233565b604051610d169190613dcb565b60405180910390a1610d74565b621275008110610d73577fd0b1f933b37bcb6fa032c1f03d79ec22be0798137cdb06ad046be2e640eafbc56201518082610d5d9190614233565b604051610d6a9190613dcb565b60405180910390a15b5b50565b60058054610d8490614290565b80601f0160208091040260200160405190810160405280929190818152602001828054610db090614290565b8015610dfb5780601f10610dd257610100808354040283529160200191610dfb565b820191905f5260205f20905b815481529060010190602001808311610dde57829003601f168201915b505050505081565b60065f9054906101000a900460ff1681565b6013602052805f5260405f205f915054906101000a900460ff1681565b600e5f9054906101000a900460ff1681565b60015f9054906101000a900473ffffffffffffffffffffffffffffffffffffffff1673ffffffffffffffffffffffffffffffffffffffff163373ffffffffffffffffffffffffffffffffffffffff1614610ed3576040517f08c379a0000000000000000000000000000000000000000000000000000000008152600401610eca90614086565b60405180910390fd5b600280811115610ee657610ee5613d27565b5b60165f9054906101000a900460ff166002811115610f0757610f06613d27565b5b14610f47576040517f08c379a0000000000000000000000000000000000000000000000000000000008152600401610f3e90614330565b60405180910390fd5b600160145f6101000a81548160ff021916908315150217905550565b60015f9054906101000a900473ffffffffffffffffffffffffffffffffffffffff1673ffffffffffffffffffffffffffffffffffffffff163373ffffffffffffffffffffffffffffffffffffffff1614610ff2576040517f08c379a0000000000000000000000000000000000000000000000000000000008152600401610fe990614086565b60405180910390fd5b6003546003611001919061434e565b600d541115611083576276a700426110199190614138565b600f81905550600260165f6101000a81548160ff0219169083600281111561104457611043613d27565b5b02179055507f2032eea88030b7d191bcbdc44c5ac10ed559f3e9f56a319c896f007b55aba5c6600f5460405161107a9190613dcb565b60405180910390a15b565b60165f9054906101000a900460ff1681565b601260019054906101000a900460ff1681565b600c5481565b5f5f600954426110c091906141d3565b90505f6301e13380826110d39190614233565b90505f6110de611bb5565b90505f606483836110ef919061434e565b6110f99190614233565b60016111059190614138565b600854611112919061434e565b90508094505050505090565b60105481565b60045481565b60015f9054906101000a900473ffffffffffffffffffffffffffffffffffffffff1673ffffffffffffffffffffffffffffffffffffffff163373ffffffffffffffffffffffffffffffffffffffff16146111b9576040517f08c379a00000000000000000000000000000000000000000000000000000000081526004016111b090614086565b60405180910390fd5b600e5f9054906101000a900460ff16611207576040517f08c379a00000000000000000000000000000000000000000000000000000000081526004016111fe906143d9565b60405180910390fd5b600c5f815480929190611219906143f7565b91905055505f600e5f6101000a81548160ff02191690831515021790555060025f9054906101000a900473ffffffffffffffffffffffffffffffffffffffff1673ffffffffffffffffffffffffffffffffffffffff167f3b3128f7f622ff2560e38be1b058b93ba3d585cba51577708f3da9d6fe4cd925600c546040516112a09190613dcb565b60405180910390a2565b60155481565b60095481565b6112be613a05565b60025f9054906101000a900473ffffffffffffffffffffffffffffffffffffffff1673ffffffffffffffffffffffffffffffffffffffff163373ffffffffffffffffffffffffffffffffffffffff161461134d576040517f08c379a0000000000000000000000000000000000000000000000000000000008152600401611344906144ae565b60405180910390fd5b5f60028111156113605761135f613d27565b5b60165f9054906101000a900460ff16600281111561138157611380613d27565b5b146113c1576040517f08c379a00000000000000000000000000000000000000000000000000000000081526004016113b890614516565b60405180910390fd5b5f60065f9054906101000a900460ff1615611576575f3414611418576040517f08c379a000000000000000000000000000000000000000000000000000000000815260040161140f906145a4565b60405180910390fd5b60045490503373ffffffffffffffffffffffffffffffffffffffff167fd843b6e8d49f0e65c61fb0c27466e0719df02e1ca2340e577c3e289c1ac9154c8260065f9054906101000a900460ff166040516114739291906145c2565b60405180910390a2600660019054906101000a900473ffffffffffffffffffffffffffffffffffffffff1673ffffffffffffffffffffffffffffffffffffffff166323b872dd3330846040518463ffffffff1660e01b81526004016114da939291906145e9565b6020604051808303815f875af11580156114f6573d5f5f3e3d5ffd5b505050506040513d601f19601f8201168201806040525081019061151a9190614648565b611559576040517f08c379a0000000000000000000000000000000000000000000000000000000008152600401611550906146bd565b60405180910390fd5b8060085f82825461156a9190614138565b925050819055506116bf565b5f61157f611c52565b9050806a52b7d2dcc80cd2e400000060045461159b919061434e565b6115a59190614233565b9150813410156115ea576040517f08c379a00000000000000000000000000000000000000000000000000000000081526004016115e190614725565b60405180910390fd5b5f82346115f791906141d3565b90505f8111156116a4573373ffffffffffffffffffffffffffffffffffffffff167fd843b6e8d49f0e65c61fb0c27466e0719df02e1ca2340e577c3e289c1ac9154c8460065f9054906101000a900460ff166040516116579291906145c2565b60405180910390a23373ffffffffffffffffffffffffffffffffffffffff166108fc8290811502906040515f60405180830381858888f193505050501580156116a2573d5f5f3e3d5ffd5b505b8260085f8282546116b59190614138565b9250508190555050505b506116c8613a52565b565b60085481565b60015f9054906101000a900473ffffffffffffffffffffffffffffffffffffffff1673ffffffffffffffffffffffffffffffffffffffff163373ffffffffffffffffffffffffffffffffffffffff161461175f576040517f08c379a000000000000000000000000000000000000000000000000000000000815260040161175690614086565b60405180910390fd5b6010544210156117a4576040517f08c379a000000000000000000000000000000000000000000000000000000000815260040161179b9061478d565b60405180910390fd5b601260019054906101000a900460ff1615806117cc575060125f9054906101000a900460ff16155b61180b576040517f08c379a0000000000000000000000000000000000000000000000000000000008152600401611802906147f5565b60405180910390fd5b600160165f6101000a81548160ff021916908360028111156118305761182f613d27565b5b021790555060015f9054906101000a900473ffffffffffffffffffffffffffffffffffffffff1673ffffffffffffffffffffffffffffffffffffffff167f7b73f5d770f3eb41fd57f1e6a1c9e2a5ec61febbbd4e608d511c46e3fd61163960405161189a9061485d565b60405180910390a2565b600d5481565b60125f9054906101000a900460ff1681565b6118c4613a05565b60015f9054906101000a900473ffffffffffffffffffffffffffffffffffffffff1673ffffffffffffffffffffffffffffffffffffffff163373ffffffffffffffffffffffffffffffffffffffff1614611953576040517f08c379a000000000000000000000000000000000000000000000000000000000815260040161194a90614086565b60405180910390fd5b6001600281111561196757611966613d27565b5b60165f9054906101000a900460ff16600281111561198857611987613d27565b5b146119c8576040517f08c379a00000000000000000000000000000000000000000000000000000000081526004016119bf906148c5565b60405180910390fd5b5f6119d16110b0565b90505f6008819055503373ffffffffffffffffffffffffffffffffffffffff167fa09244c122a83074363635dc89ce0098166c2f74827960ff64a7c8e6ad1c57a282604051611a209190613dcb565b60405180910390a260065f9054906101000a900460ff1615611b3e57600660019054906101000a900473ffffffffffffffffffffffffffffffffffffffff1673ffffffffffffffffffffffffffffffffffffffff1663a9059cbb60025f9054906101000a900473ffffffffffffffffffffffffffffffffffffffff16836040518363ffffffff1660e01b8152600401611aba9291906148e3565b6020604051808303815f875af1158015611ad6573d5f5f3e3d5ffd5b505050506040513d601f19601f82011682018060405250810190611afa9190614648565b611b39576040517f08c379a0000000000000000000000000000000000000000000000000000000008152600401611b3090614954565b60405180910390fd5b611ba4565b60025f9054906101000a900473ffffffffffffffffffffffffffffffffffffffff1673ffffffffffffffffffffffffffffffffffffffff166108fc8290811502906040515f60405180830381858888f19350505050158015611ba2573d5f5f3e3d5ffd5b505b50611bad613a52565b565b600f5481565b5f5f60075f9054906101000a900473ffffffffffffffffffffffffffffffffffffffff1673ffffffffffffffffffffffffffffffffffffffff1663feaf968c6040518163ffffffff1660e01b815260040160a060405180830381865afa158015611c21573d5f5f3e3d5ffd5b505050506040513d601f19601f82011682018060405250810190611c4591906149e4565b5050509150508091505090565b5f5f60075f9054906101000a900473ffffffffffffffffffffffffffffffffffffffff1673ffffffffffffffffffffffffffffffffffffffff1663feaf968c6040518163ffffffff1660e01b815260040160a060405180830381865afa158015611cbe573d5f5f3e3d5ffd5b505050506040513d601f19601f82011682018060405250810190611ce291906149e4565b5050509150506305f5e10081611cf89190614a5b565b91505090565b611d06613a05565b60015f9054906101000a900473ffffffffffffffffffffffffffffffffffffffff1673ffffffffffffffffffffffffffffffffffffffff163373ffffffffffffffffffffffffffffffffffffffff1614611d95576040517f08c379a0000000000000000000000000000000000000000000000000000000008152600401611d8c90614086565b60405180910390fd5b5f60065f9054906101000a900460ff1615611fa857670de0b6b3a764000083611dbe919061434e565b9050600854811115611e05576040517f08c379a0000000000000000000000000000000000000000000000000000000008152600401611dfc90614b1b565b60405180910390fd5b8060085f828254611e1691906141d3565b9250508190555080600a5f828254611e2e9190614138565b9250508190555060015f9054906101000a900473ffffffffffffffffffffffffffffffffffffffff1673ffffffffffffffffffffffffffffffffffffffff167f0e71db61460cade63bdce2bd520284d5fcde93eb8604be23456ac0761c5cb4d98284604051611e9e929190614b39565b60405180910390a2600660019054906101000a900473ffffffffffffffffffffffffffffffffffffffff1673ffffffffffffffffffffffffffffffffffffffff1663a9059cbb60015f9054906101000a900473ffffffffffffffffffffffffffffffffffffffff16836040518363ffffffff1660e01b8152600401611f249291906148e3565b6020604051808303815f875af1158015611f40573d5f5f3e3d5ffd5b505050506040513d601f19601f82011682018060405250810190611f649190614648565b611fa3576040517f08c379a0000000000000000000000000000000000000000000000000000000008152600401611f9a90614bb1565b60405180910390fd5b612130565b5f611fb1611c52565b9050806305f5e100670de0b6b3a764000086611fcd919061434e565b611fd7919061434e565b611fe19190614233565b9150600854821115612028576040517f08c379a000000000000000000000000000000000000000000000000000000000815260040161201f90614b1b565b60405180910390fd5b8160085f82825461203991906141d3565b9250508190555081600a5f8282546120519190614138565b9250508190555060015f9054906101000a900473ffffffffffffffffffffffffffffffffffffffff1673ffffffffffffffffffffffffffffffffffffffff167f0e71db61460cade63bdce2bd520284d5fcde93eb8604be23456ac0761c5cb4d983856040516120c1929190614b39565b60405180910390a260015f9054906101000a900473ffffffffffffffffffffffffffffffffffffffff1673ffffffffffffffffffffffffffffffffffffffff166108fc8390811502906040515f60405180830381858888f1935050505015801561212d573d5f5f3e3d5ffd5b50505b50612139613a52565b5050565b60025f9054906101000a900473ffffffffffffffffffffffffffffffffffffffff1673ffffffffffffffffffffffffffffffffffffffff163373ffffffffffffffffffffffffffffffffffffffff16146121cc576040517f08c379a00000000000000000000000000000000000000000000000000000000081526004016121c3906144ae565b60405180910390fd5b6002808111156121df576121de613d27565b5b60165f9054906101000a900460ff166002811115612200576121ff613d27565b5b14612240576040517f08c379a000000000000000000000000000000000000000000000000000000000815260040161223790614c3f565b60405180910390fd5b60145f9054906101000a900460ff1661228e576040517f08c379a000000000000000000000000000000000000000000000000000000000815260040161228590614ccd565b60405180910390fd5b600160165f6101000a81548160ff021916908360028111156122b3576122b2613d27565b5b02179055505f60145f6101000a81548160ff0219169083151502179055503373ffffffffffffffffffffffffffffffffffffffff167f7b73f5d770f3eb41fd57f1e6a1c9e2a5ec61febbbd4e608d511c46e3fd61163960405161231590614d5b565b60405180910390a2565b60025f9054906101000a900473ffffffffffffffffffffffffffffffffffffffff1673ffffffffffffffffffffffffffffffffffffffff163373ffffffffffffffffffffffffffffffffffffffff16146123ae576040517f08c379a00000000000000000000000000000000000000000000000000000000081526004016123a5906144ae565b60405180910390fd5b600160135f3373ffffffffffffffffffffffffffffffffffffffff1673ffffffffffffffffffffffffffffffffffffffff1681526020019081526020015f205f6101000a81548160ff021916908315150217905550565b60178181548110612414575f80fd5b905f5260205f2090600302015f91509050805f015490806001015490806002015f9054906101000a900460ff16905083565b61244e613a05565b60025f9054906101000a900473ffffffffffffffffffffffffffffffffffffffff1673ffffffffffffffffffffffffffffffffffffffff163373ffffffffffffffffffffffffffffffffffffffff16146124dd576040517f08c379a00000000000000000000000000000000000000000000000000000000081526004016124d4906144ae565b60405180910390fd5b600160028111156124f1576124f0613d27565b5b60165f9054906101000a900460ff16600281111561251257612511613d27565b5b03612552576040517f08c379a000000000000000000000000000000000000000000000000000000000815260040161254990614516565b60405180910390fd5b61255a610ab9565b5f60065f9054906101000a900460ff1615612678576003549050600660019054906101000a900473ffffffffffffffffffffffffffffffffffffffff1673ffffffffffffffffffffffffffffffffffffffff166323b872dd3360015f9054906101000a900473ffffffffffffffffffffffffffffffffffffffff16846040518463ffffffff1660e01b81526004016125f4939291906145e9565b6020604051808303815f875af1158015612610573d5f5f3e3d5ffd5b505050506040513d601f19601f820116820180604052508101906126349190614648565b612673576040517f08c379a000000000000000000000000000000000000000000000000000000000815260040161266a90614954565b60405180910390fd5b6127b0565b5f612681611c52565b9050806a52b7d2dcc80cd2e400000060035461269d919061434e565b6126a79190614233565b9150813410156126ec576040517f08c379a00000000000000000000000000000000000000000000000000000000081526004016126e390614dc3565b60405180910390fd5b60015f9054906101000a900473ffffffffffffffffffffffffffffffffffffffff1673ffffffffffffffffffffffffffffffffffffffff166108fc8390811502906040515f60405180830381858888f19350505050158015612750573d5f5f3e3d5ffd5b50813411156127ae575f823461276691906141d3565b90503373ffffffffffffffffffffffffffffffffffffffff166108fc8290811502906040515f60405180830381858888f193505050501580156127ab573d5f5f3e3d5ffd5b50505b505b3373ffffffffffffffffffffffffffffffffffffffff167fa0e44cc6f4f184bc83e145bf7f0cc703b7f698476124cf6a9d7d403d202e77fd8260065f9054906101000a900460ff166040516128069291906145c2565b60405180910390a280600d5411612823575f600d8190555061283c565b80600d5f82825461283491906141d3565b925050819055505b6017604051806060016040528042815260200183815260200160065f9054906101000a900460ff161515815250908060018154018082558091505060019003905f5260205f2090600302015f909190919091505f820151815f0155602082015181600101556040820151816002015f6101000a81548160ff0219169083151502179055505050506128cb613a52565b565b60025f9054906101000a900473ffffffffffffffffffffffffffffffffffffffff1673ffffffffffffffffffffffffffffffffffffffff163373ffffffffffffffffffffffffffffffffffffffff161461295c576040517f08c379a0000000000000000000000000000000000000000000000000000000008152600401612953906144ae565b60405180910390fd5b5f60135f3373ffffffffffffffffffffffffffffffffffffffff1673ffffffffffffffffffffffffffffffffffffffff1681526020019081526020015f205f6101000a81548160ff021916908315150217905550565b60025f9054906101000a900473ffffffffffffffffffffffffffffffffffffffff1681565b60606017805480602002602001604051908101604052809291908181526020015f905b82821015612a57578382905f5260205f2090600302016040518060600160405290815f820154815260200160018201548152602001600282015f9054906101000a900460ff161515151581525050815260200190600101906129fa565b50505050905090565b60605f6002811115612a7557612a74613d27565b5b60165f9054906101000a900460ff166002811115612a9657612a95613d27565b5b03612ad8576040518060400160405280600681526020017f41637469766500000000000000000000000000000000000000000000000000008152509050612b88565b60016002811115612aec57612aeb613d27565b5b60165f9054906101000a900460ff166002811115612b0d57612b0c613d27565b5b03612b4f576040518060400160405280600a81526020017f5465726d696e61746564000000000000000000000000000000000000000000008152509050612b88565b6040518060400160405280601281526020017f50656e64696e675465726d696e6174696f6e000000000000000000000000000081525090505b90565b60025f9054906101000a900473ffffffffffffffffffffffffffffffffffffffff1673ffffffffffffffffffffffffffffffffffffffff163373ffffffffffffffffffffffffffffffffffffffff1614612c1a576040517f08c379a0000000000000000000000000000000000000000000000000000000008152600401612c11906144ae565b60405180910390fd5b5f6002811115612c2d57612c2c613d27565b5b60165f9054906101000a900460ff166002811115612c4e57612c4d613d27565b5b14612c8e576040517f08c379a0000000000000000000000000000000000000000000000000000000008152600401612c8590614e2b565b60405180910390fd5b600160125f6101000a81548160ff0219169083151502179055503373ffffffffffffffffffffffffffffffffffffffff167fe50dd892821a34ea6a05e9560e362467eb50bdaa8a01f3807e5778b21296a41a60405160405180910390a2565b60145f9054906101000a900460ff1681565b600660019054906101000a900473ffffffffffffffffffffffffffffffffffffffff1681565b60025f9054906101000a900473ffffffffffffffffffffffffffffffffffffffff1673ffffffffffffffffffffffffffffffffffffffff163373ffffffffffffffffffffffffffffffffffffffff1614612db4576040517f08c379a0000000000000000000000000000000000000000000000000000000008152600401612dab906144ae565b60405180910390fd5b5f6002811115612dc757612dc6613d27565b5b60165f9054906101000a900460ff166002811115612de857612de7613d27565b5b14612e28576040517f08c379a0000000000000000000000000000000000000000000000000000000008152600401612e1f90614e93565b60405180910390fd5b6276a70042612e379190614138565b600f81905550600260165f6101000a81548160ff02191690836002811115612e6257612e61613d27565b5b02179055507f2032eea88030b7d191bcbdc44c5ac10ed559f3e9f56a319c896f007b55aba5c6600f54604051612e989190613dcb565b60405180910390a1565b60015f9054906101000a900473ffffffffffffffffffffffffffffffffffffffff1673ffffffffffffffffffffffffffffffffffffffff163373ffffffffffffffffffffffffffffffffffffffff1614612f31576040517f08c379a0000000000000000000000000000000000000000000000000000000008152600401612f2890614086565b60405180910390fd5b62093a8073__$f6bd971a7c05cea9d3394c8f102f387bcb$__635468af106015546040518263ffffffff1660e01b8152600401612f6e91906140b3565b602060405180830381865af4158015612f89573d5f5f3e3d5ffd5b505050506040513d601f19601f82011682018060405250810190612fad91906140e0565b612fb79190614138565b4211612ff8576040517f08c379a0000000000000000000000000000000000000000000000000000000008152600401612fef90614efb565b60405180910390fd5b6001600e5f6101000a81548160ff02191690831515021790555060025f9054906101000a900473ffffffffffffffffffffffffffffffffffffffff1673ffffffffffffffffffffffffffffffffffffffff167f8e0013ec8ea09fb2e5fc1733fcaa4d39f199b60c282b0300add067402b2aa91b60405160405180910390a2565b600b5481565b60015f9054906101000a900473ffffffffffffffffffffffffffffffffffffffff1681565b60015f9054906101000a900473ffffffffffffffffffffffffffffffffffffffff1673ffffffffffffffffffffffffffffffffffffffff163373ffffffffffffffffffffffffffffffffffffffff1614613132576040517f08c379a000000000000000000000000000000000000000000000000000000000815260040161312990614086565b60405180910390fd5b60028081111561314557613144613d27565b5b60165f9054906101000a900460ff16600281111561316657613165613d27565b5b146131a6576040517f08c379a000000000000000000000000000000000000000000000000000000000815260040161319d90614f63565b60405180910390fd5b600f544210156131eb576040517f08c379a00000000000000000000000000000000000000000000000000000000081526004016131e290614fcb565b60405180910390fd5b600160165f6101000a81548160ff021916908360028111156132105761320f613d27565b5b021790555060015f9054906101000a900473ffffffffffffffffffffffffffffffffffffffff1673ffffffffffffffffffffffffffffffffffffffff167f7b73f5d770f3eb41fd57f1e6a1c9e2a5ec61febbbd4e608d511c46e3fd61163960405161327a9061507f565b60405180910390a2565b60015f9054906101000a900473ffffffffffffffffffffffffffffffffffffffff1673ffffffffffffffffffffffffffffffffffffffff163373ffffffffffffffffffffffffffffffffffffffff1614613313576040517f08c379a000000000000000000000000000000000000000000000000000000000815260040161330a90614086565b60405180910390fd5b60135f60025f9054906101000a900473ffffffffffffffffffffffffffffffffffffffff1673ffffffffffffffffffffffffffffffffffffffff1673ffffffffffffffffffffffffffffffffffffffff1681526020019081526020015f205f9054906101000a900460ff166133bd576040517f08c379a00000000000000000000000000000000000000000000000000000000081526004016133b4906150e7565b60405180910390fd5b5f60028111156133d0576133cf613d27565b5b60165f9054906101000a900460ff1660028111156133f1576133f0613d27565b5b14613431576040517f08c379a0000000000000000000000000000000000000000000000000000000008152600401613428906141b5565b60405180910390fd5b5f6003549050600660019054906101000a900473ffffffffffffffffffffffffffffffffffffffff1673ffffffffffffffffffffffffffffffffffffffff166323b872dd60025f9054906101000a900473ffffffffffffffffffffffffffffffffffffffff1660015f9054906101000a900473ffffffffffffffffffffffffffffffffffffffff16846040518463ffffffff1660e01b81526004016134d8939291906145e9565b6020604051808303815f875af11580156134f4573d5f5f3e3d5ffd5b505050506040513d601f19601f820116820180604052508101906135189190614648565b613557576040517f08c379a000000000000000000000000000000000000000000000000000000000815260040161354e9061514f565b60405180910390fd5b6017604051806060016040528042815260200183815260200160011515815250908060018154018082558091505060019003905f5260205f2090600302015f909190919091505f820151815f0155602082015181600101556040820151816002015f6101000a81548160ff021916908315150217905550505060025f9054906101000a900473ffffffffffffffffffffffffffffffffffffffff1673ffffffffffffffffffffffffffffffffffffffff167fa0e44cc6f4f184bc83e145bf7f0cc703b7f698476124cf6a9d7d403d202e77fd82600160405161363a9291906145c2565b60405180910390a250565b600a5481565b60115481565b60025f9054906101000a900473ffffffffffffffffffffffffffffffffffffffff1673ffffffffffffffffffffffffffffffffffffffff163373ffffffffffffffffffffffffffffffffffffffff16146136e0576040517f08c379a00000000000000000000000000000000000000000000000000000000081526004016136d7906144ae565b60405180910390fd5b6002808111156136f3576136f2613d27565b5b60165f9054906101000a900460ff16600281111561371457613713613d27565b5b14613754576040517f08c379a000000000000000000000000000000000000000000000000000000000815260040161374b906151b7565b60405180910390fd5b600f54421015613799576040517f08c379a000000000000000000000000000000000000000000000000000000000815260040161379090614fcb565b60405180910390fd5b5f600d54146137dd576040517f08c379a00000000000000000000000000000000000000000000000000000000081526004016137d49061521f565b60405180910390fd5b600160165f6101000a81548160ff0219169083600281111561380257613801613d27565b5b021790555060025f9054906101000a900473ffffffffffffffffffffffffffffffffffffffff1673ffffffffffffffffffffffffffffffffffffffff167f7b73f5d770f3eb41fd57f1e6a1c9e2a5ec61febbbd4e608d511c46e3fd61163960405161386c906152ad565b60405180910390a2565b60035481565b60015f9054906101000a900473ffffffffffffffffffffffffffffffffffffffff1673ffffffffffffffffffffffffffffffffffffffff163373ffffffffffffffffffffffffffffffffffffffff161461390b576040517f08c379a000000000000000000000000000000000000000000000000000000000815260040161390290614086565b60405180910390fd5b6001151560125f9054906101000a900460ff16151514613960576040517f08c379a00000000000000000000000000000000000000000000000000000000081526004016139579061533b565b60405180910390fd5b6001601260016101000a81548160ff0219169083151502179055506301e1338060105f8282546139909190614138565b925050819055505f60125f6101000a81548160ff0219169083151502179055505f601260016101000a81548160ff0219169083151502179055507f9b92a9893c6f7c060109fbacf7a7ed7384b0d145f68541169a1a201ea42ce8546010546040516139fb9190613dcb565b60405180910390a1565b60025f5403613a49576040517f08c379a0000000000000000000000000000000000000000000000000000000008152600401613a40906153a3565b60405180910390fd5b60025f81905550565b60015f81905550565b5f604051905090565b5f5ffd5b5f5ffd5b5f5ffd5b5f5ffd5b5f601f19601f8301169050919050565b7f4e487b71000000000000000000000000000000000000000000000000000000005f52604160045260245ffd5b613aba82613a74565b810181811067ffffffffffffffff82111715613ad957613ad8613a84565b5b80604052505050565b5f613aeb613a5b565b9050613af78282613ab1565b919050565b5f67ffffffffffffffff821115613b1657613b15613a84565b5b613b1f82613a74565b9050602081019050919050565b828183375f83830152505050565b5f613b4c613b4784613afc565b613ae2565b905082815260208101848484011115613b6857613b67613a70565b5b613b73848285613b2c565b509392505050565b5f82601f830112613b8f57613b8e613a6c565b5b8135613b9f848260208601613b3a565b91505092915050565b5f60208284031215613bbd57613bbc613a64565b5b5f82013567ffffffffffffffff811115613bda57613bd9613a68565b5b613be684828501613b7b565b91505092915050565b5f81519050919050565b5f82825260208201905092915050565b8281835e5f83830152505050565b5f613c2182613bef565b613c2b8185613bf9565b9350613c3b818560208601613c09565b613c4481613a74565b840191505092915050565b5f6020820190508181035f830152613c678184613c17565b905092915050565b5f8115159050919050565b613c8381613c6f565b82525050565b5f602082019050613c9c5f830184613c7a565b92915050565b5f73ffffffffffffffffffffffffffffffffffffffff82169050919050565b5f613ccb82613ca2565b9050919050565b613cdb81613cc1565b8114613ce5575f5ffd5b50565b5f81359050613cf681613cd2565b92915050565b5f60208284031215613d1157613d10613a64565b5b5f613d1e84828501613ce8565b91505092915050565b7f4e487b71000000000000000000000000000000000000000000000000000000005f52602160045260245ffd5b60038110613d6557613d64613d27565b5b50565b5f819050613d7582613d54565b919050565b5f613d8482613d68565b9050919050565b613d9481613d7a565b82525050565b5f602082019050613dad5f830184613d8b565b92915050565b5f819050919050565b613dc581613db3565b82525050565b5f602082019050613dde5f830184613dbc565b92915050565b613ded81613db3565b8114613df7575f5ffd5b50565b5f81359050613e0881613de4565b92915050565b5f5f60408385031215613e2457613e23613a64565b5b5f613e3185828601613dfa565b925050602083013567ffffffffffffffff811115613e5257613e51613a68565b5b613e5e85828601613b7b565b9150509250929050565b5f60208284031215613e7d57613e7c613a64565b5b5f613e8a84828501613dfa565b91505092915050565b5f606082019050613ea65f830186613dbc565b613eb36020830185613dbc565b613ec06040830184613c7a565b949350505050565b613ed181613cc1565b82525050565b5f602082019050613eea5f830184613ec8565b92915050565b5f81519050919050565b5f82825260208201905092915050565b5f819050602082019050919050565b613f2281613db3565b82525050565b613f3181613c6f565b82525050565b606082015f820151613f4b5f850182613f19565b506020820151613f5e6020850182613f19565b506040820151613f716040850182613f28565b50505050565b5f613f828383613f37565b60608301905092915050565b5f602082019050919050565b5f613fa482613ef0565b613fae8185613efa565b9350613fb983613f0a565b805f5b83811015613fe9578151613fd08882613f77565b9750613fdb83613f8e565b925050600181019050613fbc565b5085935050505092915050565b5f6020820190508181035f83015261400e8184613f9a565b905092915050565b7f4f6e6c79206c616e646c6f72642063616e20706572666f726d207468697320615f8201527f6374696f6e000000000000000000000000000000000000000000000000000000602082015250565b5f614070602583613bf9565b915061407b82614016565b604082019050919050565b5f6020820190508181035f83015261409d81614064565b9050919050565b6140ad81613db3565b82525050565b5f6020820190506140c65f8301846140a4565b92915050565b5f815190506140da81613de4565b92915050565b5f602082840312156140f5576140f4613a64565b5b5f614102848285016140cc565b91505092915050565b7f4e487b71000000000000000000000000000000000000000000000000000000005f52601160045260245ffd5b5f61414282613db3565b915061414d83613db3565b92508282019050808211156141655761416461410b565b5b92915050565b7f436f6e7472616374206973206e6f7420616374697665000000000000000000005f82015250565b5f61419f601683613bf9565b91506141aa8261416b565b602082019050919050565b5f6020820190508181035f8301526141cc81614193565b9050919050565b5f6141dd82613db3565b91506141e883613db3565b9250828203905081811115614200576141ff61410b565b5b92915050565b7f4e487b71000000000000000000000000000000000000000000000000000000005f52601260045260245ffd5b5f61423d82613db3565b915061424883613db3565b92508261425857614257614206565b5b828204905092915050565b7f4e487b71000000000000000000000000000000000000000000000000000000005f52602260045260245ffd5b5f60028204905060018216806142a757607f821691505b6020821081036142ba576142b9614263565b5b50919050565b7f436f6e7472616374206d7573742062652070656e64696e672074656d696e61745f8201527f696f6e0000000000000000000000000000000000000000000000000000000000602082015250565b5f61431a602383613bf9565b9150614325826142c0565b604082019050919050565b5f6020820190508181035f8301526143478161430e565b9050919050565b5f61435882613db3565b915061436383613db3565b925082820261437181613db3565b915082820484148315176143885761438761410b565b5b5092915050565b7f4e6f2070656e64696e67207761726e696e6720746f20636f6e6669726d0000005f82015250565b5f6143c3601d83613bf9565b91506143ce8261438f565b602082019050919050565b5f6020820190508181035f8301526143f0816143b7565b9050919050565b5f61440182613db3565b91507fffffffffffffffffffffffffffffffffffffffffffffffffffffffffffffffff82036144335761443261410b565b5b600182019050919050565b7f4f6e6c792054656e616e742063616e20706572666f726d2074686973206163745f8201527f696f6e0000000000000000000000000000000000000000000000000000000000602082015250565b5f614498602383613bf9565b91506144a38261443e565b604082019050919050565b5f6020820190508181035f8301526144c58161448c565b9050919050565b7f52656e74616c20636f6e7472616374206973206e6f74206163746976650000005f82015250565b5f614500601d83613bf9565b915061450b826144cc565b602082019050919050565b5f6020820190508181035f83015261452d816144f4565b9050919050565b7f4e6f2045544820726571756972656420666f7220737461626c65636f696e20645f8201527f65706f7369740000000000000000000000000000000000000000000000000000602082015250565b5f61458e602683613bf9565b915061459982614534565b604082019050919050565b5f6020820190508181035f8301526145bb81614582565b9050919050565b5f6040820190506145d55f830185613dbc565b6145e26020830184613c7a565b9392505050565b5f6060820190506145fc5f830186613ec8565b6146096020830185613ec8565b6146166040830184613dbc565b949350505050565b61462781613c6f565b8114614631575f5ffd5b50565b5f815190506146428161461e565b92915050565b5f6020828403121561465d5761465c613a64565b5b5f61466a84828501614634565b91505092915050565b7f537461626c65636f696e206465706f736974206661696c6564000000000000005f82015250565b5f6146a7601983613bf9565b91506146b282614673565b602082019050919050565b5f6020820190508181035f8301526146d48161469b565b9050919050565b7f496e73756666696369656e74204554482073656e7400000000000000000000005f82015250565b5f61470f601583613bf9565b915061471a826146db565b602082019050919050565b5f6020820190508181035f83015261473c81614703565b9050919050565b7f436f6e747261637420686173206e6f74206578706972656420796574000000005f82015250565b5f614777601c83613bf9565b915061478282614743565b602082019050919050565b5f6020820190508181035f8301526147a48161476b565b9050919050565b7f436f6e747261637420686173206265656e2072656e65776564000000000000005f82015250565b5f6147df601983613bf9565b91506147ea826147ab565b602082019050919050565b5f6020820190508181035f83015261480c816147d3565b9050919050565b7f436f6e7472616374206578706972656420776974686f75742072656e6577616c5f82015250565b5f614847602083613bf9565b915061485282614813565b602082019050919050565b5f6020820190508181035f8301526148748161483b565b9050919050565b7f436f6e7472616374206d75737420626572207465726d696e61746564000000005f82015250565b5f6148af601c83613bf9565b91506148ba8261487b565b602082019050919050565b5f6020820190508181035f8301526148dc816148a3565b9050919050565b5f6040820190506148f65f830185613ec8565b6149036020830184613dbc565b9392505050565b7f537461626c65636f696e207061796d656e74206661696c6564000000000000005f82015250565b5f61493e601983613bf9565b91506149498261490a565b602082019050919050565b5f6020820190508181035f83015261496b81614932565b9050919050565b5f69ffffffffffffffffffff82169050919050565b61499081614972565b811461499a575f5ffd5b50565b5f815190506149ab81614987565b92915050565b5f819050919050565b6149c3816149b1565b81146149cd575f5ffd5b50565b5f815190506149de816149ba565b92915050565b5f5f5f5f5f60a086880312156149fd576149fc613a64565b5b5f614a0a8882890161499d565b9550506020614a1b888289016149d0565b9450506040614a2c888289016140cc565b9350506060614a3d888289016140cc565b9250506080614a4e8882890161499d565b9150509295509295909350565b5f614a65826149b1565b9150614a70836149b1565b9250828202614a7e816149b1565b91507f800000000000000000000000000000000000000000000000000000000000000084145f84121615614ab557614ab461410b565b5b8282058414831517614aca57614ac961410b565b5b5092915050565b7f446564756374696f6e2065786365656473206465706f73697420616d6f756e745f82015250565b5f614b05602083613bf9565b9150614b1082614ad1565b602082019050919050565b5f6020820190508181035f830152614b3281614af9565b9050919050565b5f604082019050614b4c5f830185613dbc565b8181036020830152614b5e8184613c17565b90509392505050565b7f537461626c65636f696e207472616e73666572206661696c65640000000000005f82015250565b5f614b9b601a83613bf9565b9150614ba682614b67565b602082019050919050565b5f6020820190508181035f830152614bc881614b8f565b9050919050565b7f436f6e747261637420206d7573742062652070656e64696e67207465726d696e5f8201527f6174696f6e000000000000000000000000000000000000000000000000000000602082015250565b5f614c29602583613bf9565b9150614c3482614bcf565b604082019050919050565b5f6020820190508181035f830152614c5681614c1d565b9050919050565b7f4c616e646c6f726420686173206e6f7420726571756573746564206561726c795f8201527f207465726d696e6174696f6e0000000000000000000000000000000000000000602082015250565b5f614cb7602c83613bf9565b9150614cc282614c5d565b604082019050919050565b5f6020820190508181035f830152614ce481614cab565b9050919050565b7f436f6e7472616374207465726d696e61746564206561726c79206279206d75745f8201527f75616c2061677265656d656e7400000000000000000000000000000000000000602082015250565b5f614d45602d83613bf9565b9150614d5082614ceb565b604082019050919050565b5f6020820190508181035f830152614d7281614d39565b9050919050565b7f496e737566666963656e74204554482073656e740000000000000000000000005f82015250565b5f614dad601483613bf9565b9150614db882614d79565b602082019050919050565b5f6020820190508181035f830152614dda81614da1565b9050919050565b7f436f6e74726163742068617320616c72656164792065787069726564000000005f82015250565b5f614e15601c83613bf9565b9150614e2082614de1565b602082019050919050565b5f6020820190508181035f830152614e4281614e09565b9050919050565b7f436f6e7472616374206973206e6f7420416374697665000000000000000000005f82015250565b5f614e7d601683613bf9565b9150614e8882614e49565b602082019050919050565b5f6020820190508181035f830152614eaa81614e71565b9050919050565b7f5761726e696e67206e6f74206170706c696361626c65207965740000000000005f82015250565b5f614ee5601a83613bf9565b9150614ef082614eb1565b602082019050919050565b5f6020820190508181035f830152614f1281614ed9565b9050919050565b7f5465726d696e6174696f6e206e6f742073636864756c656400000000000000005f82015250565b5f614f4d601883613bf9565b9150614f5882614f19565b602082019050919050565b5f6020820190508181035f830152614f7a81614f41565b9050919050565b7f5465726d696e6174696f6e20706572696f64206e6f74207265616368656400005f82015250565b5f614fb5601e83613bf9565b9150614fc082614f81565b602082019050919050565b5f6020820190508181035f830152614fe281614fa9565b9050919050565b7f4d6f7265207468616e2033207061796d656e74732077657265206e6f742072655f8201527f67697374657265642e20436f6e7472616374206973207465726d696e6174656460208201527f2e00000000000000000000000000000000000000000000000000000000000000604082015250565b5f615069604183613bf9565b915061507482614fe9565b606082019050919050565b5f6020820190508181035f8301526150968161505d565b9050919050565b7f4175746f207061796d656e74206e6f7420617574686f72697a656400000000005f82015250565b5f6150d1601b83613bf9565b91506150dc8261509d565b602082019050919050565b5f6020820190508181035f8301526150fe816150c5565b9050919050565b7f4175746f20706179206661696c656400000000000000000000000000000000005f82015250565b5f615139600f83613bf9565b915061514482615105565b602082019050919050565b5f6020820190508181035f8301526151668161512d565b9050919050565b7f5465726d696e6174696f6e206e6f74207363686564756c6564000000000000005f82015250565b5f6151a1601983613bf9565b91506151ac8261516d565b602082019050919050565b5f6020820190508181035f8301526151ce81615195565b9050919050565b7f416c6c206465627473206d7573742062652070617965640000000000000000005f82015250565b5f615209601783613bf9565b9150615214826151d5565b602082019050919050565b5f6020820190508181035f830152615236816151fd565b9050919050565b7f54656e616e74207465726d696e6174656420746865206c6561736520616772655f8201527f656d656e74000000000000000000000000000000000000000000000000000000602082015250565b5f615297602583613bf9565b91506152a28261523d565b604082019050919050565b5f6020820190508181035f8301526152c48161528b565b9050919050565b7f54656e6e616e7420686173206e6f742061736b656420666f722072656e6577615f8201527f6c00000000000000000000000000000000000000000000000000000000000000602082015250565b5f615325602183613bf9565b9150615330826152cb565b604082019050919050565b5f6020820190508181035f83015261535281615319565b9050919050565b7f5265656e7472616e637947756172643a207265656e7472616e742063616c6c005f82015250565b5f61538d601f83613bf9565b915061539882615359565b602082019050919050565b5f6020820190508181035f8301526153ba81615381565b905091905056fea26469706673582212203c2a81db93f273508bcd801cd2afdc8bfe042b128e587a1b03dc9c861410480164736f6c634300081e0033",
			"opcodes": "PUSH1 0x80 PUSH1 0x40 MSTORE CALLVALUE DUP1 ISZERO PUSH2 0xF JUMPI PUSH0 PUSH0 REVERT JUMPDEST POP PUSH1 0x40 MLOAD PUSH2 0x60C4 CODESIZE SUB DUP1 PUSH2 0x60C4 DUP4 CODECOPY DUP2 DUP2 ADD PUSH1 0x40 MSTORE DUP2 ADD SWAP1 PUSH2 0x31 SWAP2 SWAP1 PUSH2 0x5F3 JUMP JUMPDEST PUSH1 0x1 PUSH0 DUP2 SWAP1 SSTORE POP PUSH0 PUSH20 0xFFFFFFFFFFFFFFFFFFFFFFFFFFFFFFFFFFFFFFFF AND DUP9 PUSH20 0xFFFFFFFFFFFFFFFFFFFFFFFFFFFFFFFFFFFFFFFF AND SUB PUSH2 0xA6 JUMPI PUSH1 0x40 MLOAD PUSH32 0x8C379A000000000000000000000000000000000000000000000000000000000 DUP2 MSTORE PUSH1 0x4 ADD PUSH2 0x9D SWAP1 PUSH2 0x71A JUMP JUMPDEST PUSH1 0x40 MLOAD DUP1 SWAP2 SUB SWAP1 REVERT JUMPDEST PUSH0 DUP8 GT PUSH2 0xE8 JUMPI PUSH1 0x40 MLOAD PUSH32 0x8C379A000000000000000000000000000000000000000000000000000000000 DUP2 MSTORE PUSH1 0x4 ADD PUSH2 0xDF SWAP1 PUSH2 0x7A8 JUMP JUMPDEST PUSH1 0x40 MLOAD DUP1 SWAP2 SUB SWAP1 REVERT JUMPDEST PUSH0 DUP7 LT ISZERO PUSH2 0x12B JUMPI PUSH1 0x40 MLOAD PUSH32 0x8C379A000000000000000000000000000000000000000000000000000000000 DUP2 MSTORE PUSH1 0x4 ADD PUSH2 0x122 SWAP1 PUSH2 0x836 JUMP JUMPDEST PUSH1 0x40 MLOAD DUP1 SWAP2 SUB SWAP1 REVERT JUMPDEST PUSH0 DUP6 MLOAD GT PUSH2 0x16E JUMPI PUSH1 0x40 MLOAD PUSH32 0x8C379A000000000000000000000000000000000000000000000000000000000 DUP2 MSTORE PUSH1 0x4 ADD PUSH2 0x165 SWAP1 PUSH2 0x89E JUMP JUMPDEST PUSH1 0x40 MLOAD DUP1 SWAP2 SUB SWAP1 REVERT JUMPDEST CALLER PUSH1 0x1 PUSH0 PUSH2 0x100 EXP DUP2 SLOAD DUP2 PUSH20 0xFFFFFFFFFFFFFFFFFFFFFFFFFFFFFFFFFFFFFFFF MUL NOT AND SWAP1 DUP4 PUSH20 0xFFFFFFFFFFFFFFFFFFFFFFFFFFFFFFFFFFFFFFFF AND MUL OR SWAP1 SSTORE POP DUP8 PUSH1 0x2 PUSH0 PUSH2 0x100 EXP DUP2 SLOAD DUP2 PUSH20 0xFFFFFFFFFFFFFFFFFFFFFFFFFFFFFFFFFFFFFFFF MUL NOT AND SWAP1 DUP4 PUSH20 0xFFFFFFFFFFFFFFFFFFFFFFFFFFFFFFFFFFFFFFFF AND MUL OR SWAP1 SSTORE POP DUP7 PUSH1 0x3 DUP2 SWAP1 SSTORE POP DUP6 PUSH1 0x4 DUP2 SWAP1 SSTORE POP DUP5 PUSH1 0x5 SWAP1 DUP2 PUSH2 0x20B SWAP2 SWAP1 PUSH2 0xAC3 JUMP JUMPDEST POP DUP4 PUSH1 0x6 PUSH0 PUSH2 0x100 EXP DUP2 SLOAD DUP2 PUSH1 0xFF MUL NOT AND SWAP1 DUP4 ISZERO ISZERO MUL OR SWAP1 SSTORE POP DUP3 PUSH1 0x6 PUSH1 0x1 PUSH2 0x100 EXP DUP2 SLOAD DUP2 PUSH20 0xFFFFFFFFFFFFFFFFFFFFFFFFFFFFFFFFFFFFFFFF MUL NOT AND SWAP1 DUP4 PUSH20 0xFFFFFFFFFFFFFFFFFFFFFFFFFFFFFFFFFFFFFFFF AND MUL OR SWAP1 SSTORE POP DUP2 PUSH1 0x7 PUSH0 PUSH2 0x100 EXP DUP2 SLOAD DUP2 PUSH20 0xFFFFFFFFFFFFFFFFFFFFFFFFFFFFFFFFFFFFFFFF MUL NOT AND SWAP1 DUP4 PUSH20 0xFFFFFFFFFFFFFFFFFFFFFFFFFFFFFFFFFFFFFFFF AND MUL OR SWAP1 SSTORE POP PUSH0 PUSH1 0x16 PUSH0 PUSH2 0x100 EXP DUP2 SLOAD DUP2 PUSH1 0xFF MUL NOT AND SWAP1 DUP4 PUSH1 0x2 DUP2 GT ISZERO PUSH2 0x2CA JUMPI PUSH2 0x2C9 PUSH2 0xB92 JUMP JUMPDEST JUMPDEST MUL OR SWAP1 SSTORE POP TIMESTAMP PUSH1 0x9 DUP2 SWAP1 SSTORE POP PUSH0 PUSH1 0xA DUP2 SWAP1 SSTORE POP DUP1 PUSH1 0xB DUP2 SWAP1 SSTORE POP PUSH0 PUSH1 0xC DUP2 SWAP1 SSTORE POP PUSH0 PUSH1 0xD DUP2 SWAP1 SSTORE POP PUSH0 PUSH1 0xE PUSH0 PUSH2 0x100 EXP DUP2 SLOAD DUP2 PUSH1 0xFF MUL NOT AND SWAP1 DUP4 ISZERO ISZERO MUL OR SWAP1 SSTORE POP PUSH0 PUSH1 0xF DUP2 SWAP1 SSTORE POP TIMESTAMP PUSH1 0x11 DUP2 SWAP1 SSTORE POP PUSH4 0x1E13380 TIMESTAMP PUSH2 0x329 SWAP2 SWAP1 PUSH2 0xBEC JUMP JUMPDEST PUSH1 0x10 DUP2 SWAP1 SSTORE POP PUSH1 0x2 PUSH0 SWAP1 SLOAD SWAP1 PUSH2 0x100 EXP SWAP1 DIV PUSH20 0xFFFFFFFFFFFFFFFFFFFFFFFFFFFFFFFFFFFFFFFF AND PUSH20 0xFFFFFFFFFFFFFFFFFFFFFFFFFFFFFFFFFFFFFFFF AND PUSH1 0x1 PUSH0 SWAP1 SLOAD SWAP1 PUSH2 0x100 EXP SWAP1 DIV PUSH20 0xFFFFFFFFFFFFFFFFFFFFFFFFFFFFFFFFFFFFFFFF AND PUSH20 0xFFFFFFFFFFFFFFFFFFFFFFFFFFFFFFFFFFFFFFFF AND PUSH32 0x4F1197914A173D10D32A79E20A053170D7DAFB93E77CC4F686CE07CDFA0C20FD PUSH1 0x5 PUSH1 0x40 MLOAD PUSH2 0x3CF SWAP2 SWAP1 PUSH2 0xCA0 JUMP JUMPDEST PUSH1 0x40 MLOAD DUP1 SWAP2 SUB SWAP1 LOG3 POP POP POP POP POP POP POP POP PUSH2 0xCC0 JUMP JUMPDEST PUSH0 PUSH1 0x40 MLOAD SWAP1 POP SWAP1 JUMP JUMPDEST PUSH0 PUSH0 REVERT JUMPDEST PUSH0 PUSH0 REVERT JUMPDEST PUSH0 PUSH20 0xFFFFFFFFFFFFFFFFFFFFFFFFFFFFFFFFFFFFFFFF DUP3 AND SWAP1 POP SWAP2 SWAP1 POP JUMP JUMPDEST PUSH0 PUSH2 0x41E DUP3 PUSH2 0x3F5 JUMP JUMPDEST SWAP1 POP SWAP2 SWAP1 POP JUMP JUMPDEST PUSH2 0x42E DUP2 PUSH2 0x414 JUMP JUMPDEST DUP2 EQ PUSH2 0x438 JUMPI PUSH0 PUSH0 REVERT JUMPDEST POP JUMP JUMPDEST PUSH0 DUP2 MLOAD SWAP1 POP PUSH2 0x449 DUP2 PUSH2 0x425 JUMP JUMPDEST SWAP3 SWAP2 POP POP JUMP JUMPDEST PUSH0 DUP2 SWAP1 POP SWAP2 SWAP1 POP JUMP JUMPDEST PUSH2 0x461 DUP2 PUSH2 0x44F JUMP JUMPDEST DUP2 EQ PUSH2 0x46B JUMPI PUSH0 PUSH0 REVERT JUMPDEST POP JUMP JUMPDEST PUSH0 DUP2 MLOAD SWAP1 POP PUSH2 0x47C DUP2 PUSH2 0x458 JUMP JUMPDEST SWAP3 SWAP2 POP POP JUMP JUMPDEST PUSH0 PUSH0 REVERT JUMPDEST PUSH0 PUSH0 REVERT JUMPDEST PUSH0 PUSH1 0x1F NOT PUSH1 0x1F DUP4 ADD AND SWAP1 POP SWAP2 SWAP1 POP JUMP JUMPDEST PUSH32 0x4E487B7100000000000000000000000000000000000000000000000000000000 PUSH0 MSTORE PUSH1 0x41 PUSH1 0x4 MSTORE PUSH1 0x24 PUSH0 REVERT JUMPDEST PUSH2 0x4D0 DUP3 PUSH2 0x48A JUMP JUMPDEST DUP2 ADD DUP2 DUP2 LT PUSH8 0xFFFFFFFFFFFFFFFF DUP3 GT OR ISZERO PUSH2 0x4EF JUMPI PUSH2 0x4EE PUSH2 0x49A JUMP JUMPDEST JUMPDEST DUP1 PUSH1 0x40 MSTORE POP POP POP JUMP JUMPDEST PUSH0 PUSH2 0x501 PUSH2 0x3E4 JUMP JUMPDEST SWAP1 POP PUSH2 0x50D DUP3 DUP3 PUSH2 0x4C7 JUMP JUMPDEST SWAP2 SWAP1 POP JUMP JUMPDEST PUSH0 PUSH8 0xFFFFFFFFFFFFFFFF DUP3 GT ISZERO PUSH2 0x52C JUMPI PUSH2 0x52B PUSH2 0x49A JUMP JUMPDEST JUMPDEST PUSH2 0x535 DUP3 PUSH2 0x48A JUMP JUMPDEST SWAP1 POP PUSH1 0x20 DUP2 ADD SWAP1 POP SWAP2 SWAP1 POP JUMP JUMPDEST DUP3 DUP2 DUP4 MCOPY PUSH0 DUP4 DUP4 ADD MSTORE POP POP POP JUMP JUMPDEST PUSH0 PUSH2 0x562 PUSH2 0x55D DUP5 PUSH2 0x512 JUMP JUMPDEST PUSH2 0x4F8 JUMP JUMPDEST SWAP1 POP DUP3 DUP2 MSTORE PUSH1 0x20 DUP2 ADD DUP5 DUP5 DUP5 ADD GT ISZERO PUSH2 0x57E JUMPI PUSH2 0x57D PUSH2 0x486 JUMP JUMPDEST JUMPDEST PUSH2 0x589 DUP5 DUP3 DUP6 PUSH2 0x542 JUMP JUMPDEST POP SWAP4 SWAP3 POP POP POP JUMP JUMPDEST PUSH0 DUP3 PUSH1 0x1F DUP4 ADD SLT PUSH2 0x5A5 JUMPI PUSH2 0x5A4 PUSH2 0x482 JUMP JUMPDEST JUMPDEST DUP2 MLOAD PUSH2 0x5B5 DUP5 DUP3 PUSH1 0x20 DUP7 ADD PUSH2 0x550 JUMP JUMPDEST SWAP2 POP POP SWAP3 SWAP2 POP POP JUMP JUMPDEST PUSH0 DUP2 ISZERO ISZERO SWAP1 POP SWAP2 SWAP1 POP JUMP JUMPDEST PUSH2 0x5D2 DUP2 PUSH2 0x5BE JUMP JUMPDEST DUP2 EQ PUSH2 0x5DC JUMPI PUSH0 PUSH0 REVERT JUMPDEST POP JUMP JUMPDEST PUSH0 DUP2 MLOAD SWAP1 POP PUSH2 0x5ED DUP2 PUSH2 0x5C9 JUMP JUMPDEST SWAP3 SWAP2 POP POP JUMP JUMPDEST PUSH0 PUSH0 PUSH0 PUSH0 PUSH0 PUSH0 PUSH0 PUSH0 PUSH2 0x100 DUP10 DUP12 SUB SLT ISZERO PUSH2 0x610 JUMPI PUSH2 0x60F PUSH2 0x3ED JUMP JUMPDEST JUMPDEST PUSH0 PUSH2 0x61D DUP12 DUP3 DUP13 ADD PUSH2 0x43B JUMP JUMPDEST SWAP9 POP POP PUSH1 0x20 PUSH2 0x62E DUP12 DUP3 DUP13 ADD PUSH2 0x46E JUMP JUMPDEST SWAP8 POP POP PUSH1 0x40 PUSH2 0x63F DUP12 DUP3 DUP13 ADD PUSH2 0x46E JUMP JUMPDEST SWAP7 POP POP PUSH1 0x60 DUP10 ADD MLOAD PUSH8 0xFFFFFFFFFFFFFFFF DUP2 GT ISZERO PUSH2 0x660 JUMPI PUSH2 0x65F PUSH2 0x3F1 JUMP JUMPDEST JUMPDEST PUSH2 0x66C DUP12 DUP3 DUP13 ADD PUSH2 0x591 JUMP JUMPDEST SWAP6 POP POP PUSH1 0x80 PUSH2 0x67D DUP12 DUP3 DUP13 ADD PUSH2 0x5DF JUMP JUMPDEST SWAP5 POP POP PUSH1 0xA0 PUSH2 0x68E DUP12 DUP3 DUP13 ADD PUSH2 0x43B JUMP JUMPDEST SWAP4 POP POP PUSH1 0xC0 PUSH2 0x69F DUP12 DUP3 DUP13 ADD PUSH2 0x43B JUMP JUMPDEST SWAP3 POP POP PUSH1 0xE0 PUSH2 0x6B0 DUP12 DUP3 DUP13 ADD PUSH2 0x46E JUMP JUMPDEST SWAP2 POP POP SWAP3 SWAP6 SWAP9 POP SWAP3 SWAP6 SWAP9 SWAP1 SWAP4 SWAP7 POP JUMP JUMPDEST PUSH0 DUP3 DUP3 MSTORE PUSH1 0x20 DUP3 ADD SWAP1 POP SWAP3 SWAP2 POP POP JUMP JUMPDEST PUSH32 0x496E76616C69642074656E616E74206164647265737300000000000000000000 PUSH0 DUP3 ADD MSTORE POP JUMP JUMPDEST PUSH0 PUSH2 0x704 PUSH1 0x16 DUP4 PUSH2 0x6C0 JUMP JUMPDEST SWAP2 POP PUSH2 0x70F DUP3 PUSH2 0x6D0 JUMP JUMPDEST PUSH1 0x20 DUP3 ADD SWAP1 POP SWAP2 SWAP1 POP JUMP JUMPDEST PUSH0 PUSH1 0x20 DUP3 ADD SWAP1 POP DUP2 DUP2 SUB PUSH0 DUP4 ADD MSTORE PUSH2 0x731 DUP2 PUSH2 0x6F8 JUMP JUMPDEST SWAP1 POP SWAP2 SWAP1 POP JUMP JUMPDEST PUSH32 0x52656E7420616D6F756E74206D7573742062652067726561746572207468616E PUSH0 DUP3 ADD MSTORE PUSH32 0x2030000000000000000000000000000000000000000000000000000000000000 PUSH1 0x20 DUP3 ADD MSTORE POP JUMP JUMPDEST PUSH0 PUSH2 0x792 PUSH1 0x22 DUP4 PUSH2 0x6C0 JUMP JUMPDEST SWAP2 POP PUSH2 0x79D DUP3 PUSH2 0x738 JUMP JUMPDEST PUSH1 0x40 DUP3 ADD SWAP1 POP SWAP2 SWAP1 POP JUMP JUMPDEST PUSH0 PUSH1 0x20 DUP3 ADD SWAP1 POP DUP2 DUP2 SUB PUSH0 DUP4 ADD MSTORE PUSH2 0x7BF DUP2 PUSH2 0x786 JUMP JUMPDEST SWAP1 POP SWAP2 SWAP1 POP JUMP JUMPDEST PUSH32 0x4465706F73697420616D6F756E74206D757374206265206E6F6E2D6E65676174 PUSH0 DUP3 ADD MSTORE PUSH32 0x6976650000000000000000000000000000000000000000000000000000000000 PUSH1 0x20 DUP3 ADD MSTORE POP JUMP JUMPDEST PUSH0 PUSH2 0x820 PUSH1 0x23 DUP4 PUSH2 0x6C0 JUMP JUMPDEST SWAP2 POP PUSH2 0x82B DUP3 PUSH2 0x7C6 JUMP JUMPDEST PUSH1 0x40 DUP3 ADD SWAP1 POP SWAP2 SWAP1 POP JUMP JUMPDEST PUSH0 PUSH1 0x20 DUP3 ADD SWAP1 POP DUP2 DUP2 SUB PUSH0 DUP4 ADD MSTORE PUSH2 0x84D DUP2 PUSH2 0x814 JUMP JUMPDEST SWAP1 POP SWAP2 SWAP1 POP JUMP JUMPDEST PUSH32 0x495046532068617368206D757374206265207365740000000000000000000000 PUSH0 DUP3 ADD MSTORE POP JUMP JUMPDEST PUSH0 PUSH2 0x888 PUSH1 0x15 DUP4 PUSH2 0x6C0 JUMP JUMPDEST SWAP2 POP PUSH2 0x893 DUP3 PUSH2 0x854 JUMP JUMPDEST PUSH1 0x20 DUP3 ADD SWAP1 POP SWAP2 SWAP1 POP JUMP JUMPDEST PUSH0 PUSH1 0x20 DUP3 ADD SWAP1 POP DUP2 DUP2 SUB PUSH0 DUP4 ADD MSTORE PUSH2 0x8B5 DUP2 PUSH2 0x87C JUMP JUMPDEST SWAP1 POP SWAP2 SWAP1 POP JUMP JUMPDEST PUSH0 DUP2 MLOAD SWAP1 POP SWAP2 SWAP1 POP JUMP JUMPDEST PUSH32 0x4E487B7100000000000000000000000000000000000000000000000000000000 PUSH0 MSTORE PUSH1 0x22 PUSH1 0x4 MSTORE PUSH1 0x24 PUSH0 REVERT JUMPDEST PUSH0 PUSH1 0x2 DUP3 DIV SWAP1 POP PUSH1 0x1 DUP3 AND DUP1 PUSH2 0x90A JUMPI PUSH1 0x7F DUP3 AND SWAP2 POP JUMPDEST PUSH1 0x20 DUP3 LT DUP2 SUB PUSH2 0x91D JUMPI PUSH2 0x91C PUSH2 0x8C6 JUMP JUMPDEST JUMPDEST POP SWAP2 SWAP1 POP JUMP JUMPDEST PUSH0 DUP2 SWAP1 POP DUP2 PUSH0 MSTORE PUSH1 0x20 PUSH0 KECCAK256 SWAP1 POP SWAP2 SWAP1 POP JUMP JUMPDEST PUSH0 PUSH1 0x20 PUSH1 0x1F DUP4 ADD DIV SWAP1 POP SWAP2 SWAP1 POP JUMP JUMPDEST PUSH0 DUP3 DUP3 SHL SWAP1 POP SWAP3 SWAP2 POP POP JUMP JUMPDEST PUSH0 PUSH1 0x8 DUP4 MUL PUSH2 0x97F PUSH32 0xFFFFFFFFFFFFFFFFFFFFFFFFFFFFFFFFFFFFFFFFFFFFFFFFFFFFFFFFFFFFFFFF DUP3 PUSH2 0x944 JUMP JUMPDEST PUSH2 0x989 DUP7 DUP4 PUSH2 0x944 JUMP JUMPDEST SWAP6 POP DUP1 NOT DUP5 AND SWAP4 POP DUP1 DUP7 AND DUP5 OR SWAP3 POP POP POP SWAP4 SWAP3 POP POP POP JUMP JUMPDEST PUSH0 DUP2 SWAP1 POP SWAP2 SWAP1 POP JUMP JUMPDEST PUSH0 PUSH2 0x9C4 PUSH2 0x9BF PUSH2 0x9BA DUP5 PUSH2 0x44F JUMP JUMPDEST PUSH2 0x9A1 JUMP JUMPDEST PUSH2 0x44F JUMP JUMPDEST SWAP1 POP SWAP2 SWAP1 POP JUMP JUMPDEST PUSH0 DUP2 SWAP1 POP SWAP2 SWAP1 POP JUMP JUMPDEST PUSH2 0x9DD DUP4 PUSH2 0x9AA JUMP JUMPDEST PUSH2 0x9F1 PUSH2 0x9E9 DUP3 PUSH2 0x9CB JUMP JUMPDEST DUP5 DUP5 SLOAD PUSH2 0x950 JUMP JUMPDEST DUP3 SSTORE POP POP POP POP JUMP JUMPDEST PUSH0 PUSH0 SWAP1 POP SWAP1 JUMP JUMPDEST PUSH2 0xA08 PUSH2 0x9F9 JUMP JUMPDEST PUSH2 0xA13 DUP2 DUP5 DUP5 PUSH2 0x9D4 JUMP JUMPDEST POP POP POP JUMP JUMPDEST JUMPDEST DUP2 DUP2 LT ISZERO PUSH2 0xA36 JUMPI PUSH2 0xA2B PUSH0 DUP3 PUSH2 0xA00 JUMP JUMPDEST PUSH1 0x1 DUP2 ADD SWAP1 POP PUSH2 0xA19 JUMP JUMPDEST POP POP JUMP JUMPDEST PUSH1 0x1F DUP3 GT ISZERO PUSH2 0xA7B JUMPI PUSH2 0xA4C DUP2 PUSH2 0x923 JUMP JUMPDEST PUSH2 0xA55 DUP5 PUSH2 0x935 JUMP JUMPDEST DUP2 ADD PUSH1 0x20 DUP6 LT ISZERO PUSH2 0xA64 JUMPI DUP2 SWAP1 POP JUMPDEST PUSH2 0xA78 PUSH2 0xA70 DUP6 PUSH2 0x935 JUMP JUMPDEST DUP4 ADD DUP3 PUSH2 0xA18 JUMP JUMPDEST POP POP JUMPDEST POP POP POP JUMP JUMPDEST PUSH0 DUP3 DUP3 SHR SWAP1 POP SWAP3 SWAP2 POP POP JUMP JUMPDEST PUSH0 PUSH2 0xA9B PUSH0 NOT DUP5 PUSH1 0x8 MUL PUSH2 0xA80 JUMP JUMPDEST NOT DUP1 DUP4 AND SWAP2 POP POP SWAP3 SWAP2 POP POP JUMP JUMPDEST PUSH0 PUSH2 0xAB3 DUP4 DUP4 PUSH2 0xA8C JUMP JUMPDEST SWAP2 POP DUP3 PUSH1 0x2 MUL DUP3 OR SWAP1 POP SWAP3 SWAP2 POP POP JUMP JUMPDEST PUSH2 0xACC DUP3 PUSH2 0x8BC JUMP JUMPDEST PUSH8 0xFFFFFFFFFFFFFFFF DUP2 GT ISZERO PUSH2 0xAE5 JUMPI PUSH2 0xAE4 PUSH2 0x49A JUMP JUMPDEST JUMPDEST PUSH2 0xAEF DUP3 SLOAD PUSH2 0x8F3 JUMP JUMPDEST PUSH2 0xAFA DUP3 DUP3 DUP6 PUSH2 0xA3A JUMP JUMPDEST PUSH0 PUSH1 0x20 SWAP1 POP PUSH1 0x1F DUP4 GT PUSH1 0x1 DUP2 EQ PUSH2 0xB2B JUMPI PUSH0 DUP5 ISZERO PUSH2 0xB19 JUMPI DUP3 DUP8 ADD MLOAD SWAP1 POP JUMPDEST PUSH2 0xB23 DUP6 DUP3 PUSH2 0xAA8 JUMP JUMPDEST DUP7 SSTORE POP PUSH2 0xB8A JUMP JUMPDEST PUSH1 0x1F NOT DUP5 AND PUSH2 0xB39 DUP7 PUSH2 0x923 JUMP JUMPDEST PUSH0 JUMPDEST DUP3 DUP2 LT ISZERO PUSH2 0xB60 JUMPI DUP5 DUP10 ADD MLOAD DUP3 SSTORE PUSH1 0x1 DUP3 ADD SWAP2 POP PUSH1 0x20 DUP6 ADD SWAP5 POP PUSH1 0x20 DUP2 ADD SWAP1 POP PUSH2 0xB3B JUMP JUMPDEST DUP7 DUP4 LT ISZERO PUSH2 0xB7D JUMPI DUP5 DUP10 ADD MLOAD PUSH2 0xB79 PUSH1 0x1F DUP10 AND DUP3 PUSH2 0xA8C JUMP JUMPDEST DUP4 SSTORE POP JUMPDEST PUSH1 0x1 PUSH1 0x2 DUP9 MUL ADD DUP9 SSTORE POP POP POP JUMPDEST POP POP POP POP POP POP JUMP JUMPDEST PUSH32 0x4E487B7100000000000000000000000000000000000000000000000000000000 PUSH0 MSTORE PUSH1 0x21 PUSH1 0x4 MSTORE PUSH1 0x24 PUSH0 REVERT JUMPDEST PUSH32 0x4E487B7100000000000000000000000000000000000000000000000000000000 PUSH0 MSTORE PUSH1 0x11 PUSH1 0x4 MSTORE PUSH1 0x24 PUSH0 REVERT JUMPDEST PUSH0 PUSH2 0xBF6 DUP3 PUSH2 0x44F JUMP JUMPDEST SWAP2 POP PUSH2 0xC01 DUP4 PUSH2 0x44F JUMP JUMPDEST SWAP3 POP DUP3 DUP3 ADD SWAP1 POP DUP1 DUP3 GT ISZERO PUSH2 0xC19 JUMPI PUSH2 0xC18 PUSH2 0xBBF JUMP JUMPDEST JUMPDEST SWAP3 SWAP2 POP POP JUMP JUMPDEST PUSH0 DUP2 SLOAD PUSH2 0xC2B DUP2 PUSH2 0x8F3 JUMP JUMPDEST PUSH2 0xC35 DUP2 DUP7 PUSH2 0x6C0 JUMP JUMPDEST SWAP5 POP PUSH1 0x1 DUP3 AND PUSH0 DUP2 EQ PUSH2 0xC4F JUMPI PUSH1 0x1 DUP2 EQ PUSH2 0xC65 JUMPI PUSH2 0xC97 JUMP JUMPDEST PUSH1 0xFF NOT DUP4 AND DUP7 MSTORE DUP2 ISZERO ISZERO PUSH1 0x20 MUL DUP7 ADD SWAP4 POP PUSH2 0xC97 JUMP JUMPDEST PUSH2 0xC6E DUP6 PUSH2 0x923 JUMP JUMPDEST PUSH0 JUMPDEST DUP4 DUP2 LT ISZERO PUSH2 0xC8F JUMPI DUP2 SLOAD DUP2 DUP10 ADD MSTORE PUSH1 0x1 DUP3 ADD SWAP2 POP PUSH1 0x20 DUP2 ADD SWAP1 POP PUSH2 0xC70 JUMP JUMPDEST DUP1 DUP9 ADD SWAP6 POP POP POP JUMPDEST POP POP POP SWAP3 SWAP2 POP POP JUMP JUMPDEST PUSH0 PUSH1 0x20 DUP3 ADD SWAP1 POP DUP2 DUP2 SUB PUSH0 DUP4 ADD MSTORE PUSH2 0xCB8 DUP2 DUP5 PUSH2 0xC1F JUMP JUMPDEST SWAP1 POP SWAP3 SWAP2 POP POP JUMP JUMPDEST PUSH2 0x53F7 DUP1 PUSH2 0xCCD PUSH0 CODECOPY PUSH0 RETURN INVALID PUSH1 0x80 PUSH1 0x40 MSTORE PUSH1 0x4 CALLDATASIZE LT PUSH2 0x2C8 JUMPI PUSH0 CALLDATALOAD PUSH1 0xE0 SHR DUP1 PUSH4 0x7F91DF9C GT PUSH2 0x174 JUMPI DUP1 PUSH4 0xD077FB10 GT PUSH2 0xDB JUMPI DUP1 PUSH4 0xDD66857F GT PUSH2 0x94 JUMPI DUP1 PUSH4 0xF24BB69B GT PUSH2 0x6E JUMPI DUP1 PUSH4 0xF24BB69B EQ PUSH2 0x90E JUMPI DUP1 PUSH4 0xF84A0F2D EQ PUSH2 0x938 JUMPI DUP1 PUSH4 0xF8EF1E13 EQ PUSH2 0x94E JUMPI DUP1 PUSH4 0xF8FD0501 EQ PUSH2 0x978 JUMPI PUSH2 0x2C8 JUMP JUMPDEST DUP1 PUSH4 0xDD66857F EQ PUSH2 0x8B8 JUMPI DUP1 PUSH4 0xE36A03E0 EQ PUSH2 0x8CE JUMPI DUP1 PUSH4 0xEA9E7F6A EQ PUSH2 0x8E4 JUMPI PUSH2 0x2C8 JUMP JUMPDEST DUP1 PUSH4 0xD077FB10 EQ PUSH2 0x7E4 JUMPI DUP1 PUSH4 0xD39763C8 EQ PUSH2 0x80E JUMPI DUP1 PUSH4 0xD426E155 EQ PUSH2 0x838 JUMPI DUP1 PUSH4 0xD6E82DCA EQ PUSH2 0x84E JUMPI DUP1 PUSH4 0xD9EF0459 EQ PUSH2 0x864 JUMPI DUP1 PUSH4 0xDC1997EA EQ PUSH2 0x88E JUMPI PUSH2 0x2C8 JUMP JUMPDEST DUP1 PUSH4 0xA709C4FE GT PUSH2 0x12D JUMPI DUP1 PUSH4 0xA709C4FE EQ PUSH2 0x730 JUMPI DUP1 PUSH4 0xAA018005 EQ PUSH2 0x73A JUMPI DUP1 PUSH4 0xADF07791 EQ PUSH2 0x750 JUMPI DUP1 PUSH4 0xB651BB61 EQ PUSH2 0x77A JUMPI DUP1 PUSH4 0xC3EFC734 EQ PUSH2 0x7A4 JUMPI DUP1 PUSH4 0xC418C525 EQ PUSH2 0x7CE JUMPI PUSH2 0x2C8 JUMP JUMPDEST DUP1 PUSH4 0x7F91DF9C EQ PUSH2 0x64A JUMPI DUP1 PUSH4 0x8E15F473 EQ PUSH2 0x674 JUMPI DUP1 PUSH4 0x8E7F727F EQ PUSH2 0x69E JUMPI DUP1 PUSH4 0x9378B8C1 EQ PUSH2 0x6C6 JUMPI DUP1 PUSH4 0x9F1F9082 EQ PUSH2 0x6DC JUMPI DUP1 PUSH4 0xA5E047B8 EQ PUSH2 0x6F2 JUMPI PUSH2 0x2C8 JUMP JUMPDEST DUP1 PUSH4 0x36EC98EF GT PUSH2 0x233 JUMPI DUP1 PUSH4 0x5C274B86 GT PUSH2 0x1EC JUMPI DUP1 PUSH4 0x775E9FCE GT PUSH2 0x1C6 JUMPI DUP1 PUSH4 0x775E9FCE EQ PUSH2 0x5B6 JUMPI DUP1 PUSH4 0x7E076249 EQ PUSH2 0x5E0 JUMPI DUP1 PUSH4 0x7E88F603 EQ PUSH2 0x60A JUMPI DUP1 PUSH4 0x7EC3110C EQ PUSH2 0x620 JUMPI PUSH2 0x2C8 JUMP JUMPDEST DUP1 PUSH4 0x5C274B86 EQ PUSH2 0x56C JUMPI DUP1 PUSH4 0x61BC1A49 EQ PUSH2 0x576 JUMPI DUP1 PUSH4 0x6845071D EQ PUSH2 0x5A0 JUMPI PUSH2 0x2C8 JUMP JUMPDEST DUP1 PUSH4 0x36EC98EF EQ PUSH2 0x484 JUMPI DUP1 PUSH4 0x3E3BD90E EQ PUSH2 0x4AE JUMPI DUP1 PUSH4 0x419759F5 EQ PUSH2 0x4D8 JUMPI DUP1 PUSH4 0x4D5DCA5A EQ PUSH2 0x502 JUMPI DUP1 PUSH4 0x5561AE62 EQ PUSH2 0x518 JUMPI DUP1 PUSH4 0x587419D5 EQ PUSH2 0x542 JUMPI PUSH2 0x2C8 JUMP JUMPDEST DUP1 PUSH4 0x1F85316C GT PUSH2 0x285 JUMPI DUP1 PUSH4 0x1F85316C EQ PUSH2 0x3B0 JUMPI DUP1 PUSH4 0x2DFEFCCA EQ PUSH2 0x3DA JUMPI DUP1 PUSH4 0x3070C38B EQ PUSH2 0x3F0 JUMPI DUP1 PUSH4 0x31D019B7 EQ PUSH2 0x406 JUMPI DUP1 PUSH4 0x33FC1183 EQ PUSH2 0x430 JUMPI DUP1 PUSH4 0x34CBFDFE EQ PUSH2 0x45A JUMPI PUSH2 0x2C8 JUMP JUMPDEST DUP1 PUSH4 0x3C77FA4 EQ PUSH2 0x2CC JUMPI DUP1 PUSH4 0x752DB7A EQ PUSH2 0x2F4 JUMPI DUP1 PUSH4 0xABB1D7F EQ PUSH2 0x30A JUMPI DUP1 PUSH4 0x140F26BF EQ PUSH2 0x320 JUMPI DUP1 PUSH4 0x18BB32F5 EQ PUSH2 0x34A JUMPI DUP1 PUSH4 0x1CA43EDD EQ PUSH2 0x374 JUMPI JUMPDEST PUSH0 PUSH0 REVERT JUMPDEST CALLVALUE DUP1 ISZERO PUSH2 0x2D7 JUMPI PUSH0 PUSH0 REVERT JUMPDEST POP PUSH2 0x2F2 PUSH1 0x4 DUP1 CALLDATASIZE SUB DUP2 ADD SWAP1 PUSH2 0x2ED SWAP2 SWAP1 PUSH2 0x3BA8 JUMP JUMPDEST PUSH2 0x98E JUMP JUMPDEST STOP JUMPDEST CALLVALUE DUP1 ISZERO PUSH2 0x2FF JUMPI PUSH0 PUSH0 REVERT JUMPDEST POP PUSH2 0x308 PUSH2 0xAB9 JUMP JUMPDEST STOP JUMPDEST CALLVALUE DUP1 ISZERO PUSH2 0x315 JUMPI PUSH0 PUSH0 REVERT JUMPDEST POP PUSH2 0x31E PUSH2 0xC02 JUMP JUMPDEST STOP JUMPDEST CALLVALUE DUP1 ISZERO PUSH2 0x32B JUMPI PUSH0 PUSH0 REVERT JUMPDEST POP PUSH2 0x334 PUSH2 0xD77 JUMP JUMPDEST PUSH1 0x40 MLOAD PUSH2 0x341 SWAP2 SWAP1 PUSH2 0x3C4F JUMP JUMPDEST PUSH1 0x40 MLOAD DUP1 SWAP2 SUB SWAP1 RETURN JUMPDEST CALLVALUE DUP1 ISZERO PUSH2 0x355 JUMPI PUSH0 PUSH0 REVERT JUMPDEST POP PUSH2 0x35E PUSH2 0xE03 JUMP JUMPDEST PUSH1 0x40 MLOAD PUSH2 0x36B SWAP2 SWAP1 PUSH2 0x3C89 JUMP JUMPDEST PUSH1 0x40 MLOAD DUP1 SWAP2 SUB SWAP1 RETURN JUMPDEST CALLVALUE DUP1 ISZERO PUSH2 0x37F JUMPI PUSH0 PUSH0 REVERT JUMPDEST POP PUSH2 0x39A PUSH1 0x4 DUP1 CALLDATASIZE SUB DUP2 ADD SWAP1 PUSH2 0x395 SWAP2 SWAP1 PUSH2 0x3CFC JUMP JUMPDEST PUSH2 0xE15 JUMP JUMPDEST PUSH1 0x40 MLOAD PUSH2 0x3A7 SWAP2 SWAP1 PUSH2 0x3C89 JUMP JUMPDEST PUSH1 0x40 MLOAD DUP1 SWAP2 SUB SWAP1 RETURN JUMPDEST CALLVALUE DUP1 ISZERO PUSH2 0x3BB JUMPI PUSH0 PUSH0 REVERT JUMPDEST POP PUSH2 0x3C4 PUSH2 0xE32 JUMP JUMPDEST PUSH1 0x40 MLOAD PUSH2 0x3D1 SWAP2 SWAP1 PUSH2 0x3C89 JUMP JUMPDEST PUSH1 0x40 MLOAD DUP1 SWAP2 SUB SWAP1 RETURN JUMPDEST CALLVALUE DUP1 ISZERO PUSH2 0x3E5 JUMPI PUSH0 PUSH0 REVERT JUMPDEST POP PUSH2 0x3EE PUSH2 0xE44 JUMP JUMPDEST STOP JUMPDEST CALLVALUE DUP1 ISZERO PUSH2 0x3FB JUMPI PUSH0 PUSH0 REVERT JUMPDEST POP PUSH2 0x404 PUSH2 0xF63 JUMP JUMPDEST STOP JUMPDEST CALLVALUE DUP1 ISZERO PUSH2 0x411 JUMPI PUSH0 PUSH0 REVERT JUMPDEST POP PUSH2 0x41A PUSH2 0x1085 JUMP JUMPDEST PUSH1 0x40 MLOAD PUSH2 0x427 SWAP2 SWAP1 PUSH2 0x3D9A JUMP JUMPDEST PUSH1 0x40 MLOAD DUP1 SWAP2 SUB SWAP1 RETURN JUMPDEST CALLVALUE DUP1 ISZERO PUSH2 0x43B JUMPI PUSH0 PUSH0 REVERT JUMPDEST POP PUSH2 0x444 PUSH2 0x1097 JUMP JUMPDEST PUSH1 0x40 MLOAD PUSH2 0x451 SWAP2 SWAP1 PUSH2 0x3C89 JUMP JUMPDEST PUSH1 0x40 MLOAD DUP1 SWAP2 SUB SWAP1 RETURN JUMPDEST CALLVALUE DUP1 ISZERO PUSH2 0x465 JUMPI PUSH0 PUSH0 REVERT JUMPDEST POP PUSH2 0x46E PUSH2 0x10AA JUMP JUMPDEST PUSH1 0x40 MLOAD PUSH2 0x47B SWAP2 SWAP1 PUSH2 0x3DCB JUMP JUMPDEST PUSH1 0x40 MLOAD DUP1 SWAP2 SUB SWAP1 RETURN JUMPDEST CALLVALUE DUP1 ISZERO PUSH2 0x48F JUMPI PUSH0 PUSH0 REVERT JUMPDEST POP PUSH2 0x498 PUSH2 0x10B0 JUMP JUMPDEST PUSH1 0x40 MLOAD PUSH2 0x4A5 SWAP2 SWAP1 PUSH2 0x3DCB JUMP JUMPDEST PUSH1 0x40 MLOAD DUP1 SWAP2 SUB SWAP1 RETURN JUMPDEST CALLVALUE DUP1 ISZERO PUSH2 0x4B9 JUMPI PUSH0 PUSH0 REVERT JUMPDEST POP PUSH2 0x4C2 PUSH2 0x111E JUMP JUMPDEST PUSH1 0x40 MLOAD PUSH2 0x4CF SWAP2 SWAP1 PUSH2 0x3DCB JUMP JUMPDEST PUSH1 0x40 MLOAD DUP1 SWAP2 SUB SWAP1 RETURN JUMPDEST CALLVALUE DUP1 ISZERO PUSH2 0x4E3 JUMPI PUSH0 PUSH0 REVERT JUMPDEST POP PUSH2 0x4EC PUSH2 0x1124 JUMP JUMPDEST PUSH1 0x40 MLOAD PUSH2 0x4F9 SWAP2 SWAP1 PUSH2 0x3DCB JUMP JUMPDEST PUSH1 0x40 MLOAD DUP1 SWAP2 SUB SWAP1 RETURN JUMPDEST CALLVALUE DUP1 ISZERO PUSH2 0x50D JUMPI PUSH0 PUSH0 REVERT JUMPDEST POP PUSH2 0x516 PUSH2 0x112A JUMP JUMPDEST STOP JUMPDEST CALLVALUE DUP1 ISZERO PUSH2 0x523 JUMPI PUSH0 PUSH0 REVERT JUMPDEST POP PUSH2 0x52C PUSH2 0x12AA JUMP JUMPDEST PUSH1 0x40 MLOAD PUSH2 0x539 SWAP2 SWAP1 PUSH2 0x3DCB JUMP JUMPDEST PUSH1 0x40 MLOAD DUP1 SWAP2 SUB SWAP1 RETURN JUMPDEST CALLVALUE DUP1 ISZERO PUSH2 0x54D JUMPI PUSH0 PUSH0 REVERT JUMPDEST POP PUSH2 0x556 PUSH2 0x12B0 JUMP JUMPDEST PUSH1 0x40 MLOAD PUSH2 0x563 SWAP2 SWAP1 PUSH2 0x3DCB JUMP JUMPDEST PUSH1 0x40 MLOAD DUP1 SWAP2 SUB SWAP1 RETURN JUMPDEST PUSH2 0x574 PUSH2 0x12B6 JUMP JUMPDEST STOP JUMPDEST CALLVALUE DUP1 ISZERO PUSH2 0x581 JUMPI PUSH0 PUSH0 REVERT JUMPDEST POP PUSH2 0x58A PUSH2 0x16CA JUMP JUMPDEST PUSH1 0x40 MLOAD PUSH2 0x597 SWAP2 SWAP1 PUSH2 0x3DCB JUMP JUMPDEST PUSH1 0x40 MLOAD DUP1 SWAP2 SUB SWAP1 RETURN JUMPDEST CALLVALUE DUP1 ISZERO PUSH2 0x5AB JUMPI PUSH0 PUSH0 REVERT JUMPDEST POP PUSH2 0x5B4 PUSH2 0x16D0 JUMP JUMPDEST STOP JUMPDEST CALLVALUE DUP1 ISZERO PUSH2 0x5C1 JUMPI PUSH0 PUSH0 REVERT JUMPDEST POP PUSH2 0x5CA PUSH2 0x18A4 JUMP JUMPDEST PUSH1 0x40 MLOAD PUSH2 0x5D7 SWAP2 SWAP1 PUSH2 0x3DCB JUMP JUMPDEST PUSH1 0x40 MLOAD DUP1 SWAP2 SUB SWAP1 RETURN JUMPDEST CALLVALUE DUP1 ISZERO PUSH2 0x5EB JUMPI PUSH0 PUSH0 REVERT JUMPDEST POP PUSH2 0x5F4 PUSH2 0x18AA JUMP JUMPDEST PUSH1 0x40 MLOAD PUSH2 0x601 SWAP2 SWAP1 PUSH2 0x3C89 JUMP JUMPDEST PUSH1 0x40 MLOAD DUP1 SWAP2 SUB SWAP1 RETURN JUMPDEST CALLVALUE DUP1 ISZERO PUSH2 0x615 JUMPI PUSH0 PUSH0 REVERT JUMPDEST POP PUSH2 0x61E PUSH2 0x18BC JUMP JUMPDEST STOP JUMPDEST CALLVALUE DUP1 ISZERO PUSH2 0x62B JUMPI PUSH0 PUSH0 REVERT JUMPDEST POP PUSH2 0x634 PUSH2 0x1BAF JUMP JUMPDEST PUSH1 0x40 MLOAD PUSH2 0x641 SWAP2 SWAP1 PUSH2 0x3DCB JUMP JUMPDEST PUSH1 0x40 MLOAD DUP1 SWAP2 SUB SWAP1 RETURN JUMPDEST CALLVALUE DUP1 ISZERO PUSH2 0x655 JUMPI PUSH0 PUSH0 REVERT JUMPDEST POP PUSH2 0x65E PUSH2 0x1BB5 JUMP JUMPDEST PUSH1 0x40 MLOAD PUSH2 0x66B SWAP2 SWAP1 PUSH2 0x3DCB JUMP JUMPDEST PUSH1 0x40 MLOAD DUP1 SWAP2 SUB SWAP1 RETURN JUMPDEST CALLVALUE DUP1 ISZERO PUSH2 0x67F JUMPI PUSH0 PUSH0 REVERT JUMPDEST POP PUSH2 0x688 PUSH2 0x1C52 JUMP JUMPDEST PUSH1 0x40 MLOAD PUSH2 0x695 SWAP2 SWAP1 PUSH2 0x3DCB JUMP JUMPDEST PUSH1 0x40 MLOAD DUP1 SWAP2 SUB SWAP1 RETURN JUMPDEST CALLVALUE DUP1 ISZERO PUSH2 0x6A9 JUMPI PUSH0 PUSH0 REVERT JUMPDEST POP PUSH2 0x6C4 PUSH1 0x4 DUP1 CALLDATASIZE SUB DUP2 ADD SWAP1 PUSH2 0x6BF SWAP2 SWAP1 PUSH2 0x3E0E JUMP JUMPDEST PUSH2 0x1CFE JUMP JUMPDEST STOP JUMPDEST CALLVALUE DUP1 ISZERO PUSH2 0x6D1 JUMPI PUSH0 PUSH0 REVERT JUMPDEST POP PUSH2 0x6DA PUSH2 0x213D JUMP JUMPDEST STOP JUMPDEST CALLVALUE DUP1 ISZERO PUSH2 0x6E7 JUMPI PUSH0 PUSH0 REVERT JUMPDEST POP PUSH2 0x6F0 PUSH2 0x231F JUMP JUMPDEST STOP JUMPDEST CALLVALUE DUP1 ISZERO PUSH2 0x6FD JUMPI PUSH0 PUSH0 REVERT JUMPDEST POP PUSH2 0x718 PUSH1 0x4 DUP1 CALLDATASIZE SUB DUP2 ADD SWAP1 PUSH2 0x713 SWAP2 SWAP1 PUSH2 0x3E68 JUMP JUMPDEST PUSH2 0x2405 JUMP JUMPDEST PUSH1 0x40 MLOAD PUSH2 0x727 SWAP4 SWAP3 SWAP2 SWAP1 PUSH2 0x3E93 JUMP JUMPDEST PUSH1 0x40 MLOAD DUP1 SWAP2 SUB SWAP1 RETURN JUMPDEST PUSH2 0x738 PUSH2 0x2446 JUMP JUMPDEST STOP JUMPDEST CALLVALUE DUP1 ISZERO PUSH2 0x745 JUMPI PUSH0 PUSH0 REVERT JUMPDEST POP PUSH2 0x74E PUSH2 0x28CD JUMP JUMPDEST STOP JUMPDEST CALLVALUE DUP1 ISZERO PUSH2 0x75B JUMPI PUSH0 PUSH0 REVERT JUMPDEST POP PUSH2 0x764 PUSH2 0x29B2 JUMP JUMPDEST PUSH1 0x40 MLOAD PUSH2 0x771 SWAP2 SWAP1 PUSH2 0x3ED7 JUMP JUMPDEST PUSH1 0x40 MLOAD DUP1 SWAP2 SUB SWAP1 RETURN JUMPDEST CALLVALUE DUP1 ISZERO PUSH2 0x785 JUMPI PUSH0 PUSH0 REVERT JUMPDEST POP PUSH2 0x78E PUSH2 0x29D7 JUMP JUMPDEST PUSH1 0x40 MLOAD PUSH2 0x79B SWAP2 SWAP1 PUSH2 0x3FF6 JUMP JUMPDEST PUSH1 0x40 MLOAD DUP1 SWAP2 SUB SWAP1 RETURN JUMPDEST CALLVALUE DUP1 ISZERO PUSH2 0x7AF JUMPI PUSH0 PUSH0 REVERT JUMPDEST POP PUSH2 0x7B8 PUSH2 0x2A60 JUMP JUMPDEST PUSH1 0x40 MLOAD PUSH2 0x7C5 SWAP2 SWAP1 PUSH2 0x3C4F JUMP JUMPDEST PUSH1 0x40 MLOAD DUP1 SWAP2 SUB SWAP1 RETURN JUMPDEST CALLVALUE DUP1 ISZERO PUSH2 0x7D9 JUMPI PUSH0 PUSH0 REVERT JUMPDEST POP PUSH2 0x7E2 PUSH2 0x2B8B JUMP JUMPDEST STOP JUMPDEST CALLVALUE DUP1 ISZERO PUSH2 0x7EF JUMPI PUSH0 PUSH0 REVERT JUMPDEST POP PUSH2 0x7F8 PUSH2 0x2CED JUMP JUMPDEST PUSH1 0x40 MLOAD PUSH2 0x805 SWAP2 SWAP1 PUSH2 0x3C89 JUMP JUMPDEST PUSH1 0x40 MLOAD DUP1 SWAP2 SUB SWAP1 RETURN JUMPDEST CALLVALUE DUP1 ISZERO PUSH2 0x819 JUMPI PUSH0 PUSH0 REVERT JUMPDEST POP PUSH2 0x822 PUSH2 0x2CFF JUMP JUMPDEST PUSH1 0x40 MLOAD PUSH2 0x82F SWAP2 SWAP1 PUSH2 0x3ED7 JUMP JUMPDEST PUSH1 0x40 MLOAD DUP1 SWAP2 SUB SWAP1 RETURN JUMPDEST CALLVALUE DUP1 ISZERO PUSH2 0x843 JUMPI PUSH0 PUSH0 REVERT JUMPDEST POP PUSH2 0x84C PUSH2 0x2D25 JUMP JUMPDEST STOP JUMPDEST CALLVALUE DUP1 ISZERO PUSH2 0x859 JUMPI PUSH0 PUSH0 REVERT JUMPDEST POP PUSH2 0x862 PUSH2 0x2EA2 JUMP JUMPDEST STOP JUMPDEST CALLVALUE DUP1 ISZERO PUSH2 0x86F JUMPI PUSH0 PUSH0 REVERT JUMPDEST POP PUSH2 0x878 PUSH2 0x3078 JUMP JUMPDEST PUSH1 0x40 MLOAD PUSH2 0x885 SWAP2 SWAP1 PUSH2 0x3DCB JUMP JUMPDEST PUSH1 0x40 MLOAD DUP1 SWAP2 SUB SWAP1 RETURN JUMPDEST CALLVALUE DUP1 ISZERO PUSH2 0x899 JUMPI PUSH0 PUSH0 REVERT JUMPDEST POP PUSH2 0x8A2 PUSH2 0x307E JUMP JUMPDEST PUSH1 0x40 MLOAD PUSH2 0x8AF SWAP2 SWAP1 PUSH2 0x3ED7 JUMP JUMPDEST PUSH1 0x40 MLOAD DUP1 SWAP2 SUB SWAP1 RETURN JUMPDEST CALLVALUE DUP1 ISZERO PUSH2 0x8C3 JUMPI PUSH0 PUSH0 REVERT JUMPDEST POP PUSH2 0x8CC PUSH2 0x30A3 JUMP JUMPDEST STOP JUMPDEST CALLVALUE DUP1 ISZERO PUSH2 0x8D9 JUMPI PUSH0 PUSH0 REVERT JUMPDEST POP PUSH2 0x8E2 PUSH2 0x3284 JUMP JUMPDEST STOP JUMPDEST CALLVALUE DUP1 ISZERO PUSH2 0x8EF JUMPI PUSH0 PUSH0 REVERT JUMPDEST POP PUSH2 0x8F8 PUSH2 0x3645 JUMP JUMPDEST PUSH1 0x40 MLOAD PUSH2 0x905 SWAP2 SWAP1 PUSH2 0x3DCB JUMP JUMPDEST PUSH1 0x40 MLOAD DUP1 SWAP2 SUB SWAP1 RETURN JUMPDEST CALLVALUE DUP1 ISZERO PUSH2 0x919 JUMPI PUSH0 PUSH0 REVERT JUMPDEST POP PUSH2 0x922 PUSH2 0x364B JUMP JUMPDEST PUSH1 0x40 MLOAD PUSH2 0x92F SWAP2 SWAP1 PUSH2 0x3DCB JUMP JUMPDEST PUSH1 0x40 MLOAD DUP1 SWAP2 SUB SWAP1 RETURN JUMPDEST CALLVALUE DUP1 ISZERO PUSH2 0x943 JUMPI PUSH0 PUSH0 REVERT JUMPDEST POP PUSH2 0x94C PUSH2 0x3651 JUMP JUMPDEST STOP JUMPDEST CALLVALUE DUP1 ISZERO PUSH2 0x959 JUMPI PUSH0 PUSH0 REVERT JUMPDEST POP PUSH2 0x962 PUSH2 0x3876 JUMP JUMPDEST PUSH1 0x40 MLOAD PUSH2 0x96F SWAP2 SWAP1 PUSH2 0x3DCB JUMP JUMPDEST PUSH1 0x40 MLOAD DUP1 SWAP2 SUB SWAP1 RETURN JUMPDEST CALLVALUE DUP1 ISZERO PUSH2 0x983 JUMPI PUSH0 PUSH0 REVERT JUMPDEST POP PUSH2 0x98C PUSH2 0x387C JUMP JUMPDEST STOP JUMPDEST PUSH1 0x1 PUSH0 SWAP1 SLOAD SWAP1 PUSH2 0x100 EXP SWAP1 DIV PUSH20 0xFFFFFFFFFFFFFFFFFFFFFFFFFFFFFFFFFFFFFFFF AND PUSH20 0xFFFFFFFFFFFFFFFFFFFFFFFFFFFFFFFFFFFFFFFF AND CALLER PUSH20 0xFFFFFFFFFFFFFFFFFFFFFFFFFFFFFFFFFFFFFFFF AND EQ PUSH2 0xA1D JUMPI PUSH1 0x40 MLOAD PUSH32 0x8C379A000000000000000000000000000000000000000000000000000000000 DUP2 MSTORE PUSH1 0x4 ADD PUSH2 0xA14 SWAP1 PUSH2 0x4086 JUMP JUMPDEST PUSH1 0x40 MLOAD DUP1 SWAP2 SUB SWAP1 REVERT JUMPDEST PUSH1 0x1 PUSH1 0x16 PUSH0 PUSH2 0x100 EXP DUP2 SLOAD DUP2 PUSH1 0xFF MUL NOT AND SWAP1 DUP4 PUSH1 0x2 DUP2 GT ISZERO PUSH2 0xA42 JUMPI PUSH2 0xA41 PUSH2 0x3D27 JUMP JUMPDEST JUMPDEST MUL OR SWAP1 SSTORE POP PUSH1 0x1 PUSH0 SWAP1 SLOAD SWAP1 PUSH2 0x100 EXP SWAP1 DIV PUSH20 0xFFFFFFFFFFFFFFFFFFFFFFFFFFFFFFFFFFFFFFFF AND PUSH20 0xFFFFFFFFFFFFFFFFFFFFFFFFFFFFFFFFFFFFFFFF AND PUSH32 0x7B73F5D770F3EB41FD57F1E6A1C9E2A5EC61FEBBBD4E608D511C46E3FD611639 DUP3 PUSH1 0x40 MLOAD PUSH2 0xAAE SWAP2 SWAP1 PUSH2 0x3C4F JUMP JUMPDEST PUSH1 0x40 MLOAD DUP1 SWAP2 SUB SWAP1 LOG2 POP JUMP JUMPDEST PUSH0 PUSH20 0x0 PUSH4 0x5468AF10 PUSH1 0x15 SLOAD PUSH1 0x40 MLOAD DUP3 PUSH4 0xFFFFFFFF AND PUSH1 0xE0 SHL DUP2 MSTORE PUSH1 0x4 ADD PUSH2 0xAF3 SWAP2 SWAP1 PUSH2 0x40B3 JUMP JUMPDEST PUSH1 0x20 PUSH1 0x40 MLOAD DUP1 DUP4 SUB DUP2 DUP7 GAS DELEGATECALL ISZERO DUP1 ISZERO PUSH2 0xB0E JUMPI RETURNDATASIZE PUSH0 PUSH0 RETURNDATACOPY RETURNDATASIZE PUSH0 REVERT JUMPDEST POP POP POP POP PUSH1 0x40 MLOAD RETURNDATASIZE PUSH1 0x1F NOT PUSH1 0x1F DUP3 ADD AND DUP3 ADD DUP1 PUSH1 0x40 MSTORE POP DUP2 ADD SWAP1 PUSH2 0xB32 SWAP2 SWAP1 PUSH2 0x40E0 JUMP JUMPDEST SWAP1 POP DUP1 TIMESTAMP GT ISZERO PUSH2 0xBC8 JUMPI PUSH1 0x3 SLOAD PUSH1 0xD PUSH0 DUP3 DUP3 SLOAD PUSH2 0xB4F SWAP2 SWAP1 PUSH2 0x4138 JUMP JUMPDEST SWAP3 POP POP DUP2 SWAP1 SSTORE POP PUSH1 0x2 PUSH0 SWAP1 SLOAD SWAP1 PUSH2 0x100 EXP SWAP1 DIV PUSH20 0xFFFFFFFFFFFFFFFFFFFFFFFFFFFFFFFFFFFFFFFF AND PUSH20 0xFFFFFFFFFFFFFFFFFFFFFFFFFFFFFFFFFFFFFFFF AND PUSH32 0x2774F4712321FE39A50CF43384F7A594356CDABD366829262F2654FE2F3B77F9 PUSH1 0x3 SLOAD PUSH1 0x40 MLOAD PUSH2 0xBBF SWAP2 SWAP1 PUSH2 0x3DCB JUMP JUMPDEST PUSH1 0x40 MLOAD DUP1 SWAP2 SUB SWAP1 LOG2 JUMPDEST PUSH32 0xBBCC51FA936F3A76812BE73764F05AAFEEB3D972C46D98DD196244186BAD147F DUP2 PUSH1 0x40 MLOAD PUSH2 0xBF7 SWAP2 SWAP1 PUSH2 0x3DCB JUMP JUMPDEST PUSH1 0x40 MLOAD DUP1 SWAP2 SUB SWAP1 LOG1 POP JUMP JUMPDEST PUSH0 PUSH1 0x2 DUP2 GT ISZERO PUSH2 0xC15 JUMPI PUSH2 0xC14 PUSH2 0x3D27 JUMP JUMPDEST JUMPDEST PUSH1 0x16 PUSH0 SWAP1 SLOAD SWAP1 PUSH2 0x100 EXP SWAP1 DIV PUSH1 0xFF AND PUSH1 0x2 DUP2 GT ISZERO PUSH2 0xC36 JUMPI PUSH2 0xC35 PUSH2 0x3D27 JUMP JUMPDEST JUMPDEST EQ DUP1 PUSH2 0xC73 JUMPI POP PUSH1 0x2 DUP1 DUP2 GT ISZERO PUSH2 0xC50 JUMPI PUSH2 0xC4F PUSH2 0x3D27 JUMP JUMPDEST JUMPDEST PUSH1 0x16 PUSH0 SWAP1 SLOAD SWAP1 PUSH2 0x100 EXP SWAP1 DIV PUSH1 0xFF AND PUSH1 0x2 DUP2 GT ISZERO PUSH2 0xC71 JUMPI PUSH2 0xC70 PUSH2 0x3D27 JUMP JUMPDEST JUMPDEST EQ JUMPDEST PUSH2 0xCB2 JUMPI PUSH1 0x40 MLOAD PUSH32 0x8C379A000000000000000000000000000000000000000000000000000000000 DUP2 MSTORE PUSH1 0x4 ADD PUSH2 0xCA9 SWAP1 PUSH2 0x41B5 JUMP JUMPDEST PUSH1 0x40 MLOAD DUP1 SWAP2 SUB SWAP1 REVERT JUMPDEST PUSH0 TIMESTAMP PUSH1 0x10 SLOAD PUSH2 0xCC1 SWAP2 SWAP1 PUSH2 0x41D3 JUMP JUMPDEST SWAP1 POP PUSH3 0x4F1A00 DUP2 EQ DUP1 PUSH2 0xCD4 JUMPI POP PUSH1 0x1E DUP2 EQ JUMPDEST ISZERO PUSH2 0xD23 JUMPI PUSH32 0xD0B1F933B37BCB6FA032C1F03D79EC22BE0798137CDB06AD046BE2E640EAFBC5 PUSH3 0x15180 DUP3 PUSH2 0xD09 SWAP2 SWAP1 PUSH2 0x4233 JUMP JUMPDEST PUSH1 0x40 MLOAD PUSH2 0xD16 SWAP2 SWAP1 PUSH2 0x3DCB JUMP JUMPDEST PUSH1 0x40 MLOAD DUP1 SWAP2 SUB SWAP1 LOG1 PUSH2 0xD74 JUMP JUMPDEST PUSH3 0x127500 DUP2 LT PUSH2 0xD73 JUMPI PUSH32 0xD0B1F933B37BCB6FA032C1F03D79EC22BE0798137CDB06AD046BE2E640EAFBC5 PUSH3 0x15180 DUP3 PUSH2 0xD5D SWAP2 SWAP1 PUSH2 0x4233 JUMP JUMPDEST PUSH1 0x40 MLOAD PUSH2 0xD6A SWAP2 SWAP1 PUSH2 0x3DCB JUMP JUMPDEST PUSH1 0x40 MLOAD DUP1 SWAP2 SUB SWAP1 LOG1 JUMPDEST JUMPDEST POP JUMP JUMPDEST PUSH1 0x5 DUP1 SLOAD PUSH2 0xD84 SWAP1 PUSH2 0x4290 JUMP JUMPDEST DUP1 PUSH1 0x1F ADD PUSH1 0x20 DUP1 SWAP2 DIV MUL PUSH1 0x20 ADD PUSH1 0x40 MLOAD SWAP1 DUP2 ADD PUSH1 0x40 MSTORE DUP1 SWAP3 SWAP2 SWAP1 DUP2 DUP2 MSTORE PUSH1 0x20 ADD DUP3 DUP1 SLOAD PUSH2 0xDB0 SWAP1 PUSH2 0x4290 JUMP JUMPDEST DUP1 ISZERO PUSH2 0xDFB JUMPI DUP1 PUSH1 0x1F LT PUSH2 0xDD2 JUMPI PUSH2 0x100 DUP1 DUP4 SLOAD DIV MUL DUP4 MSTORE SWAP2 PUSH1 0x20 ADD SWAP2 PUSH2 0xDFB JUMP JUMPDEST DUP3 ADD SWAP2 SWAP1 PUSH0 MSTORE PUSH1 0x20 PUSH0 KECCAK256 SWAP1 JUMPDEST DUP2 SLOAD DUP2 MSTORE SWAP1 PUSH1 0x1 ADD SWAP1 PUSH1 0x20 ADD DUP1 DUP4 GT PUSH2 0xDDE JUMPI DUP3 SWAP1 SUB PUSH1 0x1F AND DUP3 ADD SWAP2 JUMPDEST POP POP POP POP POP DUP2 JUMP JUMPDEST PUSH1 0x6 PUSH0 SWAP1 SLOAD SWAP1 PUSH2 0x100 EXP SWAP1 DIV PUSH1 0xFF AND DUP2 JUMP JUMPDEST PUSH1 0x13 PUSH1 0x20 MSTORE DUP1 PUSH0 MSTORE PUSH1 0x40 PUSH0 KECCAK256 PUSH0 SWAP2 POP SLOAD SWAP1 PUSH2 0x100 EXP SWAP1 DIV PUSH1 0xFF AND DUP2 JUMP JUMPDEST PUSH1 0xE PUSH0 SWAP1 SLOAD SWAP1 PUSH2 0x100 EXP SWAP1 DIV PUSH1 0xFF AND DUP2 JUMP JUMPDEST PUSH1 0x1 PUSH0 SWAP1 SLOAD SWAP1 PUSH2 0x100 EXP SWAP1 DIV PUSH20 0xFFFFFFFFFFFFFFFFFFFFFFFFFFFFFFFFFFFFFFFF AND PUSH20 0xFFFFFFFFFFFFFFFFFFFFFFFFFFFFFFFFFFFFFFFF AND CALLER PUSH20 0xFFFFFFFFFFFFFFFFFFFFFFFFFFFFFFFFFFFFFFFF AND EQ PUSH2 0xED3 JUMPI PUSH1 0x40 MLOAD PUSH32 0x8C379A000000000000000000000000000000000000000000000000000000000 DUP2 MSTORE PUSH1 0x4 ADD PUSH2 0xECA SWAP1 PUSH2 0x4086 JUMP JUMPDEST PUSH1 0x40 MLOAD DUP1 SWAP2 SUB SWAP1 REVERT JUMPDEST PUSH1 0x2 DUP1 DUP2 GT ISZERO PUSH2 0xEE6 JUMPI PUSH2 0xEE5 PUSH2 0x3D27 JUMP JUMPDEST JUMPDEST PUSH1 0x16 PUSH0 SWAP1 SLOAD SWAP1 PUSH2 0x100 EXP SWAP1 DIV PUSH1 0xFF AND PUSH1 0x2 DUP2 GT ISZERO PUSH2 0xF07 JUMPI PUSH2 0xF06 PUSH2 0x3D27 JUMP JUMPDEST JUMPDEST EQ PUSH2 0xF47 JUMPI PUSH1 0x40 MLOAD PUSH32 0x8C379A000000000000000000000000000000000000000000000000000000000 DUP2 MSTORE PUSH1 0x4 ADD PUSH2 0xF3E SWAP1 PUSH2 0x4330 JUMP JUMPDEST PUSH1 0x40 MLOAD DUP1 SWAP2 SUB SWAP1 REVERT JUMPDEST PUSH1 0x1 PUSH1 0x14 PUSH0 PUSH2 0x100 EXP DUP2 SLOAD DUP2 PUSH1 0xFF MUL NOT AND SWAP1 DUP4 ISZERO ISZERO MUL OR SWAP1 SSTORE POP JUMP JUMPDEST PUSH1 0x1 PUSH0 SWAP1 SLOAD SWAP1 PUSH2 0x100 EXP SWAP1 DIV PUSH20 0xFFFFFFFFFFFFFFFFFFFFFFFFFFFFFFFFFFFFFFFF AND PUSH20 0xFFFFFFFFFFFFFFFFFFFFFFFFFFFFFFFFFFFFFFFF AND CALLER PUSH20 0xFFFFFFFFFFFFFFFFFFFFFFFFFFFFFFFFFFFFFFFF AND EQ PUSH2 0xFF2 JUMPI PUSH1 0x40 MLOAD PUSH32 0x8C379A000000000000000000000000000000000000000000000000000000000 DUP2 MSTORE PUSH1 0x4 ADD PUSH2 0xFE9 SWAP1 PUSH2 0x4086 JUMP JUMPDEST PUSH1 0x40 MLOAD DUP1 SWAP2 SUB SWAP1 REVERT JUMPDEST PUSH1 0x3 SLOAD PUSH1 0x3 PUSH2 0x1001 SWAP2 SWAP1 PUSH2 0x434E JUMP JUMPDEST PUSH1 0xD SLOAD GT ISZERO PUSH2 0x1083 JUMPI PUSH3 0x76A700 TIMESTAMP PUSH2 0x1019 SWAP2 SWAP1 PUSH2 0x4138 JUMP JUMPDEST PUSH1 0xF DUP2 SWAP1 SSTORE POP PUSH1 0x2 PUSH1 0x16 PUSH0 PUSH2 0x100 EXP DUP2 SLOAD DUP2 PUSH1 0xFF MUL NOT AND SWAP1 DUP4 PUSH1 0x2 DUP2 GT ISZERO PUSH2 0x1044 JUMPI PUSH2 0x1043 PUSH2 0x3D27 JUMP JUMPDEST JUMPDEST MUL OR SWAP1 SSTORE POP PUSH32 0x2032EEA88030B7D191BCBDC44C5AC10ED559F3E9F56A319C896F007B55ABA5C6 PUSH1 0xF SLOAD PUSH1 0x40 MLOAD PUSH2 0x107A SWAP2 SWAP1 PUSH2 0x3DCB JUMP JUMPDEST PUSH1 0x40 MLOAD DUP1 SWAP2 SUB SWAP1 LOG1 JUMPDEST JUMP JUMPDEST PUSH1 0x16 PUSH0 SWAP1 SLOAD SWAP1 PUSH2 0x100 EXP SWAP1 DIV PUSH1 0xFF AND DUP2 JUMP JUMPDEST PUSH1 0x12 PUSH1 0x1 SWAP1 SLOAD SWAP1 PUSH2 0x100 EXP SWAP1 DIV PUSH1 0xFF AND DUP2 JUMP JUMPDEST PUSH1 0xC SLOAD DUP2 JUMP JUMPDEST PUSH0 PUSH0 PUSH1 0x9 SLOAD TIMESTAMP PUSH2 0x10C0 SWAP2 SWAP1 PUSH2 0x41D3 JUMP JUMPDEST SWAP1 POP PUSH0 PUSH4 0x1E13380 DUP3 PUSH2 0x10D3 SWAP2 SWAP1 PUSH2 0x4233 JUMP JUMPDEST SWAP1 POP PUSH0 PUSH2 0x10DE PUSH2 0x1BB5 JUMP JUMPDEST SWAP1 POP PUSH0 PUSH1 0x64 DUP4 DUP4 PUSH2 0x10EF SWAP2 SWAP1 PUSH2 0x434E JUMP JUMPDEST PUSH2 0x10F9 SWAP2 SWAP1 PUSH2 0x4233 JUMP JUMPDEST PUSH1 0x1 PUSH2 0x1105 SWAP2 SWAP1 PUSH2 0x4138 JUMP JUMPDEST PUSH1 0x8 SLOAD PUSH2 0x1112 SWAP2 SWAP1 PUSH2 0x434E JUMP JUMPDEST SWAP1 POP DUP1 SWAP5 POP POP POP POP POP SWAP1 JUMP JUMPDEST PUSH1 0x10 SLOAD DUP2 JUMP JUMPDEST PUSH1 0x4 SLOAD DUP2 JUMP JUMPDEST PUSH1 0x1 PUSH0 SWAP1 SLOAD SWAP1 PUSH2 0x100 EXP SWAP1 DIV PUSH20 0xFFFFFFFFFFFFFFFFFFFFFFFFFFFFFFFFFFFFFFFF AND PUSH20 0xFFFFFFFFFFFFFFFFFFFFFFFFFFFFFFFFFFFFFFFF AND CALLER PUSH20 0xFFFFFFFFFFFFFFFFFFFFFFFFFFFFFFFFFFFFFFFF AND EQ PUSH2 0x11B9 JUMPI PUSH1 0x40 MLOAD PUSH32 0x8C379A000000000000000000000000000000000000000000000000000000000 DUP2 MSTORE PUSH1 0x4 ADD PUSH2 0x11B0 SWAP1 PUSH2 0x4086 JUMP JUMPDEST PUSH1 0x40 MLOAD DUP1 SWAP2 SUB SWAP1 REVERT JUMPDEST PUSH1 0xE PUSH0 SWAP1 SLOAD SWAP1 PUSH2 0x100 EXP SWAP1 DIV PUSH1 0xFF AND PUSH2 0x1207 JUMPI PUSH1 0x40 MLOAD PUSH32 0x8C379A000000000000000000000000000000000000000000000000000000000 DUP2 MSTORE PUSH1 0x4 ADD PUSH2 0x11FE SWAP1 PUSH2 0x43D9 JUMP JUMPDEST PUSH1 0x40 MLOAD DUP1 SWAP2 SUB SWAP1 REVERT JUMPDEST PUSH1 0xC PUSH0 DUP2 SLOAD DUP1 SWAP3 SWAP2 SWAP1 PUSH2 0x1219 SWAP1 PUSH2 0x43F7 JUMP JUMPDEST SWAP2 SWAP1 POP SSTORE POP PUSH0 PUSH1 0xE PUSH0 PUSH2 0x100 EXP DUP2 SLOAD DUP2 PUSH1 0xFF MUL NOT AND SWAP1 DUP4 ISZERO ISZERO MUL OR SWAP1 SSTORE POP PUSH1 0x2 PUSH0 SWAP1 SLOAD SWAP1 PUSH2 0x100 EXP SWAP1 DIV PUSH20 0xFFFFFFFFFFFFFFFFFFFFFFFFFFFFFFFFFFFFFFFF AND PUSH20 0xFFFFFFFFFFFFFFFFFFFFFFFFFFFFFFFFFFFFFFFF AND PUSH32 0x3B3128F7F622FF2560E38BE1B058B93BA3D585CBA51577708F3DA9D6FE4CD925 PUSH1 0xC SLOAD PUSH1 0x40 MLOAD PUSH2 0x12A0 SWAP2 SWAP1 PUSH2 0x3DCB JUMP JUMPDEST PUSH1 0x40 MLOAD DUP1 SWAP2 SUB SWAP1 LOG2 JUMP JUMPDEST PUSH1 0x15 SLOAD DUP2 JUMP JUMPDEST PUSH1 0x9 SLOAD DUP2 JUMP JUMPDEST PUSH2 0x12BE PUSH2 0x3A05 JUMP JUMPDEST PUSH1 0x2 PUSH0 SWAP1 SLOAD SWAP1 PUSH2 0x100 EXP SWAP1 DIV PUSH20 0xFFFFFFFFFFFFFFFFFFFFFFFFFFFFFFFFFFFFFFFF AND PUSH20 0xFFFFFFFFFFFFFFFFFFFFFFFFFFFFFFFFFFFFFFFF AND CALLER PUSH20 0xFFFFFFFFFFFFFFFFFFFFFFFFFFFFFFFFFFFFFFFF AND EQ PUSH2 0x134D JUMPI PUSH1 0x40 MLOAD PUSH32 0x8C379A000000000000000000000000000000000000000000000000000000000 DUP2 MSTORE PUSH1 0x4 ADD PUSH2 0x1344 SWAP1 PUSH2 0x44AE JUMP JUMPDEST PUSH1 0x40 MLOAD DUP1 SWAP2 SUB SWAP1 REVERT JUMPDEST PUSH0 PUSH1 0x2 DUP2 GT ISZERO PUSH2 0x1360 JUMPI PUSH2 0x135F PUSH2 0x3D27 JUMP JUMPDEST JUMPDEST PUSH1 0x16 PUSH0 SWAP1 SLOAD SWAP1 PUSH2 0x100 EXP SWAP1 DIV PUSH1 0xFF AND PUSH1 0x2 DUP2 GT ISZERO PUSH2 0x1381 JUMPI PUSH2 0x1380 PUSH2 0x3D27 JUMP JUMPDEST JUMPDEST EQ PUSH2 0x13C1 JUMPI PUSH1 0x40 MLOAD PUSH32 0x8C379A000000000000000000000000000000000000000000000000000000000 DUP2 MSTORE PUSH1 0x4 ADD PUSH2 0x13B8 SWAP1 PUSH2 0x4516 JUMP JUMPDEST PUSH1 0x40 MLOAD DUP1 SWAP2 SUB SWAP1 REVERT JUMPDEST PUSH0 PUSH1 0x6 PUSH0 SWAP1 SLOAD SWAP1 PUSH2 0x100 EXP SWAP1 DIV PUSH1 0xFF AND ISZERO PUSH2 0x1576 JUMPI PUSH0 CALLVALUE EQ PUSH2 0x1418 JUMPI PUSH1 0x40 MLOAD PUSH32 0x8C379A000000000000000000000000000000000000000000000000000000000 DUP2 MSTORE PUSH1 0x4 ADD PUSH2 0x140F SWAP1 PUSH2 0x45A4 JUMP JUMPDEST PUSH1 0x40 MLOAD DUP1 SWAP2 SUB SWAP1 REVERT JUMPDEST PUSH1 0x4 SLOAD SWAP1 POP CALLER PUSH20 0xFFFFFFFFFFFFFFFFFFFFFFFFFFFFFFFFFFFFFFFF AND PUSH32 0xD843B6E8D49F0E65C61FB0C27466E0719DF02E1CA2340E577C3E289C1AC9154C DUP3 PUSH1 0x6 PUSH0 SWAP1 SLOAD SWAP1 PUSH2 0x100 EXP SWAP1 DIV PUSH1 0xFF AND PUSH1 0x40 MLOAD PUSH2 0x1473 SWAP3 SWAP2 SWAP1 PUSH2 0x45C2 JUMP JUMPDEST PUSH1 0x40 MLOAD DUP1 SWAP2 SUB SWAP1 LOG2 PUSH1 0x6 PUSH1 0x1 SWAP1 SLOAD SWAP1 PUSH2 0x100 EXP SWAP1 DIV PUSH20 0xFFFFFFFFFFFFFFFFFFFFFFFFFFFFFFFFFFFFFFFF AND PUSH20 0xFFFFFFFFFFFFFFFFFFFFFFFFFFFFFFFFFFFFFFFF AND PUSH4 0x23B872DD CALLER ADDRESS DUP5 PUSH1 0x40 MLOAD DUP5 PUSH4 0xFFFFFFFF AND PUSH1 0xE0 SHL DUP2 MSTORE PUSH1 0x4 ADD PUSH2 0x14DA SWAP4 SWAP3 SWAP2 SWAP1 PUSH2 0x45E9 JUMP JUMPDEST PUSH1 0x20 PUSH1 0x40 MLOAD DUP1 DUP4 SUB DUP2 PUSH0 DUP8 GAS CALL ISZERO DUP1 ISZERO PUSH2 0x14F6 JUMPI RETURNDATASIZE PUSH0 PUSH0 RETURNDATACOPY RETURNDATASIZE PUSH0 REVERT JUMPDEST POP POP POP POP PUSH1 0x40 MLOAD RETURNDATASIZE PUSH1 0x1F NOT PUSH1 0x1F DUP3 ADD AND DUP3 ADD DUP1 PUSH1 0x40 MSTORE POP DUP2 ADD SWAP1 PUSH2 0x151A SWAP2 SWAP1 PUSH2 0x4648 JUMP JUMPDEST PUSH2 0x1559 JUMPI PUSH1 0x40 MLOAD PUSH32 0x8C379A000000000000000000000000000000000000000000000000000000000 DUP2 MSTORE PUSH1 0x4 ADD PUSH2 0x1550 SWAP1 PUSH2 0x46BD JUMP JUMPDEST PUSH1 0x40 MLOAD DUP1 SWAP2 SUB SWAP1 REVERT JUMPDEST DUP1 PUSH1 0x8 PUSH0 DUP3 DUP3 SLOAD PUSH2 0x156A SWAP2 SWAP1 PUSH2 0x4138 JUMP JUMPDEST SWAP3 POP POP DUP2 SWAP1 SSTORE POP PUSH2 0x16BF JUMP JUMPDEST PUSH0 PUSH2 0x157F PUSH2 0x1C52 JUMP JUMPDEST SWAP1 POP DUP1 PUSH11 0x52B7D2DCC80CD2E4000000 PUSH1 0x4 SLOAD PUSH2 0x159B SWAP2 SWAP1 PUSH2 0x434E JUMP JUMPDEST PUSH2 0x15A5 SWAP2 SWAP1 PUSH2 0x4233 JUMP JUMPDEST SWAP2 POP DUP2 CALLVALUE LT ISZERO PUSH2 0x15EA JUMPI PUSH1 0x40 MLOAD PUSH32 0x8C379A000000000000000000000000000000000000000000000000000000000 DUP2 MSTORE PUSH1 0x4 ADD PUSH2 0x15E1 SWAP1 PUSH2 0x4725 JUMP JUMPDEST PUSH1 0x40 MLOAD DUP1 SWAP2 SUB SWAP1 REVERT JUMPDEST PUSH0 DUP3 CALLVALUE PUSH2 0x15F7 SWAP2 SWAP1 PUSH2 0x41D3 JUMP JUMPDEST SWAP1 POP PUSH0 DUP2 GT ISZERO PUSH2 0x16A4 JUMPI CALLER PUSH20 0xFFFFFFFFFFFFFFFFFFFFFFFFFFFFFFFFFFFFFFFF AND PUSH32 0xD843B6E8D49F0E65C61FB0C27466E0719DF02E1CA2340E577C3E289C1AC9154C DUP5 PUSH1 0x6 PUSH0 SWAP1 SLOAD SWAP1 PUSH2 0x100 EXP SWAP1 DIV PUSH1 0xFF AND PUSH1 0x40 MLOAD PUSH2 0x1657 SWAP3 SWAP2 SWAP1 PUSH2 0x45C2 JUMP JUMPDEST PUSH1 0x40 MLOAD DUP1 SWAP2 SUB SWAP1 LOG2 CALLER PUSH20 0xFFFFFFFFFFFFFFFFFFFFFFFFFFFFFFFFFFFFFFFF AND PUSH2 0x8FC DUP3 SWAP1 DUP2 ISZERO MUL SWAP1 PUSH1 0x40 MLOAD PUSH0 PUSH1 0x40 MLOAD DUP1 DUP4 SUB DUP2 DUP6 DUP9 DUP9 CALL SWAP4 POP POP POP POP ISZERO DUP1 ISZERO PUSH2 0x16A2 JUMPI RETURNDATASIZE PUSH0 PUSH0 RETURNDATACOPY RETURNDATASIZE PUSH0 REVERT JUMPDEST POP JUMPDEST DUP3 PUSH1 0x8 PUSH0 DUP3 DUP3 SLOAD PUSH2 0x16B5 SWAP2 SWAP1 PUSH2 0x4138 JUMP JUMPDEST SWAP3 POP POP DUP2 SWAP1 SSTORE POP POP POP JUMPDEST POP PUSH2 0x16C8 PUSH2 0x3A52 JUMP JUMPDEST JUMP JUMPDEST PUSH1 0x8 SLOAD DUP2 JUMP JUMPDEST PUSH1 0x1 PUSH0 SWAP1 SLOAD SWAP1 PUSH2 0x100 EXP SWAP1 DIV PUSH20 0xFFFFFFFFFFFFFFFFFFFFFFFFFFFFFFFFFFFFFFFF AND PUSH20 0xFFFFFFFFFFFFFFFFFFFFFFFFFFFFFFFFFFFFFFFF AND CALLER PUSH20 0xFFFFFFFFFFFFFFFFFFFFFFFFFFFFFFFFFFFFFFFF AND EQ PUSH2 0x175F JUMPI PUSH1 0x40 MLOAD PUSH32 0x8C379A000000000000000000000000000000000000000000000000000000000 DUP2 MSTORE PUSH1 0x4 ADD PUSH2 0x1756 SWAP1 PUSH2 0x4086 JUMP JUMPDEST PUSH1 0x40 MLOAD DUP1 SWAP2 SUB SWAP1 REVERT JUMPDEST PUSH1 0x10 SLOAD TIMESTAMP LT ISZERO PUSH2 0x17A4 JUMPI PUSH1 0x40 MLOAD PUSH32 0x8C379A000000000000000000000000000000000000000000000000000000000 DUP2 MSTORE PUSH1 0x4 ADD PUSH2 0x179B SWAP1 PUSH2 0x478D JUMP JUMPDEST PUSH1 0x40 MLOAD DUP1 SWAP2 SUB SWAP1 REVERT JUMPDEST PUSH1 0x12 PUSH1 0x1 SWAP1 SLOAD SWAP1 PUSH2 0x100 EXP SWAP1 DIV PUSH1 0xFF AND ISZERO DUP1 PUSH2 0x17CC JUMPI POP PUSH1 0x12 PUSH0 SWAP1 SLOAD SWAP1 PUSH2 0x100 EXP SWAP1 DIV PUSH1 0xFF AND ISZERO JUMPDEST PUSH2 0x180B JUMPI PUSH1 0x40 MLOAD PUSH32 0x8C379A000000000000000000000000000000000000000000000000000000000 DUP2 MSTORE PUSH1 0x4 ADD PUSH2 0x1802 SWAP1 PUSH2 0x47F5 JUMP JUMPDEST PUSH1 0x40 MLOAD DUP1 SWAP2 SUB SWAP1 REVERT JUMPDEST PUSH1 0x1 PUSH1 0x16 PUSH0 PUSH2 0x100 EXP DUP2 SLOAD DUP2 PUSH1 0xFF MUL NOT AND SWAP1 DUP4 PUSH1 0x2 DUP2 GT ISZERO PUSH2 0x1830 JUMPI PUSH2 0x182F PUSH2 0x3D27 JUMP JUMPDEST JUMPDEST MUL OR SWAP1 SSTORE POP PUSH1 0x1 PUSH0 SWAP1 SLOAD SWAP1 PUSH2 0x100 EXP SWAP1 DIV PUSH20 0xFFFFFFFFFFFFFFFFFFFFFFFFFFFFFFFFFFFFFFFF AND PUSH20 0xFFFFFFFFFFFFFFFFFFFFFFFFFFFFFFFFFFFFFFFF AND PUSH32 0x7B73F5D770F3EB41FD57F1E6A1C9E2A5EC61FEBBBD4E608D511C46E3FD611639 PUSH1 0x40 MLOAD PUSH2 0x189A SWAP1 PUSH2 0x485D JUMP JUMPDEST PUSH1 0x40 MLOAD DUP1 SWAP2 SUB SWAP1 LOG2 JUMP JUMPDEST PUSH1 0xD SLOAD DUP2 JUMP JUMPDEST PUSH1 0x12 PUSH0 SWAP1 SLOAD SWAP1 PUSH2 0x100 EXP SWAP1 DIV PUSH1 0xFF AND DUP2 JUMP JUMPDEST PUSH2 0x18C4 PUSH2 0x3A05 JUMP JUMPDEST PUSH1 0x1 PUSH0 SWAP1 SLOAD SWAP1 PUSH2 0x100 EXP SWAP1 DIV PUSH20 0xFFFFFFFFFFFFFFFFFFFFFFFFFFFFFFFFFFFFFFFF AND PUSH20 0xFFFFFFFFFFFFFFFFFFFFFFFFFFFFFFFFFFFFFFFF AND CALLER PUSH20 0xFFFFFFFFFFFFFFFFFFFFFFFFFFFFFFFFFFFFFFFF AND EQ PUSH2 0x1953 JUMPI PUSH1 0x40 MLOAD PUSH32 0x8C379A000000000000000000000000000000000000000000000000000000000 DUP2 MSTORE PUSH1 0x4 ADD PUSH2 0x194A SWAP1 PUSH2 0x4086 JUMP JUMPDEST PUSH1 0x40 MLOAD DUP1 SWAP2 SUB SWAP1 REVERT JUMPDEST PUSH1 0x1 PUSH1 0x2 DUP2 GT ISZERO PUSH2 0x1967 JUMPI PUSH2 0x1966 PUSH2 0x3D27 JUMP JUMPDEST JUMPDEST PUSH1 0x16 PUSH0 SWAP1 SLOAD SWAP1 PUSH2 0x100 EXP SWAP1 DIV PUSH1 0xFF AND PUSH1 0x2 DUP2 GT ISZERO PUSH2 0x1988 JUMPI PUSH2 0x1987 PUSH2 0x3D27 JUMP JUMPDEST JUMPDEST EQ PUSH2 0x19C8 JUMPI PUSH1 0x40 MLOAD PUSH32 0x8C379A000000000000000000000000000000000000000000000000000000000 DUP2 MSTORE PUSH1 0x4 ADD PUSH2 0x19BF SWAP1 PUSH2 0x48C5 JUMP JUMPDEST PUSH1 0x40 MLOAD DUP1 SWAP2 SUB SWAP1 REVERT JUMPDEST PUSH0 PUSH2 0x19D1 PUSH2 0x10B0 JUMP JUMPDEST SWAP1 POP PUSH0 PUSH1 0x8 DUP2 SWAP1 SSTORE POP CALLER PUSH20 0xFFFFFFFFFFFFFFFFFFFFFFFFFFFFFFFFFFFFFFFF AND PUSH32 0xA09244C122A83074363635DC89CE0098166C2F74827960FF64A7C8E6AD1C57A2 DUP3 PUSH1 0x40 MLOAD PUSH2 0x1A20 SWAP2 SWAP1 PUSH2 0x3DCB JUMP JUMPDEST PUSH1 0x40 MLOAD DUP1 SWAP2 SUB SWAP1 LOG2 PUSH1 0x6 PUSH0 SWAP1 SLOAD SWAP1 PUSH2 0x100 EXP SWAP1 DIV PUSH1 0xFF AND ISZERO PUSH2 0x1B3E JUMPI PUSH1 0x6 PUSH1 0x1 SWAP1 SLOAD SWAP1 PUSH2 0x100 EXP SWAP1 DIV PUSH20 0xFFFFFFFFFFFFFFFFFFFFFFFFFFFFFFFFFFFFFFFF AND PUSH20 0xFFFFFFFFFFFFFFFFFFFFFFFFFFFFFFFFFFFFFFFF AND PUSH4 0xA9059CBB PUSH1 0x2 PUSH0 SWAP1 SLOAD SWAP1 PUSH2 0x100 EXP SWAP1 DIV PUSH20 0xFFFFFFFFFFFFFFFFFFFFFFFFFFFFFFFFFFFFFFFF AND DUP4 PUSH1 0x40 MLOAD DUP4 PUSH4 0xFFFFFFFF AND PUSH1 0xE0 SHL DUP2 MSTORE PUSH1 0x4 ADD PUSH2 0x1ABA SWAP3 SWAP2 SWAP1 PUSH2 0x48E3 JUMP JUMPDEST PUSH1 0x20 PUSH1 0x40 MLOAD DUP1 DUP4 SUB DUP2 PUSH0 DUP8 GAS CALL ISZERO DUP1 ISZERO PUSH2 0x1AD6 JUMPI RETURNDATASIZE PUSH0 PUSH0 RETURNDATACOPY RETURNDATASIZE PUSH0 REVERT JUMPDEST POP POP POP POP PUSH1 0x40 MLOAD RETURNDATASIZE PUSH1 0x1F NOT PUSH1 0x1F DUP3 ADD AND DUP3 ADD DUP1 PUSH1 0x40 MSTORE POP DUP2 ADD SWAP1 PUSH2 0x1AFA SWAP2 SWAP1 PUSH2 0x4648 JUMP JUMPDEST PUSH2 0x1B39 JUMPI PUSH1 0x40 MLOAD PUSH32 0x8C379A000000000000000000000000000000000000000000000000000000000 DUP2 MSTORE PUSH1 0x4 ADD PUSH2 0x1B30 SWAP1 PUSH2 0x4954 JUMP JUMPDEST PUSH1 0x40 MLOAD DUP1 SWAP2 SUB SWAP1 REVERT JUMPDEST PUSH2 0x1BA4 JUMP JUMPDEST PUSH1 0x2 PUSH0 SWAP1 SLOAD SWAP1 PUSH2 0x100 EXP SWAP1 DIV PUSH20 0xFFFFFFFFFFFFFFFFFFFFFFFFFFFFFFFFFFFFFFFF AND PUSH20 0xFFFFFFFFFFFFFFFFFFFFFFFFFFFFFFFFFFFFFFFF AND PUSH2 0x8FC DUP3 SWAP1 DUP2 ISZERO MUL SWAP1 PUSH1 0x40 MLOAD PUSH0 PUSH1 0x40 MLOAD DUP1 DUP4 SUB DUP2 DUP6 DUP9 DUP9 CALL SWAP4 POP POP POP POP ISZERO DUP1 ISZERO PUSH2 0x1BA2 JUMPI RETURNDATASIZE PUSH0 PUSH0 RETURNDATACOPY RETURNDATASIZE PUSH0 REVERT JUMPDEST POP JUMPDEST POP PUSH2 0x1BAD PUSH2 0x3A52 JUMP JUMPDEST JUMP JUMPDEST PUSH1 0xF SLOAD DUP2 JUMP JUMPDEST PUSH0 PUSH0 PUSH1 0x7 PUSH0 SWAP1 SLOAD SWAP1 PUSH2 0x100 EXP SWAP1 DIV PUSH20 0xFFFFFFFFFFFFFFFFFFFFFFFFFFFFFFFFFFFFFFFF AND PUSH20 0xFFFFFFFFFFFFFFFFFFFFFFFFFFFFFFFFFFFFFFFF AND PUSH4 0xFEAF968C PUSH1 0x40 MLOAD DUP2 PUSH4 0xFFFFFFFF AND PUSH1 0xE0 SHL DUP2 MSTORE PUSH1 0x4 ADD PUSH1 0xA0 PUSH1 0x40 MLOAD DUP1 DUP4 SUB DUP2 DUP7 GAS STATICCALL ISZERO DUP1 ISZERO PUSH2 0x1C21 JUMPI RETURNDATASIZE PUSH0 PUSH0 RETURNDATACOPY RETURNDATASIZE PUSH0 REVERT JUMPDEST POP POP POP POP PUSH1 0x40 MLOAD RETURNDATASIZE PUSH1 0x1F NOT PUSH1 0x1F DUP3 ADD AND DUP3 ADD DUP1 PUSH1 0x40 MSTORE POP DUP2 ADD SWAP1 PUSH2 0x1C45 SWAP2 SWAP1 PUSH2 0x49E4 JUMP JUMPDEST POP POP POP SWAP2 POP POP DUP1 SWAP2 POP POP SWAP1 JUMP JUMPDEST PUSH0 PUSH0 PUSH1 0x7 PUSH0 SWAP1 SLOAD SWAP1 PUSH2 0x100 EXP SWAP1 DIV PUSH20 0xFFFFFFFFFFFFFFFFFFFFFFFFFFFFFFFFFFFFFFFF AND PUSH20 0xFFFFFFFFFFFFFFFFFFFFFFFFFFFFFFFFFFFFFFFF AND PUSH4 0xFEAF968C PUSH1 0x40 MLOAD DUP2 PUSH4 0xFFFFFFFF AND PUSH1 0xE0 SHL DUP2 MSTORE PUSH1 0x4 ADD PUSH1 0xA0 PUSH1 0x40 MLOAD DUP1 DUP4 SUB DUP2 DUP7 GAS STATICCALL ISZERO DUP1 ISZERO PUSH2 0x1CBE JUMPI RETURNDATASIZE PUSH0 PUSH0 RETURNDATACOPY RETURNDATASIZE PUSH0 REVERT JUMPDEST POP POP POP POP PUSH1 0x40 MLOAD RETURNDATASIZE PUSH1 0x1F NOT PUSH1 0x1F DUP3 ADD AND DUP3 ADD DUP1 PUSH1 0x40 MSTORE POP DUP2 ADD SWAP1 PUSH2 0x1CE2 SWAP2 SWAP1 PUSH2 0x49E4 JUMP JUMPDEST POP POP POP SWAP2 POP POP PUSH4 0x5F5E100 DUP2 PUSH2 0x1CF8 SWAP2 SWAP1 PUSH2 0x4A5B JUMP JUMPDEST SWAP2 POP POP SWAP1 JUMP JUMPDEST PUSH2 0x1D06 PUSH2 0x3A05 JUMP JUMPDEST PUSH1 0x1 PUSH0 SWAP1 SLOAD SWAP1 PUSH2 0x100 EXP SWAP1 DIV PUSH20 0xFFFFFFFFFFFFFFFFFFFFFFFFFFFFFFFFFFFFFFFF AND PUSH20 0xFFFFFFFFFFFFFFFFFFFFFFFFFFFFFFFFFFFFFFFF AND CALLER PUSH20 0xFFFFFFFFFFFFFFFFFFFFFFFFFFFFFFFFFFFFFFFF AND EQ PUSH2 0x1D95 JUMPI PUSH1 0x40 MLOAD PUSH32 0x8C379A000000000000000000000000000000000000000000000000000000000 DUP2 MSTORE PUSH1 0x4 ADD PUSH2 0x1D8C SWAP1 PUSH2 0x4086 JUMP JUMPDEST PUSH1 0x40 MLOAD DUP1 SWAP2 SUB SWAP1 REVERT JUMPDEST PUSH0 PUSH1 0x6 PUSH0 SWAP1 SLOAD SWAP1 PUSH2 0x100 EXP SWAP1 DIV PUSH1 0xFF AND ISZERO PUSH2 0x1FA8 JUMPI PUSH8 0xDE0B6B3A7640000 DUP4 PUSH2 0x1DBE SWAP2 SWAP1 PUSH2 0x434E JUMP JUMPDEST SWAP1 POP PUSH1 0x8 SLOAD DUP2 GT ISZERO PUSH2 0x1E05 JUMPI PUSH1 0x40 MLOAD PUSH32 0x8C379A000000000000000000000000000000000000000000000000000000000 DUP2 MSTORE PUSH1 0x4 ADD PUSH2 0x1DFC SWAP1 PUSH2 0x4B1B JUMP JUMPDEST PUSH1 0x40 MLOAD DUP1 SWAP2 SUB SWAP1 REVERT JUMPDEST DUP1 PUSH1 0x8 PUSH0 DUP3 DUP3 SLOAD PUSH2 0x1E16 SWAP2 SWAP1 PUSH2 0x41D3 JUMP JUMPDEST SWAP3 POP POP DUP2 SWAP1 SSTORE POP DUP1 PUSH1 0xA PUSH0 DUP3 DUP3 SLOAD PUSH2 0x1E2E SWAP2 SWAP1 PUSH2 0x4138 JUMP JUMPDEST SWAP3 POP POP DUP2 SWAP1 SSTORE POP PUSH1 0x1 PUSH0 SWAP1 SLOAD SWAP1 PUSH2 0x100 EXP SWAP1 DIV PUSH20 0xFFFFFFFFFFFFFFFFFFFFFFFFFFFFFFFFFFFFFFFF AND PUSH20 0xFFFFFFFFFFFFFFFFFFFFFFFFFFFFFFFFFFFFFFFF AND PUSH32 0xE71DB61460CADE63BDCE2BD520284D5FCDE93EB8604BE23456AC0761C5CB4D9 DUP3 DUP5 PUSH1 0x40 MLOAD PUSH2 0x1E9E SWAP3 SWAP2 SWAP1 PUSH2 0x4B39 JUMP JUMPDEST PUSH1 0x40 MLOAD DUP1 SWAP2 SUB SWAP1 LOG2 PUSH1 0x6 PUSH1 0x1 SWAP1 SLOAD SWAP1 PUSH2 0x100 EXP SWAP1 DIV PUSH20 0xFFFFFFFFFFFFFFFFFFFFFFFFFFFFFFFFFFFFFFFF AND PUSH20 0xFFFFFFFFFFFFFFFFFFFFFFFFFFFFFFFFFFFFFFFF AND PUSH4 0xA9059CBB PUSH1 0x1 PUSH0 SWAP1 SLOAD SWAP1 PUSH2 0x100 EXP SWAP1 DIV PUSH20 0xFFFFFFFFFFFFFFFFFFFFFFFFFFFFFFFFFFFFFFFF AND DUP4 PUSH1 0x40 MLOAD DUP4 PUSH4 0xFFFFFFFF AND PUSH1 0xE0 SHL DUP2 MSTORE PUSH1 0x4 ADD PUSH2 0x1F24 SWAP3 SWAP2 SWAP1 PUSH2 0x48E3 JUMP JUMPDEST PUSH1 0x20 PUSH1 0x40 MLOAD DUP1 DUP4 SUB DUP2 PUSH0 DUP8 GAS CALL ISZERO DUP1 ISZERO PUSH2 0x1F40 JUMPI RETURNDATASIZE PUSH0 PUSH0 RETURNDATACOPY RETURNDATASIZE PUSH0 REVERT JUMPDEST POP POP POP POP PUSH1 0x40 MLOAD RETURNDATASIZE PUSH1 0x1F NOT PUSH1 0x1F DUP3 ADD AND DUP3 ADD DUP1 PUSH1 0x40 MSTORE POP DUP2 ADD SWAP1 PUSH2 0x1F64 SWAP2 SWAP1 PUSH2 0x4648 JUMP JUMPDEST PUSH2 0x1FA3 JUMPI PUSH1 0x40 MLOAD PUSH32 0x8C379A000000000000000000000000000000000000000000000000000000000 DUP2 MSTORE PUSH1 0x4 ADD PUSH2 0x1F9A SWAP1 PUSH2 0x4BB1 JUMP JUMPDEST PUSH1 0x40 MLOAD DUP1 SWAP2 SUB SWAP1 REVERT JUMPDEST PUSH2 0x2130 JUMP JUMPDEST PUSH0 PUSH2 0x1FB1 PUSH2 0x1C52 JUMP JUMPDEST SWAP1 POP DUP1 PUSH4 0x5F5E100 PUSH8 0xDE0B6B3A7640000 DUP7 PUSH2 0x1FCD SWAP2 SWAP1 PUSH2 0x434E JUMP JUMPDEST PUSH2 0x1FD7 SWAP2 SWAP1 PUSH2 0x434E JUMP JUMPDEST PUSH2 0x1FE1 SWAP2 SWAP1 PUSH2 0x4233 JUMP JUMPDEST SWAP2 POP PUSH1 0x8 SLOAD DUP3 GT ISZERO PUSH2 0x2028 JUMPI PUSH1 0x40 MLOAD PUSH32 0x8C379A000000000000000000000000000000000000000000000000000000000 DUP2 MSTORE PUSH1 0x4 ADD PUSH2 0x201F SWAP1 PUSH2 0x4B1B JUMP JUMPDEST PUSH1 0x40 MLOAD DUP1 SWAP2 SUB SWAP1 REVERT JUMPDEST DUP2 PUSH1 0x8 PUSH0 DUP3 DUP3 SLOAD PUSH2 0x2039 SWAP2 SWAP1 PUSH2 0x41D3 JUMP JUMPDEST SWAP3 POP POP DUP2 SWAP1 SSTORE POP DUP2 PUSH1 0xA PUSH0 DUP3 DUP3 SLOAD PUSH2 0x2051 SWAP2 SWAP1 PUSH2 0x4138 JUMP JUMPDEST SWAP3 POP POP DUP2 SWAP1 SSTORE POP PUSH1 0x1 PUSH0 SWAP1 SLOAD SWAP1 PUSH2 0x100 EXP SWAP1 DIV PUSH20 0xFFFFFFFFFFFFFFFFFFFFFFFFFFFFFFFFFFFFFFFF AND PUSH20 0xFFFFFFFFFFFFFFFFFFFFFFFFFFFFFFFFFFFFFFFF AND PUSH32 0xE71DB61460CADE63BDCE2BD520284D5FCDE93EB8604BE23456AC0761C5CB4D9 DUP4 DUP6 PUSH1 0x40 MLOAD PUSH2 0x20C1 SWAP3 SWAP2 SWAP1 PUSH2 0x4B39 JUMP JUMPDEST PUSH1 0x40 MLOAD DUP1 SWAP2 SUB SWAP1 LOG2 PUSH1 0x1 PUSH0 SWAP1 SLOAD SWAP1 PUSH2 0x100 EXP SWAP1 DIV PUSH20 0xFFFFFFFFFFFFFFFFFFFFFFFFFFFFFFFFFFFFFFFF AND PUSH20 0xFFFFFFFFFFFFFFFFFFFFFFFFFFFFFFFFFFFFFFFF AND PUSH2 0x8FC DUP4 SWAP1 DUP2 ISZERO MUL SWAP1 PUSH1 0x40 MLOAD PUSH0 PUSH1 0x40 MLOAD DUP1 DUP4 SUB DUP2 DUP6 DUP9 DUP9 CALL SWAP4 POP POP POP POP ISZERO DUP1 ISZERO PUSH2 0x212D JUMPI RETURNDATASIZE PUSH0 PUSH0 RETURNDATACOPY RETURNDATASIZE PUSH0 REVERT JUMPDEST POP POP JUMPDEST POP PUSH2 0x2139 PUSH2 0x3A52 JUMP JUMPDEST POP POP JUMP JUMPDEST PUSH1 0x2 PUSH0 SWAP1 SLOAD SWAP1 PUSH2 0x100 EXP SWAP1 DIV PUSH20 0xFFFFFFFFFFFFFFFFFFFFFFFFFFFFFFFFFFFFFFFF AND PUSH20 0xFFFFFFFFFFFFFFFFFFFFFFFFFFFFFFFFFFFFFFFF AND CALLER PUSH20 0xFFFFFFFFFFFFFFFFFFFFFFFFFFFFFFFFFFFFFFFF AND EQ PUSH2 0x21CC JUMPI PUSH1 0x40 MLOAD PUSH32 0x8C379A000000000000000000000000000000000000000000000000000000000 DUP2 MSTORE PUSH1 0x4 ADD PUSH2 0x21C3 SWAP1 PUSH2 0x44AE JUMP JUMPDEST PUSH1 0x40 MLOAD DUP1 SWAP2 SUB SWAP1 REVERT JUMPDEST PUSH1 0x2 DUP1 DUP2 GT ISZERO PUSH2 0x21DF JUMPI PUSH2 0x21DE PUSH2 0x3D27 JUMP JUMPDEST JUMPDEST PUSH1 0x16 PUSH0 SWAP1 SLOAD SWAP1 PUSH2 0x100 EXP SWAP1 DIV PUSH1 0xFF AND PUSH1 0x2 DUP2 GT ISZERO PUSH2 0x2200 JUMPI PUSH2 0x21FF PUSH2 0x3D27 JUMP JUMPDEST JUMPDEST EQ PUSH2 0x2240 JUMPI PUSH1 0x40 MLOAD PUSH32 0x8C379A000000000000000000000000000000000000000000000000000000000 DUP2 MSTORE PUSH1 0x4 ADD PUSH2 0x2237 SWAP1 PUSH2 0x4C3F JUMP JUMPDEST PUSH1 0x40 MLOAD DUP1 SWAP2 SUB SWAP1 REVERT JUMPDEST PUSH1 0x14 PUSH0 SWAP1 SLOAD SWAP1 PUSH2 0x100 EXP SWAP1 DIV PUSH1 0xFF AND PUSH2 0x228E JUMPI PUSH1 0x40 MLOAD PUSH32 0x8C379A000000000000000000000000000000000000000000000000000000000 DUP2 MSTORE PUSH1 0x4 ADD PUSH2 0x2285 SWAP1 PUSH2 0x4CCD JUMP JUMPDEST PUSH1 0x40 MLOAD DUP1 SWAP2 SUB SWAP1 REVERT JUMPDEST PUSH1 0x1 PUSH1 0x16 PUSH0 PUSH2 0x100 EXP DUP2 SLOAD DUP2 PUSH1 0xFF MUL NOT AND SWAP1 DUP4 PUSH1 0x2 DUP2 GT ISZERO PUSH2 0x22B3 JUMPI PUSH2 0x22B2 PUSH2 0x3D27 JUMP JUMPDEST JUMPDEST MUL OR SWAP1 SSTORE POP PUSH0 PUSH1 0x14 PUSH0 PUSH2 0x100 EXP DUP2 SLOAD DUP2 PUSH1 0xFF MUL NOT AND SWAP1 DUP4 ISZERO ISZERO MUL OR SWAP1 SSTORE POP CALLER PUSH20 0xFFFFFFFFFFFFFFFFFFFFFFFFFFFFFFFFFFFFFFFF AND PUSH32 0x7B73F5D770F3EB41FD57F1E6A1C9E2A5EC61FEBBBD4E608D511C46E3FD611639 PUSH1 0x40 MLOAD PUSH2 0x2315 SWAP1 PUSH2 0x4D5B JUMP JUMPDEST PUSH1 0x40 MLOAD DUP1 SWAP2 SUB SWAP1 LOG2 JUMP JUMPDEST PUSH1 0x2 PUSH0 SWAP1 SLOAD SWAP1 PUSH2 0x100 EXP SWAP1 DIV PUSH20 0xFFFFFFFFFFFFFFFFFFFFFFFFFFFFFFFFFFFFFFFF AND PUSH20 0xFFFFFFFFFFFFFFFFFFFFFFFFFFFFFFFFFFFFFFFF AND CALLER PUSH20 0xFFFFFFFFFFFFFFFFFFFFFFFFFFFFFFFFFFFFFFFF AND EQ PUSH2 0x23AE JUMPI PUSH1 0x40 MLOAD PUSH32 0x8C379A000000000000000000000000000000000000000000000000000000000 DUP2 MSTORE PUSH1 0x4 ADD PUSH2 0x23A5 SWAP1 PUSH2 0x44AE JUMP JUMPDEST PUSH1 0x40 MLOAD DUP1 SWAP2 SUB SWAP1 REVERT JUMPDEST PUSH1 0x1 PUSH1 0x13 PUSH0 CALLER PUSH20 0xFFFFFFFFFFFFFFFFFFFFFFFFFFFFFFFFFFFFFFFF AND PUSH20 0xFFFFFFFFFFFFFFFFFFFFFFFFFFFFFFFFFFFFFFFF AND DUP2 MSTORE PUSH1 0x20 ADD SWAP1 DUP2 MSTORE PUSH1 0x20 ADD PUSH0 KECCAK256 PUSH0 PUSH2 0x100 EXP DUP2 SLOAD DUP2 PUSH1 0xFF MUL NOT AND SWAP1 DUP4 ISZERO ISZERO MUL OR SWAP1 SSTORE POP JUMP JUMPDEST PUSH1 0x17 DUP2 DUP2 SLOAD DUP2 LT PUSH2 0x2414 JUMPI PUSH0 DUP1 REVERT JUMPDEST SWAP1 PUSH0 MSTORE PUSH1 0x20 PUSH0 KECCAK256 SWAP1 PUSH1 0x3 MUL ADD PUSH0 SWAP2 POP SWAP1 POP DUP1 PUSH0 ADD SLOAD SWAP1 DUP1 PUSH1 0x1 ADD SLOAD SWAP1 DUP1 PUSH1 0x2 ADD PUSH0 SWAP1 SLOAD SWAP1 PUSH2 0x100 EXP SWAP1 DIV PUSH1 0xFF AND SWAP1 POP DUP4 JUMP JUMPDEST PUSH2 0x244E PUSH2 0x3A05 JUMP JUMPDEST PUSH1 0x2 PUSH0 SWAP1 SLOAD SWAP1 PUSH2 0x100 EXP SWAP1 DIV PUSH20 0xFFFFFFFFFFFFFFFFFFFFFFFFFFFFFFFFFFFFFFFF AND PUSH20 0xFFFFFFFFFFFFFFFFFFFFFFFFFFFFFFFFFFFFFFFF AND CALLER PUSH20 0xFFFFFFFFFFFFFFFFFFFFFFFFFFFFFFFFFFFFFFFF AND EQ PUSH2 0x24DD JUMPI PUSH1 0x40 MLOAD PUSH32 0x8C379A000000000000000000000000000000000000000000000000000000000 DUP2 MSTORE PUSH1 0x4 ADD PUSH2 0x24D4 SWAP1 PUSH2 0x44AE JUMP JUMPDEST PUSH1 0x40 MLOAD DUP1 SWAP2 SUB SWAP1 REVERT JUMPDEST PUSH1 0x1 PUSH1 0x2 DUP2 GT ISZERO PUSH2 0x24F1 JUMPI PUSH2 0x24F0 PUSH2 0x3D27 JUMP JUMPDEST JUMPDEST PUSH1 0x16 PUSH0 SWAP1 SLOAD SWAP1 PUSH2 0x100 EXP SWAP1 DIV PUSH1 0xFF AND PUSH1 0x2 DUP2 GT ISZERO PUSH2 0x2512 JUMPI PUSH2 0x2511 PUSH2 0x3D27 JUMP JUMPDEST JUMPDEST SUB PUSH2 0x2552 JUMPI PUSH1 0x40 MLOAD PUSH32 0x8C379A000000000000000000000000000000000000000000000000000000000 DUP2 MSTORE PUSH1 0x4 ADD PUSH2 0x2549 SWAP1 PUSH2 0x4516 JUMP JUMPDEST PUSH1 0x40 MLOAD DUP1 SWAP2 SUB SWAP1 REVERT JUMPDEST PUSH2 0x255A PUSH2 0xAB9 JUMP JUMPDEST PUSH0 PUSH1 0x6 PUSH0 SWAP1 SLOAD SWAP1 PUSH2 0x100 EXP SWAP1 DIV PUSH1 0xFF AND ISZERO PUSH2 0x2678 JUMPI PUSH1 0x3 SLOAD SWAP1 POP PUSH1 0x6 PUSH1 0x1 SWAP1 SLOAD SWAP1 PUSH2 0x100 EXP SWAP1 DIV PUSH20 0xFFFFFFFFFFFFFFFFFFFFFFFFFFFFFFFFFFFFFFFF AND PUSH20 0xFFFFFFFFFFFFFFFFFFFFFFFFFFFFFFFFFFFFFFFF AND PUSH4 0x23B872DD CALLER PUSH1 0x1 PUSH0 SWAP1 SLOAD SWAP1 PUSH2 0x100 EXP SWAP1 DIV PUSH20 0xFFFFFFFFFFFFFFFFFFFFFFFFFFFFFFFFFFFFFFFF AND DUP5 PUSH1 0x40 MLOAD DUP5 PUSH4 0xFFFFFFFF AND PUSH1 0xE0 SHL DUP2 MSTORE PUSH1 0x4 ADD PUSH2 0x25F4 SWAP4 SWAP3 SWAP2 SWAP1 PUSH2 0x45E9 JUMP JUMPDEST PUSH1 0x20 PUSH1 0x40 MLOAD DUP1 DUP4 SUB DUP2 PUSH0 DUP8 GAS CALL ISZERO DUP1 ISZERO PUSH2 0x2610 JUMPI RETURNDATASIZE PUSH0 PUSH0 RETURNDATACOPY RETURNDATASIZE PUSH0 REVERT JUMPDEST POP POP POP POP PUSH1 0x40 MLOAD RETURNDATASIZE PUSH1 0x1F NOT PUSH1 0x1F DUP3 ADD AND DUP3 ADD DUP1 PUSH1 0x40 MSTORE POP DUP2 ADD SWAP1 PUSH2 0x2634 SWAP2 SWAP1 PUSH2 0x4648 JUMP JUMPDEST PUSH2 0x2673 JUMPI PUSH1 0x40 MLOAD PUSH32 0x8C379A000000000000000000000000000000000000000000000000000000000 DUP2 MSTORE PUSH1 0x4 ADD PUSH2 0x266A SWAP1 PUSH2 0x4954 JUMP JUMPDEST PUSH1 0x40 MLOAD DUP1 SWAP2 SUB SWAP1 REVERT JUMPDEST PUSH2 0x27B0 JUMP JUMPDEST PUSH0 PUSH2 0x2681 PUSH2 0x1C52 JUMP JUMPDEST SWAP1 POP DUP1 PUSH11 0x52B7D2DCC80CD2E4000000 PUSH1 0x3 SLOAD PUSH2 0x269D SWAP2 SWAP1 PUSH2 0x434E JUMP JUMPDEST PUSH2 0x26A7 SWAP2 SWAP1 PUSH2 0x4233 JUMP JUMPDEST SWAP2 POP DUP2 CALLVALUE LT ISZERO PUSH2 0x26EC JUMPI PUSH1 0x40 MLOAD PUSH32 0x8C379A000000000000000000000000000000000000000000000000000000000 DUP2 MSTORE PUSH1 0x4 ADD PUSH2 0x26E3 SWAP1 PUSH2 0x4DC3 JUMP JUMPDEST PUSH1 0x40 MLOAD DUP1 SWAP2 SUB SWAP1 REVERT JUMPDEST PUSH1 0x1 PUSH0 SWAP1 SLOAD SWAP1 PUSH2 0x100 EXP SWAP1 DIV PUSH20 0xFFFFFFFFFFFFFFFFFFFFFFFFFFFFFFFFFFFFFFFF AND PUSH20 0xFFFFFFFFFFFFFFFFFFFFFFFFFFFFFFFFFFFFFFFF AND PUSH2 0x8FC DUP4 SWAP1 DUP2 ISZERO MUL SWAP1 PUSH1 0x40 MLOAD PUSH0 PUSH1 0x40 MLOAD DUP1 DUP4 SUB DUP2 DUP6 DUP9 DUP9 CALL SWAP4 POP POP POP POP ISZERO DUP1 ISZERO PUSH2 0x2750 JUMPI RETURNDATASIZE PUSH0 PUSH0 RETURNDATACOPY RETURNDATASIZE PUSH0 REVERT JUMPDEST POP DUP2 CALLVALUE GT ISZERO PUSH2 0x27AE JUMPI PUSH0 DUP3 CALLVALUE PUSH2 0x2766 SWAP2 SWAP1 PUSH2 0x41D3 JUMP JUMPDEST SWAP1 POP CALLER PUSH20 0xFFFFFFFFFFFFFFFFFFFFFFFFFFFFFFFFFFFFFFFF AND PUSH2 0x8FC DUP3 SWAP1 DUP2 ISZERO MUL SWAP1 PUSH1 0x40 MLOAD PUSH0 PUSH1 0x40 MLOAD DUP1 DUP4 SUB DUP2 DUP6 DUP9 DUP9 CALL SWAP4 POP POP POP POP ISZERO DUP1 ISZERO PUSH2 0x27AB JUMPI RETURNDATASIZE PUSH0 PUSH0 RETURNDATACOPY RETURNDATASIZE PUSH0 REVERT JUMPDEST POP POP JUMPDEST POP JUMPDEST CALLER PUSH20 0xFFFFFFFFFFFFFFFFFFFFFFFFFFFFFFFFFFFFFFFF AND PUSH32 0xA0E44CC6F4F184BC83E145BF7F0CC703B7F698476124CF6A9D7D403D202E77FD DUP3 PUSH1 0x6 PUSH0 SWAP1 SLOAD SWAP1 PUSH2 0x100 EXP SWAP1 DIV PUSH1 0xFF AND PUSH1 0x40 MLOAD PUSH2 0x2806 SWAP3 SWAP2 SWAP1 PUSH2 0x45C2 JUMP JUMPDEST PUSH1 0x40 MLOAD DUP1 SWAP2 SUB SWAP1 LOG2 DUP1 PUSH1 0xD SLOAD GT PUSH2 0x2823 JUMPI PUSH0 PUSH1 0xD DUP2 SWAP1 SSTORE POP PUSH2 0x283C JUMP JUMPDEST DUP1 PUSH1 0xD PUSH0 DUP3 DUP3 SLOAD PUSH2 0x2834 SWAP2 SWAP1 PUSH2 0x41D3 JUMP JUMPDEST SWAP3 POP POP DUP2 SWAP1 SSTORE POP JUMPDEST PUSH1 0x17 PUSH1 0x40 MLOAD DUP1 PUSH1 0x60 ADD PUSH1 0x40 MSTORE DUP1 TIMESTAMP DUP2 MSTORE PUSH1 0x20 ADD DUP4 DUP2 MSTORE PUSH1 0x20 ADD PUSH1 0x6 PUSH0 SWAP1 SLOAD SWAP1 PUSH2 0x100 EXP SWAP1 DIV PUSH1 0xFF AND ISZERO ISZERO DUP2 MSTORE POP SWAP1 DUP1 PUSH1 0x1 DUP2 SLOAD ADD DUP1 DUP3 SSTORE DUP1 SWAP2 POP POP PUSH1 0x1 SWAP1 SUB SWAP1 PUSH0 MSTORE PUSH1 0x20 PUSH0 KECCAK256 SWAP1 PUSH1 0x3 MUL ADD PUSH0 SWAP1 SWAP2 SWAP1 SWAP2 SWAP1 SWAP2 POP PUSH0 DUP3 ADD MLOAD DUP2 PUSH0 ADD SSTORE PUSH1 0x20 DUP3 ADD MLOAD DUP2 PUSH1 0x1 ADD SSTORE PUSH1 0x40 DUP3 ADD MLOAD DUP2 PUSH1 0x2 ADD PUSH0 PUSH2 0x100 EXP DUP2 SLOAD DUP2 PUSH1 0xFF MUL NOT AND SWAP1 DUP4 ISZERO ISZERO MUL OR SWAP1 SSTORE POP POP POP POP PUSH2 0x28CB PUSH2 0x3A52 JUMP JUMPDEST JUMP JUMPDEST PUSH1 0x2 PUSH0 SWAP1 SLOAD SWAP1 PUSH2 0x100 EXP SWAP1 DIV PUSH20 0xFFFFFFFFFFFFFFFFFFFFFFFFFFFFFFFFFFFFFFFF AND PUSH20 0xFFFFFFFFFFFFFFFFFFFFFFFFFFFFFFFFFFFFFFFF AND CALLER PUSH20 0xFFFFFFFFFFFFFFFFFFFFFFFFFFFFFFFFFFFFFFFF AND EQ PUSH2 0x295C JUMPI PUSH1 0x40 MLOAD PUSH32 0x8C379A000000000000000000000000000000000000000000000000000000000 DUP2 MSTORE PUSH1 0x4 ADD PUSH2 0x2953 SWAP1 PUSH2 0x44AE JUMP JUMPDEST PUSH1 0x40 MLOAD DUP1 SWAP2 SUB SWAP1 REVERT JUMPDEST PUSH0 PUSH1 0x13 PUSH0 CALLER PUSH20 0xFFFFFFFFFFFFFFFFFFFFFFFFFFFFFFFFFFFFFFFF AND PUSH20 0xFFFFFFFFFFFFFFFFFFFFFFFFFFFFFFFFFFFFFFFF AND DUP2 MSTORE PUSH1 0x20 ADD SWAP1 DUP2 MSTORE PUSH1 0x20 ADD PUSH0 KECCAK256 PUSH0 PUSH2 0x100 EXP DUP2 SLOAD DUP2 PUSH1 0xFF MUL NOT AND SWAP1 DUP4 ISZERO ISZERO MUL OR SWAP1 SSTORE POP JUMP JUMPDEST PUSH1 0x2 PUSH0 SWAP1 SLOAD SWAP1 PUSH2 0x100 EXP SWAP1 DIV PUSH20 0xFFFFFFFFFFFFFFFFFFFFFFFFFFFFFFFFFFFFFFFF AND DUP2 JUMP JUMPDEST PUSH1 0x60 PUSH1 0x17 DUP1 SLOAD DUP1 PUSH1 0x20 MUL PUSH1 0x20 ADD PUSH1 0x40 MLOAD SWAP1 DUP2 ADD PUSH1 0x40 MSTORE DUP1 SWAP3 SWAP2 SWAP1 DUP2 DUP2 MSTORE PUSH1 0x20 ADD PUSH0 SWAP1 JUMPDEST DUP3 DUP3 LT ISZERO PUSH2 0x2A57 JUMPI DUP4 DUP3 SWAP1 PUSH0 MSTORE PUSH1 0x20 PUSH0 KECCAK256 SWAP1 PUSH1 0x3 MUL ADD PUSH1 0x40 MLOAD DUP1 PUSH1 0x60 ADD PUSH1 0x40 MSTORE SWAP1 DUP2 PUSH0 DUP3 ADD SLOAD DUP2 MSTORE PUSH1 0x20 ADD PUSH1 0x1 DUP3 ADD SLOAD DUP2 MSTORE PUSH1 0x20 ADD PUSH1 0x2 DUP3 ADD PUSH0 SWAP1 SLOAD SWAP1 PUSH2 0x100 EXP SWAP1 DIV PUSH1 0xFF AND ISZERO ISZERO ISZERO ISZERO DUP2 MSTORE POP POP DUP2 MSTORE PUSH1 0x20 ADD SWAP1 PUSH1 0x1 ADD SWAP1 PUSH2 0x29FA JUMP JUMPDEST POP POP POP POP SWAP1 POP SWAP1 JUMP JUMPDEST PUSH1 0x60 PUSH0 PUSH1 0x2 DUP2 GT ISZERO PUSH2 0x2A75 JUMPI PUSH2 0x2A74 PUSH2 0x3D27 JUMP JUMPDEST JUMPDEST PUSH1 0x16 PUSH0 SWAP1 SLOAD SWAP1 PUSH2 0x100 EXP SWAP1 DIV PUSH1 0xFF AND PUSH1 0x2 DUP2 GT ISZERO PUSH2 0x2A96 JUMPI PUSH2 0x2A95 PUSH2 0x3D27 JUMP JUMPDEST JUMPDEST SUB PUSH2 0x2AD8 JUMPI PUSH1 0x40 MLOAD DUP1 PUSH1 0x40 ADD PUSH1 0x40 MSTORE DUP1 PUSH1 0x6 DUP2 MSTORE PUSH1 0x20 ADD PUSH32 0x4163746976650000000000000000000000000000000000000000000000000000 DUP2 MSTORE POP SWAP1 POP PUSH2 0x2B88 JUMP JUMPDEST PUSH1 0x1 PUSH1 0x2 DUP2 GT ISZERO PUSH2 0x2AEC JUMPI PUSH2 0x2AEB PUSH2 0x3D27 JUMP JUMPDEST JUMPDEST PUSH1 0x16 PUSH0 SWAP1 SLOAD SWAP1 PUSH2 0x100 EXP SWAP1 DIV PUSH1 0xFF AND PUSH1 0x2 DUP2 GT ISZERO PUSH2 0x2B0D JUMPI PUSH2 0x2B0C PUSH2 0x3D27 JUMP JUMPDEST JUMPDEST SUB PUSH2 0x2B4F JUMPI PUSH1 0x40 MLOAD DUP1 PUSH1 0x40 ADD PUSH1 0x40 MSTORE DUP1 PUSH1 0xA DUP2 MSTORE PUSH1 0x20 ADD PUSH32 0x5465726D696E6174656400000000000000000000000000000000000000000000 DUP2 MSTORE POP SWAP1 POP PUSH2 0x2B88 JUMP JUMPDEST PUSH1 0x40 MLOAD DUP1 PUSH1 0x40 ADD PUSH1 0x40 MSTORE DUP1 PUSH1 0x12 DUP2 MSTORE PUSH1 0x20 ADD PUSH32 0x50656E64696E675465726D696E6174696F6E0000000000000000000000000000 DUP2 MSTORE POP SWAP1 POP JUMPDEST SWAP1 JUMP JUMPDEST PUSH1 0x2 PUSH0 SWAP1 SLOAD SWAP1 PUSH2 0x100 EXP SWAP1 DIV PUSH20 0xFFFFFFFFFFFFFFFFFFFFFFFFFFFFFFFFFFFFFFFF AND PUSH20 0xFFFFFFFFFFFFFFFFFFFFFFFFFFFFFFFFFFFFFFFF AND CALLER PUSH20 0xFFFFFFFFFFFFFFFFFFFFFFFFFFFFFFFFFFFFFFFF AND EQ PUSH2 0x2C1A JUMPI PUSH1 0x40 MLOAD PUSH32 0x8C379A000000000000000000000000000000000000000000000000000000000 DUP2 MSTORE PUSH1 0x4 ADD PUSH2 0x2C11 SWAP1 PUSH2 0x44AE JUMP JUMPDEST PUSH1 0x40 MLOAD DUP1 SWAP2 SUB SWAP1 REVERT JUMPDEST PUSH0 PUSH1 0x2 DUP2 GT ISZERO PUSH2 0x2C2D JUMPI PUSH2 0x2C2C PUSH2 0x3D27 JUMP JUMPDEST JUMPDEST PUSH1 0x16 PUSH0 SWAP1 SLOAD SWAP1 PUSH2 0x100 EXP SWAP1 DIV PUSH1 0xFF AND PUSH1 0x2 DUP2 GT ISZERO PUSH2 0x2C4E JUMPI PUSH2 0x2C4D PUSH2 0x3D27 JUMP JUMPDEST JUMPDEST EQ PUSH2 0x2C8E JUMPI PUSH1 0x40 MLOAD PUSH32 0x8C379A000000000000000000000000000000000000000000000000000000000 DUP2 MSTORE PUSH1 0x4 ADD PUSH2 0x2C85 SWAP1 PUSH2 0x4E2B JUMP JUMPDEST PUSH1 0x40 MLOAD DUP1 SWAP2 SUB SWAP1 REVERT JUMPDEST PUSH1 0x1 PUSH1 0x12 PUSH0 PUSH2 0x100 EXP DUP2 SLOAD DUP2 PUSH1 0xFF MUL NOT AND SWAP1 DUP4 ISZERO ISZERO MUL OR SWAP1 SSTORE POP CALLER PUSH20 0xFFFFFFFFFFFFFFFFFFFFFFFFFFFFFFFFFFFFFFFF AND PUSH32 0xE50DD892821A34EA6A05E9560E362467EB50BDAA8A01F3807E5778B21296A41A PUSH1 0x40 MLOAD PUSH1 0x40 MLOAD DUP1 SWAP2 SUB SWAP1 LOG2 JUMP JUMPDEST PUSH1 0x14 PUSH0 SWAP1 SLOAD SWAP1 PUSH2 0x100 EXP SWAP1 DIV PUSH1 0xFF AND DUP2 JUMP JUMPDEST PUSH1 0x6 PUSH1 0x1 SWAP1 SLOAD SWAP1 PUSH2 0x100 EXP SWAP1 DIV PUSH20 0xFFFFFFFFFFFFFFFFFFFFFFFFFFFFFFFFFFFFFFFF AND DUP2 JUMP JUMPDEST PUSH1 0x2 PUSH0 SWAP1 SLOAD SWAP1 PUSH2 0x100 EXP SWAP1 DIV PUSH20 0xFFFFFFFFFFFFFFFFFFFFFFFFFFFFFFFFFFFFFFFF AND PUSH20 0xFFFFFFFFFFFFFFFFFFFFFFFFFFFFFFFFFFFFFFFF AND CALLER PUSH20 0xFFFFFFFFFFFFFFFFFFFFFFFFFFFFFFFFFFFFFFFF AND EQ PUSH2 0x2DB4 JUMPI PUSH1 0x40 MLOAD PUSH32 0x8C379A000000000000000000000000000000000000000000000000000000000 DUP2 MSTORE PUSH1 0x4 ADD PUSH2 0x2DAB SWAP1 PUSH2 0x44AE JUMP JUMPDEST PUSH1 0x40 MLOAD DUP1 SWAP2 SUB SWAP1 REVERT JUMPDEST PUSH0 PUSH1 0x2 DUP2 GT ISZERO PUSH2 0x2DC7 JUMPI PUSH2 0x2DC6 PUSH2 0x3D27 JUMP JUMPDEST JUMPDEST PUSH1 0x16 PUSH0 SWAP1 SLOAD SWAP1 PUSH2 0x100 EXP SWAP1 DIV PUSH1 0xFF AND PUSH1 0x2 DUP2 GT ISZERO PUSH2 0x2DE8 JUMPI PUSH2 0x2DE7 PUSH2 0x3D27 JUMP JUMPDEST JUMPDEST EQ PUSH2 0x2E28 JUMPI PUSH1 0x40 MLOAD PUSH32 0x8C379A000000000000000000000000000000000000000000000000000000000 DUP2 MSTORE PUSH1 0x4 ADD PUSH2 0x2E1F SWAP1 PUSH2 0x4E93 JUMP JUMPDEST PUSH1 0x40 MLOAD DUP1 SWAP2 SUB SWAP1 REVERT JUMPDEST PUSH3 0x76A700 TIMESTAMP PUSH2 0x2E37 SWAP2 SWAP1 PUSH2 0x4138 JUMP JUMPDEST PUSH1 0xF DUP2 SWAP1 SSTORE POP PUSH1 0x2 PUSH1 0x16 PUSH0 PUSH2 0x100 EXP DUP2 SLOAD DUP2 PUSH1 0xFF MUL NOT AND SWAP1 DUP4 PUSH1 0x2 DUP2 GT ISZERO PUSH2 0x2E62 JUMPI PUSH2 0x2E61 PUSH2 0x3D27 JUMP JUMPDEST JUMPDEST MUL OR SWAP1 SSTORE POP PUSH32 0x2032EEA88030B7D191BCBDC44C5AC10ED559F3E9F56A319C896F007B55ABA5C6 PUSH1 0xF SLOAD PUSH1 0x40 MLOAD PUSH2 0x2E98 SWAP2 SWAP1 PUSH2 0x3DCB JUMP JUMPDEST PUSH1 0x40 MLOAD DUP1 SWAP2 SUB SWAP1 LOG1 JUMP JUMPDEST PUSH1 0x1 PUSH0 SWAP1 SLOAD SWAP1 PUSH2 0x100 EXP SWAP1 DIV PUSH20 0xFFFFFFFFFFFFFFFFFFFFFFFFFFFFFFFFFFFFFFFF AND PUSH20 0xFFFFFFFFFFFFFFFFFFFFFFFFFFFFFFFFFFFFFFFF AND CALLER PUSH20 0xFFFFFFFFFFFFFFFFFFFFFFFFFFFFFFFFFFFFFFFF AND EQ PUSH2 0x2F31 JUMPI PUSH1 0x40 MLOAD PUSH32 0x8C379A000000000000000000000000000000000000000000000000000000000 DUP2 MSTORE PUSH1 0x4 ADD PUSH2 0x2F28 SWAP1 PUSH2 0x4086 JUMP JUMPDEST PUSH1 0x40 MLOAD DUP1 SWAP2 SUB SWAP1 REVERT JUMPDEST PUSH3 0x93A80 PUSH20 0x0 PUSH4 0x5468AF10 PUSH1 0x15 SLOAD PUSH1 0x40 MLOAD DUP3 PUSH4 0xFFFFFFFF AND PUSH1 0xE0 SHL DUP2 MSTORE PUSH1 0x4 ADD PUSH2 0x2F6E SWAP2 SWAP1 PUSH2 0x40B3 JUMP JUMPDEST PUSH1 0x20 PUSH1 0x40 MLOAD DUP1 DUP4 SUB DUP2 DUP7 GAS DELEGATECALL ISZERO DUP1 ISZERO PUSH2 0x2F89 JUMPI RETURNDATASIZE PUSH0 PUSH0 RETURNDATACOPY RETURNDATASIZE PUSH0 REVERT JUMPDEST POP POP POP POP PUSH1 0x40 MLOAD RETURNDATASIZE PUSH1 0x1F NOT PUSH1 0x1F DUP3 ADD AND DUP3 ADD DUP1 PUSH1 0x40 MSTORE POP DUP2 ADD SWAP1 PUSH2 0x2FAD SWAP2 SWAP1 PUSH2 0x40E0 JUMP JUMPDEST PUSH2 0x2FB7 SWAP2 SWAP1 PUSH2 0x4138 JUMP JUMPDEST TIMESTAMP GT PUSH2 0x2FF8 JUMPI PUSH1 0x40 MLOAD PUSH32 0x8C379A000000000000000000000000000000000000000000000000000000000 DUP2 MSTORE PUSH1 0x4 ADD PUSH2 0x2FEF SWAP1 PUSH2 0x4EFB JUMP JUMPDEST PUSH1 0x40 MLOAD DUP1 SWAP2 SUB SWAP1 REVERT JUMPDEST PUSH1 0x1 PUSH1 0xE PUSH0 PUSH2 0x100 EXP DUP2 SLOAD DUP2 PUSH1 0xFF MUL NOT AND SWAP1 DUP4 ISZERO ISZERO MUL OR SWAP1 SSTORE POP PUSH1 0x2 PUSH0 SWAP1 SLOAD SWAP1 PUSH2 0x100 EXP SWAP1 DIV PUSH20 0xFFFFFFFFFFFFFFFFFFFFFFFFFFFFFFFFFFFFFFFF AND PUSH20 0xFFFFFFFFFFFFFFFFFFFFFFFFFFFFFFFFFFFFFFFF AND PUSH32 0x8E0013EC8EA09FB2E5FC1733FCAA4D39F199B60C282B0300ADD067402B2AA91B PUSH1 0x40 MLOAD PUSH1 0x40 MLOAD DUP1 SWAP2 SUB SWAP1 LOG2 JUMP JUMPDEST PUSH1 0xB SLOAD DUP2 JUMP JUMPDEST PUSH1 0x1 PUSH0 SWAP1 SLOAD SWAP1 PUSH2 0x100 EXP SWAP1 DIV PUSH20 0xFFFFFFFFFFFFFFFFFFFFFFFFFFFFFFFFFFFFFFFF AND DUP2 JUMP JUMPDEST PUSH1 0x1 PUSH0 SWAP1 SLOAD SWAP1 PUSH2 0x100 EXP SWAP1 DIV PUSH20 0xFFFFFFFFFFFFFFFFFFFFFFFFFFFFFFFFFFFFFFFF AND PUSH20 0xFFFFFFFFFFFFFFFFFFFFFFFFFFFFFFFFFFFFFFFF AND CALLER PUSH20 0xFFFFFFFFFFFFFFFFFFFFFFFFFFFFFFFFFFFFFFFF AND EQ PUSH2 0x3132 JUMPI PUSH1 0x40 MLOAD PUSH32 0x8C379A000000000000000000000000000000000000000000000000000000000 DUP2 MSTORE PUSH1 0x4 ADD PUSH2 0x3129 SWAP1 PUSH2 0x4086 JUMP JUMPDEST PUSH1 0x40 MLOAD DUP1 SWAP2 SUB SWAP1 REVERT JUMPDEST PUSH1 0x2 DUP1 DUP2 GT ISZERO PUSH2 0x3145 JUMPI PUSH2 0x3144 PUSH2 0x3D27 JUMP JUMPDEST JUMPDEST PUSH1 0x16 PUSH0 SWAP1 SLOAD SWAP1 PUSH2 0x100 EXP SWAP1 DIV PUSH1 0xFF AND PUSH1 0x2 DUP2 GT ISZERO PUSH2 0x3166 JUMPI PUSH2 0x3165 PUSH2 0x3D27 JUMP JUMPDEST JUMPDEST EQ PUSH2 0x31A6 JUMPI PUSH1 0x40 MLOAD PUSH32 0x8C379A000000000000000000000000000000000000000000000000000000000 DUP2 MSTORE PUSH1 0x4 ADD PUSH2 0x319D SWAP1 PUSH2 0x4F63 JUMP JUMPDEST PUSH1 0x40 MLOAD DUP1 SWAP2 SUB SWAP1 REVERT JUMPDEST PUSH1 0xF SLOAD TIMESTAMP LT ISZERO PUSH2 0x31EB JUMPI PUSH1 0x40 MLOAD PUSH32 0x8C379A000000000000000000000000000000000000000000000000000000000 DUP2 MSTORE PUSH1 0x4 ADD PUSH2 0x31E2 SWAP1 PUSH2 0x4FCB JUMP JUMPDEST PUSH1 0x40 MLOAD DUP1 SWAP2 SUB SWAP1 REVERT JUMPDEST PUSH1 0x1 PUSH1 0x16 PUSH0 PUSH2 0x100 EXP DUP2 SLOAD DUP2 PUSH1 0xFF MUL NOT AND SWAP1 DUP4 PUSH1 0x2 DUP2 GT ISZERO PUSH2 0x3210 JUMPI PUSH2 0x320F PUSH2 0x3D27 JUMP JUMPDEST JUMPDEST MUL OR SWAP1 SSTORE POP PUSH1 0x1 PUSH0 SWAP1 SLOAD SWAP1 PUSH2 0x100 EXP SWAP1 DIV PUSH20 0xFFFFFFFFFFFFFFFFFFFFFFFFFFFFFFFFFFFFFFFF AND PUSH20 0xFFFFFFFFFFFFFFFFFFFFFFFFFFFFFFFFFFFFFFFF AND PUSH32 0x7B73F5D770F3EB41FD57F1E6A1C9E2A5EC61FEBBBD4E608D511C46E3FD611639 PUSH1 0x40 MLOAD PUSH2 0x327A SWAP1 PUSH2 0x507F JUMP JUMPDEST PUSH1 0x40 MLOAD DUP1 SWAP2 SUB SWAP1 LOG2 JUMP JUMPDEST PUSH1 0x1 PUSH0 SWAP1 SLOAD SWAP1 PUSH2 0x100 EXP SWAP1 DIV PUSH20 0xFFFFFFFFFFFFFFFFFFFFFFFFFFFFFFFFFFFFFFFF AND PUSH20 0xFFFFFFFFFFFFFFFFFFFFFFFFFFFFFFFFFFFFFFFF AND CALLER PUSH20 0xFFFFFFFFFFFFFFFFFFFFFFFFFFFFFFFFFFFFFFFF AND EQ PUSH2 0x3313 JUMPI PUSH1 0x40 MLOAD PUSH32 0x8C379A000000000000000000000000000000000000000000000000000000000 DUP2 MSTORE PUSH1 0x4 ADD PUSH2 0x330A SWAP1 PUSH2 0x4086 JUMP JUMPDEST PUSH1 0x40 MLOAD DUP1 SWAP2 SUB SWAP1 REVERT JUMPDEST PUSH1 0x13 PUSH0 PUSH1 0x2 PUSH0 SWAP1 SLOAD SWAP1 PUSH2 0x100 EXP SWAP1 DIV PUSH20 0xFFFFFFFFFFFFFFFFFFFFFFFFFFFFFFFFFFFFFFFF AND PUSH20 0xFFFFFFFFFFFFFFFFFFFFFFFFFFFFFFFFFFFFFFFF AND PUSH20 0xFFFFFFFFFFFFFFFFFFFFFFFFFFFFFFFFFFFFFFFF AND DUP2 MSTORE PUSH1 0x20 ADD SWAP1 DUP2 MSTORE PUSH1 0x20 ADD PUSH0 KECCAK256 PUSH0 SWAP1 SLOAD SWAP1 PUSH2 0x100 EXP SWAP1 DIV PUSH1 0xFF AND PUSH2 0x33BD JUMPI PUSH1 0x40 MLOAD PUSH32 0x8C379A000000000000000000000000000000000000000000000000000000000 DUP2 MSTORE PUSH1 0x4 ADD PUSH2 0x33B4 SWAP1 PUSH2 0x50E7 JUMP JUMPDEST PUSH1 0x40 MLOAD DUP1 SWAP2 SUB SWAP1 REVERT JUMPDEST PUSH0 PUSH1 0x2 DUP2 GT ISZERO PUSH2 0x33D0 JUMPI PUSH2 0x33CF PUSH2 0x3D27 JUMP JUMPDEST JUMPDEST PUSH1 0x16 PUSH0 SWAP1 SLOAD SWAP1 PUSH2 0x100 EXP SWAP1 DIV PUSH1 0xFF AND PUSH1 0x2 DUP2 GT ISZERO PUSH2 0x33F1 JUMPI PUSH2 0x33F0 PUSH2 0x3D27 JUMP JUMPDEST JUMPDEST EQ PUSH2 0x3431 JUMPI PUSH1 0x40 MLOAD PUSH32 0x8C379A000000000000000000000000000000000000000000000000000000000 DUP2 MSTORE PUSH1 0x4 ADD PUSH2 0x3428 SWAP1 PUSH2 0x41B5 JUMP JUMPDEST PUSH1 0x40 MLOAD DUP1 SWAP2 SUB SWAP1 REVERT JUMPDEST PUSH0 PUSH1 0x3 SLOAD SWAP1 POP PUSH1 0x6 PUSH1 0x1 SWAP1 SLOAD SWAP1 PUSH2 0x100 EXP SWAP1 DIV PUSH20 0xFFFFFFFFFFFFFFFFFFFFFFFFFFFFFFFFFFFFFFFF AND PUSH20 0xFFFFFFFFFFFFFFFFFFFFFFFFFFFFFFFFFFFFFFFF AND PUSH4 0x23B872DD PUSH1 0x2 PUSH0 SWAP1 SLOAD SWAP1 PUSH2 0x100 EXP SWAP1 DIV PUSH20 0xFFFFFFFFFFFFFFFFFFFFFFFFFFFFFFFFFFFFFFFF AND PUSH1 0x1 PUSH0 SWAP1 SLOAD SWAP1 PUSH2 0x100 EXP SWAP1 DIV PUSH20 0xFFFFFFFFFFFFFFFFFFFFFFFFFFFFFFFFFFFFFFFF AND DUP5 PUSH1 0x40 MLOAD DUP5 PUSH4 0xFFFFFFFF AND PUSH1 0xE0 SHL DUP2 MSTORE PUSH1 0x4 ADD PUSH2 0x34D8 SWAP4 SWAP3 SWAP2 SWAP1 PUSH2 0x45E9 JUMP JUMPDEST PUSH1 0x20 PUSH1 0x40 MLOAD DUP1 DUP4 SUB DUP2 PUSH0 DUP8 GAS CALL ISZERO DUP1 ISZERO PUSH2 0x34F4 JUMPI RETURNDATASIZE PUSH0 PUSH0 RETURNDATACOPY RETURNDATASIZE PUSH0 REVERT JUMPDEST POP POP POP POP PUSH1 0x40 MLOAD RETURNDATASIZE PUSH1 0x1F NOT PUSH1 0x1F DUP3 ADD AND DUP3 ADD DUP1 PUSH1 0x40 MSTORE POP DUP2 ADD SWAP1 PUSH2 0x3518 SWAP2 SWAP1 PUSH2 0x4648 JUMP JUMPDEST PUSH2 0x3557 JUMPI PUSH1 0x40 MLOAD PUSH32 0x8C379A000000000000000000000000000000000000000000000000000000000 DUP2 MSTORE PUSH1 0x4 ADD PUSH2 0x354E SWAP1 PUSH2 0x514F JUMP JUMPDEST PUSH1 0x40 MLOAD DUP1 SWAP2 SUB SWAP1 REVERT JUMPDEST PUSH1 0x17 PUSH1 0x40 MLOAD DUP1 PUSH1 0x60 ADD PUSH1 0x40 MSTORE DUP1 TIMESTAMP DUP2 MSTORE PUSH1 0x20 ADD DUP4 DUP2 MSTORE PUSH1 0x20 ADD PUSH1 0x1 ISZERO ISZERO DUP2 MSTORE POP SWAP1 DUP1 PUSH1 0x1 DUP2 SLOAD ADD DUP1 DUP3 SSTORE DUP1 SWAP2 POP POP PUSH1 0x1 SWAP1 SUB SWAP1 PUSH0 MSTORE PUSH1 0x20 PUSH0 KECCAK256 SWAP1 PUSH1 0x3 MUL ADD PUSH0 SWAP1 SWAP2 SWAP1 SWAP2 SWAP1 SWAP2 POP PUSH0 DUP3 ADD MLOAD DUP2 PUSH0 ADD SSTORE PUSH1 0x20 DUP3 ADD MLOAD DUP2 PUSH1 0x1 ADD SSTORE PUSH1 0x40 DUP3 ADD MLOAD DUP2 PUSH1 0x2 ADD PUSH0 PUSH2 0x100 EXP DUP2 SLOAD DUP2 PUSH1 0xFF MUL NOT AND SWAP1 DUP4 ISZERO ISZERO MUL OR SWAP1 SSTORE POP POP POP PUSH1 0x2 PUSH0 SWAP1 SLOAD SWAP1 PUSH2 0x100 EXP SWAP1 DIV PUSH20 0xFFFFFFFFFFFFFFFFFFFFFFFFFFFFFFFFFFFFFFFF AND PUSH20 0xFFFFFFFFFFFFFFFFFFFFFFFFFFFFFFFFFFFFFFFF AND PUSH32 0xA0E44CC6F4F184BC83E145BF7F0CC703B7F698476124CF6A9D7D403D202E77FD DUP3 PUSH1 0x1 PUSH1 0x40 MLOAD PUSH2 0x363A SWAP3 SWAP2 SWAP1 PUSH2 0x45C2 JUMP JUMPDEST PUSH1 0x40 MLOAD DUP1 SWAP2 SUB SWAP1 LOG2 POP JUMP JUMPDEST PUSH1 0xA SLOAD DUP2 JUMP JUMPDEST PUSH1 0x11 SLOAD DUP2 JUMP JUMPDEST PUSH1 0x2 PUSH0 SWAP1 SLOAD SWAP1 PUSH2 0x100 EXP SWAP1 DIV PUSH20 0xFFFFFFFFFFFFFFFFFFFFFFFFFFFFFFFFFFFFFFFF AND PUSH20 0xFFFFFFFFFFFFFFFFFFFFFFFFFFFFFFFFFFFFFFFF AND CALLER PUSH20 0xFFFFFFFFFFFFFFFFFFFFFFFFFFFFFFFFFFFFFFFF AND EQ PUSH2 0x36E0 JUMPI PUSH1 0x40 MLOAD PUSH32 0x8C379A000000000000000000000000000000000000000000000000000000000 DUP2 MSTORE PUSH1 0x4 ADD PUSH2 0x36D7 SWAP1 PUSH2 0x44AE JUMP JUMPDEST PUSH1 0x40 MLOAD DUP1 SWAP2 SUB SWAP1 REVERT JUMPDEST PUSH1 0x2 DUP1 DUP2 GT ISZERO PUSH2 0x36F3 JUMPI PUSH2 0x36F2 PUSH2 0x3D27 JUMP JUMPDEST JUMPDEST PUSH1 0x16 PUSH0 SWAP1 SLOAD SWAP1 PUSH2 0x100 EXP SWAP1 DIV PUSH1 0xFF AND PUSH1 0x2 DUP2 GT ISZERO PUSH2 0x3714 JUMPI PUSH2 0x3713 PUSH2 0x3D27 JUMP JUMPDEST JUMPDEST EQ PUSH2 0x3754 JUMPI PUSH1 0x40 MLOAD PUSH32 0x8C379A000000000000000000000000000000000000000000000000000000000 DUP2 MSTORE PUSH1 0x4 ADD PUSH2 0x374B SWAP1 PUSH2 0x51B7 JUMP JUMPDEST PUSH1 0x40 MLOAD DUP1 SWAP2 SUB SWAP1 REVERT JUMPDEST PUSH1 0xF SLOAD TIMESTAMP LT ISZERO PUSH2 0x3799 JUMPI PUSH1 0x40 MLOAD PUSH32 0x8C379A000000000000000000000000000000000000000000000000000000000 DUP2 MSTORE PUSH1 0x4 ADD PUSH2 0x3790 SWAP1 PUSH2 0x4FCB JUMP JUMPDEST PUSH1 0x40 MLOAD DUP1 SWAP2 SUB SWAP1 REVERT JUMPDEST PUSH0 PUSH1 0xD SLOAD EQ PUSH2 0x37DD JUMPI PUSH1 0x40 MLOAD PUSH32 0x8C379A000000000000000000000000000000000000000000000000000000000 DUP2 MSTORE PUSH1 0x4 ADD PUSH2 0x37D4 SWAP1 PUSH2 0x521F JUMP JUMPDEST PUSH1 0x40 MLOAD DUP1 SWAP2 SUB SWAP1 REVERT JUMPDEST PUSH1 0x1 PUSH1 0x16 PUSH0 PUSH2 0x100 EXP DUP2 SLOAD DUP2 PUSH1 0xFF MUL NOT AND SWAP1 DUP4 PUSH1 0x2 DUP2 GT ISZERO PUSH2 0x3802 JUMPI PUSH2 0x3801 PUSH2 0x3D27 JUMP JUMPDEST JUMPDEST MUL OR SWAP1 SSTORE POP PUSH1 0x2 PUSH0 SWAP1 SLOAD SWAP1 PUSH2 0x100 EXP SWAP1 DIV PUSH20 0xFFFFFFFFFFFFFFFFFFFFFFFFFFFFFFFFFFFFFFFF AND PUSH20 0xFFFFFFFFFFFFFFFFFFFFFFFFFFFFFFFFFFFFFFFF AND PUSH32 0x7B73F5D770F3EB41FD57F1E6A1C9E2A5EC61FEBBBD4E608D511C46E3FD611639 PUSH1 0x40 MLOAD PUSH2 0x386C SWAP1 PUSH2 0x52AD JUMP JUMPDEST PUSH1 0x40 MLOAD DUP1 SWAP2 SUB SWAP1 LOG2 JUMP JUMPDEST PUSH1 0x3 SLOAD DUP2 JUMP JUMPDEST PUSH1 0x1 PUSH0 SWAP1 SLOAD SWAP1 PUSH2 0x100 EXP SWAP1 DIV PUSH20 0xFFFFFFFFFFFFFFFFFFFFFFFFFFFFFFFFFFFFFFFF AND PUSH20 0xFFFFFFFFFFFFFFFFFFFFFFFFFFFFFFFFFFFFFFFF AND CALLER PUSH20 0xFFFFFFFFFFFFFFFFFFFFFFFFFFFFFFFFFFFFFFFF AND EQ PUSH2 0x390B JUMPI PUSH1 0x40 MLOAD PUSH32 0x8C379A000000000000000000000000000000000000000000000000000000000 DUP2 MSTORE PUSH1 0x4 ADD PUSH2 0x3902 SWAP1 PUSH2 0x4086 JUMP JUMPDEST PUSH1 0x40 MLOAD DUP1 SWAP2 SUB SWAP1 REVERT JUMPDEST PUSH1 0x1 ISZERO ISZERO PUSH1 0x12 PUSH0 SWAP1 SLOAD SWAP1 PUSH2 0x100 EXP SWAP1 DIV PUSH1 0xFF AND ISZERO ISZERO EQ PUSH2 0x3960 JUMPI PUSH1 0x40 MLOAD PUSH32 0x8C379A000000000000000000000000000000000000000000000000000000000 DUP2 MSTORE PUSH1 0x4 ADD PUSH2 0x3957 SWAP1 PUSH2 0x533B JUMP JUMPDEST PUSH1 0x40 MLOAD DUP1 SWAP2 SUB SWAP1 REVERT JUMPDEST PUSH1 0x1 PUSH1 0x12 PUSH1 0x1 PUSH2 0x100 EXP DUP2 SLOAD DUP2 PUSH1 0xFF MUL NOT AND SWAP1 DUP4 ISZERO ISZERO MUL OR SWAP1 SSTORE POP PUSH4 0x1E13380 PUSH1 0x10 PUSH0 DUP3 DUP3 SLOAD PUSH2 0x3990 SWAP2 SWAP1 PUSH2 0x4138 JUMP JUMPDEST SWAP3 POP POP DUP2 SWAP1 SSTORE POP PUSH0 PUSH1 0x12 PUSH0 PUSH2 0x100 EXP DUP2 SLOAD DUP2 PUSH1 0xFF MUL NOT AND SWAP1 DUP4 ISZERO ISZERO MUL OR SWAP1 SSTORE POP PUSH0 PUSH1 0x12 PUSH1 0x1 PUSH2 0x100 EXP DUP2 SLOAD DUP2 PUSH1 0xFF MUL NOT AND SWAP1 DUP4 ISZERO ISZERO MUL OR SWAP1 SSTORE POP PUSH32 0x9B92A9893C6F7C060109FBACF7A7ED7384B0D145F68541169A1A201EA42CE854 PUSH1 0x10 SLOAD PUSH1 0x40 MLOAD PUSH2 0x39FB SWAP2 SWAP1 PUSH2 0x3DCB JUMP JUMPDEST PUSH1 0x40 MLOAD DUP1 SWAP2 SUB SWAP1 LOG1 JUMP JUMPDEST PUSH1 0x2 PUSH0 SLOAD SUB PUSH2 0x3A49 JUMPI PUSH1 0x40 MLOAD PUSH32 0x8C379A000000000000000000000000000000000000000000000000000000000 DUP2 MSTORE PUSH1 0x4 ADD PUSH2 0x3A40 SWAP1 PUSH2 0x53A3 JUMP JUMPDEST PUSH1 0x40 MLOAD DUP1 SWAP2 SUB SWAP1 REVERT JUMPDEST PUSH1 0x2 PUSH0 DUP2 SWAP1 SSTORE POP JUMP JUMPDEST PUSH1 0x1 PUSH0 DUP2 SWAP1 SSTORE POP JUMP JUMPDEST PUSH0 PUSH1 0x40 MLOAD SWAP1 POP SWAP1 JUMP JUMPDEST PUSH0 PUSH0 REVERT JUMPDEST PUSH0 PUSH0 REVERT JUMPDEST PUSH0 PUSH0 REVERT JUMPDEST PUSH0 PUSH0 REVERT JUMPDEST PUSH0 PUSH1 0x1F NOT PUSH1 0x1F DUP4 ADD AND SWAP1 POP SWAP2 SWAP1 POP JUMP JUMPDEST PUSH32 0x4E487B7100000000000000000000000000000000000000000000000000000000 PUSH0 MSTORE PUSH1 0x41 PUSH1 0x4 MSTORE PUSH1 0x24 PUSH0 REVERT JUMPDEST PUSH2 0x3ABA DUP3 PUSH2 0x3A74 JUMP JUMPDEST DUP2 ADD DUP2 DUP2 LT PUSH8 0xFFFFFFFFFFFFFFFF DUP3 GT OR ISZERO PUSH2 0x3AD9 JUMPI PUSH2 0x3AD8 PUSH2 0x3A84 JUMP JUMPDEST JUMPDEST DUP1 PUSH1 0x40 MSTORE POP POP POP JUMP JUMPDEST PUSH0 PUSH2 0x3AEB PUSH2 0x3A5B JUMP JUMPDEST SWAP1 POP PUSH2 0x3AF7 DUP3 DUP3 PUSH2 0x3AB1 JUMP JUMPDEST SWAP2 SWAP1 POP JUMP JUMPDEST PUSH0 PUSH8 0xFFFFFFFFFFFFFFFF DUP3 GT ISZERO PUSH2 0x3B16 JUMPI PUSH2 0x3B15 PUSH2 0x3A84 JUMP JUMPDEST JUMPDEST PUSH2 0x3B1F DUP3 PUSH2 0x3A74 JUMP JUMPDEST SWAP1 POP PUSH1 0x20 DUP2 ADD SWAP1 POP SWAP2 SWAP1 POP JUMP JUMPDEST DUP3 DUP2 DUP4 CALLDATACOPY PUSH0 DUP4 DUP4 ADD MSTORE POP POP POP JUMP JUMPDEST PUSH0 PUSH2 0x3B4C PUSH2 0x3B47 DUP5 PUSH2 0x3AFC JUMP JUMPDEST PUSH2 0x3AE2 JUMP JUMPDEST SWAP1 POP DUP3 DUP2 MSTORE PUSH1 0x20 DUP2 ADD DUP5 DUP5 DUP5 ADD GT ISZERO PUSH2 0x3B68 JUMPI PUSH2 0x3B67 PUSH2 0x3A70 JUMP JUMPDEST JUMPDEST PUSH2 0x3B73 DUP5 DUP3 DUP6 PUSH2 0x3B2C JUMP JUMPDEST POP SWAP4 SWAP3 POP POP POP JUMP JUMPDEST PUSH0 DUP3 PUSH1 0x1F DUP4 ADD SLT PUSH2 0x3B8F JUMPI PUSH2 0x3B8E PUSH2 0x3A6C JUMP JUMPDEST JUMPDEST DUP2 CALLDATALOAD PUSH2 0x3B9F DUP5 DUP3 PUSH1 0x20 DUP7 ADD PUSH2 0x3B3A JUMP JUMPDEST SWAP2 POP POP SWAP3 SWAP2 POP POP JUMP JUMPDEST PUSH0 PUSH1 0x20 DUP3 DUP5 SUB SLT ISZERO PUSH2 0x3BBD JUMPI PUSH2 0x3BBC PUSH2 0x3A64 JUMP JUMPDEST JUMPDEST PUSH0 DUP3 ADD CALLDATALOAD PUSH8 0xFFFFFFFFFFFFFFFF DUP2 GT ISZERO PUSH2 0x3BDA JUMPI PUSH2 0x3BD9 PUSH2 0x3A68 JUMP JUMPDEST JUMPDEST PUSH2 0x3BE6 DUP5 DUP3 DUP6 ADD PUSH2 0x3B7B JUMP JUMPDEST SWAP2 POP POP SWAP3 SWAP2 POP POP JUMP JUMPDEST PUSH0 DUP2 MLOAD SWAP1 POP SWAP2 SWAP1 POP JUMP JUMPDEST PUSH0 DUP3 DUP3 MSTORE PUSH1 0x20 DUP3 ADD SWAP1 POP SWAP3 SWAP2 POP POP JUMP JUMPDEST DUP3 DUP2 DUP4 MCOPY PUSH0 DUP4 DUP4 ADD MSTORE POP POP POP JUMP JUMPDEST PUSH0 PUSH2 0x3C21 DUP3 PUSH2 0x3BEF JUMP JUMPDEST PUSH2 0x3C2B DUP2 DUP6 PUSH2 0x3BF9 JUMP JUMPDEST SWAP4 POP PUSH2 0x3C3B DUP2 DUP6 PUSH1 0x20 DUP7 ADD PUSH2 0x3C09 JUMP JUMPDEST PUSH2 0x3C44 DUP2 PUSH2 0x3A74 JUMP JUMPDEST DUP5 ADD SWAP2 POP POP SWAP3 SWAP2 POP POP JUMP JUMPDEST PUSH0 PUSH1 0x20 DUP3 ADD SWAP1 POP DUP2 DUP2 SUB PUSH0 DUP4 ADD MSTORE PUSH2 0x3C67 DUP2 DUP5 PUSH2 0x3C17 JUMP JUMPDEST SWAP1 POP SWAP3 SWAP2 POP POP JUMP JUMPDEST PUSH0 DUP2 ISZERO ISZERO SWAP1 POP SWAP2 SWAP1 POP JUMP JUMPDEST PUSH2 0x3C83 DUP2 PUSH2 0x3C6F JUMP JUMPDEST DUP3 MSTORE POP POP JUMP JUMPDEST PUSH0 PUSH1 0x20 DUP3 ADD SWAP1 POP PUSH2 0x3C9C PUSH0 DUP4 ADD DUP5 PUSH2 0x3C7A JUMP JUMPDEST SWAP3 SWAP2 POP POP JUMP JUMPDEST PUSH0 PUSH20 0xFFFFFFFFFFFFFFFFFFFFFFFFFFFFFFFFFFFFFFFF DUP3 AND SWAP1 POP SWAP2 SWAP1 POP JUMP JUMPDEST PUSH0 PUSH2 0x3CCB DUP3 PUSH2 0x3CA2 JUMP JUMPDEST SWAP1 POP SWAP2 SWAP1 POP JUMP JUMPDEST PUSH2 0x3CDB DUP2 PUSH2 0x3CC1 JUMP JUMPDEST DUP2 EQ PUSH2 0x3CE5 JUMPI PUSH0 PUSH0 REVERT JUMPDEST POP JUMP JUMPDEST PUSH0 DUP2 CALLDATALOAD SWAP1 POP PUSH2 0x3CF6 DUP2 PUSH2 0x3CD2 JUMP JUMPDEST SWAP3 SWAP2 POP POP JUMP JUMPDEST PUSH0 PUSH1 0x20 DUP3 DUP5 SUB SLT ISZERO PUSH2 0x3D11 JUMPI PUSH2 0x3D10 PUSH2 0x3A64 JUMP JUMPDEST JUMPDEST PUSH0 PUSH2 0x3D1E DUP5 DUP3 DUP6 ADD PUSH2 0x3CE8 JUMP JUMPDEST SWAP2 POP POP SWAP3 SWAP2 POP POP JUMP JUMPDEST PUSH32 0x4E487B7100000000000000000000000000000000000000000000000000000000 PUSH0 MSTORE PUSH1 0x21 PUSH1 0x4 MSTORE PUSH1 0x24 PUSH0 REVERT JUMPDEST PUSH1 0x3 DUP2 LT PUSH2 0x3D65 JUMPI PUSH2 0x3D64 PUSH2 0x3D27 JUMP JUMPDEST JUMPDEST POP JUMP JUMPDEST PUSH0 DUP2 SWAP1 POP PUSH2 0x3D75 DUP3 PUSH2 0x3D54 JUMP JUMPDEST SWAP2 SWAP1 POP JUMP JUMPDEST PUSH0 PUSH2 0x3D84 DUP3 PUSH2 0x3D68 JUMP JUMPDEST SWAP1 POP SWAP2 SWAP1 POP JUMP JUMPDEST PUSH2 0x3D94 DUP2 PUSH2 0x3D7A JUMP JUMPDEST DUP3 MSTORE POP POP JUMP JUMPDEST PUSH0 PUSH1 0x20 DUP3 ADD SWAP1 POP PUSH2 0x3DAD PUSH0 DUP4 ADD DUP5 PUSH2 0x3D8B JUMP JUMPDEST SWAP3 SWAP2 POP POP JUMP JUMPDEST PUSH0 DUP2 SWAP1 POP SWAP2 SWAP1 POP JUMP JUMPDEST PUSH2 0x3DC5 DUP2 PUSH2 0x3DB3 JUMP JUMPDEST DUP3 MSTORE POP POP JUMP JUMPDEST PUSH0 PUSH1 0x20 DUP3 ADD SWAP1 POP PUSH2 0x3DDE PUSH0 DUP4 ADD DUP5 PUSH2 0x3DBC JUMP JUMPDEST SWAP3 SWAP2 POP POP JUMP JUMPDEST PUSH2 0x3DED DUP2 PUSH2 0x3DB3 JUMP JUMPDEST DUP2 EQ PUSH2 0x3DF7 JUMPI PUSH0 PUSH0 REVERT JUMPDEST POP JUMP JUMPDEST PUSH0 DUP2 CALLDATALOAD SWAP1 POP PUSH2 0x3E08 DUP2 PUSH2 0x3DE4 JUMP JUMPDEST SWAP3 SWAP2 POP POP JUMP JUMPDEST PUSH0 PUSH0 PUSH1 0x40 DUP4 DUP6 SUB SLT ISZERO PUSH2 0x3E24 JUMPI PUSH2 0x3E23 PUSH2 0x3A64 JUMP JUMPDEST JUMPDEST PUSH0 PUSH2 0x3E31 DUP6 DUP3 DUP7 ADD PUSH2 0x3DFA JUMP JUMPDEST SWAP3 POP POP PUSH1 0x20 DUP4 ADD CALLDATALOAD PUSH8 0xFFFFFFFFFFFFFFFF DUP2 GT ISZERO PUSH2 0x3E52 JUMPI PUSH2 0x3E51 PUSH2 0x3A68 JUMP JUMPDEST JUMPDEST PUSH2 0x3E5E DUP6 DUP3 DUP7 ADD PUSH2 0x3B7B JUMP JUMPDEST SWAP2 POP POP SWAP3 POP SWAP3 SWAP1 POP JUMP JUMPDEST PUSH0 PUSH1 0x20 DUP3 DUP5 SUB SLT ISZERO PUSH2 0x3E7D JUMPI PUSH2 0x3E7C PUSH2 0x3A64 JUMP JUMPDEST JUMPDEST PUSH0 PUSH2 0x3E8A DUP5 DUP3 DUP6 ADD PUSH2 0x3DFA JUMP JUMPDEST SWAP2 POP POP SWAP3 SWAP2 POP POP JUMP JUMPDEST PUSH0 PUSH1 0x60 DUP3 ADD SWAP1 POP PUSH2 0x3EA6 PUSH0 DUP4 ADD DUP7 PUSH2 0x3DBC JUMP JUMPDEST PUSH2 0x3EB3 PUSH1 0x20 DUP4 ADD DUP6 PUSH2 0x3DBC JUMP JUMPDEST PUSH2 0x3EC0 PUSH1 0x40 DUP4 ADD DUP5 PUSH2 0x3C7A JUMP JUMPDEST SWAP5 SWAP4 POP POP POP POP JUMP JUMPDEST PUSH2 0x3ED1 DUP2 PUSH2 0x3CC1 JUMP JUMPDEST DUP3 MSTORE POP POP JUMP JUMPDEST PUSH0 PUSH1 0x20 DUP3 ADD SWAP1 POP PUSH2 0x3EEA PUSH0 DUP4 ADD DUP5 PUSH2 0x3EC8 JUMP JUMPDEST SWAP3 SWAP2 POP POP JUMP JUMPDEST PUSH0 DUP2 MLOAD SWAP1 POP SWAP2 SWAP1 POP JUMP JUMPDEST PUSH0 DUP3 DUP3 MSTORE PUSH1 0x20 DUP3 ADD SWAP1 POP SWAP3 SWAP2 POP POP JUMP JUMPDEST PUSH0 DUP2 SWAP1 POP PUSH1 0x20 DUP3 ADD SWAP1 POP SWAP2 SWAP1 POP JUMP JUMPDEST PUSH2 0x3F22 DUP2 PUSH2 0x3DB3 JUMP JUMPDEST DUP3 MSTORE POP POP JUMP JUMPDEST PUSH2 0x3F31 DUP2 PUSH2 0x3C6F JUMP JUMPDEST DUP3 MSTORE POP POP JUMP JUMPDEST PUSH1 0x60 DUP3 ADD PUSH0 DUP3 ADD MLOAD PUSH2 0x3F4B PUSH0 DUP6 ADD DUP3 PUSH2 0x3F19 JUMP JUMPDEST POP PUSH1 0x20 DUP3 ADD MLOAD PUSH2 0x3F5E PUSH1 0x20 DUP6 ADD DUP3 PUSH2 0x3F19 JUMP JUMPDEST POP PUSH1 0x40 DUP3 ADD MLOAD PUSH2 0x3F71 PUSH1 0x40 DUP6 ADD DUP3 PUSH2 0x3F28 JUMP JUMPDEST POP POP POP POP JUMP JUMPDEST PUSH0 PUSH2 0x3F82 DUP4 DUP4 PUSH2 0x3F37 JUMP JUMPDEST PUSH1 0x60 DUP4 ADD SWAP1 POP SWAP3 SWAP2 POP POP JUMP JUMPDEST PUSH0 PUSH1 0x20 DUP3 ADD SWAP1 POP SWAP2 SWAP1 POP JUMP JUMPDEST PUSH0 PUSH2 0x3FA4 DUP3 PUSH2 0x3EF0 JUMP JUMPDEST PUSH2 0x3FAE DUP2 DUP6 PUSH2 0x3EFA JUMP JUMPDEST SWAP4 POP PUSH2 0x3FB9 DUP4 PUSH2 0x3F0A JUMP JUMPDEST DUP1 PUSH0 JUMPDEST DUP4 DUP2 LT ISZERO PUSH2 0x3FE9 JUMPI DUP2 MLOAD PUSH2 0x3FD0 DUP9 DUP3 PUSH2 0x3F77 JUMP JUMPDEST SWAP8 POP PUSH2 0x3FDB DUP4 PUSH2 0x3F8E JUMP JUMPDEST SWAP3 POP POP PUSH1 0x1 DUP2 ADD SWAP1 POP PUSH2 0x3FBC JUMP JUMPDEST POP DUP6 SWAP4 POP POP POP POP SWAP3 SWAP2 POP POP JUMP JUMPDEST PUSH0 PUSH1 0x20 DUP3 ADD SWAP1 POP DUP2 DUP2 SUB PUSH0 DUP4 ADD MSTORE PUSH2 0x400E DUP2 DUP5 PUSH2 0x3F9A JUMP JUMPDEST SWAP1 POP SWAP3 SWAP2 POP POP JUMP JUMPDEST PUSH32 0x4F6E6C79206C616E646C6F72642063616E20706572666F726D20746869732061 PUSH0 DUP3 ADD MSTORE PUSH32 0x6374696F6E000000000000000000000000000000000000000000000000000000 PUSH1 0x20 DUP3 ADD MSTORE POP JUMP JUMPDEST PUSH0 PUSH2 0x4070 PUSH1 0x25 DUP4 PUSH2 0x3BF9 JUMP JUMPDEST SWAP2 POP PUSH2 0x407B DUP3 PUSH2 0x4016 JUMP JUMPDEST PUSH1 0x40 DUP3 ADD SWAP1 POP SWAP2 SWAP1 POP JUMP JUMPDEST PUSH0 PUSH1 0x20 DUP3 ADD SWAP1 POP DUP2 DUP2 SUB PUSH0 DUP4 ADD MSTORE PUSH2 0x409D DUP2 PUSH2 0x4064 JUMP JUMPDEST SWAP1 POP SWAP2 SWAP1 POP JUMP JUMPDEST PUSH2 0x40AD DUP2 PUSH2 0x3DB3 JUMP JUMPDEST DUP3 MSTORE POP POP JUMP JUMPDEST PUSH0 PUSH1 0x20 DUP3 ADD SWAP1 POP PUSH2 0x40C6 PUSH0 DUP4 ADD DUP5 PUSH2 0x40A4 JUMP JUMPDEST SWAP3 SWAP2 POP POP JUMP JUMPDEST PUSH0 DUP2 MLOAD SWAP1 POP PUSH2 0x40DA DUP2 PUSH2 0x3DE4 JUMP JUMPDEST SWAP3 SWAP2 POP POP JUMP JUMPDEST PUSH0 PUSH1 0x20 DUP3 DUP5 SUB SLT ISZERO PUSH2 0x40F5 JUMPI PUSH2 0x40F4 PUSH2 0x3A64 JUMP JUMPDEST JUMPDEST PUSH0 PUSH2 0x4102 DUP5 DUP3 DUP6 ADD PUSH2 0x40CC JUMP JUMPDEST SWAP2 POP POP SWAP3 SWAP2 POP POP JUMP JUMPDEST PUSH32 0x4E487B7100000000000000000000000000000000000000000000000000000000 PUSH0 MSTORE PUSH1 0x11 PUSH1 0x4 MSTORE PUSH1 0x24 PUSH0 REVERT JUMPDEST PUSH0 PUSH2 0x4142 DUP3 PUSH2 0x3DB3 JUMP JUMPDEST SWAP2 POP PUSH2 0x414D DUP4 PUSH2 0x3DB3 JUMP JUMPDEST SWAP3 POP DUP3 DUP3 ADD SWAP1 POP DUP1 DUP3 GT ISZERO PUSH2 0x4165 JUMPI PUSH2 0x4164 PUSH2 0x410B JUMP JUMPDEST JUMPDEST SWAP3 SWAP2 POP POP JUMP JUMPDEST PUSH32 0x436F6E7472616374206973206E6F742061637469766500000000000000000000 PUSH0 DUP3 ADD MSTORE POP JUMP JUMPDEST PUSH0 PUSH2 0x419F PUSH1 0x16 DUP4 PUSH2 0x3BF9 JUMP JUMPDEST SWAP2 POP PUSH2 0x41AA DUP3 PUSH2 0x416B JUMP JUMPDEST PUSH1 0x20 DUP3 ADD SWAP1 POP SWAP2 SWAP1 POP JUMP JUMPDEST PUSH0 PUSH1 0x20 DUP3 ADD SWAP1 POP DUP2 DUP2 SUB PUSH0 DUP4 ADD MSTORE PUSH2 0x41CC DUP2 PUSH2 0x4193 JUMP JUMPDEST SWAP1 POP SWAP2 SWAP1 POP JUMP JUMPDEST PUSH0 PUSH2 0x41DD DUP3 PUSH2 0x3DB3 JUMP JUMPDEST SWAP2 POP PUSH2 0x41E8 DUP4 PUSH2 0x3DB3 JUMP JUMPDEST SWAP3 POP DUP3 DUP3 SUB SWAP1 POP DUP2 DUP2 GT ISZERO PUSH2 0x4200 JUMPI PUSH2 0x41FF PUSH2 0x410B JUMP JUMPDEST JUMPDEST SWAP3 SWAP2 POP POP JUMP JUMPDEST PUSH32 0x4E487B7100000000000000000000000000000000000000000000000000000000 PUSH0 MSTORE PUSH1 0x12 PUSH1 0x4 MSTORE PUSH1 0x24 PUSH0 REVERT JUMPDEST PUSH0 PUSH2 0x423D DUP3 PUSH2 0x3DB3 JUMP JUMPDEST SWAP2 POP PUSH2 0x4248 DUP4 PUSH2 0x3DB3 JUMP JUMPDEST SWAP3 POP DUP3 PUSH2 0x4258 JUMPI PUSH2 0x4257 PUSH2 0x4206 JUMP JUMPDEST JUMPDEST DUP3 DUP3 DIV SWAP1 POP SWAP3 SWAP2 POP POP JUMP JUMPDEST PUSH32 0x4E487B7100000000000000000000000000000000000000000000000000000000 PUSH0 MSTORE PUSH1 0x22 PUSH1 0x4 MSTORE PUSH1 0x24 PUSH0 REVERT JUMPDEST PUSH0 PUSH1 0x2 DUP3 DIV SWAP1 POP PUSH1 0x1 DUP3 AND DUP1 PUSH2 0x42A7 JUMPI PUSH1 0x7F DUP3 AND SWAP2 POP JUMPDEST PUSH1 0x20 DUP3 LT DUP2 SUB PUSH2 0x42BA JUMPI PUSH2 0x42B9 PUSH2 0x4263 JUMP JUMPDEST JUMPDEST POP SWAP2 SWAP1 POP JUMP JUMPDEST PUSH32 0x436F6E7472616374206D7573742062652070656E64696E672074656D696E6174 PUSH0 DUP3 ADD MSTORE PUSH32 0x696F6E0000000000000000000000000000000000000000000000000000000000 PUSH1 0x20 DUP3 ADD MSTORE POP JUMP JUMPDEST PUSH0 PUSH2 0x431A PUSH1 0x23 DUP4 PUSH2 0x3BF9 JUMP JUMPDEST SWAP2 POP PUSH2 0x4325 DUP3 PUSH2 0x42C0 JUMP JUMPDEST PUSH1 0x40 DUP3 ADD SWAP1 POP SWAP2 SWAP1 POP JUMP JUMPDEST PUSH0 PUSH1 0x20 DUP3 ADD SWAP1 POP DUP2 DUP2 SUB PUSH0 DUP4 ADD MSTORE PUSH2 0x4347 DUP2 PUSH2 0x430E JUMP JUMPDEST SWAP1 POP SWAP2 SWAP1 POP JUMP JUMPDEST PUSH0 PUSH2 0x4358 DUP3 PUSH2 0x3DB3 JUMP JUMPDEST SWAP2 POP PUSH2 0x4363 DUP4 PUSH2 0x3DB3 JUMP JUMPDEST SWAP3 POP DUP3 DUP3 MUL PUSH2 0x4371 DUP2 PUSH2 0x3DB3 JUMP JUMPDEST SWAP2 POP DUP3 DUP3 DIV DUP5 EQ DUP4 ISZERO OR PUSH2 0x4388 JUMPI PUSH2 0x4387 PUSH2 0x410B JUMP JUMPDEST JUMPDEST POP SWAP3 SWAP2 POP POP JUMP JUMPDEST PUSH32 0x4E6F2070656E64696E67207761726E696E6720746F20636F6E6669726D000000 PUSH0 DUP3 ADD MSTORE POP JUMP JUMPDEST PUSH0 PUSH2 0x43C3 PUSH1 0x1D DUP4 PUSH2 0x3BF9 JUMP JUMPDEST SWAP2 POP PUSH2 0x43CE DUP3 PUSH2 0x438F JUMP JUMPDEST PUSH1 0x20 DUP3 ADD SWAP1 POP SWAP2 SWAP1 POP JUMP JUMPDEST PUSH0 PUSH1 0x20 DUP3 ADD SWAP1 POP DUP2 DUP2 SUB PUSH0 DUP4 ADD MSTORE PUSH2 0x43F0 DUP2 PUSH2 0x43B7 JUMP JUMPDEST SWAP1 POP SWAP2 SWAP1 POP JUMP JUMPDEST PUSH0 PUSH2 0x4401 DUP3 PUSH2 0x3DB3 JUMP JUMPDEST SWAP2 POP PUSH32 0xFFFFFFFFFFFFFFFFFFFFFFFFFFFFFFFFFFFFFFFFFFFFFFFFFFFFFFFFFFFFFFFF DUP3 SUB PUSH2 0x4433 JUMPI PUSH2 0x4432 PUSH2 0x410B JUMP JUMPDEST JUMPDEST PUSH1 0x1 DUP3 ADD SWAP1 POP SWAP2 SWAP1 POP JUMP JUMPDEST PUSH32 0x4F6E6C792054656E616E742063616E20706572666F726D207468697320616374 PUSH0 DUP3 ADD MSTORE PUSH32 0x696F6E0000000000000000000000000000000000000000000000000000000000 PUSH1 0x20 DUP3 ADD MSTORE POP JUMP JUMPDEST PUSH0 PUSH2 0x4498 PUSH1 0x23 DUP4 PUSH2 0x3BF9 JUMP JUMPDEST SWAP2 POP PUSH2 0x44A3 DUP3 PUSH2 0x443E JUMP JUMPDEST PUSH1 0x40 DUP3 ADD SWAP1 POP SWAP2 SWAP1 POP JUMP JUMPDEST PUSH0 PUSH1 0x20 DUP3 ADD SWAP1 POP DUP2 DUP2 SUB PUSH0 DUP4 ADD MSTORE PUSH2 0x44C5 DUP2 PUSH2 0x448C JUMP JUMPDEST SWAP1 POP SWAP2 SWAP1 POP JUMP JUMPDEST PUSH32 0x52656E74616C20636F6E7472616374206973206E6F7420616374697665000000 PUSH0 DUP3 ADD MSTORE POP JUMP JUMPDEST PUSH0 PUSH2 0x4500 PUSH1 0x1D DUP4 PUSH2 0x3BF9 JUMP JUMPDEST SWAP2 POP PUSH2 0x450B DUP3 PUSH2 0x44CC JUMP JUMPDEST PUSH1 0x20 DUP3 ADD SWAP1 POP SWAP2 SWAP1 POP JUMP JUMPDEST PUSH0 PUSH1 0x20 DUP3 ADD SWAP1 POP DUP2 DUP2 SUB PUSH0 DUP4 ADD MSTORE PUSH2 0x452D DUP2 PUSH2 0x44F4 JUMP JUMPDEST SWAP1 POP SWAP2 SWAP1 POP JUMP JUMPDEST PUSH32 0x4E6F2045544820726571756972656420666F7220737461626C65636F696E2064 PUSH0 DUP3 ADD MSTORE PUSH32 0x65706F7369740000000000000000000000000000000000000000000000000000 PUSH1 0x20 DUP3 ADD MSTORE POP JUMP JUMPDEST PUSH0 PUSH2 0x458E PUSH1 0x26 DUP4 PUSH2 0x3BF9 JUMP JUMPDEST SWAP2 POP PUSH2 0x4599 DUP3 PUSH2 0x4534 JUMP JUMPDEST PUSH1 0x40 DUP3 ADD SWAP1 POP SWAP2 SWAP1 POP JUMP JUMPDEST PUSH0 PUSH1 0x20 DUP3 ADD SWAP1 POP DUP2 DUP2 SUB PUSH0 DUP4 ADD MSTORE PUSH2 0x45BB DUP2 PUSH2 0x4582 JUMP JUMPDEST SWAP1 POP SWAP2 SWAP1 POP JUMP JUMPDEST PUSH0 PUSH1 0x40 DUP3 ADD SWAP1 POP PUSH2 0x45D5 PUSH0 DUP4 ADD DUP6 PUSH2 0x3DBC JUMP JUMPDEST PUSH2 0x45E2 PUSH1 0x20 DUP4 ADD DUP5 PUSH2 0x3C7A JUMP JUMPDEST SWAP4 SWAP3 POP POP POP JUMP JUMPDEST PUSH0 PUSH1 0x60 DUP3 ADD SWAP1 POP PUSH2 0x45FC PUSH0 DUP4 ADD DUP7 PUSH2 0x3EC8 JUMP JUMPDEST PUSH2 0x4609 PUSH1 0x20 DUP4 ADD DUP6 PUSH2 0x3EC8 JUMP JUMPDEST PUSH2 0x4616 PUSH1 0x40 DUP4 ADD DUP5 PUSH2 0x3DBC JUMP JUMPDEST SWAP5 SWAP4 POP POP POP POP JUMP JUMPDEST PUSH2 0x4627 DUP2 PUSH2 0x3C6F JUMP JUMPDEST DUP2 EQ PUSH2 0x4631 JUMPI PUSH0 PUSH0 REVERT JUMPDEST POP JUMP JUMPDEST PUSH0 DUP2 MLOAD SWAP1 POP PUSH2 0x4642 DUP2 PUSH2 0x461E JUMP JUMPDEST SWAP3 SWAP2 POP POP JUMP JUMPDEST PUSH0 PUSH1 0x20 DUP3 DUP5 SUB SLT ISZERO PUSH2 0x465D JUMPI PUSH2 0x465C PUSH2 0x3A64 JUMP JUMPDEST JUMPDEST PUSH0 PUSH2 0x466A DUP5 DUP3 DUP6 ADD PUSH2 0x4634 JUMP JUMPDEST SWAP2 POP POP SWAP3 SWAP2 POP POP JUMP JUMPDEST PUSH32 0x537461626C65636F696E206465706F736974206661696C656400000000000000 PUSH0 DUP3 ADD MSTORE POP JUMP JUMPDEST PUSH0 PUSH2 0x46A7 PUSH1 0x19 DUP4 PUSH2 0x3BF9 JUMP JUMPDEST SWAP2 POP PUSH2 0x46B2 DUP3 PUSH2 0x4673 JUMP JUMPDEST PUSH1 0x20 DUP3 ADD SWAP1 POP SWAP2 SWAP1 POP JUMP JUMPDEST PUSH0 PUSH1 0x20 DUP3 ADD SWAP1 POP DUP2 DUP2 SUB PUSH0 DUP4 ADD MSTORE PUSH2 0x46D4 DUP2 PUSH2 0x469B JUMP JUMPDEST SWAP1 POP SWAP2 SWAP1 POP JUMP JUMPDEST PUSH32 0x496E73756666696369656E74204554482073656E740000000000000000000000 PUSH0 DUP3 ADD MSTORE POP JUMP JUMPDEST PUSH0 PUSH2 0x470F PUSH1 0x15 DUP4 PUSH2 0x3BF9 JUMP JUMPDEST SWAP2 POP PUSH2 0x471A DUP3 PUSH2 0x46DB JUMP JUMPDEST PUSH1 0x20 DUP3 ADD SWAP1 POP SWAP2 SWAP1 POP JUMP JUMPDEST PUSH0 PUSH1 0x20 DUP3 ADD SWAP1 POP DUP2 DUP2 SUB PUSH0 DUP4 ADD MSTORE PUSH2 0x473C DUP2 PUSH2 0x4703 JUMP JUMPDEST SWAP1 POP SWAP2 SWAP1 POP JUMP JUMPDEST PUSH32 0x436F6E747261637420686173206E6F7420657870697265642079657400000000 PUSH0 DUP3 ADD MSTORE POP JUMP JUMPDEST PUSH0 PUSH2 0x4777 PUSH1 0x1C DUP4 PUSH2 0x3BF9 JUMP JUMPDEST SWAP2 POP PUSH2 0x4782 DUP3 PUSH2 0x4743 JUMP JUMPDEST PUSH1 0x20 DUP3 ADD SWAP1 POP SWAP2 SWAP1 POP JUMP JUMPDEST PUSH0 PUSH1 0x20 DUP3 ADD SWAP1 POP DUP2 DUP2 SUB PUSH0 DUP4 ADD MSTORE PUSH2 0x47A4 DUP2 PUSH2 0x476B JUMP JUMPDEST SWAP1 POP SWAP2 SWAP1 POP JUMP JUMPDEST PUSH32 0x436F6E747261637420686173206265656E2072656E6577656400000000000000 PUSH0 DUP3 ADD MSTORE POP JUMP JUMPDEST PUSH0 PUSH2 0x47DF PUSH1 0x19 DUP4 PUSH2 0x3BF9 JUMP JUMPDEST SWAP2 POP PUSH2 0x47EA DUP3 PUSH2 0x47AB JUMP JUMPDEST PUSH1 0x20 DUP3 ADD SWAP1 POP SWAP2 SWAP1 POP JUMP JUMPDEST PUSH0 PUSH1 0x20 DUP3 ADD SWAP1 POP DUP2 DUP2 SUB PUSH0 DUP4 ADD MSTORE PUSH2 0x480C DUP2 PUSH2 0x47D3 JUMP JUMPDEST SWAP1 POP SWAP2 SWAP1 POP JUMP JUMPDEST PUSH32 0x436F6E7472616374206578706972656420776974686F75742072656E6577616C PUSH0 DUP3 ADD MSTORE POP JUMP JUMPDEST PUSH0 PUSH2 0x4847 PUSH1 0x20 DUP4 PUSH2 0x3BF9 JUMP JUMPDEST SWAP2 POP PUSH2 0x4852 DUP3 PUSH2 0x4813 JUMP JUMPDEST PUSH1 0x20 DUP3 ADD SWAP1 POP SWAP2 SWAP1 POP JUMP JUMPDEST PUSH0 PUSH1 0x20 DUP3 ADD SWAP1 POP DUP2 DUP2 SUB PUSH0 DUP4 ADD MSTORE PUSH2 0x4874 DUP2 PUSH2 0x483B JUMP JUMPDEST SWAP1 POP SWAP2 SWAP1 POP JUMP JUMPDEST PUSH32 0x436F6E7472616374206D75737420626572207465726D696E6174656400000000 PUSH0 DUP3 ADD MSTORE POP JUMP JUMPDEST PUSH0 PUSH2 0x48AF PUSH1 0x1C DUP4 PUSH2 0x3BF9 JUMP JUMPDEST SWAP2 POP PUSH2 0x48BA DUP3 PUSH2 0x487B JUMP JUMPDEST PUSH1 0x20 DUP3 ADD SWAP1 POP SWAP2 SWAP1 POP JUMP JUMPDEST PUSH0 PUSH1 0x20 DUP3 ADD SWAP1 POP DUP2 DUP2 SUB PUSH0 DUP4 ADD MSTORE PUSH2 0x48DC DUP2 PUSH2 0x48A3 JUMP JUMPDEST SWAP1 POP SWAP2 SWAP1 POP JUMP JUMPDEST PUSH0 PUSH1 0x40 DUP3 ADD SWAP1 POP PUSH2 0x48F6 PUSH0 DUP4 ADD DUP6 PUSH2 0x3EC8 JUMP JUMPDEST PUSH2 0x4903 PUSH1 0x20 DUP4 ADD DUP5 PUSH2 0x3DBC JUMP JUMPDEST SWAP4 SWAP3 POP POP POP JUMP JUMPDEST PUSH32 0x537461626C65636F696E207061796D656E74206661696C656400000000000000 PUSH0 DUP3 ADD MSTORE POP JUMP JUMPDEST PUSH0 PUSH2 0x493E PUSH1 0x19 DUP4 PUSH2 0x3BF9 JUMP JUMPDEST SWAP2 POP PUSH2 0x4949 DUP3 PUSH2 0x490A JUMP JUMPDEST PUSH1 0x20 DUP3 ADD SWAP1 POP SWAP2 SWAP1 POP JUMP JUMPDEST PUSH0 PUSH1 0x20 DUP3 ADD SWAP1 POP DUP2 DUP2 SUB PUSH0 DUP4 ADD MSTORE PUSH2 0x496B DUP2 PUSH2 0x4932 JUMP JUMPDEST SWAP1 POP SWAP2 SWAP1 POP JUMP JUMPDEST PUSH0 PUSH10 0xFFFFFFFFFFFFFFFFFFFF DUP3 AND SWAP1 POP SWAP2 SWAP1 POP JUMP JUMPDEST PUSH2 0x4990 DUP2 PUSH2 0x4972 JUMP JUMPDEST DUP2 EQ PUSH2 0x499A JUMPI PUSH0 PUSH0 REVERT JUMPDEST POP JUMP JUMPDEST PUSH0 DUP2 MLOAD SWAP1 POP PUSH2 0x49AB DUP2 PUSH2 0x4987 JUMP JUMPDEST SWAP3 SWAP2 POP POP JUMP JUMPDEST PUSH0 DUP2 SWAP1 POP SWAP2 SWAP1 POP JUMP JUMPDEST PUSH2 0x49C3 DUP2 PUSH2 0x49B1 JUMP JUMPDEST DUP2 EQ PUSH2 0x49CD JUMPI PUSH0 PUSH0 REVERT JUMPDEST POP JUMP JUMPDEST PUSH0 DUP2 MLOAD SWAP1 POP PUSH2 0x49DE DUP2 PUSH2 0x49BA JUMP JUMPDEST SWAP3 SWAP2 POP POP JUMP JUMPDEST PUSH0 PUSH0 PUSH0 PUSH0 PUSH0 PUSH1 0xA0 DUP7 DUP9 SUB SLT ISZERO PUSH2 0x49FD JUMPI PUSH2 0x49FC PUSH2 0x3A64 JUMP JUMPDEST JUMPDEST PUSH0 PUSH2 0x4A0A DUP9 DUP3 DUP10 ADD PUSH2 0x499D JUMP JUMPDEST SWAP6 POP POP PUSH1 0x20 PUSH2 0x4A1B DUP9 DUP3 DUP10 ADD PUSH2 0x49D0 JUMP JUMPDEST SWAP5 POP POP PUSH1 0x40 PUSH2 0x4A2C DUP9 DUP3 DUP10 ADD PUSH2 0x40CC JUMP JUMPDEST SWAP4 POP POP PUSH1 0x60 PUSH2 0x4A3D DUP9 DUP3 DUP10 ADD PUSH2 0x40CC JUMP JUMPDEST SWAP3 POP POP PUSH1 0x80 PUSH2 0x4A4E DUP9 DUP3 DUP10 ADD PUSH2 0x499D JUMP JUMPDEST SWAP2 POP POP SWAP3 SWAP6 POP SWAP3 SWAP6 SWAP1 SWAP4 POP JUMP JUMPDEST PUSH0 PUSH2 0x4A65 DUP3 PUSH2 0x49B1 JUMP JUMPDEST SWAP2 POP PUSH2 0x4A70 DUP4 PUSH2 0x49B1 JUMP JUMPDEST SWAP3 POP DUP3 DUP3 MUL PUSH2 0x4A7E DUP2 PUSH2 0x49B1 JUMP JUMPDEST SWAP2 POP PUSH32 0x8000000000000000000000000000000000000000000000000000000000000000 DUP5 EQ PUSH0 DUP5 SLT AND ISZERO PUSH2 0x4AB5 JUMPI PUSH2 0x4AB4 PUSH2 0x410B JUMP JUMPDEST JUMPDEST DUP3 DUP3 SDIV DUP5 EQ DUP4 ISZERO OR PUSH2 0x4ACA JUMPI PUSH2 0x4AC9 PUSH2 0x410B JUMP JUMPDEST JUMPDEST POP SWAP3 SWAP2 POP POP JUMP JUMPDEST PUSH32 0x446564756374696F6E2065786365656473206465706F73697420616D6F756E74 PUSH0 DUP3 ADD MSTORE POP JUMP JUMPDEST PUSH0 PUSH2 0x4B05 PUSH1 0x20 DUP4 PUSH2 0x3BF9 JUMP JUMPDEST SWAP2 POP PUSH2 0x4B10 DUP3 PUSH2 0x4AD1 JUMP JUMPDEST PUSH1 0x20 DUP3 ADD SWAP1 POP SWAP2 SWAP1 POP JUMP JUMPDEST PUSH0 PUSH1 0x20 DUP3 ADD SWAP1 POP DUP2 DUP2 SUB PUSH0 DUP4 ADD MSTORE PUSH2 0x4B32 DUP2 PUSH2 0x4AF9 JUMP JUMPDEST SWAP1 POP SWAP2 SWAP1 POP JUMP JUMPDEST PUSH0 PUSH1 0x40 DUP3 ADD SWAP1 POP PUSH2 0x4B4C PUSH0 DUP4 ADD DUP6 PUSH2 0x3DBC JUMP JUMPDEST DUP2 DUP2 SUB PUSH1 0x20 DUP4 ADD MSTORE PUSH2 0x4B5E DUP2 DUP5 PUSH2 0x3C17 JUMP JUMPDEST SWAP1 POP SWAP4 SWAP3 POP POP POP JUMP JUMPDEST PUSH32 0x537461626C65636F696E207472616E73666572206661696C6564000000000000 PUSH0 DUP3 ADD MSTORE POP JUMP JUMPDEST PUSH0 PUSH2 0x4B9B PUSH1 0x1A DUP4 PUSH2 0x3BF9 JUMP JUMPDEST SWAP2 POP PUSH2 0x4BA6 DUP3 PUSH2 0x4B67 JUMP JUMPDEST PUSH1 0x20 DUP3 ADD SWAP1 POP SWAP2 SWAP1 POP JUMP JUMPDEST PUSH0 PUSH1 0x20 DUP3 ADD SWAP1 POP DUP2 DUP2 SUB PUSH0 DUP4 ADD MSTORE PUSH2 0x4BC8 DUP2 PUSH2 0x4B8F JUMP JUMPDEST SWAP1 POP SWAP2 SWAP1 POP JUMP JUMPDEST PUSH32 0x436F6E747261637420206D7573742062652070656E64696E67207465726D696E PUSH0 DUP3 ADD MSTORE PUSH32 0x6174696F6E000000000000000000000000000000000000000000000000000000 PUSH1 0x20 DUP3 ADD MSTORE POP JUMP JUMPDEST PUSH0 PUSH2 0x4C29 PUSH1 0x25 DUP4 PUSH2 0x3BF9 JUMP JUMPDEST SWAP2 POP PUSH2 0x4C34 DUP3 PUSH2 0x4BCF JUMP JUMPDEST PUSH1 0x40 DUP3 ADD SWAP1 POP SWAP2 SWAP1 POP JUMP JUMPDEST PUSH0 PUSH1 0x20 DUP3 ADD SWAP1 POP DUP2 DUP2 SUB PUSH0 DUP4 ADD MSTORE PUSH2 0x4C56 DUP2 PUSH2 0x4C1D JUMP JUMPDEST SWAP1 POP SWAP2 SWAP1 POP JUMP JUMPDEST PUSH32 0x4C616E646C6F726420686173206E6F7420726571756573746564206561726C79 PUSH0 DUP3 ADD MSTORE PUSH32 0x207465726D696E6174696F6E0000000000000000000000000000000000000000 PUSH1 0x20 DUP3 ADD MSTORE POP JUMP JUMPDEST PUSH0 PUSH2 0x4CB7 PUSH1 0x2C DUP4 PUSH2 0x3BF9 JUMP JUMPDEST SWAP2 POP PUSH2 0x4CC2 DUP3 PUSH2 0x4C5D JUMP JUMPDEST PUSH1 0x40 DUP3 ADD SWAP1 POP SWAP2 SWAP1 POP JUMP JUMPDEST PUSH0 PUSH1 0x20 DUP3 ADD SWAP1 POP DUP2 DUP2 SUB PUSH0 DUP4 ADD MSTORE PUSH2 0x4CE4 DUP2 PUSH2 0x4CAB JUMP JUMPDEST SWAP1 POP SWAP2 SWAP1 POP JUMP JUMPDEST PUSH32 0x436F6E7472616374207465726D696E61746564206561726C79206279206D7574 PUSH0 DUP3 ADD MSTORE PUSH32 0x75616C2061677265656D656E7400000000000000000000000000000000000000 PUSH1 0x20 DUP3 ADD MSTORE POP JUMP JUMPDEST PUSH0 PUSH2 0x4D45 PUSH1 0x2D DUP4 PUSH2 0x3BF9 JUMP JUMPDEST SWAP2 POP PUSH2 0x4D50 DUP3 PUSH2 0x4CEB JUMP JUMPDEST PUSH1 0x40 DUP3 ADD SWAP1 POP SWAP2 SWAP1 POP JUMP JUMPDEST PUSH0 PUSH1 0x20 DUP3 ADD SWAP1 POP DUP2 DUP2 SUB PUSH0 DUP4 ADD MSTORE PUSH2 0x4D72 DUP2 PUSH2 0x4D39 JUMP JUMPDEST SWAP1 POP SWAP2 SWAP1 POP JUMP JUMPDEST PUSH32 0x496E737566666963656E74204554482073656E74000000000000000000000000 PUSH0 DUP3 ADD MSTORE POP JUMP JUMPDEST PUSH0 PUSH2 0x4DAD PUSH1 0x14 DUP4 PUSH2 0x3BF9 JUMP JUMPDEST SWAP2 POP PUSH2 0x4DB8 DUP3 PUSH2 0x4D79 JUMP JUMPDEST PUSH1 0x20 DUP3 ADD SWAP1 POP SWAP2 SWAP1 POP JUMP JUMPDEST PUSH0 PUSH1 0x20 DUP3 ADD SWAP1 POP DUP2 DUP2 SUB PUSH0 DUP4 ADD MSTORE PUSH2 0x4DDA DUP2 PUSH2 0x4DA1 JUMP JUMPDEST SWAP1 POP SWAP2 SWAP1 POP JUMP JUMPDEST PUSH32 0x436F6E74726163742068617320616C7265616479206578706972656400000000 PUSH0 DUP3 ADD MSTORE POP JUMP JUMPDEST PUSH0 PUSH2 0x4E15 PUSH1 0x1C DUP4 PUSH2 0x3BF9 JUMP JUMPDEST SWAP2 POP PUSH2 0x4E20 DUP3 PUSH2 0x4DE1 JUMP JUMPDEST PUSH1 0x20 DUP3 ADD SWAP1 POP SWAP2 SWAP1 POP JUMP JUMPDEST PUSH0 PUSH1 0x20 DUP3 ADD SWAP1 POP DUP2 DUP2 SUB PUSH0 DUP4 ADD MSTORE PUSH2 0x4E42 DUP2 PUSH2 0x4E09 JUMP JUMPDEST SWAP1 POP SWAP2 SWAP1 POP JUMP JUMPDEST PUSH32 0x436F6E7472616374206973206E6F742041637469766500000000000000000000 PUSH0 DUP3 ADD MSTORE POP JUMP JUMPDEST PUSH0 PUSH2 0x4E7D PUSH1 0x16 DUP4 PUSH2 0x3BF9 JUMP JUMPDEST SWAP2 POP PUSH2 0x4E88 DUP3 PUSH2 0x4E49 JUMP JUMPDEST PUSH1 0x20 DUP3 ADD SWAP1 POP SWAP2 SWAP1 POP JUMP JUMPDEST PUSH0 PUSH1 0x20 DUP3 ADD SWAP1 POP DUP2 DUP2 SUB PUSH0 DUP4 ADD MSTORE PUSH2 0x4EAA DUP2 PUSH2 0x4E71 JUMP JUMPDEST SWAP1 POP SWAP2 SWAP1 POP JUMP JUMPDEST PUSH32 0x5761726E696E67206E6F74206170706C696361626C6520796574000000000000 PUSH0 DUP3 ADD MSTORE POP JUMP JUMPDEST PUSH0 PUSH2 0x4EE5 PUSH1 0x1A DUP4 PUSH2 0x3BF9 JUMP JUMPDEST SWAP2 POP PUSH2 0x4EF0 DUP3 PUSH2 0x4EB1 JUMP JUMPDEST PUSH1 0x20 DUP3 ADD SWAP1 POP SWAP2 SWAP1 POP JUMP JUMPDEST PUSH0 PUSH1 0x20 DUP3 ADD SWAP1 POP DUP2 DUP2 SUB PUSH0 DUP4 ADD MSTORE PUSH2 0x4F12 DUP2 PUSH2 0x4ED9 JUMP JUMPDEST SWAP1 POP SWAP2 SWAP1 POP JUMP JUMPDEST PUSH32 0x5465726D696E6174696F6E206E6F742073636864756C65640000000000000000 PUSH0 DUP3 ADD MSTORE POP JUMP JUMPDEST PUSH0 PUSH2 0x4F4D PUSH1 0x18 DUP4 PUSH2 0x3BF9 JUMP JUMPDEST SWAP2 POP PUSH2 0x4F58 DUP3 PUSH2 0x4F19 JUMP JUMPDEST PUSH1 0x20 DUP3 ADD SWAP1 POP SWAP2 SWAP1 POP JUMP JUMPDEST PUSH0 PUSH1 0x20 DUP3 ADD SWAP1 POP DUP2 DUP2 SUB PUSH0 DUP4 ADD MSTORE PUSH2 0x4F7A DUP2 PUSH2 0x4F41 JUMP JUMPDEST SWAP1 POP SWAP2 SWAP1 POP JUMP JUMPDEST PUSH32 0x5465726D696E6174696F6E20706572696F64206E6F7420726561636865640000 PUSH0 DUP3 ADD MSTORE POP JUMP JUMPDEST PUSH0 PUSH2 0x4FB5 PUSH1 0x1E DUP4 PUSH2 0x3BF9 JUMP JUMPDEST SWAP2 POP PUSH2 0x4FC0 DUP3 PUSH2 0x4F81 JUMP JUMPDEST PUSH1 0x20 DUP3 ADD SWAP1 POP SWAP2 SWAP1 POP JUMP JUMPDEST PUSH0 PUSH1 0x20 DUP3 ADD SWAP1 POP DUP2 DUP2 SUB PUSH0 DUP4 ADD MSTORE PUSH2 0x4FE2 DUP2 PUSH2 0x4FA9 JUMP JUMPDEST SWAP1 POP SWAP2 SWAP1 POP JUMP JUMPDEST PUSH32 0x4D6F7265207468616E2033207061796D656E74732077657265206E6F74207265 PUSH0 DUP3 ADD MSTORE PUSH32 0x67697374657265642E20436F6E7472616374206973207465726D696E61746564 PUSH1 0x20 DUP3 ADD MSTORE PUSH32 0x2E00000000000000000000000000000000000000000000000000000000000000 PUSH1 0x40 DUP3 ADD MSTORE POP JUMP JUMPDEST PUSH0 PUSH2 0x5069 PUSH1 0x41 DUP4 PUSH2 0x3BF9 JUMP JUMPDEST SWAP2 POP PUSH2 0x5074 DUP3 PUSH2 0x4FE9 JUMP JUMPDEST PUSH1 0x60 DUP3 ADD SWAP1 POP SWAP2 SWAP1 POP JUMP JUMPDEST PUSH0 PUSH1 0x20 DUP3 ADD SWAP1 POP DUP2 DUP2 SUB PUSH0 DUP4 ADD MSTORE PUSH2 0x5096 DUP2 PUSH2 0x505D JUMP JUMPDEST SWAP1 POP SWAP2 SWAP1 POP JUMP JUMPDEST PUSH32 0x4175746F207061796D656E74206E6F7420617574686F72697A65640000000000 PUSH0 DUP3 ADD MSTORE POP JUMP JUMPDEST PUSH0 PUSH2 0x50D1 PUSH1 0x1B DUP4 PUSH2 0x3BF9 JUMP JUMPDEST SWAP2 POP PUSH2 0x50DC DUP3 PUSH2 0x509D JUMP JUMPDEST PUSH1 0x20 DUP3 ADD SWAP1 POP SWAP2 SWAP1 POP JUMP JUMPDEST PUSH0 PUSH1 0x20 DUP3 ADD SWAP1 POP DUP2 DUP2 SUB PUSH0 DUP4 ADD MSTORE PUSH2 0x50FE DUP2 PUSH2 0x50C5 JUMP JUMPDEST SWAP1 POP SWAP2 SWAP1 POP JUMP JUMPDEST PUSH32 0x4175746F20706179206661696C65640000000000000000000000000000000000 PUSH0 DUP3 ADD MSTORE POP JUMP JUMPDEST PUSH0 PUSH2 0x5139 PUSH1 0xF DUP4 PUSH2 0x3BF9 JUMP JUMPDEST SWAP2 POP PUSH2 0x5144 DUP3 PUSH2 0x5105 JUMP JUMPDEST PUSH1 0x20 DUP3 ADD SWAP1 POP SWAP2 SWAP1 POP JUMP JUMPDEST PUSH0 PUSH1 0x20 DUP3 ADD SWAP1 POP DUP2 DUP2 SUB PUSH0 DUP4 ADD MSTORE PUSH2 0x5166 DUP2 PUSH2 0x512D JUMP JUMPDEST SWAP1 POP SWAP2 SWAP1 POP JUMP JUMPDEST PUSH32 0x5465726D696E6174696F6E206E6F74207363686564756C656400000000000000 PUSH0 DUP3 ADD MSTORE POP JUMP JUMPDEST PUSH0 PUSH2 0x51A1 PUSH1 0x19 DUP4 PUSH2 0x3BF9 JUMP JUMPDEST SWAP2 POP PUSH2 0x51AC DUP3 PUSH2 0x516D JUMP JUMPDEST PUSH1 0x20 DUP3 ADD SWAP1 POP SWAP2 SWAP1 POP JUMP JUMPDEST PUSH0 PUSH1 0x20 DUP3 ADD SWAP1 POP DUP2 DUP2 SUB PUSH0 DUP4 ADD MSTORE PUSH2 0x51CE DUP2 PUSH2 0x5195 JUMP JUMPDEST SWAP1 POP SWAP2 SWAP1 POP JUMP JUMPDEST PUSH32 0x416C6C206465627473206D757374206265207061796564000000000000000000 PUSH0 DUP3 ADD MSTORE POP JUMP JUMPDEST PUSH0 PUSH2 0x5209 PUSH1 0x17 DUP4 PUSH2 0x3BF9 JUMP JUMPDEST SWAP2 POP PUSH2 0x5214 DUP3 PUSH2 0x51D5 JUMP JUMPDEST PUSH1 0x20 DUP3 ADD SWAP1 POP SWAP2 SWAP1 POP JUMP JUMPDEST PUSH0 PUSH1 0x20 DUP3 ADD SWAP1 POP DUP2 DUP2 SUB PUSH0 DUP4 ADD MSTORE PUSH2 0x5236 DUP2 PUSH2 0x51FD JUMP JUMPDEST SWAP1 POP SWAP2 SWAP1 POP JUMP JUMPDEST PUSH32 0x54656E616E74207465726D696E6174656420746865206C656173652061677265 PUSH0 DUP3 ADD MSTORE PUSH32 0x656D656E74000000000000000000000000000000000000000000000000000000 PUSH1 0x20 DUP3 ADD MSTORE POP JUMP JUMPDEST PUSH0 PUSH2 0x5297 PUSH1 0x25 DUP4 PUSH2 0x3BF9 JUMP JUMPDEST SWAP2 POP PUSH2 0x52A2 DUP3 PUSH2 0x523D JUMP JUMPDEST PUSH1 0x40 DUP3 ADD SWAP1 POP SWAP2 SWAP1 POP JUMP JUMPDEST PUSH0 PUSH1 0x20 DUP3 ADD SWAP1 POP DUP2 DUP2 SUB PUSH0 DUP4 ADD MSTORE PUSH2 0x52C4 DUP2 PUSH2 0x528B JUMP JUMPDEST SWAP1 POP SWAP2 SWAP1 POP JUMP JUMPDEST PUSH32 0x54656E6E616E7420686173206E6F742061736B656420666F722072656E657761 PUSH0 DUP3 ADD MSTORE PUSH32 0x6C00000000000000000000000000000000000000000000000000000000000000 PUSH1 0x20 DUP3 ADD MSTORE POP JUMP JUMPDEST PUSH0 PUSH2 0x5325 PUSH1 0x21 DUP4 PUSH2 0x3BF9 JUMP JUMPDEST SWAP2 POP PUSH2 0x5330 DUP3 PUSH2 0x52CB JUMP JUMPDEST PUSH1 0x40 DUP3 ADD SWAP1 POP SWAP2 SWAP1 POP JUMP JUMPDEST PUSH0 PUSH1 0x20 DUP3 ADD SWAP1 POP DUP2 DUP2 SUB PUSH0 DUP4 ADD MSTORE PUSH2 0x5352 DUP2 PUSH2 0x5319 JUMP JUMPDEST SWAP1 POP SWAP2 SWAP1 POP JUMP JUMPDEST PUSH32 0x5265656E7472616E637947756172643A207265656E7472616E742063616C6C00 PUSH0 DUP3 ADD MSTORE POP JUMP JUMPDEST PUSH0 PUSH2 0x538D PUSH1 0x1F DUP4 PUSH2 0x3BF9 JUMP JUMPDEST SWAP2 POP PUSH2 0x5398 DUP3 PUSH2 0x5359 JUMP JUMPDEST PUSH1 0x20 DUP3 ADD SWAP1 POP SWAP2 SWAP1 POP JUMP JUMPDEST PUSH0 PUSH1 0x20 DUP3 ADD SWAP1 POP DUP2 DUP2 SUB PUSH0 DUP4 ADD MSTORE PUSH2 0x53BA DUP2 PUSH2 0x5381 JUMP JUMPDEST SWAP1 POP SWAP2 SWAP1 POP JUMP INVALID LOG2 PUSH5 0x6970667358 0x22 SLT KECCAK256 EXTCODECOPY 0x2A DUP2 0xDB SWAP4 CALLCODE PUSH20 0x508BCD801CD2AFDC8BFE042B128E587A1B03DC9C DUP7 EQ LT BASEFEE ADD PUSH5 0x736F6C6343 STOP ADDMOD 0x1E STOP CALLER "
		},
		"gasEstimates": {
			"creation": {
				"codeDepositCost": "4299000",
				"executionCost": "infinite",
				"totalCost": "infinite"
			},
			"external": {
				"amountOwed()": "2492",
				"approveContractRenewal()": "infinite",
				"authorizeAutoPayment()": "26799",
				"autoPaymentApproved(address)": "2990",
				"calculateUpdatedDeposit()": "infinite",
				"checkAndUpdateNextPayment()": "infinite",
				"checkContractExpiration()": "infinite",
				"checkTermination()": "infinite",
				"confirmEarlyTermination()": "57791",
				"confirmWarning()": "infinite",
				"contractEndDate()": "2493",
				"contractIPFSHash()": "infinite",
				"deductFromDeposit(uint256,string)": "infinite",
				"deductedAmount()": "2536",
				"depositAmount()": "2515",
				"depositBalance()": "2515",
				"depositStartTime()": "2581",
				"earlyTerminationRequestedByLandlord()": "2511",
				"executeTenantTermination()": "37733",
				"executeTermination()": "35864",
				"getLatestInterestRate()": "infinite",
				"getLatestPrice()": "infinite",
				"getPaymentHistory()": "infinite",
				"getRentalStatus()": "infinite",
				"isStabelcoinPayment()": "2601",
				"landlord()": "2663",
				"leaseStartTimestamp()": "2491",
				"payDeposit()": "infinite",
				"payRent()": "infinite",
				"paymentDate()": "2559",
				"paymentDueDate()": "2558",
				"paymentHistory(uint256)": "infinite",
				"pendingSevereBreachWarning()": "2512",
				"processAutoPayment()": "infinite",
				"renewalApproved()": "2651",
				"renewalRequested()": "2555",
				"rentAmount()": "2535",
				"rentalStatus()": "2666",
				"requestContractRenewal()": "30102",
				"requestEarlyTerminationByLandLord()": "28856",
				"requestTerminationByTenant()": "infinite",
				"requestWarning()": "infinite",
				"returnDeposit()": "infinite",
				"revokeAutoPayment()": "26731",
				"stabelcoinAddress()": "2626",
				"tenant()": "2597",
				"terminateContract(string)": "infinite",
				"terminateContractIfNotRenewed()": "37517",
				"terminationTimeStamp()": "2558",
				"warningCount()": "2581"
			}
		},
		"methodIdentifiers": {
			"amountOwed()": "775e9fce",
			"approveContractRenewal()": "f8fd0501",
			"authorizeAutoPayment()": "9f1f9082",
			"autoPaymentApproved(address)": "1ca43edd",
			"calculateUpdatedDeposit()": "36ec98ef",
			"checkAndUpdateNextPayment()": "0752db7a",
			"checkContractExpiration()": "0abb1d7f",
			"checkTermination()": "3070c38b",
			"confirmEarlyTermination()": "9378b8c1",
			"confirmWarning()": "4d5dca5a",
			"contractEndDate()": "3e3bd90e",
			"contractIPFSHash()": "140f26bf",
			"deductFromDeposit(uint256,string)": "8e7f727f",
			"deductedAmount()": "ea9e7f6a",
			"depositAmount()": "419759f5",
			"depositBalance()": "61bc1a49",
			"depositStartTime()": "587419d5",
			"earlyTerminationRequestedByLandlord()": "d077fb10",
			"executeTenantTermination()": "f84a0f2d",
			"executeTermination()": "dd66857f",
			"getLatestInterestRate()": "7f91df9c",
			"getLatestPrice()": "8e15f473",
			"getPaymentHistory()": "b651bb61",
			"getRentalStatus()": "c3efc734",
			"isStabelcoinPayment()": "18bb32f5",
			"landlord()": "dc1997ea",
			"leaseStartTimestamp()": "f24bb69b",
			"payDeposit()": "5c274b86",
			"payRent()": "a709c4fe",
			"paymentDate()": "5561ae62",
			"paymentDueDate()": "d9ef0459",
			"paymentHistory(uint256)": "a5e047b8",
			"pendingSevereBreachWarning()": "1f85316c",
			"processAutoPayment()": "e36a03e0",
			"renewalApproved()": "33fc1183",
			"renewalRequested()": "7e076249",
			"rentAmount()": "f8ef1e13",
			"rentalStatus()": "31d019b7",
			"requestContractRenewal()": "c418c525",
			"requestEarlyTerminationByLandLord()": "2dfefcca",
			"requestTerminationByTenant()": "d426e155",
			"requestWarning()": "d6e82dca",
			"returnDeposit()": "7e88f603",
			"revokeAutoPayment()": "aa018005",
			"stabelcoinAddress()": "d39763c8",
			"tenant()": "adf07791",
			"terminateContract(string)": "03c77fa4",
			"terminateContractIfNotRenewed()": "6845071d",
			"terminationTimeStamp()": "7ec3110c",
			"warningCount()": "34cbfdfe"
		}
	},
	"abi": [
		{
			"inputs": [
				{
					"internalType": "address",
					"name": "_tenant",
					"type": "address"
				},
				{
					"internalType": "uint256",
					"name": "_rentAmount",
					"type": "uint256"
				},
				{
					"internalType": "uint256",
					"name": "_depositAmount",
					"type": "uint256"
				},
				{
					"internalType": "string",
					"name": "_contractIPFSHash",
					"type": "string"
				},
				{
					"internalType": "bool",
					"name": "_isStablecoinPayment",
					"type": "bool"
				},
				{
					"internalType": "address",
					"name": "_stablecoinAddress",
					"type": "address"
				},
				{
					"internalType": "address",
					"name": "_priceFeed",
					"type": "address"
				},
				{
					"internalType": "uint256",
					"name": "_paymentDueDate",
					"type": "uint256"
				}
			],
			"stateMutability": "nonpayable",
			"type": "constructor"
		},
		{
			"anonymous": false,
			"inputs": [
				{
					"indexed": false,
					"internalType": "uint256",
					"name": "monthsLeft",
					"type": "uint256"
				}
			],
			"name": "ContractExpirationWarning",
			"type": "event"
		},
		{
			"anonymous": false,
			"inputs": [
				{
					"indexed": true,
					"internalType": "address",
					"name": "landlord",
					"type": "address"
				}
			],
			"name": "ContractRenewalRequested",
			"type": "event"
		},
		{
			"anonymous": false,
			"inputs": [
				{
					"indexed": false,
					"internalType": "uint256",
					"name": "contractEndDate",
					"type": "uint256"
				}
			],
			"name": "ContractRenewed",
			"type": "event"
		},
		{
			"anonymous": false,
			"inputs": [
				{
					"indexed": true,
					"internalType": "address",
					"name": "landlord",
					"type": "address"
				},
				{
					"indexed": true,
					"internalType": "address",
					"name": "tenant",
					"type": "address"
				},
				{
					"indexed": false,
					"internalType": "string",
					"name": "ipfsHash",
					"type": "string"
				}
			],
			"name": "ContractSigned",
			"type": "event"
		},
		{
			"anonymous": false,
			"inputs": [
				{
					"indexed": true,
					"internalType": "address",
					"name": "landlord",
					"type": "address"
				},
				{
					"indexed": false,
					"internalType": "string",
					"name": "reason",
					"type": "string"
				}
			],
			"name": "ContractTerminated",
			"type": "event"
		},
		{
			"anonymous": false,
			"inputs": [
				{
					"indexed": false,
					"internalType": "uint256",
					"name": "val",
					"type": "uint256"
				}
			],
			"name": "Debug",
			"type": "event"
		},
		{
			"anonymous": false,
			"inputs": [
				{
					"indexed": true,
					"internalType": "address",
					"name": "landlord",
					"type": "address"
				},
				{
					"indexed": false,
					"internalType": "uint256",
					"name": "amount",
					"type": "uint256"
				},
				{
					"indexed": false,
					"internalType": "string",
					"name": "reason",
					"type": "string"
				}
			],
			"name": "DepositDeducted",
			"type": "event"
		},
		{
			"anonymous": false,
			"inputs": [
				{
					"indexed": true,
					"internalType": "address",
					"name": "tenant",
					"type": "address"
				},
				{
					"indexed": false,
					"internalType": "uint256",
					"name": "amount",
					"type": "uint256"
				},
				{
					"indexed": false,
					"internalType": "bool",
					"name": "stablecoin",
					"type": "bool"
				}
			],
			"name": "DepositPaid",
			"type": "event"
		},
		{
			"anonymous": false,
			"inputs": [
				{
					"indexed": true,
					"internalType": "address",
					"name": "tenant",
					"type": "address"
				},
				{
					"indexed": false,
					"internalType": "uint256",
					"name": "amount",
					"type": "uint256"
				}
			],
			"name": "DepositReturned",
			"type": "event"
		},
		{
			"anonymous": false,
			"inputs": [
				{
					"indexed": false,
					"internalType": "uint256",
					"name": "nextPaymentDate",
					"type": "uint256"
				}
			],
			"name": "PaymentDueDateUpdate",
			"type": "event"
		},
		{
			"anonymous": false,
			"inputs": [
				{
					"indexed": true,
					"internalType": "address",
					"name": "tenant",
					"type": "address"
				},
				{
					"indexed": false,
					"internalType": "uint256",
					"name": "missedAmount",
					"type": "uint256"
				}
			],
			"name": "PaymentMissed",
			"type": "event"
		},
		{
			"anonymous": false,
			"inputs": [
				{
					"indexed": true,
					"internalType": "address",
					"name": "tennat",
					"type": "address"
				},
				{
					"indexed": false,
					"internalType": "uint256",
					"name": "amount",
					"type": "uint256"
				},
				{
					"indexed": false,
					"internalType": "bool",
					"name": "stablecoin",
					"type": "bool"
				}
			],
			"name": "RentPaid",
			"type": "event"
		},
		{
			"anonymous": false,
			"inputs": [
				{
					"indexed": true,
					"internalType": "address",
					"name": "tenant",
					"type": "address"
				},
				{
					"indexed": false,
					"internalType": "uint256",
					"name": "warningCount",
					"type": "uint256"
				}
			],
			"name": "SevereBreachWarningIssued",
			"type": "event"
		},
		{
			"anonymous": false,
			"inputs": [
				{
					"indexed": true,
					"internalType": "address",
					"name": "tenant",
					"type": "address"
				}
			],
			"name": "SevereBreachWarningRequested",
			"type": "event"
		},
		{
			"anonymous": false,
			"inputs": [
				{
					"indexed": false,
					"internalType": "uint256",
					"name": "terminationDate",
					"type": "uint256"
				}
			],
			"name": "TerminationScheduled",
			"type": "event"
		},
		{
			"inputs": [],
			"name": "amountOwed",
			"outputs": [
				{
					"internalType": "uint256",
					"name": "",
					"type": "uint256"
				}
			],
			"stateMutability": "view",
			"type": "function"
		},
		{
			"inputs": [],
			"name": "approveContractRenewal",
			"outputs": [],
			"stateMutability": "nonpayable",
			"type": "function"
		},
		{
			"inputs": [],
			"name": "authorizeAutoPayment",
			"outputs": [],
			"stateMutability": "nonpayable",
			"type": "function"
		},
		{
			"inputs": [
				{
					"internalType": "address",
					"name": "",
					"type": "address"
				}
			],
			"name": "autoPaymentApproved",
			"outputs": [
				{
					"internalType": "bool",
					"name": "",
					"type": "bool"
				}
			],
			"stateMutability": "view",
			"type": "function"
		},
		{
			"inputs": [],
			"name": "calculateUpdatedDeposit",
			"outputs": [
				{
					"internalType": "uint256",
					"name": "",
					"type": "uint256"
				}
			],
			"stateMutability": "view",
			"type": "function"
		},
		{
			"inputs": [],
			"name": "checkAndUpdateNextPayment",
			"outputs": [],
			"stateMutability": "nonpayable",
			"type": "function"
		},
		{
			"inputs": [],
			"name": "checkContractExpiration",
			"outputs": [],
			"stateMutability": "nonpayable",
			"type": "function"
		},
		{
			"inputs": [],
			"name": "checkTermination",
			"outputs": [],
			"stateMutability": "nonpayable",
			"type": "function"
		},
		{
			"inputs": [],
			"name": "confirmEarlyTermination",
			"outputs": [],
			"stateMutability": "nonpayable",
			"type": "function"
		},
		{
			"inputs": [],
			"name": "confirmWarning",
			"outputs": [],
			"stateMutability": "nonpayable",
			"type": "function"
		},
		{
			"inputs": [],
			"name": "contractEndDate",
			"outputs": [
				{
					"internalType": "uint256",
					"name": "",
					"type": "uint256"
				}
			],
			"stateMutability": "view",
			"type": "function"
		},
		{
			"inputs": [],
			"name": "contractIPFSHash",
			"outputs": [
				{
					"internalType": "string",
					"name": "",
					"type": "string"
				}
			],
			"stateMutability": "view",
			"type": "function"
		},
		{
			"inputs": [
				{
					"internalType": "uint256",
					"name": "usdAmount",
					"type": "uint256"
				},
				{
					"internalType": "string",
					"name": "reason",
					"type": "string"
				}
			],
			"name": "deductFromDeposit",
			"outputs": [],
			"stateMutability": "nonpayable",
			"type": "function"
		},
		{
			"inputs": [],
			"name": "deductedAmount",
			"outputs": [
				{
					"internalType": "uint256",
					"name": "",
					"type": "uint256"
				}
			],
			"stateMutability": "view",
			"type": "function"
		},
		{
			"inputs": [],
			"name": "depositAmount",
			"outputs": [
				{
					"internalType": "uint256",
					"name": "",
					"type": "uint256"
				}
			],
			"stateMutability": "view",
			"type": "function"
		},
		{
			"inputs": [],
			"name": "depositBalance",
			"outputs": [
				{
					"internalType": "uint256",
					"name": "",
					"type": "uint256"
				}
			],
			"stateMutability": "view",
			"type": "function"
		},
		{
			"inputs": [],
			"name": "depositStartTime",
			"outputs": [
				{
					"internalType": "uint256",
					"name": "",
					"type": "uint256"
				}
			],
			"stateMutability": "view",
			"type": "function"
		},
		{
			"inputs": [],
			"name": "earlyTerminationRequestedByLandlord",
			"outputs": [
				{
					"internalType": "bool",
					"name": "",
					"type": "bool"
				}
			],
			"stateMutability": "view",
			"type": "function"
		},
		{
			"inputs": [],
			"name": "executeTenantTermination",
			"outputs": [],
			"stateMutability": "nonpayable",
			"type": "function"
		},
		{
			"inputs": [],
			"name": "executeTermination",
			"outputs": [],
			"stateMutability": "nonpayable",
			"type": "function"
		},
		{
			"inputs": [],
			"name": "getLatestInterestRate",
			"outputs": [
				{
					"internalType": "uint256",
					"name": "",
					"type": "uint256"
				}
			],
			"stateMutability": "view",
			"type": "function"
		},
		{
			"inputs": [],
			"name": "getLatestPrice",
			"outputs": [
				{
					"internalType": "uint256",
					"name": "",
					"type": "uint256"
				}
			],
			"stateMutability": "view",
			"type": "function"
		},
		{
			"inputs": [],
			"name": "getPaymentHistory",
			"outputs": [
				{
					"components": [
						{
							"internalType": "uint256",
							"name": "timestamp",
							"type": "uint256"
						},
						{
							"internalType": "uint256",
							"name": "amount",
							"type": "uint256"
						},
						{
							"internalType": "bool",
							"name": "stablecoin",
							"type": "bool"
						}
					],
					"internalType": "struct RentalAgreement.PaymentRecord[]",
					"name": "",
					"type": "tuple[]"
				}
			],
			"stateMutability": "view",
			"type": "function"
		},
		{
			"inputs": [],
			"name": "getRentalStatus",
			"outputs": [
				{
					"internalType": "string",
					"name": "",
					"type": "string"
				}
			],
			"stateMutability": "view",
			"type": "function"
		},
		{
			"inputs": [],
			"name": "isStabelcoinPayment",
			"outputs": [
				{
					"internalType": "bool",
					"name": "",
					"type": "bool"
				}
			],
			"stateMutability": "view",
			"type": "function"
		},
		{
			"inputs": [],
			"name": "landlord",
			"outputs": [
				{
					"internalType": "address",
					"name": "",
					"type": "address"
				}
			],
			"stateMutability": "view",
			"type": "function"
		},
		{
			"inputs": [],
			"name": "leaseStartTimestamp",
			"outputs": [
				{
					"internalType": "uint256",
					"name": "",
					"type": "uint256"
				}
			],
			"stateMutability": "view",
			"type": "function"
		},
		{
			"inputs": [],
			"name": "payDeposit",
			"outputs": [],
			"stateMutability": "payable",
			"type": "function"
		},
		{
			"inputs": [],
			"name": "payRent",
			"outputs": [],
			"stateMutability": "payable",
			"type": "function"
		},
		{
			"inputs": [],
			"name": "paymentDate",
			"outputs": [
				{
					"internalType": "uint256",
					"name": "",
					"type": "uint256"
				}
			],
			"stateMutability": "view",
			"type": "function"
		},
		{
			"inputs": [],
			"name": "paymentDueDate",
			"outputs": [
				{
					"internalType": "uint256",
					"name": "",
					"type": "uint256"
				}
			],
			"stateMutability": "view",
			"type": "function"
		},
		{
			"inputs": [
				{
					"internalType": "uint256",
					"name": "",
					"type": "uint256"
				}
			],
			"name": "paymentHistory",
			"outputs": [
				{
					"internalType": "uint256",
					"name": "timestamp",
					"type": "uint256"
				},
				{
					"internalType": "uint256",
					"name": "amount",
					"type": "uint256"
				},
				{
					"internalType": "bool",
					"name": "stablecoin",
					"type": "bool"
				}
			],
			"stateMutability": "view",
			"type": "function"
		},
		{
			"inputs": [],
			"name": "pendingSevereBreachWarning",
			"outputs": [
				{
					"internalType": "bool",
					"name": "",
					"type": "bool"
				}
			],
			"stateMutability": "view",
			"type": "function"
		},
		{
			"inputs": [],
			"name": "processAutoPayment",
			"outputs": [],
			"stateMutability": "nonpayable",
			"type": "function"
		},
		{
			"inputs": [],
			"name": "renewalApproved",
			"outputs": [
				{
					"internalType": "bool",
					"name": "",
					"type": "bool"
				}
			],
			"stateMutability": "view",
			"type": "function"
		},
		{
			"inputs": [],
			"name": "renewalRequested",
			"outputs": [
				{
					"internalType": "bool",
					"name": "",
					"type": "bool"
				}
			],
			"stateMutability": "view",
			"type": "function"
		},
		{
			"inputs": [],
			"name": "rentAmount",
			"outputs": [
				{
					"internalType": "uint256",
					"name": "",
					"type": "uint256"
				}
			],
			"stateMutability": "view",
			"type": "function"
		},
		{
			"inputs": [],
			"name": "rentalStatus",
			"outputs": [
				{
					"internalType": "enum RentalAgreement.RentalStatus",
					"name": "",
					"type": "uint8"
				}
			],
			"stateMutability": "view",
			"type": "function"
		},
		{
			"inputs": [],
			"name": "requestContractRenewal",
			"outputs": [],
			"stateMutability": "nonpayable",
			"type": "function"
		},
		{
			"inputs": [],
			"name": "requestEarlyTerminationByLandLord",
			"outputs": [],
			"stateMutability": "nonpayable",
			"type": "function"
		},
		{
			"inputs": [],
			"name": "requestTerminationByTenant",
			"outputs": [],
			"stateMutability": "nonpayable",
			"type": "function"
		},
		{
			"inputs": [],
			"name": "requestWarning",
			"outputs": [],
			"stateMutability": "nonpayable",
			"type": "function"
		},
		{
			"inputs": [],
			"name": "returnDeposit",
			"outputs": [],
			"stateMutability": "nonpayable",
			"type": "function"
		},
		{
			"inputs": [],
			"name": "revokeAutoPayment",
			"outputs": [],
			"stateMutability": "nonpayable",
			"type": "function"
		},
		{
			"inputs": [],
			"name": "stabelcoinAddress",
			"outputs": [
				{
					"internalType": "address",
					"name": "",
					"type": "address"
				}
			],
			"stateMutability": "view",
			"type": "function"
		},
		{
			"inputs": [],
			"name": "tenant",
			"outputs": [
				{
					"internalType": "address",
					"name": "",
					"type": "address"
				}
			],
			"stateMutability": "view",
			"type": "function"
		},
		{
			"inputs": [
				{
					"internalType": "string",
					"name": "reason",
					"type": "string"
				}
			],
			"name": "terminateContract",
			"outputs": [],
			"stateMutability": "nonpayable",
			"type": "function"
		},
		{
			"inputs": [],
			"name": "terminateContractIfNotRenewed",
			"outputs": [],
			"stateMutability": "nonpayable",
			"type": "function"
		},
		{
			"inputs": [],
			"name": "terminationTimeStamp",
			"outputs": [
				{
					"internalType": "uint256",
					"name": "",
					"type": "uint256"
				}
			],
			"stateMutability": "view",
			"type": "function"
		},
		{
			"inputs": [],
			"name": "warningCount",
			"outputs": [
				{
					"internalType": "uint256",
					"name": "",
					"type": "uint256"
				}
			],
			"stateMutability": "view",
			"type": "function"
		}
	]
}