{
	"data": {
		"bytecode": {
			"linkReferences": {
				"contracts/DateUtils.sol": {
					"DateUtils": [
						{
							"length": 20,
							"start": 22884
						},
						{
							"length": 20,
							"start": 34428
						}
					]
				},
				"remix_tests.sol": {
					"Assert": [
						{
							"length": 20,
							"start": 751
						},
						{
							"length": 20,
							"start": 884
						},
						{
							"length": 20,
							"start": 1178
						},
						{
							"length": 20,
							"start": 1972
						},
						{
							"length": 20,
							"start": 2451
						},
						{
							"length": 20,
							"start": 3294
						},
						{
							"length": 20,
							"start": 3424
						},
						{
							"length": 20,
							"start": 3735
						},
						{
							"length": 20,
							"start": 4762
						}
					]
				}
			},
			"object": "6080604052348015600e575f5ffd5b5061ad638061001c5f395ff3fe608060405234801561000f575f5ffd5b506004361061007b575f3560e01c8063558c2f3011610059578063558c2f301461009d578063678620b3146100a757806372362fc7146100b15780637fea0d4b146100bb5761007b565b80630e8a9f2f1461007f57806313eda5501461008957806324ed329414610093575b5f5ffd5b6100876100c5565b005b610091610356565b005b61009b61058c565b005b6100a5610812565b005b6100af6109f2565b005b6100b9610f01565b005b6100c36112fd565b005b60025f9054906101000a900473ffffffffffffffffffffffffffffffffffffffff1673ffffffffffffffffffffffffffffffffffffffff1663da3e339760015f9054906101000a900473ffffffffffffffffffffffffffffffffffffffff165f5f9054906101000a900473ffffffffffffffffffffffffffffffffffffffff16681b1ae4d6e2ef5000006040518463ffffffff1660e01b815260040161016d93929190611795565b5f604051808303815f87803b158015610184575f5ffd5b505af1158015610196573d5f5f3e3d5ffd5b5050505060025f9054906101000a900473ffffffffffffffffffffffffffffffffffffffff1673ffffffffffffffffffffffffffffffffffffffff166359f3ef055f5f9054906101000a900473ffffffffffffffffffffffffffffffffffffffff166040518263ffffffff1660e01b815260040161021491906117ca565b5f604051808303815f87803b15801561022b575f5ffd5b505af115801561023d573d5f5f3e3d5ffd5b505050505f5f5f9054906101000a900473ffffffffffffffffffffffffffffffffffffffff1673ffffffffffffffffffffffffffffffffffffffff166361bc1a496040518163ffffffff1660e01b8152600401602060405180830381865afa1580156102ab573d5f5f3e3d5ffd5b505050506040513d601f19601f820116820180604052508101906102cf9190611811565b905073__$acbfb1c35000d78352310b16a054a6b106$__63abcd796082681b1ae4d6e2ef5000006040518363ffffffff1660e01b81526004016103139291906118b4565b602060405180830381865af415801561032e573d5f5f3e3d5ffd5b505050506040513d601f19601f820116820180604052508101906103529190611923565b5050565b73__$acbfb1c35000d78352310b16a054a6b106$__63bfba5dd65f5f9054906101000a900473ffffffffffffffffffffffffffffffffffffffff1673ffffffffffffffffffffffffffffffffffffffff1663adf077916040518163ffffffff1660e01b8152600401602060405180830381865afa1580156103d9573d5f5f3e3d5ffd5b505050506040513d601f19601f820116820180604052508101906103fd9190611978565b60025f9054906101000a900473ffffffffffffffffffffffffffffffffffffffff166040518363ffffffff1660e01b815260040161043c9291906119fc565b602060405180830381865af4158015610457573d5f5f3e3d5ffd5b505050506040513d601f19601f8201168201806040525081019061047b9190611923565b5073__$acbfb1c35000d78352310b16a054a6b106$__63abcd79605f5f9054906101000a900473ffffffffffffffffffffffffffffffffffffffff1673ffffffffffffffffffffffffffffffffffffffff1663f8ef1e136040518163ffffffff1660e01b8152600401602060405180830381865afa1580156104ff573d5f5f3e3d5ffd5b505050506040513d601f19601f820116820180604052508101906105239190611811565b680d8d726b7177a800006040518363ffffffff1660e01b815260040161054a929190611ab9565b602060405180830381865af4158015610565573d5f5f3e3d5ffd5b505050506040513d601f19601f820116820180604052508101906105899190611923565b50565b5f5f9054906101000a900473ffffffffffffffffffffffffffffffffffffffff1673ffffffffffffffffffffffffffffffffffffffff16635c274b866040518163ffffffff1660e01b81526004015f604051808303815f87803b1580156105f1575f5ffd5b505af1158015610603573d5f5f3e3d5ffd5b505050505f5f9054906101000a900473ffffffffffffffffffffffffffffffffffffffff1673ffffffffffffffffffffffffffffffffffffffff166303c77fa46040518163ffffffff1660e01b815260040161065e90611b4d565b5f604051808303815f87803b158015610675575f5ffd5b505af1158015610687573d5f5f3e3d5ffd5b505050505f5f9054906101000a900473ffffffffffffffffffffffffffffffffffffffff1673ffffffffffffffffffffffffffffffffffffffff16637e88f6036040518163ffffffff1660e01b81526004015f604051808303815f87803b1580156106f0575f5ffd5b505af1158015610702573d5f5f3e3d5ffd5b505050505f5f5f9054906101000a900473ffffffffffffffffffffffffffffffffffffffff1673ffffffffffffffffffffffffffffffffffffffff166361bc1a496040518163ffffffff1660e01b8152600401602060405180830381865afa158015610770573d5f5f3e3d5ffd5b505050506040513d601f19601f820116820180604052508101906107949190611811565b905073__$acbfb1c35000d78352310b16a054a6b106$__63abcd7960825f6040518363ffffffff1660e01b81526004016107cf929190611c14565b602060405180830381865af41580156107ea573d5f5f3e3d5ffd5b505050506040513d601f19601f8201168201806040525081019061080e9190611923565b5050565b60025f9054906101000a900473ffffffffffffffffffffffffffffffffffffffff1673ffffffffffffffffffffffffffffffffffffffff1663b6a5d7de5f5f9054906101000a900473ffffffffffffffffffffffffffffffffffffffff166040518263ffffffff1660e01b815260040161088c91906117ca565b5f604051808303815f87803b1580156108a3575f5ffd5b505af11580156108b5573d5f5f3e3d5ffd5b505050505f5f5f9054906101000a900473ffffffffffffffffffffffffffffffffffffffff1673ffffffffffffffffffffffffffffffffffffffff16631ca43edd60025f9054906101000a900473ffffffffffffffffffffffffffffffffffffffff166040518263ffffffff1660e01b815260040161093491906117ca565b602060405180830381865afa15801561094f573d5f5f3e3d5ffd5b505050506040513d601f19601f820116820180604052508101906109739190611923565b905073__$acbfb1c35000d78352310b16a054a6b106$__63767392b38260016040518363ffffffff1660e01b81526004016109af929190611ccd565b602060405180830381865af41580156109ca573d5f5f3e3d5ffd5b505050506040513d601f19601f820116820180604052508101906109ee9190611923565b5050565b60015f9054906101000a900473ffffffffffffffffffffffffffffffffffffffff1673ffffffffffffffffffffffffffffffffffffffff166340c10f1960025f9054906101000a900473ffffffffffffffffffffffffffffffffffffffff16680d8d726b7177a800006040518363ffffffff1660e01b8152600401610a78929190611d16565b5f604051808303815f87803b158015610a8f575f5ffd5b505af1158015610aa1573d5f5f3e3d5ffd5b5050505060025f9054906101000a900473ffffffffffffffffffffffffffffffffffffffff1673ffffffffffffffffffffffffffffffffffffffff1663da3e339760015f9054906101000a900473ffffffffffffffffffffffffffffffffffffffff165f5f9054906101000a900473ffffffffffffffffffffffffffffffffffffffff16680d8d726b7177a800006040518463ffffffff1660e01b8152600401610b4d93929190611d3d565b5f604051808303815f87803b158015610b64575f5ffd5b505af1158015610b76573d5f5f3e3d5ffd5b5050505060025f9054906101000a900473ffffffffffffffffffffffffffffffffffffffff1673ffffffffffffffffffffffffffffffffffffffff1663dc40bcbb5f5f9054906101000a900473ffffffffffffffffffffffffffffffffffffffff166040518263ffffffff1660e01b8152600401610bf491906117ca565b5f604051808303815f87803b158015610c0b575f5ffd5b505af1158015610c1d573d5f5f3e3d5ffd5b505050505f5f5f5f9054906101000a900473ffffffffffffffffffffffffffffffffffffffff1673ffffffffffffffffffffffffffffffffffffffff1663a5e047b85f6040518263ffffffff1660e01b8152600401610c7c9190611d81565b606060405180830381865afa158015610c97573d5f5f3e3d5ffd5b505050506040513d601f19601f82011682018060405250810190610cbb9190611dd5565b925092505073__$acbfb1c35000d78352310b16a054a6b106$__63abcd796083680d8d726b7177a800006040518363ffffffff1660e01b8152600401610d02929190611e6f565b602060405180830381865af4158015610d1d573d5f5f3e3d5ffd5b505050506040513d601f19601f82011682018060405250810190610d419190611923565b5073__$acbfb1c35000d78352310b16a054a6b106$__63767392b38260016040518363ffffffff1660e01b8152600401610d7c929190611ef3565b602060405180830381865af4158015610d97573d5f5f3e3d5ffd5b505050506040513d601f19601f82011682018060405250810190610dbb9190611923565b505f60015f9054906101000a900473ffffffffffffffffffffffffffffffffffffffff1673ffffffffffffffffffffffffffffffffffffffff166370a0823160035f9054906101000a900473ffffffffffffffffffffffffffffffffffffffff166040518263ffffffff1660e01b8152600401610e3891906117ca565b602060405180830381865afa158015610e53573d5f5f3e3d5ffd5b505050506040513d601f19601f82011682018060405250810190610e779190611811565b905073__$acbfb1c35000d78352310b16a054a6b106$__6339df137f680d8d726b7177a800008310156040518263ffffffff1660e01b8152600401610ebc9190611f77565b602060405180830381865af4158015610ed7573d5f5f3e3d5ffd5b505050506040513d601f19601f82011682018060405250810190610efb9190611923565b50505050565b5f6101f490505f606490505f670de0b6b3a764000083610f219190611fd0565b90505f670de0b6b3a764000083610f389190611fd0565b90505f8183610f479190612011565b905060015f9054906101000a900473ffffffffffffffffffffffffffffffffffffffff1673ffffffffffffffffffffffffffffffffffffffff166340c10f1960025f9054906101000a900473ffffffffffffffffffffffffffffffffffffffff16856040518363ffffffff1660e01b8152600401610fc6929190612053565b5f604051808303815f87803b158015610fdd575f5ffd5b505af1158015610fef573d5f5f3e3d5ffd5b5050505060025f9054906101000a900473ffffffffffffffffffffffffffffffffffffffff1673ffffffffffffffffffffffffffffffffffffffff1663da3e339760015f9054906101000a900473ffffffffffffffffffffffffffffffffffffffff165f5f9054906101000a900473ffffffffffffffffffffffffffffffffffffffff16866040518463ffffffff1660e01b81526004016110929392919061207a565b5f604051808303815f87803b1580156110a9575f5ffd5b505af11580156110bb573d5f5f3e3d5ffd5b5050505060025f9054906101000a900473ffffffffffffffffffffffffffffffffffffffff1673ffffffffffffffffffffffffffffffffffffffff166359f3ef055f5f9054906101000a900473ffffffffffffffffffffffffffffffffffffffff166040518263ffffffff1660e01b815260040161113991906117ca565b5f604051808303815f87803b158015611150575f5ffd5b505af1158015611162573d5f5f3e3d5ffd5b505050505f5f9054906101000a900473ffffffffffffffffffffffffffffffffffffffff1673ffffffffffffffffffffffffffffffffffffffff16638e7f727f856040518263ffffffff1660e01b81526004016111bf91906120f9565b5f604051808303815f87803b1580156111d6575f5ffd5b505af11580156111e8573d5f5f3e3d5ffd5b505050505f5f5f9054906101000a900473ffffffffffffffffffffffffffffffffffffffff1673ffffffffffffffffffffffffffffffffffffffff166361bc1a496040518163ffffffff1660e01b8152600401602060405180830381865afa158015611256573d5f5f3e3d5ffd5b505050506040513d601f19601f8201168201806040525081019061127a9190611811565b905073__$acbfb1c35000d78352310b16a054a6b106$__63abcd796082846040518363ffffffff1660e01b81526004016112b5929190612195565b602060405180830381865af41580156112d0573d5f5f3e3d5ffd5b505050506040513d601f19601f820116820180604052508101906112f49190611923565b50505050505050565b604051611309906116e4565b604051809103905ff080158015611322573d5f5f3e3d5ffd5b5060015f6101000a81548173ffffffffffffffffffffffffffffffffffffffff021916908373ffffffffffffffffffffffffffffffffffffffff16021790555060405161136e906116f1565b604051809103905ff080158015611387573d5f5f3e3d5ffd5b5060025f6101000a81548173ffffffffffffffffffffffffffffffffffffffff021916908373ffffffffffffffffffffffffffffffffffffffff16021790555060015f9054906101000a900473ffffffffffffffffffffffffffffffffffffffff1673ffffffffffffffffffffffffffffffffffffffff166340c10f1960025f9054906101000a900473ffffffffffffffffffffffffffffffffffffffff1669010f0cf064dd592000006040518363ffffffff1660e01b815260040161144e929190612208565b5f604051808303815f87803b158015611465575f5ffd5b505af1158015611477573d5f5f3e3d5ffd5b5050505060025f9054906101000a900473ffffffffffffffffffffffffffffffffffffffff16680d8d726b7177a80000681b1ae4d6e2ef5000006001805f9054906101000a900473ffffffffffffffffffffffffffffffffffffffff165f5f6040516114e2906116fe565b6114f29796959493929190612288565b604051809103905ff08015801561150b573d5f5f3e3d5ffd5b505f5f6101000a81548173ffffffffffffffffffffffffffffffffffffffff021916908373ffffffffffffffffffffffffffffffffffffffff1602179055503060035f6101000a81548173ffffffffffffffffffffffffffffffffffffffff021916908373ffffffffffffffffffffffffffffffffffffffff16021790555060015f9054906101000a900473ffffffffffffffffffffffffffffffffffffffff1673ffffffffffffffffffffffffffffffffffffffff166340c10f1930683635c9adc5dea000006040518363ffffffff1660e01b81526004016115ef929190612342565b5f604051808303815f87803b158015611606575f5ffd5b505af1158015611618573d5f5f3e3d5ffd5b5050505060015f9054906101000a900473ffffffffffffffffffffffffffffffffffffffff1673ffffffffffffffffffffffffffffffffffffffff1663095ea7b35f5f9054906101000a900473ffffffffffffffffffffffffffffffffffffffff16683635c9adc5dea000006040518363ffffffff1660e01b81526004016116a1929190612342565b6020604051808303815f875af11580156116bd573d5f5f3e3d5ffd5b505050506040513d601f19601f820116820180604052508101906116e19190611923565b50565b61161f8061236a83390190565b6105018061398983390190565b616ea480613e8a83390190565b5f73ffffffffffffffffffffffffffffffffffffffff82169050919050565b5f6117348261170b565b9050919050565b6117448161172a565b82525050565b5f819050919050565b5f819050919050565b5f819050919050565b5f61177f61177a6117758461174a565b61175c565b611753565b9050919050565b61178f81611765565b82525050565b5f6060820190506117a85f83018661173b565b6117b5602083018561173b565b6117c26040830184611786565b949350505050565b5f6020820190506117dd5f83018461173b565b92915050565b5f5ffd5b6117f081611753565b81146117fa575f5ffd5b50565b5f8151905061180b816117e7565b92915050565b5f60208284031215611826576118256117e3565b5b5f611833848285016117fd565b91505092915050565b61184581611753565b82525050565b61185481611765565b82525050565b5f82825260208201905092915050565b7f4465706f7369742073686f756c642062652035303000000000000000000000005f82015250565b5f61189e60158361185a565b91506118a98261186a565b602082019050919050565b5f6060820190506118c75f83018561183c565b6118d4602083018461184b565b81810360408301526118e581611892565b90509392505050565b5f8115159050919050565b611902816118ee565b811461190c575f5ffd5b50565b5f8151905061191d816118f9565b92915050565b5f60208284031215611938576119376117e3565b5b5f6119458482850161190f565b91505092915050565b6119578161172a565b8114611961575f5ffd5b50565b5f815190506119728161194e565b92915050565b5f6020828403121561198d5761198c6117e3565b5b5f61199a84828501611964565b91505092915050565b6119ac8161172a565b82525050565b7f54656e616e742073686f756c642062652073657420636f72726563746c7900005f82015250565b5f6119e6601e8361185a565b91506119f1826119b2565b602082019050919050565b5f606082019050611a0f5f8301856119a3565b611a1c60208301846119a3565b8181036040830152611a2d816119da565b90509392505050565b5f819050919050565b5f611a59611a54611a4f84611a36565b61175c565b611753565b9050919050565b611a6981611a3f565b82525050565b7f52656e7420616d6f756e742073686f756c64206d6174636800000000000000005f82015250565b5f611aa360188361185a565b9150611aae82611a6f565b602082019050919050565b5f606082019050611acc5f83018561183c565b611ad96020830184611a60565b8181036040830152611aea81611a97565b90509392505050565b5f82825260208201905092915050565b7f616e7900000000000000000000000000000000000000000000000000000000005f82015250565b5f611b37600383611af3565b9150611b4282611b03565b602082019050919050565b5f6020820190508181035f830152611b6481611b2b565b9050919050565b5f819050919050565b5f611b8e611b89611b8484611b6b565b61175c565b611753565b9050919050565b611b9e81611b74565b82525050565b7f4465706f7369742073686f756c64206265207a65726f206166746572207265745f8201527f75726e0000000000000000000000000000000000000000000000000000000000602082015250565b5f611bfe60238361185a565b9150611c0982611ba4565b604082019050919050565b5f606082019050611c275f83018561183c565b611c346020830184611b95565b8181036040830152611c4581611bf2565b90509392505050565b611c57816118ee565b82525050565b7f4175746f6d61746963207061796d656e742073686f756c6420626520617070725f8201527f6f76656400000000000000000000000000000000000000000000000000000000602082015250565b5f611cb760248361185a565b9150611cc282611c5d565b604082019050919050565b5f606082019050611ce05f830185611c4e565b611ced6020830184611c4e565b8181036040830152611cfe81611cab565b90509392505050565b611d1081611a3f565b82525050565b5f604082019050611d295f83018561173b565b611d366020830184611d07565b9392505050565b5f606082019050611d505f83018661173b565b611d5d602083018561173b565b611d6a6040830184611d07565b949350505050565b611d7b81611b74565b82525050565b5f602082019050611d945f830184611d72565b92915050565b5f65ffffffffffff82169050919050565b611db481611d9a565b8114611dbe575f5ffd5b50565b5f81519050611dcf81611dab565b92915050565b5f5f5f60608486031215611dec57611deb6117e3565b5b5f611df986828701611dc1565b9350506020611e0a868287016117fd565b9250506040611e1b8682870161190f565b9150509250925092565b7f5061796d656e742073686f756c642062652032353000000000000000000000005f82015250565b5f611e5960158361185a565b9150611e6482611e25565b602082019050919050565b5f606082019050611e825f83018561183c565b611e8f6020830184611a60565b8181036040830152611ea081611e4d565b90509392505050565b7f53686f756c6420626520737461626c65636f696e207061796d656e74000000005f82015250565b5f611edd601c8361185a565b9150611ee882611ea9565b602082019050919050565b5f606082019050611f065f830185611c4e565b611f136020830184611c4e565b8181036040830152611f2481611ed1565b90509392505050565b7f4c616e646c6f72642073686f756c642072656365697665207061796d656e74005f82015250565b5f611f61601f8361185a565b9150611f6c82611f2d565b602082019050919050565b5f604082019050611f8a5f830184611c4e565b8181036020830152611f9b81611f55565b905092915050565b7f4e487b71000000000000000000000000000000000000000000000000000000005f52601160045260245ffd5b5f611fda82611753565b9150611fe583611753565b9250828202611ff381611753565b9150828204841483151761200a57612009611fa3565b5b5092915050565b5f61201b82611753565b915061202683611753565b925082820390508181111561203e5761203d611fa3565b5b92915050565b61204d81611753565b82525050565b5f6040820190506120665f83018561173b565b6120736020830184612044565b9392505050565b5f60608201905061208d5f83018661173b565b61209a602083018561173b565b6120a76040830184612044565b949350505050565b7f5465737420646564756374696f6e0000000000000000000000000000000000005f82015250565b5f6120e3600e83611af3565b91506120ee826120af565b602082019050919050565b5f60408201905061210c5f830184612044565b818103602083015261211d816120d7565b905092915050565b7f4465706f7369742073686f756c64206265207265647563656420636f727265635f8201527f746c790000000000000000000000000000000000000000000000000000000000602082015250565b5f61217f60238361185a565b915061218a82612125565b604082019050919050565b5f6060820190506121a85f83018561183c565b6121b5602083018461183c565b81810360408301526121c681612173565b90509392505050565b5f819050919050565b5f6121f26121ed6121e8846121cf565b61175c565b611753565b9050919050565b612202816121d8565b82525050565b5f60408201905061221b5f83018561173b565b61222860208301846121f9565b9392505050565b7f516d4861736800000000000000000000000000000000000000000000000000005f82015250565b5f612263600683611af3565b915061226e8261222f565b602082019050919050565b612282816118ee565b82525050565b5f6101008201905061229c5f83018a61173b565b6122a96020830189611d07565b6122b66040830188611786565b81810360608301526122c781612257565b90506122d66080830187612279565b6122e360a083018661173b565b6122f060c083018561173b565b6122fd60e0830184611d72565b98975050505050505050565b5f819050919050565b5f61232c61232761232284612309565b61175c565b611753565b9050919050565b61233c81612312565b82525050565b5f6040820190506123555f83018561173b565b6123626020830184612333565b939250505056fe608060405234801561000f575f5ffd5b506040518060400160405280600881526020017f54657374436f696e0000000000000000000000000000000000000000000000008152506040518060400160405280600281526020017f5443000000000000000000000000000000000000000000000000000000000000815250816003908161008b9190610598565b50806004908161009b9190610598565b5050506100b83369d3c21bcecceda10000006100bd60201b60201c565b61077c565b5f73ffffffffffffffffffffffffffffffffffffffff168273ffffffffffffffffffffffffffffffffffffffff160361012d575f6040517fec442f0500000000000000000000000000000000000000000000000000000000815260040161012491906106a6565b60405180910390fd5b61013e5f838361014260201b60201c565b5050565b5f73ffffffffffffffffffffffffffffffffffffffff168373ffffffffffffffffffffffffffffffffffffffff1603610192578060025f82825461018691906106ec565b92505081905550610260565b5f5f5f8573ffffffffffffffffffffffffffffffffffffffff1673ffffffffffffffffffffffffffffffffffffffff1681526020019081526020015f205490508181101561021b578381836040517fe450d38c0000000000000000000000000000000000000000000000000000000081526004016102129392919061072e565b60405180910390fd5b8181035f5f8673ffffffffffffffffffffffffffffffffffffffff1673ffffffffffffffffffffffffffffffffffffffff1681526020019081526020015f2081905550505b5f73ffffffffffffffffffffffffffffffffffffffff168273ffffffffffffffffffffffffffffffffffffffff16036102a7578060025f82825403925050819055506102f1565b805f5f8473ffffffffffffffffffffffffffffffffffffffff1673ffffffffffffffffffffffffffffffffffffffff1681526020019081526020015f205f82825401925050819055505b8173ffffffffffffffffffffffffffffffffffffffff168373ffffffffffffffffffffffffffffffffffffffff167fddf252ad1be2c89b69c2b068fc378daa952ba7f163c4a11628f55a4df523b3ef8360405161034e9190610763565b60405180910390a3505050565b5f81519050919050565b7f4e487b71000000000000000000000000000000000000000000000000000000005f52604160045260245ffd5b7f4e487b71000000000000000000000000000000000000000000000000000000005f52602260045260245ffd5b5f60028204905060018216806103d657607f821691505b6020821081036103e9576103e8610392565b5b50919050565b5f819050815f5260205f209050919050565b5f6020601f8301049050919050565b5f82821b905092915050565b5f6008830261044b7fffffffffffffffffffffffffffffffffffffffffffffffffffffffffffffffff82610410565b6104558683610410565b95508019841693508086168417925050509392505050565b5f819050919050565b5f819050919050565b5f61049961049461048f8461046d565b610476565b61046d565b9050919050565b5f819050919050565b6104b28361047f565b6104c66104be826104a0565b84845461041c565b825550505050565b5f5f905090565b6104dd6104ce565b6104e88184846104a9565b505050565b5b8181101561050b576105005f826104d5565b6001810190506104ee565b5050565b601f82111561055057610521816103ef565b61052a84610401565b81016020851015610539578190505b61054d61054585610401565b8301826104ed565b50505b505050565b5f82821c905092915050565b5f6105705f1984600802610555565b1980831691505092915050565b5f6105888383610561565b9150826002028217905092915050565b6105a18261035b565b67ffffffffffffffff8111156105ba576105b9610365565b5b6105c482546103bf565b6105cf82828561050f565b5f60209050601f831160018114610600575f84156105ee578287015190505b6105f8858261057d565b86555061065f565b601f19841661060e866103ef565b5f5b8281101561063557848901518255600182019150602085019450602081019050610610565b86831015610652578489015161064e601f891682610561565b8355505b6001600288020188555050505b505050505050565b5f73ffffffffffffffffffffffffffffffffffffffff82169050919050565b5f61069082610667565b9050919050565b6106a081610686565b82525050565b5f6020820190506106b95f830184610697565b92915050565b7f4e487b71000000000000000000000000000000000000000000000000000000005f52601160045260245ffd5b5f6106f68261046d565b91506107018361046d565b9250828201905080821115610719576107186106bf565b5b92915050565b6107288161046d565b82525050565b5f6060820190506107415f830186610697565b61074e602083018561071f565b61075b604083018461071f565b949350505050565b5f6020820190506107765f83018461071f565b92915050565b610e96806107895f395ff3fe608060405234801561000f575f5ffd5b506004361061009c575f3560e01c806340c10f191161006457806340c10f191461015a57806370a082311461017657806395d89b41146101a6578063a9059cbb146101c4578063dd62ed3e146101f45761009c565b806306fdde03146100a0578063095ea7b3146100be57806318160ddd146100ee57806323b872dd1461010c578063313ce5671461013c575b5f5ffd5b6100a8610224565b6040516100b59190610b0f565b60405180910390f35b6100d860048036038101906100d39190610bc0565b6102b4565b6040516100e59190610c18565b60405180910390f35b6100f66102d6565b6040516101039190610c40565b60405180910390f35b61012660048036038101906101219190610c59565b6102df565b6040516101339190610c18565b60405180910390f35b61014461030d565b6040516101519190610cc4565b60405180910390f35b610174600480360381019061016f9190610bc0565b610315565b005b610190600480360381019061018b9190610cdd565b610323565b60405161019d9190610c40565b60405180910390f35b6101ae610368565b6040516101bb9190610b0f565b60405180910390f35b6101de60048036038101906101d99190610bc0565b6103f8565b6040516101eb9190610c18565b60405180910390f35b61020e60048036038101906102099190610d08565b61041a565b60405161021b9190610c40565b60405180910390f35b60606003805461023390610d73565b80601f016020809104026020016040519081016040528092919081815260200182805461025f90610d73565b80156102aa5780601f10610281576101008083540402835291602001916102aa565b820191905f5260205f20905b81548152906001019060200180831161028d57829003601f168201915b5050505050905090565b5f5f6102be61049c565b90506102cb8185856104a3565b600191505092915050565b5f600254905090565b5f5f6102e961049c565b90506102f68582856104b5565b610301858585610548565b60019150509392505050565b5f6012905090565b61031f8282610638565b5050565b5f5f5f8373ffffffffffffffffffffffffffffffffffffffff1673ffffffffffffffffffffffffffffffffffffffff1681526020019081526020015f20549050919050565b60606004805461037790610d73565b80601f01602080910402602001604051908101604052809291908181526020018280546103a390610d73565b80156103ee5780601f106103c5576101008083540402835291602001916103ee565b820191905f5260205f20905b8154815290600101906020018083116103d157829003601f168201915b5050505050905090565b5f5f61040261049c565b905061040f818585610548565b600191505092915050565b5f60015f8473ffffffffffffffffffffffffffffffffffffffff1673ffffffffffffffffffffffffffffffffffffffff1681526020019081526020015f205f8373ffffffffffffffffffffffffffffffffffffffff1673ffffffffffffffffffffffffffffffffffffffff1681526020019081526020015f2054905092915050565b5f33905090565b6104b083838360016106b7565b505050565b5f6104c0848461041a565b90507fffffffffffffffffffffffffffffffffffffffffffffffffffffffffffffffff8110156105425781811015610533578281836040517ffb8f41b200000000000000000000000000000000000000000000000000000000815260040161052a93929190610db2565b60405180910390fd5b61054184848484035f6106b7565b5b50505050565b5f73ffffffffffffffffffffffffffffffffffffffff168373ffffffffffffffffffffffffffffffffffffffff16036105b8575f6040517f96c6fd1e0000000000000000000000000000000000000000000000000000000081526004016105af9190610de7565b60405180910390fd5b5f73ffffffffffffffffffffffffffffffffffffffff168273ffffffffffffffffffffffffffffffffffffffff1603610628575f6040517fec442f0500000000000000000000000000000000000000000000000000000000815260040161061f9190610de7565b60405180910390fd5b610633838383610886565b505050565b5f73ffffffffffffffffffffffffffffffffffffffff168273ffffffffffffffffffffffffffffffffffffffff16036106a8575f6040517fec442f0500000000000000000000000000000000000000000000000000000000815260040161069f9190610de7565b60405180910390fd5b6106b35f8383610886565b5050565b5f73ffffffffffffffffffffffffffffffffffffffff168473ffffffffffffffffffffffffffffffffffffffff1603610727575f6040517fe602df0500000000000000000000000000000000000000000000000000000000815260040161071e9190610de7565b60405180910390fd5b5f73ffffffffffffffffffffffffffffffffffffffff168373ffffffffffffffffffffffffffffffffffffffff1603610797575f6040517f94280d6200000000000000000000000000000000000000000000000000000000815260040161078e9190610de7565b60405180910390fd5b8160015f8673ffffffffffffffffffffffffffffffffffffffff1673ffffffffffffffffffffffffffffffffffffffff1681526020019081526020015f205f8573ffffffffffffffffffffffffffffffffffffffff1673ffffffffffffffffffffffffffffffffffffffff1681526020019081526020015f20819055508015610880578273ffffffffffffffffffffffffffffffffffffffff168473ffffffffffffffffffffffffffffffffffffffff167f8c5be1e5ebec7d5bd14f71427d1e84f3dd0314c0f7b2291e5b200ac8c7c3b925846040516108779190610c40565b60405180910390a35b50505050565b5f73ffffffffffffffffffffffffffffffffffffffff168373ffffffffffffffffffffffffffffffffffffffff16036108d6578060025f8282546108ca9190610e2d565b925050819055506109a4565b5f5f5f8573ffffffffffffffffffffffffffffffffffffffff1673ffffffffffffffffffffffffffffffffffffffff1681526020019081526020015f205490508181101561095f578381836040517fe450d38c00000000000000000000000000000000000000000000000000000000815260040161095693929190610db2565b60405180910390fd5b8181035f5f8673ffffffffffffffffffffffffffffffffffffffff1673ffffffffffffffffffffffffffffffffffffffff1681526020019081526020015f2081905550505b5f73ffffffffffffffffffffffffffffffffffffffff168273ffffffffffffffffffffffffffffffffffffffff16036109eb578060025f8282540392505081905550610a35565b805f5f8473ffffffffffffffffffffffffffffffffffffffff1673ffffffffffffffffffffffffffffffffffffffff1681526020019081526020015f205f82825401925050819055505b8173ffffffffffffffffffffffffffffffffffffffff168373ffffffffffffffffffffffffffffffffffffffff167fddf252ad1be2c89b69c2b068fc378daa952ba7f163c4a11628f55a4df523b3ef83604051610a929190610c40565b60405180910390a3505050565b5f81519050919050565b5f82825260208201905092915050565b8281835e5f83830152505050565b5f601f19601f8301169050919050565b5f610ae182610a9f565b610aeb8185610aa9565b9350610afb818560208601610ab9565b610b0481610ac7565b840191505092915050565b5f6020820190508181035f830152610b278184610ad7565b905092915050565b5f5ffd5b5f73ffffffffffffffffffffffffffffffffffffffff82169050919050565b5f610b5c82610b33565b9050919050565b610b6c81610b52565b8114610b76575f5ffd5b50565b5f81359050610b8781610b63565b92915050565b5f819050919050565b610b9f81610b8d565b8114610ba9575f5ffd5b50565b5f81359050610bba81610b96565b92915050565b5f5f60408385031215610bd657610bd5610b2f565b5b5f610be385828601610b79565b9250506020610bf485828601610bac565b9150509250929050565b5f8115159050919050565b610c1281610bfe565b82525050565b5f602082019050610c2b5f830184610c09565b92915050565b610c3a81610b8d565b82525050565b5f602082019050610c535f830184610c31565b92915050565b5f5f5f60608486031215610c7057610c6f610b2f565b5b5f610c7d86828701610b79565b9350506020610c8e86828701610b79565b9250506040610c9f86828701610bac565b9150509250925092565b5f60ff82169050919050565b610cbe81610ca9565b82525050565b5f602082019050610cd75f830184610cb5565b92915050565b5f60208284031215610cf257610cf1610b2f565b5b5f610cff84828501610b79565b91505092915050565b5f5f60408385031215610d1e57610d1d610b2f565b5b5f610d2b85828601610b79565b9250506020610d3c85828601610b79565b9150509250929050565b7f4e487b71000000000000000000000000000000000000000000000000000000005f52602260045260245ffd5b5f6002820490506001821680610d8a57607f821691505b602082108103610d9d57610d9c610d46565b5b50919050565b610dac81610b52565b82525050565b5f606082019050610dc55f830186610da3565b610dd26020830185610c31565b610ddf6040830184610c31565b949350505050565b5f602082019050610dfa5f830184610da3565b92915050565b7f4e487b71000000000000000000000000000000000000000000000000000000005f52601160045260245ffd5b5f610e3782610b8d565b9150610e4283610b8d565b9250828201905080821115610e5a57610e59610e00565b5b9291505056fea2646970667358221220e47aa438bfba4bdae60bf367c8ab61aa18db4c35aea894ab34b78391b0b20d8864736f6c634300081e00336080604052348015600e575f5ffd5b50335f5f6101000a81548173ffffffffffffffffffffffffffffffffffffffff021916908373ffffffffffffffffffffffffffffffffffffffff1602179055506104a68061005b5f395ff3fe608060405234801561000f575f5ffd5b5060043610610055575f3560e01c806359f3ef05146100595780638da5cb5b14610075578063b6a5d7de14610093578063da3e3397146100af578063dc40bcbb146100cb575b5f5ffd5b610073600480360381019061006e9190610304565b6100e7565b005b61007d610145565b60405161008a919061033e565b60405180910390f35b6100ad60048036038101906100a89190610304565b610169565b005b6100c960048036038101906100c4919061038a565b6101c7565b005b6100e560048036038101906100e09190610304565b610248565b005b8073ffffffffffffffffffffffffffffffffffffffff16635c274b866040518163ffffffff1660e01b81526004015f604051808303815f87803b15801561012c575f5ffd5b505af115801561013e573d5f5f3e3d5ffd5b5050505050565b5f5f9054906101000a900473ffffffffffffffffffffffffffffffffffffffff1681565b8073ffffffffffffffffffffffffffffffffffffffff16639f1f90826040518163ffffffff1660e01b81526004015f604051808303815f87803b1580156101ae575f5ffd5b505af11580156101c0573d5f5f3e3d5ffd5b5050505050565b8273ffffffffffffffffffffffffffffffffffffffff1663095ea7b383836040518363ffffffff1660e01b81526004016102029291906103e9565b6020604051808303815f875af115801561021e573d5f5f3e3d5ffd5b505050506040513d601f19601f820116820180604052508101906102429190610445565b50505050565b8073ffffffffffffffffffffffffffffffffffffffff1663a709c4fe6040518163ffffffff1660e01b81526004015f604051808303815f87803b15801561028d575f5ffd5b505af115801561029f573d5f5f3e3d5ffd5b5050505050565b5f5ffd5b5f73ffffffffffffffffffffffffffffffffffffffff82169050919050565b5f6102d3826102aa565b9050919050565b6102e3816102c9565b81146102ed575f5ffd5b50565b5f813590506102fe816102da565b92915050565b5f60208284031215610319576103186102a6565b5b5f610326848285016102f0565b91505092915050565b610338816102c9565b82525050565b5f6020820190506103515f83018461032f565b92915050565b5f819050919050565b61036981610357565b8114610373575f5ffd5b50565b5f8135905061038481610360565b92915050565b5f5f5f606084860312156103a1576103a06102a6565b5b5f6103ae868287016102f0565b93505060206103bf868287016102f0565b92505060406103d086828701610376565b9150509250925092565b6103e381610357565b82525050565b5f6040820190506103fc5f83018561032f565b61040960208301846103da565b9392505050565b5f8115159050919050565b61042481610410565b811461042e575f5ffd5b50565b5f8151905061043f8161041b565b92915050565b5f6020828403121561045a576104596102a6565b5b5f61046784828501610431565b9150509291505056fea2646970667358221220e392d75cbe5c094a75a856360f6cc341d45c6b1fc8f0455299cbdd5669460f4c64736f6c634300081e0033610180604052348015610010575f5ffd5b50604051616ea4380380616ea483398181016040528101906100329190610606565b60015f819055505f73ffffffffffffffffffffffffffffffffffffffff168873ffffffffffffffffffffffffffffffffffffffff16036100a7576040517f08c379a000000000000000000000000000000000000000000000000000000000815260040161009e9061072d565b60405180910390fd5b5f87116100e9576040517f08c379a00000000000000000000000000000000000000000000000000000000081526004016100e0906107bb565b60405180910390fd5b5f86101561012c576040517f08c379a000000000000000000000000000000000000000000000000000000000815260040161012390610849565b60405180910390fd5b5f85511161016f576040517f08c379a0000000000000000000000000000000000000000000000000000000008152600401610166906108b1565b60405180910390fd5b3373ffffffffffffffffffffffffffffffffffffffff1660808173ffffffffffffffffffffffffffffffffffffffff16815250508773ffffffffffffffffffffffffffffffffffffffff1660a08173ffffffffffffffffffffffffffffffffffffffff16815250508660c081815250508560e0818152505084600190816101f69190610ad6565b50831515610100811515815250508273ffffffffffffffffffffffffffffffffffffffff166101208173ffffffffffffffffffffffffffffffffffffffff16815250508173ffffffffffffffffffffffffffffffffffffffff166101408173ffffffffffffffffffffffffffffffffffffffff16815250505f600960076101000a81548160ff0219169083600281111561029357610292610ba5565b5b02179055504265ffffffffffff166101608165ffffffffffff16815250505f6003819055508060045f6101000a81548165ffffffffffff021916908365ffffffffffff1602179055505f6005819055505f6006819055505f60075f6101000a81548160ff0219169083151502179055505f600760016101000a81548165ffffffffffff021916908365ffffffffffff160217905550426007600d6101000a81548165ffffffffffff021916908365ffffffffffff1602179055506301e133804261035d9190610bff565b6007806101000a81548165ffffffffffff021916908365ffffffffffff16021790555060a05173ffffffffffffffffffffffffffffffffffffffff1660805173ffffffffffffffffffffffffffffffffffffffff167f4f1197914a173d10d32a79e20a053170d7dafb93e77cc4f686ce07cdfa0c20fd60016040516103e29190610cb3565b60405180910390a35050505050505050610cd3565b5f604051905090565b5f5ffd5b5f5ffd5b5f73ffffffffffffffffffffffffffffffffffffffff82169050919050565b5f61043182610408565b9050919050565b61044181610427565b811461044b575f5ffd5b50565b5f8151905061045c81610438565b92915050565b5f819050919050565b61047481610462565b811461047e575f5ffd5b50565b5f8151905061048f8161046b565b92915050565b5f5ffd5b5f5ffd5b5f601f19601f8301169050919050565b7f4e487b71000000000000000000000000000000000000000000000000000000005f52604160045260245ffd5b6104e38261049d565b810181811067ffffffffffffffff82111715610502576105016104ad565b5b80604052505050565b5f6105146103f7565b905061052082826104da565b919050565b5f67ffffffffffffffff82111561053f5761053e6104ad565b5b6105488261049d565b9050602081019050919050565b8281835e5f83830152505050565b5f61057561057084610525565b61050b565b90508281526020810184848401111561059157610590610499565b5b61059c848285610555565b509392505050565b5f82601f8301126105b8576105b7610495565b5b81516105c8848260208601610563565b91505092915050565b5f8115159050919050565b6105e5816105d1565b81146105ef575f5ffd5b50565b5f81519050610600816105dc565b92915050565b5f5f5f5f5f5f5f5f610100898b03121561062357610622610400565b5b5f6106308b828c0161044e565b98505060206106418b828c01610481565b97505060406106528b828c01610481565b965050606089015167ffffffffffffffff81111561067357610672610404565b5b61067f8b828c016105a4565b95505060806106908b828c016105f2565b94505060a06106a18b828c0161044e565b93505060c06106b28b828c0161044e565b92505060e06106c38b828c01610481565b9150509295985092959890939650565b5f82825260208201905092915050565b7f496e76616c69642074656e616e742061646472657373000000000000000000005f82015250565b5f6107176016836106d3565b9150610722826106e3565b602082019050919050565b5f6020820190508181035f8301526107448161070b565b9050919050565b7f52656e7420616d6f756e74206d7573742062652067726561746572207468616e5f8201527f2030000000000000000000000000000000000000000000000000000000000000602082015250565b5f6107a56022836106d3565b91506107b08261074b565b604082019050919050565b5f6020820190508181035f8301526107d281610799565b9050919050565b7f4465706f73697420616d6f756e74206d757374206265206e6f6e2d6e656761745f8201527f6976650000000000000000000000000000000000000000000000000000000000602082015250565b5f6108336023836106d3565b915061083e826107d9565b604082019050919050565b5f6020820190508181035f83015261086081610827565b9050919050565b7f495046532068617368206d7573742062652073657400000000000000000000005f82015250565b5f61089b6015836106d3565b91506108a682610867565b602082019050919050565b5f6020820190508181035f8301526108c88161088f565b9050919050565b5f81519050919050565b7f4e487b71000000000000000000000000000000000000000000000000000000005f52602260045260245ffd5b5f600282049050600182168061091d57607f821691505b6020821081036109305761092f6108d9565b5b50919050565b5f819050815f5260205f209050919050565b5f6020601f8301049050919050565b5f82821b905092915050565b5f600883026109927fffffffffffffffffffffffffffffffffffffffffffffffffffffffffffffffff82610957565b61099c8683610957565b95508019841693508086168417925050509392505050565b5f819050919050565b5f6109d76109d26109cd84610462565b6109b4565b610462565b9050919050565b5f819050919050565b6109f0836109bd565b610a046109fc826109de565b848454610963565b825550505050565b5f5f905090565b610a1b610a0c565b610a268184846109e7565b505050565b5b81811015610a4957610a3e5f82610a13565b600181019050610a2c565b5050565b601f821115610a8e57610a5f81610936565b610a6884610948565b81016020851015610a77578190505b610a8b610a8385610948565b830182610a2b565b50505b505050565b5f82821c905092915050565b5f610aae5f1984600802610a93565b1980831691505092915050565b5f610ac68383610a9f565b9150826002028217905092915050565b610adf826108cf565b67ffffffffffffffff811115610af857610af76104ad565b5b610b028254610906565b610b0d828285610a4d565b5f60209050601f831160018114610b3e575f8415610b2c578287015190505b610b368582610abb565b865550610b9d565b601f198416610b4c86610936565b5f5b82811015610b7357848901518255600182019150602085019450602081019050610b4e565b86831015610b905784890151610b8c601f891682610a9f565b8355505b6001600288020188555050505b505050505050565b7f4e487b71000000000000000000000000000000000000000000000000000000005f52602160045260245ffd5b7f4e487b71000000000000000000000000000000000000000000000000000000005f52601160045260245ffd5b5f610c0982610462565b9150610c1483610462565b9250828201905080821115610c2c57610c2b610bd2565b5b92915050565b5f8154610c3e81610906565b610c4881866106d3565b9450600182165f8114610c625760018114610c7857610caa565b60ff198316865281151560200286019350610caa565b610c8185610936565b5f5b83811015610ca257815481890152600182019150602081019050610c83565b808801955050505b50505092915050565b5f6020820190508181035f830152610ccb8184610c32565b905092915050565b60805160a05160c05160e05161010051610120516101405161016051615faf610ef55f395f8181611401015261165b01525f8181612108015261228801525f81816117d901528181611e8c015281816123f801528181612c930152818161367d0152613e9001525f8181610fe10152818161178b01528181611e18015281816123c801528181612ba80152612c5c01525f81816114a9015281816117af015261198301525f8181610b9f0152818161120d01528181612bcc01528181613d1e015261428e01525f8181610b0f01528181610c6b01528181610d6b01528181611371015281816115d10152818161168701528181611de501528181612078015281816121f80152818161271e015281816128f9015281816129dc01528181612a9b01528181613006015281816130e001528181613145015281816131c00152818161334e01528181613508015281816136a1015281816139d001528181613cfa0152818161404f015261422001525f818161099001528181610a4901528181610aba01528181610d16015281816110340152818161117f0152818161131c015281816114cd01528181611ad301528181611c5101528181611ce001528181612023015281816121a3015281816123390152818161241c01528181612bf00152818161316b015281816132f90152818161384f01528181613a4c01528181613a7001528181613bfd01528181613c6b01528181613ecd01526142b20152615faf5ff3fe6080604052600436106102c8575f3560e01c80637f91df9c11610174578063d077fb10116100db578063dd66857f11610094578063f24bb69b1161006e578063f24bb69b1461090e578063f84a0f2d14610938578063f8ef1e131461094e578063f8fd050114610978576102c8565b8063dd66857f146108b8578063e36a03e0146108ce578063ea9e7f6a146108e4576102c8565b8063d077fb10146107e4578063d39763c81461080e578063d426e15514610838578063d6e82dca1461084e578063d9ef045914610864578063dc1997ea1461088e576102c8565b8063a709c4fe1161012d578063a709c4fe14610730578063aa0180051461073a578063adf0779114610750578063b651bb611461077a578063c3efc734146107a4578063c418c525146107ce576102c8565b80637f91df9c1461064a5780638e15f473146106745780638e7f727f1461069e5780639378b8c1146106c65780639f1f9082146106dc578063a5e047b8146106f2576102c8565b806336ec98ef116102335780635c274b86116101ec578063775e9fce116101c6578063775e9fce146105b65780637e076249146105e05780637e88f6031461060a5780637ec3110c14610620576102c8565b80635c274b861461056c57806361bc1a49146105765780636845071d146105a0576102c8565b806336ec98ef146104845780633e3bd90e146104ae578063419759f5146104d85780634d5dca5a146105025780635561ae6214610518578063587419d514610542576102c8565b80631f85316c116102855780631f85316c146103b05780632dfefcca146103da5780633070c38b146103f057806331d019b71461040657806333fc11831461043057806334cbfdfe1461045a576102c8565b806303c77fa4146102cc5780630752db7a146102f45780630abb1d7f1461030a578063140f26bf1461032057806318bb32f51461034a5780631ca43edd14610374575b5f5ffd5b3480156102d7575f5ffd5b506102f260048036038101906102ed91906145ff565b61098e565b005b3480156102ff575f5ffd5b50610308610ab8565b005b348015610315575f5ffd5b5061031e610d14565b005b34801561032b575f5ffd5b50610334610f53565b60405161034191906146a6565b60405180910390f35b348015610355575f5ffd5b5061035e610fdf565b60405161036b91906146e0565b60405180910390f35b34801561037f575f5ffd5b5061039a60048036038101906103959190614753565b611003565b6040516103a791906146e0565b60405180910390f35b3480156103bb575f5ffd5b506103c4611020565b6040516103d191906146e0565b60405180910390f35b3480156103e5575f5ffd5b506103ee611032565b005b3480156103fb575f5ffd5b5061040461117d565b005b348015610411575f5ffd5b5061041a6112ed565b60405161042791906147f1565b60405180910390f35b34801561043b575f5ffd5b50610444611300565b60405161045191906146e0565b60405180910390f35b348015610465575f5ffd5b5061046e611313565b60405161047b9190614822565b60405180910390f35b34801561048f575f5ffd5b50610498611319565b6040516104a59190614822565b60405180910390f35b3480156104b9575f5ffd5b506104c2611491565b6040516104cf919061485b565b60405180910390f35b3480156104e3575f5ffd5b506104ec6114a7565b6040516104f99190614822565b60405180910390f35b34801561050d575f5ffd5b506105166114cb565b005b348015610523575f5ffd5b5061052c611641565b604051610539919061485b565b60405180910390f35b34801561054d575f5ffd5b50610556611659565b604051610563919061485b565b60405180910390f35b61057461167d565b005b348015610581575f5ffd5b5061058a611acb565b6040516105979190614822565b60405180910390f35b3480156105ab575f5ffd5b506105b4611ad1565b005b3480156105c1575f5ffd5b506105ca611cbd565b6040516105d79190614822565b60405180910390f35b3480156105eb575f5ffd5b506105f4611cc3565b60405161060191906146e0565b60405180910390f35b348015610615575f5ffd5b5061061e611cd6565b005b34801561062b575f5ffd5b50610634612008565b604051610641919061485b565b60405180910390f35b348015610655575f5ffd5b5061065e612020565b60405161066b9190614822565b60405180910390f35b34801561067f575f5ffd5b506106886121a0565b6040516106959190614822565b60405180910390f35b3480156106a9575f5ffd5b506106c460048036038101906106bf919061489e565b61232f565b005b3480156106d1575f5ffd5b506106da61271c565b005b3480156106e7575f5ffd5b506106f06128f7565b005b3480156106fd575f5ffd5b50610718600480360381019061071391906148f8565b612a3f565b60405161072793929190614923565b60405180910390f35b610738612a91565b005b348015610745575f5ffd5b5061074e613004565b005b34801561075b575f5ffd5b50610764613143565b6040516107719190614967565b60405180910390f35b348015610785575f5ffd5b5061078e613167565b60405161079b9190614a95565b60405180910390f35b3480156107af575f5ffd5b506107b86132f5565b6040516107c591906146a6565b60405180910390f35b3480156107d9575f5ffd5b506107e2613506565b005b3480156107ef575f5ffd5b506107f8613669565b60405161080591906146e0565b60405180910390f35b348015610819575f5ffd5b5061082261367b565b60405161082f9190614967565b60405180910390f35b348015610843575f5ffd5b5061084c61369f565b005b348015610859575f5ffd5b5061086261384d565b005b34801561086f575f5ffd5b50610878613a33565b604051610885919061485b565b60405180910390f35b348015610899575f5ffd5b506108a2613a4a565b6040516108af9190614967565b60405180910390f35b3480156108c3575f5ffd5b506108cc613a6e565b005b3480156108d9575f5ffd5b506108e2613c69565b005b3480156108ef575f5ffd5b506108f861402f565b6040516109059190614822565b60405180910390f35b348015610919575f5ffd5b50610922614035565b60405161092f919061485b565b60405180910390f35b348015610943575f5ffd5b5061094c61404d565b005b348015610959575f5ffd5b5061096261428c565b60405161096f9190614822565b60405180910390f35b348015610983575f5ffd5b5061098c6142b0565b005b7f000000000000000000000000000000000000000000000000000000000000000073ffffffffffffffffffffffffffffffffffffffff163373ffffffffffffffffffffffffffffffffffffffff1614610a1c576040517f08c379a0000000000000000000000000000000000000000000000000000000008152600401610a1390614b25565b60405180910390fd5b6001600960076101000a81548160ff02191690836002811115610a4257610a4161477e565b5b02179055507f000000000000000000000000000000000000000000000000000000000000000073ffffffffffffffffffffffffffffffffffffffff167f7b73f5d770f3eb41fd57f1e6a1c9e2a5ec61febbbd4e608d511c46e3fd61163982604051610aad91906146a6565b60405180910390a250565b7f000000000000000000000000000000000000000000000000000000000000000073ffffffffffffffffffffffffffffffffffffffff163373ffffffffffffffffffffffffffffffffffffffff161480610b5d57507f000000000000000000000000000000000000000000000000000000000000000073ffffffffffffffffffffffffffffffffffffffff163373ffffffffffffffffffffffffffffffffffffffff16145b610b9c576040517f08c379a0000000000000000000000000000000000000000000000000000000008152600401610b9390614bb3565b60405180910390fd5b5f7f000000000000000000000000000000000000000000000000000000000000000090505f60065490505f73__$f6bd971a7c05cea9d3394c8f102f387bcb$__635468af10600960019054906101000a900465ffffffffffff166040518263ffffffff1660e01b8152600401610c129190614c0a565b602060405180830381865af4158015610c2d573d5f5f3e3d5ffd5b505050506040513d601f19601f82011682018060405250810190610c519190614c37565b905080421115610cd8578282610c679190614c8f565b91507f000000000000000000000000000000000000000000000000000000000000000073ffffffffffffffffffffffffffffffffffffffff167f2774f4712321fe39a50cf43384f7a594356cdabd366829262f2654fe2f3b77f984604051610ccf9190614822565b60405180910390a25b7fbbcc51fa936f3a76812be73764f05aafeeb3d972c46d98dd196244186bad147f81604051610d079190614822565b60405180910390a1505050565b7f000000000000000000000000000000000000000000000000000000000000000073ffffffffffffffffffffffffffffffffffffffff163373ffffffffffffffffffffffffffffffffffffffff161480610db957507f000000000000000000000000000000000000000000000000000000000000000073ffffffffffffffffffffffffffffffffffffffff163373ffffffffffffffffffffffffffffffffffffffff16145b610df8576040517f08c379a0000000000000000000000000000000000000000000000000000000008152600401610def90614bb3565b60405180910390fd5b5f6002811115610e0b57610e0a61477e565b5b600960079054906101000a900460ff166002811115610e2d57610e2c61477e565b5b1480610e6b5750600280811115610e4757610e4661477e565b5b600960079054906101000a900460ff166002811115610e6957610e6861477e565b5b145b610eaa576040517f08c379a0000000000000000000000000000000000000000000000000000000008152600401610ea190614d0c565b60405180910390fd5b5f4260078054906101000a900465ffffffffffff1665ffffffffffff16610ed19190614d2a565b90505f6201518082610ee39190614d8a565b9050624f1a00811480610ef65750601e81145b80610f045750621275008110155b15610f4f577fd0b1f933b37bcb6fa032c1f03d79ec22be0798137cdb06ad046be2e640eafbc56201518083610f399190614d8a565b604051610f469190614822565b60405180910390a15b5050565b60018054610f6090614de7565b80601f0160208091040260200160405190810160405280929190818152602001828054610f8c90614de7565b8015610fd75780601f10610fae57610100808354040283529160200191610fd7565b820191905f5260205f20905b815481529060010190602001808311610fba57829003601f168201915b505050505081565b7f000000000000000000000000000000000000000000000000000000000000000081565b6008602052805f5260405f205f915054906101000a900460ff1681565b60075f9054906101000a900460ff1681565b7f000000000000000000000000000000000000000000000000000000000000000073ffffffffffffffffffffffffffffffffffffffff163373ffffffffffffffffffffffffffffffffffffffff16146110c0576040517f08c379a00000000000000000000000000000000000000000000000000000000081526004016110b790614b25565b60405180910390fd5b6002808111156110d3576110d261477e565b5b600960079054906101000a900460ff1660028111156110f5576110f461477e565b5b14611135576040517f08c379a000000000000000000000000000000000000000000000000000000000815260040161112c90614e87565b60405180910390fd5b600160095f6101000a81548160ff0219169083151502179055507f894c4b81f1e4030455842353856ce104fc0582f01bd61e6bbe4d2c7c47ab508f60405160405180910390a1565b7f000000000000000000000000000000000000000000000000000000000000000073ffffffffffffffffffffffffffffffffffffffff163373ffffffffffffffffffffffffffffffffffffffff161461120b576040517f08c379a000000000000000000000000000000000000000000000000000000000815260040161120290614b25565b60405180910390fd5b7f000000000000000000000000000000000000000000000000000000000000000060036112389190614ea5565b60065411156112eb576276a700426112509190614c8f565b600760016101000a81548165ffffffffffff021916908365ffffffffffff1602179055506002600960076101000a81548160ff0219169083600281111561129a5761129961477e565b5b02179055507f2032eea88030b7d191bcbdc44c5ac10ed559f3e9f56a319c896f007b55aba5c6600760019054906101000a900465ffffffffffff166040516112e29190614ef5565b60405180910390a15b565b600960079054906101000a900460ff1681565b600760149054906101000a900460ff1681565b60055481565b5f7f000000000000000000000000000000000000000000000000000000000000000073ffffffffffffffffffffffffffffffffffffffff163373ffffffffffffffffffffffffffffffffffffffff1614806113bf57507f000000000000000000000000000000000000000000000000000000000000000073ffffffffffffffffffffffffffffffffffffffff163373ffffffffffffffffffffffffffffffffffffffff16145b6113fe576040517f08c379a00000000000000000000000000000000000000000000000000000000081526004016113f590614bb3565b60405180910390fd5b5f7f000000000000000000000000000000000000000000000000000000000000000065ffffffffffff16426114339190614d2a565b90505f6301e13380826114469190614d8a565b90505f611451612020565b90505f606483836114629190614ea5565b61146c9190614d8a565b60016114789190614c8f565b6002546114859190614ea5565b90508094505050505090565b60078054906101000a900465ffffffffffff1681565b7f000000000000000000000000000000000000000000000000000000000000000081565b7f000000000000000000000000000000000000000000000000000000000000000073ffffffffffffffffffffffffffffffffffffffff163373ffffffffffffffffffffffffffffffffffffffff1614611559576040517f08c379a000000000000000000000000000000000000000000000000000000000815260040161155090614b25565b60405180910390fd5b60075f9054906101000a900460ff166115a7576040517f08c379a000000000000000000000000000000000000000000000000000000000815260040161159e90614f58565b60405180910390fd5b60055f8154809291906115b990614f76565b919050555060075f6101000a81549060ff02191690557f000000000000000000000000000000000000000000000000000000000000000073ffffffffffffffffffffffffffffffffffffffff167f3b3128f7f622ff2560e38be1b058b93ba3d585cba51577708f3da9d6fe4cd9256005546040516116379190614822565b60405180910390a2565b600960019054906101000a900465ffffffffffff1681565b7f000000000000000000000000000000000000000000000000000000000000000081565b61168561445c565b7f000000000000000000000000000000000000000000000000000000000000000073ffffffffffffffffffffffffffffffffffffffff163373ffffffffffffffffffffffffffffffffffffffff1614611713576040517f08c379a000000000000000000000000000000000000000000000000000000000815260040161170a9061502d565b60405180910390fd5b5f60028111156117265761172561477e565b5b600960079054906101000a900460ff1660028111156117485761174761477e565b5b14611788576040517f08c379a000000000000000000000000000000000000000000000000000000000815260040161177f90615095565b60405180910390fd5b5f7f000000000000000000000000000000000000000000000000000000000000000090505f7f000000000000000000000000000000000000000000000000000000000000000090505f60025490505f7f000000000000000000000000000000000000000000000000000000000000000090505f8415611969575f3414611843576040517f08c379a000000000000000000000000000000000000000000000000000000000815260040161183a90615123565b60405180910390fd5b8390503373ffffffffffffffffffffffffffffffffffffffff167fd843b6e8d49f0e65c61fb0c27466e0719df02e1ca2340e577c3e289c1ac9154c828760405161188e929190615141565b60405180910390a28173ffffffffffffffffffffffffffffffffffffffff166323b872dd3330846040518463ffffffff1660e01b81526004016118d393929190615168565b6020604051808303815f875af11580156118ef573d5f5f3e3d5ffd5b505050506040513d601f19601f8201168201806040525081019061191391906151c7565b611952576040517f08c379a00000000000000000000000000000000000000000000000000000000081526004016119499061523c565b60405180910390fd5b808361195e9190614c8f565b600281905550611abc565b5f6119726121a0565b9050806a52b7d2dcc80cd2e40000007f00000000000000000000000000000000000000000000000000000000000000006119ac9190614ea5565b6119b69190614d8a565b9150813410156119fb576040517f08c379a00000000000000000000000000000000000000000000000000000000081526004016119f2906152a4565b60405180910390fd5b5f8234611a089190614d2a565b90505f811115611aa7573373ffffffffffffffffffffffffffffffffffffffff167fd843b6e8d49f0e65c61fb0c27466e0719df02e1ca2340e577c3e289c1ac9154c8489604051611a5a929190615141565b60405180910390a23373ffffffffffffffffffffffffffffffffffffffff166108fc8290811502906040515f60405180830381858888f19350505050158015611aa5573d5f5f3e3d5ffd5b505b8285611ab39190614c8f565b60028190555050505b5050505050611ac96144a9565b565b60025481565b7f000000000000000000000000000000000000000000000000000000000000000073ffffffffffffffffffffffffffffffffffffffff163373ffffffffffffffffffffffffffffffffffffffff1614611b5f576040517f08c379a0000000000000000000000000000000000000000000000000000000008152600401611b5690614b25565b60405180910390fd5b60078054906101000a900465ffffffffffff1665ffffffffffff16421015611bbc576040517f08c379a0000000000000000000000000000000000000000000000000000000008152600401611bb39061530c565b60405180910390fd5b600760149054906101000a900460ff161580611be55750600760139054906101000a900460ff16155b611c24576040517f08c379a0000000000000000000000000000000000000000000000000000000008152600401611c1b90615374565b60405180910390fd5b6001600960076101000a81548160ff02191690836002811115611c4a57611c4961477e565b5b02179055507f000000000000000000000000000000000000000000000000000000000000000073ffffffffffffffffffffffffffffffffffffffff167f7b73f5d770f3eb41fd57f1e6a1c9e2a5ec61febbbd4e608d511c46e3fd611639604051611cb3906153dc565b60405180910390a2565b60065481565b600760139054906101000a900460ff1681565b611cde61445c565b7f000000000000000000000000000000000000000000000000000000000000000073ffffffffffffffffffffffffffffffffffffffff163373ffffffffffffffffffffffffffffffffffffffff1614611d6c576040517f08c379a0000000000000000000000000000000000000000000000000000000008152600401611d6390614b25565b60405180910390fd5b60016002811115611d8057611d7f61477e565b5b600960079054906101000a900460ff166002811115611da257611da161477e565b5b14611de2576040517f08c379a0000000000000000000000000000000000000000000000000000000008152600401611dd990615444565b60405180910390fd5b5f7f000000000000000000000000000000000000000000000000000000000000000090505f611e0f611319565b905060025f90557f000000000000000000000000000000000000000000000000000000000000000015611f69578173ffffffffffffffffffffffffffffffffffffffff167fa09244c122a83074363635dc89ce0098166c2f74827960ff64a7c8e6ad1c57a282604051611e829190614822565b60405180910390a27f000000000000000000000000000000000000000000000000000000000000000073ffffffffffffffffffffffffffffffffffffffff1663a9059cbb83836040518363ffffffff1660e01b8152600401611ee5929190615462565b6020604051808303815f875af1158015611f01573d5f5f3e3d5ffd5b505050506040513d601f19601f82011682018060405250810190611f2591906151c7565b611f64576040517f08c379a0000000000000000000000000000000000000000000000000000000008152600401611f5b906154d3565b60405180910390fd5b611ffc565b8173ffffffffffffffffffffffffffffffffffffffff167fa09244c122a83074363635dc89ce0098166c2f74827960ff64a7c8e6ad1c57a282604051611faf9190614822565b60405180910390a28173ffffffffffffffffffffffffffffffffffffffff166108fc8290811502906040515f60405180830381858888f19350505050158015611ffa573d5f5f3e3d5ffd5b505b50506120066144a9565b565b600760019054906101000a900465ffffffffffff1681565b5f7f000000000000000000000000000000000000000000000000000000000000000073ffffffffffffffffffffffffffffffffffffffff163373ffffffffffffffffffffffffffffffffffffffff1614806120c657507f000000000000000000000000000000000000000000000000000000000000000073ffffffffffffffffffffffffffffffffffffffff163373ffffffffffffffffffffffffffffffffffffffff16145b612105576040517f08c379a00000000000000000000000000000000000000000000000000000000081526004016120fc90614bb3565b60405180910390fd5b5f7f000000000000000000000000000000000000000000000000000000000000000073ffffffffffffffffffffffffffffffffffffffff1663feaf968c6040518163ffffffff1660e01b815260040160a060405180830381865afa15801561216f573d5f5f3e3d5ffd5b505050506040513d601f19601f820116820180604052508101906121939190615563565b5050509150508091505090565b5f7f000000000000000000000000000000000000000000000000000000000000000073ffffffffffffffffffffffffffffffffffffffff163373ffffffffffffffffffffffffffffffffffffffff16148061224657507f000000000000000000000000000000000000000000000000000000000000000073ffffffffffffffffffffffffffffffffffffffff163373ffffffffffffffffffffffffffffffffffffffff16145b612285576040517f08c379a000000000000000000000000000000000000000000000000000000000815260040161227c90614bb3565b60405180910390fd5b5f7f000000000000000000000000000000000000000000000000000000000000000073ffffffffffffffffffffffffffffffffffffffff1663feaf968c6040518163ffffffff1660e01b815260040160a060405180830381865afa1580156122ef573d5f5f3e3d5ffd5b505050506040513d601f19601f820116820180604052508101906123139190615563565b5050509150506305f5e1008161232991906155da565b91505090565b61233761445c565b7f000000000000000000000000000000000000000000000000000000000000000073ffffffffffffffffffffffffffffffffffffffff163373ffffffffffffffffffffffffffffffffffffffff16146123c5576040517f08c379a00000000000000000000000000000000000000000000000000000000081526004016123bc90614b25565b60405180910390fd5b5f7f000000000000000000000000000000000000000000000000000000000000000090505f60025490505f60035490505f7f000000000000000000000000000000000000000000000000000000000000000090505f7f000000000000000000000000000000000000000000000000000000000000000090505f85156125d057670de0b6b3a7640000886124589190614ea5565b90508481111561249d576040517f08c379a00000000000000000000000000000000000000000000000000000000081526004016124949061569a565b60405180910390fd5b80856124a99190614d2a565b60028190555080846124bb9190614c8f565b6003819055508173ffffffffffffffffffffffffffffffffffffffff167f0e71db61460cade63bdce2bd520284d5fcde93eb8604be23456ac0761c5cb4d982896040516125099291906156b8565b60405180910390a28273ffffffffffffffffffffffffffffffffffffffff1663a9059cbb83836040518363ffffffff1660e01b815260040161254c929190615462565b6020604051808303815f875af1158015612568573d5f5f3e3d5ffd5b505050506040513d601f19601f8201168201806040525081019061258c91906151c7565b6125cb576040517f08c379a00000000000000000000000000000000000000000000000000000000081526004016125c290615730565b60405180910390fd5b61270a565b5f6125d96121a0565b9050806305f5e100670de0b6b3a76400008b6125f59190614ea5565b6125ff9190614ea5565b6126099190614d8a565b9150600254821115612650576040517f08c379a00000000000000000000000000000000000000000000000000000000081526004016126479061569a565b60405180910390fd5b818661265c9190614d2a565b600281905550818561266e9190614c8f565b6003819055508273ffffffffffffffffffffffffffffffffffffffff167f0e71db61460cade63bdce2bd520284d5fcde93eb8604be23456ac0761c5cb4d9838a6040516126bc9291906156b8565b60405180910390a28273ffffffffffffffffffffffffffffffffffffffff166108fc8390811502906040515f60405180830381858888f19350505050158015612707573d5f5f3e3d5ffd5b50505b5050505050506127186144a9565b5050565b7f000000000000000000000000000000000000000000000000000000000000000073ffffffffffffffffffffffffffffffffffffffff163373ffffffffffffffffffffffffffffffffffffffff16146127aa576040517f08c379a00000000000000000000000000000000000000000000000000000000081526004016127a19061502d565b60405180910390fd5b6002808111156127bd576127bc61477e565b5b600960079054906101000a900460ff1660028111156127df576127de61477e565b5b1461281f576040517f08c379a0000000000000000000000000000000000000000000000000000000008152600401612816906157be565b60405180910390fd5b60095f9054906101000a900460ff1661286d576040517f08c379a00000000000000000000000000000000000000000000000000000000081526004016128649061584c565b60405180910390fd5b6001600960076101000a81548160ff021916908360028111156128935761289261477e565b5b021790555060095f6101000a81549060ff02191690553373ffffffffffffffffffffffffffffffffffffffff167f7b73f5d770f3eb41fd57f1e6a1c9e2a5ec61febbbd4e608d511c46e3fd6116396040516128ed906158da565b60405180910390a2565b7f000000000000000000000000000000000000000000000000000000000000000073ffffffffffffffffffffffffffffffffffffffff163373ffffffffffffffffffffffffffffffffffffffff1614612985576040517f08c379a000000000000000000000000000000000000000000000000000000000815260040161297c9061502d565b60405180910390fd5b600160085f3373ffffffffffffffffffffffffffffffffffffffff1673ffffffffffffffffffffffffffffffffffffffff1681526020019081526020015f205f6101000a81548160ff0219169083151502179055507f000000000000000000000000000000000000000000000000000000000000000073ffffffffffffffffffffffffffffffffffffffff167fdf1017ada2abff5f3789875c04505d4ecf56892b84e1bc945672af34b65308ad60405160405180910390a2565b600a8181548110612a4e575f80fd5b905f5260205f2090600302015f91509050805f015f9054906101000a900465ffffffffffff1690806001015490806002015f9054906101000a900460ff16905083565b612a9961445c565b7f000000000000000000000000000000000000000000000000000000000000000073ffffffffffffffffffffffffffffffffffffffff163373ffffffffffffffffffffffffffffffffffffffff1614612b27576040517f08c379a0000000000000000000000000000000000000000000000000000000008152600401612b1e9061502d565b60405180910390fd5b60016002811115612b3b57612b3a61477e565b5b600960079054906101000a900460ff166002811115612b5d57612b5c61477e565b5b03612b9d576040517f08c379a0000000000000000000000000000000000000000000000000000000008152600401612b9490615095565b60405180910390fd5b612ba5610ab8565b5f7f000000000000000000000000000000000000000000000000000000000000000090505f7f000000000000000000000000000000000000000000000000000000000000000090505f7f000000000000000000000000000000000000000000000000000000000000000090505f60065490505f8415612d72578390503373ffffffffffffffffffffffffffffffffffffffff167fa0e44cc6f4f184bc83e145bf7f0cc703b7f698476124cf6a9d7d403d202e77fd827f0000000000000000000000000000000000000000000000000000000000000000604051612c89929190615141565b60405180910390a27f000000000000000000000000000000000000000000000000000000000000000073ffffffffffffffffffffffffffffffffffffffff166323b872dd3385846040518463ffffffff1660e01b8152600401612cee93929190615168565b6020604051808303815f875af1158015612d0a573d5f5f3e3d5ffd5b505050506040513d601f19601f82011682018060405250810190612d2e91906151c7565b612d6d576040517f08c379a0000000000000000000000000000000000000000000000000000000008152600401612d64906154d3565b60405180910390fd5b612f31565b5f612d7b6121a0565b9050806a52b7d2dcc80cd2e400000086612d959190614ea5565b612d9f9190614d8a565b915081341015612de4576040517f08c379a0000000000000000000000000000000000000000000000000000000008152600401612ddb90615942565b60405180910390fd5b3373ffffffffffffffffffffffffffffffffffffffff167fa0e44cc6f4f184bc83e145bf7f0cc703b7f698476124cf6a9d7d403d202e77fd8388604051612e2c929190615141565b60405180910390a28373ffffffffffffffffffffffffffffffffffffffff166108fc8390811502906040515f60405180830381858888f19350505050158015612e77573d5f5f3e3d5ffd5b508134118015612e8757505f8311155b15612f2f575f8234612e999190614d2a565b90503373ffffffffffffffffffffffffffffffffffffffff167fcb0b01ae40819885e744400acefd6c0da6c2d19696c031ba7e73062bb896317982604051612ee19190614822565b60405180910390a23373ffffffffffffffffffffffffffffffffffffffff166108fc8290811502906040515f60405180830381858888f19350505050158015612f2c573d5f5f3e3d5ffd5b50505b505b808211612f425760065f9055612f55565b8082612f4e9190614d2a565b6006819055505b600a60405180606001604052804265ffffffffffff168152602001838152602001871515815250908060018154018082558091505060019003905f5260205f2090600302015f909190919091505f820151815f015f6101000a81548165ffffffffffff021916908365ffffffffffff160217905550602082015181600101556040820151816002015f6101000a81548160ff021916908315150217905550505050505050506130026144a9565b565b7f000000000000000000000000000000000000000000000000000000000000000073ffffffffffffffffffffffffffffffffffffffff163373ffffffffffffffffffffffffffffffffffffffff1614613092576040517f08c379a00000000000000000000000000000000000000000000000000000000081526004016130899061502d565b60405180910390fd5b60085f3373ffffffffffffffffffffffffffffffffffffffff1673ffffffffffffffffffffffffffffffffffffffff1681526020019081526020015f205f6101000a81549060ff02191690557f000000000000000000000000000000000000000000000000000000000000000073ffffffffffffffffffffffffffffffffffffffff167feb93e38aac72f8dbc7de1da759a24054e40c37a79e05ccea9802ac2dc23287f760405160405180910390a2565b7f000000000000000000000000000000000000000000000000000000000000000081565b60607f000000000000000000000000000000000000000000000000000000000000000073ffffffffffffffffffffffffffffffffffffffff163373ffffffffffffffffffffffffffffffffffffffff16148061320e57507f000000000000000000000000000000000000000000000000000000000000000073ffffffffffffffffffffffffffffffffffffffff163373ffffffffffffffffffffffffffffffffffffffff16145b61324d576040517f08c379a000000000000000000000000000000000000000000000000000000000815260040161324490614bb3565b60405180910390fd5b600a805480602002602001604051908101604052809291908181526020015f905b828210156132ec578382905f5260205f2090600302016040518060600160405290815f82015f9054906101000a900465ffffffffffff1665ffffffffffff1665ffffffffffff16815260200160018201548152602001600282015f9054906101000a900460ff1615151515815250508152602001906001019061326e565b50505050905090565b60607f000000000000000000000000000000000000000000000000000000000000000073ffffffffffffffffffffffffffffffffffffffff163373ffffffffffffffffffffffffffffffffffffffff16148061339c57507f000000000000000000000000000000000000000000000000000000000000000073ffffffffffffffffffffffffffffffffffffffff163373ffffffffffffffffffffffffffffffffffffffff16145b6133db576040517f08c379a00000000000000000000000000000000000000000000000000000000081526004016133d290614bb3565b60405180910390fd5b5f60028111156133ee576133ed61477e565b5b600960079054906101000a900460ff1660028111156134105761340f61477e565b5b03613452576040518060400160405280600681526020017f41637469766500000000000000000000000000000000000000000000000000008152509050613503565b600160028111156134665761346561477e565b5b600960079054906101000a900460ff1660028111156134885761348761477e565b5b036134ca576040518060400160405280600a81526020017f5465726d696e61746564000000000000000000000000000000000000000000008152509050613503565b6040518060400160405280601281526020017f50656e64696e675465726d696e6174696f6e000000000000000000000000000081525090505b90565b7f000000000000000000000000000000000000000000000000000000000000000073ffffffffffffffffffffffffffffffffffffffff163373ffffffffffffffffffffffffffffffffffffffff1614613594576040517f08c379a000000000000000000000000000000000000000000000000000000000815260040161358b9061502d565b60405180910390fd5b5f60028111156135a7576135a661477e565b5b600960079054906101000a900460ff1660028111156135c9576135c861477e565b5b14613609576040517f08c379a0000000000000000000000000000000000000000000000000000000008152600401613600906159aa565b60405180910390fd5b6001600760136101000a81548160ff0219169083151502179055503373ffffffffffffffffffffffffffffffffffffffff167fe50dd892821a34ea6a05e9560e362467eb50bdaa8a01f3807e5778b21296a41a60405160405180910390a2565b60095f9054906101000a900460ff1681565b7f000000000000000000000000000000000000000000000000000000000000000081565b7f000000000000000000000000000000000000000000000000000000000000000073ffffffffffffffffffffffffffffffffffffffff163373ffffffffffffffffffffffffffffffffffffffff161461372d576040517f08c379a00000000000000000000000000000000000000000000000000000000081526004016137249061502d565b60405180910390fd5b5f60028111156137405761373f61477e565b5b600960079054906101000a900460ff1660028111156137625761376161477e565b5b146137a2576040517f08c379a000000000000000000000000000000000000000000000000000000000815260040161379990615a12565b60405180910390fd5b6276a700426137b19190614c8f565b600760016101000a81548165ffffffffffff021916908365ffffffffffff1602179055506002600960076101000a81548160ff021916908360028111156137fb576137fa61477e565b5b02179055507f2032eea88030b7d191bcbdc44c5ac10ed559f3e9f56a319c896f007b55aba5c6600760019054906101000a900465ffffffffffff166040516138439190614ef5565b60405180910390a1565b7f000000000000000000000000000000000000000000000000000000000000000073ffffffffffffffffffffffffffffffffffffffff163373ffffffffffffffffffffffffffffffffffffffff16146138db576040517f08c379a00000000000000000000000000000000000000000000000000000000081526004016138d290614b25565b60405180910390fd5b62093a8073__$f6bd971a7c05cea9d3394c8f102f387bcb$__635468af10600960019054906101000a900465ffffffffffff166040518263ffffffff1660e01b815260040161392a9190614c0a565b602060405180830381865af4158015613945573d5f5f3e3d5ffd5b505050506040513d601f19601f820116820180604052508101906139699190614c37565b6139739190614c8f565b42116139b4576040517f08c379a00000000000000000000000000000000000000000000000000000000081526004016139ab90615a7a565b60405180910390fd5b600160075f6101000a81548160ff0219169083151502179055507f000000000000000000000000000000000000000000000000000000000000000073ffffffffffffffffffffffffffffffffffffffff167f8e0013ec8ea09fb2e5fc1733fcaa4d39f199b60c282b0300add067402b2aa91b60405160405180910390a2565b60045f9054906101000a900465ffffffffffff1681565b7f000000000000000000000000000000000000000000000000000000000000000081565b7f000000000000000000000000000000000000000000000000000000000000000073ffffffffffffffffffffffffffffffffffffffff163373ffffffffffffffffffffffffffffffffffffffff1614613afc576040517f08c379a0000000000000000000000000000000000000000000000000000000008152600401613af390614b25565b60405180910390fd5b600280811115613b0f57613b0e61477e565b5b600960079054906101000a900460ff166002811115613b3157613b3061477e565b5b14613b71576040517f08c379a0000000000000000000000000000000000000000000000000000000008152600401613b6890615ae2565b60405180910390fd5b600760019054906101000a900465ffffffffffff1665ffffffffffff16421015613bd0576040517f08c379a0000000000000000000000000000000000000000000000000000000008152600401613bc790615b4a565b60405180910390fd5b6001600960076101000a81548160ff02191690836002811115613bf657613bf561477e565b5b02179055507f000000000000000000000000000000000000000000000000000000000000000073ffffffffffffffffffffffffffffffffffffffff167f7b73f5d770f3eb41fd57f1e6a1c9e2a5ec61febbbd4e608d511c46e3fd611639604051613c5f90615bfe565b60405180910390a2565b7f000000000000000000000000000000000000000000000000000000000000000073ffffffffffffffffffffffffffffffffffffffff163373ffffffffffffffffffffffffffffffffffffffff1614613cf7576040517f08c379a0000000000000000000000000000000000000000000000000000000008152600401613cee90614b25565b60405180910390fd5b5f7f000000000000000000000000000000000000000000000000000000000000000090505f7f0000000000000000000000000000000000000000000000000000000000000000905060085f8373ffffffffffffffffffffffffffffffffffffffff1673ffffffffffffffffffffffffffffffffffffffff1681526020019081526020015f205f9054906101000a900460ff16613dc8576040517f08c379a0000000000000000000000000000000000000000000000000000000008152600401613dbf90615c66565b60405180910390fd5b5f6002811115613ddb57613dda61477e565b5b600960079054906101000a900460ff166002811115613dfd57613dfc61477e565b5b14613e3d576040517f08c379a0000000000000000000000000000000000000000000000000000000008152600401613e3490614d0c565b60405180910390fd5b8173ffffffffffffffffffffffffffffffffffffffff167fa0e44cc6f4f184bc83e145bf7f0cc703b7f698476124cf6a9d7d403d202e77fd826001604051613e86929190615141565b60405180910390a27f000000000000000000000000000000000000000000000000000000000000000073ffffffffffffffffffffffffffffffffffffffff166323b872dd837f0000000000000000000000000000000000000000000000000000000000000000846040518463ffffffff1660e01b8152600401613f0b93929190615168565b6020604051808303815f875af1158015613f27573d5f5f3e3d5ffd5b505050506040513d601f19601f82011682018060405250810190613f4b91906151c7565b613f8a576040517f08c379a0000000000000000000000000000000000000000000000000000000008152600401613f8190615cce565b60405180910390fd5b600a60405180606001604052804265ffffffffffff16815260200183815260200160011515815250908060018154018082558091505060019003905f5260205f2090600302015f909190919091505f820151815f015f6101000a81548165ffffffffffff021916908365ffffffffffff160217905550602082015181600101556040820151816002015f6101000a81548160ff02191690831515021790555050505050565b60035481565b6007600d9054906101000a900465ffffffffffff1681565b7f000000000000000000000000000000000000000000000000000000000000000073ffffffffffffffffffffffffffffffffffffffff163373ffffffffffffffffffffffffffffffffffffffff16146140db576040517f08c379a00000000000000000000000000000000000000000000000000000000081526004016140d29061502d565b60405180910390fd5b6002808111156140ee576140ed61477e565b5b600960079054906101000a900460ff1660028111156141105761410f61477e565b5b14614150576040517f08c379a000000000000000000000000000000000000000000000000000000000815260040161414790615d36565b60405180910390fd5b600760019054906101000a900465ffffffffffff1665ffffffffffff164210156141af576040517f08c379a00000000000000000000000000000000000000000000000000000000081526004016141a690615b4a565b60405180910390fd5b5f600654146141f3576040517f08c379a00000000000000000000000000000000000000000000000000000000081526004016141ea90615d9e565b60405180910390fd5b6001600960076101000a81548160ff021916908360028111156142195761421861477e565b5b02179055507f000000000000000000000000000000000000000000000000000000000000000073ffffffffffffffffffffffffffffffffffffffff167f7b73f5d770f3eb41fd57f1e6a1c9e2a5ec61febbbd4e608d511c46e3fd61163960405161428290615e2c565b60405180910390a2565b7f000000000000000000000000000000000000000000000000000000000000000081565b7f000000000000000000000000000000000000000000000000000000000000000073ffffffffffffffffffffffffffffffffffffffff163373ffffffffffffffffffffffffffffffffffffffff161461433e576040517f08c379a000000000000000000000000000000000000000000000000000000000815260040161433590614b25565b60405180910390fd5b600760139054906101000a900460ff1661438d576040517f08c379a000000000000000000000000000000000000000000000000000000000815260040161438490615eba565b60405180910390fd5b6001600760146101000a81548160ff0219169083151502179055506301e1338060078054906101000a900465ffffffffffff166143ca9190615ed8565b6007806101000a81548165ffffffffffff021916908365ffffffffffff160217905550600760136101000a81549060ff0219169055600760146101000a81549060ff02191690557f9b92a9893c6f7c060109fbacf7a7ed7384b0d145f68541169a1a201ea42ce85460078054906101000a900465ffffffffffff166040516144529190614ef5565b60405180910390a1565b60025f54036144a0576040517f08c379a000000000000000000000000000000000000000000000000000000000815260040161449790615f5b565b60405180910390fd5b60025f81905550565b60015f81905550565b5f604051905090565b5f5ffd5b5f5ffd5b5f5ffd5b5f5ffd5b5f601f19601f8301169050919050565b7f4e487b71000000000000000000000000000000000000000000000000000000005f52604160045260245ffd5b614511826144cb565b810181811067ffffffffffffffff821117156145305761452f6144db565b5b80604052505050565b5f6145426144b2565b905061454e8282614508565b919050565b5f67ffffffffffffffff82111561456d5761456c6144db565b5b614576826144cb565b9050602081019050919050565b828183375f83830152505050565b5f6145a361459e84614553565b614539565b9050828152602081018484840111156145bf576145be6144c7565b5b6145ca848285614583565b509392505050565b5f82601f8301126145e6576145e56144c3565b5b81356145f6848260208601614591565b91505092915050565b5f60208284031215614614576146136144bb565b5b5f82013567ffffffffffffffff811115614631576146306144bf565b5b61463d848285016145d2565b91505092915050565b5f81519050919050565b5f82825260208201905092915050565b8281835e5f83830152505050565b5f61467882614646565b6146828185614650565b9350614692818560208601614660565b61469b816144cb565b840191505092915050565b5f6020820190508181035f8301526146be818461466e565b905092915050565b5f8115159050919050565b6146da816146c6565b82525050565b5f6020820190506146f35f8301846146d1565b92915050565b5f73ffffffffffffffffffffffffffffffffffffffff82169050919050565b5f614722826146f9565b9050919050565b61473281614718565b811461473c575f5ffd5b50565b5f8135905061474d81614729565b92915050565b5f60208284031215614768576147676144bb565b5b5f6147758482850161473f565b91505092915050565b7f4e487b71000000000000000000000000000000000000000000000000000000005f52602160045260245ffd5b600381106147bc576147bb61477e565b5b50565b5f8190506147cc826147ab565b919050565b5f6147db826147bf565b9050919050565b6147eb816147d1565b82525050565b5f6020820190506148045f8301846147e2565b92915050565b5f819050919050565b61481c8161480a565b82525050565b5f6020820190506148355f830184614813565b92915050565b5f65ffffffffffff82169050919050565b6148558161483b565b82525050565b5f60208201905061486e5f83018461484c565b92915050565b61487d8161480a565b8114614887575f5ffd5b50565b5f8135905061489881614874565b92915050565b5f5f604083850312156148b4576148b36144bb565b5b5f6148c18582860161488a565b925050602083013567ffffffffffffffff8111156148e2576148e16144bf565b5b6148ee858286016145d2565b9150509250929050565b5f6020828403121561490d5761490c6144bb565b5b5f61491a8482850161488a565b91505092915050565b5f6060820190506149365f83018661484c565b6149436020830185614813565b61495060408301846146d1565b949350505050565b61496181614718565b82525050565b5f60208201905061497a5f830184614958565b92915050565b5f81519050919050565b5f82825260208201905092915050565b5f819050602082019050919050565b6149b28161483b565b82525050565b6149c18161480a565b82525050565b6149d0816146c6565b82525050565b606082015f8201516149ea5f8501826149a9565b5060208201516149fd60208501826149b8565b506040820151614a1060408501826149c7565b50505050565b5f614a2183836149d6565b60608301905092915050565b5f602082019050919050565b5f614a4382614980565b614a4d818561498a565b9350614a588361499a565b805f5b83811015614a88578151614a6f8882614a16565b9750614a7a83614a2d565b925050600181019050614a5b565b5085935050505092915050565b5f6020820190508181035f830152614aad8184614a39565b905092915050565b7f4f6e6c79206c616e646c6f72642063616e20706572666f726d207468697320615f8201527f6374696f6e000000000000000000000000000000000000000000000000000000602082015250565b5f614b0f602583614650565b9150614b1a82614ab5565b604082019050919050565b5f6020820190508181035f830152614b3c81614b03565b9050919050565b7f4f6e6c79206c616e646c6f7264206f722074656e616e742063616e20706572665f8201527f6f726d207468697320616374696f6e3b00000000000000000000000000000000602082015250565b5f614b9d603083614650565b9150614ba882614b43565b604082019050919050565b5f6020820190508181035f830152614bca81614b91565b9050919050565b5f819050919050565b5f614bf4614bef614bea8461483b565b614bd1565b61480a565b9050919050565b614c0481614bda565b82525050565b5f602082019050614c1d5f830184614bfb565b92915050565b5f81519050614c3181614874565b92915050565b5f60208284031215614c4c57614c4b6144bb565b5b5f614c5984828501614c23565b91505092915050565b7f4e487b71000000000000000000000000000000000000000000000000000000005f52601160045260245ffd5b5f614c998261480a565b9150614ca48361480a565b9250828201905080821115614cbc57614cbb614c62565b5b92915050565b7f436f6e7472616374206973206e6f7420616374697665000000000000000000005f82015250565b5f614cf6601683614650565b9150614d0182614cc2565b602082019050919050565b5f6020820190508181035f830152614d2381614cea565b9050919050565b5f614d348261480a565b9150614d3f8361480a565b9250828203905081811115614d5757614d56614c62565b5b92915050565b7f4e487b71000000000000000000000000000000000000000000000000000000005f52601260045260245ffd5b5f614d948261480a565b9150614d9f8361480a565b925082614daf57614dae614d5d565b5b828204905092915050565b7f4e487b71000000000000000000000000000000000000000000000000000000005f52602260045260245ffd5b5f6002820490506001821680614dfe57607f821691505b602082108103614e1157614e10614dba565b5b50919050565b7f436f6e7472616374206d7573742062652070656e64696e672074656d696e61745f8201527f696f6e0000000000000000000000000000000000000000000000000000000000602082015250565b5f614e71602383614650565b9150614e7c82614e17565b604082019050919050565b5f6020820190508181035f830152614e9e81614e65565b9050919050565b5f614eaf8261480a565b9150614eba8361480a565b9250828202614ec88161480a565b91508282048414831517614edf57614ede614c62565b5b5092915050565b614eef81614bda565b82525050565b5f602082019050614f085f830184614ee6565b92915050565b7f4e6f2070656e64696e67207761726e696e6720746f20636f6e6669726d0000005f82015250565b5f614f42601d83614650565b9150614f4d82614f0e565b602082019050919050565b5f6020820190508181035f830152614f6f81614f36565b9050919050565b5f614f808261480a565b91507fffffffffffffffffffffffffffffffffffffffffffffffffffffffffffffffff8203614fb257614fb1614c62565b5b600182019050919050565b7f4f6e6c792054656e616e742063616e20706572666f726d2074686973206163745f8201527f696f6e0000000000000000000000000000000000000000000000000000000000602082015250565b5f615017602383614650565b915061502282614fbd565b604082019050919050565b5f6020820190508181035f8301526150448161500b565b9050919050565b7f52656e74616c20636f6e7472616374206973206e6f74206163746976650000005f82015250565b5f61507f601d83614650565b915061508a8261504b565b602082019050919050565b5f6020820190508181035f8301526150ac81615073565b9050919050565b7f4e6f2045544820726571756972656420666f7220737461626c65636f696e20645f8201527f65706f7369740000000000000000000000000000000000000000000000000000602082015250565b5f61510d602683614650565b9150615118826150b3565b604082019050919050565b5f6020820190508181035f83015261513a81615101565b9050919050565b5f6040820190506151545f830185614813565b61516160208301846146d1565b9392505050565b5f60608201905061517b5f830186614958565b6151886020830185614958565b6151956040830184614813565b949350505050565b6151a6816146c6565b81146151b0575f5ffd5b50565b5f815190506151c18161519d565b92915050565b5f602082840312156151dc576151db6144bb565b5b5f6151e9848285016151b3565b91505092915050565b7f537461626c65636f696e206465706f736974206661696c6564000000000000005f82015250565b5f615226601983614650565b9150615231826151f2565b602082019050919050565b5f6020820190508181035f8301526152538161521a565b9050919050565b7f496e73756666696369656e74204554482073656e7400000000000000000000005f82015250565b5f61528e601583614650565b91506152998261525a565b602082019050919050565b5f6020820190508181035f8301526152bb81615282565b9050919050565b7f436f6e747261637420686173206e6f74206578706972656420796574000000005f82015250565b5f6152f6601c83614650565b9150615301826152c2565b602082019050919050565b5f6020820190508181035f830152615323816152ea565b9050919050565b7f436f6e747261637420686173206265656e2072656e65776564000000000000005f82015250565b5f61535e601983614650565b91506153698261532a565b602082019050919050565b5f6020820190508181035f83015261538b81615352565b9050919050565b7f436f6e7472616374206578706972656420776974686f75742072656e6577616c5f82015250565b5f6153c6602083614650565b91506153d182615392565b602082019050919050565b5f6020820190508181035f8301526153f3816153ba565b9050919050565b7f436f6e7472616374206d75737420626572207465726d696e61746564000000005f82015250565b5f61542e601c83614650565b9150615439826153fa565b602082019050919050565b5f6020820190508181035f83015261545b81615422565b9050919050565b5f6040820190506154755f830185614958565b6154826020830184614813565b9392505050565b7f537461626c65636f696e207061796d656e74206661696c6564000000000000005f82015250565b5f6154bd601983614650565b91506154c882615489565b602082019050919050565b5f6020820190508181035f8301526154ea816154b1565b9050919050565b5f69ffffffffffffffffffff82169050919050565b61550f816154f1565b8114615519575f5ffd5b50565b5f8151905061552a81615506565b92915050565b5f819050919050565b61554281615530565b811461554c575f5ffd5b50565b5f8151905061555d81615539565b92915050565b5f5f5f5f5f60a0868803121561557c5761557b6144bb565b5b5f6155898882890161551c565b955050602061559a8882890161554f565b94505060406155ab88828901614c23565b93505060606155bc88828901614c23565b92505060806155cd8882890161551c565b9150509295509295909350565b5f6155e482615530565b91506155ef83615530565b92508282026155fd81615530565b91507f800000000000000000000000000000000000000000000000000000000000000084145f8412161561563457615633614c62565b5b828205841483151761564957615648614c62565b5b5092915050565b7f446564756374696f6e2065786365656473206465706f73697420616d6f756e745f82015250565b5f615684602083614650565b915061568f82615650565b602082019050919050565b5f6020820190508181035f8301526156b181615678565b9050919050565b5f6040820190506156cb5f830185614813565b81810360208301526156dd818461466e565b90509392505050565b7f537461626c65636f696e207472616e73666572206661696c65640000000000005f82015250565b5f61571a601a83614650565b9150615725826156e6565b602082019050919050565b5f6020820190508181035f8301526157478161570e565b9050919050565b7f436f6e747261637420206d7573742062652070656e64696e67207465726d696e5f8201527f6174696f6e000000000000000000000000000000000000000000000000000000602082015250565b5f6157a8602583614650565b91506157b38261574e565b604082019050919050565b5f6020820190508181035f8301526157d58161579c565b9050919050565b7f4c616e646c6f726420686173206e6f7420726571756573746564206561726c795f8201527f207465726d696e6174696f6e0000000000000000000000000000000000000000602082015250565b5f615836602c83614650565b9150615841826157dc565b604082019050919050565b5f6020820190508181035f8301526158638161582a565b9050919050565b7f436f6e7472616374207465726d696e61746564206561726c79206279206d75745f8201527f75616c2061677265656d656e7400000000000000000000000000000000000000602082015250565b5f6158c4602d83614650565b91506158cf8261586a565b604082019050919050565b5f6020820190508181035f8301526158f1816158b8565b9050919050565b7f496e737566666963656e74204554482073656e740000000000000000000000005f82015250565b5f61592c601483614650565b9150615937826158f8565b602082019050919050565b5f6020820190508181035f83015261595981615920565b9050919050565b7f436f6e74726163742068617320616c72656164792065787069726564000000005f82015250565b5f615994601c83614650565b915061599f82615960565b602082019050919050565b5f6020820190508181035f8301526159c181615988565b9050919050565b7f436f6e7472616374206973206e6f7420416374697665000000000000000000005f82015250565b5f6159fc601683614650565b9150615a07826159c8565b602082019050919050565b5f6020820190508181035f830152615a29816159f0565b9050919050565b7f5761726e696e67206e6f74206170706c696361626c65207965740000000000005f82015250565b5f615a64601a83614650565b9150615a6f82615a30565b602082019050919050565b5f6020820190508181035f830152615a9181615a58565b9050919050565b7f5465726d696e6174696f6e206e6f742073636864756c656400000000000000005f82015250565b5f615acc601883614650565b9150615ad782615a98565b602082019050919050565b5f6020820190508181035f830152615af981615ac0565b9050919050565b7f5465726d696e6174696f6e20706572696f64206e6f74207265616368656400005f82015250565b5f615b34601e83614650565b9150615b3f82615b00565b602082019050919050565b5f6020820190508181035f830152615b6181615b28565b9050919050565b7f4d6f7265207468616e2033207061796d656e74732077657265206e6f742072655f8201527f67697374657265642e20436f6e7472616374206973207465726d696e6174656460208201527f2e00000000000000000000000000000000000000000000000000000000000000604082015250565b5f615be8604183614650565b9150615bf382615b68565b606082019050919050565b5f6020820190508181035f830152615c1581615bdc565b9050919050565b7f4175746f207061796d656e74206e6f7420617574686f72697a656400000000005f82015250565b5f615c50601b83614650565b9150615c5b82615c1c565b602082019050919050565b5f6020820190508181035f830152615c7d81615c44565b9050919050565b7f4175746f20706179206661696c656400000000000000000000000000000000005f82015250565b5f615cb8600f83614650565b9150615cc382615c84565b602082019050919050565b5f6020820190508181035f830152615ce581615cac565b9050919050565b7f5465726d696e6174696f6e206e6f74207363686564756c6564000000000000005f82015250565b5f615d20601983614650565b9150615d2b82615cec565b602082019050919050565b5f6020820190508181035f830152615d4d81615d14565b9050919050565b7f416c6c206465627473206d7573742062652070617965640000000000000000005f82015250565b5f615d88601783614650565b9150615d9382615d54565b602082019050919050565b5f6020820190508181035f830152615db581615d7c565b9050919050565b7f54656e616e74207465726d696e6174656420746865206c6561736520616772655f8201527f656d656e74000000000000000000000000000000000000000000000000000000602082015250565b5f615e16602583614650565b9150615e2182615dbc565b604082019050919050565b5f6020820190508181035f830152615e4381615e0a565b9050919050565b7f54656e6e616e7420686173206e6f742061736b656420666f722072656e6577615f8201527f6c00000000000000000000000000000000000000000000000000000000000000602082015250565b5f615ea4602183614650565b9150615eaf82615e4a565b604082019050919050565b5f6020820190508181035f830152615ed181615e98565b9050919050565b5f615ee28261483b565b9150615eed8361483b565b9250828201905065ffffffffffff811115615f0b57615f0a614c62565b5b92915050565b7f5265656e7472616e637947756172643a207265656e7472616e742063616c6c005f82015250565b5f615f45601f83614650565b9150615f5082615f11565b602082019050919050565b5f6020820190508181035f830152615f7281615f39565b905091905056fea26469706673582212205a61561668200e99617880f0a9c6284753c944c20757b0a3995e5aa7513231c964736f6c634300081e0033a2646970667358221220bb518f4fe9796f259dc470fc4078fdf9acb7e61613f4ee8ba4ad318dd2c485b764736f6c634300081e0033",
			"opcodes": "PUSH1 0x80 PUSH1 0x40 MSTORE CALLVALUE DUP1 ISZERO PUSH1 0xE JUMPI PUSH0 PUSH0 REVERT JUMPDEST POP PUSH2 0xAD63 DUP1 PUSH2 0x1C PUSH0 CODECOPY PUSH0 RETURN INVALID PUSH1 0x80 PUSH1 0x40 MSTORE CALLVALUE DUP1 ISZERO PUSH2 0xF JUMPI PUSH0 PUSH0 REVERT JUMPDEST POP PUSH1 0x4 CALLDATASIZE LT PUSH2 0x7B JUMPI PUSH0 CALLDATALOAD PUSH1 0xE0 SHR DUP1 PUSH4 0x558C2F30 GT PUSH2 0x59 JUMPI DUP1 PUSH4 0x558C2F30 EQ PUSH2 0x9D JUMPI DUP1 PUSH4 0x678620B3 EQ PUSH2 0xA7 JUMPI DUP1 PUSH4 0x72362FC7 EQ PUSH2 0xB1 JUMPI DUP1 PUSH4 0x7FEA0D4B EQ PUSH2 0xBB JUMPI PUSH2 0x7B JUMP JUMPDEST DUP1 PUSH4 0xE8A9F2F EQ PUSH2 0x7F JUMPI DUP1 PUSH4 0x13EDA550 EQ PUSH2 0x89 JUMPI DUP1 PUSH4 0x24ED3294 EQ PUSH2 0x93 JUMPI JUMPDEST PUSH0 PUSH0 REVERT JUMPDEST PUSH2 0x87 PUSH2 0xC5 JUMP JUMPDEST STOP JUMPDEST PUSH2 0x91 PUSH2 0x356 JUMP JUMPDEST STOP JUMPDEST PUSH2 0x9B PUSH2 0x58C JUMP JUMPDEST STOP JUMPDEST PUSH2 0xA5 PUSH2 0x812 JUMP JUMPDEST STOP JUMPDEST PUSH2 0xAF PUSH2 0x9F2 JUMP JUMPDEST STOP JUMPDEST PUSH2 0xB9 PUSH2 0xF01 JUMP JUMPDEST STOP JUMPDEST PUSH2 0xC3 PUSH2 0x12FD JUMP JUMPDEST STOP JUMPDEST PUSH1 0x2 PUSH0 SWAP1 SLOAD SWAP1 PUSH2 0x100 EXP SWAP1 DIV PUSH20 0xFFFFFFFFFFFFFFFFFFFFFFFFFFFFFFFFFFFFFFFF AND PUSH20 0xFFFFFFFFFFFFFFFFFFFFFFFFFFFFFFFFFFFFFFFF AND PUSH4 0xDA3E3397 PUSH1 0x1 PUSH0 SWAP1 SLOAD SWAP1 PUSH2 0x100 EXP SWAP1 DIV PUSH20 0xFFFFFFFFFFFFFFFFFFFFFFFFFFFFFFFFFFFFFFFF AND PUSH0 PUSH0 SWAP1 SLOAD SWAP1 PUSH2 0x100 EXP SWAP1 DIV PUSH20 0xFFFFFFFFFFFFFFFFFFFFFFFFFFFFFFFFFFFFFFFF AND PUSH9 0x1B1AE4D6E2EF500000 PUSH1 0x40 MLOAD DUP5 PUSH4 0xFFFFFFFF AND PUSH1 0xE0 SHL DUP2 MSTORE PUSH1 0x4 ADD PUSH2 0x16D SWAP4 SWAP3 SWAP2 SWAP1 PUSH2 0x1795 JUMP JUMPDEST PUSH0 PUSH1 0x40 MLOAD DUP1 DUP4 SUB DUP2 PUSH0 DUP8 DUP1 EXTCODESIZE ISZERO DUP1 ISZERO PUSH2 0x184 JUMPI PUSH0 PUSH0 REVERT JUMPDEST POP GAS CALL ISZERO DUP1 ISZERO PUSH2 0x196 JUMPI RETURNDATASIZE PUSH0 PUSH0 RETURNDATACOPY RETURNDATASIZE PUSH0 REVERT JUMPDEST POP POP POP POP PUSH1 0x2 PUSH0 SWAP1 SLOAD SWAP1 PUSH2 0x100 EXP SWAP1 DIV PUSH20 0xFFFFFFFFFFFFFFFFFFFFFFFFFFFFFFFFFFFFFFFF AND PUSH20 0xFFFFFFFFFFFFFFFFFFFFFFFFFFFFFFFFFFFFFFFF AND PUSH4 0x59F3EF05 PUSH0 PUSH0 SWAP1 SLOAD SWAP1 PUSH2 0x100 EXP SWAP1 DIV PUSH20 0xFFFFFFFFFFFFFFFFFFFFFFFFFFFFFFFFFFFFFFFF AND PUSH1 0x40 MLOAD DUP3 PUSH4 0xFFFFFFFF AND PUSH1 0xE0 SHL DUP2 MSTORE PUSH1 0x4 ADD PUSH2 0x214 SWAP2 SWAP1 PUSH2 0x17CA JUMP JUMPDEST PUSH0 PUSH1 0x40 MLOAD DUP1 DUP4 SUB DUP2 PUSH0 DUP8 DUP1 EXTCODESIZE ISZERO DUP1 ISZERO PUSH2 0x22B JUMPI PUSH0 PUSH0 REVERT JUMPDEST POP GAS CALL ISZERO DUP1 ISZERO PUSH2 0x23D JUMPI RETURNDATASIZE PUSH0 PUSH0 RETURNDATACOPY RETURNDATASIZE PUSH0 REVERT JUMPDEST POP POP POP POP PUSH0 PUSH0 PUSH0 SWAP1 SLOAD SWAP1 PUSH2 0x100 EXP SWAP1 DIV PUSH20 0xFFFFFFFFFFFFFFFFFFFFFFFFFFFFFFFFFFFFFFFF AND PUSH20 0xFFFFFFFFFFFFFFFFFFFFFFFFFFFFFFFFFFFFFFFF AND PUSH4 0x61BC1A49 PUSH1 0x40 MLOAD DUP2 PUSH4 0xFFFFFFFF AND PUSH1 0xE0 SHL DUP2 MSTORE PUSH1 0x4 ADD PUSH1 0x20 PUSH1 0x40 MLOAD DUP1 DUP4 SUB DUP2 DUP7 GAS STATICCALL ISZERO DUP1 ISZERO PUSH2 0x2AB JUMPI RETURNDATASIZE PUSH0 PUSH0 RETURNDATACOPY RETURNDATASIZE PUSH0 REVERT JUMPDEST POP POP POP POP PUSH1 0x40 MLOAD RETURNDATASIZE PUSH1 0x1F NOT PUSH1 0x1F DUP3 ADD AND DUP3 ADD DUP1 PUSH1 0x40 MSTORE POP DUP2 ADD SWAP1 PUSH2 0x2CF SWAP2 SWAP1 PUSH2 0x1811 JUMP JUMPDEST SWAP1 POP PUSH20 0x0 PUSH4 0xABCD7960 DUP3 PUSH9 0x1B1AE4D6E2EF500000 PUSH1 0x40 MLOAD DUP4 PUSH4 0xFFFFFFFF AND PUSH1 0xE0 SHL DUP2 MSTORE PUSH1 0x4 ADD PUSH2 0x313 SWAP3 SWAP2 SWAP1 PUSH2 0x18B4 JUMP JUMPDEST PUSH1 0x20 PUSH1 0x40 MLOAD DUP1 DUP4 SUB DUP2 DUP7 GAS DELEGATECALL ISZERO DUP1 ISZERO PUSH2 0x32E JUMPI RETURNDATASIZE PUSH0 PUSH0 RETURNDATACOPY RETURNDATASIZE PUSH0 REVERT JUMPDEST POP POP POP POP PUSH1 0x40 MLOAD RETURNDATASIZE PUSH1 0x1F NOT PUSH1 0x1F DUP3 ADD AND DUP3 ADD DUP1 PUSH1 0x40 MSTORE POP DUP2 ADD SWAP1 PUSH2 0x352 SWAP2 SWAP1 PUSH2 0x1923 JUMP JUMPDEST POP POP JUMP JUMPDEST PUSH20 0x0 PUSH4 0xBFBA5DD6 PUSH0 PUSH0 SWAP1 SLOAD SWAP1 PUSH2 0x100 EXP SWAP1 DIV PUSH20 0xFFFFFFFFFFFFFFFFFFFFFFFFFFFFFFFFFFFFFFFF AND PUSH20 0xFFFFFFFFFFFFFFFFFFFFFFFFFFFFFFFFFFFFFFFF AND PUSH4 0xADF07791 PUSH1 0x40 MLOAD DUP2 PUSH4 0xFFFFFFFF AND PUSH1 0xE0 SHL DUP2 MSTORE PUSH1 0x4 ADD PUSH1 0x20 PUSH1 0x40 MLOAD DUP1 DUP4 SUB DUP2 DUP7 GAS STATICCALL ISZERO DUP1 ISZERO PUSH2 0x3D9 JUMPI RETURNDATASIZE PUSH0 PUSH0 RETURNDATACOPY RETURNDATASIZE PUSH0 REVERT JUMPDEST POP POP POP POP PUSH1 0x40 MLOAD RETURNDATASIZE PUSH1 0x1F NOT PUSH1 0x1F DUP3 ADD AND DUP3 ADD DUP1 PUSH1 0x40 MSTORE POP DUP2 ADD SWAP1 PUSH2 0x3FD SWAP2 SWAP1 PUSH2 0x1978 JUMP JUMPDEST PUSH1 0x2 PUSH0 SWAP1 SLOAD SWAP1 PUSH2 0x100 EXP SWAP1 DIV PUSH20 0xFFFFFFFFFFFFFFFFFFFFFFFFFFFFFFFFFFFFFFFF AND PUSH1 0x40 MLOAD DUP4 PUSH4 0xFFFFFFFF AND PUSH1 0xE0 SHL DUP2 MSTORE PUSH1 0x4 ADD PUSH2 0x43C SWAP3 SWAP2 SWAP1 PUSH2 0x19FC JUMP JUMPDEST PUSH1 0x20 PUSH1 0x40 MLOAD DUP1 DUP4 SUB DUP2 DUP7 GAS DELEGATECALL ISZERO DUP1 ISZERO PUSH2 0x457 JUMPI RETURNDATASIZE PUSH0 PUSH0 RETURNDATACOPY RETURNDATASIZE PUSH0 REVERT JUMPDEST POP POP POP POP PUSH1 0x40 MLOAD RETURNDATASIZE PUSH1 0x1F NOT PUSH1 0x1F DUP3 ADD AND DUP3 ADD DUP1 PUSH1 0x40 MSTORE POP DUP2 ADD SWAP1 PUSH2 0x47B SWAP2 SWAP1 PUSH2 0x1923 JUMP JUMPDEST POP PUSH20 0x0 PUSH4 0xABCD7960 PUSH0 PUSH0 SWAP1 SLOAD SWAP1 PUSH2 0x100 EXP SWAP1 DIV PUSH20 0xFFFFFFFFFFFFFFFFFFFFFFFFFFFFFFFFFFFFFFFF AND PUSH20 0xFFFFFFFFFFFFFFFFFFFFFFFFFFFFFFFFFFFFFFFF AND PUSH4 0xF8EF1E13 PUSH1 0x40 MLOAD DUP2 PUSH4 0xFFFFFFFF AND PUSH1 0xE0 SHL DUP2 MSTORE PUSH1 0x4 ADD PUSH1 0x20 PUSH1 0x40 MLOAD DUP1 DUP4 SUB DUP2 DUP7 GAS STATICCALL ISZERO DUP1 ISZERO PUSH2 0x4FF JUMPI RETURNDATASIZE PUSH0 PUSH0 RETURNDATACOPY RETURNDATASIZE PUSH0 REVERT JUMPDEST POP POP POP POP PUSH1 0x40 MLOAD RETURNDATASIZE PUSH1 0x1F NOT PUSH1 0x1F DUP3 ADD AND DUP3 ADD DUP1 PUSH1 0x40 MSTORE POP DUP2 ADD SWAP1 PUSH2 0x523 SWAP2 SWAP1 PUSH2 0x1811 JUMP JUMPDEST PUSH9 0xD8D726B7177A80000 PUSH1 0x40 MLOAD DUP4 PUSH4 0xFFFFFFFF AND PUSH1 0xE0 SHL DUP2 MSTORE PUSH1 0x4 ADD PUSH2 0x54A SWAP3 SWAP2 SWAP1 PUSH2 0x1AB9 JUMP JUMPDEST PUSH1 0x20 PUSH1 0x40 MLOAD DUP1 DUP4 SUB DUP2 DUP7 GAS DELEGATECALL ISZERO DUP1 ISZERO PUSH2 0x565 JUMPI RETURNDATASIZE PUSH0 PUSH0 RETURNDATACOPY RETURNDATASIZE PUSH0 REVERT JUMPDEST POP POP POP POP PUSH1 0x40 MLOAD RETURNDATASIZE PUSH1 0x1F NOT PUSH1 0x1F DUP3 ADD AND DUP3 ADD DUP1 PUSH1 0x40 MSTORE POP DUP2 ADD SWAP1 PUSH2 0x589 SWAP2 SWAP1 PUSH2 0x1923 JUMP JUMPDEST POP JUMP JUMPDEST PUSH0 PUSH0 SWAP1 SLOAD SWAP1 PUSH2 0x100 EXP SWAP1 DIV PUSH20 0xFFFFFFFFFFFFFFFFFFFFFFFFFFFFFFFFFFFFFFFF AND PUSH20 0xFFFFFFFFFFFFFFFFFFFFFFFFFFFFFFFFFFFFFFFF AND PUSH4 0x5C274B86 PUSH1 0x40 MLOAD DUP2 PUSH4 0xFFFFFFFF AND PUSH1 0xE0 SHL DUP2 MSTORE PUSH1 0x4 ADD PUSH0 PUSH1 0x40 MLOAD DUP1 DUP4 SUB DUP2 PUSH0 DUP8 DUP1 EXTCODESIZE ISZERO DUP1 ISZERO PUSH2 0x5F1 JUMPI PUSH0 PUSH0 REVERT JUMPDEST POP GAS CALL ISZERO DUP1 ISZERO PUSH2 0x603 JUMPI RETURNDATASIZE PUSH0 PUSH0 RETURNDATACOPY RETURNDATASIZE PUSH0 REVERT JUMPDEST POP POP POP POP PUSH0 PUSH0 SWAP1 SLOAD SWAP1 PUSH2 0x100 EXP SWAP1 DIV PUSH20 0xFFFFFFFFFFFFFFFFFFFFFFFFFFFFFFFFFFFFFFFF AND PUSH20 0xFFFFFFFFFFFFFFFFFFFFFFFFFFFFFFFFFFFFFFFF AND PUSH4 0x3C77FA4 PUSH1 0x40 MLOAD DUP2 PUSH4 0xFFFFFFFF AND PUSH1 0xE0 SHL DUP2 MSTORE PUSH1 0x4 ADD PUSH2 0x65E SWAP1 PUSH2 0x1B4D JUMP JUMPDEST PUSH0 PUSH1 0x40 MLOAD DUP1 DUP4 SUB DUP2 PUSH0 DUP8 DUP1 EXTCODESIZE ISZERO DUP1 ISZERO PUSH2 0x675 JUMPI PUSH0 PUSH0 REVERT JUMPDEST POP GAS CALL ISZERO DUP1 ISZERO PUSH2 0x687 JUMPI RETURNDATASIZE PUSH0 PUSH0 RETURNDATACOPY RETURNDATASIZE PUSH0 REVERT JUMPDEST POP POP POP POP PUSH0 PUSH0 SWAP1 SLOAD SWAP1 PUSH2 0x100 EXP SWAP1 DIV PUSH20 0xFFFFFFFFFFFFFFFFFFFFFFFFFFFFFFFFFFFFFFFF AND PUSH20 0xFFFFFFFFFFFFFFFFFFFFFFFFFFFFFFFFFFFFFFFF AND PUSH4 0x7E88F603 PUSH1 0x40 MLOAD DUP2 PUSH4 0xFFFFFFFF AND PUSH1 0xE0 SHL DUP2 MSTORE PUSH1 0x4 ADD PUSH0 PUSH1 0x40 MLOAD DUP1 DUP4 SUB DUP2 PUSH0 DUP8 DUP1 EXTCODESIZE ISZERO DUP1 ISZERO PUSH2 0x6F0 JUMPI PUSH0 PUSH0 REVERT JUMPDEST POP GAS CALL ISZERO DUP1 ISZERO PUSH2 0x702 JUMPI RETURNDATASIZE PUSH0 PUSH0 RETURNDATACOPY RETURNDATASIZE PUSH0 REVERT JUMPDEST POP POP POP POP PUSH0 PUSH0 PUSH0 SWAP1 SLOAD SWAP1 PUSH2 0x100 EXP SWAP1 DIV PUSH20 0xFFFFFFFFFFFFFFFFFFFFFFFFFFFFFFFFFFFFFFFF AND PUSH20 0xFFFFFFFFFFFFFFFFFFFFFFFFFFFFFFFFFFFFFFFF AND PUSH4 0x61BC1A49 PUSH1 0x40 MLOAD DUP2 PUSH4 0xFFFFFFFF AND PUSH1 0xE0 SHL DUP2 MSTORE PUSH1 0x4 ADD PUSH1 0x20 PUSH1 0x40 MLOAD DUP1 DUP4 SUB DUP2 DUP7 GAS STATICCALL ISZERO DUP1 ISZERO PUSH2 0x770 JUMPI RETURNDATASIZE PUSH0 PUSH0 RETURNDATACOPY RETURNDATASIZE PUSH0 REVERT JUMPDEST POP POP POP POP PUSH1 0x40 MLOAD RETURNDATASIZE PUSH1 0x1F NOT PUSH1 0x1F DUP3 ADD AND DUP3 ADD DUP1 PUSH1 0x40 MSTORE POP DUP2 ADD SWAP1 PUSH2 0x794 SWAP2 SWAP1 PUSH2 0x1811 JUMP JUMPDEST SWAP1 POP PUSH20 0x0 PUSH4 0xABCD7960 DUP3 PUSH0 PUSH1 0x40 MLOAD DUP4 PUSH4 0xFFFFFFFF AND PUSH1 0xE0 SHL DUP2 MSTORE PUSH1 0x4 ADD PUSH2 0x7CF SWAP3 SWAP2 SWAP1 PUSH2 0x1C14 JUMP JUMPDEST PUSH1 0x20 PUSH1 0x40 MLOAD DUP1 DUP4 SUB DUP2 DUP7 GAS DELEGATECALL ISZERO DUP1 ISZERO PUSH2 0x7EA JUMPI RETURNDATASIZE PUSH0 PUSH0 RETURNDATACOPY RETURNDATASIZE PUSH0 REVERT JUMPDEST POP POP POP POP PUSH1 0x40 MLOAD RETURNDATASIZE PUSH1 0x1F NOT PUSH1 0x1F DUP3 ADD AND DUP3 ADD DUP1 PUSH1 0x40 MSTORE POP DUP2 ADD SWAP1 PUSH2 0x80E SWAP2 SWAP1 PUSH2 0x1923 JUMP JUMPDEST POP POP JUMP JUMPDEST PUSH1 0x2 PUSH0 SWAP1 SLOAD SWAP1 PUSH2 0x100 EXP SWAP1 DIV PUSH20 0xFFFFFFFFFFFFFFFFFFFFFFFFFFFFFFFFFFFFFFFF AND PUSH20 0xFFFFFFFFFFFFFFFFFFFFFFFFFFFFFFFFFFFFFFFF AND PUSH4 0xB6A5D7DE PUSH0 PUSH0 SWAP1 SLOAD SWAP1 PUSH2 0x100 EXP SWAP1 DIV PUSH20 0xFFFFFFFFFFFFFFFFFFFFFFFFFFFFFFFFFFFFFFFF AND PUSH1 0x40 MLOAD DUP3 PUSH4 0xFFFFFFFF AND PUSH1 0xE0 SHL DUP2 MSTORE PUSH1 0x4 ADD PUSH2 0x88C SWAP2 SWAP1 PUSH2 0x17CA JUMP JUMPDEST PUSH0 PUSH1 0x40 MLOAD DUP1 DUP4 SUB DUP2 PUSH0 DUP8 DUP1 EXTCODESIZE ISZERO DUP1 ISZERO PUSH2 0x8A3 JUMPI PUSH0 PUSH0 REVERT JUMPDEST POP GAS CALL ISZERO DUP1 ISZERO PUSH2 0x8B5 JUMPI RETURNDATASIZE PUSH0 PUSH0 RETURNDATACOPY RETURNDATASIZE PUSH0 REVERT JUMPDEST POP POP POP POP PUSH0 PUSH0 PUSH0 SWAP1 SLOAD SWAP1 PUSH2 0x100 EXP SWAP1 DIV PUSH20 0xFFFFFFFFFFFFFFFFFFFFFFFFFFFFFFFFFFFFFFFF AND PUSH20 0xFFFFFFFFFFFFFFFFFFFFFFFFFFFFFFFFFFFFFFFF AND PUSH4 0x1CA43EDD PUSH1 0x2 PUSH0 SWAP1 SLOAD SWAP1 PUSH2 0x100 EXP SWAP1 DIV PUSH20 0xFFFFFFFFFFFFFFFFFFFFFFFFFFFFFFFFFFFFFFFF AND PUSH1 0x40 MLOAD DUP3 PUSH4 0xFFFFFFFF AND PUSH1 0xE0 SHL DUP2 MSTORE PUSH1 0x4 ADD PUSH2 0x934 SWAP2 SWAP1 PUSH2 0x17CA JUMP JUMPDEST PUSH1 0x20 PUSH1 0x40 MLOAD DUP1 DUP4 SUB DUP2 DUP7 GAS STATICCALL ISZERO DUP1 ISZERO PUSH2 0x94F JUMPI RETURNDATASIZE PUSH0 PUSH0 RETURNDATACOPY RETURNDATASIZE PUSH0 REVERT JUMPDEST POP POP POP POP PUSH1 0x40 MLOAD RETURNDATASIZE PUSH1 0x1F NOT PUSH1 0x1F DUP3 ADD AND DUP3 ADD DUP1 PUSH1 0x40 MSTORE POP DUP2 ADD SWAP1 PUSH2 0x973 SWAP2 SWAP1 PUSH2 0x1923 JUMP JUMPDEST SWAP1 POP PUSH20 0x0 PUSH4 0x767392B3 DUP3 PUSH1 0x1 PUSH1 0x40 MLOAD DUP4 PUSH4 0xFFFFFFFF AND PUSH1 0xE0 SHL DUP2 MSTORE PUSH1 0x4 ADD PUSH2 0x9AF SWAP3 SWAP2 SWAP1 PUSH2 0x1CCD JUMP JUMPDEST PUSH1 0x20 PUSH1 0x40 MLOAD DUP1 DUP4 SUB DUP2 DUP7 GAS DELEGATECALL ISZERO DUP1 ISZERO PUSH2 0x9CA JUMPI RETURNDATASIZE PUSH0 PUSH0 RETURNDATACOPY RETURNDATASIZE PUSH0 REVERT JUMPDEST POP POP POP POP PUSH1 0x40 MLOAD RETURNDATASIZE PUSH1 0x1F NOT PUSH1 0x1F DUP3 ADD AND DUP3 ADD DUP1 PUSH1 0x40 MSTORE POP DUP2 ADD SWAP1 PUSH2 0x9EE SWAP2 SWAP1 PUSH2 0x1923 JUMP JUMPDEST POP POP JUMP JUMPDEST PUSH1 0x1 PUSH0 SWAP1 SLOAD SWAP1 PUSH2 0x100 EXP SWAP1 DIV PUSH20 0xFFFFFFFFFFFFFFFFFFFFFFFFFFFFFFFFFFFFFFFF AND PUSH20 0xFFFFFFFFFFFFFFFFFFFFFFFFFFFFFFFFFFFFFFFF AND PUSH4 0x40C10F19 PUSH1 0x2 PUSH0 SWAP1 SLOAD SWAP1 PUSH2 0x100 EXP SWAP1 DIV PUSH20 0xFFFFFFFFFFFFFFFFFFFFFFFFFFFFFFFFFFFFFFFF AND PUSH9 0xD8D726B7177A80000 PUSH1 0x40 MLOAD DUP4 PUSH4 0xFFFFFFFF AND PUSH1 0xE0 SHL DUP2 MSTORE PUSH1 0x4 ADD PUSH2 0xA78 SWAP3 SWAP2 SWAP1 PUSH2 0x1D16 JUMP JUMPDEST PUSH0 PUSH1 0x40 MLOAD DUP1 DUP4 SUB DUP2 PUSH0 DUP8 DUP1 EXTCODESIZE ISZERO DUP1 ISZERO PUSH2 0xA8F JUMPI PUSH0 PUSH0 REVERT JUMPDEST POP GAS CALL ISZERO DUP1 ISZERO PUSH2 0xAA1 JUMPI RETURNDATASIZE PUSH0 PUSH0 RETURNDATACOPY RETURNDATASIZE PUSH0 REVERT JUMPDEST POP POP POP POP PUSH1 0x2 PUSH0 SWAP1 SLOAD SWAP1 PUSH2 0x100 EXP SWAP1 DIV PUSH20 0xFFFFFFFFFFFFFFFFFFFFFFFFFFFFFFFFFFFFFFFF AND PUSH20 0xFFFFFFFFFFFFFFFFFFFFFFFFFFFFFFFFFFFFFFFF AND PUSH4 0xDA3E3397 PUSH1 0x1 PUSH0 SWAP1 SLOAD SWAP1 PUSH2 0x100 EXP SWAP1 DIV PUSH20 0xFFFFFFFFFFFFFFFFFFFFFFFFFFFFFFFFFFFFFFFF AND PUSH0 PUSH0 SWAP1 SLOAD SWAP1 PUSH2 0x100 EXP SWAP1 DIV PUSH20 0xFFFFFFFFFFFFFFFFFFFFFFFFFFFFFFFFFFFFFFFF AND PUSH9 0xD8D726B7177A80000 PUSH1 0x40 MLOAD DUP5 PUSH4 0xFFFFFFFF AND PUSH1 0xE0 SHL DUP2 MSTORE PUSH1 0x4 ADD PUSH2 0xB4D SWAP4 SWAP3 SWAP2 SWAP1 PUSH2 0x1D3D JUMP JUMPDEST PUSH0 PUSH1 0x40 MLOAD DUP1 DUP4 SUB DUP2 PUSH0 DUP8 DUP1 EXTCODESIZE ISZERO DUP1 ISZERO PUSH2 0xB64 JUMPI PUSH0 PUSH0 REVERT JUMPDEST POP GAS CALL ISZERO DUP1 ISZERO PUSH2 0xB76 JUMPI RETURNDATASIZE PUSH0 PUSH0 RETURNDATACOPY RETURNDATASIZE PUSH0 REVERT JUMPDEST POP POP POP POP PUSH1 0x2 PUSH0 SWAP1 SLOAD SWAP1 PUSH2 0x100 EXP SWAP1 DIV PUSH20 0xFFFFFFFFFFFFFFFFFFFFFFFFFFFFFFFFFFFFFFFF AND PUSH20 0xFFFFFFFFFFFFFFFFFFFFFFFFFFFFFFFFFFFFFFFF AND PUSH4 0xDC40BCBB PUSH0 PUSH0 SWAP1 SLOAD SWAP1 PUSH2 0x100 EXP SWAP1 DIV PUSH20 0xFFFFFFFFFFFFFFFFFFFFFFFFFFFFFFFFFFFFFFFF AND PUSH1 0x40 MLOAD DUP3 PUSH4 0xFFFFFFFF AND PUSH1 0xE0 SHL DUP2 MSTORE PUSH1 0x4 ADD PUSH2 0xBF4 SWAP2 SWAP1 PUSH2 0x17CA JUMP JUMPDEST PUSH0 PUSH1 0x40 MLOAD DUP1 DUP4 SUB DUP2 PUSH0 DUP8 DUP1 EXTCODESIZE ISZERO DUP1 ISZERO PUSH2 0xC0B JUMPI PUSH0 PUSH0 REVERT JUMPDEST POP GAS CALL ISZERO DUP1 ISZERO PUSH2 0xC1D JUMPI RETURNDATASIZE PUSH0 PUSH0 RETURNDATACOPY RETURNDATASIZE PUSH0 REVERT JUMPDEST POP POP POP POP PUSH0 PUSH0 PUSH0 PUSH0 SWAP1 SLOAD SWAP1 PUSH2 0x100 EXP SWAP1 DIV PUSH20 0xFFFFFFFFFFFFFFFFFFFFFFFFFFFFFFFFFFFFFFFF AND PUSH20 0xFFFFFFFFFFFFFFFFFFFFFFFFFFFFFFFFFFFFFFFF AND PUSH4 0xA5E047B8 PUSH0 PUSH1 0x40 MLOAD DUP3 PUSH4 0xFFFFFFFF AND PUSH1 0xE0 SHL DUP2 MSTORE PUSH1 0x4 ADD PUSH2 0xC7C SWAP2 SWAP1 PUSH2 0x1D81 JUMP JUMPDEST PUSH1 0x60 PUSH1 0x40 MLOAD DUP1 DUP4 SUB DUP2 DUP7 GAS STATICCALL ISZERO DUP1 ISZERO PUSH2 0xC97 JUMPI RETURNDATASIZE PUSH0 PUSH0 RETURNDATACOPY RETURNDATASIZE PUSH0 REVERT JUMPDEST POP POP POP POP PUSH1 0x40 MLOAD RETURNDATASIZE PUSH1 0x1F NOT PUSH1 0x1F DUP3 ADD AND DUP3 ADD DUP1 PUSH1 0x40 MSTORE POP DUP2 ADD SWAP1 PUSH2 0xCBB SWAP2 SWAP1 PUSH2 0x1DD5 JUMP JUMPDEST SWAP3 POP SWAP3 POP POP PUSH20 0x0 PUSH4 0xABCD7960 DUP4 PUSH9 0xD8D726B7177A80000 PUSH1 0x40 MLOAD DUP4 PUSH4 0xFFFFFFFF AND PUSH1 0xE0 SHL DUP2 MSTORE PUSH1 0x4 ADD PUSH2 0xD02 SWAP3 SWAP2 SWAP1 PUSH2 0x1E6F JUMP JUMPDEST PUSH1 0x20 PUSH1 0x40 MLOAD DUP1 DUP4 SUB DUP2 DUP7 GAS DELEGATECALL ISZERO DUP1 ISZERO PUSH2 0xD1D JUMPI RETURNDATASIZE PUSH0 PUSH0 RETURNDATACOPY RETURNDATASIZE PUSH0 REVERT JUMPDEST POP POP POP POP PUSH1 0x40 MLOAD RETURNDATASIZE PUSH1 0x1F NOT PUSH1 0x1F DUP3 ADD AND DUP3 ADD DUP1 PUSH1 0x40 MSTORE POP DUP2 ADD SWAP1 PUSH2 0xD41 SWAP2 SWAP1 PUSH2 0x1923 JUMP JUMPDEST POP PUSH20 0x0 PUSH4 0x767392B3 DUP3 PUSH1 0x1 PUSH1 0x40 MLOAD DUP4 PUSH4 0xFFFFFFFF AND PUSH1 0xE0 SHL DUP2 MSTORE PUSH1 0x4 ADD PUSH2 0xD7C SWAP3 SWAP2 SWAP1 PUSH2 0x1EF3 JUMP JUMPDEST PUSH1 0x20 PUSH1 0x40 MLOAD DUP1 DUP4 SUB DUP2 DUP7 GAS DELEGATECALL ISZERO DUP1 ISZERO PUSH2 0xD97 JUMPI RETURNDATASIZE PUSH0 PUSH0 RETURNDATACOPY RETURNDATASIZE PUSH0 REVERT JUMPDEST POP POP POP POP PUSH1 0x40 MLOAD RETURNDATASIZE PUSH1 0x1F NOT PUSH1 0x1F DUP3 ADD AND DUP3 ADD DUP1 PUSH1 0x40 MSTORE POP DUP2 ADD SWAP1 PUSH2 0xDBB SWAP2 SWAP1 PUSH2 0x1923 JUMP JUMPDEST POP PUSH0 PUSH1 0x1 PUSH0 SWAP1 SLOAD SWAP1 PUSH2 0x100 EXP SWAP1 DIV PUSH20 0xFFFFFFFFFFFFFFFFFFFFFFFFFFFFFFFFFFFFFFFF AND PUSH20 0xFFFFFFFFFFFFFFFFFFFFFFFFFFFFFFFFFFFFFFFF AND PUSH4 0x70A08231 PUSH1 0x3 PUSH0 SWAP1 SLOAD SWAP1 PUSH2 0x100 EXP SWAP1 DIV PUSH20 0xFFFFFFFFFFFFFFFFFFFFFFFFFFFFFFFFFFFFFFFF AND PUSH1 0x40 MLOAD DUP3 PUSH4 0xFFFFFFFF AND PUSH1 0xE0 SHL DUP2 MSTORE PUSH1 0x4 ADD PUSH2 0xE38 SWAP2 SWAP1 PUSH2 0x17CA JUMP JUMPDEST PUSH1 0x20 PUSH1 0x40 MLOAD DUP1 DUP4 SUB DUP2 DUP7 GAS STATICCALL ISZERO DUP1 ISZERO PUSH2 0xE53 JUMPI RETURNDATASIZE PUSH0 PUSH0 RETURNDATACOPY RETURNDATASIZE PUSH0 REVERT JUMPDEST POP POP POP POP PUSH1 0x40 MLOAD RETURNDATASIZE PUSH1 0x1F NOT PUSH1 0x1F DUP3 ADD AND DUP3 ADD DUP1 PUSH1 0x40 MSTORE POP DUP2 ADD SWAP1 PUSH2 0xE77 SWAP2 SWAP1 PUSH2 0x1811 JUMP JUMPDEST SWAP1 POP PUSH20 0x0 PUSH4 0x39DF137F PUSH9 0xD8D726B7177A80000 DUP4 LT ISZERO PUSH1 0x40 MLOAD DUP3 PUSH4 0xFFFFFFFF AND PUSH1 0xE0 SHL DUP2 MSTORE PUSH1 0x4 ADD PUSH2 0xEBC SWAP2 SWAP1 PUSH2 0x1F77 JUMP JUMPDEST PUSH1 0x20 PUSH1 0x40 MLOAD DUP1 DUP4 SUB DUP2 DUP7 GAS DELEGATECALL ISZERO DUP1 ISZERO PUSH2 0xED7 JUMPI RETURNDATASIZE PUSH0 PUSH0 RETURNDATACOPY RETURNDATASIZE PUSH0 REVERT JUMPDEST POP POP POP POP PUSH1 0x40 MLOAD RETURNDATASIZE PUSH1 0x1F NOT PUSH1 0x1F DUP3 ADD AND DUP3 ADD DUP1 PUSH1 0x40 MSTORE POP DUP2 ADD SWAP1 PUSH2 0xEFB SWAP2 SWAP1 PUSH2 0x1923 JUMP JUMPDEST POP POP POP POP JUMP JUMPDEST PUSH0 PUSH2 0x1F4 SWAP1 POP PUSH0 PUSH1 0x64 SWAP1 POP PUSH0 PUSH8 0xDE0B6B3A7640000 DUP4 PUSH2 0xF21 SWAP2 SWAP1 PUSH2 0x1FD0 JUMP JUMPDEST SWAP1 POP PUSH0 PUSH8 0xDE0B6B3A7640000 DUP4 PUSH2 0xF38 SWAP2 SWAP1 PUSH2 0x1FD0 JUMP JUMPDEST SWAP1 POP PUSH0 DUP2 DUP4 PUSH2 0xF47 SWAP2 SWAP1 PUSH2 0x2011 JUMP JUMPDEST SWAP1 POP PUSH1 0x1 PUSH0 SWAP1 SLOAD SWAP1 PUSH2 0x100 EXP SWAP1 DIV PUSH20 0xFFFFFFFFFFFFFFFFFFFFFFFFFFFFFFFFFFFFFFFF AND PUSH20 0xFFFFFFFFFFFFFFFFFFFFFFFFFFFFFFFFFFFFFFFF AND PUSH4 0x40C10F19 PUSH1 0x2 PUSH0 SWAP1 SLOAD SWAP1 PUSH2 0x100 EXP SWAP1 DIV PUSH20 0xFFFFFFFFFFFFFFFFFFFFFFFFFFFFFFFFFFFFFFFF AND DUP6 PUSH1 0x40 MLOAD DUP4 PUSH4 0xFFFFFFFF AND PUSH1 0xE0 SHL DUP2 MSTORE PUSH1 0x4 ADD PUSH2 0xFC6 SWAP3 SWAP2 SWAP1 PUSH2 0x2053 JUMP JUMPDEST PUSH0 PUSH1 0x40 MLOAD DUP1 DUP4 SUB DUP2 PUSH0 DUP8 DUP1 EXTCODESIZE ISZERO DUP1 ISZERO PUSH2 0xFDD JUMPI PUSH0 PUSH0 REVERT JUMPDEST POP GAS CALL ISZERO DUP1 ISZERO PUSH2 0xFEF JUMPI RETURNDATASIZE PUSH0 PUSH0 RETURNDATACOPY RETURNDATASIZE PUSH0 REVERT JUMPDEST POP POP POP POP PUSH1 0x2 PUSH0 SWAP1 SLOAD SWAP1 PUSH2 0x100 EXP SWAP1 DIV PUSH20 0xFFFFFFFFFFFFFFFFFFFFFFFFFFFFFFFFFFFFFFFF AND PUSH20 0xFFFFFFFFFFFFFFFFFFFFFFFFFFFFFFFFFFFFFFFF AND PUSH4 0xDA3E3397 PUSH1 0x1 PUSH0 SWAP1 SLOAD SWAP1 PUSH2 0x100 EXP SWAP1 DIV PUSH20 0xFFFFFFFFFFFFFFFFFFFFFFFFFFFFFFFFFFFFFFFF AND PUSH0 PUSH0 SWAP1 SLOAD SWAP1 PUSH2 0x100 EXP SWAP1 DIV PUSH20 0xFFFFFFFFFFFFFFFFFFFFFFFFFFFFFFFFFFFFFFFF AND DUP7 PUSH1 0x40 MLOAD DUP5 PUSH4 0xFFFFFFFF AND PUSH1 0xE0 SHL DUP2 MSTORE PUSH1 0x4 ADD PUSH2 0x1092 SWAP4 SWAP3 SWAP2 SWAP1 PUSH2 0x207A JUMP JUMPDEST PUSH0 PUSH1 0x40 MLOAD DUP1 DUP4 SUB DUP2 PUSH0 DUP8 DUP1 EXTCODESIZE ISZERO DUP1 ISZERO PUSH2 0x10A9 JUMPI PUSH0 PUSH0 REVERT JUMPDEST POP GAS CALL ISZERO DUP1 ISZERO PUSH2 0x10BB JUMPI RETURNDATASIZE PUSH0 PUSH0 RETURNDATACOPY RETURNDATASIZE PUSH0 REVERT JUMPDEST POP POP POP POP PUSH1 0x2 PUSH0 SWAP1 SLOAD SWAP1 PUSH2 0x100 EXP SWAP1 DIV PUSH20 0xFFFFFFFFFFFFFFFFFFFFFFFFFFFFFFFFFFFFFFFF AND PUSH20 0xFFFFFFFFFFFFFFFFFFFFFFFFFFFFFFFFFFFFFFFF AND PUSH4 0x59F3EF05 PUSH0 PUSH0 SWAP1 SLOAD SWAP1 PUSH2 0x100 EXP SWAP1 DIV PUSH20 0xFFFFFFFFFFFFFFFFFFFFFFFFFFFFFFFFFFFFFFFF AND PUSH1 0x40 MLOAD DUP3 PUSH4 0xFFFFFFFF AND PUSH1 0xE0 SHL DUP2 MSTORE PUSH1 0x4 ADD PUSH2 0x1139 SWAP2 SWAP1 PUSH2 0x17CA JUMP JUMPDEST PUSH0 PUSH1 0x40 MLOAD DUP1 DUP4 SUB DUP2 PUSH0 DUP8 DUP1 EXTCODESIZE ISZERO DUP1 ISZERO PUSH2 0x1150 JUMPI PUSH0 PUSH0 REVERT JUMPDEST POP GAS CALL ISZERO DUP1 ISZERO PUSH2 0x1162 JUMPI RETURNDATASIZE PUSH0 PUSH0 RETURNDATACOPY RETURNDATASIZE PUSH0 REVERT JUMPDEST POP POP POP POP PUSH0 PUSH0 SWAP1 SLOAD SWAP1 PUSH2 0x100 EXP SWAP1 DIV PUSH20 0xFFFFFFFFFFFFFFFFFFFFFFFFFFFFFFFFFFFFFFFF AND PUSH20 0xFFFFFFFFFFFFFFFFFFFFFFFFFFFFFFFFFFFFFFFF AND PUSH4 0x8E7F727F DUP6 PUSH1 0x40 MLOAD DUP3 PUSH4 0xFFFFFFFF AND PUSH1 0xE0 SHL DUP2 MSTORE PUSH1 0x4 ADD PUSH2 0x11BF SWAP2 SWAP1 PUSH2 0x20F9 JUMP JUMPDEST PUSH0 PUSH1 0x40 MLOAD DUP1 DUP4 SUB DUP2 PUSH0 DUP8 DUP1 EXTCODESIZE ISZERO DUP1 ISZERO PUSH2 0x11D6 JUMPI PUSH0 PUSH0 REVERT JUMPDEST POP GAS CALL ISZERO DUP1 ISZERO PUSH2 0x11E8 JUMPI RETURNDATASIZE PUSH0 PUSH0 RETURNDATACOPY RETURNDATASIZE PUSH0 REVERT JUMPDEST POP POP POP POP PUSH0 PUSH0 PUSH0 SWAP1 SLOAD SWAP1 PUSH2 0x100 EXP SWAP1 DIV PUSH20 0xFFFFFFFFFFFFFFFFFFFFFFFFFFFFFFFFFFFFFFFF AND PUSH20 0xFFFFFFFFFFFFFFFFFFFFFFFFFFFFFFFFFFFFFFFF AND PUSH4 0x61BC1A49 PUSH1 0x40 MLOAD DUP2 PUSH4 0xFFFFFFFF AND PUSH1 0xE0 SHL DUP2 MSTORE PUSH1 0x4 ADD PUSH1 0x20 PUSH1 0x40 MLOAD DUP1 DUP4 SUB DUP2 DUP7 GAS STATICCALL ISZERO DUP1 ISZERO PUSH2 0x1256 JUMPI RETURNDATASIZE PUSH0 PUSH0 RETURNDATACOPY RETURNDATASIZE PUSH0 REVERT JUMPDEST POP POP POP POP PUSH1 0x40 MLOAD RETURNDATASIZE PUSH1 0x1F NOT PUSH1 0x1F DUP3 ADD AND DUP3 ADD DUP1 PUSH1 0x40 MSTORE POP DUP2 ADD SWAP1 PUSH2 0x127A SWAP2 SWAP1 PUSH2 0x1811 JUMP JUMPDEST SWAP1 POP PUSH20 0x0 PUSH4 0xABCD7960 DUP3 DUP5 PUSH1 0x40 MLOAD DUP4 PUSH4 0xFFFFFFFF AND PUSH1 0xE0 SHL DUP2 MSTORE PUSH1 0x4 ADD PUSH2 0x12B5 SWAP3 SWAP2 SWAP1 PUSH2 0x2195 JUMP JUMPDEST PUSH1 0x20 PUSH1 0x40 MLOAD DUP1 DUP4 SUB DUP2 DUP7 GAS DELEGATECALL ISZERO DUP1 ISZERO PUSH2 0x12D0 JUMPI RETURNDATASIZE PUSH0 PUSH0 RETURNDATACOPY RETURNDATASIZE PUSH0 REVERT JUMPDEST POP POP POP POP PUSH1 0x40 MLOAD RETURNDATASIZE PUSH1 0x1F NOT PUSH1 0x1F DUP3 ADD AND DUP3 ADD DUP1 PUSH1 0x40 MSTORE POP DUP2 ADD SWAP1 PUSH2 0x12F4 SWAP2 SWAP1 PUSH2 0x1923 JUMP JUMPDEST POP POP POP POP POP POP POP JUMP JUMPDEST PUSH1 0x40 MLOAD PUSH2 0x1309 SWAP1 PUSH2 0x16E4 JUMP JUMPDEST PUSH1 0x40 MLOAD DUP1 SWAP2 SUB SWAP1 PUSH0 CREATE DUP1 ISZERO DUP1 ISZERO PUSH2 0x1322 JUMPI RETURNDATASIZE PUSH0 PUSH0 RETURNDATACOPY RETURNDATASIZE PUSH0 REVERT JUMPDEST POP PUSH1 0x1 PUSH0 PUSH2 0x100 EXP DUP2 SLOAD DUP2 PUSH20 0xFFFFFFFFFFFFFFFFFFFFFFFFFFFFFFFFFFFFFFFF MUL NOT AND SWAP1 DUP4 PUSH20 0xFFFFFFFFFFFFFFFFFFFFFFFFFFFFFFFFFFFFFFFF AND MUL OR SWAP1 SSTORE POP PUSH1 0x40 MLOAD PUSH2 0x136E SWAP1 PUSH2 0x16F1 JUMP JUMPDEST PUSH1 0x40 MLOAD DUP1 SWAP2 SUB SWAP1 PUSH0 CREATE DUP1 ISZERO DUP1 ISZERO PUSH2 0x1387 JUMPI RETURNDATASIZE PUSH0 PUSH0 RETURNDATACOPY RETURNDATASIZE PUSH0 REVERT JUMPDEST POP PUSH1 0x2 PUSH0 PUSH2 0x100 EXP DUP2 SLOAD DUP2 PUSH20 0xFFFFFFFFFFFFFFFFFFFFFFFFFFFFFFFFFFFFFFFF MUL NOT AND SWAP1 DUP4 PUSH20 0xFFFFFFFFFFFFFFFFFFFFFFFFFFFFFFFFFFFFFFFF AND MUL OR SWAP1 SSTORE POP PUSH1 0x1 PUSH0 SWAP1 SLOAD SWAP1 PUSH2 0x100 EXP SWAP1 DIV PUSH20 0xFFFFFFFFFFFFFFFFFFFFFFFFFFFFFFFFFFFFFFFF AND PUSH20 0xFFFFFFFFFFFFFFFFFFFFFFFFFFFFFFFFFFFFFFFF AND PUSH4 0x40C10F19 PUSH1 0x2 PUSH0 SWAP1 SLOAD SWAP1 PUSH2 0x100 EXP SWAP1 DIV PUSH20 0xFFFFFFFFFFFFFFFFFFFFFFFFFFFFFFFFFFFFFFFF AND PUSH10 0x10F0CF064DD59200000 PUSH1 0x40 MLOAD DUP4 PUSH4 0xFFFFFFFF AND PUSH1 0xE0 SHL DUP2 MSTORE PUSH1 0x4 ADD PUSH2 0x144E SWAP3 SWAP2 SWAP1 PUSH2 0x2208 JUMP JUMPDEST PUSH0 PUSH1 0x40 MLOAD DUP1 DUP4 SUB DUP2 PUSH0 DUP8 DUP1 EXTCODESIZE ISZERO DUP1 ISZERO PUSH2 0x1465 JUMPI PUSH0 PUSH0 REVERT JUMPDEST POP GAS CALL ISZERO DUP1 ISZERO PUSH2 0x1477 JUMPI RETURNDATASIZE PUSH0 PUSH0 RETURNDATACOPY RETURNDATASIZE PUSH0 REVERT JUMPDEST POP POP POP POP PUSH1 0x2 PUSH0 SWAP1 SLOAD SWAP1 PUSH2 0x100 EXP SWAP1 DIV PUSH20 0xFFFFFFFFFFFFFFFFFFFFFFFFFFFFFFFFFFFFFFFF AND PUSH9 0xD8D726B7177A80000 PUSH9 0x1B1AE4D6E2EF500000 PUSH1 0x1 DUP1 PUSH0 SWAP1 SLOAD SWAP1 PUSH2 0x100 EXP SWAP1 DIV PUSH20 0xFFFFFFFFFFFFFFFFFFFFFFFFFFFFFFFFFFFFFFFF AND PUSH0 PUSH0 PUSH1 0x40 MLOAD PUSH2 0x14E2 SWAP1 PUSH2 0x16FE JUMP JUMPDEST PUSH2 0x14F2 SWAP8 SWAP7 SWAP6 SWAP5 SWAP4 SWAP3 SWAP2 SWAP1 PUSH2 0x2288 JUMP JUMPDEST PUSH1 0x40 MLOAD DUP1 SWAP2 SUB SWAP1 PUSH0 CREATE DUP1 ISZERO DUP1 ISZERO PUSH2 0x150B JUMPI RETURNDATASIZE PUSH0 PUSH0 RETURNDATACOPY RETURNDATASIZE PUSH0 REVERT JUMPDEST POP PUSH0 PUSH0 PUSH2 0x100 EXP DUP2 SLOAD DUP2 PUSH20 0xFFFFFFFFFFFFFFFFFFFFFFFFFFFFFFFFFFFFFFFF MUL NOT AND SWAP1 DUP4 PUSH20 0xFFFFFFFFFFFFFFFFFFFFFFFFFFFFFFFFFFFFFFFF AND MUL OR SWAP1 SSTORE POP ADDRESS PUSH1 0x3 PUSH0 PUSH2 0x100 EXP DUP2 SLOAD DUP2 PUSH20 0xFFFFFFFFFFFFFFFFFFFFFFFFFFFFFFFFFFFFFFFF MUL NOT AND SWAP1 DUP4 PUSH20 0xFFFFFFFFFFFFFFFFFFFFFFFFFFFFFFFFFFFFFFFF AND MUL OR SWAP1 SSTORE POP PUSH1 0x1 PUSH0 SWAP1 SLOAD SWAP1 PUSH2 0x100 EXP SWAP1 DIV PUSH20 0xFFFFFFFFFFFFFFFFFFFFFFFFFFFFFFFFFFFFFFFF AND PUSH20 0xFFFFFFFFFFFFFFFFFFFFFFFFFFFFFFFFFFFFFFFF AND PUSH4 0x40C10F19 ADDRESS PUSH9 0x3635C9ADC5DEA00000 PUSH1 0x40 MLOAD DUP4 PUSH4 0xFFFFFFFF AND PUSH1 0xE0 SHL DUP2 MSTORE PUSH1 0x4 ADD PUSH2 0x15EF SWAP3 SWAP2 SWAP1 PUSH2 0x2342 JUMP JUMPDEST PUSH0 PUSH1 0x40 MLOAD DUP1 DUP4 SUB DUP2 PUSH0 DUP8 DUP1 EXTCODESIZE ISZERO DUP1 ISZERO PUSH2 0x1606 JUMPI PUSH0 PUSH0 REVERT JUMPDEST POP GAS CALL ISZERO DUP1 ISZERO PUSH2 0x1618 JUMPI RETURNDATASIZE PUSH0 PUSH0 RETURNDATACOPY RETURNDATASIZE PUSH0 REVERT JUMPDEST POP POP POP POP PUSH1 0x1 PUSH0 SWAP1 SLOAD SWAP1 PUSH2 0x100 EXP SWAP1 DIV PUSH20 0xFFFFFFFFFFFFFFFFFFFFFFFFFFFFFFFFFFFFFFFF AND PUSH20 0xFFFFFFFFFFFFFFFFFFFFFFFFFFFFFFFFFFFFFFFF AND PUSH4 0x95EA7B3 PUSH0 PUSH0 SWAP1 SLOAD SWAP1 PUSH2 0x100 EXP SWAP1 DIV PUSH20 0xFFFFFFFFFFFFFFFFFFFFFFFFFFFFFFFFFFFFFFFF AND PUSH9 0x3635C9ADC5DEA00000 PUSH1 0x40 MLOAD DUP4 PUSH4 0xFFFFFFFF AND PUSH1 0xE0 SHL DUP2 MSTORE PUSH1 0x4 ADD PUSH2 0x16A1 SWAP3 SWAP2 SWAP1 PUSH2 0x2342 JUMP JUMPDEST PUSH1 0x20 PUSH1 0x40 MLOAD DUP1 DUP4 SUB DUP2 PUSH0 DUP8 GAS CALL ISZERO DUP1 ISZERO PUSH2 0x16BD JUMPI RETURNDATASIZE PUSH0 PUSH0 RETURNDATACOPY RETURNDATASIZE PUSH0 REVERT JUMPDEST POP POP POP POP PUSH1 0x40 MLOAD RETURNDATASIZE PUSH1 0x1F NOT PUSH1 0x1F DUP3 ADD AND DUP3 ADD DUP1 PUSH1 0x40 MSTORE POP DUP2 ADD SWAP1 PUSH2 0x16E1 SWAP2 SWAP1 PUSH2 0x1923 JUMP JUMPDEST POP JUMP JUMPDEST PUSH2 0x161F DUP1 PUSH2 0x236A DUP4 CODECOPY ADD SWAP1 JUMP JUMPDEST PUSH2 0x501 DUP1 PUSH2 0x3989 DUP4 CODECOPY ADD SWAP1 JUMP JUMPDEST PUSH2 0x6EA4 DUP1 PUSH2 0x3E8A DUP4 CODECOPY ADD SWAP1 JUMP JUMPDEST PUSH0 PUSH20 0xFFFFFFFFFFFFFFFFFFFFFFFFFFFFFFFFFFFFFFFF DUP3 AND SWAP1 POP SWAP2 SWAP1 POP JUMP JUMPDEST PUSH0 PUSH2 0x1734 DUP3 PUSH2 0x170B JUMP JUMPDEST SWAP1 POP SWAP2 SWAP1 POP JUMP JUMPDEST PUSH2 0x1744 DUP2 PUSH2 0x172A JUMP JUMPDEST DUP3 MSTORE POP POP JUMP JUMPDEST PUSH0 DUP2 SWAP1 POP SWAP2 SWAP1 POP JUMP JUMPDEST PUSH0 DUP2 SWAP1 POP SWAP2 SWAP1 POP JUMP JUMPDEST PUSH0 DUP2 SWAP1 POP SWAP2 SWAP1 POP JUMP JUMPDEST PUSH0 PUSH2 0x177F PUSH2 0x177A PUSH2 0x1775 DUP5 PUSH2 0x174A JUMP JUMPDEST PUSH2 0x175C JUMP JUMPDEST PUSH2 0x1753 JUMP JUMPDEST SWAP1 POP SWAP2 SWAP1 POP JUMP JUMPDEST PUSH2 0x178F DUP2 PUSH2 0x1765 JUMP JUMPDEST DUP3 MSTORE POP POP JUMP JUMPDEST PUSH0 PUSH1 0x60 DUP3 ADD SWAP1 POP PUSH2 0x17A8 PUSH0 DUP4 ADD DUP7 PUSH2 0x173B JUMP JUMPDEST PUSH2 0x17B5 PUSH1 0x20 DUP4 ADD DUP6 PUSH2 0x173B JUMP JUMPDEST PUSH2 0x17C2 PUSH1 0x40 DUP4 ADD DUP5 PUSH2 0x1786 JUMP JUMPDEST SWAP5 SWAP4 POP POP POP POP JUMP JUMPDEST PUSH0 PUSH1 0x20 DUP3 ADD SWAP1 POP PUSH2 0x17DD PUSH0 DUP4 ADD DUP5 PUSH2 0x173B JUMP JUMPDEST SWAP3 SWAP2 POP POP JUMP JUMPDEST PUSH0 PUSH0 REVERT JUMPDEST PUSH2 0x17F0 DUP2 PUSH2 0x1753 JUMP JUMPDEST DUP2 EQ PUSH2 0x17FA JUMPI PUSH0 PUSH0 REVERT JUMPDEST POP JUMP JUMPDEST PUSH0 DUP2 MLOAD SWAP1 POP PUSH2 0x180B DUP2 PUSH2 0x17E7 JUMP JUMPDEST SWAP3 SWAP2 POP POP JUMP JUMPDEST PUSH0 PUSH1 0x20 DUP3 DUP5 SUB SLT ISZERO PUSH2 0x1826 JUMPI PUSH2 0x1825 PUSH2 0x17E3 JUMP JUMPDEST JUMPDEST PUSH0 PUSH2 0x1833 DUP5 DUP3 DUP6 ADD PUSH2 0x17FD JUMP JUMPDEST SWAP2 POP POP SWAP3 SWAP2 POP POP JUMP JUMPDEST PUSH2 0x1845 DUP2 PUSH2 0x1753 JUMP JUMPDEST DUP3 MSTORE POP POP JUMP JUMPDEST PUSH2 0x1854 DUP2 PUSH2 0x1765 JUMP JUMPDEST DUP3 MSTORE POP POP JUMP JUMPDEST PUSH0 DUP3 DUP3 MSTORE PUSH1 0x20 DUP3 ADD SWAP1 POP SWAP3 SWAP2 POP POP JUMP JUMPDEST PUSH32 0x4465706F7369742073686F756C64206265203530300000000000000000000000 PUSH0 DUP3 ADD MSTORE POP JUMP JUMPDEST PUSH0 PUSH2 0x189E PUSH1 0x15 DUP4 PUSH2 0x185A JUMP JUMPDEST SWAP2 POP PUSH2 0x18A9 DUP3 PUSH2 0x186A JUMP JUMPDEST PUSH1 0x20 DUP3 ADD SWAP1 POP SWAP2 SWAP1 POP JUMP JUMPDEST PUSH0 PUSH1 0x60 DUP3 ADD SWAP1 POP PUSH2 0x18C7 PUSH0 DUP4 ADD DUP6 PUSH2 0x183C JUMP JUMPDEST PUSH2 0x18D4 PUSH1 0x20 DUP4 ADD DUP5 PUSH2 0x184B JUMP JUMPDEST DUP2 DUP2 SUB PUSH1 0x40 DUP4 ADD MSTORE PUSH2 0x18E5 DUP2 PUSH2 0x1892 JUMP JUMPDEST SWAP1 POP SWAP4 SWAP3 POP POP POP JUMP JUMPDEST PUSH0 DUP2 ISZERO ISZERO SWAP1 POP SWAP2 SWAP1 POP JUMP JUMPDEST PUSH2 0x1902 DUP2 PUSH2 0x18EE JUMP JUMPDEST DUP2 EQ PUSH2 0x190C JUMPI PUSH0 PUSH0 REVERT JUMPDEST POP JUMP JUMPDEST PUSH0 DUP2 MLOAD SWAP1 POP PUSH2 0x191D DUP2 PUSH2 0x18F9 JUMP JUMPDEST SWAP3 SWAP2 POP POP JUMP JUMPDEST PUSH0 PUSH1 0x20 DUP3 DUP5 SUB SLT ISZERO PUSH2 0x1938 JUMPI PUSH2 0x1937 PUSH2 0x17E3 JUMP JUMPDEST JUMPDEST PUSH0 PUSH2 0x1945 DUP5 DUP3 DUP6 ADD PUSH2 0x190F JUMP JUMPDEST SWAP2 POP POP SWAP3 SWAP2 POP POP JUMP JUMPDEST PUSH2 0x1957 DUP2 PUSH2 0x172A JUMP JUMPDEST DUP2 EQ PUSH2 0x1961 JUMPI PUSH0 PUSH0 REVERT JUMPDEST POP JUMP JUMPDEST PUSH0 DUP2 MLOAD SWAP1 POP PUSH2 0x1972 DUP2 PUSH2 0x194E JUMP JUMPDEST SWAP3 SWAP2 POP POP JUMP JUMPDEST PUSH0 PUSH1 0x20 DUP3 DUP5 SUB SLT ISZERO PUSH2 0x198D JUMPI PUSH2 0x198C PUSH2 0x17E3 JUMP JUMPDEST JUMPDEST PUSH0 PUSH2 0x199A DUP5 DUP3 DUP6 ADD PUSH2 0x1964 JUMP JUMPDEST SWAP2 POP POP SWAP3 SWAP2 POP POP JUMP JUMPDEST PUSH2 0x19AC DUP2 PUSH2 0x172A JUMP JUMPDEST DUP3 MSTORE POP POP JUMP JUMPDEST PUSH32 0x54656E616E742073686F756C642062652073657420636F72726563746C790000 PUSH0 DUP3 ADD MSTORE POP JUMP JUMPDEST PUSH0 PUSH2 0x19E6 PUSH1 0x1E DUP4 PUSH2 0x185A JUMP JUMPDEST SWAP2 POP PUSH2 0x19F1 DUP3 PUSH2 0x19B2 JUMP JUMPDEST PUSH1 0x20 DUP3 ADD SWAP1 POP SWAP2 SWAP1 POP JUMP JUMPDEST PUSH0 PUSH1 0x60 DUP3 ADD SWAP1 POP PUSH2 0x1A0F PUSH0 DUP4 ADD DUP6 PUSH2 0x19A3 JUMP JUMPDEST PUSH2 0x1A1C PUSH1 0x20 DUP4 ADD DUP5 PUSH2 0x19A3 JUMP JUMPDEST DUP2 DUP2 SUB PUSH1 0x40 DUP4 ADD MSTORE PUSH2 0x1A2D DUP2 PUSH2 0x19DA JUMP JUMPDEST SWAP1 POP SWAP4 SWAP3 POP POP POP JUMP JUMPDEST PUSH0 DUP2 SWAP1 POP SWAP2 SWAP1 POP JUMP JUMPDEST PUSH0 PUSH2 0x1A59 PUSH2 0x1A54 PUSH2 0x1A4F DUP5 PUSH2 0x1A36 JUMP JUMPDEST PUSH2 0x175C JUMP JUMPDEST PUSH2 0x1753 JUMP JUMPDEST SWAP1 POP SWAP2 SWAP1 POP JUMP JUMPDEST PUSH2 0x1A69 DUP2 PUSH2 0x1A3F JUMP JUMPDEST DUP3 MSTORE POP POP JUMP JUMPDEST PUSH32 0x52656E7420616D6F756E742073686F756C64206D617463680000000000000000 PUSH0 DUP3 ADD MSTORE POP JUMP JUMPDEST PUSH0 PUSH2 0x1AA3 PUSH1 0x18 DUP4 PUSH2 0x185A JUMP JUMPDEST SWAP2 POP PUSH2 0x1AAE DUP3 PUSH2 0x1A6F JUMP JUMPDEST PUSH1 0x20 DUP3 ADD SWAP1 POP SWAP2 SWAP1 POP JUMP JUMPDEST PUSH0 PUSH1 0x60 DUP3 ADD SWAP1 POP PUSH2 0x1ACC PUSH0 DUP4 ADD DUP6 PUSH2 0x183C JUMP JUMPDEST PUSH2 0x1AD9 PUSH1 0x20 DUP4 ADD DUP5 PUSH2 0x1A60 JUMP JUMPDEST DUP2 DUP2 SUB PUSH1 0x40 DUP4 ADD MSTORE PUSH2 0x1AEA DUP2 PUSH2 0x1A97 JUMP JUMPDEST SWAP1 POP SWAP4 SWAP3 POP POP POP JUMP JUMPDEST PUSH0 DUP3 DUP3 MSTORE PUSH1 0x20 DUP3 ADD SWAP1 POP SWAP3 SWAP2 POP POP JUMP JUMPDEST PUSH32 0x616E790000000000000000000000000000000000000000000000000000000000 PUSH0 DUP3 ADD MSTORE POP JUMP JUMPDEST PUSH0 PUSH2 0x1B37 PUSH1 0x3 DUP4 PUSH2 0x1AF3 JUMP JUMPDEST SWAP2 POP PUSH2 0x1B42 DUP3 PUSH2 0x1B03 JUMP JUMPDEST PUSH1 0x20 DUP3 ADD SWAP1 POP SWAP2 SWAP1 POP JUMP JUMPDEST PUSH0 PUSH1 0x20 DUP3 ADD SWAP1 POP DUP2 DUP2 SUB PUSH0 DUP4 ADD MSTORE PUSH2 0x1B64 DUP2 PUSH2 0x1B2B JUMP JUMPDEST SWAP1 POP SWAP2 SWAP1 POP JUMP JUMPDEST PUSH0 DUP2 SWAP1 POP SWAP2 SWAP1 POP JUMP JUMPDEST PUSH0 PUSH2 0x1B8E PUSH2 0x1B89 PUSH2 0x1B84 DUP5 PUSH2 0x1B6B JUMP JUMPDEST PUSH2 0x175C JUMP JUMPDEST PUSH2 0x1753 JUMP JUMPDEST SWAP1 POP SWAP2 SWAP1 POP JUMP JUMPDEST PUSH2 0x1B9E DUP2 PUSH2 0x1B74 JUMP JUMPDEST DUP3 MSTORE POP POP JUMP JUMPDEST PUSH32 0x4465706F7369742073686F756C64206265207A65726F20616674657220726574 PUSH0 DUP3 ADD MSTORE PUSH32 0x75726E0000000000000000000000000000000000000000000000000000000000 PUSH1 0x20 DUP3 ADD MSTORE POP JUMP JUMPDEST PUSH0 PUSH2 0x1BFE PUSH1 0x23 DUP4 PUSH2 0x185A JUMP JUMPDEST SWAP2 POP PUSH2 0x1C09 DUP3 PUSH2 0x1BA4 JUMP JUMPDEST PUSH1 0x40 DUP3 ADD SWAP1 POP SWAP2 SWAP1 POP JUMP JUMPDEST PUSH0 PUSH1 0x60 DUP3 ADD SWAP1 POP PUSH2 0x1C27 PUSH0 DUP4 ADD DUP6 PUSH2 0x183C JUMP JUMPDEST PUSH2 0x1C34 PUSH1 0x20 DUP4 ADD DUP5 PUSH2 0x1B95 JUMP JUMPDEST DUP2 DUP2 SUB PUSH1 0x40 DUP4 ADD MSTORE PUSH2 0x1C45 DUP2 PUSH2 0x1BF2 JUMP JUMPDEST SWAP1 POP SWAP4 SWAP3 POP POP POP JUMP JUMPDEST PUSH2 0x1C57 DUP2 PUSH2 0x18EE JUMP JUMPDEST DUP3 MSTORE POP POP JUMP JUMPDEST PUSH32 0x4175746F6D61746963207061796D656E742073686F756C642062652061707072 PUSH0 DUP3 ADD MSTORE PUSH32 0x6F76656400000000000000000000000000000000000000000000000000000000 PUSH1 0x20 DUP3 ADD MSTORE POP JUMP JUMPDEST PUSH0 PUSH2 0x1CB7 PUSH1 0x24 DUP4 PUSH2 0x185A JUMP JUMPDEST SWAP2 POP PUSH2 0x1CC2 DUP3 PUSH2 0x1C5D JUMP JUMPDEST PUSH1 0x40 DUP3 ADD SWAP1 POP SWAP2 SWAP1 POP JUMP JUMPDEST PUSH0 PUSH1 0x60 DUP3 ADD SWAP1 POP PUSH2 0x1CE0 PUSH0 DUP4 ADD DUP6 PUSH2 0x1C4E JUMP JUMPDEST PUSH2 0x1CED PUSH1 0x20 DUP4 ADD DUP5 PUSH2 0x1C4E JUMP JUMPDEST DUP2 DUP2 SUB PUSH1 0x40 DUP4 ADD MSTORE PUSH2 0x1CFE DUP2 PUSH2 0x1CAB JUMP JUMPDEST SWAP1 POP SWAP4 SWAP3 POP POP POP JUMP JUMPDEST PUSH2 0x1D10 DUP2 PUSH2 0x1A3F JUMP JUMPDEST DUP3 MSTORE POP POP JUMP JUMPDEST PUSH0 PUSH1 0x40 DUP3 ADD SWAP1 POP PUSH2 0x1D29 PUSH0 DUP4 ADD DUP6 PUSH2 0x173B JUMP JUMPDEST PUSH2 0x1D36 PUSH1 0x20 DUP4 ADD DUP5 PUSH2 0x1D07 JUMP JUMPDEST SWAP4 SWAP3 POP POP POP JUMP JUMPDEST PUSH0 PUSH1 0x60 DUP3 ADD SWAP1 POP PUSH2 0x1D50 PUSH0 DUP4 ADD DUP7 PUSH2 0x173B JUMP JUMPDEST PUSH2 0x1D5D PUSH1 0x20 DUP4 ADD DUP6 PUSH2 0x173B JUMP JUMPDEST PUSH2 0x1D6A PUSH1 0x40 DUP4 ADD DUP5 PUSH2 0x1D07 JUMP JUMPDEST SWAP5 SWAP4 POP POP POP POP JUMP JUMPDEST PUSH2 0x1D7B DUP2 PUSH2 0x1B74 JUMP JUMPDEST DUP3 MSTORE POP POP JUMP JUMPDEST PUSH0 PUSH1 0x20 DUP3 ADD SWAP1 POP PUSH2 0x1D94 PUSH0 DUP4 ADD DUP5 PUSH2 0x1D72 JUMP JUMPDEST SWAP3 SWAP2 POP POP JUMP JUMPDEST PUSH0 PUSH6 0xFFFFFFFFFFFF DUP3 AND SWAP1 POP SWAP2 SWAP1 POP JUMP JUMPDEST PUSH2 0x1DB4 DUP2 PUSH2 0x1D9A JUMP JUMPDEST DUP2 EQ PUSH2 0x1DBE JUMPI PUSH0 PUSH0 REVERT JUMPDEST POP JUMP JUMPDEST PUSH0 DUP2 MLOAD SWAP1 POP PUSH2 0x1DCF DUP2 PUSH2 0x1DAB JUMP JUMPDEST SWAP3 SWAP2 POP POP JUMP JUMPDEST PUSH0 PUSH0 PUSH0 PUSH1 0x60 DUP5 DUP7 SUB SLT ISZERO PUSH2 0x1DEC JUMPI PUSH2 0x1DEB PUSH2 0x17E3 JUMP JUMPDEST JUMPDEST PUSH0 PUSH2 0x1DF9 DUP7 DUP3 DUP8 ADD PUSH2 0x1DC1 JUMP JUMPDEST SWAP4 POP POP PUSH1 0x20 PUSH2 0x1E0A DUP7 DUP3 DUP8 ADD PUSH2 0x17FD JUMP JUMPDEST SWAP3 POP POP PUSH1 0x40 PUSH2 0x1E1B DUP7 DUP3 DUP8 ADD PUSH2 0x190F JUMP JUMPDEST SWAP2 POP POP SWAP3 POP SWAP3 POP SWAP3 JUMP JUMPDEST PUSH32 0x5061796D656E742073686F756C64206265203235300000000000000000000000 PUSH0 DUP3 ADD MSTORE POP JUMP JUMPDEST PUSH0 PUSH2 0x1E59 PUSH1 0x15 DUP4 PUSH2 0x185A JUMP JUMPDEST SWAP2 POP PUSH2 0x1E64 DUP3 PUSH2 0x1E25 JUMP JUMPDEST PUSH1 0x20 DUP3 ADD SWAP1 POP SWAP2 SWAP1 POP JUMP JUMPDEST PUSH0 PUSH1 0x60 DUP3 ADD SWAP1 POP PUSH2 0x1E82 PUSH0 DUP4 ADD DUP6 PUSH2 0x183C JUMP JUMPDEST PUSH2 0x1E8F PUSH1 0x20 DUP4 ADD DUP5 PUSH2 0x1A60 JUMP JUMPDEST DUP2 DUP2 SUB PUSH1 0x40 DUP4 ADD MSTORE PUSH2 0x1EA0 DUP2 PUSH2 0x1E4D JUMP JUMPDEST SWAP1 POP SWAP4 SWAP3 POP POP POP JUMP JUMPDEST PUSH32 0x53686F756C6420626520737461626C65636F696E207061796D656E7400000000 PUSH0 DUP3 ADD MSTORE POP JUMP JUMPDEST PUSH0 PUSH2 0x1EDD PUSH1 0x1C DUP4 PUSH2 0x185A JUMP JUMPDEST SWAP2 POP PUSH2 0x1EE8 DUP3 PUSH2 0x1EA9 JUMP JUMPDEST PUSH1 0x20 DUP3 ADD SWAP1 POP SWAP2 SWAP1 POP JUMP JUMPDEST PUSH0 PUSH1 0x60 DUP3 ADD SWAP1 POP PUSH2 0x1F06 PUSH0 DUP4 ADD DUP6 PUSH2 0x1C4E JUMP JUMPDEST PUSH2 0x1F13 PUSH1 0x20 DUP4 ADD DUP5 PUSH2 0x1C4E JUMP JUMPDEST DUP2 DUP2 SUB PUSH1 0x40 DUP4 ADD MSTORE PUSH2 0x1F24 DUP2 PUSH2 0x1ED1 JUMP JUMPDEST SWAP1 POP SWAP4 SWAP3 POP POP POP JUMP JUMPDEST PUSH32 0x4C616E646C6F72642073686F756C642072656365697665207061796D656E7400 PUSH0 DUP3 ADD MSTORE POP JUMP JUMPDEST PUSH0 PUSH2 0x1F61 PUSH1 0x1F DUP4 PUSH2 0x185A JUMP JUMPDEST SWAP2 POP PUSH2 0x1F6C DUP3 PUSH2 0x1F2D JUMP JUMPDEST PUSH1 0x20 DUP3 ADD SWAP1 POP SWAP2 SWAP1 POP JUMP JUMPDEST PUSH0 PUSH1 0x40 DUP3 ADD SWAP1 POP PUSH2 0x1F8A PUSH0 DUP4 ADD DUP5 PUSH2 0x1C4E JUMP JUMPDEST DUP2 DUP2 SUB PUSH1 0x20 DUP4 ADD MSTORE PUSH2 0x1F9B DUP2 PUSH2 0x1F55 JUMP JUMPDEST SWAP1 POP SWAP3 SWAP2 POP POP JUMP JUMPDEST PUSH32 0x4E487B7100000000000000000000000000000000000000000000000000000000 PUSH0 MSTORE PUSH1 0x11 PUSH1 0x4 MSTORE PUSH1 0x24 PUSH0 REVERT JUMPDEST PUSH0 PUSH2 0x1FDA DUP3 PUSH2 0x1753 JUMP JUMPDEST SWAP2 POP PUSH2 0x1FE5 DUP4 PUSH2 0x1753 JUMP JUMPDEST SWAP3 POP DUP3 DUP3 MUL PUSH2 0x1FF3 DUP2 PUSH2 0x1753 JUMP JUMPDEST SWAP2 POP DUP3 DUP3 DIV DUP5 EQ DUP4 ISZERO OR PUSH2 0x200A JUMPI PUSH2 0x2009 PUSH2 0x1FA3 JUMP JUMPDEST JUMPDEST POP SWAP3 SWAP2 POP POP JUMP JUMPDEST PUSH0 PUSH2 0x201B DUP3 PUSH2 0x1753 JUMP JUMPDEST SWAP2 POP PUSH2 0x2026 DUP4 PUSH2 0x1753 JUMP JUMPDEST SWAP3 POP DUP3 DUP3 SUB SWAP1 POP DUP2 DUP2 GT ISZERO PUSH2 0x203E JUMPI PUSH2 0x203D PUSH2 0x1FA3 JUMP JUMPDEST JUMPDEST SWAP3 SWAP2 POP POP JUMP JUMPDEST PUSH2 0x204D DUP2 PUSH2 0x1753 JUMP JUMPDEST DUP3 MSTORE POP POP JUMP JUMPDEST PUSH0 PUSH1 0x40 DUP3 ADD SWAP1 POP PUSH2 0x2066 PUSH0 DUP4 ADD DUP6 PUSH2 0x173B JUMP JUMPDEST PUSH2 0x2073 PUSH1 0x20 DUP4 ADD DUP5 PUSH2 0x2044 JUMP JUMPDEST SWAP4 SWAP3 POP POP POP JUMP JUMPDEST PUSH0 PUSH1 0x60 DUP3 ADD SWAP1 POP PUSH2 0x208D PUSH0 DUP4 ADD DUP7 PUSH2 0x173B JUMP JUMPDEST PUSH2 0x209A PUSH1 0x20 DUP4 ADD DUP6 PUSH2 0x173B JUMP JUMPDEST PUSH2 0x20A7 PUSH1 0x40 DUP4 ADD DUP5 PUSH2 0x2044 JUMP JUMPDEST SWAP5 SWAP4 POP POP POP POP JUMP JUMPDEST PUSH32 0x5465737420646564756374696F6E000000000000000000000000000000000000 PUSH0 DUP3 ADD MSTORE POP JUMP JUMPDEST PUSH0 PUSH2 0x20E3 PUSH1 0xE DUP4 PUSH2 0x1AF3 JUMP JUMPDEST SWAP2 POP PUSH2 0x20EE DUP3 PUSH2 0x20AF JUMP JUMPDEST PUSH1 0x20 DUP3 ADD SWAP1 POP SWAP2 SWAP1 POP JUMP JUMPDEST PUSH0 PUSH1 0x40 DUP3 ADD SWAP1 POP PUSH2 0x210C PUSH0 DUP4 ADD DUP5 PUSH2 0x2044 JUMP JUMPDEST DUP2 DUP2 SUB PUSH1 0x20 DUP4 ADD MSTORE PUSH2 0x211D DUP2 PUSH2 0x20D7 JUMP JUMPDEST SWAP1 POP SWAP3 SWAP2 POP POP JUMP JUMPDEST PUSH32 0x4465706F7369742073686F756C64206265207265647563656420636F72726563 PUSH0 DUP3 ADD MSTORE PUSH32 0x746C790000000000000000000000000000000000000000000000000000000000 PUSH1 0x20 DUP3 ADD MSTORE POP JUMP JUMPDEST PUSH0 PUSH2 0x217F PUSH1 0x23 DUP4 PUSH2 0x185A JUMP JUMPDEST SWAP2 POP PUSH2 0x218A DUP3 PUSH2 0x2125 JUMP JUMPDEST PUSH1 0x40 DUP3 ADD SWAP1 POP SWAP2 SWAP1 POP JUMP JUMPDEST PUSH0 PUSH1 0x60 DUP3 ADD SWAP1 POP PUSH2 0x21A8 PUSH0 DUP4 ADD DUP6 PUSH2 0x183C JUMP JUMPDEST PUSH2 0x21B5 PUSH1 0x20 DUP4 ADD DUP5 PUSH2 0x183C JUMP JUMPDEST DUP2 DUP2 SUB PUSH1 0x40 DUP4 ADD MSTORE PUSH2 0x21C6 DUP2 PUSH2 0x2173 JUMP JUMPDEST SWAP1 POP SWAP4 SWAP3 POP POP POP JUMP JUMPDEST PUSH0 DUP2 SWAP1 POP SWAP2 SWAP1 POP JUMP JUMPDEST PUSH0 PUSH2 0x21F2 PUSH2 0x21ED PUSH2 0x21E8 DUP5 PUSH2 0x21CF JUMP JUMPDEST PUSH2 0x175C JUMP JUMPDEST PUSH2 0x1753 JUMP JUMPDEST SWAP1 POP SWAP2 SWAP1 POP JUMP JUMPDEST PUSH2 0x2202 DUP2 PUSH2 0x21D8 JUMP JUMPDEST DUP3 MSTORE POP POP JUMP JUMPDEST PUSH0 PUSH1 0x40 DUP3 ADD SWAP1 POP PUSH2 0x221B PUSH0 DUP4 ADD DUP6 PUSH2 0x173B JUMP JUMPDEST PUSH2 0x2228 PUSH1 0x20 DUP4 ADD DUP5 PUSH2 0x21F9 JUMP JUMPDEST SWAP4 SWAP3 POP POP POP JUMP JUMPDEST PUSH32 0x516D486173680000000000000000000000000000000000000000000000000000 PUSH0 DUP3 ADD MSTORE POP JUMP JUMPDEST PUSH0 PUSH2 0x2263 PUSH1 0x6 DUP4 PUSH2 0x1AF3 JUMP JUMPDEST SWAP2 POP PUSH2 0x226E DUP3 PUSH2 0x222F JUMP JUMPDEST PUSH1 0x20 DUP3 ADD SWAP1 POP SWAP2 SWAP1 POP JUMP JUMPDEST PUSH2 0x2282 DUP2 PUSH2 0x18EE JUMP JUMPDEST DUP3 MSTORE POP POP JUMP JUMPDEST PUSH0 PUSH2 0x100 DUP3 ADD SWAP1 POP PUSH2 0x229C PUSH0 DUP4 ADD DUP11 PUSH2 0x173B JUMP JUMPDEST PUSH2 0x22A9 PUSH1 0x20 DUP4 ADD DUP10 PUSH2 0x1D07 JUMP JUMPDEST PUSH2 0x22B6 PUSH1 0x40 DUP4 ADD DUP9 PUSH2 0x1786 JUMP JUMPDEST DUP2 DUP2 SUB PUSH1 0x60 DUP4 ADD MSTORE PUSH2 0x22C7 DUP2 PUSH2 0x2257 JUMP JUMPDEST SWAP1 POP PUSH2 0x22D6 PUSH1 0x80 DUP4 ADD DUP8 PUSH2 0x2279 JUMP JUMPDEST PUSH2 0x22E3 PUSH1 0xA0 DUP4 ADD DUP7 PUSH2 0x173B JUMP JUMPDEST PUSH2 0x22F0 PUSH1 0xC0 DUP4 ADD DUP6 PUSH2 0x173B JUMP JUMPDEST PUSH2 0x22FD PUSH1 0xE0 DUP4 ADD DUP5 PUSH2 0x1D72 JUMP JUMPDEST SWAP9 SWAP8 POP POP POP POP POP POP POP POP JUMP JUMPDEST PUSH0 DUP2 SWAP1 POP SWAP2 SWAP1 POP JUMP JUMPDEST PUSH0 PUSH2 0x232C PUSH2 0x2327 PUSH2 0x2322 DUP5 PUSH2 0x2309 JUMP JUMPDEST PUSH2 0x175C JUMP JUMPDEST PUSH2 0x1753 JUMP JUMPDEST SWAP1 POP SWAP2 SWAP1 POP JUMP JUMPDEST PUSH2 0x233C DUP2 PUSH2 0x2312 JUMP JUMPDEST DUP3 MSTORE POP POP JUMP JUMPDEST PUSH0 PUSH1 0x40 DUP3 ADD SWAP1 POP PUSH2 0x2355 PUSH0 DUP4 ADD DUP6 PUSH2 0x173B JUMP JUMPDEST PUSH2 0x2362 PUSH1 0x20 DUP4 ADD DUP5 PUSH2 0x2333 JUMP JUMPDEST SWAP4 SWAP3 POP POP POP JUMP INVALID PUSH1 0x80 PUSH1 0x40 MSTORE CALLVALUE DUP1 ISZERO PUSH2 0xF JUMPI PUSH0 PUSH0 REVERT JUMPDEST POP PUSH1 0x40 MLOAD DUP1 PUSH1 0x40 ADD PUSH1 0x40 MSTORE DUP1 PUSH1 0x8 DUP2 MSTORE PUSH1 0x20 ADD PUSH32 0x54657374436F696E000000000000000000000000000000000000000000000000 DUP2 MSTORE POP PUSH1 0x40 MLOAD DUP1 PUSH1 0x40 ADD PUSH1 0x40 MSTORE DUP1 PUSH1 0x2 DUP2 MSTORE PUSH1 0x20 ADD PUSH32 0x5443000000000000000000000000000000000000000000000000000000000000 DUP2 MSTORE POP DUP2 PUSH1 0x3 SWAP1 DUP2 PUSH2 0x8B SWAP2 SWAP1 PUSH2 0x598 JUMP JUMPDEST POP DUP1 PUSH1 0x4 SWAP1 DUP2 PUSH2 0x9B SWAP2 SWAP1 PUSH2 0x598 JUMP JUMPDEST POP POP POP PUSH2 0xB8 CALLER PUSH10 0xD3C21BCECCEDA1000000 PUSH2 0xBD PUSH1 0x20 SHL PUSH1 0x20 SHR JUMP JUMPDEST PUSH2 0x77C JUMP JUMPDEST PUSH0 PUSH20 0xFFFFFFFFFFFFFFFFFFFFFFFFFFFFFFFFFFFFFFFF AND DUP3 PUSH20 0xFFFFFFFFFFFFFFFFFFFFFFFFFFFFFFFFFFFFFFFF AND SUB PUSH2 0x12D JUMPI PUSH0 PUSH1 0x40 MLOAD PUSH32 0xEC442F0500000000000000000000000000000000000000000000000000000000 DUP2 MSTORE PUSH1 0x4 ADD PUSH2 0x124 SWAP2 SWAP1 PUSH2 0x6A6 JUMP JUMPDEST PUSH1 0x40 MLOAD DUP1 SWAP2 SUB SWAP1 REVERT JUMPDEST PUSH2 0x13E PUSH0 DUP4 DUP4 PUSH2 0x142 PUSH1 0x20 SHL PUSH1 0x20 SHR JUMP JUMPDEST POP POP JUMP JUMPDEST PUSH0 PUSH20 0xFFFFFFFFFFFFFFFFFFFFFFFFFFFFFFFFFFFFFFFF AND DUP4 PUSH20 0xFFFFFFFFFFFFFFFFFFFFFFFFFFFFFFFFFFFFFFFF AND SUB PUSH2 0x192 JUMPI DUP1 PUSH1 0x2 PUSH0 DUP3 DUP3 SLOAD PUSH2 0x186 SWAP2 SWAP1 PUSH2 0x6EC JUMP JUMPDEST SWAP3 POP POP DUP2 SWAP1 SSTORE POP PUSH2 0x260 JUMP JUMPDEST PUSH0 PUSH0 PUSH0 DUP6 PUSH20 0xFFFFFFFFFFFFFFFFFFFFFFFFFFFFFFFFFFFFFFFF AND PUSH20 0xFFFFFFFFFFFFFFFFFFFFFFFFFFFFFFFFFFFFFFFF AND DUP2 MSTORE PUSH1 0x20 ADD SWAP1 DUP2 MSTORE PUSH1 0x20 ADD PUSH0 KECCAK256 SLOAD SWAP1 POP DUP2 DUP2 LT ISZERO PUSH2 0x21B JUMPI DUP4 DUP2 DUP4 PUSH1 0x40 MLOAD PUSH32 0xE450D38C00000000000000000000000000000000000000000000000000000000 DUP2 MSTORE PUSH1 0x4 ADD PUSH2 0x212 SWAP4 SWAP3 SWAP2 SWAP1 PUSH2 0x72E JUMP JUMPDEST PUSH1 0x40 MLOAD DUP1 SWAP2 SUB SWAP1 REVERT JUMPDEST DUP2 DUP2 SUB PUSH0 PUSH0 DUP7 PUSH20 0xFFFFFFFFFFFFFFFFFFFFFFFFFFFFFFFFFFFFFFFF AND PUSH20 0xFFFFFFFFFFFFFFFFFFFFFFFFFFFFFFFFFFFFFFFF AND DUP2 MSTORE PUSH1 0x20 ADD SWAP1 DUP2 MSTORE PUSH1 0x20 ADD PUSH0 KECCAK256 DUP2 SWAP1 SSTORE POP POP JUMPDEST PUSH0 PUSH20 0xFFFFFFFFFFFFFFFFFFFFFFFFFFFFFFFFFFFFFFFF AND DUP3 PUSH20 0xFFFFFFFFFFFFFFFFFFFFFFFFFFFFFFFFFFFFFFFF AND SUB PUSH2 0x2A7 JUMPI DUP1 PUSH1 0x2 PUSH0 DUP3 DUP3 SLOAD SUB SWAP3 POP POP DUP2 SWAP1 SSTORE POP PUSH2 0x2F1 JUMP JUMPDEST DUP1 PUSH0 PUSH0 DUP5 PUSH20 0xFFFFFFFFFFFFFFFFFFFFFFFFFFFFFFFFFFFFFFFF AND PUSH20 0xFFFFFFFFFFFFFFFFFFFFFFFFFFFFFFFFFFFFFFFF AND DUP2 MSTORE PUSH1 0x20 ADD SWAP1 DUP2 MSTORE PUSH1 0x20 ADD PUSH0 KECCAK256 PUSH0 DUP3 DUP3 SLOAD ADD SWAP3 POP POP DUP2 SWAP1 SSTORE POP JUMPDEST DUP2 PUSH20 0xFFFFFFFFFFFFFFFFFFFFFFFFFFFFFFFFFFFFFFFF AND DUP4 PUSH20 0xFFFFFFFFFFFFFFFFFFFFFFFFFFFFFFFFFFFFFFFF AND PUSH32 0xDDF252AD1BE2C89B69C2B068FC378DAA952BA7F163C4A11628F55A4DF523B3EF DUP4 PUSH1 0x40 MLOAD PUSH2 0x34E SWAP2 SWAP1 PUSH2 0x763 JUMP JUMPDEST PUSH1 0x40 MLOAD DUP1 SWAP2 SUB SWAP1 LOG3 POP POP POP JUMP JUMPDEST PUSH0 DUP2 MLOAD SWAP1 POP SWAP2 SWAP1 POP JUMP JUMPDEST PUSH32 0x4E487B7100000000000000000000000000000000000000000000000000000000 PUSH0 MSTORE PUSH1 0x41 PUSH1 0x4 MSTORE PUSH1 0x24 PUSH0 REVERT JUMPDEST PUSH32 0x4E487B7100000000000000000000000000000000000000000000000000000000 PUSH0 MSTORE PUSH1 0x22 PUSH1 0x4 MSTORE PUSH1 0x24 PUSH0 REVERT JUMPDEST PUSH0 PUSH1 0x2 DUP3 DIV SWAP1 POP PUSH1 0x1 DUP3 AND DUP1 PUSH2 0x3D6 JUMPI PUSH1 0x7F DUP3 AND SWAP2 POP JUMPDEST PUSH1 0x20 DUP3 LT DUP2 SUB PUSH2 0x3E9 JUMPI PUSH2 0x3E8 PUSH2 0x392 JUMP JUMPDEST JUMPDEST POP SWAP2 SWAP1 POP JUMP JUMPDEST PUSH0 DUP2 SWAP1 POP DUP2 PUSH0 MSTORE PUSH1 0x20 PUSH0 KECCAK256 SWAP1 POP SWAP2 SWAP1 POP JUMP JUMPDEST PUSH0 PUSH1 0x20 PUSH1 0x1F DUP4 ADD DIV SWAP1 POP SWAP2 SWAP1 POP JUMP JUMPDEST PUSH0 DUP3 DUP3 SHL SWAP1 POP SWAP3 SWAP2 POP POP JUMP JUMPDEST PUSH0 PUSH1 0x8 DUP4 MUL PUSH2 0x44B PUSH32 0xFFFFFFFFFFFFFFFFFFFFFFFFFFFFFFFFFFFFFFFFFFFFFFFFFFFFFFFFFFFFFFFF DUP3 PUSH2 0x410 JUMP JUMPDEST PUSH2 0x455 DUP7 DUP4 PUSH2 0x410 JUMP JUMPDEST SWAP6 POP DUP1 NOT DUP5 AND SWAP4 POP DUP1 DUP7 AND DUP5 OR SWAP3 POP POP POP SWAP4 SWAP3 POP POP POP JUMP JUMPDEST PUSH0 DUP2 SWAP1 POP SWAP2 SWAP1 POP JUMP JUMPDEST PUSH0 DUP2 SWAP1 POP SWAP2 SWAP1 POP JUMP JUMPDEST PUSH0 PUSH2 0x499 PUSH2 0x494 PUSH2 0x48F DUP5 PUSH2 0x46D JUMP JUMPDEST PUSH2 0x476 JUMP JUMPDEST PUSH2 0x46D JUMP JUMPDEST SWAP1 POP SWAP2 SWAP1 POP JUMP JUMPDEST PUSH0 DUP2 SWAP1 POP SWAP2 SWAP1 POP JUMP JUMPDEST PUSH2 0x4B2 DUP4 PUSH2 0x47F JUMP JUMPDEST PUSH2 0x4C6 PUSH2 0x4BE DUP3 PUSH2 0x4A0 JUMP JUMPDEST DUP5 DUP5 SLOAD PUSH2 0x41C JUMP JUMPDEST DUP3 SSTORE POP POP POP POP JUMP JUMPDEST PUSH0 PUSH0 SWAP1 POP SWAP1 JUMP JUMPDEST PUSH2 0x4DD PUSH2 0x4CE JUMP JUMPDEST PUSH2 0x4E8 DUP2 DUP5 DUP5 PUSH2 0x4A9 JUMP JUMPDEST POP POP POP JUMP JUMPDEST JUMPDEST DUP2 DUP2 LT ISZERO PUSH2 0x50B JUMPI PUSH2 0x500 PUSH0 DUP3 PUSH2 0x4D5 JUMP JUMPDEST PUSH1 0x1 DUP2 ADD SWAP1 POP PUSH2 0x4EE JUMP JUMPDEST POP POP JUMP JUMPDEST PUSH1 0x1F DUP3 GT ISZERO PUSH2 0x550 JUMPI PUSH2 0x521 DUP2 PUSH2 0x3EF JUMP JUMPDEST PUSH2 0x52A DUP5 PUSH2 0x401 JUMP JUMPDEST DUP2 ADD PUSH1 0x20 DUP6 LT ISZERO PUSH2 0x539 JUMPI DUP2 SWAP1 POP JUMPDEST PUSH2 0x54D PUSH2 0x545 DUP6 PUSH2 0x401 JUMP JUMPDEST DUP4 ADD DUP3 PUSH2 0x4ED JUMP JUMPDEST POP POP JUMPDEST POP POP POP JUMP JUMPDEST PUSH0 DUP3 DUP3 SHR SWAP1 POP SWAP3 SWAP2 POP POP JUMP JUMPDEST PUSH0 PUSH2 0x570 PUSH0 NOT DUP5 PUSH1 0x8 MUL PUSH2 0x555 JUMP JUMPDEST NOT DUP1 DUP4 AND SWAP2 POP POP SWAP3 SWAP2 POP POP JUMP JUMPDEST PUSH0 PUSH2 0x588 DUP4 DUP4 PUSH2 0x561 JUMP JUMPDEST SWAP2 POP DUP3 PUSH1 0x2 MUL DUP3 OR SWAP1 POP SWAP3 SWAP2 POP POP JUMP JUMPDEST PUSH2 0x5A1 DUP3 PUSH2 0x35B JUMP JUMPDEST PUSH8 0xFFFFFFFFFFFFFFFF DUP2 GT ISZERO PUSH2 0x5BA JUMPI PUSH2 0x5B9 PUSH2 0x365 JUMP JUMPDEST JUMPDEST PUSH2 0x5C4 DUP3 SLOAD PUSH2 0x3BF JUMP JUMPDEST PUSH2 0x5CF DUP3 DUP3 DUP6 PUSH2 0x50F JUMP JUMPDEST PUSH0 PUSH1 0x20 SWAP1 POP PUSH1 0x1F DUP4 GT PUSH1 0x1 DUP2 EQ PUSH2 0x600 JUMPI PUSH0 DUP5 ISZERO PUSH2 0x5EE JUMPI DUP3 DUP8 ADD MLOAD SWAP1 POP JUMPDEST PUSH2 0x5F8 DUP6 DUP3 PUSH2 0x57D JUMP JUMPDEST DUP7 SSTORE POP PUSH2 0x65F JUMP JUMPDEST PUSH1 0x1F NOT DUP5 AND PUSH2 0x60E DUP7 PUSH2 0x3EF JUMP JUMPDEST PUSH0 JUMPDEST DUP3 DUP2 LT ISZERO PUSH2 0x635 JUMPI DUP5 DUP10 ADD MLOAD DUP3 SSTORE PUSH1 0x1 DUP3 ADD SWAP2 POP PUSH1 0x20 DUP6 ADD SWAP5 POP PUSH1 0x20 DUP2 ADD SWAP1 POP PUSH2 0x610 JUMP JUMPDEST DUP7 DUP4 LT ISZERO PUSH2 0x652 JUMPI DUP5 DUP10 ADD MLOAD PUSH2 0x64E PUSH1 0x1F DUP10 AND DUP3 PUSH2 0x561 JUMP JUMPDEST DUP4 SSTORE POP JUMPDEST PUSH1 0x1 PUSH1 0x2 DUP9 MUL ADD DUP9 SSTORE POP POP POP JUMPDEST POP POP POP POP POP POP JUMP JUMPDEST PUSH0 PUSH20 0xFFFFFFFFFFFFFFFFFFFFFFFFFFFFFFFFFFFFFFFF DUP3 AND SWAP1 POP SWAP2 SWAP1 POP JUMP JUMPDEST PUSH0 PUSH2 0x690 DUP3 PUSH2 0x667 JUMP JUMPDEST SWAP1 POP SWAP2 SWAP1 POP JUMP JUMPDEST PUSH2 0x6A0 DUP2 PUSH2 0x686 JUMP JUMPDEST DUP3 MSTORE POP POP JUMP JUMPDEST PUSH0 PUSH1 0x20 DUP3 ADD SWAP1 POP PUSH2 0x6B9 PUSH0 DUP4 ADD DUP5 PUSH2 0x697 JUMP JUMPDEST SWAP3 SWAP2 POP POP JUMP JUMPDEST PUSH32 0x4E487B7100000000000000000000000000000000000000000000000000000000 PUSH0 MSTORE PUSH1 0x11 PUSH1 0x4 MSTORE PUSH1 0x24 PUSH0 REVERT JUMPDEST PUSH0 PUSH2 0x6F6 DUP3 PUSH2 0x46D JUMP JUMPDEST SWAP2 POP PUSH2 0x701 DUP4 PUSH2 0x46D JUMP JUMPDEST SWAP3 POP DUP3 DUP3 ADD SWAP1 POP DUP1 DUP3 GT ISZERO PUSH2 0x719 JUMPI PUSH2 0x718 PUSH2 0x6BF JUMP JUMPDEST JUMPDEST SWAP3 SWAP2 POP POP JUMP JUMPDEST PUSH2 0x728 DUP2 PUSH2 0x46D JUMP JUMPDEST DUP3 MSTORE POP POP JUMP JUMPDEST PUSH0 PUSH1 0x60 DUP3 ADD SWAP1 POP PUSH2 0x741 PUSH0 DUP4 ADD DUP7 PUSH2 0x697 JUMP JUMPDEST PUSH2 0x74E PUSH1 0x20 DUP4 ADD DUP6 PUSH2 0x71F JUMP JUMPDEST PUSH2 0x75B PUSH1 0x40 DUP4 ADD DUP5 PUSH2 0x71F JUMP JUMPDEST SWAP5 SWAP4 POP POP POP POP JUMP JUMPDEST PUSH0 PUSH1 0x20 DUP3 ADD SWAP1 POP PUSH2 0x776 PUSH0 DUP4 ADD DUP5 PUSH2 0x71F JUMP JUMPDEST SWAP3 SWAP2 POP POP JUMP JUMPDEST PUSH2 0xE96 DUP1 PUSH2 0x789 PUSH0 CODECOPY PUSH0 RETURN INVALID PUSH1 0x80 PUSH1 0x40 MSTORE CALLVALUE DUP1 ISZERO PUSH2 0xF JUMPI PUSH0 PUSH0 REVERT JUMPDEST POP PUSH1 0x4 CALLDATASIZE LT PUSH2 0x9C JUMPI PUSH0 CALLDATALOAD PUSH1 0xE0 SHR DUP1 PUSH4 0x40C10F19 GT PUSH2 0x64 JUMPI DUP1 PUSH4 0x40C10F19 EQ PUSH2 0x15A JUMPI DUP1 PUSH4 0x70A08231 EQ PUSH2 0x176 JUMPI DUP1 PUSH4 0x95D89B41 EQ PUSH2 0x1A6 JUMPI DUP1 PUSH4 0xA9059CBB EQ PUSH2 0x1C4 JUMPI DUP1 PUSH4 0xDD62ED3E EQ PUSH2 0x1F4 JUMPI PUSH2 0x9C JUMP JUMPDEST DUP1 PUSH4 0x6FDDE03 EQ PUSH2 0xA0 JUMPI DUP1 PUSH4 0x95EA7B3 EQ PUSH2 0xBE JUMPI DUP1 PUSH4 0x18160DDD EQ PUSH2 0xEE JUMPI DUP1 PUSH4 0x23B872DD EQ PUSH2 0x10C JUMPI DUP1 PUSH4 0x313CE567 EQ PUSH2 0x13C JUMPI JUMPDEST PUSH0 PUSH0 REVERT JUMPDEST PUSH2 0xA8 PUSH2 0x224 JUMP JUMPDEST PUSH1 0x40 MLOAD PUSH2 0xB5 SWAP2 SWAP1 PUSH2 0xB0F JUMP JUMPDEST PUSH1 0x40 MLOAD DUP1 SWAP2 SUB SWAP1 RETURN JUMPDEST PUSH2 0xD8 PUSH1 0x4 DUP1 CALLDATASIZE SUB DUP2 ADD SWAP1 PUSH2 0xD3 SWAP2 SWAP1 PUSH2 0xBC0 JUMP JUMPDEST PUSH2 0x2B4 JUMP JUMPDEST PUSH1 0x40 MLOAD PUSH2 0xE5 SWAP2 SWAP1 PUSH2 0xC18 JUMP JUMPDEST PUSH1 0x40 MLOAD DUP1 SWAP2 SUB SWAP1 RETURN JUMPDEST PUSH2 0xF6 PUSH2 0x2D6 JUMP JUMPDEST PUSH1 0x40 MLOAD PUSH2 0x103 SWAP2 SWAP1 PUSH2 0xC40 JUMP JUMPDEST PUSH1 0x40 MLOAD DUP1 SWAP2 SUB SWAP1 RETURN JUMPDEST PUSH2 0x126 PUSH1 0x4 DUP1 CALLDATASIZE SUB DUP2 ADD SWAP1 PUSH2 0x121 SWAP2 SWAP1 PUSH2 0xC59 JUMP JUMPDEST PUSH2 0x2DF JUMP JUMPDEST PUSH1 0x40 MLOAD PUSH2 0x133 SWAP2 SWAP1 PUSH2 0xC18 JUMP JUMPDEST PUSH1 0x40 MLOAD DUP1 SWAP2 SUB SWAP1 RETURN JUMPDEST PUSH2 0x144 PUSH2 0x30D JUMP JUMPDEST PUSH1 0x40 MLOAD PUSH2 0x151 SWAP2 SWAP1 PUSH2 0xCC4 JUMP JUMPDEST PUSH1 0x40 MLOAD DUP1 SWAP2 SUB SWAP1 RETURN JUMPDEST PUSH2 0x174 PUSH1 0x4 DUP1 CALLDATASIZE SUB DUP2 ADD SWAP1 PUSH2 0x16F SWAP2 SWAP1 PUSH2 0xBC0 JUMP JUMPDEST PUSH2 0x315 JUMP JUMPDEST STOP JUMPDEST PUSH2 0x190 PUSH1 0x4 DUP1 CALLDATASIZE SUB DUP2 ADD SWAP1 PUSH2 0x18B SWAP2 SWAP1 PUSH2 0xCDD JUMP JUMPDEST PUSH2 0x323 JUMP JUMPDEST PUSH1 0x40 MLOAD PUSH2 0x19D SWAP2 SWAP1 PUSH2 0xC40 JUMP JUMPDEST PUSH1 0x40 MLOAD DUP1 SWAP2 SUB SWAP1 RETURN JUMPDEST PUSH2 0x1AE PUSH2 0x368 JUMP JUMPDEST PUSH1 0x40 MLOAD PUSH2 0x1BB SWAP2 SWAP1 PUSH2 0xB0F JUMP JUMPDEST PUSH1 0x40 MLOAD DUP1 SWAP2 SUB SWAP1 RETURN JUMPDEST PUSH2 0x1DE PUSH1 0x4 DUP1 CALLDATASIZE SUB DUP2 ADD SWAP1 PUSH2 0x1D9 SWAP2 SWAP1 PUSH2 0xBC0 JUMP JUMPDEST PUSH2 0x3F8 JUMP JUMPDEST PUSH1 0x40 MLOAD PUSH2 0x1EB SWAP2 SWAP1 PUSH2 0xC18 JUMP JUMPDEST PUSH1 0x40 MLOAD DUP1 SWAP2 SUB SWAP1 RETURN JUMPDEST PUSH2 0x20E PUSH1 0x4 DUP1 CALLDATASIZE SUB DUP2 ADD SWAP1 PUSH2 0x209 SWAP2 SWAP1 PUSH2 0xD08 JUMP JUMPDEST PUSH2 0x41A JUMP JUMPDEST PUSH1 0x40 MLOAD PUSH2 0x21B SWAP2 SWAP1 PUSH2 0xC40 JUMP JUMPDEST PUSH1 0x40 MLOAD DUP1 SWAP2 SUB SWAP1 RETURN JUMPDEST PUSH1 0x60 PUSH1 0x3 DUP1 SLOAD PUSH2 0x233 SWAP1 PUSH2 0xD73 JUMP JUMPDEST DUP1 PUSH1 0x1F ADD PUSH1 0x20 DUP1 SWAP2 DIV MUL PUSH1 0x20 ADD PUSH1 0x40 MLOAD SWAP1 DUP2 ADD PUSH1 0x40 MSTORE DUP1 SWAP3 SWAP2 SWAP1 DUP2 DUP2 MSTORE PUSH1 0x20 ADD DUP3 DUP1 SLOAD PUSH2 0x25F SWAP1 PUSH2 0xD73 JUMP JUMPDEST DUP1 ISZERO PUSH2 0x2AA JUMPI DUP1 PUSH1 0x1F LT PUSH2 0x281 JUMPI PUSH2 0x100 DUP1 DUP4 SLOAD DIV MUL DUP4 MSTORE SWAP2 PUSH1 0x20 ADD SWAP2 PUSH2 0x2AA JUMP JUMPDEST DUP3 ADD SWAP2 SWAP1 PUSH0 MSTORE PUSH1 0x20 PUSH0 KECCAK256 SWAP1 JUMPDEST DUP2 SLOAD DUP2 MSTORE SWAP1 PUSH1 0x1 ADD SWAP1 PUSH1 0x20 ADD DUP1 DUP4 GT PUSH2 0x28D JUMPI DUP3 SWAP1 SUB PUSH1 0x1F AND DUP3 ADD SWAP2 JUMPDEST POP POP POP POP POP SWAP1 POP SWAP1 JUMP JUMPDEST PUSH0 PUSH0 PUSH2 0x2BE PUSH2 0x49C JUMP JUMPDEST SWAP1 POP PUSH2 0x2CB DUP2 DUP6 DUP6 PUSH2 0x4A3 JUMP JUMPDEST PUSH1 0x1 SWAP2 POP POP SWAP3 SWAP2 POP POP JUMP JUMPDEST PUSH0 PUSH1 0x2 SLOAD SWAP1 POP SWAP1 JUMP JUMPDEST PUSH0 PUSH0 PUSH2 0x2E9 PUSH2 0x49C JUMP JUMPDEST SWAP1 POP PUSH2 0x2F6 DUP6 DUP3 DUP6 PUSH2 0x4B5 JUMP JUMPDEST PUSH2 0x301 DUP6 DUP6 DUP6 PUSH2 0x548 JUMP JUMPDEST PUSH1 0x1 SWAP2 POP POP SWAP4 SWAP3 POP POP POP JUMP JUMPDEST PUSH0 PUSH1 0x12 SWAP1 POP SWAP1 JUMP JUMPDEST PUSH2 0x31F DUP3 DUP3 PUSH2 0x638 JUMP JUMPDEST POP POP JUMP JUMPDEST PUSH0 PUSH0 PUSH0 DUP4 PUSH20 0xFFFFFFFFFFFFFFFFFFFFFFFFFFFFFFFFFFFFFFFF AND PUSH20 0xFFFFFFFFFFFFFFFFFFFFFFFFFFFFFFFFFFFFFFFF AND DUP2 MSTORE PUSH1 0x20 ADD SWAP1 DUP2 MSTORE PUSH1 0x20 ADD PUSH0 KECCAK256 SLOAD SWAP1 POP SWAP2 SWAP1 POP JUMP JUMPDEST PUSH1 0x60 PUSH1 0x4 DUP1 SLOAD PUSH2 0x377 SWAP1 PUSH2 0xD73 JUMP JUMPDEST DUP1 PUSH1 0x1F ADD PUSH1 0x20 DUP1 SWAP2 DIV MUL PUSH1 0x20 ADD PUSH1 0x40 MLOAD SWAP1 DUP2 ADD PUSH1 0x40 MSTORE DUP1 SWAP3 SWAP2 SWAP1 DUP2 DUP2 MSTORE PUSH1 0x20 ADD DUP3 DUP1 SLOAD PUSH2 0x3A3 SWAP1 PUSH2 0xD73 JUMP JUMPDEST DUP1 ISZERO PUSH2 0x3EE JUMPI DUP1 PUSH1 0x1F LT PUSH2 0x3C5 JUMPI PUSH2 0x100 DUP1 DUP4 SLOAD DIV MUL DUP4 MSTORE SWAP2 PUSH1 0x20 ADD SWAP2 PUSH2 0x3EE JUMP JUMPDEST DUP3 ADD SWAP2 SWAP1 PUSH0 MSTORE PUSH1 0x20 PUSH0 KECCAK256 SWAP1 JUMPDEST DUP2 SLOAD DUP2 MSTORE SWAP1 PUSH1 0x1 ADD SWAP1 PUSH1 0x20 ADD DUP1 DUP4 GT PUSH2 0x3D1 JUMPI DUP3 SWAP1 SUB PUSH1 0x1F AND DUP3 ADD SWAP2 JUMPDEST POP POP POP POP POP SWAP1 POP SWAP1 JUMP JUMPDEST PUSH0 PUSH0 PUSH2 0x402 PUSH2 0x49C JUMP JUMPDEST SWAP1 POP PUSH2 0x40F DUP2 DUP6 DUP6 PUSH2 0x548 JUMP JUMPDEST PUSH1 0x1 SWAP2 POP POP SWAP3 SWAP2 POP POP JUMP JUMPDEST PUSH0 PUSH1 0x1 PUSH0 DUP5 PUSH20 0xFFFFFFFFFFFFFFFFFFFFFFFFFFFFFFFFFFFFFFFF AND PUSH20 0xFFFFFFFFFFFFFFFFFFFFFFFFFFFFFFFFFFFFFFFF AND DUP2 MSTORE PUSH1 0x20 ADD SWAP1 DUP2 MSTORE PUSH1 0x20 ADD PUSH0 KECCAK256 PUSH0 DUP4 PUSH20 0xFFFFFFFFFFFFFFFFFFFFFFFFFFFFFFFFFFFFFFFF AND PUSH20 0xFFFFFFFFFFFFFFFFFFFFFFFFFFFFFFFFFFFFFFFF AND DUP2 MSTORE PUSH1 0x20 ADD SWAP1 DUP2 MSTORE PUSH1 0x20 ADD PUSH0 KECCAK256 SLOAD SWAP1 POP SWAP3 SWAP2 POP POP JUMP JUMPDEST PUSH0 CALLER SWAP1 POP SWAP1 JUMP JUMPDEST PUSH2 0x4B0 DUP4 DUP4 DUP4 PUSH1 0x1 PUSH2 0x6B7 JUMP JUMPDEST POP POP POP JUMP JUMPDEST PUSH0 PUSH2 0x4C0 DUP5 DUP5 PUSH2 0x41A JUMP JUMPDEST SWAP1 POP PUSH32 0xFFFFFFFFFFFFFFFFFFFFFFFFFFFFFFFFFFFFFFFFFFFFFFFFFFFFFFFFFFFFFFFF DUP2 LT ISZERO PUSH2 0x542 JUMPI DUP2 DUP2 LT ISZERO PUSH2 0x533 JUMPI DUP3 DUP2 DUP4 PUSH1 0x40 MLOAD PUSH32 0xFB8F41B200000000000000000000000000000000000000000000000000000000 DUP2 MSTORE PUSH1 0x4 ADD PUSH2 0x52A SWAP4 SWAP3 SWAP2 SWAP1 PUSH2 0xDB2 JUMP JUMPDEST PUSH1 0x40 MLOAD DUP1 SWAP2 SUB SWAP1 REVERT JUMPDEST PUSH2 0x541 DUP5 DUP5 DUP5 DUP5 SUB PUSH0 PUSH2 0x6B7 JUMP JUMPDEST JUMPDEST POP POP POP POP JUMP JUMPDEST PUSH0 PUSH20 0xFFFFFFFFFFFFFFFFFFFFFFFFFFFFFFFFFFFFFFFF AND DUP4 PUSH20 0xFFFFFFFFFFFFFFFFFFFFFFFFFFFFFFFFFFFFFFFF AND SUB PUSH2 0x5B8 JUMPI PUSH0 PUSH1 0x40 MLOAD PUSH32 0x96C6FD1E00000000000000000000000000000000000000000000000000000000 DUP2 MSTORE PUSH1 0x4 ADD PUSH2 0x5AF SWAP2 SWAP1 PUSH2 0xDE7 JUMP JUMPDEST PUSH1 0x40 MLOAD DUP1 SWAP2 SUB SWAP1 REVERT JUMPDEST PUSH0 PUSH20 0xFFFFFFFFFFFFFFFFFFFFFFFFFFFFFFFFFFFFFFFF AND DUP3 PUSH20 0xFFFFFFFFFFFFFFFFFFFFFFFFFFFFFFFFFFFFFFFF AND SUB PUSH2 0x628 JUMPI PUSH0 PUSH1 0x40 MLOAD PUSH32 0xEC442F0500000000000000000000000000000000000000000000000000000000 DUP2 MSTORE PUSH1 0x4 ADD PUSH2 0x61F SWAP2 SWAP1 PUSH2 0xDE7 JUMP JUMPDEST PUSH1 0x40 MLOAD DUP1 SWAP2 SUB SWAP1 REVERT JUMPDEST PUSH2 0x633 DUP4 DUP4 DUP4 PUSH2 0x886 JUMP JUMPDEST POP POP POP JUMP JUMPDEST PUSH0 PUSH20 0xFFFFFFFFFFFFFFFFFFFFFFFFFFFFFFFFFFFFFFFF AND DUP3 PUSH20 0xFFFFFFFFFFFFFFFFFFFFFFFFFFFFFFFFFFFFFFFF AND SUB PUSH2 0x6A8 JUMPI PUSH0 PUSH1 0x40 MLOAD PUSH32 0xEC442F0500000000000000000000000000000000000000000000000000000000 DUP2 MSTORE PUSH1 0x4 ADD PUSH2 0x69F SWAP2 SWAP1 PUSH2 0xDE7 JUMP JUMPDEST PUSH1 0x40 MLOAD DUP1 SWAP2 SUB SWAP1 REVERT JUMPDEST PUSH2 0x6B3 PUSH0 DUP4 DUP4 PUSH2 0x886 JUMP JUMPDEST POP POP JUMP JUMPDEST PUSH0 PUSH20 0xFFFFFFFFFFFFFFFFFFFFFFFFFFFFFFFFFFFFFFFF AND DUP5 PUSH20 0xFFFFFFFFFFFFFFFFFFFFFFFFFFFFFFFFFFFFFFFF AND SUB PUSH2 0x727 JUMPI PUSH0 PUSH1 0x40 MLOAD PUSH32 0xE602DF0500000000000000000000000000000000000000000000000000000000 DUP2 MSTORE PUSH1 0x4 ADD PUSH2 0x71E SWAP2 SWAP1 PUSH2 0xDE7 JUMP JUMPDEST PUSH1 0x40 MLOAD DUP1 SWAP2 SUB SWAP1 REVERT JUMPDEST PUSH0 PUSH20 0xFFFFFFFFFFFFFFFFFFFFFFFFFFFFFFFFFFFFFFFF AND DUP4 PUSH20 0xFFFFFFFFFFFFFFFFFFFFFFFFFFFFFFFFFFFFFFFF AND SUB PUSH2 0x797 JUMPI PUSH0 PUSH1 0x40 MLOAD PUSH32 0x94280D6200000000000000000000000000000000000000000000000000000000 DUP2 MSTORE PUSH1 0x4 ADD PUSH2 0x78E SWAP2 SWAP1 PUSH2 0xDE7 JUMP JUMPDEST PUSH1 0x40 MLOAD DUP1 SWAP2 SUB SWAP1 REVERT JUMPDEST DUP2 PUSH1 0x1 PUSH0 DUP7 PUSH20 0xFFFFFFFFFFFFFFFFFFFFFFFFFFFFFFFFFFFFFFFF AND PUSH20 0xFFFFFFFFFFFFFFFFFFFFFFFFFFFFFFFFFFFFFFFF AND DUP2 MSTORE PUSH1 0x20 ADD SWAP1 DUP2 MSTORE PUSH1 0x20 ADD PUSH0 KECCAK256 PUSH0 DUP6 PUSH20 0xFFFFFFFFFFFFFFFFFFFFFFFFFFFFFFFFFFFFFFFF AND PUSH20 0xFFFFFFFFFFFFFFFFFFFFFFFFFFFFFFFFFFFFFFFF AND DUP2 MSTORE PUSH1 0x20 ADD SWAP1 DUP2 MSTORE PUSH1 0x20 ADD PUSH0 KECCAK256 DUP2 SWAP1 SSTORE POP DUP1 ISZERO PUSH2 0x880 JUMPI DUP3 PUSH20 0xFFFFFFFFFFFFFFFFFFFFFFFFFFFFFFFFFFFFFFFF AND DUP5 PUSH20 0xFFFFFFFFFFFFFFFFFFFFFFFFFFFFFFFFFFFFFFFF AND PUSH32 0x8C5BE1E5EBEC7D5BD14F71427D1E84F3DD0314C0F7B2291E5B200AC8C7C3B925 DUP5 PUSH1 0x40 MLOAD PUSH2 0x877 SWAP2 SWAP1 PUSH2 0xC40 JUMP JUMPDEST PUSH1 0x40 MLOAD DUP1 SWAP2 SUB SWAP1 LOG3 JUMPDEST POP POP POP POP JUMP JUMPDEST PUSH0 PUSH20 0xFFFFFFFFFFFFFFFFFFFFFFFFFFFFFFFFFFFFFFFF AND DUP4 PUSH20 0xFFFFFFFFFFFFFFFFFFFFFFFFFFFFFFFFFFFFFFFF AND SUB PUSH2 0x8D6 JUMPI DUP1 PUSH1 0x2 PUSH0 DUP3 DUP3 SLOAD PUSH2 0x8CA SWAP2 SWAP1 PUSH2 0xE2D JUMP JUMPDEST SWAP3 POP POP DUP2 SWAP1 SSTORE POP PUSH2 0x9A4 JUMP JUMPDEST PUSH0 PUSH0 PUSH0 DUP6 PUSH20 0xFFFFFFFFFFFFFFFFFFFFFFFFFFFFFFFFFFFFFFFF AND PUSH20 0xFFFFFFFFFFFFFFFFFFFFFFFFFFFFFFFFFFFFFFFF AND DUP2 MSTORE PUSH1 0x20 ADD SWAP1 DUP2 MSTORE PUSH1 0x20 ADD PUSH0 KECCAK256 SLOAD SWAP1 POP DUP2 DUP2 LT ISZERO PUSH2 0x95F JUMPI DUP4 DUP2 DUP4 PUSH1 0x40 MLOAD PUSH32 0xE450D38C00000000000000000000000000000000000000000000000000000000 DUP2 MSTORE PUSH1 0x4 ADD PUSH2 0x956 SWAP4 SWAP3 SWAP2 SWAP1 PUSH2 0xDB2 JUMP JUMPDEST PUSH1 0x40 MLOAD DUP1 SWAP2 SUB SWAP1 REVERT JUMPDEST DUP2 DUP2 SUB PUSH0 PUSH0 DUP7 PUSH20 0xFFFFFFFFFFFFFFFFFFFFFFFFFFFFFFFFFFFFFFFF AND PUSH20 0xFFFFFFFFFFFFFFFFFFFFFFFFFFFFFFFFFFFFFFFF AND DUP2 MSTORE PUSH1 0x20 ADD SWAP1 DUP2 MSTORE PUSH1 0x20 ADD PUSH0 KECCAK256 DUP2 SWAP1 SSTORE POP POP JUMPDEST PUSH0 PUSH20 0xFFFFFFFFFFFFFFFFFFFFFFFFFFFFFFFFFFFFFFFF AND DUP3 PUSH20 0xFFFFFFFFFFFFFFFFFFFFFFFFFFFFFFFFFFFFFFFF AND SUB PUSH2 0x9EB JUMPI DUP1 PUSH1 0x2 PUSH0 DUP3 DUP3 SLOAD SUB SWAP3 POP POP DUP2 SWAP1 SSTORE POP PUSH2 0xA35 JUMP JUMPDEST DUP1 PUSH0 PUSH0 DUP5 PUSH20 0xFFFFFFFFFFFFFFFFFFFFFFFFFFFFFFFFFFFFFFFF AND PUSH20 0xFFFFFFFFFFFFFFFFFFFFFFFFFFFFFFFFFFFFFFFF AND DUP2 MSTORE PUSH1 0x20 ADD SWAP1 DUP2 MSTORE PUSH1 0x20 ADD PUSH0 KECCAK256 PUSH0 DUP3 DUP3 SLOAD ADD SWAP3 POP POP DUP2 SWAP1 SSTORE POP JUMPDEST DUP2 PUSH20 0xFFFFFFFFFFFFFFFFFFFFFFFFFFFFFFFFFFFFFFFF AND DUP4 PUSH20 0xFFFFFFFFFFFFFFFFFFFFFFFFFFFFFFFFFFFFFFFF AND PUSH32 0xDDF252AD1BE2C89B69C2B068FC378DAA952BA7F163C4A11628F55A4DF523B3EF DUP4 PUSH1 0x40 MLOAD PUSH2 0xA92 SWAP2 SWAP1 PUSH2 0xC40 JUMP JUMPDEST PUSH1 0x40 MLOAD DUP1 SWAP2 SUB SWAP1 LOG3 POP POP POP JUMP JUMPDEST PUSH0 DUP2 MLOAD SWAP1 POP SWAP2 SWAP1 POP JUMP JUMPDEST PUSH0 DUP3 DUP3 MSTORE PUSH1 0x20 DUP3 ADD SWAP1 POP SWAP3 SWAP2 POP POP JUMP JUMPDEST DUP3 DUP2 DUP4 MCOPY PUSH0 DUP4 DUP4 ADD MSTORE POP POP POP JUMP JUMPDEST PUSH0 PUSH1 0x1F NOT PUSH1 0x1F DUP4 ADD AND SWAP1 POP SWAP2 SWAP1 POP JUMP JUMPDEST PUSH0 PUSH2 0xAE1 DUP3 PUSH2 0xA9F JUMP JUMPDEST PUSH2 0xAEB DUP2 DUP6 PUSH2 0xAA9 JUMP JUMPDEST SWAP4 POP PUSH2 0xAFB DUP2 DUP6 PUSH1 0x20 DUP7 ADD PUSH2 0xAB9 JUMP JUMPDEST PUSH2 0xB04 DUP2 PUSH2 0xAC7 JUMP JUMPDEST DUP5 ADD SWAP2 POP POP SWAP3 SWAP2 POP POP JUMP JUMPDEST PUSH0 PUSH1 0x20 DUP3 ADD SWAP1 POP DUP2 DUP2 SUB PUSH0 DUP4 ADD MSTORE PUSH2 0xB27 DUP2 DUP5 PUSH2 0xAD7 JUMP JUMPDEST SWAP1 POP SWAP3 SWAP2 POP POP JUMP JUMPDEST PUSH0 PUSH0 REVERT JUMPDEST PUSH0 PUSH20 0xFFFFFFFFFFFFFFFFFFFFFFFFFFFFFFFFFFFFFFFF DUP3 AND SWAP1 POP SWAP2 SWAP1 POP JUMP JUMPDEST PUSH0 PUSH2 0xB5C DUP3 PUSH2 0xB33 JUMP JUMPDEST SWAP1 POP SWAP2 SWAP1 POP JUMP JUMPDEST PUSH2 0xB6C DUP2 PUSH2 0xB52 JUMP JUMPDEST DUP2 EQ PUSH2 0xB76 JUMPI PUSH0 PUSH0 REVERT JUMPDEST POP JUMP JUMPDEST PUSH0 DUP2 CALLDATALOAD SWAP1 POP PUSH2 0xB87 DUP2 PUSH2 0xB63 JUMP JUMPDEST SWAP3 SWAP2 POP POP JUMP JUMPDEST PUSH0 DUP2 SWAP1 POP SWAP2 SWAP1 POP JUMP JUMPDEST PUSH2 0xB9F DUP2 PUSH2 0xB8D JUMP JUMPDEST DUP2 EQ PUSH2 0xBA9 JUMPI PUSH0 PUSH0 REVERT JUMPDEST POP JUMP JUMPDEST PUSH0 DUP2 CALLDATALOAD SWAP1 POP PUSH2 0xBBA DUP2 PUSH2 0xB96 JUMP JUMPDEST SWAP3 SWAP2 POP POP JUMP JUMPDEST PUSH0 PUSH0 PUSH1 0x40 DUP4 DUP6 SUB SLT ISZERO PUSH2 0xBD6 JUMPI PUSH2 0xBD5 PUSH2 0xB2F JUMP JUMPDEST JUMPDEST PUSH0 PUSH2 0xBE3 DUP6 DUP3 DUP7 ADD PUSH2 0xB79 JUMP JUMPDEST SWAP3 POP POP PUSH1 0x20 PUSH2 0xBF4 DUP6 DUP3 DUP7 ADD PUSH2 0xBAC JUMP JUMPDEST SWAP2 POP POP SWAP3 POP SWAP3 SWAP1 POP JUMP JUMPDEST PUSH0 DUP2 ISZERO ISZERO SWAP1 POP SWAP2 SWAP1 POP JUMP JUMPDEST PUSH2 0xC12 DUP2 PUSH2 0xBFE JUMP JUMPDEST DUP3 MSTORE POP POP JUMP JUMPDEST PUSH0 PUSH1 0x20 DUP3 ADD SWAP1 POP PUSH2 0xC2B PUSH0 DUP4 ADD DUP5 PUSH2 0xC09 JUMP JUMPDEST SWAP3 SWAP2 POP POP JUMP JUMPDEST PUSH2 0xC3A DUP2 PUSH2 0xB8D JUMP JUMPDEST DUP3 MSTORE POP POP JUMP JUMPDEST PUSH0 PUSH1 0x20 DUP3 ADD SWAP1 POP PUSH2 0xC53 PUSH0 DUP4 ADD DUP5 PUSH2 0xC31 JUMP JUMPDEST SWAP3 SWAP2 POP POP JUMP JUMPDEST PUSH0 PUSH0 PUSH0 PUSH1 0x60 DUP5 DUP7 SUB SLT ISZERO PUSH2 0xC70 JUMPI PUSH2 0xC6F PUSH2 0xB2F JUMP JUMPDEST JUMPDEST PUSH0 PUSH2 0xC7D DUP7 DUP3 DUP8 ADD PUSH2 0xB79 JUMP JUMPDEST SWAP4 POP POP PUSH1 0x20 PUSH2 0xC8E DUP7 DUP3 DUP8 ADD PUSH2 0xB79 JUMP JUMPDEST SWAP3 POP POP PUSH1 0x40 PUSH2 0xC9F DUP7 DUP3 DUP8 ADD PUSH2 0xBAC JUMP JUMPDEST SWAP2 POP POP SWAP3 POP SWAP3 POP SWAP3 JUMP JUMPDEST PUSH0 PUSH1 0xFF DUP3 AND SWAP1 POP SWAP2 SWAP1 POP JUMP JUMPDEST PUSH2 0xCBE DUP2 PUSH2 0xCA9 JUMP JUMPDEST DUP3 MSTORE POP POP JUMP JUMPDEST PUSH0 PUSH1 0x20 DUP3 ADD SWAP1 POP PUSH2 0xCD7 PUSH0 DUP4 ADD DUP5 PUSH2 0xCB5 JUMP JUMPDEST SWAP3 SWAP2 POP POP JUMP JUMPDEST PUSH0 PUSH1 0x20 DUP3 DUP5 SUB SLT ISZERO PUSH2 0xCF2 JUMPI PUSH2 0xCF1 PUSH2 0xB2F JUMP JUMPDEST JUMPDEST PUSH0 PUSH2 0xCFF DUP5 DUP3 DUP6 ADD PUSH2 0xB79 JUMP JUMPDEST SWAP2 POP POP SWAP3 SWAP2 POP POP JUMP JUMPDEST PUSH0 PUSH0 PUSH1 0x40 DUP4 DUP6 SUB SLT ISZERO PUSH2 0xD1E JUMPI PUSH2 0xD1D PUSH2 0xB2F JUMP JUMPDEST JUMPDEST PUSH0 PUSH2 0xD2B DUP6 DUP3 DUP7 ADD PUSH2 0xB79 JUMP JUMPDEST SWAP3 POP POP PUSH1 0x20 PUSH2 0xD3C DUP6 DUP3 DUP7 ADD PUSH2 0xB79 JUMP JUMPDEST SWAP2 POP POP SWAP3 POP SWAP3 SWAP1 POP JUMP JUMPDEST PUSH32 0x4E487B7100000000000000000000000000000000000000000000000000000000 PUSH0 MSTORE PUSH1 0x22 PUSH1 0x4 MSTORE PUSH1 0x24 PUSH0 REVERT JUMPDEST PUSH0 PUSH1 0x2 DUP3 DIV SWAP1 POP PUSH1 0x1 DUP3 AND DUP1 PUSH2 0xD8A JUMPI PUSH1 0x7F DUP3 AND SWAP2 POP JUMPDEST PUSH1 0x20 DUP3 LT DUP2 SUB PUSH2 0xD9D JUMPI PUSH2 0xD9C PUSH2 0xD46 JUMP JUMPDEST JUMPDEST POP SWAP2 SWAP1 POP JUMP JUMPDEST PUSH2 0xDAC DUP2 PUSH2 0xB52 JUMP JUMPDEST DUP3 MSTORE POP POP JUMP JUMPDEST PUSH0 PUSH1 0x60 DUP3 ADD SWAP1 POP PUSH2 0xDC5 PUSH0 DUP4 ADD DUP7 PUSH2 0xDA3 JUMP JUMPDEST PUSH2 0xDD2 PUSH1 0x20 DUP4 ADD DUP6 PUSH2 0xC31 JUMP JUMPDEST PUSH2 0xDDF PUSH1 0x40 DUP4 ADD DUP5 PUSH2 0xC31 JUMP JUMPDEST SWAP5 SWAP4 POP POP POP POP JUMP JUMPDEST PUSH0 PUSH1 0x20 DUP3 ADD SWAP1 POP PUSH2 0xDFA PUSH0 DUP4 ADD DUP5 PUSH2 0xDA3 JUMP JUMPDEST SWAP3 SWAP2 POP POP JUMP JUMPDEST PUSH32 0x4E487B7100000000000000000000000000000000000000000000000000000000 PUSH0 MSTORE PUSH1 0x11 PUSH1 0x4 MSTORE PUSH1 0x24 PUSH0 REVERT JUMPDEST PUSH0 PUSH2 0xE37 DUP3 PUSH2 0xB8D JUMP JUMPDEST SWAP2 POP PUSH2 0xE42 DUP4 PUSH2 0xB8D JUMP JUMPDEST SWAP3 POP DUP3 DUP3 ADD SWAP1 POP DUP1 DUP3 GT ISZERO PUSH2 0xE5A JUMPI PUSH2 0xE59 PUSH2 0xE00 JUMP JUMPDEST JUMPDEST SWAP3 SWAP2 POP POP JUMP INVALID LOG2 PUSH5 0x6970667358 0x22 SLT KECCAK256 RETF PUSH27 0xA438BFBA4BDAE60BF367C8AB61AA18DB4C35AEA894AB34B78391B0 0xB2 0xD DUP9 PUSH5 0x736F6C6343 STOP ADDMOD 0x1E STOP CALLER PUSH1 0x80 PUSH1 0x40 MSTORE CALLVALUE DUP1 ISZERO PUSH1 0xE JUMPI PUSH0 PUSH0 REVERT JUMPDEST POP CALLER PUSH0 PUSH0 PUSH2 0x100 EXP DUP2 SLOAD DUP2 PUSH20 0xFFFFFFFFFFFFFFFFFFFFFFFFFFFFFFFFFFFFFFFF MUL NOT AND SWAP1 DUP4 PUSH20 0xFFFFFFFFFFFFFFFFFFFFFFFFFFFFFFFFFFFFFFFF AND MUL OR SWAP1 SSTORE POP PUSH2 0x4A6 DUP1 PUSH2 0x5B PUSH0 CODECOPY PUSH0 RETURN INVALID PUSH1 0x80 PUSH1 0x40 MSTORE CALLVALUE DUP1 ISZERO PUSH2 0xF JUMPI PUSH0 PUSH0 REVERT JUMPDEST POP PUSH1 0x4 CALLDATASIZE LT PUSH2 0x55 JUMPI PUSH0 CALLDATALOAD PUSH1 0xE0 SHR DUP1 PUSH4 0x59F3EF05 EQ PUSH2 0x59 JUMPI DUP1 PUSH4 0x8DA5CB5B EQ PUSH2 0x75 JUMPI DUP1 PUSH4 0xB6A5D7DE EQ PUSH2 0x93 JUMPI DUP1 PUSH4 0xDA3E3397 EQ PUSH2 0xAF JUMPI DUP1 PUSH4 0xDC40BCBB EQ PUSH2 0xCB JUMPI JUMPDEST PUSH0 PUSH0 REVERT JUMPDEST PUSH2 0x73 PUSH1 0x4 DUP1 CALLDATASIZE SUB DUP2 ADD SWAP1 PUSH2 0x6E SWAP2 SWAP1 PUSH2 0x304 JUMP JUMPDEST PUSH2 0xE7 JUMP JUMPDEST STOP JUMPDEST PUSH2 0x7D PUSH2 0x145 JUMP JUMPDEST PUSH1 0x40 MLOAD PUSH2 0x8A SWAP2 SWAP1 PUSH2 0x33E JUMP JUMPDEST PUSH1 0x40 MLOAD DUP1 SWAP2 SUB SWAP1 RETURN JUMPDEST PUSH2 0xAD PUSH1 0x4 DUP1 CALLDATASIZE SUB DUP2 ADD SWAP1 PUSH2 0xA8 SWAP2 SWAP1 PUSH2 0x304 JUMP JUMPDEST PUSH2 0x169 JUMP JUMPDEST STOP JUMPDEST PUSH2 0xC9 PUSH1 0x4 DUP1 CALLDATASIZE SUB DUP2 ADD SWAP1 PUSH2 0xC4 SWAP2 SWAP1 PUSH2 0x38A JUMP JUMPDEST PUSH2 0x1C7 JUMP JUMPDEST STOP JUMPDEST PUSH2 0xE5 PUSH1 0x4 DUP1 CALLDATASIZE SUB DUP2 ADD SWAP1 PUSH2 0xE0 SWAP2 SWAP1 PUSH2 0x304 JUMP JUMPDEST PUSH2 0x248 JUMP JUMPDEST STOP JUMPDEST DUP1 PUSH20 0xFFFFFFFFFFFFFFFFFFFFFFFFFFFFFFFFFFFFFFFF AND PUSH4 0x5C274B86 PUSH1 0x40 MLOAD DUP2 PUSH4 0xFFFFFFFF AND PUSH1 0xE0 SHL DUP2 MSTORE PUSH1 0x4 ADD PUSH0 PUSH1 0x40 MLOAD DUP1 DUP4 SUB DUP2 PUSH0 DUP8 DUP1 EXTCODESIZE ISZERO DUP1 ISZERO PUSH2 0x12C JUMPI PUSH0 PUSH0 REVERT JUMPDEST POP GAS CALL ISZERO DUP1 ISZERO PUSH2 0x13E JUMPI RETURNDATASIZE PUSH0 PUSH0 RETURNDATACOPY RETURNDATASIZE PUSH0 REVERT JUMPDEST POP POP POP POP POP JUMP JUMPDEST PUSH0 PUSH0 SWAP1 SLOAD SWAP1 PUSH2 0x100 EXP SWAP1 DIV PUSH20 0xFFFFFFFFFFFFFFFFFFFFFFFFFFFFFFFFFFFFFFFF AND DUP2 JUMP JUMPDEST DUP1 PUSH20 0xFFFFFFFFFFFFFFFFFFFFFFFFFFFFFFFFFFFFFFFF AND PUSH4 0x9F1F9082 PUSH1 0x40 MLOAD DUP2 PUSH4 0xFFFFFFFF AND PUSH1 0xE0 SHL DUP2 MSTORE PUSH1 0x4 ADD PUSH0 PUSH1 0x40 MLOAD DUP1 DUP4 SUB DUP2 PUSH0 DUP8 DUP1 EXTCODESIZE ISZERO DUP1 ISZERO PUSH2 0x1AE JUMPI PUSH0 PUSH0 REVERT JUMPDEST POP GAS CALL ISZERO DUP1 ISZERO PUSH2 0x1C0 JUMPI RETURNDATASIZE PUSH0 PUSH0 RETURNDATACOPY RETURNDATASIZE PUSH0 REVERT JUMPDEST POP POP POP POP POP JUMP JUMPDEST DUP3 PUSH20 0xFFFFFFFFFFFFFFFFFFFFFFFFFFFFFFFFFFFFFFFF AND PUSH4 0x95EA7B3 DUP4 DUP4 PUSH1 0x40 MLOAD DUP4 PUSH4 0xFFFFFFFF AND PUSH1 0xE0 SHL DUP2 MSTORE PUSH1 0x4 ADD PUSH2 0x202 SWAP3 SWAP2 SWAP1 PUSH2 0x3E9 JUMP JUMPDEST PUSH1 0x20 PUSH1 0x40 MLOAD DUP1 DUP4 SUB DUP2 PUSH0 DUP8 GAS CALL ISZERO DUP1 ISZERO PUSH2 0x21E JUMPI RETURNDATASIZE PUSH0 PUSH0 RETURNDATACOPY RETURNDATASIZE PUSH0 REVERT JUMPDEST POP POP POP POP PUSH1 0x40 MLOAD RETURNDATASIZE PUSH1 0x1F NOT PUSH1 0x1F DUP3 ADD AND DUP3 ADD DUP1 PUSH1 0x40 MSTORE POP DUP2 ADD SWAP1 PUSH2 0x242 SWAP2 SWAP1 PUSH2 0x445 JUMP JUMPDEST POP POP POP POP JUMP JUMPDEST DUP1 PUSH20 0xFFFFFFFFFFFFFFFFFFFFFFFFFFFFFFFFFFFFFFFF AND PUSH4 0xA709C4FE PUSH1 0x40 MLOAD DUP2 PUSH4 0xFFFFFFFF AND PUSH1 0xE0 SHL DUP2 MSTORE PUSH1 0x4 ADD PUSH0 PUSH1 0x40 MLOAD DUP1 DUP4 SUB DUP2 PUSH0 DUP8 DUP1 EXTCODESIZE ISZERO DUP1 ISZERO PUSH2 0x28D JUMPI PUSH0 PUSH0 REVERT JUMPDEST POP GAS CALL ISZERO DUP1 ISZERO PUSH2 0x29F JUMPI RETURNDATASIZE PUSH0 PUSH0 RETURNDATACOPY RETURNDATASIZE PUSH0 REVERT JUMPDEST POP POP POP POP POP JUMP JUMPDEST PUSH0 PUSH0 REVERT JUMPDEST PUSH0 PUSH20 0xFFFFFFFFFFFFFFFFFFFFFFFFFFFFFFFFFFFFFFFF DUP3 AND SWAP1 POP SWAP2 SWAP1 POP JUMP JUMPDEST PUSH0 PUSH2 0x2D3 DUP3 PUSH2 0x2AA JUMP JUMPDEST SWAP1 POP SWAP2 SWAP1 POP JUMP JUMPDEST PUSH2 0x2E3 DUP2 PUSH2 0x2C9 JUMP JUMPDEST DUP2 EQ PUSH2 0x2ED JUMPI PUSH0 PUSH0 REVERT JUMPDEST POP JUMP JUMPDEST PUSH0 DUP2 CALLDATALOAD SWAP1 POP PUSH2 0x2FE DUP2 PUSH2 0x2DA JUMP JUMPDEST SWAP3 SWAP2 POP POP JUMP JUMPDEST PUSH0 PUSH1 0x20 DUP3 DUP5 SUB SLT ISZERO PUSH2 0x319 JUMPI PUSH2 0x318 PUSH2 0x2A6 JUMP JUMPDEST JUMPDEST PUSH0 PUSH2 0x326 DUP5 DUP3 DUP6 ADD PUSH2 0x2F0 JUMP JUMPDEST SWAP2 POP POP SWAP3 SWAP2 POP POP JUMP JUMPDEST PUSH2 0x338 DUP2 PUSH2 0x2C9 JUMP JUMPDEST DUP3 MSTORE POP POP JUMP JUMPDEST PUSH0 PUSH1 0x20 DUP3 ADD SWAP1 POP PUSH2 0x351 PUSH0 DUP4 ADD DUP5 PUSH2 0x32F JUMP JUMPDEST SWAP3 SWAP2 POP POP JUMP JUMPDEST PUSH0 DUP2 SWAP1 POP SWAP2 SWAP1 POP JUMP JUMPDEST PUSH2 0x369 DUP2 PUSH2 0x357 JUMP JUMPDEST DUP2 EQ PUSH2 0x373 JUMPI PUSH0 PUSH0 REVERT JUMPDEST POP JUMP JUMPDEST PUSH0 DUP2 CALLDATALOAD SWAP1 POP PUSH2 0x384 DUP2 PUSH2 0x360 JUMP JUMPDEST SWAP3 SWAP2 POP POP JUMP JUMPDEST PUSH0 PUSH0 PUSH0 PUSH1 0x60 DUP5 DUP7 SUB SLT ISZERO PUSH2 0x3A1 JUMPI PUSH2 0x3A0 PUSH2 0x2A6 JUMP JUMPDEST JUMPDEST PUSH0 PUSH2 0x3AE DUP7 DUP3 DUP8 ADD PUSH2 0x2F0 JUMP JUMPDEST SWAP4 POP POP PUSH1 0x20 PUSH2 0x3BF DUP7 DUP3 DUP8 ADD PUSH2 0x2F0 JUMP JUMPDEST SWAP3 POP POP PUSH1 0x40 PUSH2 0x3D0 DUP7 DUP3 DUP8 ADD PUSH2 0x376 JUMP JUMPDEST SWAP2 POP POP SWAP3 POP SWAP3 POP SWAP3 JUMP JUMPDEST PUSH2 0x3E3 DUP2 PUSH2 0x357 JUMP JUMPDEST DUP3 MSTORE POP POP JUMP JUMPDEST PUSH0 PUSH1 0x40 DUP3 ADD SWAP1 POP PUSH2 0x3FC PUSH0 DUP4 ADD DUP6 PUSH2 0x32F JUMP JUMPDEST PUSH2 0x409 PUSH1 0x20 DUP4 ADD DUP5 PUSH2 0x3DA JUMP JUMPDEST SWAP4 SWAP3 POP POP POP JUMP JUMPDEST PUSH0 DUP2 ISZERO ISZERO SWAP1 POP SWAP2 SWAP1 POP JUMP JUMPDEST PUSH2 0x424 DUP2 PUSH2 0x410 JUMP JUMPDEST DUP2 EQ PUSH2 0x42E JUMPI PUSH0 PUSH0 REVERT JUMPDEST POP JUMP JUMPDEST PUSH0 DUP2 MLOAD SWAP1 POP PUSH2 0x43F DUP2 PUSH2 0x41B JUMP JUMPDEST SWAP3 SWAP2 POP POP JUMP JUMPDEST PUSH0 PUSH1 0x20 DUP3 DUP5 SUB SLT ISZERO PUSH2 0x45A JUMPI PUSH2 0x459 PUSH2 0x2A6 JUMP JUMPDEST JUMPDEST PUSH0 PUSH2 0x467 DUP5 DUP3 DUP6 ADD PUSH2 0x431 JUMP JUMPDEST SWAP2 POP POP SWAP3 SWAP2 POP POP JUMP INVALID LOG2 PUSH5 0x6970667358 0x22 SLT KECCAK256 CALLF 0x92D7 TLOAD 0xBE TLOAD MULMOD BLOBBASEFEE PUSH22 0xA856360F6CC341D45C6B1FC8F0455299CBDD5669460F 0x4C PUSH5 0x736F6C6343 STOP ADDMOD 0x1E STOP CALLER PUSH2 0x180 PUSH1 0x40 MSTORE CALLVALUE DUP1 ISZERO PUSH2 0x10 JUMPI PUSH0 PUSH0 REVERT JUMPDEST POP PUSH1 0x40 MLOAD PUSH2 0x6EA4 CODESIZE SUB DUP1 PUSH2 0x6EA4 DUP4 CODECOPY DUP2 DUP2 ADD PUSH1 0x40 MSTORE DUP2 ADD SWAP1 PUSH2 0x32 SWAP2 SWAP1 PUSH2 0x606 JUMP JUMPDEST PUSH1 0x1 PUSH0 DUP2 SWAP1 SSTORE POP PUSH0 PUSH20 0xFFFFFFFFFFFFFFFFFFFFFFFFFFFFFFFFFFFFFFFF AND DUP9 PUSH20 0xFFFFFFFFFFFFFFFFFFFFFFFFFFFFFFFFFFFFFFFF AND SUB PUSH2 0xA7 JUMPI PUSH1 0x40 MLOAD PUSH32 0x8C379A000000000000000000000000000000000000000000000000000000000 DUP2 MSTORE PUSH1 0x4 ADD PUSH2 0x9E SWAP1 PUSH2 0x72D JUMP JUMPDEST PUSH1 0x40 MLOAD DUP1 SWAP2 SUB SWAP1 REVERT JUMPDEST PUSH0 DUP8 GT PUSH2 0xE9 JUMPI PUSH1 0x40 MLOAD PUSH32 0x8C379A000000000000000000000000000000000000000000000000000000000 DUP2 MSTORE PUSH1 0x4 ADD PUSH2 0xE0 SWAP1 PUSH2 0x7BB JUMP JUMPDEST PUSH1 0x40 MLOAD DUP1 SWAP2 SUB SWAP1 REVERT JUMPDEST PUSH0 DUP7 LT ISZERO PUSH2 0x12C JUMPI PUSH1 0x40 MLOAD PUSH32 0x8C379A000000000000000000000000000000000000000000000000000000000 DUP2 MSTORE PUSH1 0x4 ADD PUSH2 0x123 SWAP1 PUSH2 0x849 JUMP JUMPDEST PUSH1 0x40 MLOAD DUP1 SWAP2 SUB SWAP1 REVERT JUMPDEST PUSH0 DUP6 MLOAD GT PUSH2 0x16F JUMPI PUSH1 0x40 MLOAD PUSH32 0x8C379A000000000000000000000000000000000000000000000000000000000 DUP2 MSTORE PUSH1 0x4 ADD PUSH2 0x166 SWAP1 PUSH2 0x8B1 JUMP JUMPDEST PUSH1 0x40 MLOAD DUP1 SWAP2 SUB SWAP1 REVERT JUMPDEST CALLER PUSH20 0xFFFFFFFFFFFFFFFFFFFFFFFFFFFFFFFFFFFFFFFF AND PUSH1 0x80 DUP2 PUSH20 0xFFFFFFFFFFFFFFFFFFFFFFFFFFFFFFFFFFFFFFFF AND DUP2 MSTORE POP POP DUP8 PUSH20 0xFFFFFFFFFFFFFFFFFFFFFFFFFFFFFFFFFFFFFFFF AND PUSH1 0xA0 DUP2 PUSH20 0xFFFFFFFFFFFFFFFFFFFFFFFFFFFFFFFFFFFFFFFF AND DUP2 MSTORE POP POP DUP7 PUSH1 0xC0 DUP2 DUP2 MSTORE POP POP DUP6 PUSH1 0xE0 DUP2 DUP2 MSTORE POP POP DUP5 PUSH1 0x1 SWAP1 DUP2 PUSH2 0x1F6 SWAP2 SWAP1 PUSH2 0xAD6 JUMP JUMPDEST POP DUP4 ISZERO ISZERO PUSH2 0x100 DUP2 ISZERO ISZERO DUP2 MSTORE POP POP DUP3 PUSH20 0xFFFFFFFFFFFFFFFFFFFFFFFFFFFFFFFFFFFFFFFF AND PUSH2 0x120 DUP2 PUSH20 0xFFFFFFFFFFFFFFFFFFFFFFFFFFFFFFFFFFFFFFFF AND DUP2 MSTORE POP POP DUP2 PUSH20 0xFFFFFFFFFFFFFFFFFFFFFFFFFFFFFFFFFFFFFFFF AND PUSH2 0x140 DUP2 PUSH20 0xFFFFFFFFFFFFFFFFFFFFFFFFFFFFFFFFFFFFFFFF AND DUP2 MSTORE POP POP PUSH0 PUSH1 0x9 PUSH1 0x7 PUSH2 0x100 EXP DUP2 SLOAD DUP2 PUSH1 0xFF MUL NOT AND SWAP1 DUP4 PUSH1 0x2 DUP2 GT ISZERO PUSH2 0x293 JUMPI PUSH2 0x292 PUSH2 0xBA5 JUMP JUMPDEST JUMPDEST MUL OR SWAP1 SSTORE POP TIMESTAMP PUSH6 0xFFFFFFFFFFFF AND PUSH2 0x160 DUP2 PUSH6 0xFFFFFFFFFFFF AND DUP2 MSTORE POP POP PUSH0 PUSH1 0x3 DUP2 SWAP1 SSTORE POP DUP1 PUSH1 0x4 PUSH0 PUSH2 0x100 EXP DUP2 SLOAD DUP2 PUSH6 0xFFFFFFFFFFFF MUL NOT AND SWAP1 DUP4 PUSH6 0xFFFFFFFFFFFF AND MUL OR SWAP1 SSTORE POP PUSH0 PUSH1 0x5 DUP2 SWAP1 SSTORE POP PUSH0 PUSH1 0x6 DUP2 SWAP1 SSTORE POP PUSH0 PUSH1 0x7 PUSH0 PUSH2 0x100 EXP DUP2 SLOAD DUP2 PUSH1 0xFF MUL NOT AND SWAP1 DUP4 ISZERO ISZERO MUL OR SWAP1 SSTORE POP PUSH0 PUSH1 0x7 PUSH1 0x1 PUSH2 0x100 EXP DUP2 SLOAD DUP2 PUSH6 0xFFFFFFFFFFFF MUL NOT AND SWAP1 DUP4 PUSH6 0xFFFFFFFFFFFF AND MUL OR SWAP1 SSTORE POP TIMESTAMP PUSH1 0x7 PUSH1 0xD PUSH2 0x100 EXP DUP2 SLOAD DUP2 PUSH6 0xFFFFFFFFFFFF MUL NOT AND SWAP1 DUP4 PUSH6 0xFFFFFFFFFFFF AND MUL OR SWAP1 SSTORE POP PUSH4 0x1E13380 TIMESTAMP PUSH2 0x35D SWAP2 SWAP1 PUSH2 0xBFF JUMP JUMPDEST PUSH1 0x7 DUP1 PUSH2 0x100 EXP DUP2 SLOAD DUP2 PUSH6 0xFFFFFFFFFFFF MUL NOT AND SWAP1 DUP4 PUSH6 0xFFFFFFFFFFFF AND MUL OR SWAP1 SSTORE POP PUSH1 0xA0 MLOAD PUSH20 0xFFFFFFFFFFFFFFFFFFFFFFFFFFFFFFFFFFFFFFFF AND PUSH1 0x80 MLOAD PUSH20 0xFFFFFFFFFFFFFFFFFFFFFFFFFFFFFFFFFFFFFFFF AND PUSH32 0x4F1197914A173D10D32A79E20A053170D7DAFB93E77CC4F686CE07CDFA0C20FD PUSH1 0x1 PUSH1 0x40 MLOAD PUSH2 0x3E2 SWAP2 SWAP1 PUSH2 0xCB3 JUMP JUMPDEST PUSH1 0x40 MLOAD DUP1 SWAP2 SUB SWAP1 LOG3 POP POP POP POP POP POP POP POP PUSH2 0xCD3 JUMP JUMPDEST PUSH0 PUSH1 0x40 MLOAD SWAP1 POP SWAP1 JUMP JUMPDEST PUSH0 PUSH0 REVERT JUMPDEST PUSH0 PUSH0 REVERT JUMPDEST PUSH0 PUSH20 0xFFFFFFFFFFFFFFFFFFFFFFFFFFFFFFFFFFFFFFFF DUP3 AND SWAP1 POP SWAP2 SWAP1 POP JUMP JUMPDEST PUSH0 PUSH2 0x431 DUP3 PUSH2 0x408 JUMP JUMPDEST SWAP1 POP SWAP2 SWAP1 POP JUMP JUMPDEST PUSH2 0x441 DUP2 PUSH2 0x427 JUMP JUMPDEST DUP2 EQ PUSH2 0x44B JUMPI PUSH0 PUSH0 REVERT JUMPDEST POP JUMP JUMPDEST PUSH0 DUP2 MLOAD SWAP1 POP PUSH2 0x45C DUP2 PUSH2 0x438 JUMP JUMPDEST SWAP3 SWAP2 POP POP JUMP JUMPDEST PUSH0 DUP2 SWAP1 POP SWAP2 SWAP1 POP JUMP JUMPDEST PUSH2 0x474 DUP2 PUSH2 0x462 JUMP JUMPDEST DUP2 EQ PUSH2 0x47E JUMPI PUSH0 PUSH0 REVERT JUMPDEST POP JUMP JUMPDEST PUSH0 DUP2 MLOAD SWAP1 POP PUSH2 0x48F DUP2 PUSH2 0x46B JUMP JUMPDEST SWAP3 SWAP2 POP POP JUMP JUMPDEST PUSH0 PUSH0 REVERT JUMPDEST PUSH0 PUSH0 REVERT JUMPDEST PUSH0 PUSH1 0x1F NOT PUSH1 0x1F DUP4 ADD AND SWAP1 POP SWAP2 SWAP1 POP JUMP JUMPDEST PUSH32 0x4E487B7100000000000000000000000000000000000000000000000000000000 PUSH0 MSTORE PUSH1 0x41 PUSH1 0x4 MSTORE PUSH1 0x24 PUSH0 REVERT JUMPDEST PUSH2 0x4E3 DUP3 PUSH2 0x49D JUMP JUMPDEST DUP2 ADD DUP2 DUP2 LT PUSH8 0xFFFFFFFFFFFFFFFF DUP3 GT OR ISZERO PUSH2 0x502 JUMPI PUSH2 0x501 PUSH2 0x4AD JUMP JUMPDEST JUMPDEST DUP1 PUSH1 0x40 MSTORE POP POP POP JUMP JUMPDEST PUSH0 PUSH2 0x514 PUSH2 0x3F7 JUMP JUMPDEST SWAP1 POP PUSH2 0x520 DUP3 DUP3 PUSH2 0x4DA JUMP JUMPDEST SWAP2 SWAP1 POP JUMP JUMPDEST PUSH0 PUSH8 0xFFFFFFFFFFFFFFFF DUP3 GT ISZERO PUSH2 0x53F JUMPI PUSH2 0x53E PUSH2 0x4AD JUMP JUMPDEST JUMPDEST PUSH2 0x548 DUP3 PUSH2 0x49D JUMP JUMPDEST SWAP1 POP PUSH1 0x20 DUP2 ADD SWAP1 POP SWAP2 SWAP1 POP JUMP JUMPDEST DUP3 DUP2 DUP4 MCOPY PUSH0 DUP4 DUP4 ADD MSTORE POP POP POP JUMP JUMPDEST PUSH0 PUSH2 0x575 PUSH2 0x570 DUP5 PUSH2 0x525 JUMP JUMPDEST PUSH2 0x50B JUMP JUMPDEST SWAP1 POP DUP3 DUP2 MSTORE PUSH1 0x20 DUP2 ADD DUP5 DUP5 DUP5 ADD GT ISZERO PUSH2 0x591 JUMPI PUSH2 0x590 PUSH2 0x499 JUMP JUMPDEST JUMPDEST PUSH2 0x59C DUP5 DUP3 DUP6 PUSH2 0x555 JUMP JUMPDEST POP SWAP4 SWAP3 POP POP POP JUMP JUMPDEST PUSH0 DUP3 PUSH1 0x1F DUP4 ADD SLT PUSH2 0x5B8 JUMPI PUSH2 0x5B7 PUSH2 0x495 JUMP JUMPDEST JUMPDEST DUP2 MLOAD PUSH2 0x5C8 DUP5 DUP3 PUSH1 0x20 DUP7 ADD PUSH2 0x563 JUMP JUMPDEST SWAP2 POP POP SWAP3 SWAP2 POP POP JUMP JUMPDEST PUSH0 DUP2 ISZERO ISZERO SWAP1 POP SWAP2 SWAP1 POP JUMP JUMPDEST PUSH2 0x5E5 DUP2 PUSH2 0x5D1 JUMP JUMPDEST DUP2 EQ PUSH2 0x5EF JUMPI PUSH0 PUSH0 REVERT JUMPDEST POP JUMP JUMPDEST PUSH0 DUP2 MLOAD SWAP1 POP PUSH2 0x600 DUP2 PUSH2 0x5DC JUMP JUMPDEST SWAP3 SWAP2 POP POP JUMP JUMPDEST PUSH0 PUSH0 PUSH0 PUSH0 PUSH0 PUSH0 PUSH0 PUSH0 PUSH2 0x100 DUP10 DUP12 SUB SLT ISZERO PUSH2 0x623 JUMPI PUSH2 0x622 PUSH2 0x400 JUMP JUMPDEST JUMPDEST PUSH0 PUSH2 0x630 DUP12 DUP3 DUP13 ADD PUSH2 0x44E JUMP JUMPDEST SWAP9 POP POP PUSH1 0x20 PUSH2 0x641 DUP12 DUP3 DUP13 ADD PUSH2 0x481 JUMP JUMPDEST SWAP8 POP POP PUSH1 0x40 PUSH2 0x652 DUP12 DUP3 DUP13 ADD PUSH2 0x481 JUMP JUMPDEST SWAP7 POP POP PUSH1 0x60 DUP10 ADD MLOAD PUSH8 0xFFFFFFFFFFFFFFFF DUP2 GT ISZERO PUSH2 0x673 JUMPI PUSH2 0x672 PUSH2 0x404 JUMP JUMPDEST JUMPDEST PUSH2 0x67F DUP12 DUP3 DUP13 ADD PUSH2 0x5A4 JUMP JUMPDEST SWAP6 POP POP PUSH1 0x80 PUSH2 0x690 DUP12 DUP3 DUP13 ADD PUSH2 0x5F2 JUMP JUMPDEST SWAP5 POP POP PUSH1 0xA0 PUSH2 0x6A1 DUP12 DUP3 DUP13 ADD PUSH2 0x44E JUMP JUMPDEST SWAP4 POP POP PUSH1 0xC0 PUSH2 0x6B2 DUP12 DUP3 DUP13 ADD PUSH2 0x44E JUMP JUMPDEST SWAP3 POP POP PUSH1 0xE0 PUSH2 0x6C3 DUP12 DUP3 DUP13 ADD PUSH2 0x481 JUMP JUMPDEST SWAP2 POP POP SWAP3 SWAP6 SWAP9 POP SWAP3 SWAP6 SWAP9 SWAP1 SWAP4 SWAP7 POP JUMP JUMPDEST PUSH0 DUP3 DUP3 MSTORE PUSH1 0x20 DUP3 ADD SWAP1 POP SWAP3 SWAP2 POP POP JUMP JUMPDEST PUSH32 0x496E76616C69642074656E616E74206164647265737300000000000000000000 PUSH0 DUP3 ADD MSTORE POP JUMP JUMPDEST PUSH0 PUSH2 0x717 PUSH1 0x16 DUP4 PUSH2 0x6D3 JUMP JUMPDEST SWAP2 POP PUSH2 0x722 DUP3 PUSH2 0x6E3 JUMP JUMPDEST PUSH1 0x20 DUP3 ADD SWAP1 POP SWAP2 SWAP1 POP JUMP JUMPDEST PUSH0 PUSH1 0x20 DUP3 ADD SWAP1 POP DUP2 DUP2 SUB PUSH0 DUP4 ADD MSTORE PUSH2 0x744 DUP2 PUSH2 0x70B JUMP JUMPDEST SWAP1 POP SWAP2 SWAP1 POP JUMP JUMPDEST PUSH32 0x52656E7420616D6F756E74206D7573742062652067726561746572207468616E PUSH0 DUP3 ADD MSTORE PUSH32 0x2030000000000000000000000000000000000000000000000000000000000000 PUSH1 0x20 DUP3 ADD MSTORE POP JUMP JUMPDEST PUSH0 PUSH2 0x7A5 PUSH1 0x22 DUP4 PUSH2 0x6D3 JUMP JUMPDEST SWAP2 POP PUSH2 0x7B0 DUP3 PUSH2 0x74B JUMP JUMPDEST PUSH1 0x40 DUP3 ADD SWAP1 POP SWAP2 SWAP1 POP JUMP JUMPDEST PUSH0 PUSH1 0x20 DUP3 ADD SWAP1 POP DUP2 DUP2 SUB PUSH0 DUP4 ADD MSTORE PUSH2 0x7D2 DUP2 PUSH2 0x799 JUMP JUMPDEST SWAP1 POP SWAP2 SWAP1 POP JUMP JUMPDEST PUSH32 0x4465706F73697420616D6F756E74206D757374206265206E6F6E2D6E65676174 PUSH0 DUP3 ADD MSTORE PUSH32 0x6976650000000000000000000000000000000000000000000000000000000000 PUSH1 0x20 DUP3 ADD MSTORE POP JUMP JUMPDEST PUSH0 PUSH2 0x833 PUSH1 0x23 DUP4 PUSH2 0x6D3 JUMP JUMPDEST SWAP2 POP PUSH2 0x83E DUP3 PUSH2 0x7D9 JUMP JUMPDEST PUSH1 0x40 DUP3 ADD SWAP1 POP SWAP2 SWAP1 POP JUMP JUMPDEST PUSH0 PUSH1 0x20 DUP3 ADD SWAP1 POP DUP2 DUP2 SUB PUSH0 DUP4 ADD MSTORE PUSH2 0x860 DUP2 PUSH2 0x827 JUMP JUMPDEST SWAP1 POP SWAP2 SWAP1 POP JUMP JUMPDEST PUSH32 0x495046532068617368206D757374206265207365740000000000000000000000 PUSH0 DUP3 ADD MSTORE POP JUMP JUMPDEST PUSH0 PUSH2 0x89B PUSH1 0x15 DUP4 PUSH2 0x6D3 JUMP JUMPDEST SWAP2 POP PUSH2 0x8A6 DUP3 PUSH2 0x867 JUMP JUMPDEST PUSH1 0x20 DUP3 ADD SWAP1 POP SWAP2 SWAP1 POP JUMP JUMPDEST PUSH0 PUSH1 0x20 DUP3 ADD SWAP1 POP DUP2 DUP2 SUB PUSH0 DUP4 ADD MSTORE PUSH2 0x8C8 DUP2 PUSH2 0x88F JUMP JUMPDEST SWAP1 POP SWAP2 SWAP1 POP JUMP JUMPDEST PUSH0 DUP2 MLOAD SWAP1 POP SWAP2 SWAP1 POP JUMP JUMPDEST PUSH32 0x4E487B7100000000000000000000000000000000000000000000000000000000 PUSH0 MSTORE PUSH1 0x22 PUSH1 0x4 MSTORE PUSH1 0x24 PUSH0 REVERT JUMPDEST PUSH0 PUSH1 0x2 DUP3 DIV SWAP1 POP PUSH1 0x1 DUP3 AND DUP1 PUSH2 0x91D JUMPI PUSH1 0x7F DUP3 AND SWAP2 POP JUMPDEST PUSH1 0x20 DUP3 LT DUP2 SUB PUSH2 0x930 JUMPI PUSH2 0x92F PUSH2 0x8D9 JUMP JUMPDEST JUMPDEST POP SWAP2 SWAP1 POP JUMP JUMPDEST PUSH0 DUP2 SWAP1 POP DUP2 PUSH0 MSTORE PUSH1 0x20 PUSH0 KECCAK256 SWAP1 POP SWAP2 SWAP1 POP JUMP JUMPDEST PUSH0 PUSH1 0x20 PUSH1 0x1F DUP4 ADD DIV SWAP1 POP SWAP2 SWAP1 POP JUMP JUMPDEST PUSH0 DUP3 DUP3 SHL SWAP1 POP SWAP3 SWAP2 POP POP JUMP JUMPDEST PUSH0 PUSH1 0x8 DUP4 MUL PUSH2 0x992 PUSH32 0xFFFFFFFFFFFFFFFFFFFFFFFFFFFFFFFFFFFFFFFFFFFFFFFFFFFFFFFFFFFFFFFF DUP3 PUSH2 0x957 JUMP JUMPDEST PUSH2 0x99C DUP7 DUP4 PUSH2 0x957 JUMP JUMPDEST SWAP6 POP DUP1 NOT DUP5 AND SWAP4 POP DUP1 DUP7 AND DUP5 OR SWAP3 POP POP POP SWAP4 SWAP3 POP POP POP JUMP JUMPDEST PUSH0 DUP2 SWAP1 POP SWAP2 SWAP1 POP JUMP JUMPDEST PUSH0 PUSH2 0x9D7 PUSH2 0x9D2 PUSH2 0x9CD DUP5 PUSH2 0x462 JUMP JUMPDEST PUSH2 0x9B4 JUMP JUMPDEST PUSH2 0x462 JUMP JUMPDEST SWAP1 POP SWAP2 SWAP1 POP JUMP JUMPDEST PUSH0 DUP2 SWAP1 POP SWAP2 SWAP1 POP JUMP JUMPDEST PUSH2 0x9F0 DUP4 PUSH2 0x9BD JUMP JUMPDEST PUSH2 0xA04 PUSH2 0x9FC DUP3 PUSH2 0x9DE JUMP JUMPDEST DUP5 DUP5 SLOAD PUSH2 0x963 JUMP JUMPDEST DUP3 SSTORE POP POP POP POP JUMP JUMPDEST PUSH0 PUSH0 SWAP1 POP SWAP1 JUMP JUMPDEST PUSH2 0xA1B PUSH2 0xA0C JUMP JUMPDEST PUSH2 0xA26 DUP2 DUP5 DUP5 PUSH2 0x9E7 JUMP JUMPDEST POP POP POP JUMP JUMPDEST JUMPDEST DUP2 DUP2 LT ISZERO PUSH2 0xA49 JUMPI PUSH2 0xA3E PUSH0 DUP3 PUSH2 0xA13 JUMP JUMPDEST PUSH1 0x1 DUP2 ADD SWAP1 POP PUSH2 0xA2C JUMP JUMPDEST POP POP JUMP JUMPDEST PUSH1 0x1F DUP3 GT ISZERO PUSH2 0xA8E JUMPI PUSH2 0xA5F DUP2 PUSH2 0x936 JUMP JUMPDEST PUSH2 0xA68 DUP5 PUSH2 0x948 JUMP JUMPDEST DUP2 ADD PUSH1 0x20 DUP6 LT ISZERO PUSH2 0xA77 JUMPI DUP2 SWAP1 POP JUMPDEST PUSH2 0xA8B PUSH2 0xA83 DUP6 PUSH2 0x948 JUMP JUMPDEST DUP4 ADD DUP3 PUSH2 0xA2B JUMP JUMPDEST POP POP JUMPDEST POP POP POP JUMP JUMPDEST PUSH0 DUP3 DUP3 SHR SWAP1 POP SWAP3 SWAP2 POP POP JUMP JUMPDEST PUSH0 PUSH2 0xAAE PUSH0 NOT DUP5 PUSH1 0x8 MUL PUSH2 0xA93 JUMP JUMPDEST NOT DUP1 DUP4 AND SWAP2 POP POP SWAP3 SWAP2 POP POP JUMP JUMPDEST PUSH0 PUSH2 0xAC6 DUP4 DUP4 PUSH2 0xA9F JUMP JUMPDEST SWAP2 POP DUP3 PUSH1 0x2 MUL DUP3 OR SWAP1 POP SWAP3 SWAP2 POP POP JUMP JUMPDEST PUSH2 0xADF DUP3 PUSH2 0x8CF JUMP JUMPDEST PUSH8 0xFFFFFFFFFFFFFFFF DUP2 GT ISZERO PUSH2 0xAF8 JUMPI PUSH2 0xAF7 PUSH2 0x4AD JUMP JUMPDEST JUMPDEST PUSH2 0xB02 DUP3 SLOAD PUSH2 0x906 JUMP JUMPDEST PUSH2 0xB0D DUP3 DUP3 DUP6 PUSH2 0xA4D JUMP JUMPDEST PUSH0 PUSH1 0x20 SWAP1 POP PUSH1 0x1F DUP4 GT PUSH1 0x1 DUP2 EQ PUSH2 0xB3E JUMPI PUSH0 DUP5 ISZERO PUSH2 0xB2C JUMPI DUP3 DUP8 ADD MLOAD SWAP1 POP JUMPDEST PUSH2 0xB36 DUP6 DUP3 PUSH2 0xABB JUMP JUMPDEST DUP7 SSTORE POP PUSH2 0xB9D JUMP JUMPDEST PUSH1 0x1F NOT DUP5 AND PUSH2 0xB4C DUP7 PUSH2 0x936 JUMP JUMPDEST PUSH0 JUMPDEST DUP3 DUP2 LT ISZERO PUSH2 0xB73 JUMPI DUP5 DUP10 ADD MLOAD DUP3 SSTORE PUSH1 0x1 DUP3 ADD SWAP2 POP PUSH1 0x20 DUP6 ADD SWAP5 POP PUSH1 0x20 DUP2 ADD SWAP1 POP PUSH2 0xB4E JUMP JUMPDEST DUP7 DUP4 LT ISZERO PUSH2 0xB90 JUMPI DUP5 DUP10 ADD MLOAD PUSH2 0xB8C PUSH1 0x1F DUP10 AND DUP3 PUSH2 0xA9F JUMP JUMPDEST DUP4 SSTORE POP JUMPDEST PUSH1 0x1 PUSH1 0x2 DUP9 MUL ADD DUP9 SSTORE POP POP POP JUMPDEST POP POP POP POP POP POP JUMP JUMPDEST PUSH32 0x4E487B7100000000000000000000000000000000000000000000000000000000 PUSH0 MSTORE PUSH1 0x21 PUSH1 0x4 MSTORE PUSH1 0x24 PUSH0 REVERT JUMPDEST PUSH32 0x4E487B7100000000000000000000000000000000000000000000000000000000 PUSH0 MSTORE PUSH1 0x11 PUSH1 0x4 MSTORE PUSH1 0x24 PUSH0 REVERT JUMPDEST PUSH0 PUSH2 0xC09 DUP3 PUSH2 0x462 JUMP JUMPDEST SWAP2 POP PUSH2 0xC14 DUP4 PUSH2 0x462 JUMP JUMPDEST SWAP3 POP DUP3 DUP3 ADD SWAP1 POP DUP1 DUP3 GT ISZERO PUSH2 0xC2C JUMPI PUSH2 0xC2B PUSH2 0xBD2 JUMP JUMPDEST JUMPDEST SWAP3 SWAP2 POP POP JUMP JUMPDEST PUSH0 DUP2 SLOAD PUSH2 0xC3E DUP2 PUSH2 0x906 JUMP JUMPDEST PUSH2 0xC48 DUP2 DUP7 PUSH2 0x6D3 JUMP JUMPDEST SWAP5 POP PUSH1 0x1 DUP3 AND PUSH0 DUP2 EQ PUSH2 0xC62 JUMPI PUSH1 0x1 DUP2 EQ PUSH2 0xC78 JUMPI PUSH2 0xCAA JUMP JUMPDEST PUSH1 0xFF NOT DUP4 AND DUP7 MSTORE DUP2 ISZERO ISZERO PUSH1 0x20 MUL DUP7 ADD SWAP4 POP PUSH2 0xCAA JUMP JUMPDEST PUSH2 0xC81 DUP6 PUSH2 0x936 JUMP JUMPDEST PUSH0 JUMPDEST DUP4 DUP2 LT ISZERO PUSH2 0xCA2 JUMPI DUP2 SLOAD DUP2 DUP10 ADD MSTORE PUSH1 0x1 DUP3 ADD SWAP2 POP PUSH1 0x20 DUP2 ADD SWAP1 POP PUSH2 0xC83 JUMP JUMPDEST DUP1 DUP9 ADD SWAP6 POP POP POP JUMPDEST POP POP POP SWAP3 SWAP2 POP POP JUMP JUMPDEST PUSH0 PUSH1 0x20 DUP3 ADD SWAP1 POP DUP2 DUP2 SUB PUSH0 DUP4 ADD MSTORE PUSH2 0xCCB DUP2 DUP5 PUSH2 0xC32 JUMP JUMPDEST SWAP1 POP SWAP3 SWAP2 POP POP JUMP JUMPDEST PUSH1 0x80 MLOAD PUSH1 0xA0 MLOAD PUSH1 0xC0 MLOAD PUSH1 0xE0 MLOAD PUSH2 0x100 MLOAD PUSH2 0x120 MLOAD PUSH2 0x140 MLOAD PUSH2 0x160 MLOAD PUSH2 0x5FAF PUSH2 0xEF5 PUSH0 CODECOPY PUSH0 DUP2 DUP2 PUSH2 0x1401 ADD MSTORE PUSH2 0x165B ADD MSTORE PUSH0 DUP2 DUP2 PUSH2 0x2108 ADD MSTORE PUSH2 0x2288 ADD MSTORE PUSH0 DUP2 DUP2 PUSH2 0x17D9 ADD MSTORE DUP2 DUP2 PUSH2 0x1E8C ADD MSTORE DUP2 DUP2 PUSH2 0x23F8 ADD MSTORE DUP2 DUP2 PUSH2 0x2C93 ADD MSTORE DUP2 DUP2 PUSH2 0x367D ADD MSTORE PUSH2 0x3E90 ADD MSTORE PUSH0 DUP2 DUP2 PUSH2 0xFE1 ADD MSTORE DUP2 DUP2 PUSH2 0x178B ADD MSTORE DUP2 DUP2 PUSH2 0x1E18 ADD MSTORE DUP2 DUP2 PUSH2 0x23C8 ADD MSTORE DUP2 DUP2 PUSH2 0x2BA8 ADD MSTORE PUSH2 0x2C5C ADD MSTORE PUSH0 DUP2 DUP2 PUSH2 0x14A9 ADD MSTORE DUP2 DUP2 PUSH2 0x17AF ADD MSTORE PUSH2 0x1983 ADD MSTORE PUSH0 DUP2 DUP2 PUSH2 0xB9F ADD MSTORE DUP2 DUP2 PUSH2 0x120D ADD MSTORE DUP2 DUP2 PUSH2 0x2BCC ADD MSTORE DUP2 DUP2 PUSH2 0x3D1E ADD MSTORE PUSH2 0x428E ADD MSTORE PUSH0 DUP2 DUP2 PUSH2 0xB0F ADD MSTORE DUP2 DUP2 PUSH2 0xC6B ADD MSTORE DUP2 DUP2 PUSH2 0xD6B ADD MSTORE DUP2 DUP2 PUSH2 0x1371 ADD MSTORE DUP2 DUP2 PUSH2 0x15D1 ADD MSTORE DUP2 DUP2 PUSH2 0x1687 ADD MSTORE DUP2 DUP2 PUSH2 0x1DE5 ADD MSTORE DUP2 DUP2 PUSH2 0x2078 ADD MSTORE DUP2 DUP2 PUSH2 0x21F8 ADD MSTORE DUP2 DUP2 PUSH2 0x271E ADD MSTORE DUP2 DUP2 PUSH2 0x28F9 ADD MSTORE DUP2 DUP2 PUSH2 0x29DC ADD MSTORE DUP2 DUP2 PUSH2 0x2A9B ADD MSTORE DUP2 DUP2 PUSH2 0x3006 ADD MSTORE DUP2 DUP2 PUSH2 0x30E0 ADD MSTORE DUP2 DUP2 PUSH2 0x3145 ADD MSTORE DUP2 DUP2 PUSH2 0x31C0 ADD MSTORE DUP2 DUP2 PUSH2 0x334E ADD MSTORE DUP2 DUP2 PUSH2 0x3508 ADD MSTORE DUP2 DUP2 PUSH2 0x36A1 ADD MSTORE DUP2 DUP2 PUSH2 0x39D0 ADD MSTORE DUP2 DUP2 PUSH2 0x3CFA ADD MSTORE DUP2 DUP2 PUSH2 0x404F ADD MSTORE PUSH2 0x4220 ADD MSTORE PUSH0 DUP2 DUP2 PUSH2 0x990 ADD MSTORE DUP2 DUP2 PUSH2 0xA49 ADD MSTORE DUP2 DUP2 PUSH2 0xABA ADD MSTORE DUP2 DUP2 PUSH2 0xD16 ADD MSTORE DUP2 DUP2 PUSH2 0x1034 ADD MSTORE DUP2 DUP2 PUSH2 0x117F ADD MSTORE DUP2 DUP2 PUSH2 0x131C ADD MSTORE DUP2 DUP2 PUSH2 0x14CD ADD MSTORE DUP2 DUP2 PUSH2 0x1AD3 ADD MSTORE DUP2 DUP2 PUSH2 0x1C51 ADD MSTORE DUP2 DUP2 PUSH2 0x1CE0 ADD MSTORE DUP2 DUP2 PUSH2 0x2023 ADD MSTORE DUP2 DUP2 PUSH2 0x21A3 ADD MSTORE DUP2 DUP2 PUSH2 0x2339 ADD MSTORE DUP2 DUP2 PUSH2 0x241C ADD MSTORE DUP2 DUP2 PUSH2 0x2BF0 ADD MSTORE DUP2 DUP2 PUSH2 0x316B ADD MSTORE DUP2 DUP2 PUSH2 0x32F9 ADD MSTORE DUP2 DUP2 PUSH2 0x384F ADD MSTORE DUP2 DUP2 PUSH2 0x3A4C ADD MSTORE DUP2 DUP2 PUSH2 0x3A70 ADD MSTORE DUP2 DUP2 PUSH2 0x3BFD ADD MSTORE DUP2 DUP2 PUSH2 0x3C6B ADD MSTORE DUP2 DUP2 PUSH2 0x3ECD ADD MSTORE PUSH2 0x42B2 ADD MSTORE PUSH2 0x5FAF PUSH0 RETURN INVALID PUSH1 0x80 PUSH1 0x40 MSTORE PUSH1 0x4 CALLDATASIZE LT PUSH2 0x2C8 JUMPI PUSH0 CALLDATALOAD PUSH1 0xE0 SHR DUP1 PUSH4 0x7F91DF9C GT PUSH2 0x174 JUMPI DUP1 PUSH4 0xD077FB10 GT PUSH2 0xDB JUMPI DUP1 PUSH4 0xDD66857F GT PUSH2 0x94 JUMPI DUP1 PUSH4 0xF24BB69B GT PUSH2 0x6E JUMPI DUP1 PUSH4 0xF24BB69B EQ PUSH2 0x90E JUMPI DUP1 PUSH4 0xF84A0F2D EQ PUSH2 0x938 JUMPI DUP1 PUSH4 0xF8EF1E13 EQ PUSH2 0x94E JUMPI DUP1 PUSH4 0xF8FD0501 EQ PUSH2 0x978 JUMPI PUSH2 0x2C8 JUMP JUMPDEST DUP1 PUSH4 0xDD66857F EQ PUSH2 0x8B8 JUMPI DUP1 PUSH4 0xE36A03E0 EQ PUSH2 0x8CE JUMPI DUP1 PUSH4 0xEA9E7F6A EQ PUSH2 0x8E4 JUMPI PUSH2 0x2C8 JUMP JUMPDEST DUP1 PUSH4 0xD077FB10 EQ PUSH2 0x7E4 JUMPI DUP1 PUSH4 0xD39763C8 EQ PUSH2 0x80E JUMPI DUP1 PUSH4 0xD426E155 EQ PUSH2 0x838 JUMPI DUP1 PUSH4 0xD6E82DCA EQ PUSH2 0x84E JUMPI DUP1 PUSH4 0xD9EF0459 EQ PUSH2 0x864 JUMPI DUP1 PUSH4 0xDC1997EA EQ PUSH2 0x88E JUMPI PUSH2 0x2C8 JUMP JUMPDEST DUP1 PUSH4 0xA709C4FE GT PUSH2 0x12D JUMPI DUP1 PUSH4 0xA709C4FE EQ PUSH2 0x730 JUMPI DUP1 PUSH4 0xAA018005 EQ PUSH2 0x73A JUMPI DUP1 PUSH4 0xADF07791 EQ PUSH2 0x750 JUMPI DUP1 PUSH4 0xB651BB61 EQ PUSH2 0x77A JUMPI DUP1 PUSH4 0xC3EFC734 EQ PUSH2 0x7A4 JUMPI DUP1 PUSH4 0xC418C525 EQ PUSH2 0x7CE JUMPI PUSH2 0x2C8 JUMP JUMPDEST DUP1 PUSH4 0x7F91DF9C EQ PUSH2 0x64A JUMPI DUP1 PUSH4 0x8E15F473 EQ PUSH2 0x674 JUMPI DUP1 PUSH4 0x8E7F727F EQ PUSH2 0x69E JUMPI DUP1 PUSH4 0x9378B8C1 EQ PUSH2 0x6C6 JUMPI DUP1 PUSH4 0x9F1F9082 EQ PUSH2 0x6DC JUMPI DUP1 PUSH4 0xA5E047B8 EQ PUSH2 0x6F2 JUMPI PUSH2 0x2C8 JUMP JUMPDEST DUP1 PUSH4 0x36EC98EF GT PUSH2 0x233 JUMPI DUP1 PUSH4 0x5C274B86 GT PUSH2 0x1EC JUMPI DUP1 PUSH4 0x775E9FCE GT PUSH2 0x1C6 JUMPI DUP1 PUSH4 0x775E9FCE EQ PUSH2 0x5B6 JUMPI DUP1 PUSH4 0x7E076249 EQ PUSH2 0x5E0 JUMPI DUP1 PUSH4 0x7E88F603 EQ PUSH2 0x60A JUMPI DUP1 PUSH4 0x7EC3110C EQ PUSH2 0x620 JUMPI PUSH2 0x2C8 JUMP JUMPDEST DUP1 PUSH4 0x5C274B86 EQ PUSH2 0x56C JUMPI DUP1 PUSH4 0x61BC1A49 EQ PUSH2 0x576 JUMPI DUP1 PUSH4 0x6845071D EQ PUSH2 0x5A0 JUMPI PUSH2 0x2C8 JUMP JUMPDEST DUP1 PUSH4 0x36EC98EF EQ PUSH2 0x484 JUMPI DUP1 PUSH4 0x3E3BD90E EQ PUSH2 0x4AE JUMPI DUP1 PUSH4 0x419759F5 EQ PUSH2 0x4D8 JUMPI DUP1 PUSH4 0x4D5DCA5A EQ PUSH2 0x502 JUMPI DUP1 PUSH4 0x5561AE62 EQ PUSH2 0x518 JUMPI DUP1 PUSH4 0x587419D5 EQ PUSH2 0x542 JUMPI PUSH2 0x2C8 JUMP JUMPDEST DUP1 PUSH4 0x1F85316C GT PUSH2 0x285 JUMPI DUP1 PUSH4 0x1F85316C EQ PUSH2 0x3B0 JUMPI DUP1 PUSH4 0x2DFEFCCA EQ PUSH2 0x3DA JUMPI DUP1 PUSH4 0x3070C38B EQ PUSH2 0x3F0 JUMPI DUP1 PUSH4 0x31D019B7 EQ PUSH2 0x406 JUMPI DUP1 PUSH4 0x33FC1183 EQ PUSH2 0x430 JUMPI DUP1 PUSH4 0x34CBFDFE EQ PUSH2 0x45A JUMPI PUSH2 0x2C8 JUMP JUMPDEST DUP1 PUSH4 0x3C77FA4 EQ PUSH2 0x2CC JUMPI DUP1 PUSH4 0x752DB7A EQ PUSH2 0x2F4 JUMPI DUP1 PUSH4 0xABB1D7F EQ PUSH2 0x30A JUMPI DUP1 PUSH4 0x140F26BF EQ PUSH2 0x320 JUMPI DUP1 PUSH4 0x18BB32F5 EQ PUSH2 0x34A JUMPI DUP1 PUSH4 0x1CA43EDD EQ PUSH2 0x374 JUMPI JUMPDEST PUSH0 PUSH0 REVERT JUMPDEST CALLVALUE DUP1 ISZERO PUSH2 0x2D7 JUMPI PUSH0 PUSH0 REVERT JUMPDEST POP PUSH2 0x2F2 PUSH1 0x4 DUP1 CALLDATASIZE SUB DUP2 ADD SWAP1 PUSH2 0x2ED SWAP2 SWAP1 PUSH2 0x45FF JUMP JUMPDEST PUSH2 0x98E JUMP JUMPDEST STOP JUMPDEST CALLVALUE DUP1 ISZERO PUSH2 0x2FF JUMPI PUSH0 PUSH0 REVERT JUMPDEST POP PUSH2 0x308 PUSH2 0xAB8 JUMP JUMPDEST STOP JUMPDEST CALLVALUE DUP1 ISZERO PUSH2 0x315 JUMPI PUSH0 PUSH0 REVERT JUMPDEST POP PUSH2 0x31E PUSH2 0xD14 JUMP JUMPDEST STOP JUMPDEST CALLVALUE DUP1 ISZERO PUSH2 0x32B JUMPI PUSH0 PUSH0 REVERT JUMPDEST POP PUSH2 0x334 PUSH2 0xF53 JUMP JUMPDEST PUSH1 0x40 MLOAD PUSH2 0x341 SWAP2 SWAP1 PUSH2 0x46A6 JUMP JUMPDEST PUSH1 0x40 MLOAD DUP1 SWAP2 SUB SWAP1 RETURN JUMPDEST CALLVALUE DUP1 ISZERO PUSH2 0x355 JUMPI PUSH0 PUSH0 REVERT JUMPDEST POP PUSH2 0x35E PUSH2 0xFDF JUMP JUMPDEST PUSH1 0x40 MLOAD PUSH2 0x36B SWAP2 SWAP1 PUSH2 0x46E0 JUMP JUMPDEST PUSH1 0x40 MLOAD DUP1 SWAP2 SUB SWAP1 RETURN JUMPDEST CALLVALUE DUP1 ISZERO PUSH2 0x37F JUMPI PUSH0 PUSH0 REVERT JUMPDEST POP PUSH2 0x39A PUSH1 0x4 DUP1 CALLDATASIZE SUB DUP2 ADD SWAP1 PUSH2 0x395 SWAP2 SWAP1 PUSH2 0x4753 JUMP JUMPDEST PUSH2 0x1003 JUMP JUMPDEST PUSH1 0x40 MLOAD PUSH2 0x3A7 SWAP2 SWAP1 PUSH2 0x46E0 JUMP JUMPDEST PUSH1 0x40 MLOAD DUP1 SWAP2 SUB SWAP1 RETURN JUMPDEST CALLVALUE DUP1 ISZERO PUSH2 0x3BB JUMPI PUSH0 PUSH0 REVERT JUMPDEST POP PUSH2 0x3C4 PUSH2 0x1020 JUMP JUMPDEST PUSH1 0x40 MLOAD PUSH2 0x3D1 SWAP2 SWAP1 PUSH2 0x46E0 JUMP JUMPDEST PUSH1 0x40 MLOAD DUP1 SWAP2 SUB SWAP1 RETURN JUMPDEST CALLVALUE DUP1 ISZERO PUSH2 0x3E5 JUMPI PUSH0 PUSH0 REVERT JUMPDEST POP PUSH2 0x3EE PUSH2 0x1032 JUMP JUMPDEST STOP JUMPDEST CALLVALUE DUP1 ISZERO PUSH2 0x3FB JUMPI PUSH0 PUSH0 REVERT JUMPDEST POP PUSH2 0x404 PUSH2 0x117D JUMP JUMPDEST STOP JUMPDEST CALLVALUE DUP1 ISZERO PUSH2 0x411 JUMPI PUSH0 PUSH0 REVERT JUMPDEST POP PUSH2 0x41A PUSH2 0x12ED JUMP JUMPDEST PUSH1 0x40 MLOAD PUSH2 0x427 SWAP2 SWAP1 PUSH2 0x47F1 JUMP JUMPDEST PUSH1 0x40 MLOAD DUP1 SWAP2 SUB SWAP1 RETURN JUMPDEST CALLVALUE DUP1 ISZERO PUSH2 0x43B JUMPI PUSH0 PUSH0 REVERT JUMPDEST POP PUSH2 0x444 PUSH2 0x1300 JUMP JUMPDEST PUSH1 0x40 MLOAD PUSH2 0x451 SWAP2 SWAP1 PUSH2 0x46E0 JUMP JUMPDEST PUSH1 0x40 MLOAD DUP1 SWAP2 SUB SWAP1 RETURN JUMPDEST CALLVALUE DUP1 ISZERO PUSH2 0x465 JUMPI PUSH0 PUSH0 REVERT JUMPDEST POP PUSH2 0x46E PUSH2 0x1313 JUMP JUMPDEST PUSH1 0x40 MLOAD PUSH2 0x47B SWAP2 SWAP1 PUSH2 0x4822 JUMP JUMPDEST PUSH1 0x40 MLOAD DUP1 SWAP2 SUB SWAP1 RETURN JUMPDEST CALLVALUE DUP1 ISZERO PUSH2 0x48F JUMPI PUSH0 PUSH0 REVERT JUMPDEST POP PUSH2 0x498 PUSH2 0x1319 JUMP JUMPDEST PUSH1 0x40 MLOAD PUSH2 0x4A5 SWAP2 SWAP1 PUSH2 0x4822 JUMP JUMPDEST PUSH1 0x40 MLOAD DUP1 SWAP2 SUB SWAP1 RETURN JUMPDEST CALLVALUE DUP1 ISZERO PUSH2 0x4B9 JUMPI PUSH0 PUSH0 REVERT JUMPDEST POP PUSH2 0x4C2 PUSH2 0x1491 JUMP JUMPDEST PUSH1 0x40 MLOAD PUSH2 0x4CF SWAP2 SWAP1 PUSH2 0x485B JUMP JUMPDEST PUSH1 0x40 MLOAD DUP1 SWAP2 SUB SWAP1 RETURN JUMPDEST CALLVALUE DUP1 ISZERO PUSH2 0x4E3 JUMPI PUSH0 PUSH0 REVERT JUMPDEST POP PUSH2 0x4EC PUSH2 0x14A7 JUMP JUMPDEST PUSH1 0x40 MLOAD PUSH2 0x4F9 SWAP2 SWAP1 PUSH2 0x4822 JUMP JUMPDEST PUSH1 0x40 MLOAD DUP1 SWAP2 SUB SWAP1 RETURN JUMPDEST CALLVALUE DUP1 ISZERO PUSH2 0x50D JUMPI PUSH0 PUSH0 REVERT JUMPDEST POP PUSH2 0x516 PUSH2 0x14CB JUMP JUMPDEST STOP JUMPDEST CALLVALUE DUP1 ISZERO PUSH2 0x523 JUMPI PUSH0 PUSH0 REVERT JUMPDEST POP PUSH2 0x52C PUSH2 0x1641 JUMP JUMPDEST PUSH1 0x40 MLOAD PUSH2 0x539 SWAP2 SWAP1 PUSH2 0x485B JUMP JUMPDEST PUSH1 0x40 MLOAD DUP1 SWAP2 SUB SWAP1 RETURN JUMPDEST CALLVALUE DUP1 ISZERO PUSH2 0x54D JUMPI PUSH0 PUSH0 REVERT JUMPDEST POP PUSH2 0x556 PUSH2 0x1659 JUMP JUMPDEST PUSH1 0x40 MLOAD PUSH2 0x563 SWAP2 SWAP1 PUSH2 0x485B JUMP JUMPDEST PUSH1 0x40 MLOAD DUP1 SWAP2 SUB SWAP1 RETURN JUMPDEST PUSH2 0x574 PUSH2 0x167D JUMP JUMPDEST STOP JUMPDEST CALLVALUE DUP1 ISZERO PUSH2 0x581 JUMPI PUSH0 PUSH0 REVERT JUMPDEST POP PUSH2 0x58A PUSH2 0x1ACB JUMP JUMPDEST PUSH1 0x40 MLOAD PUSH2 0x597 SWAP2 SWAP1 PUSH2 0x4822 JUMP JUMPDEST PUSH1 0x40 MLOAD DUP1 SWAP2 SUB SWAP1 RETURN JUMPDEST CALLVALUE DUP1 ISZERO PUSH2 0x5AB JUMPI PUSH0 PUSH0 REVERT JUMPDEST POP PUSH2 0x5B4 PUSH2 0x1AD1 JUMP JUMPDEST STOP JUMPDEST CALLVALUE DUP1 ISZERO PUSH2 0x5C1 JUMPI PUSH0 PUSH0 REVERT JUMPDEST POP PUSH2 0x5CA PUSH2 0x1CBD JUMP JUMPDEST PUSH1 0x40 MLOAD PUSH2 0x5D7 SWAP2 SWAP1 PUSH2 0x4822 JUMP JUMPDEST PUSH1 0x40 MLOAD DUP1 SWAP2 SUB SWAP1 RETURN JUMPDEST CALLVALUE DUP1 ISZERO PUSH2 0x5EB JUMPI PUSH0 PUSH0 REVERT JUMPDEST POP PUSH2 0x5F4 PUSH2 0x1CC3 JUMP JUMPDEST PUSH1 0x40 MLOAD PUSH2 0x601 SWAP2 SWAP1 PUSH2 0x46E0 JUMP JUMPDEST PUSH1 0x40 MLOAD DUP1 SWAP2 SUB SWAP1 RETURN JUMPDEST CALLVALUE DUP1 ISZERO PUSH2 0x615 JUMPI PUSH0 PUSH0 REVERT JUMPDEST POP PUSH2 0x61E PUSH2 0x1CD6 JUMP JUMPDEST STOP JUMPDEST CALLVALUE DUP1 ISZERO PUSH2 0x62B JUMPI PUSH0 PUSH0 REVERT JUMPDEST POP PUSH2 0x634 PUSH2 0x2008 JUMP JUMPDEST PUSH1 0x40 MLOAD PUSH2 0x641 SWAP2 SWAP1 PUSH2 0x485B JUMP JUMPDEST PUSH1 0x40 MLOAD DUP1 SWAP2 SUB SWAP1 RETURN JUMPDEST CALLVALUE DUP1 ISZERO PUSH2 0x655 JUMPI PUSH0 PUSH0 REVERT JUMPDEST POP PUSH2 0x65E PUSH2 0x2020 JUMP JUMPDEST PUSH1 0x40 MLOAD PUSH2 0x66B SWAP2 SWAP1 PUSH2 0x4822 JUMP JUMPDEST PUSH1 0x40 MLOAD DUP1 SWAP2 SUB SWAP1 RETURN JUMPDEST CALLVALUE DUP1 ISZERO PUSH2 0x67F JUMPI PUSH0 PUSH0 REVERT JUMPDEST POP PUSH2 0x688 PUSH2 0x21A0 JUMP JUMPDEST PUSH1 0x40 MLOAD PUSH2 0x695 SWAP2 SWAP1 PUSH2 0x4822 JUMP JUMPDEST PUSH1 0x40 MLOAD DUP1 SWAP2 SUB SWAP1 RETURN JUMPDEST CALLVALUE DUP1 ISZERO PUSH2 0x6A9 JUMPI PUSH0 PUSH0 REVERT JUMPDEST POP PUSH2 0x6C4 PUSH1 0x4 DUP1 CALLDATASIZE SUB DUP2 ADD SWAP1 PUSH2 0x6BF SWAP2 SWAP1 PUSH2 0x489E JUMP JUMPDEST PUSH2 0x232F JUMP JUMPDEST STOP JUMPDEST CALLVALUE DUP1 ISZERO PUSH2 0x6D1 JUMPI PUSH0 PUSH0 REVERT JUMPDEST POP PUSH2 0x6DA PUSH2 0x271C JUMP JUMPDEST STOP JUMPDEST CALLVALUE DUP1 ISZERO PUSH2 0x6E7 JUMPI PUSH0 PUSH0 REVERT JUMPDEST POP PUSH2 0x6F0 PUSH2 0x28F7 JUMP JUMPDEST STOP JUMPDEST CALLVALUE DUP1 ISZERO PUSH2 0x6FD JUMPI PUSH0 PUSH0 REVERT JUMPDEST POP PUSH2 0x718 PUSH1 0x4 DUP1 CALLDATASIZE SUB DUP2 ADD SWAP1 PUSH2 0x713 SWAP2 SWAP1 PUSH2 0x48F8 JUMP JUMPDEST PUSH2 0x2A3F JUMP JUMPDEST PUSH1 0x40 MLOAD PUSH2 0x727 SWAP4 SWAP3 SWAP2 SWAP1 PUSH2 0x4923 JUMP JUMPDEST PUSH1 0x40 MLOAD DUP1 SWAP2 SUB SWAP1 RETURN JUMPDEST PUSH2 0x738 PUSH2 0x2A91 JUMP JUMPDEST STOP JUMPDEST CALLVALUE DUP1 ISZERO PUSH2 0x745 JUMPI PUSH0 PUSH0 REVERT JUMPDEST POP PUSH2 0x74E PUSH2 0x3004 JUMP JUMPDEST STOP JUMPDEST CALLVALUE DUP1 ISZERO PUSH2 0x75B JUMPI PUSH0 PUSH0 REVERT JUMPDEST POP PUSH2 0x764 PUSH2 0x3143 JUMP JUMPDEST PUSH1 0x40 MLOAD PUSH2 0x771 SWAP2 SWAP1 PUSH2 0x4967 JUMP JUMPDEST PUSH1 0x40 MLOAD DUP1 SWAP2 SUB SWAP1 RETURN JUMPDEST CALLVALUE DUP1 ISZERO PUSH2 0x785 JUMPI PUSH0 PUSH0 REVERT JUMPDEST POP PUSH2 0x78E PUSH2 0x3167 JUMP JUMPDEST PUSH1 0x40 MLOAD PUSH2 0x79B SWAP2 SWAP1 PUSH2 0x4A95 JUMP JUMPDEST PUSH1 0x40 MLOAD DUP1 SWAP2 SUB SWAP1 RETURN JUMPDEST CALLVALUE DUP1 ISZERO PUSH2 0x7AF JUMPI PUSH0 PUSH0 REVERT JUMPDEST POP PUSH2 0x7B8 PUSH2 0x32F5 JUMP JUMPDEST PUSH1 0x40 MLOAD PUSH2 0x7C5 SWAP2 SWAP1 PUSH2 0x46A6 JUMP JUMPDEST PUSH1 0x40 MLOAD DUP1 SWAP2 SUB SWAP1 RETURN JUMPDEST CALLVALUE DUP1 ISZERO PUSH2 0x7D9 JUMPI PUSH0 PUSH0 REVERT JUMPDEST POP PUSH2 0x7E2 PUSH2 0x3506 JUMP JUMPDEST STOP JUMPDEST CALLVALUE DUP1 ISZERO PUSH2 0x7EF JUMPI PUSH0 PUSH0 REVERT JUMPDEST POP PUSH2 0x7F8 PUSH2 0x3669 JUMP JUMPDEST PUSH1 0x40 MLOAD PUSH2 0x805 SWAP2 SWAP1 PUSH2 0x46E0 JUMP JUMPDEST PUSH1 0x40 MLOAD DUP1 SWAP2 SUB SWAP1 RETURN JUMPDEST CALLVALUE DUP1 ISZERO PUSH2 0x819 JUMPI PUSH0 PUSH0 REVERT JUMPDEST POP PUSH2 0x822 PUSH2 0x367B JUMP JUMPDEST PUSH1 0x40 MLOAD PUSH2 0x82F SWAP2 SWAP1 PUSH2 0x4967 JUMP JUMPDEST PUSH1 0x40 MLOAD DUP1 SWAP2 SUB SWAP1 RETURN JUMPDEST CALLVALUE DUP1 ISZERO PUSH2 0x843 JUMPI PUSH0 PUSH0 REVERT JUMPDEST POP PUSH2 0x84C PUSH2 0x369F JUMP JUMPDEST STOP JUMPDEST CALLVALUE DUP1 ISZERO PUSH2 0x859 JUMPI PUSH0 PUSH0 REVERT JUMPDEST POP PUSH2 0x862 PUSH2 0x384D JUMP JUMPDEST STOP JUMPDEST CALLVALUE DUP1 ISZERO PUSH2 0x86F JUMPI PUSH0 PUSH0 REVERT JUMPDEST POP PUSH2 0x878 PUSH2 0x3A33 JUMP JUMPDEST PUSH1 0x40 MLOAD PUSH2 0x885 SWAP2 SWAP1 PUSH2 0x485B JUMP JUMPDEST PUSH1 0x40 MLOAD DUP1 SWAP2 SUB SWAP1 RETURN JUMPDEST CALLVALUE DUP1 ISZERO PUSH2 0x899 JUMPI PUSH0 PUSH0 REVERT JUMPDEST POP PUSH2 0x8A2 PUSH2 0x3A4A JUMP JUMPDEST PUSH1 0x40 MLOAD PUSH2 0x8AF SWAP2 SWAP1 PUSH2 0x4967 JUMP JUMPDEST PUSH1 0x40 MLOAD DUP1 SWAP2 SUB SWAP1 RETURN JUMPDEST CALLVALUE DUP1 ISZERO PUSH2 0x8C3 JUMPI PUSH0 PUSH0 REVERT JUMPDEST POP PUSH2 0x8CC PUSH2 0x3A6E JUMP JUMPDEST STOP JUMPDEST CALLVALUE DUP1 ISZERO PUSH2 0x8D9 JUMPI PUSH0 PUSH0 REVERT JUMPDEST POP PUSH2 0x8E2 PUSH2 0x3C69 JUMP JUMPDEST STOP JUMPDEST CALLVALUE DUP1 ISZERO PUSH2 0x8EF JUMPI PUSH0 PUSH0 REVERT JUMPDEST POP PUSH2 0x8F8 PUSH2 0x402F JUMP JUMPDEST PUSH1 0x40 MLOAD PUSH2 0x905 SWAP2 SWAP1 PUSH2 0x4822 JUMP JUMPDEST PUSH1 0x40 MLOAD DUP1 SWAP2 SUB SWAP1 RETURN JUMPDEST CALLVALUE DUP1 ISZERO PUSH2 0x919 JUMPI PUSH0 PUSH0 REVERT JUMPDEST POP PUSH2 0x922 PUSH2 0x4035 JUMP JUMPDEST PUSH1 0x40 MLOAD PUSH2 0x92F SWAP2 SWAP1 PUSH2 0x485B JUMP JUMPDEST PUSH1 0x40 MLOAD DUP1 SWAP2 SUB SWAP1 RETURN JUMPDEST CALLVALUE DUP1 ISZERO PUSH2 0x943 JUMPI PUSH0 PUSH0 REVERT JUMPDEST POP PUSH2 0x94C PUSH2 0x404D JUMP JUMPDEST STOP JUMPDEST CALLVALUE DUP1 ISZERO PUSH2 0x959 JUMPI PUSH0 PUSH0 REVERT JUMPDEST POP PUSH2 0x962 PUSH2 0x428C JUMP JUMPDEST PUSH1 0x40 MLOAD PUSH2 0x96F SWAP2 SWAP1 PUSH2 0x4822 JUMP JUMPDEST PUSH1 0x40 MLOAD DUP1 SWAP2 SUB SWAP1 RETURN JUMPDEST CALLVALUE DUP1 ISZERO PUSH2 0x983 JUMPI PUSH0 PUSH0 REVERT JUMPDEST POP PUSH2 0x98C PUSH2 0x42B0 JUMP JUMPDEST STOP JUMPDEST PUSH32 0x0 PUSH20 0xFFFFFFFFFFFFFFFFFFFFFFFFFFFFFFFFFFFFFFFF AND CALLER PUSH20 0xFFFFFFFFFFFFFFFFFFFFFFFFFFFFFFFFFFFFFFFF AND EQ PUSH2 0xA1C JUMPI PUSH1 0x40 MLOAD PUSH32 0x8C379A000000000000000000000000000000000000000000000000000000000 DUP2 MSTORE PUSH1 0x4 ADD PUSH2 0xA13 SWAP1 PUSH2 0x4B25 JUMP JUMPDEST PUSH1 0x40 MLOAD DUP1 SWAP2 SUB SWAP1 REVERT JUMPDEST PUSH1 0x1 PUSH1 0x9 PUSH1 0x7 PUSH2 0x100 EXP DUP2 SLOAD DUP2 PUSH1 0xFF MUL NOT AND SWAP1 DUP4 PUSH1 0x2 DUP2 GT ISZERO PUSH2 0xA42 JUMPI PUSH2 0xA41 PUSH2 0x477E JUMP JUMPDEST JUMPDEST MUL OR SWAP1 SSTORE POP PUSH32 0x0 PUSH20 0xFFFFFFFFFFFFFFFFFFFFFFFFFFFFFFFFFFFFFFFF AND PUSH32 0x7B73F5D770F3EB41FD57F1E6A1C9E2A5EC61FEBBBD4E608D511C46E3FD611639 DUP3 PUSH1 0x40 MLOAD PUSH2 0xAAD SWAP2 SWAP1 PUSH2 0x46A6 JUMP JUMPDEST PUSH1 0x40 MLOAD DUP1 SWAP2 SUB SWAP1 LOG2 POP JUMP JUMPDEST PUSH32 0x0 PUSH20 0xFFFFFFFFFFFFFFFFFFFFFFFFFFFFFFFFFFFFFFFF AND CALLER PUSH20 0xFFFFFFFFFFFFFFFFFFFFFFFFFFFFFFFFFFFFFFFF AND EQ DUP1 PUSH2 0xB5D JUMPI POP PUSH32 0x0 PUSH20 0xFFFFFFFFFFFFFFFFFFFFFFFFFFFFFFFFFFFFFFFF AND CALLER PUSH20 0xFFFFFFFFFFFFFFFFFFFFFFFFFFFFFFFFFFFFFFFF AND EQ JUMPDEST PUSH2 0xB9C JUMPI PUSH1 0x40 MLOAD PUSH32 0x8C379A000000000000000000000000000000000000000000000000000000000 DUP2 MSTORE PUSH1 0x4 ADD PUSH2 0xB93 SWAP1 PUSH2 0x4BB3 JUMP JUMPDEST PUSH1 0x40 MLOAD DUP1 SWAP2 SUB SWAP1 REVERT JUMPDEST PUSH0 PUSH32 0x0 SWAP1 POP PUSH0 PUSH1 0x6 SLOAD SWAP1 POP PUSH0 PUSH20 0x0 PUSH4 0x5468AF10 PUSH1 0x9 PUSH1 0x1 SWAP1 SLOAD SWAP1 PUSH2 0x100 EXP SWAP1 DIV PUSH6 0xFFFFFFFFFFFF AND PUSH1 0x40 MLOAD DUP3 PUSH4 0xFFFFFFFF AND PUSH1 0xE0 SHL DUP2 MSTORE PUSH1 0x4 ADD PUSH2 0xC12 SWAP2 SWAP1 PUSH2 0x4C0A JUMP JUMPDEST PUSH1 0x20 PUSH1 0x40 MLOAD DUP1 DUP4 SUB DUP2 DUP7 GAS DELEGATECALL ISZERO DUP1 ISZERO PUSH2 0xC2D JUMPI RETURNDATASIZE PUSH0 PUSH0 RETURNDATACOPY RETURNDATASIZE PUSH0 REVERT JUMPDEST POP POP POP POP PUSH1 0x40 MLOAD RETURNDATASIZE PUSH1 0x1F NOT PUSH1 0x1F DUP3 ADD AND DUP3 ADD DUP1 PUSH1 0x40 MSTORE POP DUP2 ADD SWAP1 PUSH2 0xC51 SWAP2 SWAP1 PUSH2 0x4C37 JUMP JUMPDEST SWAP1 POP DUP1 TIMESTAMP GT ISZERO PUSH2 0xCD8 JUMPI DUP3 DUP3 PUSH2 0xC67 SWAP2 SWAP1 PUSH2 0x4C8F JUMP JUMPDEST SWAP2 POP PUSH32 0x0 PUSH20 0xFFFFFFFFFFFFFFFFFFFFFFFFFFFFFFFFFFFFFFFF AND PUSH32 0x2774F4712321FE39A50CF43384F7A594356CDABD366829262F2654FE2F3B77F9 DUP5 PUSH1 0x40 MLOAD PUSH2 0xCCF SWAP2 SWAP1 PUSH2 0x4822 JUMP JUMPDEST PUSH1 0x40 MLOAD DUP1 SWAP2 SUB SWAP1 LOG2 JUMPDEST PUSH32 0xBBCC51FA936F3A76812BE73764F05AAFEEB3D972C46D98DD196244186BAD147F DUP2 PUSH1 0x40 MLOAD PUSH2 0xD07 SWAP2 SWAP1 PUSH2 0x4822 JUMP JUMPDEST PUSH1 0x40 MLOAD DUP1 SWAP2 SUB SWAP1 LOG1 POP POP POP JUMP JUMPDEST PUSH32 0x0 PUSH20 0xFFFFFFFFFFFFFFFFFFFFFFFFFFFFFFFFFFFFFFFF AND CALLER PUSH20 0xFFFFFFFFFFFFFFFFFFFFFFFFFFFFFFFFFFFFFFFF AND EQ DUP1 PUSH2 0xDB9 JUMPI POP PUSH32 0x0 PUSH20 0xFFFFFFFFFFFFFFFFFFFFFFFFFFFFFFFFFFFFFFFF AND CALLER PUSH20 0xFFFFFFFFFFFFFFFFFFFFFFFFFFFFFFFFFFFFFFFF AND EQ JUMPDEST PUSH2 0xDF8 JUMPI PUSH1 0x40 MLOAD PUSH32 0x8C379A000000000000000000000000000000000000000000000000000000000 DUP2 MSTORE PUSH1 0x4 ADD PUSH2 0xDEF SWAP1 PUSH2 0x4BB3 JUMP JUMPDEST PUSH1 0x40 MLOAD DUP1 SWAP2 SUB SWAP1 REVERT JUMPDEST PUSH0 PUSH1 0x2 DUP2 GT ISZERO PUSH2 0xE0B JUMPI PUSH2 0xE0A PUSH2 0x477E JUMP JUMPDEST JUMPDEST PUSH1 0x9 PUSH1 0x7 SWAP1 SLOAD SWAP1 PUSH2 0x100 EXP SWAP1 DIV PUSH1 0xFF AND PUSH1 0x2 DUP2 GT ISZERO PUSH2 0xE2D JUMPI PUSH2 0xE2C PUSH2 0x477E JUMP JUMPDEST JUMPDEST EQ DUP1 PUSH2 0xE6B JUMPI POP PUSH1 0x2 DUP1 DUP2 GT ISZERO PUSH2 0xE47 JUMPI PUSH2 0xE46 PUSH2 0x477E JUMP JUMPDEST JUMPDEST PUSH1 0x9 PUSH1 0x7 SWAP1 SLOAD SWAP1 PUSH2 0x100 EXP SWAP1 DIV PUSH1 0xFF AND PUSH1 0x2 DUP2 GT ISZERO PUSH2 0xE69 JUMPI PUSH2 0xE68 PUSH2 0x477E JUMP JUMPDEST JUMPDEST EQ JUMPDEST PUSH2 0xEAA JUMPI PUSH1 0x40 MLOAD PUSH32 0x8C379A000000000000000000000000000000000000000000000000000000000 DUP2 MSTORE PUSH1 0x4 ADD PUSH2 0xEA1 SWAP1 PUSH2 0x4D0C JUMP JUMPDEST PUSH1 0x40 MLOAD DUP1 SWAP2 SUB SWAP1 REVERT JUMPDEST PUSH0 TIMESTAMP PUSH1 0x7 DUP1 SLOAD SWAP1 PUSH2 0x100 EXP SWAP1 DIV PUSH6 0xFFFFFFFFFFFF AND PUSH6 0xFFFFFFFFFFFF AND PUSH2 0xED1 SWAP2 SWAP1 PUSH2 0x4D2A JUMP JUMPDEST SWAP1 POP PUSH0 PUSH3 0x15180 DUP3 PUSH2 0xEE3 SWAP2 SWAP1 PUSH2 0x4D8A JUMP JUMPDEST SWAP1 POP PUSH3 0x4F1A00 DUP2 EQ DUP1 PUSH2 0xEF6 JUMPI POP PUSH1 0x1E DUP2 EQ JUMPDEST DUP1 PUSH2 0xF04 JUMPI POP PUSH3 0x127500 DUP2 LT ISZERO JUMPDEST ISZERO PUSH2 0xF4F JUMPI PUSH32 0xD0B1F933B37BCB6FA032C1F03D79EC22BE0798137CDB06AD046BE2E640EAFBC5 PUSH3 0x15180 DUP4 PUSH2 0xF39 SWAP2 SWAP1 PUSH2 0x4D8A JUMP JUMPDEST PUSH1 0x40 MLOAD PUSH2 0xF46 SWAP2 SWAP1 PUSH2 0x4822 JUMP JUMPDEST PUSH1 0x40 MLOAD DUP1 SWAP2 SUB SWAP1 LOG1 JUMPDEST POP POP JUMP JUMPDEST PUSH1 0x1 DUP1 SLOAD PUSH2 0xF60 SWAP1 PUSH2 0x4DE7 JUMP JUMPDEST DUP1 PUSH1 0x1F ADD PUSH1 0x20 DUP1 SWAP2 DIV MUL PUSH1 0x20 ADD PUSH1 0x40 MLOAD SWAP1 DUP2 ADD PUSH1 0x40 MSTORE DUP1 SWAP3 SWAP2 SWAP1 DUP2 DUP2 MSTORE PUSH1 0x20 ADD DUP3 DUP1 SLOAD PUSH2 0xF8C SWAP1 PUSH2 0x4DE7 JUMP JUMPDEST DUP1 ISZERO PUSH2 0xFD7 JUMPI DUP1 PUSH1 0x1F LT PUSH2 0xFAE JUMPI PUSH2 0x100 DUP1 DUP4 SLOAD DIV MUL DUP4 MSTORE SWAP2 PUSH1 0x20 ADD SWAP2 PUSH2 0xFD7 JUMP JUMPDEST DUP3 ADD SWAP2 SWAP1 PUSH0 MSTORE PUSH1 0x20 PUSH0 KECCAK256 SWAP1 JUMPDEST DUP2 SLOAD DUP2 MSTORE SWAP1 PUSH1 0x1 ADD SWAP1 PUSH1 0x20 ADD DUP1 DUP4 GT PUSH2 0xFBA JUMPI DUP3 SWAP1 SUB PUSH1 0x1F AND DUP3 ADD SWAP2 JUMPDEST POP POP POP POP POP DUP2 JUMP JUMPDEST PUSH32 0x0 DUP2 JUMP JUMPDEST PUSH1 0x8 PUSH1 0x20 MSTORE DUP1 PUSH0 MSTORE PUSH1 0x40 PUSH0 KECCAK256 PUSH0 SWAP2 POP SLOAD SWAP1 PUSH2 0x100 EXP SWAP1 DIV PUSH1 0xFF AND DUP2 JUMP JUMPDEST PUSH1 0x7 PUSH0 SWAP1 SLOAD SWAP1 PUSH2 0x100 EXP SWAP1 DIV PUSH1 0xFF AND DUP2 JUMP JUMPDEST PUSH32 0x0 PUSH20 0xFFFFFFFFFFFFFFFFFFFFFFFFFFFFFFFFFFFFFFFF AND CALLER PUSH20 0xFFFFFFFFFFFFFFFFFFFFFFFFFFFFFFFFFFFFFFFF AND EQ PUSH2 0x10C0 JUMPI PUSH1 0x40 MLOAD PUSH32 0x8C379A000000000000000000000000000000000000000000000000000000000 DUP2 MSTORE PUSH1 0x4 ADD PUSH2 0x10B7 SWAP1 PUSH2 0x4B25 JUMP JUMPDEST PUSH1 0x40 MLOAD DUP1 SWAP2 SUB SWAP1 REVERT JUMPDEST PUSH1 0x2 DUP1 DUP2 GT ISZERO PUSH2 0x10D3 JUMPI PUSH2 0x10D2 PUSH2 0x477E JUMP JUMPDEST JUMPDEST PUSH1 0x9 PUSH1 0x7 SWAP1 SLOAD SWAP1 PUSH2 0x100 EXP SWAP1 DIV PUSH1 0xFF AND PUSH1 0x2 DUP2 GT ISZERO PUSH2 0x10F5 JUMPI PUSH2 0x10F4 PUSH2 0x477E JUMP JUMPDEST JUMPDEST EQ PUSH2 0x1135 JUMPI PUSH1 0x40 MLOAD PUSH32 0x8C379A000000000000000000000000000000000000000000000000000000000 DUP2 MSTORE PUSH1 0x4 ADD PUSH2 0x112C SWAP1 PUSH2 0x4E87 JUMP JUMPDEST PUSH1 0x40 MLOAD DUP1 SWAP2 SUB SWAP1 REVERT JUMPDEST PUSH1 0x1 PUSH1 0x9 PUSH0 PUSH2 0x100 EXP DUP2 SLOAD DUP2 PUSH1 0xFF MUL NOT AND SWAP1 DUP4 ISZERO ISZERO MUL OR SWAP1 SSTORE POP PUSH32 0x894C4B81F1E4030455842353856CE104FC0582F01BD61E6BBE4D2C7C47AB508F PUSH1 0x40 MLOAD PUSH1 0x40 MLOAD DUP1 SWAP2 SUB SWAP1 LOG1 JUMP JUMPDEST PUSH32 0x0 PUSH20 0xFFFFFFFFFFFFFFFFFFFFFFFFFFFFFFFFFFFFFFFF AND CALLER PUSH20 0xFFFFFFFFFFFFFFFFFFFFFFFFFFFFFFFFFFFFFFFF AND EQ PUSH2 0x120B JUMPI PUSH1 0x40 MLOAD PUSH32 0x8C379A000000000000000000000000000000000000000000000000000000000 DUP2 MSTORE PUSH1 0x4 ADD PUSH2 0x1202 SWAP1 PUSH2 0x4B25 JUMP JUMPDEST PUSH1 0x40 MLOAD DUP1 SWAP2 SUB SWAP1 REVERT JUMPDEST PUSH32 0x0 PUSH1 0x3 PUSH2 0x1238 SWAP2 SWAP1 PUSH2 0x4EA5 JUMP JUMPDEST PUSH1 0x6 SLOAD GT ISZERO PUSH2 0x12EB JUMPI PUSH3 0x76A700 TIMESTAMP PUSH2 0x1250 SWAP2 SWAP1 PUSH2 0x4C8F JUMP JUMPDEST PUSH1 0x7 PUSH1 0x1 PUSH2 0x100 EXP DUP2 SLOAD DUP2 PUSH6 0xFFFFFFFFFFFF MUL NOT AND SWAP1 DUP4 PUSH6 0xFFFFFFFFFFFF AND MUL OR SWAP1 SSTORE POP PUSH1 0x2 PUSH1 0x9 PUSH1 0x7 PUSH2 0x100 EXP DUP2 SLOAD DUP2 PUSH1 0xFF MUL NOT AND SWAP1 DUP4 PUSH1 0x2 DUP2 GT ISZERO PUSH2 0x129A JUMPI PUSH2 0x1299 PUSH2 0x477E JUMP JUMPDEST JUMPDEST MUL OR SWAP1 SSTORE POP PUSH32 0x2032EEA88030B7D191BCBDC44C5AC10ED559F3E9F56A319C896F007B55ABA5C6 PUSH1 0x7 PUSH1 0x1 SWAP1 SLOAD SWAP1 PUSH2 0x100 EXP SWAP1 DIV PUSH6 0xFFFFFFFFFFFF AND PUSH1 0x40 MLOAD PUSH2 0x12E2 SWAP2 SWAP1 PUSH2 0x4EF5 JUMP JUMPDEST PUSH1 0x40 MLOAD DUP1 SWAP2 SUB SWAP1 LOG1 JUMPDEST JUMP JUMPDEST PUSH1 0x9 PUSH1 0x7 SWAP1 SLOAD SWAP1 PUSH2 0x100 EXP SWAP1 DIV PUSH1 0xFF AND DUP2 JUMP JUMPDEST PUSH1 0x7 PUSH1 0x14 SWAP1 SLOAD SWAP1 PUSH2 0x100 EXP SWAP1 DIV PUSH1 0xFF AND DUP2 JUMP JUMPDEST PUSH1 0x5 SLOAD DUP2 JUMP JUMPDEST PUSH0 PUSH32 0x0 PUSH20 0xFFFFFFFFFFFFFFFFFFFFFFFFFFFFFFFFFFFFFFFF AND CALLER PUSH20 0xFFFFFFFFFFFFFFFFFFFFFFFFFFFFFFFFFFFFFFFF AND EQ DUP1 PUSH2 0x13BF JUMPI POP PUSH32 0x0 PUSH20 0xFFFFFFFFFFFFFFFFFFFFFFFFFFFFFFFFFFFFFFFF AND CALLER PUSH20 0xFFFFFFFFFFFFFFFFFFFFFFFFFFFFFFFFFFFFFFFF AND EQ JUMPDEST PUSH2 0x13FE JUMPI PUSH1 0x40 MLOAD PUSH32 0x8C379A000000000000000000000000000000000000000000000000000000000 DUP2 MSTORE PUSH1 0x4 ADD PUSH2 0x13F5 SWAP1 PUSH2 0x4BB3 JUMP JUMPDEST PUSH1 0x40 MLOAD DUP1 SWAP2 SUB SWAP1 REVERT JUMPDEST PUSH0 PUSH32 0x0 PUSH6 0xFFFFFFFFFFFF AND TIMESTAMP PUSH2 0x1433 SWAP2 SWAP1 PUSH2 0x4D2A JUMP JUMPDEST SWAP1 POP PUSH0 PUSH4 0x1E13380 DUP3 PUSH2 0x1446 SWAP2 SWAP1 PUSH2 0x4D8A JUMP JUMPDEST SWAP1 POP PUSH0 PUSH2 0x1451 PUSH2 0x2020 JUMP JUMPDEST SWAP1 POP PUSH0 PUSH1 0x64 DUP4 DUP4 PUSH2 0x1462 SWAP2 SWAP1 PUSH2 0x4EA5 JUMP JUMPDEST PUSH2 0x146C SWAP2 SWAP1 PUSH2 0x4D8A JUMP JUMPDEST PUSH1 0x1 PUSH2 0x1478 SWAP2 SWAP1 PUSH2 0x4C8F JUMP JUMPDEST PUSH1 0x2 SLOAD PUSH2 0x1485 SWAP2 SWAP1 PUSH2 0x4EA5 JUMP JUMPDEST SWAP1 POP DUP1 SWAP5 POP POP POP POP POP SWAP1 JUMP JUMPDEST PUSH1 0x7 DUP1 SLOAD SWAP1 PUSH2 0x100 EXP SWAP1 DIV PUSH6 0xFFFFFFFFFFFF AND DUP2 JUMP JUMPDEST PUSH32 0x0 DUP2 JUMP JUMPDEST PUSH32 0x0 PUSH20 0xFFFFFFFFFFFFFFFFFFFFFFFFFFFFFFFFFFFFFFFF AND CALLER PUSH20 0xFFFFFFFFFFFFFFFFFFFFFFFFFFFFFFFFFFFFFFFF AND EQ PUSH2 0x1559 JUMPI PUSH1 0x40 MLOAD PUSH32 0x8C379A000000000000000000000000000000000000000000000000000000000 DUP2 MSTORE PUSH1 0x4 ADD PUSH2 0x1550 SWAP1 PUSH2 0x4B25 JUMP JUMPDEST PUSH1 0x40 MLOAD DUP1 SWAP2 SUB SWAP1 REVERT JUMPDEST PUSH1 0x7 PUSH0 SWAP1 SLOAD SWAP1 PUSH2 0x100 EXP SWAP1 DIV PUSH1 0xFF AND PUSH2 0x15A7 JUMPI PUSH1 0x40 MLOAD PUSH32 0x8C379A000000000000000000000000000000000000000000000000000000000 DUP2 MSTORE PUSH1 0x4 ADD PUSH2 0x159E SWAP1 PUSH2 0x4F58 JUMP JUMPDEST PUSH1 0x40 MLOAD DUP1 SWAP2 SUB SWAP1 REVERT JUMPDEST PUSH1 0x5 PUSH0 DUP2 SLOAD DUP1 SWAP3 SWAP2 SWAP1 PUSH2 0x15B9 SWAP1 PUSH2 0x4F76 JUMP JUMPDEST SWAP2 SWAP1 POP SSTORE POP PUSH1 0x7 PUSH0 PUSH2 0x100 EXP DUP2 SLOAD SWAP1 PUSH1 0xFF MUL NOT AND SWAP1 SSTORE PUSH32 0x0 PUSH20 0xFFFFFFFFFFFFFFFFFFFFFFFFFFFFFFFFFFFFFFFF AND PUSH32 0x3B3128F7F622FF2560E38BE1B058B93BA3D585CBA51577708F3DA9D6FE4CD925 PUSH1 0x5 SLOAD PUSH1 0x40 MLOAD PUSH2 0x1637 SWAP2 SWAP1 PUSH2 0x4822 JUMP JUMPDEST PUSH1 0x40 MLOAD DUP1 SWAP2 SUB SWAP1 LOG2 JUMP JUMPDEST PUSH1 0x9 PUSH1 0x1 SWAP1 SLOAD SWAP1 PUSH2 0x100 EXP SWAP1 DIV PUSH6 0xFFFFFFFFFFFF AND DUP2 JUMP JUMPDEST PUSH32 0x0 DUP2 JUMP JUMPDEST PUSH2 0x1685 PUSH2 0x445C JUMP JUMPDEST PUSH32 0x0 PUSH20 0xFFFFFFFFFFFFFFFFFFFFFFFFFFFFFFFFFFFFFFFF AND CALLER PUSH20 0xFFFFFFFFFFFFFFFFFFFFFFFFFFFFFFFFFFFFFFFF AND EQ PUSH2 0x1713 JUMPI PUSH1 0x40 MLOAD PUSH32 0x8C379A000000000000000000000000000000000000000000000000000000000 DUP2 MSTORE PUSH1 0x4 ADD PUSH2 0x170A SWAP1 PUSH2 0x502D JUMP JUMPDEST PUSH1 0x40 MLOAD DUP1 SWAP2 SUB SWAP1 REVERT JUMPDEST PUSH0 PUSH1 0x2 DUP2 GT ISZERO PUSH2 0x1726 JUMPI PUSH2 0x1725 PUSH2 0x477E JUMP JUMPDEST JUMPDEST PUSH1 0x9 PUSH1 0x7 SWAP1 SLOAD SWAP1 PUSH2 0x100 EXP SWAP1 DIV PUSH1 0xFF AND PUSH1 0x2 DUP2 GT ISZERO PUSH2 0x1748 JUMPI PUSH2 0x1747 PUSH2 0x477E JUMP JUMPDEST JUMPDEST EQ PUSH2 0x1788 JUMPI PUSH1 0x40 MLOAD PUSH32 0x8C379A000000000000000000000000000000000000000000000000000000000 DUP2 MSTORE PUSH1 0x4 ADD PUSH2 0x177F SWAP1 PUSH2 0x5095 JUMP JUMPDEST PUSH1 0x40 MLOAD DUP1 SWAP2 SUB SWAP1 REVERT JUMPDEST PUSH0 PUSH32 0x0 SWAP1 POP PUSH0 PUSH32 0x0 SWAP1 POP PUSH0 PUSH1 0x2 SLOAD SWAP1 POP PUSH0 PUSH32 0x0 SWAP1 POP PUSH0 DUP5 ISZERO PUSH2 0x1969 JUMPI PUSH0 CALLVALUE EQ PUSH2 0x1843 JUMPI PUSH1 0x40 MLOAD PUSH32 0x8C379A000000000000000000000000000000000000000000000000000000000 DUP2 MSTORE PUSH1 0x4 ADD PUSH2 0x183A SWAP1 PUSH2 0x5123 JUMP JUMPDEST PUSH1 0x40 MLOAD DUP1 SWAP2 SUB SWAP1 REVERT JUMPDEST DUP4 SWAP1 POP CALLER PUSH20 0xFFFFFFFFFFFFFFFFFFFFFFFFFFFFFFFFFFFFFFFF AND PUSH32 0xD843B6E8D49F0E65C61FB0C27466E0719DF02E1CA2340E577C3E289C1AC9154C DUP3 DUP8 PUSH1 0x40 MLOAD PUSH2 0x188E SWAP3 SWAP2 SWAP1 PUSH2 0x5141 JUMP JUMPDEST PUSH1 0x40 MLOAD DUP1 SWAP2 SUB SWAP1 LOG2 DUP2 PUSH20 0xFFFFFFFFFFFFFFFFFFFFFFFFFFFFFFFFFFFFFFFF AND PUSH4 0x23B872DD CALLER ADDRESS DUP5 PUSH1 0x40 MLOAD DUP5 PUSH4 0xFFFFFFFF AND PUSH1 0xE0 SHL DUP2 MSTORE PUSH1 0x4 ADD PUSH2 0x18D3 SWAP4 SWAP3 SWAP2 SWAP1 PUSH2 0x5168 JUMP JUMPDEST PUSH1 0x20 PUSH1 0x40 MLOAD DUP1 DUP4 SUB DUP2 PUSH0 DUP8 GAS CALL ISZERO DUP1 ISZERO PUSH2 0x18EF JUMPI RETURNDATASIZE PUSH0 PUSH0 RETURNDATACOPY RETURNDATASIZE PUSH0 REVERT JUMPDEST POP POP POP POP PUSH1 0x40 MLOAD RETURNDATASIZE PUSH1 0x1F NOT PUSH1 0x1F DUP3 ADD AND DUP3 ADD DUP1 PUSH1 0x40 MSTORE POP DUP2 ADD SWAP1 PUSH2 0x1913 SWAP2 SWAP1 PUSH2 0x51C7 JUMP JUMPDEST PUSH2 0x1952 JUMPI PUSH1 0x40 MLOAD PUSH32 0x8C379A000000000000000000000000000000000000000000000000000000000 DUP2 MSTORE PUSH1 0x4 ADD PUSH2 0x1949 SWAP1 PUSH2 0x523C JUMP JUMPDEST PUSH1 0x40 MLOAD DUP1 SWAP2 SUB SWAP1 REVERT JUMPDEST DUP1 DUP4 PUSH2 0x195E SWAP2 SWAP1 PUSH2 0x4C8F JUMP JUMPDEST PUSH1 0x2 DUP2 SWAP1 SSTORE POP PUSH2 0x1ABC JUMP JUMPDEST PUSH0 PUSH2 0x1972 PUSH2 0x21A0 JUMP JUMPDEST SWAP1 POP DUP1 PUSH11 0x52B7D2DCC80CD2E4000000 PUSH32 0x0 PUSH2 0x19AC SWAP2 SWAP1 PUSH2 0x4EA5 JUMP JUMPDEST PUSH2 0x19B6 SWAP2 SWAP1 PUSH2 0x4D8A JUMP JUMPDEST SWAP2 POP DUP2 CALLVALUE LT ISZERO PUSH2 0x19FB JUMPI PUSH1 0x40 MLOAD PUSH32 0x8C379A000000000000000000000000000000000000000000000000000000000 DUP2 MSTORE PUSH1 0x4 ADD PUSH2 0x19F2 SWAP1 PUSH2 0x52A4 JUMP JUMPDEST PUSH1 0x40 MLOAD DUP1 SWAP2 SUB SWAP1 REVERT JUMPDEST PUSH0 DUP3 CALLVALUE PUSH2 0x1A08 SWAP2 SWAP1 PUSH2 0x4D2A JUMP JUMPDEST SWAP1 POP PUSH0 DUP2 GT ISZERO PUSH2 0x1AA7 JUMPI CALLER PUSH20 0xFFFFFFFFFFFFFFFFFFFFFFFFFFFFFFFFFFFFFFFF AND PUSH32 0xD843B6E8D49F0E65C61FB0C27466E0719DF02E1CA2340E577C3E289C1AC9154C DUP5 DUP10 PUSH1 0x40 MLOAD PUSH2 0x1A5A SWAP3 SWAP2 SWAP1 PUSH2 0x5141 JUMP JUMPDEST PUSH1 0x40 MLOAD DUP1 SWAP2 SUB SWAP1 LOG2 CALLER PUSH20 0xFFFFFFFFFFFFFFFFFFFFFFFFFFFFFFFFFFFFFFFF AND PUSH2 0x8FC DUP3 SWAP1 DUP2 ISZERO MUL SWAP1 PUSH1 0x40 MLOAD PUSH0 PUSH1 0x40 MLOAD DUP1 DUP4 SUB DUP2 DUP6 DUP9 DUP9 CALL SWAP4 POP POP POP POP ISZERO DUP1 ISZERO PUSH2 0x1AA5 JUMPI RETURNDATASIZE PUSH0 PUSH0 RETURNDATACOPY RETURNDATASIZE PUSH0 REVERT JUMPDEST POP JUMPDEST DUP3 DUP6 PUSH2 0x1AB3 SWAP2 SWAP1 PUSH2 0x4C8F JUMP JUMPDEST PUSH1 0x2 DUP2 SWAP1 SSTORE POP POP POP JUMPDEST POP POP POP POP POP PUSH2 0x1AC9 PUSH2 0x44A9 JUMP JUMPDEST JUMP JUMPDEST PUSH1 0x2 SLOAD DUP2 JUMP JUMPDEST PUSH32 0x0 PUSH20 0xFFFFFFFFFFFFFFFFFFFFFFFFFFFFFFFFFFFFFFFF AND CALLER PUSH20 0xFFFFFFFFFFFFFFFFFFFFFFFFFFFFFFFFFFFFFFFF AND EQ PUSH2 0x1B5F JUMPI PUSH1 0x40 MLOAD PUSH32 0x8C379A000000000000000000000000000000000000000000000000000000000 DUP2 MSTORE PUSH1 0x4 ADD PUSH2 0x1B56 SWAP1 PUSH2 0x4B25 JUMP JUMPDEST PUSH1 0x40 MLOAD DUP1 SWAP2 SUB SWAP1 REVERT JUMPDEST PUSH1 0x7 DUP1 SLOAD SWAP1 PUSH2 0x100 EXP SWAP1 DIV PUSH6 0xFFFFFFFFFFFF AND PUSH6 0xFFFFFFFFFFFF AND TIMESTAMP LT ISZERO PUSH2 0x1BBC JUMPI PUSH1 0x40 MLOAD PUSH32 0x8C379A000000000000000000000000000000000000000000000000000000000 DUP2 MSTORE PUSH1 0x4 ADD PUSH2 0x1BB3 SWAP1 PUSH2 0x530C JUMP JUMPDEST PUSH1 0x40 MLOAD DUP1 SWAP2 SUB SWAP1 REVERT JUMPDEST PUSH1 0x7 PUSH1 0x14 SWAP1 SLOAD SWAP1 PUSH2 0x100 EXP SWAP1 DIV PUSH1 0xFF AND ISZERO DUP1 PUSH2 0x1BE5 JUMPI POP PUSH1 0x7 PUSH1 0x13 SWAP1 SLOAD SWAP1 PUSH2 0x100 EXP SWAP1 DIV PUSH1 0xFF AND ISZERO JUMPDEST PUSH2 0x1C24 JUMPI PUSH1 0x40 MLOAD PUSH32 0x8C379A000000000000000000000000000000000000000000000000000000000 DUP2 MSTORE PUSH1 0x4 ADD PUSH2 0x1C1B SWAP1 PUSH2 0x5374 JUMP JUMPDEST PUSH1 0x40 MLOAD DUP1 SWAP2 SUB SWAP1 REVERT JUMPDEST PUSH1 0x1 PUSH1 0x9 PUSH1 0x7 PUSH2 0x100 EXP DUP2 SLOAD DUP2 PUSH1 0xFF MUL NOT AND SWAP1 DUP4 PUSH1 0x2 DUP2 GT ISZERO PUSH2 0x1C4A JUMPI PUSH2 0x1C49 PUSH2 0x477E JUMP JUMPDEST JUMPDEST MUL OR SWAP1 SSTORE POP PUSH32 0x0 PUSH20 0xFFFFFFFFFFFFFFFFFFFFFFFFFFFFFFFFFFFFFFFF AND PUSH32 0x7B73F5D770F3EB41FD57F1E6A1C9E2A5EC61FEBBBD4E608D511C46E3FD611639 PUSH1 0x40 MLOAD PUSH2 0x1CB3 SWAP1 PUSH2 0x53DC JUMP JUMPDEST PUSH1 0x40 MLOAD DUP1 SWAP2 SUB SWAP1 LOG2 JUMP JUMPDEST PUSH1 0x6 SLOAD DUP2 JUMP JUMPDEST PUSH1 0x7 PUSH1 0x13 SWAP1 SLOAD SWAP1 PUSH2 0x100 EXP SWAP1 DIV PUSH1 0xFF AND DUP2 JUMP JUMPDEST PUSH2 0x1CDE PUSH2 0x445C JUMP JUMPDEST PUSH32 0x0 PUSH20 0xFFFFFFFFFFFFFFFFFFFFFFFFFFFFFFFFFFFFFFFF AND CALLER PUSH20 0xFFFFFFFFFFFFFFFFFFFFFFFFFFFFFFFFFFFFFFFF AND EQ PUSH2 0x1D6C JUMPI PUSH1 0x40 MLOAD PUSH32 0x8C379A000000000000000000000000000000000000000000000000000000000 DUP2 MSTORE PUSH1 0x4 ADD PUSH2 0x1D63 SWAP1 PUSH2 0x4B25 JUMP JUMPDEST PUSH1 0x40 MLOAD DUP1 SWAP2 SUB SWAP1 REVERT JUMPDEST PUSH1 0x1 PUSH1 0x2 DUP2 GT ISZERO PUSH2 0x1D80 JUMPI PUSH2 0x1D7F PUSH2 0x477E JUMP JUMPDEST JUMPDEST PUSH1 0x9 PUSH1 0x7 SWAP1 SLOAD SWAP1 PUSH2 0x100 EXP SWAP1 DIV PUSH1 0xFF AND PUSH1 0x2 DUP2 GT ISZERO PUSH2 0x1DA2 JUMPI PUSH2 0x1DA1 PUSH2 0x477E JUMP JUMPDEST JUMPDEST EQ PUSH2 0x1DE2 JUMPI PUSH1 0x40 MLOAD PUSH32 0x8C379A000000000000000000000000000000000000000000000000000000000 DUP2 MSTORE PUSH1 0x4 ADD PUSH2 0x1DD9 SWAP1 PUSH2 0x5444 JUMP JUMPDEST PUSH1 0x40 MLOAD DUP1 SWAP2 SUB SWAP1 REVERT JUMPDEST PUSH0 PUSH32 0x0 SWAP1 POP PUSH0 PUSH2 0x1E0F PUSH2 0x1319 JUMP JUMPDEST SWAP1 POP PUSH1 0x2 PUSH0 SWAP1 SSTORE PUSH32 0x0 ISZERO PUSH2 0x1F69 JUMPI DUP2 PUSH20 0xFFFFFFFFFFFFFFFFFFFFFFFFFFFFFFFFFFFFFFFF AND PUSH32 0xA09244C122A83074363635DC89CE0098166C2F74827960FF64A7C8E6AD1C57A2 DUP3 PUSH1 0x40 MLOAD PUSH2 0x1E82 SWAP2 SWAP1 PUSH2 0x4822 JUMP JUMPDEST PUSH1 0x40 MLOAD DUP1 SWAP2 SUB SWAP1 LOG2 PUSH32 0x0 PUSH20 0xFFFFFFFFFFFFFFFFFFFFFFFFFFFFFFFFFFFFFFFF AND PUSH4 0xA9059CBB DUP4 DUP4 PUSH1 0x40 MLOAD DUP4 PUSH4 0xFFFFFFFF AND PUSH1 0xE0 SHL DUP2 MSTORE PUSH1 0x4 ADD PUSH2 0x1EE5 SWAP3 SWAP2 SWAP1 PUSH2 0x5462 JUMP JUMPDEST PUSH1 0x20 PUSH1 0x40 MLOAD DUP1 DUP4 SUB DUP2 PUSH0 DUP8 GAS CALL ISZERO DUP1 ISZERO PUSH2 0x1F01 JUMPI RETURNDATASIZE PUSH0 PUSH0 RETURNDATACOPY RETURNDATASIZE PUSH0 REVERT JUMPDEST POP POP POP POP PUSH1 0x40 MLOAD RETURNDATASIZE PUSH1 0x1F NOT PUSH1 0x1F DUP3 ADD AND DUP3 ADD DUP1 PUSH1 0x40 MSTORE POP DUP2 ADD SWAP1 PUSH2 0x1F25 SWAP2 SWAP1 PUSH2 0x51C7 JUMP JUMPDEST PUSH2 0x1F64 JUMPI PUSH1 0x40 MLOAD PUSH32 0x8C379A000000000000000000000000000000000000000000000000000000000 DUP2 MSTORE PUSH1 0x4 ADD PUSH2 0x1F5B SWAP1 PUSH2 0x54D3 JUMP JUMPDEST PUSH1 0x40 MLOAD DUP1 SWAP2 SUB SWAP1 REVERT JUMPDEST PUSH2 0x1FFC JUMP JUMPDEST DUP2 PUSH20 0xFFFFFFFFFFFFFFFFFFFFFFFFFFFFFFFFFFFFFFFF AND PUSH32 0xA09244C122A83074363635DC89CE0098166C2F74827960FF64A7C8E6AD1C57A2 DUP3 PUSH1 0x40 MLOAD PUSH2 0x1FAF SWAP2 SWAP1 PUSH2 0x4822 JUMP JUMPDEST PUSH1 0x40 MLOAD DUP1 SWAP2 SUB SWAP1 LOG2 DUP2 PUSH20 0xFFFFFFFFFFFFFFFFFFFFFFFFFFFFFFFFFFFFFFFF AND PUSH2 0x8FC DUP3 SWAP1 DUP2 ISZERO MUL SWAP1 PUSH1 0x40 MLOAD PUSH0 PUSH1 0x40 MLOAD DUP1 DUP4 SUB DUP2 DUP6 DUP9 DUP9 CALL SWAP4 POP POP POP POP ISZERO DUP1 ISZERO PUSH2 0x1FFA JUMPI RETURNDATASIZE PUSH0 PUSH0 RETURNDATACOPY RETURNDATASIZE PUSH0 REVERT JUMPDEST POP JUMPDEST POP POP PUSH2 0x2006 PUSH2 0x44A9 JUMP JUMPDEST JUMP JUMPDEST PUSH1 0x7 PUSH1 0x1 SWAP1 SLOAD SWAP1 PUSH2 0x100 EXP SWAP1 DIV PUSH6 0xFFFFFFFFFFFF AND DUP2 JUMP JUMPDEST PUSH0 PUSH32 0x0 PUSH20 0xFFFFFFFFFFFFFFFFFFFFFFFFFFFFFFFFFFFFFFFF AND CALLER PUSH20 0xFFFFFFFFFFFFFFFFFFFFFFFFFFFFFFFFFFFFFFFF AND EQ DUP1 PUSH2 0x20C6 JUMPI POP PUSH32 0x0 PUSH20 0xFFFFFFFFFFFFFFFFFFFFFFFFFFFFFFFFFFFFFFFF AND CALLER PUSH20 0xFFFFFFFFFFFFFFFFFFFFFFFFFFFFFFFFFFFFFFFF AND EQ JUMPDEST PUSH2 0x2105 JUMPI PUSH1 0x40 MLOAD PUSH32 0x8C379A000000000000000000000000000000000000000000000000000000000 DUP2 MSTORE PUSH1 0x4 ADD PUSH2 0x20FC SWAP1 PUSH2 0x4BB3 JUMP JUMPDEST PUSH1 0x40 MLOAD DUP1 SWAP2 SUB SWAP1 REVERT JUMPDEST PUSH0 PUSH32 0x0 PUSH20 0xFFFFFFFFFFFFFFFFFFFFFFFFFFFFFFFFFFFFFFFF AND PUSH4 0xFEAF968C PUSH1 0x40 MLOAD DUP2 PUSH4 0xFFFFFFFF AND PUSH1 0xE0 SHL DUP2 MSTORE PUSH1 0x4 ADD PUSH1 0xA0 PUSH1 0x40 MLOAD DUP1 DUP4 SUB DUP2 DUP7 GAS STATICCALL ISZERO DUP1 ISZERO PUSH2 0x216F JUMPI RETURNDATASIZE PUSH0 PUSH0 RETURNDATACOPY RETURNDATASIZE PUSH0 REVERT JUMPDEST POP POP POP POP PUSH1 0x40 MLOAD RETURNDATASIZE PUSH1 0x1F NOT PUSH1 0x1F DUP3 ADD AND DUP3 ADD DUP1 PUSH1 0x40 MSTORE POP DUP2 ADD SWAP1 PUSH2 0x2193 SWAP2 SWAP1 PUSH2 0x5563 JUMP JUMPDEST POP POP POP SWAP2 POP POP DUP1 SWAP2 POP POP SWAP1 JUMP JUMPDEST PUSH0 PUSH32 0x0 PUSH20 0xFFFFFFFFFFFFFFFFFFFFFFFFFFFFFFFFFFFFFFFF AND CALLER PUSH20 0xFFFFFFFFFFFFFFFFFFFFFFFFFFFFFFFFFFFFFFFF AND EQ DUP1 PUSH2 0x2246 JUMPI POP PUSH32 0x0 PUSH20 0xFFFFFFFFFFFFFFFFFFFFFFFFFFFFFFFFFFFFFFFF AND CALLER PUSH20 0xFFFFFFFFFFFFFFFFFFFFFFFFFFFFFFFFFFFFFFFF AND EQ JUMPDEST PUSH2 0x2285 JUMPI PUSH1 0x40 MLOAD PUSH32 0x8C379A000000000000000000000000000000000000000000000000000000000 DUP2 MSTORE PUSH1 0x4 ADD PUSH2 0x227C SWAP1 PUSH2 0x4BB3 JUMP JUMPDEST PUSH1 0x40 MLOAD DUP1 SWAP2 SUB SWAP1 REVERT JUMPDEST PUSH0 PUSH32 0x0 PUSH20 0xFFFFFFFFFFFFFFFFFFFFFFFFFFFFFFFFFFFFFFFF AND PUSH4 0xFEAF968C PUSH1 0x40 MLOAD DUP2 PUSH4 0xFFFFFFFF AND PUSH1 0xE0 SHL DUP2 MSTORE PUSH1 0x4 ADD PUSH1 0xA0 PUSH1 0x40 MLOAD DUP1 DUP4 SUB DUP2 DUP7 GAS STATICCALL ISZERO DUP1 ISZERO PUSH2 0x22EF JUMPI RETURNDATASIZE PUSH0 PUSH0 RETURNDATACOPY RETURNDATASIZE PUSH0 REVERT JUMPDEST POP POP POP POP PUSH1 0x40 MLOAD RETURNDATASIZE PUSH1 0x1F NOT PUSH1 0x1F DUP3 ADD AND DUP3 ADD DUP1 PUSH1 0x40 MSTORE POP DUP2 ADD SWAP1 PUSH2 0x2313 SWAP2 SWAP1 PUSH2 0x5563 JUMP JUMPDEST POP POP POP SWAP2 POP POP PUSH4 0x5F5E100 DUP2 PUSH2 0x2329 SWAP2 SWAP1 PUSH2 0x55DA JUMP JUMPDEST SWAP2 POP POP SWAP1 JUMP JUMPDEST PUSH2 0x2337 PUSH2 0x445C JUMP JUMPDEST PUSH32 0x0 PUSH20 0xFFFFFFFFFFFFFFFFFFFFFFFFFFFFFFFFFFFFFFFF AND CALLER PUSH20 0xFFFFFFFFFFFFFFFFFFFFFFFFFFFFFFFFFFFFFFFF AND EQ PUSH2 0x23C5 JUMPI PUSH1 0x40 MLOAD PUSH32 0x8C379A000000000000000000000000000000000000000000000000000000000 DUP2 MSTORE PUSH1 0x4 ADD PUSH2 0x23BC SWAP1 PUSH2 0x4B25 JUMP JUMPDEST PUSH1 0x40 MLOAD DUP1 SWAP2 SUB SWAP1 REVERT JUMPDEST PUSH0 PUSH32 0x0 SWAP1 POP PUSH0 PUSH1 0x2 SLOAD SWAP1 POP PUSH0 PUSH1 0x3 SLOAD SWAP1 POP PUSH0 PUSH32 0x0 SWAP1 POP PUSH0 PUSH32 0x0 SWAP1 POP PUSH0 DUP6 ISZERO PUSH2 0x25D0 JUMPI PUSH8 0xDE0B6B3A7640000 DUP9 PUSH2 0x2458 SWAP2 SWAP1 PUSH2 0x4EA5 JUMP JUMPDEST SWAP1 POP DUP5 DUP2 GT ISZERO PUSH2 0x249D JUMPI PUSH1 0x40 MLOAD PUSH32 0x8C379A000000000000000000000000000000000000000000000000000000000 DUP2 MSTORE PUSH1 0x4 ADD PUSH2 0x2494 SWAP1 PUSH2 0x569A JUMP JUMPDEST PUSH1 0x40 MLOAD DUP1 SWAP2 SUB SWAP1 REVERT JUMPDEST DUP1 DUP6 PUSH2 0x24A9 SWAP2 SWAP1 PUSH2 0x4D2A JUMP JUMPDEST PUSH1 0x2 DUP2 SWAP1 SSTORE POP DUP1 DUP5 PUSH2 0x24BB SWAP2 SWAP1 PUSH2 0x4C8F JUMP JUMPDEST PUSH1 0x3 DUP2 SWAP1 SSTORE POP DUP2 PUSH20 0xFFFFFFFFFFFFFFFFFFFFFFFFFFFFFFFFFFFFFFFF AND PUSH32 0xE71DB61460CADE63BDCE2BD520284D5FCDE93EB8604BE23456AC0761C5CB4D9 DUP3 DUP10 PUSH1 0x40 MLOAD PUSH2 0x2509 SWAP3 SWAP2 SWAP1 PUSH2 0x56B8 JUMP JUMPDEST PUSH1 0x40 MLOAD DUP1 SWAP2 SUB SWAP1 LOG2 DUP3 PUSH20 0xFFFFFFFFFFFFFFFFFFFFFFFFFFFFFFFFFFFFFFFF AND PUSH4 0xA9059CBB DUP4 DUP4 PUSH1 0x40 MLOAD DUP4 PUSH4 0xFFFFFFFF AND PUSH1 0xE0 SHL DUP2 MSTORE PUSH1 0x4 ADD PUSH2 0x254C SWAP3 SWAP2 SWAP1 PUSH2 0x5462 JUMP JUMPDEST PUSH1 0x20 PUSH1 0x40 MLOAD DUP1 DUP4 SUB DUP2 PUSH0 DUP8 GAS CALL ISZERO DUP1 ISZERO PUSH2 0x2568 JUMPI RETURNDATASIZE PUSH0 PUSH0 RETURNDATACOPY RETURNDATASIZE PUSH0 REVERT JUMPDEST POP POP POP POP PUSH1 0x40 MLOAD RETURNDATASIZE PUSH1 0x1F NOT PUSH1 0x1F DUP3 ADD AND DUP3 ADD DUP1 PUSH1 0x40 MSTORE POP DUP2 ADD SWAP1 PUSH2 0x258C SWAP2 SWAP1 PUSH2 0x51C7 JUMP JUMPDEST PUSH2 0x25CB JUMPI PUSH1 0x40 MLOAD PUSH32 0x8C379A000000000000000000000000000000000000000000000000000000000 DUP2 MSTORE PUSH1 0x4 ADD PUSH2 0x25C2 SWAP1 PUSH2 0x5730 JUMP JUMPDEST PUSH1 0x40 MLOAD DUP1 SWAP2 SUB SWAP1 REVERT JUMPDEST PUSH2 0x270A JUMP JUMPDEST PUSH0 PUSH2 0x25D9 PUSH2 0x21A0 JUMP JUMPDEST SWAP1 POP DUP1 PUSH4 0x5F5E100 PUSH8 0xDE0B6B3A7640000 DUP12 PUSH2 0x25F5 SWAP2 SWAP1 PUSH2 0x4EA5 JUMP JUMPDEST PUSH2 0x25FF SWAP2 SWAP1 PUSH2 0x4EA5 JUMP JUMPDEST PUSH2 0x2609 SWAP2 SWAP1 PUSH2 0x4D8A JUMP JUMPDEST SWAP2 POP PUSH1 0x2 SLOAD DUP3 GT ISZERO PUSH2 0x2650 JUMPI PUSH1 0x40 MLOAD PUSH32 0x8C379A000000000000000000000000000000000000000000000000000000000 DUP2 MSTORE PUSH1 0x4 ADD PUSH2 0x2647 SWAP1 PUSH2 0x569A JUMP JUMPDEST PUSH1 0x40 MLOAD DUP1 SWAP2 SUB SWAP1 REVERT JUMPDEST DUP2 DUP7 PUSH2 0x265C SWAP2 SWAP1 PUSH2 0x4D2A JUMP JUMPDEST PUSH1 0x2 DUP2 SWAP1 SSTORE POP DUP2 DUP6 PUSH2 0x266E SWAP2 SWAP1 PUSH2 0x4C8F JUMP JUMPDEST PUSH1 0x3 DUP2 SWAP1 SSTORE POP DUP3 PUSH20 0xFFFFFFFFFFFFFFFFFFFFFFFFFFFFFFFFFFFFFFFF AND PUSH32 0xE71DB61460CADE63BDCE2BD520284D5FCDE93EB8604BE23456AC0761C5CB4D9 DUP4 DUP11 PUSH1 0x40 MLOAD PUSH2 0x26BC SWAP3 SWAP2 SWAP1 PUSH2 0x56B8 JUMP JUMPDEST PUSH1 0x40 MLOAD DUP1 SWAP2 SUB SWAP1 LOG2 DUP3 PUSH20 0xFFFFFFFFFFFFFFFFFFFFFFFFFFFFFFFFFFFFFFFF AND PUSH2 0x8FC DUP4 SWAP1 DUP2 ISZERO MUL SWAP1 PUSH1 0x40 MLOAD PUSH0 PUSH1 0x40 MLOAD DUP1 DUP4 SUB DUP2 DUP6 DUP9 DUP9 CALL SWAP4 POP POP POP POP ISZERO DUP1 ISZERO PUSH2 0x2707 JUMPI RETURNDATASIZE PUSH0 PUSH0 RETURNDATACOPY RETURNDATASIZE PUSH0 REVERT JUMPDEST POP POP JUMPDEST POP POP POP POP POP POP PUSH2 0x2718 PUSH2 0x44A9 JUMP JUMPDEST POP POP JUMP JUMPDEST PUSH32 0x0 PUSH20 0xFFFFFFFFFFFFFFFFFFFFFFFFFFFFFFFFFFFFFFFF AND CALLER PUSH20 0xFFFFFFFFFFFFFFFFFFFFFFFFFFFFFFFFFFFFFFFF AND EQ PUSH2 0x27AA JUMPI PUSH1 0x40 MLOAD PUSH32 0x8C379A000000000000000000000000000000000000000000000000000000000 DUP2 MSTORE PUSH1 0x4 ADD PUSH2 0x27A1 SWAP1 PUSH2 0x502D JUMP JUMPDEST PUSH1 0x40 MLOAD DUP1 SWAP2 SUB SWAP1 REVERT JUMPDEST PUSH1 0x2 DUP1 DUP2 GT ISZERO PUSH2 0x27BD JUMPI PUSH2 0x27BC PUSH2 0x477E JUMP JUMPDEST JUMPDEST PUSH1 0x9 PUSH1 0x7 SWAP1 SLOAD SWAP1 PUSH2 0x100 EXP SWAP1 DIV PUSH1 0xFF AND PUSH1 0x2 DUP2 GT ISZERO PUSH2 0x27DF JUMPI PUSH2 0x27DE PUSH2 0x477E JUMP JUMPDEST JUMPDEST EQ PUSH2 0x281F JUMPI PUSH1 0x40 MLOAD PUSH32 0x8C379A000000000000000000000000000000000000000000000000000000000 DUP2 MSTORE PUSH1 0x4 ADD PUSH2 0x2816 SWAP1 PUSH2 0x57BE JUMP JUMPDEST PUSH1 0x40 MLOAD DUP1 SWAP2 SUB SWAP1 REVERT JUMPDEST PUSH1 0x9 PUSH0 SWAP1 SLOAD SWAP1 PUSH2 0x100 EXP SWAP1 DIV PUSH1 0xFF AND PUSH2 0x286D JUMPI PUSH1 0x40 MLOAD PUSH32 0x8C379A000000000000000000000000000000000000000000000000000000000 DUP2 MSTORE PUSH1 0x4 ADD PUSH2 0x2864 SWAP1 PUSH2 0x584C JUMP JUMPDEST PUSH1 0x40 MLOAD DUP1 SWAP2 SUB SWAP1 REVERT JUMPDEST PUSH1 0x1 PUSH1 0x9 PUSH1 0x7 PUSH2 0x100 EXP DUP2 SLOAD DUP2 PUSH1 0xFF MUL NOT AND SWAP1 DUP4 PUSH1 0x2 DUP2 GT ISZERO PUSH2 0x2893 JUMPI PUSH2 0x2892 PUSH2 0x477E JUMP JUMPDEST JUMPDEST MUL OR SWAP1 SSTORE POP PUSH1 0x9 PUSH0 PUSH2 0x100 EXP DUP2 SLOAD SWAP1 PUSH1 0xFF MUL NOT AND SWAP1 SSTORE CALLER PUSH20 0xFFFFFFFFFFFFFFFFFFFFFFFFFFFFFFFFFFFFFFFF AND PUSH32 0x7B73F5D770F3EB41FD57F1E6A1C9E2A5EC61FEBBBD4E608D511C46E3FD611639 PUSH1 0x40 MLOAD PUSH2 0x28ED SWAP1 PUSH2 0x58DA JUMP JUMPDEST PUSH1 0x40 MLOAD DUP1 SWAP2 SUB SWAP1 LOG2 JUMP JUMPDEST PUSH32 0x0 PUSH20 0xFFFFFFFFFFFFFFFFFFFFFFFFFFFFFFFFFFFFFFFF AND CALLER PUSH20 0xFFFFFFFFFFFFFFFFFFFFFFFFFFFFFFFFFFFFFFFF AND EQ PUSH2 0x2985 JUMPI PUSH1 0x40 MLOAD PUSH32 0x8C379A000000000000000000000000000000000000000000000000000000000 DUP2 MSTORE PUSH1 0x4 ADD PUSH2 0x297C SWAP1 PUSH2 0x502D JUMP JUMPDEST PUSH1 0x40 MLOAD DUP1 SWAP2 SUB SWAP1 REVERT JUMPDEST PUSH1 0x1 PUSH1 0x8 PUSH0 CALLER PUSH20 0xFFFFFFFFFFFFFFFFFFFFFFFFFFFFFFFFFFFFFFFF AND PUSH20 0xFFFFFFFFFFFFFFFFFFFFFFFFFFFFFFFFFFFFFFFF AND DUP2 MSTORE PUSH1 0x20 ADD SWAP1 DUP2 MSTORE PUSH1 0x20 ADD PUSH0 KECCAK256 PUSH0 PUSH2 0x100 EXP DUP2 SLOAD DUP2 PUSH1 0xFF MUL NOT AND SWAP1 DUP4 ISZERO ISZERO MUL OR SWAP1 SSTORE POP PUSH32 0x0 PUSH20 0xFFFFFFFFFFFFFFFFFFFFFFFFFFFFFFFFFFFFFFFF AND PUSH32 0xDF1017ADA2ABFF5F3789875C04505D4ECF56892B84E1BC945672AF34B65308AD PUSH1 0x40 MLOAD PUSH1 0x40 MLOAD DUP1 SWAP2 SUB SWAP1 LOG2 JUMP JUMPDEST PUSH1 0xA DUP2 DUP2 SLOAD DUP2 LT PUSH2 0x2A4E JUMPI PUSH0 DUP1 REVERT JUMPDEST SWAP1 PUSH0 MSTORE PUSH1 0x20 PUSH0 KECCAK256 SWAP1 PUSH1 0x3 MUL ADD PUSH0 SWAP2 POP SWAP1 POP DUP1 PUSH0 ADD PUSH0 SWAP1 SLOAD SWAP1 PUSH2 0x100 EXP SWAP1 DIV PUSH6 0xFFFFFFFFFFFF AND SWAP1 DUP1 PUSH1 0x1 ADD SLOAD SWAP1 DUP1 PUSH1 0x2 ADD PUSH0 SWAP1 SLOAD SWAP1 PUSH2 0x100 EXP SWAP1 DIV PUSH1 0xFF AND SWAP1 POP DUP4 JUMP JUMPDEST PUSH2 0x2A99 PUSH2 0x445C JUMP JUMPDEST PUSH32 0x0 PUSH20 0xFFFFFFFFFFFFFFFFFFFFFFFFFFFFFFFFFFFFFFFF AND CALLER PUSH20 0xFFFFFFFFFFFFFFFFFFFFFFFFFFFFFFFFFFFFFFFF AND EQ PUSH2 0x2B27 JUMPI PUSH1 0x40 MLOAD PUSH32 0x8C379A000000000000000000000000000000000000000000000000000000000 DUP2 MSTORE PUSH1 0x4 ADD PUSH2 0x2B1E SWAP1 PUSH2 0x502D JUMP JUMPDEST PUSH1 0x40 MLOAD DUP1 SWAP2 SUB SWAP1 REVERT JUMPDEST PUSH1 0x1 PUSH1 0x2 DUP2 GT ISZERO PUSH2 0x2B3B JUMPI PUSH2 0x2B3A PUSH2 0x477E JUMP JUMPDEST JUMPDEST PUSH1 0x9 PUSH1 0x7 SWAP1 SLOAD SWAP1 PUSH2 0x100 EXP SWAP1 DIV PUSH1 0xFF AND PUSH1 0x2 DUP2 GT ISZERO PUSH2 0x2B5D JUMPI PUSH2 0x2B5C PUSH2 0x477E JUMP JUMPDEST JUMPDEST SUB PUSH2 0x2B9D JUMPI PUSH1 0x40 MLOAD PUSH32 0x8C379A000000000000000000000000000000000000000000000000000000000 DUP2 MSTORE PUSH1 0x4 ADD PUSH2 0x2B94 SWAP1 PUSH2 0x5095 JUMP JUMPDEST PUSH1 0x40 MLOAD DUP1 SWAP2 SUB SWAP1 REVERT JUMPDEST PUSH2 0x2BA5 PUSH2 0xAB8 JUMP JUMPDEST PUSH0 PUSH32 0x0 SWAP1 POP PUSH0 PUSH32 0x0 SWAP1 POP PUSH0 PUSH32 0x0 SWAP1 POP PUSH0 PUSH1 0x6 SLOAD SWAP1 POP PUSH0 DUP5 ISZERO PUSH2 0x2D72 JUMPI DUP4 SWAP1 POP CALLER PUSH20 0xFFFFFFFFFFFFFFFFFFFFFFFFFFFFFFFFFFFFFFFF AND PUSH32 0xA0E44CC6F4F184BC83E145BF7F0CC703B7F698476124CF6A9D7D403D202E77FD DUP3 PUSH32 0x0 PUSH1 0x40 MLOAD PUSH2 0x2C89 SWAP3 SWAP2 SWAP1 PUSH2 0x5141 JUMP JUMPDEST PUSH1 0x40 MLOAD DUP1 SWAP2 SUB SWAP1 LOG2 PUSH32 0x0 PUSH20 0xFFFFFFFFFFFFFFFFFFFFFFFFFFFFFFFFFFFFFFFF AND PUSH4 0x23B872DD CALLER DUP6 DUP5 PUSH1 0x40 MLOAD DUP5 PUSH4 0xFFFFFFFF AND PUSH1 0xE0 SHL DUP2 MSTORE PUSH1 0x4 ADD PUSH2 0x2CEE SWAP4 SWAP3 SWAP2 SWAP1 PUSH2 0x5168 JUMP JUMPDEST PUSH1 0x20 PUSH1 0x40 MLOAD DUP1 DUP4 SUB DUP2 PUSH0 DUP8 GAS CALL ISZERO DUP1 ISZERO PUSH2 0x2D0A JUMPI RETURNDATASIZE PUSH0 PUSH0 RETURNDATACOPY RETURNDATASIZE PUSH0 REVERT JUMPDEST POP POP POP POP PUSH1 0x40 MLOAD RETURNDATASIZE PUSH1 0x1F NOT PUSH1 0x1F DUP3 ADD AND DUP3 ADD DUP1 PUSH1 0x40 MSTORE POP DUP2 ADD SWAP1 PUSH2 0x2D2E SWAP2 SWAP1 PUSH2 0x51C7 JUMP JUMPDEST PUSH2 0x2D6D JUMPI PUSH1 0x40 MLOAD PUSH32 0x8C379A000000000000000000000000000000000000000000000000000000000 DUP2 MSTORE PUSH1 0x4 ADD PUSH2 0x2D64 SWAP1 PUSH2 0x54D3 JUMP JUMPDEST PUSH1 0x40 MLOAD DUP1 SWAP2 SUB SWAP1 REVERT JUMPDEST PUSH2 0x2F31 JUMP JUMPDEST PUSH0 PUSH2 0x2D7B PUSH2 0x21A0 JUMP JUMPDEST SWAP1 POP DUP1 PUSH11 0x52B7D2DCC80CD2E4000000 DUP7 PUSH2 0x2D95 SWAP2 SWAP1 PUSH2 0x4EA5 JUMP JUMPDEST PUSH2 0x2D9F SWAP2 SWAP1 PUSH2 0x4D8A JUMP JUMPDEST SWAP2 POP DUP2 CALLVALUE LT ISZERO PUSH2 0x2DE4 JUMPI PUSH1 0x40 MLOAD PUSH32 0x8C379A000000000000000000000000000000000000000000000000000000000 DUP2 MSTORE PUSH1 0x4 ADD PUSH2 0x2DDB SWAP1 PUSH2 0x5942 JUMP JUMPDEST PUSH1 0x40 MLOAD DUP1 SWAP2 SUB SWAP1 REVERT JUMPDEST CALLER PUSH20 0xFFFFFFFFFFFFFFFFFFFFFFFFFFFFFFFFFFFFFFFF AND PUSH32 0xA0E44CC6F4F184BC83E145BF7F0CC703B7F698476124CF6A9D7D403D202E77FD DUP4 DUP9 PUSH1 0x40 MLOAD PUSH2 0x2E2C SWAP3 SWAP2 SWAP1 PUSH2 0x5141 JUMP JUMPDEST PUSH1 0x40 MLOAD DUP1 SWAP2 SUB SWAP1 LOG2 DUP4 PUSH20 0xFFFFFFFFFFFFFFFFFFFFFFFFFFFFFFFFFFFFFFFF AND PUSH2 0x8FC DUP4 SWAP1 DUP2 ISZERO MUL SWAP1 PUSH1 0x40 MLOAD PUSH0 PUSH1 0x40 MLOAD DUP1 DUP4 SUB DUP2 DUP6 DUP9 DUP9 CALL SWAP4 POP POP POP POP ISZERO DUP1 ISZERO PUSH2 0x2E77 JUMPI RETURNDATASIZE PUSH0 PUSH0 RETURNDATACOPY RETURNDATASIZE PUSH0 REVERT JUMPDEST POP DUP2 CALLVALUE GT DUP1 ISZERO PUSH2 0x2E87 JUMPI POP PUSH0 DUP4 GT ISZERO JUMPDEST ISZERO PUSH2 0x2F2F JUMPI PUSH0 DUP3 CALLVALUE PUSH2 0x2E99 SWAP2 SWAP1 PUSH2 0x4D2A JUMP JUMPDEST SWAP1 POP CALLER PUSH20 0xFFFFFFFFFFFFFFFFFFFFFFFFFFFFFFFFFFFFFFFF AND PUSH32 0xCB0B01AE40819885E744400ACEFD6C0DA6C2D19696C031BA7E73062BB8963179 DUP3 PUSH1 0x40 MLOAD PUSH2 0x2EE1 SWAP2 SWAP1 PUSH2 0x4822 JUMP JUMPDEST PUSH1 0x40 MLOAD DUP1 SWAP2 SUB SWAP1 LOG2 CALLER PUSH20 0xFFFFFFFFFFFFFFFFFFFFFFFFFFFFFFFFFFFFFFFF AND PUSH2 0x8FC DUP3 SWAP1 DUP2 ISZERO MUL SWAP1 PUSH1 0x40 MLOAD PUSH0 PUSH1 0x40 MLOAD DUP1 DUP4 SUB DUP2 DUP6 DUP9 DUP9 CALL SWAP4 POP POP POP POP ISZERO DUP1 ISZERO PUSH2 0x2F2C JUMPI RETURNDATASIZE PUSH0 PUSH0 RETURNDATACOPY RETURNDATASIZE PUSH0 REVERT JUMPDEST POP POP JUMPDEST POP JUMPDEST DUP1 DUP3 GT PUSH2 0x2F42 JUMPI PUSH1 0x6 PUSH0 SWAP1 SSTORE PUSH2 0x2F55 JUMP JUMPDEST DUP1 DUP3 PUSH2 0x2F4E SWAP2 SWAP1 PUSH2 0x4D2A JUMP JUMPDEST PUSH1 0x6 DUP2 SWAP1 SSTORE POP JUMPDEST PUSH1 0xA PUSH1 0x40 MLOAD DUP1 PUSH1 0x60 ADD PUSH1 0x40 MSTORE DUP1 TIMESTAMP PUSH6 0xFFFFFFFFFFFF AND DUP2 MSTORE PUSH1 0x20 ADD DUP4 DUP2 MSTORE PUSH1 0x20 ADD DUP8 ISZERO ISZERO DUP2 MSTORE POP SWAP1 DUP1 PUSH1 0x1 DUP2 SLOAD ADD DUP1 DUP3 SSTORE DUP1 SWAP2 POP POP PUSH1 0x1 SWAP1 SUB SWAP1 PUSH0 MSTORE PUSH1 0x20 PUSH0 KECCAK256 SWAP1 PUSH1 0x3 MUL ADD PUSH0 SWAP1 SWAP2 SWAP1 SWAP2 SWAP1 SWAP2 POP PUSH0 DUP3 ADD MLOAD DUP2 PUSH0 ADD PUSH0 PUSH2 0x100 EXP DUP2 SLOAD DUP2 PUSH6 0xFFFFFFFFFFFF MUL NOT AND SWAP1 DUP4 PUSH6 0xFFFFFFFFFFFF AND MUL OR SWAP1 SSTORE POP PUSH1 0x20 DUP3 ADD MLOAD DUP2 PUSH1 0x1 ADD SSTORE PUSH1 0x40 DUP3 ADD MLOAD DUP2 PUSH1 0x2 ADD PUSH0 PUSH2 0x100 EXP DUP2 SLOAD DUP2 PUSH1 0xFF MUL NOT AND SWAP1 DUP4 ISZERO ISZERO MUL OR SWAP1 SSTORE POP POP POP POP POP POP POP POP PUSH2 0x3002 PUSH2 0x44A9 JUMP JUMPDEST JUMP JUMPDEST PUSH32 0x0 PUSH20 0xFFFFFFFFFFFFFFFFFFFFFFFFFFFFFFFFFFFFFFFF AND CALLER PUSH20 0xFFFFFFFFFFFFFFFFFFFFFFFFFFFFFFFFFFFFFFFF AND EQ PUSH2 0x3092 JUMPI PUSH1 0x40 MLOAD PUSH32 0x8C379A000000000000000000000000000000000000000000000000000000000 DUP2 MSTORE PUSH1 0x4 ADD PUSH2 0x3089 SWAP1 PUSH2 0x502D JUMP JUMPDEST PUSH1 0x40 MLOAD DUP1 SWAP2 SUB SWAP1 REVERT JUMPDEST PUSH1 0x8 PUSH0 CALLER PUSH20 0xFFFFFFFFFFFFFFFFFFFFFFFFFFFFFFFFFFFFFFFF AND PUSH20 0xFFFFFFFFFFFFFFFFFFFFFFFFFFFFFFFFFFFFFFFF AND DUP2 MSTORE PUSH1 0x20 ADD SWAP1 DUP2 MSTORE PUSH1 0x20 ADD PUSH0 KECCAK256 PUSH0 PUSH2 0x100 EXP DUP2 SLOAD SWAP1 PUSH1 0xFF MUL NOT AND SWAP1 SSTORE PUSH32 0x0 PUSH20 0xFFFFFFFFFFFFFFFFFFFFFFFFFFFFFFFFFFFFFFFF AND PUSH32 0xEB93E38AAC72F8DBC7DE1DA759A24054E40C37A79E05CCEA9802AC2DC23287F7 PUSH1 0x40 MLOAD PUSH1 0x40 MLOAD DUP1 SWAP2 SUB SWAP1 LOG2 JUMP JUMPDEST PUSH32 0x0 DUP2 JUMP JUMPDEST PUSH1 0x60 PUSH32 0x0 PUSH20 0xFFFFFFFFFFFFFFFFFFFFFFFFFFFFFFFFFFFFFFFF AND CALLER PUSH20 0xFFFFFFFFFFFFFFFFFFFFFFFFFFFFFFFFFFFFFFFF AND EQ DUP1 PUSH2 0x320E JUMPI POP PUSH32 0x0 PUSH20 0xFFFFFFFFFFFFFFFFFFFFFFFFFFFFFFFFFFFFFFFF AND CALLER PUSH20 0xFFFFFFFFFFFFFFFFFFFFFFFFFFFFFFFFFFFFFFFF AND EQ JUMPDEST PUSH2 0x324D JUMPI PUSH1 0x40 MLOAD PUSH32 0x8C379A000000000000000000000000000000000000000000000000000000000 DUP2 MSTORE PUSH1 0x4 ADD PUSH2 0x3244 SWAP1 PUSH2 0x4BB3 JUMP JUMPDEST PUSH1 0x40 MLOAD DUP1 SWAP2 SUB SWAP1 REVERT JUMPDEST PUSH1 0xA DUP1 SLOAD DUP1 PUSH1 0x20 MUL PUSH1 0x20 ADD PUSH1 0x40 MLOAD SWAP1 DUP2 ADD PUSH1 0x40 MSTORE DUP1 SWAP3 SWAP2 SWAP1 DUP2 DUP2 MSTORE PUSH1 0x20 ADD PUSH0 SWAP1 JUMPDEST DUP3 DUP3 LT ISZERO PUSH2 0x32EC JUMPI DUP4 DUP3 SWAP1 PUSH0 MSTORE PUSH1 0x20 PUSH0 KECCAK256 SWAP1 PUSH1 0x3 MUL ADD PUSH1 0x40 MLOAD DUP1 PUSH1 0x60 ADD PUSH1 0x40 MSTORE SWAP1 DUP2 PUSH0 DUP3 ADD PUSH0 SWAP1 SLOAD SWAP1 PUSH2 0x100 EXP SWAP1 DIV PUSH6 0xFFFFFFFFFFFF AND PUSH6 0xFFFFFFFFFFFF AND PUSH6 0xFFFFFFFFFFFF AND DUP2 MSTORE PUSH1 0x20 ADD PUSH1 0x1 DUP3 ADD SLOAD DUP2 MSTORE PUSH1 0x20 ADD PUSH1 0x2 DUP3 ADD PUSH0 SWAP1 SLOAD SWAP1 PUSH2 0x100 EXP SWAP1 DIV PUSH1 0xFF AND ISZERO ISZERO ISZERO ISZERO DUP2 MSTORE POP POP DUP2 MSTORE PUSH1 0x20 ADD SWAP1 PUSH1 0x1 ADD SWAP1 PUSH2 0x326E JUMP JUMPDEST POP POP POP POP SWAP1 POP SWAP1 JUMP JUMPDEST PUSH1 0x60 PUSH32 0x0 PUSH20 0xFFFFFFFFFFFFFFFFFFFFFFFFFFFFFFFFFFFFFFFF AND CALLER PUSH20 0xFFFFFFFFFFFFFFFFFFFFFFFFFFFFFFFFFFFFFFFF AND EQ DUP1 PUSH2 0x339C JUMPI POP PUSH32 0x0 PUSH20 0xFFFFFFFFFFFFFFFFFFFFFFFFFFFFFFFFFFFFFFFF AND CALLER PUSH20 0xFFFFFFFFFFFFFFFFFFFFFFFFFFFFFFFFFFFFFFFF AND EQ JUMPDEST PUSH2 0x33DB JUMPI PUSH1 0x40 MLOAD PUSH32 0x8C379A000000000000000000000000000000000000000000000000000000000 DUP2 MSTORE PUSH1 0x4 ADD PUSH2 0x33D2 SWAP1 PUSH2 0x4BB3 JUMP JUMPDEST PUSH1 0x40 MLOAD DUP1 SWAP2 SUB SWAP1 REVERT JUMPDEST PUSH0 PUSH1 0x2 DUP2 GT ISZERO PUSH2 0x33EE JUMPI PUSH2 0x33ED PUSH2 0x477E JUMP JUMPDEST JUMPDEST PUSH1 0x9 PUSH1 0x7 SWAP1 SLOAD SWAP1 PUSH2 0x100 EXP SWAP1 DIV PUSH1 0xFF AND PUSH1 0x2 DUP2 GT ISZERO PUSH2 0x3410 JUMPI PUSH2 0x340F PUSH2 0x477E JUMP JUMPDEST JUMPDEST SUB PUSH2 0x3452 JUMPI PUSH1 0x40 MLOAD DUP1 PUSH1 0x40 ADD PUSH1 0x40 MSTORE DUP1 PUSH1 0x6 DUP2 MSTORE PUSH1 0x20 ADD PUSH32 0x4163746976650000000000000000000000000000000000000000000000000000 DUP2 MSTORE POP SWAP1 POP PUSH2 0x3503 JUMP JUMPDEST PUSH1 0x1 PUSH1 0x2 DUP2 GT ISZERO PUSH2 0x3466 JUMPI PUSH2 0x3465 PUSH2 0x477E JUMP JUMPDEST JUMPDEST PUSH1 0x9 PUSH1 0x7 SWAP1 SLOAD SWAP1 PUSH2 0x100 EXP SWAP1 DIV PUSH1 0xFF AND PUSH1 0x2 DUP2 GT ISZERO PUSH2 0x3488 JUMPI PUSH2 0x3487 PUSH2 0x477E JUMP JUMPDEST JUMPDEST SUB PUSH2 0x34CA JUMPI PUSH1 0x40 MLOAD DUP1 PUSH1 0x40 ADD PUSH1 0x40 MSTORE DUP1 PUSH1 0xA DUP2 MSTORE PUSH1 0x20 ADD PUSH32 0x5465726D696E6174656400000000000000000000000000000000000000000000 DUP2 MSTORE POP SWAP1 POP PUSH2 0x3503 JUMP JUMPDEST PUSH1 0x40 MLOAD DUP1 PUSH1 0x40 ADD PUSH1 0x40 MSTORE DUP1 PUSH1 0x12 DUP2 MSTORE PUSH1 0x20 ADD PUSH32 0x50656E64696E675465726D696E6174696F6E0000000000000000000000000000 DUP2 MSTORE POP SWAP1 POP JUMPDEST SWAP1 JUMP JUMPDEST PUSH32 0x0 PUSH20 0xFFFFFFFFFFFFFFFFFFFFFFFFFFFFFFFFFFFFFFFF AND CALLER PUSH20 0xFFFFFFFFFFFFFFFFFFFFFFFFFFFFFFFFFFFFFFFF AND EQ PUSH2 0x3594 JUMPI PUSH1 0x40 MLOAD PUSH32 0x8C379A000000000000000000000000000000000000000000000000000000000 DUP2 MSTORE PUSH1 0x4 ADD PUSH2 0x358B SWAP1 PUSH2 0x502D JUMP JUMPDEST PUSH1 0x40 MLOAD DUP1 SWAP2 SUB SWAP1 REVERT JUMPDEST PUSH0 PUSH1 0x2 DUP2 GT ISZERO PUSH2 0x35A7 JUMPI PUSH2 0x35A6 PUSH2 0x477E JUMP JUMPDEST JUMPDEST PUSH1 0x9 PUSH1 0x7 SWAP1 SLOAD SWAP1 PUSH2 0x100 EXP SWAP1 DIV PUSH1 0xFF AND PUSH1 0x2 DUP2 GT ISZERO PUSH2 0x35C9 JUMPI PUSH2 0x35C8 PUSH2 0x477E JUMP JUMPDEST JUMPDEST EQ PUSH2 0x3609 JUMPI PUSH1 0x40 MLOAD PUSH32 0x8C379A000000000000000000000000000000000000000000000000000000000 DUP2 MSTORE PUSH1 0x4 ADD PUSH2 0x3600 SWAP1 PUSH2 0x59AA JUMP JUMPDEST PUSH1 0x40 MLOAD DUP1 SWAP2 SUB SWAP1 REVERT JUMPDEST PUSH1 0x1 PUSH1 0x7 PUSH1 0x13 PUSH2 0x100 EXP DUP2 SLOAD DUP2 PUSH1 0xFF MUL NOT AND SWAP1 DUP4 ISZERO ISZERO MUL OR SWAP1 SSTORE POP CALLER PUSH20 0xFFFFFFFFFFFFFFFFFFFFFFFFFFFFFFFFFFFFFFFF AND PUSH32 0xE50DD892821A34EA6A05E9560E362467EB50BDAA8A01F3807E5778B21296A41A PUSH1 0x40 MLOAD PUSH1 0x40 MLOAD DUP1 SWAP2 SUB SWAP1 LOG2 JUMP JUMPDEST PUSH1 0x9 PUSH0 SWAP1 SLOAD SWAP1 PUSH2 0x100 EXP SWAP1 DIV PUSH1 0xFF AND DUP2 JUMP JUMPDEST PUSH32 0x0 DUP2 JUMP JUMPDEST PUSH32 0x0 PUSH20 0xFFFFFFFFFFFFFFFFFFFFFFFFFFFFFFFFFFFFFFFF AND CALLER PUSH20 0xFFFFFFFFFFFFFFFFFFFFFFFFFFFFFFFFFFFFFFFF AND EQ PUSH2 0x372D JUMPI PUSH1 0x40 MLOAD PUSH32 0x8C379A000000000000000000000000000000000000000000000000000000000 DUP2 MSTORE PUSH1 0x4 ADD PUSH2 0x3724 SWAP1 PUSH2 0x502D JUMP JUMPDEST PUSH1 0x40 MLOAD DUP1 SWAP2 SUB SWAP1 REVERT JUMPDEST PUSH0 PUSH1 0x2 DUP2 GT ISZERO PUSH2 0x3740 JUMPI PUSH2 0x373F PUSH2 0x477E JUMP JUMPDEST JUMPDEST PUSH1 0x9 PUSH1 0x7 SWAP1 SLOAD SWAP1 PUSH2 0x100 EXP SWAP1 DIV PUSH1 0xFF AND PUSH1 0x2 DUP2 GT ISZERO PUSH2 0x3762 JUMPI PUSH2 0x3761 PUSH2 0x477E JUMP JUMPDEST JUMPDEST EQ PUSH2 0x37A2 JUMPI PUSH1 0x40 MLOAD PUSH32 0x8C379A000000000000000000000000000000000000000000000000000000000 DUP2 MSTORE PUSH1 0x4 ADD PUSH2 0x3799 SWAP1 PUSH2 0x5A12 JUMP JUMPDEST PUSH1 0x40 MLOAD DUP1 SWAP2 SUB SWAP1 REVERT JUMPDEST PUSH3 0x76A700 TIMESTAMP PUSH2 0x37B1 SWAP2 SWAP1 PUSH2 0x4C8F JUMP JUMPDEST PUSH1 0x7 PUSH1 0x1 PUSH2 0x100 EXP DUP2 SLOAD DUP2 PUSH6 0xFFFFFFFFFFFF MUL NOT AND SWAP1 DUP4 PUSH6 0xFFFFFFFFFFFF AND MUL OR SWAP1 SSTORE POP PUSH1 0x2 PUSH1 0x9 PUSH1 0x7 PUSH2 0x100 EXP DUP2 SLOAD DUP2 PUSH1 0xFF MUL NOT AND SWAP1 DUP4 PUSH1 0x2 DUP2 GT ISZERO PUSH2 0x37FB JUMPI PUSH2 0x37FA PUSH2 0x477E JUMP JUMPDEST JUMPDEST MUL OR SWAP1 SSTORE POP PUSH32 0x2032EEA88030B7D191BCBDC44C5AC10ED559F3E9F56A319C896F007B55ABA5C6 PUSH1 0x7 PUSH1 0x1 SWAP1 SLOAD SWAP1 PUSH2 0x100 EXP SWAP1 DIV PUSH6 0xFFFFFFFFFFFF AND PUSH1 0x40 MLOAD PUSH2 0x3843 SWAP2 SWAP1 PUSH2 0x4EF5 JUMP JUMPDEST PUSH1 0x40 MLOAD DUP1 SWAP2 SUB SWAP1 LOG1 JUMP JUMPDEST PUSH32 0x0 PUSH20 0xFFFFFFFFFFFFFFFFFFFFFFFFFFFFFFFFFFFFFFFF AND CALLER PUSH20 0xFFFFFFFFFFFFFFFFFFFFFFFFFFFFFFFFFFFFFFFF AND EQ PUSH2 0x38DB JUMPI PUSH1 0x40 MLOAD PUSH32 0x8C379A000000000000000000000000000000000000000000000000000000000 DUP2 MSTORE PUSH1 0x4 ADD PUSH2 0x38D2 SWAP1 PUSH2 0x4B25 JUMP JUMPDEST PUSH1 0x40 MLOAD DUP1 SWAP2 SUB SWAP1 REVERT JUMPDEST PUSH3 0x93A80 PUSH20 0x0 PUSH4 0x5468AF10 PUSH1 0x9 PUSH1 0x1 SWAP1 SLOAD SWAP1 PUSH2 0x100 EXP SWAP1 DIV PUSH6 0xFFFFFFFFFFFF AND PUSH1 0x40 MLOAD DUP3 PUSH4 0xFFFFFFFF AND PUSH1 0xE0 SHL DUP2 MSTORE PUSH1 0x4 ADD PUSH2 0x392A SWAP2 SWAP1 PUSH2 0x4C0A JUMP JUMPDEST PUSH1 0x20 PUSH1 0x40 MLOAD DUP1 DUP4 SUB DUP2 DUP7 GAS DELEGATECALL ISZERO DUP1 ISZERO PUSH2 0x3945 JUMPI RETURNDATASIZE PUSH0 PUSH0 RETURNDATACOPY RETURNDATASIZE PUSH0 REVERT JUMPDEST POP POP POP POP PUSH1 0x40 MLOAD RETURNDATASIZE PUSH1 0x1F NOT PUSH1 0x1F DUP3 ADD AND DUP3 ADD DUP1 PUSH1 0x40 MSTORE POP DUP2 ADD SWAP1 PUSH2 0x3969 SWAP2 SWAP1 PUSH2 0x4C37 JUMP JUMPDEST PUSH2 0x3973 SWAP2 SWAP1 PUSH2 0x4C8F JUMP JUMPDEST TIMESTAMP GT PUSH2 0x39B4 JUMPI PUSH1 0x40 MLOAD PUSH32 0x8C379A000000000000000000000000000000000000000000000000000000000 DUP2 MSTORE PUSH1 0x4 ADD PUSH2 0x39AB SWAP1 PUSH2 0x5A7A JUMP JUMPDEST PUSH1 0x40 MLOAD DUP1 SWAP2 SUB SWAP1 REVERT JUMPDEST PUSH1 0x1 PUSH1 0x7 PUSH0 PUSH2 0x100 EXP DUP2 SLOAD DUP2 PUSH1 0xFF MUL NOT AND SWAP1 DUP4 ISZERO ISZERO MUL OR SWAP1 SSTORE POP PUSH32 0x0 PUSH20 0xFFFFFFFFFFFFFFFFFFFFFFFFFFFFFFFFFFFFFFFF AND PUSH32 0x8E0013EC8EA09FB2E5FC1733FCAA4D39F199B60C282B0300ADD067402B2AA91B PUSH1 0x40 MLOAD PUSH1 0x40 MLOAD DUP1 SWAP2 SUB SWAP1 LOG2 JUMP JUMPDEST PUSH1 0x4 PUSH0 SWAP1 SLOAD SWAP1 PUSH2 0x100 EXP SWAP1 DIV PUSH6 0xFFFFFFFFFFFF AND DUP2 JUMP JUMPDEST PUSH32 0x0 DUP2 JUMP JUMPDEST PUSH32 0x0 PUSH20 0xFFFFFFFFFFFFFFFFFFFFFFFFFFFFFFFFFFFFFFFF AND CALLER PUSH20 0xFFFFFFFFFFFFFFFFFFFFFFFFFFFFFFFFFFFFFFFF AND EQ PUSH2 0x3AFC JUMPI PUSH1 0x40 MLOAD PUSH32 0x8C379A000000000000000000000000000000000000000000000000000000000 DUP2 MSTORE PUSH1 0x4 ADD PUSH2 0x3AF3 SWAP1 PUSH2 0x4B25 JUMP JUMPDEST PUSH1 0x40 MLOAD DUP1 SWAP2 SUB SWAP1 REVERT JUMPDEST PUSH1 0x2 DUP1 DUP2 GT ISZERO PUSH2 0x3B0F JUMPI PUSH2 0x3B0E PUSH2 0x477E JUMP JUMPDEST JUMPDEST PUSH1 0x9 PUSH1 0x7 SWAP1 SLOAD SWAP1 PUSH2 0x100 EXP SWAP1 DIV PUSH1 0xFF AND PUSH1 0x2 DUP2 GT ISZERO PUSH2 0x3B31 JUMPI PUSH2 0x3B30 PUSH2 0x477E JUMP JUMPDEST JUMPDEST EQ PUSH2 0x3B71 JUMPI PUSH1 0x40 MLOAD PUSH32 0x8C379A000000000000000000000000000000000000000000000000000000000 DUP2 MSTORE PUSH1 0x4 ADD PUSH2 0x3B68 SWAP1 PUSH2 0x5AE2 JUMP JUMPDEST PUSH1 0x40 MLOAD DUP1 SWAP2 SUB SWAP1 REVERT JUMPDEST PUSH1 0x7 PUSH1 0x1 SWAP1 SLOAD SWAP1 PUSH2 0x100 EXP SWAP1 DIV PUSH6 0xFFFFFFFFFFFF AND PUSH6 0xFFFFFFFFFFFF AND TIMESTAMP LT ISZERO PUSH2 0x3BD0 JUMPI PUSH1 0x40 MLOAD PUSH32 0x8C379A000000000000000000000000000000000000000000000000000000000 DUP2 MSTORE PUSH1 0x4 ADD PUSH2 0x3BC7 SWAP1 PUSH2 0x5B4A JUMP JUMPDEST PUSH1 0x40 MLOAD DUP1 SWAP2 SUB SWAP1 REVERT JUMPDEST PUSH1 0x1 PUSH1 0x9 PUSH1 0x7 PUSH2 0x100 EXP DUP2 SLOAD DUP2 PUSH1 0xFF MUL NOT AND SWAP1 DUP4 PUSH1 0x2 DUP2 GT ISZERO PUSH2 0x3BF6 JUMPI PUSH2 0x3BF5 PUSH2 0x477E JUMP JUMPDEST JUMPDEST MUL OR SWAP1 SSTORE POP PUSH32 0x0 PUSH20 0xFFFFFFFFFFFFFFFFFFFFFFFFFFFFFFFFFFFFFFFF AND PUSH32 0x7B73F5D770F3EB41FD57F1E6A1C9E2A5EC61FEBBBD4E608D511C46E3FD611639 PUSH1 0x40 MLOAD PUSH2 0x3C5F SWAP1 PUSH2 0x5BFE JUMP JUMPDEST PUSH1 0x40 MLOAD DUP1 SWAP2 SUB SWAP1 LOG2 JUMP JUMPDEST PUSH32 0x0 PUSH20 0xFFFFFFFFFFFFFFFFFFFFFFFFFFFFFFFFFFFFFFFF AND CALLER PUSH20 0xFFFFFFFFFFFFFFFFFFFFFFFFFFFFFFFFFFFFFFFF AND EQ PUSH2 0x3CF7 JUMPI PUSH1 0x40 MLOAD PUSH32 0x8C379A000000000000000000000000000000000000000000000000000000000 DUP2 MSTORE PUSH1 0x4 ADD PUSH2 0x3CEE SWAP1 PUSH2 0x4B25 JUMP JUMPDEST PUSH1 0x40 MLOAD DUP1 SWAP2 SUB SWAP1 REVERT JUMPDEST PUSH0 PUSH32 0x0 SWAP1 POP PUSH0 PUSH32 0x0 SWAP1 POP PUSH1 0x8 PUSH0 DUP4 PUSH20 0xFFFFFFFFFFFFFFFFFFFFFFFFFFFFFFFFFFFFFFFF AND PUSH20 0xFFFFFFFFFFFFFFFFFFFFFFFFFFFFFFFFFFFFFFFF AND DUP2 MSTORE PUSH1 0x20 ADD SWAP1 DUP2 MSTORE PUSH1 0x20 ADD PUSH0 KECCAK256 PUSH0 SWAP1 SLOAD SWAP1 PUSH2 0x100 EXP SWAP1 DIV PUSH1 0xFF AND PUSH2 0x3DC8 JUMPI PUSH1 0x40 MLOAD PUSH32 0x8C379A000000000000000000000000000000000000000000000000000000000 DUP2 MSTORE PUSH1 0x4 ADD PUSH2 0x3DBF SWAP1 PUSH2 0x5C66 JUMP JUMPDEST PUSH1 0x40 MLOAD DUP1 SWAP2 SUB SWAP1 REVERT JUMPDEST PUSH0 PUSH1 0x2 DUP2 GT ISZERO PUSH2 0x3DDB JUMPI PUSH2 0x3DDA PUSH2 0x477E JUMP JUMPDEST JUMPDEST PUSH1 0x9 PUSH1 0x7 SWAP1 SLOAD SWAP1 PUSH2 0x100 EXP SWAP1 DIV PUSH1 0xFF AND PUSH1 0x2 DUP2 GT ISZERO PUSH2 0x3DFD JUMPI PUSH2 0x3DFC PUSH2 0x477E JUMP JUMPDEST JUMPDEST EQ PUSH2 0x3E3D JUMPI PUSH1 0x40 MLOAD PUSH32 0x8C379A000000000000000000000000000000000000000000000000000000000 DUP2 MSTORE PUSH1 0x4 ADD PUSH2 0x3E34 SWAP1 PUSH2 0x4D0C JUMP JUMPDEST PUSH1 0x40 MLOAD DUP1 SWAP2 SUB SWAP1 REVERT JUMPDEST DUP2 PUSH20 0xFFFFFFFFFFFFFFFFFFFFFFFFFFFFFFFFFFFFFFFF AND PUSH32 0xA0E44CC6F4F184BC83E145BF7F0CC703B7F698476124CF6A9D7D403D202E77FD DUP3 PUSH1 0x1 PUSH1 0x40 MLOAD PUSH2 0x3E86 SWAP3 SWAP2 SWAP1 PUSH2 0x5141 JUMP JUMPDEST PUSH1 0x40 MLOAD DUP1 SWAP2 SUB SWAP1 LOG2 PUSH32 0x0 PUSH20 0xFFFFFFFFFFFFFFFFFFFFFFFFFFFFFFFFFFFFFFFF AND PUSH4 0x23B872DD DUP4 PUSH32 0x0 DUP5 PUSH1 0x40 MLOAD DUP5 PUSH4 0xFFFFFFFF AND PUSH1 0xE0 SHL DUP2 MSTORE PUSH1 0x4 ADD PUSH2 0x3F0B SWAP4 SWAP3 SWAP2 SWAP1 PUSH2 0x5168 JUMP JUMPDEST PUSH1 0x20 PUSH1 0x40 MLOAD DUP1 DUP4 SUB DUP2 PUSH0 DUP8 GAS CALL ISZERO DUP1 ISZERO PUSH2 0x3F27 JUMPI RETURNDATASIZE PUSH0 PUSH0 RETURNDATACOPY RETURNDATASIZE PUSH0 REVERT JUMPDEST POP POP POP POP PUSH1 0x40 MLOAD RETURNDATASIZE PUSH1 0x1F NOT PUSH1 0x1F DUP3 ADD AND DUP3 ADD DUP1 PUSH1 0x40 MSTORE POP DUP2 ADD SWAP1 PUSH2 0x3F4B SWAP2 SWAP1 PUSH2 0x51C7 JUMP JUMPDEST PUSH2 0x3F8A JUMPI PUSH1 0x40 MLOAD PUSH32 0x8C379A000000000000000000000000000000000000000000000000000000000 DUP2 MSTORE PUSH1 0x4 ADD PUSH2 0x3F81 SWAP1 PUSH2 0x5CCE JUMP JUMPDEST PUSH1 0x40 MLOAD DUP1 SWAP2 SUB SWAP1 REVERT JUMPDEST PUSH1 0xA PUSH1 0x40 MLOAD DUP1 PUSH1 0x60 ADD PUSH1 0x40 MSTORE DUP1 TIMESTAMP PUSH6 0xFFFFFFFFFFFF AND DUP2 MSTORE PUSH1 0x20 ADD DUP4 DUP2 MSTORE PUSH1 0x20 ADD PUSH1 0x1 ISZERO ISZERO DUP2 MSTORE POP SWAP1 DUP1 PUSH1 0x1 DUP2 SLOAD ADD DUP1 DUP3 SSTORE DUP1 SWAP2 POP POP PUSH1 0x1 SWAP1 SUB SWAP1 PUSH0 MSTORE PUSH1 0x20 PUSH0 KECCAK256 SWAP1 PUSH1 0x3 MUL ADD PUSH0 SWAP1 SWAP2 SWAP1 SWAP2 SWAP1 SWAP2 POP PUSH0 DUP3 ADD MLOAD DUP2 PUSH0 ADD PUSH0 PUSH2 0x100 EXP DUP2 SLOAD DUP2 PUSH6 0xFFFFFFFFFFFF MUL NOT AND SWAP1 DUP4 PUSH6 0xFFFFFFFFFFFF AND MUL OR SWAP1 SSTORE POP PUSH1 0x20 DUP3 ADD MLOAD DUP2 PUSH1 0x1 ADD SSTORE PUSH1 0x40 DUP3 ADD MLOAD DUP2 PUSH1 0x2 ADD PUSH0 PUSH2 0x100 EXP DUP2 SLOAD DUP2 PUSH1 0xFF MUL NOT AND SWAP1 DUP4 ISZERO ISZERO MUL OR SWAP1 SSTORE POP POP POP POP POP JUMP JUMPDEST PUSH1 0x3 SLOAD DUP2 JUMP JUMPDEST PUSH1 0x7 PUSH1 0xD SWAP1 SLOAD SWAP1 PUSH2 0x100 EXP SWAP1 DIV PUSH6 0xFFFFFFFFFFFF AND DUP2 JUMP JUMPDEST PUSH32 0x0 PUSH20 0xFFFFFFFFFFFFFFFFFFFFFFFFFFFFFFFFFFFFFFFF AND CALLER PUSH20 0xFFFFFFFFFFFFFFFFFFFFFFFFFFFFFFFFFFFFFFFF AND EQ PUSH2 0x40DB JUMPI PUSH1 0x40 MLOAD PUSH32 0x8C379A000000000000000000000000000000000000000000000000000000000 DUP2 MSTORE PUSH1 0x4 ADD PUSH2 0x40D2 SWAP1 PUSH2 0x502D JUMP JUMPDEST PUSH1 0x40 MLOAD DUP1 SWAP2 SUB SWAP1 REVERT JUMPDEST PUSH1 0x2 DUP1 DUP2 GT ISZERO PUSH2 0x40EE JUMPI PUSH2 0x40ED PUSH2 0x477E JUMP JUMPDEST JUMPDEST PUSH1 0x9 PUSH1 0x7 SWAP1 SLOAD SWAP1 PUSH2 0x100 EXP SWAP1 DIV PUSH1 0xFF AND PUSH1 0x2 DUP2 GT ISZERO PUSH2 0x4110 JUMPI PUSH2 0x410F PUSH2 0x477E JUMP JUMPDEST JUMPDEST EQ PUSH2 0x4150 JUMPI PUSH1 0x40 MLOAD PUSH32 0x8C379A000000000000000000000000000000000000000000000000000000000 DUP2 MSTORE PUSH1 0x4 ADD PUSH2 0x4147 SWAP1 PUSH2 0x5D36 JUMP JUMPDEST PUSH1 0x40 MLOAD DUP1 SWAP2 SUB SWAP1 REVERT JUMPDEST PUSH1 0x7 PUSH1 0x1 SWAP1 SLOAD SWAP1 PUSH2 0x100 EXP SWAP1 DIV PUSH6 0xFFFFFFFFFFFF AND PUSH6 0xFFFFFFFFFFFF AND TIMESTAMP LT ISZERO PUSH2 0x41AF JUMPI PUSH1 0x40 MLOAD PUSH32 0x8C379A000000000000000000000000000000000000000000000000000000000 DUP2 MSTORE PUSH1 0x4 ADD PUSH2 0x41A6 SWAP1 PUSH2 0x5B4A JUMP JUMPDEST PUSH1 0x40 MLOAD DUP1 SWAP2 SUB SWAP1 REVERT JUMPDEST PUSH0 PUSH1 0x6 SLOAD EQ PUSH2 0x41F3 JUMPI PUSH1 0x40 MLOAD PUSH32 0x8C379A000000000000000000000000000000000000000000000000000000000 DUP2 MSTORE PUSH1 0x4 ADD PUSH2 0x41EA SWAP1 PUSH2 0x5D9E JUMP JUMPDEST PUSH1 0x40 MLOAD DUP1 SWAP2 SUB SWAP1 REVERT JUMPDEST PUSH1 0x1 PUSH1 0x9 PUSH1 0x7 PUSH2 0x100 EXP DUP2 SLOAD DUP2 PUSH1 0xFF MUL NOT AND SWAP1 DUP4 PUSH1 0x2 DUP2 GT ISZERO PUSH2 0x4219 JUMPI PUSH2 0x4218 PUSH2 0x477E JUMP JUMPDEST JUMPDEST MUL OR SWAP1 SSTORE POP PUSH32 0x0 PUSH20 0xFFFFFFFFFFFFFFFFFFFFFFFFFFFFFFFFFFFFFFFF AND PUSH32 0x7B73F5D770F3EB41FD57F1E6A1C9E2A5EC61FEBBBD4E608D511C46E3FD611639 PUSH1 0x40 MLOAD PUSH2 0x4282 SWAP1 PUSH2 0x5E2C JUMP JUMPDEST PUSH1 0x40 MLOAD DUP1 SWAP2 SUB SWAP1 LOG2 JUMP JUMPDEST PUSH32 0x0 DUP2 JUMP JUMPDEST PUSH32 0x0 PUSH20 0xFFFFFFFFFFFFFFFFFFFFFFFFFFFFFFFFFFFFFFFF AND CALLER PUSH20 0xFFFFFFFFFFFFFFFFFFFFFFFFFFFFFFFFFFFFFFFF AND EQ PUSH2 0x433E JUMPI PUSH1 0x40 MLOAD PUSH32 0x8C379A000000000000000000000000000000000000000000000000000000000 DUP2 MSTORE PUSH1 0x4 ADD PUSH2 0x4335 SWAP1 PUSH2 0x4B25 JUMP JUMPDEST PUSH1 0x40 MLOAD DUP1 SWAP2 SUB SWAP1 REVERT JUMPDEST PUSH1 0x7 PUSH1 0x13 SWAP1 SLOAD SWAP1 PUSH2 0x100 EXP SWAP1 DIV PUSH1 0xFF AND PUSH2 0x438D JUMPI PUSH1 0x40 MLOAD PUSH32 0x8C379A000000000000000000000000000000000000000000000000000000000 DUP2 MSTORE PUSH1 0x4 ADD PUSH2 0x4384 SWAP1 PUSH2 0x5EBA JUMP JUMPDEST PUSH1 0x40 MLOAD DUP1 SWAP2 SUB SWAP1 REVERT JUMPDEST PUSH1 0x1 PUSH1 0x7 PUSH1 0x14 PUSH2 0x100 EXP DUP2 SLOAD DUP2 PUSH1 0xFF MUL NOT AND SWAP1 DUP4 ISZERO ISZERO MUL OR SWAP1 SSTORE POP PUSH4 0x1E13380 PUSH1 0x7 DUP1 SLOAD SWAP1 PUSH2 0x100 EXP SWAP1 DIV PUSH6 0xFFFFFFFFFFFF AND PUSH2 0x43CA SWAP2 SWAP1 PUSH2 0x5ED8 JUMP JUMPDEST PUSH1 0x7 DUP1 PUSH2 0x100 EXP DUP2 SLOAD DUP2 PUSH6 0xFFFFFFFFFFFF MUL NOT AND SWAP1 DUP4 PUSH6 0xFFFFFFFFFFFF AND MUL OR SWAP1 SSTORE POP PUSH1 0x7 PUSH1 0x13 PUSH2 0x100 EXP DUP2 SLOAD SWAP1 PUSH1 0xFF MUL NOT AND SWAP1 SSTORE PUSH1 0x7 PUSH1 0x14 PUSH2 0x100 EXP DUP2 SLOAD SWAP1 PUSH1 0xFF MUL NOT AND SWAP1 SSTORE PUSH32 0x9B92A9893C6F7C060109FBACF7A7ED7384B0D145F68541169A1A201EA42CE854 PUSH1 0x7 DUP1 SLOAD SWAP1 PUSH2 0x100 EXP SWAP1 DIV PUSH6 0xFFFFFFFFFFFF AND PUSH1 0x40 MLOAD PUSH2 0x4452 SWAP2 SWAP1 PUSH2 0x4EF5 JUMP JUMPDEST PUSH1 0x40 MLOAD DUP1 SWAP2 SUB SWAP1 LOG1 JUMP JUMPDEST PUSH1 0x2 PUSH0 SLOAD SUB PUSH2 0x44A0 JUMPI PUSH1 0x40 MLOAD PUSH32 0x8C379A000000000000000000000000000000000000000000000000000000000 DUP2 MSTORE PUSH1 0x4 ADD PUSH2 0x4497 SWAP1 PUSH2 0x5F5B JUMP JUMPDEST PUSH1 0x40 MLOAD DUP1 SWAP2 SUB SWAP1 REVERT JUMPDEST PUSH1 0x2 PUSH0 DUP2 SWAP1 SSTORE POP JUMP JUMPDEST PUSH1 0x1 PUSH0 DUP2 SWAP1 SSTORE POP JUMP JUMPDEST PUSH0 PUSH1 0x40 MLOAD SWAP1 POP SWAP1 JUMP JUMPDEST PUSH0 PUSH0 REVERT JUMPDEST PUSH0 PUSH0 REVERT JUMPDEST PUSH0 PUSH0 REVERT JUMPDEST PUSH0 PUSH0 REVERT JUMPDEST PUSH0 PUSH1 0x1F NOT PUSH1 0x1F DUP4 ADD AND SWAP1 POP SWAP2 SWAP1 POP JUMP JUMPDEST PUSH32 0x4E487B7100000000000000000000000000000000000000000000000000000000 PUSH0 MSTORE PUSH1 0x41 PUSH1 0x4 MSTORE PUSH1 0x24 PUSH0 REVERT JUMPDEST PUSH2 0x4511 DUP3 PUSH2 0x44CB JUMP JUMPDEST DUP2 ADD DUP2 DUP2 LT PUSH8 0xFFFFFFFFFFFFFFFF DUP3 GT OR ISZERO PUSH2 0x4530 JUMPI PUSH2 0x452F PUSH2 0x44DB JUMP JUMPDEST JUMPDEST DUP1 PUSH1 0x40 MSTORE POP POP POP JUMP JUMPDEST PUSH0 PUSH2 0x4542 PUSH2 0x44B2 JUMP JUMPDEST SWAP1 POP PUSH2 0x454E DUP3 DUP3 PUSH2 0x4508 JUMP JUMPDEST SWAP2 SWAP1 POP JUMP JUMPDEST PUSH0 PUSH8 0xFFFFFFFFFFFFFFFF DUP3 GT ISZERO PUSH2 0x456D JUMPI PUSH2 0x456C PUSH2 0x44DB JUMP JUMPDEST JUMPDEST PUSH2 0x4576 DUP3 PUSH2 0x44CB JUMP JUMPDEST SWAP1 POP PUSH1 0x20 DUP2 ADD SWAP1 POP SWAP2 SWAP1 POP JUMP JUMPDEST DUP3 DUP2 DUP4 CALLDATACOPY PUSH0 DUP4 DUP4 ADD MSTORE POP POP POP JUMP JUMPDEST PUSH0 PUSH2 0x45A3 PUSH2 0x459E DUP5 PUSH2 0x4553 JUMP JUMPDEST PUSH2 0x4539 JUMP JUMPDEST SWAP1 POP DUP3 DUP2 MSTORE PUSH1 0x20 DUP2 ADD DUP5 DUP5 DUP5 ADD GT ISZERO PUSH2 0x45BF JUMPI PUSH2 0x45BE PUSH2 0x44C7 JUMP JUMPDEST JUMPDEST PUSH2 0x45CA DUP5 DUP3 DUP6 PUSH2 0x4583 JUMP JUMPDEST POP SWAP4 SWAP3 POP POP POP JUMP JUMPDEST PUSH0 DUP3 PUSH1 0x1F DUP4 ADD SLT PUSH2 0x45E6 JUMPI PUSH2 0x45E5 PUSH2 0x44C3 JUMP JUMPDEST JUMPDEST DUP2 CALLDATALOAD PUSH2 0x45F6 DUP5 DUP3 PUSH1 0x20 DUP7 ADD PUSH2 0x4591 JUMP JUMPDEST SWAP2 POP POP SWAP3 SWAP2 POP POP JUMP JUMPDEST PUSH0 PUSH1 0x20 DUP3 DUP5 SUB SLT ISZERO PUSH2 0x4614 JUMPI PUSH2 0x4613 PUSH2 0x44BB JUMP JUMPDEST JUMPDEST PUSH0 DUP3 ADD CALLDATALOAD PUSH8 0xFFFFFFFFFFFFFFFF DUP2 GT ISZERO PUSH2 0x4631 JUMPI PUSH2 0x4630 PUSH2 0x44BF JUMP JUMPDEST JUMPDEST PUSH2 0x463D DUP5 DUP3 DUP6 ADD PUSH2 0x45D2 JUMP JUMPDEST SWAP2 POP POP SWAP3 SWAP2 POP POP JUMP JUMPDEST PUSH0 DUP2 MLOAD SWAP1 POP SWAP2 SWAP1 POP JUMP JUMPDEST PUSH0 DUP3 DUP3 MSTORE PUSH1 0x20 DUP3 ADD SWAP1 POP SWAP3 SWAP2 POP POP JUMP JUMPDEST DUP3 DUP2 DUP4 MCOPY PUSH0 DUP4 DUP4 ADD MSTORE POP POP POP JUMP JUMPDEST PUSH0 PUSH2 0x4678 DUP3 PUSH2 0x4646 JUMP JUMPDEST PUSH2 0x4682 DUP2 DUP6 PUSH2 0x4650 JUMP JUMPDEST SWAP4 POP PUSH2 0x4692 DUP2 DUP6 PUSH1 0x20 DUP7 ADD PUSH2 0x4660 JUMP JUMPDEST PUSH2 0x469B DUP2 PUSH2 0x44CB JUMP JUMPDEST DUP5 ADD SWAP2 POP POP SWAP3 SWAP2 POP POP JUMP JUMPDEST PUSH0 PUSH1 0x20 DUP3 ADD SWAP1 POP DUP2 DUP2 SUB PUSH0 DUP4 ADD MSTORE PUSH2 0x46BE DUP2 DUP5 PUSH2 0x466E JUMP JUMPDEST SWAP1 POP SWAP3 SWAP2 POP POP JUMP JUMPDEST PUSH0 DUP2 ISZERO ISZERO SWAP1 POP SWAP2 SWAP1 POP JUMP JUMPDEST PUSH2 0x46DA DUP2 PUSH2 0x46C6 JUMP JUMPDEST DUP3 MSTORE POP POP JUMP JUMPDEST PUSH0 PUSH1 0x20 DUP3 ADD SWAP1 POP PUSH2 0x46F3 PUSH0 DUP4 ADD DUP5 PUSH2 0x46D1 JUMP JUMPDEST SWAP3 SWAP2 POP POP JUMP JUMPDEST PUSH0 PUSH20 0xFFFFFFFFFFFFFFFFFFFFFFFFFFFFFFFFFFFFFFFF DUP3 AND SWAP1 POP SWAP2 SWAP1 POP JUMP JUMPDEST PUSH0 PUSH2 0x4722 DUP3 PUSH2 0x46F9 JUMP JUMPDEST SWAP1 POP SWAP2 SWAP1 POP JUMP JUMPDEST PUSH2 0x4732 DUP2 PUSH2 0x4718 JUMP JUMPDEST DUP2 EQ PUSH2 0x473C JUMPI PUSH0 PUSH0 REVERT JUMPDEST POP JUMP JUMPDEST PUSH0 DUP2 CALLDATALOAD SWAP1 POP PUSH2 0x474D DUP2 PUSH2 0x4729 JUMP JUMPDEST SWAP3 SWAP2 POP POP JUMP JUMPDEST PUSH0 PUSH1 0x20 DUP3 DUP5 SUB SLT ISZERO PUSH2 0x4768 JUMPI PUSH2 0x4767 PUSH2 0x44BB JUMP JUMPDEST JUMPDEST PUSH0 PUSH2 0x4775 DUP5 DUP3 DUP6 ADD PUSH2 0x473F JUMP JUMPDEST SWAP2 POP POP SWAP3 SWAP2 POP POP JUMP JUMPDEST PUSH32 0x4E487B7100000000000000000000000000000000000000000000000000000000 PUSH0 MSTORE PUSH1 0x21 PUSH1 0x4 MSTORE PUSH1 0x24 PUSH0 REVERT JUMPDEST PUSH1 0x3 DUP2 LT PUSH2 0x47BC JUMPI PUSH2 0x47BB PUSH2 0x477E JUMP JUMPDEST JUMPDEST POP JUMP JUMPDEST PUSH0 DUP2 SWAP1 POP PUSH2 0x47CC DUP3 PUSH2 0x47AB JUMP JUMPDEST SWAP2 SWAP1 POP JUMP JUMPDEST PUSH0 PUSH2 0x47DB DUP3 PUSH2 0x47BF JUMP JUMPDEST SWAP1 POP SWAP2 SWAP1 POP JUMP JUMPDEST PUSH2 0x47EB DUP2 PUSH2 0x47D1 JUMP JUMPDEST DUP3 MSTORE POP POP JUMP JUMPDEST PUSH0 PUSH1 0x20 DUP3 ADD SWAP1 POP PUSH2 0x4804 PUSH0 DUP4 ADD DUP5 PUSH2 0x47E2 JUMP JUMPDEST SWAP3 SWAP2 POP POP JUMP JUMPDEST PUSH0 DUP2 SWAP1 POP SWAP2 SWAP1 POP JUMP JUMPDEST PUSH2 0x481C DUP2 PUSH2 0x480A JUMP JUMPDEST DUP3 MSTORE POP POP JUMP JUMPDEST PUSH0 PUSH1 0x20 DUP3 ADD SWAP1 POP PUSH2 0x4835 PUSH0 DUP4 ADD DUP5 PUSH2 0x4813 JUMP JUMPDEST SWAP3 SWAP2 POP POP JUMP JUMPDEST PUSH0 PUSH6 0xFFFFFFFFFFFF DUP3 AND SWAP1 POP SWAP2 SWAP1 POP JUMP JUMPDEST PUSH2 0x4855 DUP2 PUSH2 0x483B JUMP JUMPDEST DUP3 MSTORE POP POP JUMP JUMPDEST PUSH0 PUSH1 0x20 DUP3 ADD SWAP1 POP PUSH2 0x486E PUSH0 DUP4 ADD DUP5 PUSH2 0x484C JUMP JUMPDEST SWAP3 SWAP2 POP POP JUMP JUMPDEST PUSH2 0x487D DUP2 PUSH2 0x480A JUMP JUMPDEST DUP2 EQ PUSH2 0x4887 JUMPI PUSH0 PUSH0 REVERT JUMPDEST POP JUMP JUMPDEST PUSH0 DUP2 CALLDATALOAD SWAP1 POP PUSH2 0x4898 DUP2 PUSH2 0x4874 JUMP JUMPDEST SWAP3 SWAP2 POP POP JUMP JUMPDEST PUSH0 PUSH0 PUSH1 0x40 DUP4 DUP6 SUB SLT ISZERO PUSH2 0x48B4 JUMPI PUSH2 0x48B3 PUSH2 0x44BB JUMP JUMPDEST JUMPDEST PUSH0 PUSH2 0x48C1 DUP6 DUP3 DUP7 ADD PUSH2 0x488A JUMP JUMPDEST SWAP3 POP POP PUSH1 0x20 DUP4 ADD CALLDATALOAD PUSH8 0xFFFFFFFFFFFFFFFF DUP2 GT ISZERO PUSH2 0x48E2 JUMPI PUSH2 0x48E1 PUSH2 0x44BF JUMP JUMPDEST JUMPDEST PUSH2 0x48EE DUP6 DUP3 DUP7 ADD PUSH2 0x45D2 JUMP JUMPDEST SWAP2 POP POP SWAP3 POP SWAP3 SWAP1 POP JUMP JUMPDEST PUSH0 PUSH1 0x20 DUP3 DUP5 SUB SLT ISZERO PUSH2 0x490D JUMPI PUSH2 0x490C PUSH2 0x44BB JUMP JUMPDEST JUMPDEST PUSH0 PUSH2 0x491A DUP5 DUP3 DUP6 ADD PUSH2 0x488A JUMP JUMPDEST SWAP2 POP POP SWAP3 SWAP2 POP POP JUMP JUMPDEST PUSH0 PUSH1 0x60 DUP3 ADD SWAP1 POP PUSH2 0x4936 PUSH0 DUP4 ADD DUP7 PUSH2 0x484C JUMP JUMPDEST PUSH2 0x4943 PUSH1 0x20 DUP4 ADD DUP6 PUSH2 0x4813 JUMP JUMPDEST PUSH2 0x4950 PUSH1 0x40 DUP4 ADD DUP5 PUSH2 0x46D1 JUMP JUMPDEST SWAP5 SWAP4 POP POP POP POP JUMP JUMPDEST PUSH2 0x4961 DUP2 PUSH2 0x4718 JUMP JUMPDEST DUP3 MSTORE POP POP JUMP JUMPDEST PUSH0 PUSH1 0x20 DUP3 ADD SWAP1 POP PUSH2 0x497A PUSH0 DUP4 ADD DUP5 PUSH2 0x4958 JUMP JUMPDEST SWAP3 SWAP2 POP POP JUMP JUMPDEST PUSH0 DUP2 MLOAD SWAP1 POP SWAP2 SWAP1 POP JUMP JUMPDEST PUSH0 DUP3 DUP3 MSTORE PUSH1 0x20 DUP3 ADD SWAP1 POP SWAP3 SWAP2 POP POP JUMP JUMPDEST PUSH0 DUP2 SWAP1 POP PUSH1 0x20 DUP3 ADD SWAP1 POP SWAP2 SWAP1 POP JUMP JUMPDEST PUSH2 0x49B2 DUP2 PUSH2 0x483B JUMP JUMPDEST DUP3 MSTORE POP POP JUMP JUMPDEST PUSH2 0x49C1 DUP2 PUSH2 0x480A JUMP JUMPDEST DUP3 MSTORE POP POP JUMP JUMPDEST PUSH2 0x49D0 DUP2 PUSH2 0x46C6 JUMP JUMPDEST DUP3 MSTORE POP POP JUMP JUMPDEST PUSH1 0x60 DUP3 ADD PUSH0 DUP3 ADD MLOAD PUSH2 0x49EA PUSH0 DUP6 ADD DUP3 PUSH2 0x49A9 JUMP JUMPDEST POP PUSH1 0x20 DUP3 ADD MLOAD PUSH2 0x49FD PUSH1 0x20 DUP6 ADD DUP3 PUSH2 0x49B8 JUMP JUMPDEST POP PUSH1 0x40 DUP3 ADD MLOAD PUSH2 0x4A10 PUSH1 0x40 DUP6 ADD DUP3 PUSH2 0x49C7 JUMP JUMPDEST POP POP POP POP JUMP JUMPDEST PUSH0 PUSH2 0x4A21 DUP4 DUP4 PUSH2 0x49D6 JUMP JUMPDEST PUSH1 0x60 DUP4 ADD SWAP1 POP SWAP3 SWAP2 POP POP JUMP JUMPDEST PUSH0 PUSH1 0x20 DUP3 ADD SWAP1 POP SWAP2 SWAP1 POP JUMP JUMPDEST PUSH0 PUSH2 0x4A43 DUP3 PUSH2 0x4980 JUMP JUMPDEST PUSH2 0x4A4D DUP2 DUP6 PUSH2 0x498A JUMP JUMPDEST SWAP4 POP PUSH2 0x4A58 DUP4 PUSH2 0x499A JUMP JUMPDEST DUP1 PUSH0 JUMPDEST DUP4 DUP2 LT ISZERO PUSH2 0x4A88 JUMPI DUP2 MLOAD PUSH2 0x4A6F DUP9 DUP3 PUSH2 0x4A16 JUMP JUMPDEST SWAP8 POP PUSH2 0x4A7A DUP4 PUSH2 0x4A2D JUMP JUMPDEST SWAP3 POP POP PUSH1 0x1 DUP2 ADD SWAP1 POP PUSH2 0x4A5B JUMP JUMPDEST POP DUP6 SWAP4 POP POP POP POP SWAP3 SWAP2 POP POP JUMP JUMPDEST PUSH0 PUSH1 0x20 DUP3 ADD SWAP1 POP DUP2 DUP2 SUB PUSH0 DUP4 ADD MSTORE PUSH2 0x4AAD DUP2 DUP5 PUSH2 0x4A39 JUMP JUMPDEST SWAP1 POP SWAP3 SWAP2 POP POP JUMP JUMPDEST PUSH32 0x4F6E6C79206C616E646C6F72642063616E20706572666F726D20746869732061 PUSH0 DUP3 ADD MSTORE PUSH32 0x6374696F6E000000000000000000000000000000000000000000000000000000 PUSH1 0x20 DUP3 ADD MSTORE POP JUMP JUMPDEST PUSH0 PUSH2 0x4B0F PUSH1 0x25 DUP4 PUSH2 0x4650 JUMP JUMPDEST SWAP2 POP PUSH2 0x4B1A DUP3 PUSH2 0x4AB5 JUMP JUMPDEST PUSH1 0x40 DUP3 ADD SWAP1 POP SWAP2 SWAP1 POP JUMP JUMPDEST PUSH0 PUSH1 0x20 DUP3 ADD SWAP1 POP DUP2 DUP2 SUB PUSH0 DUP4 ADD MSTORE PUSH2 0x4B3C DUP2 PUSH2 0x4B03 JUMP JUMPDEST SWAP1 POP SWAP2 SWAP1 POP JUMP JUMPDEST PUSH32 0x4F6E6C79206C616E646C6F7264206F722074656E616E742063616E2070657266 PUSH0 DUP3 ADD MSTORE PUSH32 0x6F726D207468697320616374696F6E3B00000000000000000000000000000000 PUSH1 0x20 DUP3 ADD MSTORE POP JUMP JUMPDEST PUSH0 PUSH2 0x4B9D PUSH1 0x30 DUP4 PUSH2 0x4650 JUMP JUMPDEST SWAP2 POP PUSH2 0x4BA8 DUP3 PUSH2 0x4B43 JUMP JUMPDEST PUSH1 0x40 DUP3 ADD SWAP1 POP SWAP2 SWAP1 POP JUMP JUMPDEST PUSH0 PUSH1 0x20 DUP3 ADD SWAP1 POP DUP2 DUP2 SUB PUSH0 DUP4 ADD MSTORE PUSH2 0x4BCA DUP2 PUSH2 0x4B91 JUMP JUMPDEST SWAP1 POP SWAP2 SWAP1 POP JUMP JUMPDEST PUSH0 DUP2 SWAP1 POP SWAP2 SWAP1 POP JUMP JUMPDEST PUSH0 PUSH2 0x4BF4 PUSH2 0x4BEF PUSH2 0x4BEA DUP5 PUSH2 0x483B JUMP JUMPDEST PUSH2 0x4BD1 JUMP JUMPDEST PUSH2 0x480A JUMP JUMPDEST SWAP1 POP SWAP2 SWAP1 POP JUMP JUMPDEST PUSH2 0x4C04 DUP2 PUSH2 0x4BDA JUMP JUMPDEST DUP3 MSTORE POP POP JUMP JUMPDEST PUSH0 PUSH1 0x20 DUP3 ADD SWAP1 POP PUSH2 0x4C1D PUSH0 DUP4 ADD DUP5 PUSH2 0x4BFB JUMP JUMPDEST SWAP3 SWAP2 POP POP JUMP JUMPDEST PUSH0 DUP2 MLOAD SWAP1 POP PUSH2 0x4C31 DUP2 PUSH2 0x4874 JUMP JUMPDEST SWAP3 SWAP2 POP POP JUMP JUMPDEST PUSH0 PUSH1 0x20 DUP3 DUP5 SUB SLT ISZERO PUSH2 0x4C4C JUMPI PUSH2 0x4C4B PUSH2 0x44BB JUMP JUMPDEST JUMPDEST PUSH0 PUSH2 0x4C59 DUP5 DUP3 DUP6 ADD PUSH2 0x4C23 JUMP JUMPDEST SWAP2 POP POP SWAP3 SWAP2 POP POP JUMP JUMPDEST PUSH32 0x4E487B7100000000000000000000000000000000000000000000000000000000 PUSH0 MSTORE PUSH1 0x11 PUSH1 0x4 MSTORE PUSH1 0x24 PUSH0 REVERT JUMPDEST PUSH0 PUSH2 0x4C99 DUP3 PUSH2 0x480A JUMP JUMPDEST SWAP2 POP PUSH2 0x4CA4 DUP4 PUSH2 0x480A JUMP JUMPDEST SWAP3 POP DUP3 DUP3 ADD SWAP1 POP DUP1 DUP3 GT ISZERO PUSH2 0x4CBC JUMPI PUSH2 0x4CBB PUSH2 0x4C62 JUMP JUMPDEST JUMPDEST SWAP3 SWAP2 POP POP JUMP JUMPDEST PUSH32 0x436F6E7472616374206973206E6F742061637469766500000000000000000000 PUSH0 DUP3 ADD MSTORE POP JUMP JUMPDEST PUSH0 PUSH2 0x4CF6 PUSH1 0x16 DUP4 PUSH2 0x4650 JUMP JUMPDEST SWAP2 POP PUSH2 0x4D01 DUP3 PUSH2 0x4CC2 JUMP JUMPDEST PUSH1 0x20 DUP3 ADD SWAP1 POP SWAP2 SWAP1 POP JUMP JUMPDEST PUSH0 PUSH1 0x20 DUP3 ADD SWAP1 POP DUP2 DUP2 SUB PUSH0 DUP4 ADD MSTORE PUSH2 0x4D23 DUP2 PUSH2 0x4CEA JUMP JUMPDEST SWAP1 POP SWAP2 SWAP1 POP JUMP JUMPDEST PUSH0 PUSH2 0x4D34 DUP3 PUSH2 0x480A JUMP JUMPDEST SWAP2 POP PUSH2 0x4D3F DUP4 PUSH2 0x480A JUMP JUMPDEST SWAP3 POP DUP3 DUP3 SUB SWAP1 POP DUP2 DUP2 GT ISZERO PUSH2 0x4D57 JUMPI PUSH2 0x4D56 PUSH2 0x4C62 JUMP JUMPDEST JUMPDEST SWAP3 SWAP2 POP POP JUMP JUMPDEST PUSH32 0x4E487B7100000000000000000000000000000000000000000000000000000000 PUSH0 MSTORE PUSH1 0x12 PUSH1 0x4 MSTORE PUSH1 0x24 PUSH0 REVERT JUMPDEST PUSH0 PUSH2 0x4D94 DUP3 PUSH2 0x480A JUMP JUMPDEST SWAP2 POP PUSH2 0x4D9F DUP4 PUSH2 0x480A JUMP JUMPDEST SWAP3 POP DUP3 PUSH2 0x4DAF JUMPI PUSH2 0x4DAE PUSH2 0x4D5D JUMP JUMPDEST JUMPDEST DUP3 DUP3 DIV SWAP1 POP SWAP3 SWAP2 POP POP JUMP JUMPDEST PUSH32 0x4E487B7100000000000000000000000000000000000000000000000000000000 PUSH0 MSTORE PUSH1 0x22 PUSH1 0x4 MSTORE PUSH1 0x24 PUSH0 REVERT JUMPDEST PUSH0 PUSH1 0x2 DUP3 DIV SWAP1 POP PUSH1 0x1 DUP3 AND DUP1 PUSH2 0x4DFE JUMPI PUSH1 0x7F DUP3 AND SWAP2 POP JUMPDEST PUSH1 0x20 DUP3 LT DUP2 SUB PUSH2 0x4E11 JUMPI PUSH2 0x4E10 PUSH2 0x4DBA JUMP JUMPDEST JUMPDEST POP SWAP2 SWAP1 POP JUMP JUMPDEST PUSH32 0x436F6E7472616374206D7573742062652070656E64696E672074656D696E6174 PUSH0 DUP3 ADD MSTORE PUSH32 0x696F6E0000000000000000000000000000000000000000000000000000000000 PUSH1 0x20 DUP3 ADD MSTORE POP JUMP JUMPDEST PUSH0 PUSH2 0x4E71 PUSH1 0x23 DUP4 PUSH2 0x4650 JUMP JUMPDEST SWAP2 POP PUSH2 0x4E7C DUP3 PUSH2 0x4E17 JUMP JUMPDEST PUSH1 0x40 DUP3 ADD SWAP1 POP SWAP2 SWAP1 POP JUMP JUMPDEST PUSH0 PUSH1 0x20 DUP3 ADD SWAP1 POP DUP2 DUP2 SUB PUSH0 DUP4 ADD MSTORE PUSH2 0x4E9E DUP2 PUSH2 0x4E65 JUMP JUMPDEST SWAP1 POP SWAP2 SWAP1 POP JUMP JUMPDEST PUSH0 PUSH2 0x4EAF DUP3 PUSH2 0x480A JUMP JUMPDEST SWAP2 POP PUSH2 0x4EBA DUP4 PUSH2 0x480A JUMP JUMPDEST SWAP3 POP DUP3 DUP3 MUL PUSH2 0x4EC8 DUP2 PUSH2 0x480A JUMP JUMPDEST SWAP2 POP DUP3 DUP3 DIV DUP5 EQ DUP4 ISZERO OR PUSH2 0x4EDF JUMPI PUSH2 0x4EDE PUSH2 0x4C62 JUMP JUMPDEST JUMPDEST POP SWAP3 SWAP2 POP POP JUMP JUMPDEST PUSH2 0x4EEF DUP2 PUSH2 0x4BDA JUMP JUMPDEST DUP3 MSTORE POP POP JUMP JUMPDEST PUSH0 PUSH1 0x20 DUP3 ADD SWAP1 POP PUSH2 0x4F08 PUSH0 DUP4 ADD DUP5 PUSH2 0x4EE6 JUMP JUMPDEST SWAP3 SWAP2 POP POP JUMP JUMPDEST PUSH32 0x4E6F2070656E64696E67207761726E696E6720746F20636F6E6669726D000000 PUSH0 DUP3 ADD MSTORE POP JUMP JUMPDEST PUSH0 PUSH2 0x4F42 PUSH1 0x1D DUP4 PUSH2 0x4650 JUMP JUMPDEST SWAP2 POP PUSH2 0x4F4D DUP3 PUSH2 0x4F0E JUMP JUMPDEST PUSH1 0x20 DUP3 ADD SWAP1 POP SWAP2 SWAP1 POP JUMP JUMPDEST PUSH0 PUSH1 0x20 DUP3 ADD SWAP1 POP DUP2 DUP2 SUB PUSH0 DUP4 ADD MSTORE PUSH2 0x4F6F DUP2 PUSH2 0x4F36 JUMP JUMPDEST SWAP1 POP SWAP2 SWAP1 POP JUMP JUMPDEST PUSH0 PUSH2 0x4F80 DUP3 PUSH2 0x480A JUMP JUMPDEST SWAP2 POP PUSH32 0xFFFFFFFFFFFFFFFFFFFFFFFFFFFFFFFFFFFFFFFFFFFFFFFFFFFFFFFFFFFFFFFF DUP3 SUB PUSH2 0x4FB2 JUMPI PUSH2 0x4FB1 PUSH2 0x4C62 JUMP JUMPDEST JUMPDEST PUSH1 0x1 DUP3 ADD SWAP1 POP SWAP2 SWAP1 POP JUMP JUMPDEST PUSH32 0x4F6E6C792054656E616E742063616E20706572666F726D207468697320616374 PUSH0 DUP3 ADD MSTORE PUSH32 0x696F6E0000000000000000000000000000000000000000000000000000000000 PUSH1 0x20 DUP3 ADD MSTORE POP JUMP JUMPDEST PUSH0 PUSH2 0x5017 PUSH1 0x23 DUP4 PUSH2 0x4650 JUMP JUMPDEST SWAP2 POP PUSH2 0x5022 DUP3 PUSH2 0x4FBD JUMP JUMPDEST PUSH1 0x40 DUP3 ADD SWAP1 POP SWAP2 SWAP1 POP JUMP JUMPDEST PUSH0 PUSH1 0x20 DUP3 ADD SWAP1 POP DUP2 DUP2 SUB PUSH0 DUP4 ADD MSTORE PUSH2 0x5044 DUP2 PUSH2 0x500B JUMP JUMPDEST SWAP1 POP SWAP2 SWAP1 POP JUMP JUMPDEST PUSH32 0x52656E74616C20636F6E7472616374206973206E6F7420616374697665000000 PUSH0 DUP3 ADD MSTORE POP JUMP JUMPDEST PUSH0 PUSH2 0x507F PUSH1 0x1D DUP4 PUSH2 0x4650 JUMP JUMPDEST SWAP2 POP PUSH2 0x508A DUP3 PUSH2 0x504B JUMP JUMPDEST PUSH1 0x20 DUP3 ADD SWAP1 POP SWAP2 SWAP1 POP JUMP JUMPDEST PUSH0 PUSH1 0x20 DUP3 ADD SWAP1 POP DUP2 DUP2 SUB PUSH0 DUP4 ADD MSTORE PUSH2 0x50AC DUP2 PUSH2 0x5073 JUMP JUMPDEST SWAP1 POP SWAP2 SWAP1 POP JUMP JUMPDEST PUSH32 0x4E6F2045544820726571756972656420666F7220737461626C65636F696E2064 PUSH0 DUP3 ADD MSTORE PUSH32 0x65706F7369740000000000000000000000000000000000000000000000000000 PUSH1 0x20 DUP3 ADD MSTORE POP JUMP JUMPDEST PUSH0 PUSH2 0x510D PUSH1 0x26 DUP4 PUSH2 0x4650 JUMP JUMPDEST SWAP2 POP PUSH2 0x5118 DUP3 PUSH2 0x50B3 JUMP JUMPDEST PUSH1 0x40 DUP3 ADD SWAP1 POP SWAP2 SWAP1 POP JUMP JUMPDEST PUSH0 PUSH1 0x20 DUP3 ADD SWAP1 POP DUP2 DUP2 SUB PUSH0 DUP4 ADD MSTORE PUSH2 0x513A DUP2 PUSH2 0x5101 JUMP JUMPDEST SWAP1 POP SWAP2 SWAP1 POP JUMP JUMPDEST PUSH0 PUSH1 0x40 DUP3 ADD SWAP1 POP PUSH2 0x5154 PUSH0 DUP4 ADD DUP6 PUSH2 0x4813 JUMP JUMPDEST PUSH2 0x5161 PUSH1 0x20 DUP4 ADD DUP5 PUSH2 0x46D1 JUMP JUMPDEST SWAP4 SWAP3 POP POP POP JUMP JUMPDEST PUSH0 PUSH1 0x60 DUP3 ADD SWAP1 POP PUSH2 0x517B PUSH0 DUP4 ADD DUP7 PUSH2 0x4958 JUMP JUMPDEST PUSH2 0x5188 PUSH1 0x20 DUP4 ADD DUP6 PUSH2 0x4958 JUMP JUMPDEST PUSH2 0x5195 PUSH1 0x40 DUP4 ADD DUP5 PUSH2 0x4813 JUMP JUMPDEST SWAP5 SWAP4 POP POP POP POP JUMP JUMPDEST PUSH2 0x51A6 DUP2 PUSH2 0x46C6 JUMP JUMPDEST DUP2 EQ PUSH2 0x51B0 JUMPI PUSH0 PUSH0 REVERT JUMPDEST POP JUMP JUMPDEST PUSH0 DUP2 MLOAD SWAP1 POP PUSH2 0x51C1 DUP2 PUSH2 0x519D JUMP JUMPDEST SWAP3 SWAP2 POP POP JUMP JUMPDEST PUSH0 PUSH1 0x20 DUP3 DUP5 SUB SLT ISZERO PUSH2 0x51DC JUMPI PUSH2 0x51DB PUSH2 0x44BB JUMP JUMPDEST JUMPDEST PUSH0 PUSH2 0x51E9 DUP5 DUP3 DUP6 ADD PUSH2 0x51B3 JUMP JUMPDEST SWAP2 POP POP SWAP3 SWAP2 POP POP JUMP JUMPDEST PUSH32 0x537461626C65636F696E206465706F736974206661696C656400000000000000 PUSH0 DUP3 ADD MSTORE POP JUMP JUMPDEST PUSH0 PUSH2 0x5226 PUSH1 0x19 DUP4 PUSH2 0x4650 JUMP JUMPDEST SWAP2 POP PUSH2 0x5231 DUP3 PUSH2 0x51F2 JUMP JUMPDEST PUSH1 0x20 DUP3 ADD SWAP1 POP SWAP2 SWAP1 POP JUMP JUMPDEST PUSH0 PUSH1 0x20 DUP3 ADD SWAP1 POP DUP2 DUP2 SUB PUSH0 DUP4 ADD MSTORE PUSH2 0x5253 DUP2 PUSH2 0x521A JUMP JUMPDEST SWAP1 POP SWAP2 SWAP1 POP JUMP JUMPDEST PUSH32 0x496E73756666696369656E74204554482073656E740000000000000000000000 PUSH0 DUP3 ADD MSTORE POP JUMP JUMPDEST PUSH0 PUSH2 0x528E PUSH1 0x15 DUP4 PUSH2 0x4650 JUMP JUMPDEST SWAP2 POP PUSH2 0x5299 DUP3 PUSH2 0x525A JUMP JUMPDEST PUSH1 0x20 DUP3 ADD SWAP1 POP SWAP2 SWAP1 POP JUMP JUMPDEST PUSH0 PUSH1 0x20 DUP3 ADD SWAP1 POP DUP2 DUP2 SUB PUSH0 DUP4 ADD MSTORE PUSH2 0x52BB DUP2 PUSH2 0x5282 JUMP JUMPDEST SWAP1 POP SWAP2 SWAP1 POP JUMP JUMPDEST PUSH32 0x436F6E747261637420686173206E6F7420657870697265642079657400000000 PUSH0 DUP3 ADD MSTORE POP JUMP JUMPDEST PUSH0 PUSH2 0x52F6 PUSH1 0x1C DUP4 PUSH2 0x4650 JUMP JUMPDEST SWAP2 POP PUSH2 0x5301 DUP3 PUSH2 0x52C2 JUMP JUMPDEST PUSH1 0x20 DUP3 ADD SWAP1 POP SWAP2 SWAP1 POP JUMP JUMPDEST PUSH0 PUSH1 0x20 DUP3 ADD SWAP1 POP DUP2 DUP2 SUB PUSH0 DUP4 ADD MSTORE PUSH2 0x5323 DUP2 PUSH2 0x52EA JUMP JUMPDEST SWAP1 POP SWAP2 SWAP1 POP JUMP JUMPDEST PUSH32 0x436F6E747261637420686173206265656E2072656E6577656400000000000000 PUSH0 DUP3 ADD MSTORE POP JUMP JUMPDEST PUSH0 PUSH2 0x535E PUSH1 0x19 DUP4 PUSH2 0x4650 JUMP JUMPDEST SWAP2 POP PUSH2 0x5369 DUP3 PUSH2 0x532A JUMP JUMPDEST PUSH1 0x20 DUP3 ADD SWAP1 POP SWAP2 SWAP1 POP JUMP JUMPDEST PUSH0 PUSH1 0x20 DUP3 ADD SWAP1 POP DUP2 DUP2 SUB PUSH0 DUP4 ADD MSTORE PUSH2 0x538B DUP2 PUSH2 0x5352 JUMP JUMPDEST SWAP1 POP SWAP2 SWAP1 POP JUMP JUMPDEST PUSH32 0x436F6E7472616374206578706972656420776974686F75742072656E6577616C PUSH0 DUP3 ADD MSTORE POP JUMP JUMPDEST PUSH0 PUSH2 0x53C6 PUSH1 0x20 DUP4 PUSH2 0x4650 JUMP JUMPDEST SWAP2 POP PUSH2 0x53D1 DUP3 PUSH2 0x5392 JUMP JUMPDEST PUSH1 0x20 DUP3 ADD SWAP1 POP SWAP2 SWAP1 POP JUMP JUMPDEST PUSH0 PUSH1 0x20 DUP3 ADD SWAP1 POP DUP2 DUP2 SUB PUSH0 DUP4 ADD MSTORE PUSH2 0x53F3 DUP2 PUSH2 0x53BA JUMP JUMPDEST SWAP1 POP SWAP2 SWAP1 POP JUMP JUMPDEST PUSH32 0x436F6E7472616374206D75737420626572207465726D696E6174656400000000 PUSH0 DUP3 ADD MSTORE POP JUMP JUMPDEST PUSH0 PUSH2 0x542E PUSH1 0x1C DUP4 PUSH2 0x4650 JUMP JUMPDEST SWAP2 POP PUSH2 0x5439 DUP3 PUSH2 0x53FA JUMP JUMPDEST PUSH1 0x20 DUP3 ADD SWAP1 POP SWAP2 SWAP1 POP JUMP JUMPDEST PUSH0 PUSH1 0x20 DUP3 ADD SWAP1 POP DUP2 DUP2 SUB PUSH0 DUP4 ADD MSTORE PUSH2 0x545B DUP2 PUSH2 0x5422 JUMP JUMPDEST SWAP1 POP SWAP2 SWAP1 POP JUMP JUMPDEST PUSH0 PUSH1 0x40 DUP3 ADD SWAP1 POP PUSH2 0x5475 PUSH0 DUP4 ADD DUP6 PUSH2 0x4958 JUMP JUMPDEST PUSH2 0x5482 PUSH1 0x20 DUP4 ADD DUP5 PUSH2 0x4813 JUMP JUMPDEST SWAP4 SWAP3 POP POP POP JUMP JUMPDEST PUSH32 0x537461626C65636F696E207061796D656E74206661696C656400000000000000 PUSH0 DUP3 ADD MSTORE POP JUMP JUMPDEST PUSH0 PUSH2 0x54BD PUSH1 0x19 DUP4 PUSH2 0x4650 JUMP JUMPDEST SWAP2 POP PUSH2 0x54C8 DUP3 PUSH2 0x5489 JUMP JUMPDEST PUSH1 0x20 DUP3 ADD SWAP1 POP SWAP2 SWAP1 POP JUMP JUMPDEST PUSH0 PUSH1 0x20 DUP3 ADD SWAP1 POP DUP2 DUP2 SUB PUSH0 DUP4 ADD MSTORE PUSH2 0x54EA DUP2 PUSH2 0x54B1 JUMP JUMPDEST SWAP1 POP SWAP2 SWAP1 POP JUMP JUMPDEST PUSH0 PUSH10 0xFFFFFFFFFFFFFFFFFFFF DUP3 AND SWAP1 POP SWAP2 SWAP1 POP JUMP JUMPDEST PUSH2 0x550F DUP2 PUSH2 0x54F1 JUMP JUMPDEST DUP2 EQ PUSH2 0x5519 JUMPI PUSH0 PUSH0 REVERT JUMPDEST POP JUMP JUMPDEST PUSH0 DUP2 MLOAD SWAP1 POP PUSH2 0x552A DUP2 PUSH2 0x5506 JUMP JUMPDEST SWAP3 SWAP2 POP POP JUMP JUMPDEST PUSH0 DUP2 SWAP1 POP SWAP2 SWAP1 POP JUMP JUMPDEST PUSH2 0x5542 DUP2 PUSH2 0x5530 JUMP JUMPDEST DUP2 EQ PUSH2 0x554C JUMPI PUSH0 PUSH0 REVERT JUMPDEST POP JUMP JUMPDEST PUSH0 DUP2 MLOAD SWAP1 POP PUSH2 0x555D DUP2 PUSH2 0x5539 JUMP JUMPDEST SWAP3 SWAP2 POP POP JUMP JUMPDEST PUSH0 PUSH0 PUSH0 PUSH0 PUSH0 PUSH1 0xA0 DUP7 DUP9 SUB SLT ISZERO PUSH2 0x557C JUMPI PUSH2 0x557B PUSH2 0x44BB JUMP JUMPDEST JUMPDEST PUSH0 PUSH2 0x5589 DUP9 DUP3 DUP10 ADD PUSH2 0x551C JUMP JUMPDEST SWAP6 POP POP PUSH1 0x20 PUSH2 0x559A DUP9 DUP3 DUP10 ADD PUSH2 0x554F JUMP JUMPDEST SWAP5 POP POP PUSH1 0x40 PUSH2 0x55AB DUP9 DUP3 DUP10 ADD PUSH2 0x4C23 JUMP JUMPDEST SWAP4 POP POP PUSH1 0x60 PUSH2 0x55BC DUP9 DUP3 DUP10 ADD PUSH2 0x4C23 JUMP JUMPDEST SWAP3 POP POP PUSH1 0x80 PUSH2 0x55CD DUP9 DUP3 DUP10 ADD PUSH2 0x551C JUMP JUMPDEST SWAP2 POP POP SWAP3 SWAP6 POP SWAP3 SWAP6 SWAP1 SWAP4 POP JUMP JUMPDEST PUSH0 PUSH2 0x55E4 DUP3 PUSH2 0x5530 JUMP JUMPDEST SWAP2 POP PUSH2 0x55EF DUP4 PUSH2 0x5530 JUMP JUMPDEST SWAP3 POP DUP3 DUP3 MUL PUSH2 0x55FD DUP2 PUSH2 0x5530 JUMP JUMPDEST SWAP2 POP PUSH32 0x8000000000000000000000000000000000000000000000000000000000000000 DUP5 EQ PUSH0 DUP5 SLT AND ISZERO PUSH2 0x5634 JUMPI PUSH2 0x5633 PUSH2 0x4C62 JUMP JUMPDEST JUMPDEST DUP3 DUP3 SDIV DUP5 EQ DUP4 ISZERO OR PUSH2 0x5649 JUMPI PUSH2 0x5648 PUSH2 0x4C62 JUMP JUMPDEST JUMPDEST POP SWAP3 SWAP2 POP POP JUMP JUMPDEST PUSH32 0x446564756374696F6E2065786365656473206465706F73697420616D6F756E74 PUSH0 DUP3 ADD MSTORE POP JUMP JUMPDEST PUSH0 PUSH2 0x5684 PUSH1 0x20 DUP4 PUSH2 0x4650 JUMP JUMPDEST SWAP2 POP PUSH2 0x568F DUP3 PUSH2 0x5650 JUMP JUMPDEST PUSH1 0x20 DUP3 ADD SWAP1 POP SWAP2 SWAP1 POP JUMP JUMPDEST PUSH0 PUSH1 0x20 DUP3 ADD SWAP1 POP DUP2 DUP2 SUB PUSH0 DUP4 ADD MSTORE PUSH2 0x56B1 DUP2 PUSH2 0x5678 JUMP JUMPDEST SWAP1 POP SWAP2 SWAP1 POP JUMP JUMPDEST PUSH0 PUSH1 0x40 DUP3 ADD SWAP1 POP PUSH2 0x56CB PUSH0 DUP4 ADD DUP6 PUSH2 0x4813 JUMP JUMPDEST DUP2 DUP2 SUB PUSH1 0x20 DUP4 ADD MSTORE PUSH2 0x56DD DUP2 DUP5 PUSH2 0x466E JUMP JUMPDEST SWAP1 POP SWAP4 SWAP3 POP POP POP JUMP JUMPDEST PUSH32 0x537461626C65636F696E207472616E73666572206661696C6564000000000000 PUSH0 DUP3 ADD MSTORE POP JUMP JUMPDEST PUSH0 PUSH2 0x571A PUSH1 0x1A DUP4 PUSH2 0x4650 JUMP JUMPDEST SWAP2 POP PUSH2 0x5725 DUP3 PUSH2 0x56E6 JUMP JUMPDEST PUSH1 0x20 DUP3 ADD SWAP1 POP SWAP2 SWAP1 POP JUMP JUMPDEST PUSH0 PUSH1 0x20 DUP3 ADD SWAP1 POP DUP2 DUP2 SUB PUSH0 DUP4 ADD MSTORE PUSH2 0x5747 DUP2 PUSH2 0x570E JUMP JUMPDEST SWAP1 POP SWAP2 SWAP1 POP JUMP JUMPDEST PUSH32 0x436F6E747261637420206D7573742062652070656E64696E67207465726D696E PUSH0 DUP3 ADD MSTORE PUSH32 0x6174696F6E000000000000000000000000000000000000000000000000000000 PUSH1 0x20 DUP3 ADD MSTORE POP JUMP JUMPDEST PUSH0 PUSH2 0x57A8 PUSH1 0x25 DUP4 PUSH2 0x4650 JUMP JUMPDEST SWAP2 POP PUSH2 0x57B3 DUP3 PUSH2 0x574E JUMP JUMPDEST PUSH1 0x40 DUP3 ADD SWAP1 POP SWAP2 SWAP1 POP JUMP JUMPDEST PUSH0 PUSH1 0x20 DUP3 ADD SWAP1 POP DUP2 DUP2 SUB PUSH0 DUP4 ADD MSTORE PUSH2 0x57D5 DUP2 PUSH2 0x579C JUMP JUMPDEST SWAP1 POP SWAP2 SWAP1 POP JUMP JUMPDEST PUSH32 0x4C616E646C6F726420686173206E6F7420726571756573746564206561726C79 PUSH0 DUP3 ADD MSTORE PUSH32 0x207465726D696E6174696F6E0000000000000000000000000000000000000000 PUSH1 0x20 DUP3 ADD MSTORE POP JUMP JUMPDEST PUSH0 PUSH2 0x5836 PUSH1 0x2C DUP4 PUSH2 0x4650 JUMP JUMPDEST SWAP2 POP PUSH2 0x5841 DUP3 PUSH2 0x57DC JUMP JUMPDEST PUSH1 0x40 DUP3 ADD SWAP1 POP SWAP2 SWAP1 POP JUMP JUMPDEST PUSH0 PUSH1 0x20 DUP3 ADD SWAP1 POP DUP2 DUP2 SUB PUSH0 DUP4 ADD MSTORE PUSH2 0x5863 DUP2 PUSH2 0x582A JUMP JUMPDEST SWAP1 POP SWAP2 SWAP1 POP JUMP JUMPDEST PUSH32 0x436F6E7472616374207465726D696E61746564206561726C79206279206D7574 PUSH0 DUP3 ADD MSTORE PUSH32 0x75616C2061677265656D656E7400000000000000000000000000000000000000 PUSH1 0x20 DUP3 ADD MSTORE POP JUMP JUMPDEST PUSH0 PUSH2 0x58C4 PUSH1 0x2D DUP4 PUSH2 0x4650 JUMP JUMPDEST SWAP2 POP PUSH2 0x58CF DUP3 PUSH2 0x586A JUMP JUMPDEST PUSH1 0x40 DUP3 ADD SWAP1 POP SWAP2 SWAP1 POP JUMP JUMPDEST PUSH0 PUSH1 0x20 DUP3 ADD SWAP1 POP DUP2 DUP2 SUB PUSH0 DUP4 ADD MSTORE PUSH2 0x58F1 DUP2 PUSH2 0x58B8 JUMP JUMPDEST SWAP1 POP SWAP2 SWAP1 POP JUMP JUMPDEST PUSH32 0x496E737566666963656E74204554482073656E74000000000000000000000000 PUSH0 DUP3 ADD MSTORE POP JUMP JUMPDEST PUSH0 PUSH2 0x592C PUSH1 0x14 DUP4 PUSH2 0x4650 JUMP JUMPDEST SWAP2 POP PUSH2 0x5937 DUP3 PUSH2 0x58F8 JUMP JUMPDEST PUSH1 0x20 DUP3 ADD SWAP1 POP SWAP2 SWAP1 POP JUMP JUMPDEST PUSH0 PUSH1 0x20 DUP3 ADD SWAP1 POP DUP2 DUP2 SUB PUSH0 DUP4 ADD MSTORE PUSH2 0x5959 DUP2 PUSH2 0x5920 JUMP JUMPDEST SWAP1 POP SWAP2 SWAP1 POP JUMP JUMPDEST PUSH32 0x436F6E74726163742068617320616C7265616479206578706972656400000000 PUSH0 DUP3 ADD MSTORE POP JUMP JUMPDEST PUSH0 PUSH2 0x5994 PUSH1 0x1C DUP4 PUSH2 0x4650 JUMP JUMPDEST SWAP2 POP PUSH2 0x599F DUP3 PUSH2 0x5960 JUMP JUMPDEST PUSH1 0x20 DUP3 ADD SWAP1 POP SWAP2 SWAP1 POP JUMP JUMPDEST PUSH0 PUSH1 0x20 DUP3 ADD SWAP1 POP DUP2 DUP2 SUB PUSH0 DUP4 ADD MSTORE PUSH2 0x59C1 DUP2 PUSH2 0x5988 JUMP JUMPDEST SWAP1 POP SWAP2 SWAP1 POP JUMP JUMPDEST PUSH32 0x436F6E7472616374206973206E6F742041637469766500000000000000000000 PUSH0 DUP3 ADD MSTORE POP JUMP JUMPDEST PUSH0 PUSH2 0x59FC PUSH1 0x16 DUP4 PUSH2 0x4650 JUMP JUMPDEST SWAP2 POP PUSH2 0x5A07 DUP3 PUSH2 0x59C8 JUMP JUMPDEST PUSH1 0x20 DUP3 ADD SWAP1 POP SWAP2 SWAP1 POP JUMP JUMPDEST PUSH0 PUSH1 0x20 DUP3 ADD SWAP1 POP DUP2 DUP2 SUB PUSH0 DUP4 ADD MSTORE PUSH2 0x5A29 DUP2 PUSH2 0x59F0 JUMP JUMPDEST SWAP1 POP SWAP2 SWAP1 POP JUMP JUMPDEST PUSH32 0x5761726E696E67206E6F74206170706C696361626C6520796574000000000000 PUSH0 DUP3 ADD MSTORE POP JUMP JUMPDEST PUSH0 PUSH2 0x5A64 PUSH1 0x1A DUP4 PUSH2 0x4650 JUMP JUMPDEST SWAP2 POP PUSH2 0x5A6F DUP3 PUSH2 0x5A30 JUMP JUMPDEST PUSH1 0x20 DUP3 ADD SWAP1 POP SWAP2 SWAP1 POP JUMP JUMPDEST PUSH0 PUSH1 0x20 DUP3 ADD SWAP1 POP DUP2 DUP2 SUB PUSH0 DUP4 ADD MSTORE PUSH2 0x5A91 DUP2 PUSH2 0x5A58 JUMP JUMPDEST SWAP1 POP SWAP2 SWAP1 POP JUMP JUMPDEST PUSH32 0x5465726D696E6174696F6E206E6F742073636864756C65640000000000000000 PUSH0 DUP3 ADD MSTORE POP JUMP JUMPDEST PUSH0 PUSH2 0x5ACC PUSH1 0x18 DUP4 PUSH2 0x4650 JUMP JUMPDEST SWAP2 POP PUSH2 0x5AD7 DUP3 PUSH2 0x5A98 JUMP JUMPDEST PUSH1 0x20 DUP3 ADD SWAP1 POP SWAP2 SWAP1 POP JUMP JUMPDEST PUSH0 PUSH1 0x20 DUP3 ADD SWAP1 POP DUP2 DUP2 SUB PUSH0 DUP4 ADD MSTORE PUSH2 0x5AF9 DUP2 PUSH2 0x5AC0 JUMP JUMPDEST SWAP1 POP SWAP2 SWAP1 POP JUMP JUMPDEST PUSH32 0x5465726D696E6174696F6E20706572696F64206E6F7420726561636865640000 PUSH0 DUP3 ADD MSTORE POP JUMP JUMPDEST PUSH0 PUSH2 0x5B34 PUSH1 0x1E DUP4 PUSH2 0x4650 JUMP JUMPDEST SWAP2 POP PUSH2 0x5B3F DUP3 PUSH2 0x5B00 JUMP JUMPDEST PUSH1 0x20 DUP3 ADD SWAP1 POP SWAP2 SWAP1 POP JUMP JUMPDEST PUSH0 PUSH1 0x20 DUP3 ADD SWAP1 POP DUP2 DUP2 SUB PUSH0 DUP4 ADD MSTORE PUSH2 0x5B61 DUP2 PUSH2 0x5B28 JUMP JUMPDEST SWAP1 POP SWAP2 SWAP1 POP JUMP JUMPDEST PUSH32 0x4D6F7265207468616E2033207061796D656E74732077657265206E6F74207265 PUSH0 DUP3 ADD MSTORE PUSH32 0x67697374657265642E20436F6E7472616374206973207465726D696E61746564 PUSH1 0x20 DUP3 ADD MSTORE PUSH32 0x2E00000000000000000000000000000000000000000000000000000000000000 PUSH1 0x40 DUP3 ADD MSTORE POP JUMP JUMPDEST PUSH0 PUSH2 0x5BE8 PUSH1 0x41 DUP4 PUSH2 0x4650 JUMP JUMPDEST SWAP2 POP PUSH2 0x5BF3 DUP3 PUSH2 0x5B68 JUMP JUMPDEST PUSH1 0x60 DUP3 ADD SWAP1 POP SWAP2 SWAP1 POP JUMP JUMPDEST PUSH0 PUSH1 0x20 DUP3 ADD SWAP1 POP DUP2 DUP2 SUB PUSH0 DUP4 ADD MSTORE PUSH2 0x5C15 DUP2 PUSH2 0x5BDC JUMP JUMPDEST SWAP1 POP SWAP2 SWAP1 POP JUMP JUMPDEST PUSH32 0x4175746F207061796D656E74206E6F7420617574686F72697A65640000000000 PUSH0 DUP3 ADD MSTORE POP JUMP JUMPDEST PUSH0 PUSH2 0x5C50 PUSH1 0x1B DUP4 PUSH2 0x4650 JUMP JUMPDEST SWAP2 POP PUSH2 0x5C5B DUP3 PUSH2 0x5C1C JUMP JUMPDEST PUSH1 0x20 DUP3 ADD SWAP1 POP SWAP2 SWAP1 POP JUMP JUMPDEST PUSH0 PUSH1 0x20 DUP3 ADD SWAP1 POP DUP2 DUP2 SUB PUSH0 DUP4 ADD MSTORE PUSH2 0x5C7D DUP2 PUSH2 0x5C44 JUMP JUMPDEST SWAP1 POP SWAP2 SWAP1 POP JUMP JUMPDEST PUSH32 0x4175746F20706179206661696C65640000000000000000000000000000000000 PUSH0 DUP3 ADD MSTORE POP JUMP JUMPDEST PUSH0 PUSH2 0x5CB8 PUSH1 0xF DUP4 PUSH2 0x4650 JUMP JUMPDEST SWAP2 POP PUSH2 0x5CC3 DUP3 PUSH2 0x5C84 JUMP JUMPDEST PUSH1 0x20 DUP3 ADD SWAP1 POP SWAP2 SWAP1 POP JUMP JUMPDEST PUSH0 PUSH1 0x20 DUP3 ADD SWAP1 POP DUP2 DUP2 SUB PUSH0 DUP4 ADD MSTORE PUSH2 0x5CE5 DUP2 PUSH2 0x5CAC JUMP JUMPDEST SWAP1 POP SWAP2 SWAP1 POP JUMP JUMPDEST PUSH32 0x5465726D696E6174696F6E206E6F74207363686564756C656400000000000000 PUSH0 DUP3 ADD MSTORE POP JUMP JUMPDEST PUSH0 PUSH2 0x5D20 PUSH1 0x19 DUP4 PUSH2 0x4650 JUMP JUMPDEST SWAP2 POP PUSH2 0x5D2B DUP3 PUSH2 0x5CEC JUMP JUMPDEST PUSH1 0x20 DUP3 ADD SWAP1 POP SWAP2 SWAP1 POP JUMP JUMPDEST PUSH0 PUSH1 0x20 DUP3 ADD SWAP1 POP DUP2 DUP2 SUB PUSH0 DUP4 ADD MSTORE PUSH2 0x5D4D DUP2 PUSH2 0x5D14 JUMP JUMPDEST SWAP1 POP SWAP2 SWAP1 POP JUMP JUMPDEST PUSH32 0x416C6C206465627473206D757374206265207061796564000000000000000000 PUSH0 DUP3 ADD MSTORE POP JUMP JUMPDEST PUSH0 PUSH2 0x5D88 PUSH1 0x17 DUP4 PUSH2 0x4650 JUMP JUMPDEST SWAP2 POP PUSH2 0x5D93 DUP3 PUSH2 0x5D54 JUMP JUMPDEST PUSH1 0x20 DUP3 ADD SWAP1 POP SWAP2 SWAP1 POP JUMP JUMPDEST PUSH0 PUSH1 0x20 DUP3 ADD SWAP1 POP DUP2 DUP2 SUB PUSH0 DUP4 ADD MSTORE PUSH2 0x5DB5 DUP2 PUSH2 0x5D7C JUMP JUMPDEST SWAP1 POP SWAP2 SWAP1 POP JUMP JUMPDEST PUSH32 0x54656E616E74207465726D696E6174656420746865206C656173652061677265 PUSH0 DUP3 ADD MSTORE PUSH32 0x656D656E74000000000000000000000000000000000000000000000000000000 PUSH1 0x20 DUP3 ADD MSTORE POP JUMP JUMPDEST PUSH0 PUSH2 0x5E16 PUSH1 0x25 DUP4 PUSH2 0x4650 JUMP JUMPDEST SWAP2 POP PUSH2 0x5E21 DUP3 PUSH2 0x5DBC JUMP JUMPDEST PUSH1 0x40 DUP3 ADD SWAP1 POP SWAP2 SWAP1 POP JUMP JUMPDEST PUSH0 PUSH1 0x20 DUP3 ADD SWAP1 POP DUP2 DUP2 SUB PUSH0 DUP4 ADD MSTORE PUSH2 0x5E43 DUP2 PUSH2 0x5E0A JUMP JUMPDEST SWAP1 POP SWAP2 SWAP1 POP JUMP JUMPDEST PUSH32 0x54656E6E616E7420686173206E6F742061736B656420666F722072656E657761 PUSH0 DUP3 ADD MSTORE PUSH32 0x6C00000000000000000000000000000000000000000000000000000000000000 PUSH1 0x20 DUP3 ADD MSTORE POP JUMP JUMPDEST PUSH0 PUSH2 0x5EA4 PUSH1 0x21 DUP4 PUSH2 0x4650 JUMP JUMPDEST SWAP2 POP PUSH2 0x5EAF DUP3 PUSH2 0x5E4A JUMP JUMPDEST PUSH1 0x40 DUP3 ADD SWAP1 POP SWAP2 SWAP1 POP JUMP JUMPDEST PUSH0 PUSH1 0x20 DUP3 ADD SWAP1 POP DUP2 DUP2 SUB PUSH0 DUP4 ADD MSTORE PUSH2 0x5ED1 DUP2 PUSH2 0x5E98 JUMP JUMPDEST SWAP1 POP SWAP2 SWAP1 POP JUMP JUMPDEST PUSH0 PUSH2 0x5EE2 DUP3 PUSH2 0x483B JUMP JUMPDEST SWAP2 POP PUSH2 0x5EED DUP4 PUSH2 0x483B JUMP JUMPDEST SWAP3 POP DUP3 DUP3 ADD SWAP1 POP PUSH6 0xFFFFFFFFFFFF DUP2 GT ISZERO PUSH2 0x5F0B JUMPI PUSH2 0x5F0A PUSH2 0x4C62 JUMP JUMPDEST JUMPDEST SWAP3 SWAP2 POP POP JUMP JUMPDEST PUSH32 0x5265656E7472616E637947756172643A207265656E7472616E742063616C6C00 PUSH0 DUP3 ADD MSTORE POP JUMP JUMPDEST PUSH0 PUSH2 0x5F45 PUSH1 0x1F DUP4 PUSH2 0x4650 JUMP JUMPDEST SWAP2 POP PUSH2 0x5F50 DUP3 PUSH2 0x5F11 JUMP JUMPDEST PUSH1 0x20 DUP3 ADD SWAP1 POP SWAP2 SWAP1 POP JUMP JUMPDEST PUSH0 PUSH1 0x20 DUP3 ADD SWAP1 POP DUP2 DUP2 SUB PUSH0 DUP4 ADD MSTORE PUSH2 0x5F72 DUP2 PUSH2 0x5F39 JUMP JUMPDEST SWAP1 POP SWAP2 SWAP1 POP JUMP INVALID LOG2 PUSH5 0x6970667358 0x22 SLT KECCAK256 GAS PUSH2 0x5616 PUSH9 0x200E99617880F0A9C6 0x28 SELFBALANCE MSTORE8 0xC9 PREVRANDAO 0xC2 SMOD JUMPI 0xB0 LOG3 SWAP10 MCOPY GAS 0xA7 MLOAD ORIGIN BALANCE 0xC9 PUSH5 0x736F6C6343 STOP ADDMOD 0x1E STOP CALLER LOG2 PUSH5 0x6970667358 0x22 SLT KECCAK256 0xBB MLOAD DUP16 0x4F 0xE9 PUSH26 0x6F259DC470FC4078FDF9ACB7E61613F4EE8BA4AD318DD2C485B7 PUSH5 0x736F6C6343 STOP ADDMOD 0x1E STOP CALLER "
		},
		"gasEstimates": {
			"creation": {
				"codeDepositCost": "8877400",
				"executionCost": "12139",
				"totalCost": "8889539"
			},
			"external": {
				"beforeAll()": "infinite",
				"testApproveAutoPayment()": "infinite",
				"testDeductFromDeposit()": "infinite",
				"testInitState()": "infinite",
				"testPayDeposit()": "infinite",
				"testPayRent()": "infinite",
				"testReturnDeposit()": "infinite"
			}
		},
		"methodIdentifiers": {
			"beforeAll()": "7fea0d4b",
			"testApproveAutoPayment()": "558c2f30",
			"testDeductFromDeposit()": "72362fc7",
			"testInitState()": "13eda550",
			"testPayDeposit()": "0e8a9f2f",
			"testPayRent()": "678620b3",
			"testReturnDeposit()": "24ed3294"
		}
	},
	"abi": [
		{
			"inputs": [],
			"name": "beforeAll",
			"outputs": [],
			"stateMutability": "nonpayable",
			"type": "function"
		},
		{
			"inputs": [],
			"name": "testApproveAutoPayment",
			"outputs": [],
			"stateMutability": "nonpayable",
			"type": "function"
		},
		{
			"inputs": [],
			"name": "testDeductFromDeposit",
			"outputs": [],
			"stateMutability": "nonpayable",
			"type": "function"
		},
		{
			"inputs": [],
			"name": "testInitState",
			"outputs": [],
			"stateMutability": "nonpayable",
			"type": "function"
		},
		{
			"inputs": [],
			"name": "testPayDeposit",
			"outputs": [],
			"stateMutability": "nonpayable",
			"type": "function"
		},
		{
			"inputs": [],
			"name": "testPayRent",
			"outputs": [],
			"stateMutability": "nonpayable",
			"type": "function"
		},
		{
			"inputs": [],
			"name": "testReturnDeposit",
			"outputs": [],
			"stateMutability": "nonpayable",
			"type": "function"
		}
	]
}